{
  "abi": [
    {
      "inputs": [],
      "stateMutability": "nonpayable",
      "type": "constructor"
    },
    {
      "inputs": [
        {
          "internalType": "address",
          "name": "_token",
          "type": "address"
        },
        {
          "internalType": "address",
          "name": "_priceFeedAggregator",
          "type": "address"
        }
      ],
      "name": "addPriceFeed",
      "outputs": [],
      "stateMutability": "nonpayable",
      "type": "function"
    },
    {
      "inputs": [
        {
          "internalType": "uint256",
          "name": "amount",
          "type": "uint256"
        },
        {
          "internalType": "address",
          "name": "tokenFrom",
          "type": "address"
        },
        {
          "internalType": "address",
          "name": "tokenTo",
          "type": "address"
        }
      ],
      "name": "convert",
      "outputs": [
        {
          "internalType": "uint256",
          "name": "",
          "type": "uint256"
        }
      ],
      "stateMutability": "view",
      "type": "function"
    },
    {
      "inputs": [
        {
          "internalType": "uint256",
          "name": "amount",
          "type": "uint256"
        },
        {
          "internalType": "address",
          "name": "token",
          "type": "address"
        }
      ],
      "name": "convertFromUSD",
      "outputs": [
        {
          "internalType": "uint256",
          "name": "",
          "type": "uint256"
        }
      ],
      "stateMutability": "view",
      "type": "function"
    },
    {
      "inputs": [
        {
          "internalType": "int256",
          "name": "amount",
          "type": "int256"
        },
        {
          "internalType": "address",
          "name": "token",
          "type": "address"
        }
      ],
      "name": "convertToUSD",
      "outputs": [
        {
          "internalType": "int256",
          "name": "value",
          "type": "int256"
        }
      ],
      "stateMutability": "view",
      "type": "function"
    },
    {
      "inputs": [
        {
          "internalType": "address",
          "name": "_token",
          "type": "address"
        }
      ],
      "name": "eed",
      "outputs": [],
      "stateMutability": "nonpayable",
      "type": "function"
    },
    {
      "inputs": [
        {
          "internalType": "uint256",
          "name": "amountFrom",
          "type": "uint256"
        },
        {
          "internalType": "address",
          "name": "tokenFrom",
          "type": "address"
        },
        {
          "internalType": "uint256",
          "name": "amountTo",
          "type": "uint256"
        },
        {
          "internalType": "address",
          "name": "tokenTo",
          "type": "address"
        }
      ],
      "name": "fastCheck",
      "outputs": [
        {
          "internalType": "uint256",
          "name": "collateralFrom",
          "type": "uint256"
        },
        {
          "internalType": "uint256",
          "name": "collateralTo",
          "type": "uint256"
        }
      ],
      "stateMutability": "view",
      "type": "function"
    },
    {
      "inputs": [
        {
          "internalType": "address",
          "name": "token",
          "type": "address"
        }
      ],
      "name": "priceFeeds",
      "outputs": [
        {
          "internalType": "address",
          "name": "",
          "type": "address"
        }
      ],
      "stateMutability": "view",
      "type": "function"
    },
    {
      "inputs": [
        {
          "internalType": "address",
          "name": "",
          "type": "address"
        }
      ],
      "name": "tokenPriceFeed",
      "outputs": [
        {
          "internalType": "address",
          "name": "",
          "type": "address"
        }
      ],
      "stateMutability": "view",
      "type": "function"
    },
    {
      "inputs": [
        {
          "internalType": "address",
          "name": "_token",
          "type": "address"
        },
        {
          "internalType": "address",
          "name": "_priceFeedAggregator",
          "type": "address"
        }
      ],
      "name": "updatePriceFeed",
      "outputs": [],
      "stateMutability": "nonpayable",
      "type": "function"
    }
  ],
  "bytecode": {
    "object": "0x608060405234801561001057600080fd5b506115ce806100206000396000f3fe608060405234801561001057600080fd5b50600436106100935760003560e01c80639878cbb3116100665780639878cbb3146101455780639dcb511a14610175578063b66102df146101a5578063b7997da1146101d5578063e8a97a3e146101f157610093565b806308ba9084146100985780631c034220146100c85780635cecbd0e146100e45780637afb010414610115575b600080fd5b6100b260048036038101906100ad9190610d2a565b61020d565b6040516100bf9190610d79565b60405180910390f35b6100e260048036038101906100dd9190610d94565b610270565b005b6100fe60048036038101906100f99190610df7565b610410565b60405161010c929190610e6d565b60405180910390f35b61012f600480360381019061012a9190610e96565b61045d565b60405161013c9190610ed6565b60405180910390f35b61015f600480360381019061015a9190610d94565b6104a5565b60405161016c9190610f00565b60405180910390f35b61018f600480360381019061018a9190610d94565b6104d8565b60405161019c9190610f00565b60405180910390f35b6101bf60048036038101906101ba9190610f1b565b610540565b6040516101cc9190610ed6565b60405180910390f35b6101ef60048036038101906101ea9190610f6e565b610589565b005b61020b60048036038101906102069190610f6e565b6107b5565b005b600080600061021b84610914565b9150915061025061022b83610b9a565b82600a6102389190611110565b61024188610b9a565b610bb69092919063ffffffff16565b9250600085121561026857826102659061115b565b92505b505092915050565b600073ffffffffffffffffffffffffffffffffffffffff168173ffffffffffffffffffffffffffffffffffffffff16036102df576040517f08c379a00000000000000000000000000000000000000000000000000000000081526004016102d690611226565b60405180910390fd5b600073ffffffffffffffffffffffffffffffffffffffff166000808373ffffffffffffffffffffffffffffffffffffffff1673ffffffffffffffffffffffffffffffffffffffff16815260200190815260200160002060009054906101000a900473ffffffffffffffffffffffffffffffffffffffff1673ffffffffffffffffffffffffffffffffffffffff16036103ac576040517f08c379a00000000000000000000000000000000000000000000000000000000081526004016103a390611292565b60405180910390fd5b6000808273ffffffffffffffffffffffffffffffffffffffff1673ffffffffffffffffffffffffffffffffffffffff16815260200190815260200160002060006101000a81549073ffffffffffffffffffffffffffffffffffffffff021916905550565b6000806000610454576040517f08c379a000000000000000000000000000000000000000000000000000000000815260040161044b906112fe565b60405180910390fd5b94509492505050565b60008061049f576040517f08c379a0000000000000000000000000000000000000000000000000000000008152600401610496906112fe565b60405180910390fd5b92915050565b60006020528060005260406000206000915054906101000a900473ffffffffffffffffffffffffffffffffffffffff1681565b60008060008373ffffffffffffffffffffffffffffffffffffffff1673ffffffffffffffffffffffffffffffffffffffff16815260200190815260200160002060009054906101000a900473ffffffffffffffffffffffffffffffffffffffff169050919050565b600080610582576040517f08c379a0000000000000000000000000000000000000000000000000000000008152600401610579906112fe565b60405180910390fd5b9392505050565b600073ffffffffffffffffffffffffffffffffffffffff168273ffffffffffffffffffffffffffffffffffffffff16036105f8576040517f08c379a00000000000000000000000000000000000000000000000000000000081526004016105ef90611226565b60405180910390fd5b600073ffffffffffffffffffffffffffffffffffffffff168173ffffffffffffffffffffffffffffffffffffffff1603610667576040517f08c379a000000000000000000000000000000000000000000000000000000000815260040161065e90611390565b60405180910390fd5b600073ffffffffffffffffffffffffffffffffffffffff166000808473ffffffffffffffffffffffffffffffffffffffff1673ffffffffffffffffffffffffffffffffffffffff16815260200190815260200160002060009054906101000a900473ffffffffffffffffffffffffffffffffffffffff1673ffffffffffffffffffffffffffffffffffffffff1603610734576040517f08c379a000000000000000000000000000000000000000000000000000000000815260040161072b90611292565b60405180910390fd5b806000808473ffffffffffffffffffffffffffffffffffffffff1673ffffffffffffffffffffffffffffffffffffffff16815260200190815260200160002060006101000a81548173ffffffffffffffffffffffffffffffffffffffff021916908373ffffffffffffffffffffffffffffffffffffffff1602179055505050565b600073ffffffffffffffffffffffffffffffffffffffff168273ffffffffffffffffffffffffffffffffffffffff1603610824576040517f08c379a000000000000000000000000000000000000000000000000000000000815260040161081b90611226565b60405180910390fd5b600073ffffffffffffffffffffffffffffffffffffffff168173ffffffffffffffffffffffffffffffffffffffff1603610893576040517f08c379a000000000000000000000000000000000000000000000000000000000815260040161088a90611390565b60405180910390fd5b806000808473ffffffffffffffffffffffffffffffffffffffff1673ffffffffffffffffffffffffffffffffffffffff16815260200190815260200160002060006101000a81548173ffffffffffffffffffffffffffffffffffffffff021916908373ffffffffffffffffffffffffffffffffffffffff1602179055505050565b600080600073ffffffffffffffffffffffffffffffffffffffff166000808573ffffffffffffffffffffffffffffffffffffffff1673ffffffffffffffffffffffffffffffffffffffff16815260200190815260200160002060009054906101000a900473ffffffffffffffffffffffffffffffffffffffff1673ffffffffffffffffffffffffffffffffffffffff16036109e4576040517f08c379a00000000000000000000000000000000000000000000000000000000081526004016109db906113fc565b60405180910390fd5b60008060008573ffffffffffffffffffffffffffffffffffffffff1673ffffffffffffffffffffffffffffffffffffffff16815260200190815260200160002060009054906101000a900473ffffffffffffffffffffffffffffffffffffffff1673ffffffffffffffffffffffffffffffffffffffff1663feaf968c6040518163ffffffff1660e01b815260040160a060405180830381865afa158015610a8f573d6000803e3d6000fd5b505050506040513d601f19601f82011682018060405250810190610ab39190611488565b50505091505060008060008673ffffffffffffffffffffffffffffffffffffffff1673ffffffffffffffffffffffffffffffffffffffff16815260200190815260200160002060009054906101000a900473ffffffffffffffffffffffffffffffffffffffff1673ffffffffffffffffffffffffffffffffffffffff1663313ce5676040518163ffffffff1660e01b8152600401602060405180830381865afa158015610b64573d6000803e3d6000fd5b505050506040513d601f19601f82011682018060405250810190610b88919061153c565b60ff1690508181935093505050915091565b600080821215610bad5781600003610baf565b815b9050919050565b6000806000801985870985870292508281108382030391505060008103610bf157838281610be757610be6611569565b5b0492505050610c8a565b808411610bfd57600080fd5b60008486880990508281118203915080830392506000600186190186169050808604955080840493506001818260000304019050808302841793506000600287600302189050808702600203810290508087026002038102905080870260020381029050808702600203810290508087026002038102905080870260020381029050808502955050505050505b9392505050565b600080fd5b6000819050919050565b610ca981610c96565b8114610cb457600080fd5b50565b600081359050610cc681610ca0565b92915050565b600073ffffffffffffffffffffffffffffffffffffffff82169050919050565b6000610cf782610ccc565b9050919050565b610d0781610cec565b8114610d1257600080fd5b50565b600081359050610d2481610cfe565b92915050565b60008060408385031215610d4157610d40610c91565b5b6000610d4f85828601610cb7565b9250506020610d6085828601610d15565b9150509250929050565b610d7381610c96565b82525050565b6000602082019050610d8e6000830184610d6a565b92915050565b600060208284031215610daa57610da9610c91565b5b6000610db884828501610d15565b91505092915050565b6000819050919050565b610dd481610dc1565b8114610ddf57600080fd5b50565b600081359050610df181610dcb565b92915050565b60008060008060808587031215610e1157610e10610c91565b5b6000610e1f87828801610de2565b9450506020610e3087828801610d15565b9350506040610e4187828801610de2565b9250506060610e5287828801610d15565b91505092959194509250565b610e6781610dc1565b82525050565b6000604082019050610e826000830185610e5e565b610e8f6020830184610e5e565b9392505050565b60008060408385031215610ead57610eac610c91565b5b6000610ebb85828601610de2565b9250506020610ecc85828601610d15565b9150509250929050565b6000602082019050610eeb6000830184610e5e565b92915050565b610efa81610cec565b82525050565b6000602082019050610f156000830184610ef1565b92915050565b600080600060608486031215610f3457610f33610c91565b5b6000610f4286828701610de2565b9350506020610f5386828701610d15565b9250506040610f6486828701610d15565b9150509250925092565b60008060408385031215610f8557610f84610c91565b5b6000610f9385828601610d15565b9250506020610fa485828601610d15565b9150509250929050565b7f4e487b7100000000000000000000000000000000000000000000000000000000600052601160045260246000fd5b60008160011c9050919050565b6000808291508390505b6001851115611034578086048111156110105761100f610fae565b5b600185161561101f5780820291505b808102905061102d85610fdd565b9450610ff4565b94509492505050565b60008261104d5760019050611109565b8161105b5760009050611109565b8160018114611071576002811461107b576110aa565b6001915050611109565b60ff84111561108d5761108c610fae565b5b8360020a9150848211156110a4576110a3610fae565b5b50611109565b5060208310610133831016604e8410600b84101617156110df5782820a9050838111156110da576110d9610fae565b5b611109565b6110ec8484846001610fea565b9250905081840481111561110357611102610fae565b5b81810290505b9392505050565b600061111b82610dc1565b915061112683610dc1565b92506111537fffffffffffffffffffffffffffffffffffffffffffffffffffffffffffffffff848461103d565b905092915050565b600061116682610c96565b91507f8000000000000000000000000000000000000000000000000000000000000000820361119857611197610fae565b5b816000039050919050565b600082825260208201905092915050565b7f504f3a205a65726f20546f6b656e2041646472657373206e6f7420616c6c6f7760008201527f6564000000000000000000000000000000000000000000000000000000000000602082015250565b60006112106022836111a3565b915061121b826111b4565b604082019050919050565b6000602082019050818103600083015261123f81611203565b9050919050565b7f504f3a204e6f7420616e206578697374696e6720507269636520466565640000600082015250565b600061127c601e836111a3565b915061128782611246565b602082019050919050565b600060208201905081810360008301526112ab8161126f565b9050919050565b7f4e6f7420696d706c656d656e7465640000000000000000000000000000000000600082015250565b60006112e8600f836111a3565b91506112f3826112b2565b602082019050919050565b60006020820190508181036000830152611317816112db565b9050919050565b7f504f3a205a65726f20466565642041676772656761746f72204164647265737360008201527f206e6f7420616c6c6f7765640000000000000000000000000000000000000000602082015250565b600061137a602c836111a3565b91506113858261131e565b604082019050919050565b600060208201905081810360008301526113a98161136d565b9050919050565b7f504f3a20546f6b656e2066656564206e6f7420617661696c61626c6500000000600082015250565b60006113e6601c836111a3565b91506113f1826113b0565b602082019050919050565b60006020820190508181036000830152611415816113d9565b9050919050565b600069ffffffffffffffffffff82169050919050565b61143b8161141c565b811461144657600080fd5b50565b60008151905061145881611432565b92915050565b60008151905061146d81610ca0565b92915050565b60008151905061148281610dcb565b92915050565b600080600080600060a086880312156114a4576114a3610c91565b5b60006114b288828901611449565b95505060206114c38882890161145e565b94505060406114d488828901611473565b93505060606114e588828901611473565b92505060806114f688828901611449565b9150509295509295909350565b600060ff82169050919050565b61151981611503565b811461152457600080fd5b50565b60008151905061153681611510565b92915050565b60006020828403121561155257611551610c91565b5b600061156084828501611527565b91505092915050565b7f4e487b7100000000000000000000000000000000000000000000000000000000600052601260045260246000fdfea26469706673582212202d07ee065d7d30d78c00a7e0e145a3135f045a646995ffdbbfc13eca90ef3b5264736f6c63430008110033",
    "linkReferences": {}
  },
  "methodIdentifiers": {
    "addPriceFeed(address,address)": "e8a97a3e",
    "convert(uint256,address,address)": "b66102df",
    "convertFromUSD(uint256,address)": "7afb0104",
    "convertToUSD(int256,address)": "08ba9084",
    "eed(address)": "1c034220",
    "fastCheck(uint256,address,uint256,address)": "5cecbd0e",
    "priceFeeds(address)": "9dcb511a",
    "tokenPriceFeed(address)": "9878cbb3",
    "updatePriceFeed(address,address)": "b7997da1"
  },
  "id": 62
}