{
  "abi": [
    {
      "inputs": [
        {
          "internalType": "contract IContractRegistry",
          "name": "_contractRegistry",
          "type": "address"
        },
        {
          "internalType": "contract IMarketManager",
          "name": "_marketManager",
          "type": "address"
        },
        {
          "internalType": "contract IPriceOracle",
          "name": "_priceOracle",
          "type": "address"
        }
      ],
      "stateMutability": "nonpayable",
      "type": "constructor"
    },
    {
      "anonymous": false,
      "inputs": [
        {
          "indexed": true,
          "internalType": "address",
          "name": "",
          "type": "address"
        },
        {
          "indexed": true,
          "internalType": "address",
          "name": "",
          "type": "address"
        }
      ],
      "name": "MarginAccountClosed",
      "type": "event"
    },
    {
      "anonymous": false,
      "inputs": [
        {
          "indexed": true,
          "internalType": "address",
          "name": "",
          "type": "address"
        },
        {
          "indexed": true,
          "internalType": "address",
          "name": "",
          "type": "address"
        }
      ],
      "name": "MarginAccountLiquidated",
      "type": "event"
    },
    {
      "anonymous": false,
      "inputs": [
        {
          "indexed": true,
          "internalType": "address",
          "name": "",
          "type": "address"
        },
        {
          "indexed": true,
          "internalType": "address",
          "name": "",
          "type": "address"
        }
      ],
      "name": "MarginAccountOpened",
      "type": "event"
    },
    {
      "anonymous": false,
      "inputs": [
        {
          "indexed": true,
          "internalType": "address",
          "name": "",
          "type": "address"
        },
        {
          "indexed": true,
          "internalType": "address",
          "name": "",
          "type": "address"
        },
        {
          "indexed": true,
          "internalType": "address",
          "name": "",
          "type": "address"
        },
        {
          "indexed": false,
          "internalType": "int256",
          "name": "",
          "type": "int256"
        },
        {
          "indexed": false,
          "internalType": "int256",
          "name": "",
          "type": "int256"
        }
      ],
      "name": "MarginTransferred",
      "type": "event"
    },
    {
      "anonymous": false,
      "inputs": [
        {
          "indexed": true,
          "internalType": "address",
          "name": "",
          "type": "address"
        },
        {
          "indexed": true,
          "internalType": "address",
          "name": "",
          "type": "address"
        },
        {
          "indexed": true,
          "internalType": "address",
          "name": "",
          "type": "address"
        },
        {
          "indexed": false,
          "internalType": "int256",
          "name": "",
          "type": "int256"
        },
        {
          "indexed": false,
          "internalType": "int256",
          "name": "",
          "type": "int256"
        }
      ],
      "name": "PositionAdded",
      "type": "event"
    },
    {
      "anonymous": false,
      "inputs": [
        {
          "indexed": true,
          "internalType": "address",
          "name": "",
          "type": "address"
        },
        {
          "indexed": true,
          "internalType": "address",
          "name": "",
          "type": "address"
        },
        {
          "indexed": true,
          "internalType": "address",
          "name": "",
          "type": "address"
        },
        {
          "indexed": false,
          "internalType": "int256",
          "name": "",
          "type": "int256"
        },
        {
          "indexed": false,
          "internalType": "int256",
          "name": "",
          "type": "int256"
        }
      ],
      "name": "PositionRemoved",
      "type": "event"
    },
    {
      "anonymous": false,
      "inputs": [
        {
          "indexed": true,
          "internalType": "address",
          "name": "",
          "type": "address"
        },
        {
          "indexed": true,
          "internalType": "address",
          "name": "",
          "type": "address"
        },
        {
          "indexed": true,
          "internalType": "address",
          "name": "",
          "type": "address"
        },
        {
          "indexed": false,
          "internalType": "int256",
          "name": "",
          "type": "int256"
        },
        {
          "indexed": false,
          "internalType": "int256",
          "name": "",
          "type": "int256"
        }
      ],
      "name": "PositionUpdated",
      "type": "event"
    },
    {
      "inputs": [],
      "name": "RemoveCollateral",
      "outputs": [],
      "stateMutability": "nonpayable",
      "type": "function"
    },
    {
      "inputs": [
        {
          "internalType": "address",
          "name": "token",
          "type": "address"
        },
        {
          "internalType": "uint256",
          "name": "value",
          "type": "uint256"
        }
      ],
      "name": "SetCollatralRatio",
      "outputs": [],
      "stateMutability": "nonpayable",
      "type": "function"
    },
    {
      "inputs": [
        {
          "internalType": "uint256",
          "name": "value",
          "type": "uint256"
        }
      ],
      "name": "SetPenalty",
      "outputs": [],
      "stateMutability": "nonpayable",
      "type": "function"
    },
    {
      "inputs": [
        {
          "internalType": "address",
          "name": "_riskmgr",
          "type": "address"
        }
      ],
      "name": "SetRiskManager",
      "outputs": [],
      "stateMutability": "nonpayable",
      "type": "function"
    },
    {
      "inputs": [
        {
          "internalType": "address",
          "name": "",
          "type": "address"
        }
      ],
      "name": "allowedUnderlyingTokens",
      "outputs": [
        {
          "internalType": "bool",
          "name": "",
          "type": "bool"
        }
      ],
      "stateMutability": "view",
      "type": "function"
    },
    {
      "inputs": [
        {
          "internalType": "address",
          "name": "marginacc",
          "type": "address"
        }
      ],
      "name": "calcCreditAccountAccruedInterest",
      "outputs": [
        {
          "internalType": "uint256",
          "name": "",
          "type": "uint256"
        }
      ],
      "stateMutability": "view",
      "type": "function"
    },
    {
      "inputs": [
        {
          "internalType": "address",
          "name": "_marginAccount",
          "type": "address"
        }
      ],
      "name": "calcMarginAccountAccruedInterest",
      "outputs": [
        {
          "internalType": "uint256",
          "name": "borrowedAmount",
          "type": "uint256"
        },
        {
          "internalType": "uint256",
          "name": "borrowedAmountWithInterest",
          "type": "uint256"
        }
      ],
      "stateMutability": "view",
      "type": "function"
    },
    {
      "inputs": [],
      "name": "closeMarginAccount",
      "outputs": [],
      "stateMutability": "nonpayable",
      "type": "function"
    },
    {
      "inputs": [
        {
          "internalType": "bytes32",
          "name": "marketKey",
          "type": "bytes32"
        },
        {
          "internalType": "address[]",
          "name": "destinations",
          "type": "address[]"
        },
        {
          "internalType": "bytes[]",
          "name": "data",
          "type": "bytes[]"
        }
      ],
      "name": "closePosition",
      "outputs": [],
      "stateMutability": "nonpayable",
      "type": "function"
    },
    {
      "inputs": [
        {
          "internalType": "address",
          "name": "",
          "type": "address"
        }
      ],
      "name": "collatralRatio",
      "outputs": [
        {
          "internalType": "uint256",
          "name": "",
          "type": "uint256"
        }
      ],
      "stateMutability": "view",
      "type": "function"
    },
    {
      "inputs": [],
      "name": "contractRegistry",
      "outputs": [
        {
          "internalType": "contract IContractRegistry",
          "name": "",
          "type": "address"
        }
      ],
      "stateMutability": "view",
      "type": "function"
    },
    {
      "inputs": [
        {
          "internalType": "address",
          "name": "marginAcc",
          "type": "address"
        },
        {
          "internalType": "uint256",
          "name": "amount",
          "type": "uint256"
        }
      ],
      "name": "decreaseDebt",
      "outputs": [
        {
          "internalType": "uint256",
          "name": "newBorrowedAmount",
          "type": "uint256"
        }
      ],
      "stateMutability": "nonpayable",
      "type": "function"
    },
    {
      "inputs": [
        {
          "internalType": "address",
          "name": "marginAccount",
          "type": "address"
        }
      ],
      "name": "getInterestAccrued",
      "outputs": [
        {
          "internalType": "uint256",
          "name": "",
          "type": "uint256"
        }
      ],
      "stateMutability": "view",
      "type": "function"
    },
    {
      "inputs": [
        {
          "internalType": "bytes32[]",
          "name": "marketKeys",
          "type": "bytes32[]"
        },
        {
          "internalType": "address[]",
          "name": "destinations",
          "type": "address[]"
        },
        {
          "internalType": "bytes[]",
          "name": "data",
          "type": "bytes[]"
        }
      ],
      "name": "liquidate",
      "outputs": [],
      "stateMutability": "nonpayable",
      "type": "function"
    },
    {
      "inputs": [],
      "name": "liquidationPenalty",
      "outputs": [
        {
          "internalType": "uint256",
          "name": "",
          "type": "uint256"
        }
      ],
      "stateMutability": "view",
      "type": "function"
    },
    {
      "inputs": [
        {
          "internalType": "address",
          "name": "",
          "type": "address"
        }
      ],
      "name": "marginAccounts",
      "outputs": [
        {
          "internalType": "address",
          "name": "",
          "type": "address"
        }
      ],
      "stateMutability": "view",
      "type": "function"
    },
    {
      "inputs": [],
      "name": "marketManager",
      "outputs": [
        {
          "internalType": "contract IMarketManager",
          "name": "",
          "type": "address"
        }
      ],
      "stateMutability": "view",
      "type": "function"
    },
    {
      "inputs": [],
      "name": "openMarginAccount",
      "outputs": [
        {
          "internalType": "address",
          "name": "",
          "type": "address"
        }
      ],
      "stateMutability": "nonpayable",
      "type": "function"
    },
    {
      "inputs": [
        {
          "internalType": "bytes32",
          "name": "marketKey",
          "type": "bytes32"
        },
        {
          "internalType": "address[]",
          "name": "destinations",
          "type": "address[]"
        },
        {
          "internalType": "bytes[]",
          "name": "data",
          "type": "bytes[]"
        }
      ],
      "name": "openPosition",
      "outputs": [],
      "stateMutability": "nonpayable",
      "type": "function"
    },
    {
      "inputs": [],
      "name": "priceOracle",
      "outputs": [
        {
          "internalType": "contract IPriceOracle",
          "name": "",
          "type": "address"
        }
      ],
      "stateMutability": "view",
      "type": "function"
    },
    {
      "inputs": [],
      "name": "riskManager",
      "outputs": [
        {
          "internalType": "contract RiskManager",
          "name": "",
          "type": "address"
        }
      ],
      "stateMutability": "view",
      "type": "function"
    },
    {
      "inputs": [
        {
          "internalType": "address",
          "name": "_vault",
          "type": "address"
        }
      ],
      "name": "setVault",
      "outputs": [],
      "stateMutability": "nonpayable",
      "type": "function"
    },
    {
      "inputs": [
        {
          "internalType": "address",
          "name": "acc",
          "type": "address"
        }
      ],
      "name": "settleFee",
      "outputs": [],
      "stateMutability": "nonpayable",
      "type": "function"
    },
    {
      "inputs": [
        {
          "internalType": "bytes32",
          "name": "marketKey",
          "type": "bytes32"
        },
        {
          "internalType": "address[]",
          "name": "destinations",
          "type": "address[]"
        },
        {
          "internalType": "bytes[]",
          "name": "data",
          "type": "bytes[]"
        }
      ],
      "name": "updatePosition",
      "outputs": [],
      "stateMutability": "nonpayable",
      "type": "function"
    },
    {
      "inputs": [],
      "name": "vault",
      "outputs": [
        {
          "internalType": "contract Vault",
          "name": "",
          "type": "address"
        }
      ],
      "stateMutability": "view",
      "type": "function"
    }
  ],
  "bytecode": {
    "object": "0x60806040523480156200001157600080fd5b50604051620046df380380620046df833981016040819052620000349162000095565b6001600055600280546001600160a01b039485166001600160a01b031991821617909155600380549385169382169390931790925560048054919093169116179055620000e9565b6001600160a01b03811681146200009257600080fd5b50565b600080600060608486031215620000ab57600080fd5b8351620000b8816200007c565b6020850151909350620000cb816200007c565b6040850151909250620000de816200007c565b809150509250925092565b6145e680620000f96000396000f3fe60806040523480156200001157600080fd5b5060043610620001925760003560e01c806390838c8c11620000f0578063bc2ca84411620000a3578063f6ba5d16116200007a578063f6ba5d1614620003d7578063fb787d011462000226578063fb80a0f114620003ee578063fbfa77cf146200040557600080fd5b8063bc2ca8441462000393578063c657328d14620003aa578063f0da5f7914620003c057600080fd5b806390838c8c14620002b857806394b7579714620002ef5780639c498bc3146200031c578063abf410e51462000348578063aec6a8cd146200035c578063b9e41a21146200038957600080fd5b806347842663116200014957806347842663146200023c5780634b11df1114620002505780636817031b1462000267578063734452c914620002265780637536cbf5146200027e578063870c421e14620002a157600080fd5b806323f5589a14620001975780632630c12f14620001b45780632fb9ba3114620001e15780633192195c14620001f857806337c8df85146200020f57806341ed2c121462000228575b600080fd5b620001a160065481565b6040519081526020015b60405180910390f35b600454620001c8906001600160a01b031681565b6040516001600160a01b039091168152602001620001ab565b620001a1620001f236600462002084565b62000419565b620001a162000209366004620020b3565b50600190565b6200022662000220366004620020b3565b620005d2565b005b600354620001c8906001600160a01b031681565b600154620001c8906001600160a01b031681565b6200022662000261366004620020b3565b6200060a565b6200022662000278366004620020b3565b6200078e565b620001a16200028f366004620020b3565b60096020526000908152604090205481565b620001a1620002b2366004620020b3565b620007c6565b620002de620002c9366004620020b3565b60086020526000908152604090205460ff1681565b6040519015158152602001620001ab565b6200030662000300366004620020b3565b620007d3565b60408051928352602083019190915201620001ab565b620001c86200032d366004620020b3565b6007602052600090815260409020546001600160a01b031681565b600254620001c8906001600160a01b031681565b620002266200036d36600462002084565b6001600160a01b03909116600090815260096020526040902055565b620001c862000813565b62000226620003a436600462002305565b620008be565b62000226620003bb366004620023f0565b600655565b62000226620003d13660046200240a565b62000b13565b62000226620003e83660046200240a565b62000e40565b62000226620003ff3660046200248d565b62001013565b600554620001c8906001600160a01b031681565b60008281620004288262001a18565b505090506000620004398662001b83565b905081600003620004515760009350505050620005cc565b6200045d828662001bdd565b935060006001816200047184828462001bf2565b600554604051638cd2e0c760e01b81526001600160a01b038c81166004830152602482018c905260448201889052929350911690638cd2e0c790606401600060405180830381600087803b158015620004c957600080fd5b505af1158015620004de573d6000803e3d6000fd5b505050506000600560009054906101000a90046001600160a01b03166001600160a01b0316630fce70fb6040518163ffffffff1660e01b8152600401602060405180830381865afa15801562000538573d6000803e3d6000fd5b505050506040513d601f19601f820116820180604052508101906200055e91906200250d565b6040516301e5f3bb60e21b8152600481018a9052602481018290529091506001600160a01b03881690630797ceec90604401600060405180830381600087803b158015620005ab57600080fd5b505af1158015620005c0573d6000803e3d6000fd5b50505050505050505050505b92915050565b806001600160a01b038116620005e757600080fd5b50600180546001600160a01b0319166001600160a01b0392909216919091179055565b600080600360009054906101000a90046001600160a01b03166001600160a01b031663ed2ed5446040518163ffffffff1660e01b81526004016000604051808303816000875af115801562000663573d6000803e3d6000fd5b505050506040513d6000823e601f3d908101601f191682016040526200068d919081019062002539565b905060005b81518110156200074f57818181518110620006b157620006b1620025dd565b60209081029190910101516040516350989a5760e01b81526001600160a01b038681166004830152909116906350989a57906024016020604051808303816000875af115801562000706573d6000803e3d6000fd5b505050506040513d601f19601f820116820180604052508101906200072c91906200250d565b62000738908462002609565b925080620007468162002634565b91505062000692565b50620007896040518060400160405280600b81526020016a4d4d3a746f74616c46656560a81b815250620007838462001ca6565b62001cbf565b505050565b806001600160a01b038116620007a357600080fd5b50600580546001600160a01b0319166001600160a01b0392909216919091179055565b6000620005cc8262001b83565b6000806000806000620007e68662001a18565b9196508694509250905081620007fd828562002650565b62000809919062002680565b9350505050915091565b336000908152600760205260408120546001600160a01b0316156200083757600080fd5b600073e592427a0aece92de3edee1f18e0157c05861564905060008160405162000861906200205d565b6001600160a01b039091168152602001604051809103906000f0801580156200088e573d6000803e3d6000fd5b5033600090815260076020526040902080546001600160a01b0319166001600160a01b0383161790559392505050565b336000908152600760205260409020546001600160a01b0316620008e2816200060a565b62000910816040518060400160405280600a8152602001694d617267696e2061636360b01b81525062001d0c565b600154604051631f9d23e360e21b815260009182916001600160a01b0390911690637e748f8c906200094d9086908a908a908a9060040162002796565b60408051808303816000875af11580156200096c573d6000803e3d6000fd5b505050506040513d601f19601f820116820180604052508101906200099291906200280f565b909250905060008213801590620009a95750600081125b620009d15760405162461bcd60e51b8152600401620009c89062002834565b60405180910390fd5b6040516359cbbf4960e01b81526001600160a01b038416906359cbbf499062000a0190889088906004016200287f565b6000604051808303816000875af115801562000a21573d6000803e3d6000fd5b505050506040513d6000823e601f3d908101601f1916820160405262000a4b9190810190620028a8565b50600082121562000a685762000a6683620001f28462001ca6565b505b60005b865181101562000b0a57836001600160a01b0316634c89b68d88838151811062000a995762000a99620025dd565b60200260200101516040518263ffffffff1660e01b815260040162000ac091815260200190565b600060405180830381600087803b15801562000adb57600080fd5b505af115801562000af0573d6000803e3d6000fd5b50505050808062000b019062002634565b91505062000a6b565b50505050505050565b336000908152600760205260409020546001600160a01b031662000b37816200060a565b604051630eda11ef60e41b8152600481018590526001600160a01b0382169063eda11ef090602401602060405180830381865afa15801562000b7d573d6000803e3d6000fd5b505050506040513d601f19601f8201168201806040525081019062000ba391906200291e565b62000bea5760405162461bcd60e51b8152602060048201526016602482015275141bdcda5d1a5bdb88191bd95cdb89dd08195e1a5cdd60521b6044820152606401620009c8565b60015460405163e650e5df60e01b815260009182916001600160a01b039091169063e650e5df9062000c279086908a908a908a9060040162002942565b60408051808303816000875af115801562000c46573d6000803e3d6000fd5b505050506040513d601f19601f8201168201806040525081019062000c6c91906200280f565b60405163db386b8d60e01b81526004810189905291935091506001600160a01b0384169063db386b8d90602401602060405180830381865afa15801562000cb7573d6000803e3d6000fd5b505050506040513d601f19601f8201168201806040525081019062000cdd91906200250d565b811462000d215760405162461bcd60e51b8152602060048201526011602482015270496e76616c696420636c6f736520706f7360781b6044820152606401620009c8565b600082131562000d455760405162461bcd60e51b8152600401620009c89062002834565b600082121562000d615762000d5f83620001f28462001ca6565b505b6040516359cbbf4960e01b81526001600160a01b038416906359cbbf499062000d9190889088906004016200287f565b6000604051808303816000875af115801562000db1573d6000803e3d6000fd5b505050506040513d6000823e601f3d908101601f1916820160405262000ddb9190810190620028a8565b50604051634c89b68d60e01b8152600481018790526001600160a01b03841690634c89b68d90602401600060405180830381600087803b15801562000e1f57600080fd5b505af115801562000e34573d6000803e3d6000fd5b50505050505050505050565b3360009081526007602052604090819020549051630eda11ef60e41b8152600481018590526001600160a01b0390911690819063eda11ef090602401602060405180830381865afa15801562000e9a573d6000803e3d6000fd5b505050506040513d601f19601f8201168201806040525081019062000ec091906200291e565b62000f075760405162461bcd60e51b8152602060048201526016602482015275141bdcda5d1a5bdb88191bd95cdb89dd08195e1a5cdd60521b6044820152606401620009c8565b60035460405163382dfc3d60e01b81526004810186905260009182916001600160a01b039091169063382dfc3d906024016040805180830381865afa15801562000f55573d6000803e3d6000fd5b505050506040513d601f19601f8201168201806040525081019062000f7b91906200297f565b60405163db386b8d60e01b8152600481018990529093509091506000908190819081906001600160a01b0388169063db386b8d90602401602060405180830381865afa15801562000fd0573d6000803e3d6000fd5b505050506040513d601f19601f8201168201806040525081019062000ff691906200250d565b90506000620010053362001b83565b505050505050505050505050565b6000620010203362001d55565b604051630eda11ef60e41b8152600481018890529091506001600160a01b0382169063eda11ef090602401602060405180830381865afa15801562001069573d6000803e3d6000fd5b505050506040513d601f19601f820116820180604052508101906200108f91906200291e565b15620010d25760405162461bcd60e51b815260206004820152601160248201527022bc34b9ba34b733903837b9b4ba34b7b760791b6044820152606401620009c8565b6001546000906001600160a01b0316634f82d618838989898989620010f78662001b83565b6040518863ffffffff1660e01b81526004016200111b979695949392919062002ab4565b610100604051808303816000875af11580156200113c573d6000803e3d6000fd5b505050506040513d601f19601f8201168201806040525081019062001162919062002b08565b90506000600560009054906101000a90046001600160a01b03166001600160a01b03166338d52e0f6040518163ffffffff1660e01b8152600401602060405180830381865afa158015620011ba573d6000803e3d6000fd5b505050506040513d601f19601f82011682018060405250810190620011e0919062002bbc565b90506000620011f783606001516040015162001ca6565b111562001303576060828101516040805163318a96a760e01b8152600481018c905282516001600160a01b03908116602483015260208401516044830152918301516064820152919092015160848201529084169063318a96a79060a401600060405180830381600087803b1580156200127057600080fd5b505af115801562001285573d6000803e3d6000fd5b5050505081608001516001600160a01b031682600001516001600160a01b0316846001600160a01b03167fd33d152596235f4fb4d1bb20ba163cec1503b843bfeace18a0a218e25cbbe65c856060015160400151866060015160200151604051620012fa929190918252602082015260400190565b60405180910390a45b600082604001511215620013985760405162461bcd60e51b815260206004820152604f60248201527f4d4d3a20496e76616c6964204f7065726174696f6e2e2043616e6e6f7420757360448201527f65206f70656e20706f736974696f6e20746f20726564756365206d617267696e60648201526e10333937b690309026b0b935b2ba1760891b608482015260a401620009c8565b6000620013a9836040015162001ca6565b11156200198f5760408083015190516305dfcf9560e51b81526001600160a01b0385169163bbf9f2a091620013eb918c91600401918252602082015260400190565b600060405180830381600087803b1580156200140657600080fd5b505af11580156200141b573d6000803e3d6000fd5b5050505081608001516001600160a01b031682600001516001600160a01b0316846001600160a01b03167f48e9eae93900d26ec70afc86dfc8919856a7b28c0ff25b326fbdd8a04aa87b0f8560200151866040015160405162001488929190918252602082015260400190565b60405180910390a460808201516040516370a0823160e01b81526001600160a01b03858116600483015260009216906370a0823190602401602060405180830381865afa158015620014de573d6000803e3d6000fd5b505050506040513d601f19601f820116820180604052508101906200150491906200250d565b6040516370a0823160e01b81526001600160a01b0386811660048301529192506000918416906370a0823190602401602060405180830381865afa15801562001551573d6000803e3d6000fd5b505050506040513d601f19601f820116820180604052508101906200157791906200250d565b905062001588846020015162001ca6565b8210156200198c576000620015ad83620015a6876020015162001ca6565b9062001bdd565b905060006200172886608001516001600160a01b031663313ce5676040518163ffffffff1660e01b8152600401602060405180830381865afa158015620015f8573d6000803e3d6000fd5b505050506040513d601f19601f820116820180604052508101906200161e919062002bdc565b866001600160a01b031663313ce5676040518163ffffffff1660e01b8152600401602060405180830381865afa1580156200165d573d6000803e3d6000fd5b505050506040513d601f19601f8201168201806040525081019062001683919062002bdc565b60045462001720906001600160a01b03166308ba9084620016a48862001ddf565b60808d01516040516001600160e01b031960e085901b16815260048101929092526001600160a01b03166024820152604401602060405180830381865afa158015620016f4573d6000803e3d6000fd5b505050506040513d601f19601f820116820180604052508101906200171a91906200250d565b62001ca6565b919062001e4b565b905082811115620017cd57620017cb87620017c5620017b26000896001600160a01b031663313ce5676040518163ffffffff1660e01b8152600401602060405180830381865afa15801562001781573d6000803e3d6000fd5b505050506040513d601f19601f82011682018060405250810190620017a7919062002bdc565b6101f4919062001e4b565b620017be858862001bdd565b9062001ec9565b62001ed7565b505b85608001516001600160a01b0316856001600160a01b031614620019895760006040518060e00160405280876001600160a01b0316815260200188608001516001600160a01b031681526020016200186b6200186360008a6001600160a01b031663313ce5676040518163ffffffff1660e01b8152600401602060405180830381865afa15801562001781573d6000803e3d6000fd5b859062001ec9565b8152600060208083018290526001604080850191909152606080850184905260809485018990528151630882db7b60e21b815286516001600160a01b03908116600483015293870151841660248201529186015160448301528501516064820152928401511515608484015260a0840151811660a484015260c084015160c4840152929350918a169063220b6dec9060e4016020604051808303816000875af11580156200191d573d6000803e3d6000fd5b505050506040513d601f19601f820116820180604052508101906200194391906200250d565b905083811015620019865760405162461bcd60e51b815260206004820152600c60248201526b0524d3a2042616420537761760a41b6044820152606401620009c8565b50505b50505b50505b6040516359cbbf4960e01b81526001600160a01b038416906359cbbf4990620019c3908a908a908a908a9060040162002c01565b6000604051808303816000875af1158015620019e3573d6000803e3d6000fd5b505050506040513d6000823e601f3d908101601f1916820160405262001a0d9190810190620028a8565b505050505050505050565b6000806000836001600160a01b0316634c19386c6040518163ffffffff1660e01b8152600401602060405180830381865afa15801562001a5c573d6000803e3d6000fd5b505050506040513d601f19601f8201168201806040525081019062001a8291906200250d565b9250836001600160a01b03166317d11a156040518163ffffffff1660e01b8152600401602060405180830381865afa15801562001ac3573d6000803e3d6000fd5b505050506040513d601f19601f8201168201806040525081019062001ae991906200250d565b9150600560009054906101000a90046001600160a01b03166001600160a01b0316630fce70fb6040518163ffffffff1660e01b8152600401602060405180830381865afa15801562001b3f573d6000803e3d6000fd5b505050506040513d601f19601f8201168201806040525081019062001b6591906200250d565b90506000821162001b7857600162001b7a565b815b91509193909250565b60008060008062001b948562001a18565b9250925092508260000362001bae57506000949350505050565b828262001bbc838362002650565b62001bc8919062002680565b62001bd4919062002c2c565b95945050505050565b600062001beb828462002c2c565b9392505050565b600080806000198587098587029250828110838203039150508060000362001c315783828162001c265762001c266200266a565b049250505062001beb565b80841162001c3e57600080fd5b600084868809600260036001881981018916988990049182028318808302840302808302840302808302840302808302840302808302840302918202909203026000889003889004909101858311909403939093029303949094049190911702949350505050565b60008082121562001cbb5781600003620005cc565b5090565b62001d08828260405160240162001cd892919062002c42565b60408051601f198184030181529190526020810180516001600160e01b0316632d839cb360e21b17905262002020565b5050565b62001d08828260405160240162001d2592919062002c66565b60408051601f198184030181529190526020810180516001600160e01b031663759f86bb60e01b17905262002020565b6001600160a01b0381811660009081526007602052604081205490911662001dc05760405162461bcd60e51b815260206004820152601a60248201527f4d4d3a20496e76616c6964206d617267696e206163636f756e740000000000006044820152606401620009c8565b506001600160a01b039081166000908152600760205260409020541690565b60006001600160ff1b0382111562001cbb5760405162461bcd60e51b815260206004820152602860248201527f53616665436173743a2076616c756520646f65736e27742066697420696e2061604482015267371034b73a191a9b60c11b6064820152608401620009c8565b60008160ff168360ff160362001e6357508262001beb565b8160ff168360ff161162001e9c5762001e9662001e81848462002c8c565b62001e8e90600a62002da5565b859062002041565b62001ec1565b62001ec162001eac838562002c8c565b62001eb990600a62002da5565b85906200204f565b949350505050565b600062001beb828462002db6565b60008281808062001ee88462001a18565b9194509250905062001efb868462002db6565b9450600062001f0b838862002650565b62001f17858462002650565b62001f23919062002db6565b8662001f30858562002650565b62001f3c919062002650565b62001f48919062002680565b600554604051634b8a352960e01b81526001600160a01b038b81166004830152602482018b9052929350911690634b8a352990604401600060405180830381600087803b15801562001f9957600080fd5b505af115801562001fae573d6000803e3d6000fd5b50506040516301e5f3bb60e21b815260048101899052602481018490526001600160a01b0388169250630797ceec9150604401600060405180830381600087803b15801562001ffc57600080fd5b505af115801562002011573d6000803e3d6000fd5b50505050505050505092915050565b80516a636f6e736f6c652e6c6f67602083016000808483855afa5050505050565b600062001beb828462002650565b600062001beb828462002680565b6117e48062002dcd83390190565b6001600160a01b03811681146200208157600080fd5b50565b600080604083850312156200209857600080fd5b8235620020a5816200206b565b946020939093013593505050565b600060208284031215620020c657600080fd5b813562001beb816200206b565b634e487b7160e01b600052604160045260246000fd5b60405160a081016001600160401b03811182821017156200210e576200210e620020d3565b60405290565b604051608081016001600160401b03811182821017156200210e576200210e620020d3565b604051601f8201601f191681016001600160401b0381118282101715620021645762002164620020d3565b604052919050565b60006001600160401b03821115620021885762002188620020d3565b5060051b60200190565b600082601f830112620021a457600080fd5b81356020620021bd620021b7836200216c565b62002139565b82815260059290921b84018101918181019086841115620021dd57600080fd5b8286015b8481101562002205578035620021f7816200206b565b8352918301918301620021e1565b509695505050505050565b60006001600160401b038211156200222c576200222c620020d3565b50601f01601f191660200190565b600082601f8301126200224c57600080fd5b813560206200225f620021b7836200216c565b82815260059290921b840181019181810190868411156200227f57600080fd5b8286015b84811015620022055780356001600160401b03811115620022a45760008081fd5b8701603f81018913620022b75760008081fd5b848101356040620022cc620021b78362002210565b8281528b82848601011115620022e25760008081fd5b828285018983013760009281018801929092525084525091830191830162002283565b6000806000606084860312156200231b57600080fd5b83356001600160401b03808211156200233357600080fd5b818601915086601f8301126200234857600080fd5b813560206200235b620021b7836200216c565b82815260059290921b8401810191818101908a8411156200237b57600080fd5b948201945b838610156200239b5785358252948201949082019062002380565b97505087013592505080821115620023b257600080fd5b620023c08783880162002192565b93506040860135915080821115620023d757600080fd5b50620023e6868287016200223a565b9150509250925092565b6000602082840312156200240357600080fd5b5035919050565b6000806000606084860312156200242057600080fd5b8335925060208401356001600160401b0380821115620023b257600080fd5b60008083601f8401126200245257600080fd5b5081356001600160401b038111156200246a57600080fd5b6020830191508360208260051b85010111156200248657600080fd5b9250929050565b600080600080600060608688031215620024a657600080fd5b8535945060208601356001600160401b0380821115620024c557600080fd5b620024d389838a016200243f565b90965094506040880135915080821115620024ed57600080fd5b50620024fc888289016200243f565b969995985093965092949392505050565b6000602082840312156200252057600080fd5b5051919050565b805162002534816200206b565b919050565b600060208083850312156200254d57600080fd5b82516001600160401b038111156200256457600080fd5b8301601f810185136200257657600080fd5b805162002587620021b7826200216c565b81815260059190911b82018301908381019087831115620025a757600080fd5b928401925b82841015620025d2578351620025c2816200206b565b82529284019290840190620025ac565b979650505050505050565b634e487b7160e01b600052603260045260246000fd5b634e487b7160e01b600052601160045260246000fd5b80820182811260008312801582168215821617156200262c576200262c620025f3565b505092915050565b600060018201620026495762002649620025f3565b5060010190565b8082028115828204841417620005cc57620005cc620025f3565b634e487b7160e01b600052601260045260246000fd5b6000826200269e57634e487b7160e01b600052601260045260246000fd5b500490565b600081518084526020808501945080840160005b83811015620026de5781516001600160a01b031687529582019590820190600101620026b7565b509495945050505050565b60005b8381101562002706578181015183820152602001620026ec565b50506000910152565b6000815180845262002729816020860160208601620026e9565b601f01601f19169290920160200192915050565b600081518084526020808501808196508360051b8101915082860160005b8581101562002789578284038952620027768483516200270f565b988501989350908401906001016200275b565b5091979650505050505050565b6001600160a01b0385168152608060208083018290528551918301829052600091868201919060a0850190845b81811015620027e157845183529383019391830191600101620027c3565b50508481036040860152620027f78188620026a3565b925050508281036060840152620025d281856200273d565b600080604083850312156200282357600080fd5b505080516020909101519092909150565b6020808252602b908201527f616464206d617267696e206973206e6f7420616c6c6f77656420696e20636c6f60408201526a39b2903837b9b4ba34b7b760a91b606082015260800190565b604081526000620028946040830185620026a3565b828103602084015262001bd481856200273d565b600060208284031215620028bb57600080fd5b81516001600160401b03811115620028d257600080fd5b8201601f81018413620028e457600080fd5b8051620028f5620021b78262002210565b8181528560208385010111156200290b57600080fd5b62001bd4826020830160208601620026e9565b6000602082840312156200293157600080fd5b8151801515811462001beb57600080fd5b60018060a01b03851681528360208201526080604082015260006200296b6080830185620026a3565b8281036060840152620025d281856200273d565b600080604083850312156200299357600080fd5b8251620029a0816200206b565b6020840151909250620029b3816200206b565b809150509250929050565b8183526000602080850194508260005b85811015620026de578135620029e4816200206b565b6001600160a01b031687529582019590820190600101620029ce565b81835281816020850137506000828201602090810191909152601f909101601f19169091010190565b81835260006020808501808196508560051b810191508460005b87811015620027895782840389528135601e1988360301811262002a6657600080fd5b870185810190356001600160401b0381111562002a8257600080fd5b80360382131562002a9257600080fd5b62002a9f86828462002a00565b9a87019a955050509084019060010162002a43565b60018060a01b038816815286602082015260a06040820152600062002ade60a083018789620029be565b828103606084015262002af381868862002a29565b91505082608083015298975050505050505050565b600081830361010081121562002b1d57600080fd5b62002b27620020e9565b835162002b34816200206b565b815260208481015190820152604080850151908201526080605f198301121562002b5d57600080fd5b62002b6762002114565b9150606084015162002b79816200206b565b808352506080840151602083015260a0840151604083015260c0840151606083015281606082015262002baf60e0850162002527565b6080820152949350505050565b60006020828403121562002bcf57600080fd5b815162001beb816200206b565b60006020828403121562002bef57600080fd5b815160ff8116811462001beb57600080fd5b60408152600062002c17604083018688620029be565b8281036020840152620025d281858762002a29565b81810381811115620005cc57620005cc620025f3565b60408152600062002c5760408301856200270f565b90508260208301529392505050565b6001600160a01b038316815260406020820181905260009062001ec1908301846200270f565b60ff8281168282160390811115620005cc57620005cc620025f3565b600181815b8085111562002ce957816000190482111562002ccd5762002ccd620025f3565b8085161562002cdb57918102915b93841c939080029062002cad565b509250929050565b60008262002d0257506001620005cc565b8162002d1157506000620005cc565b816001811462002d2a576002811462002d355762002d55565b6001915050620005cc565b60ff84111562002d495762002d49620025f3565b50506001821b620005cc565b5060208310610133831016604e8410600b841016171562002d7a575081810a620005cc565b62002d86838362002ca8565b806000190482111562002d9d5762002d9d620025f3565b029392505050565b600062001beb60ff84168362002cf1565b80820180821115620005cc57620005cc620025f356fe608060405234801561001057600080fd5b506040516117e43803806117e483398101604081905261002f916100b9565b806001600160a01b03811661008a5760405162461bcd60e51b815260206004820152601560248201527f4d413a42616420526f7574657220616464726573730000000000000000000000604482015260640160405180910390fd5b600180546001600160a01b039092166001600160a01b03199283161790556005805490911633179055506100e9565b6000602082840312156100cb57600080fd5b81516001600160a01b03811681146100e257600080fd5b9392505050565b6116ec806100f86000396000f3fe608060405234801561001057600080fd5b50600436106101e55760003560e01c8063643090bc1161010f578063c52cee7a116100a2578063eda11ef011610071578063eda11ef014610495578063f73b858d146104c8578063f887ea40146104e8578063fac5e981146104fb57600080fd5b8063c52cee7a1461044d578063c55dae6314610456578063ca96a6a714610469578063db386b8d1461047257600080fd5b8063abf410e5116100de578063abf410e51461040b578063aeccd4b91461041e578063b1f1150c14610427578063bbf9f2a01461043a57600080fd5b8063643090bc146103ca5780637d1c484d146103d357806390b2f8f5146103e5578063a64b6e5f146103f857600080fd5b8063272c4a11116101875780634c89b68d116101565780634c89b68d146102df578063514ea4bf1461032e578063597810341461039757806359cbbf49146103aa57600080fd5b8063272c4a111461029e578063318a96a7146102b1578063481cecaa146102c45780634c19386c146102d757600080fd5b80631d9fd309116101c35780631d9fd309146102445780631fb3b7ac14610257578063220b6dec146102605780632495a5991461027357600080fd5b80630797ceec146101ea57806317d11a15146102055780631928b3cb14610221575b600080fd5b6102036101f836600461100a565b600891909155600955565b005b61020e60095481565b6040519081526020015b60405180910390f35b61020e61022f36600461102c565b60009081526004602052604090206002015490565b61020e6102523660046110b0565b61050e565b61020e60065481565b61020e61026e366004611161565b61057a565b600a54610286906001600160a01b031681565b6040516001600160a01b039091168152602001610218565b6102036102ac366004611208565b610934565b6102036102bf366004611241565b6109ad565b600554610286906001600160a01b031681565b60085461020e565b6102036102ed36600461102c565b6000908152600260208181526040808420805460ff191690556004909152822080546001600160a01b03191681556001810183905590810182905560030155565b61036d61033c36600461102c565b60046020526000908152604090208054600182015460028301546003909301546001600160a01b0390921692909184565b604080516001600160a01b0390951685526020850193909352918301526060820152608001610218565b6102036103a53660046112cd565b610a32565b6103bd6103b836600461137e565b610a47565b60405161021891906114db565b61020e600b5481565b6102036103e136600461100a565b5050565b61020e6103f33660046110b0565b610ade565b6102036104063660046112cd565b610b43565b600054610286906001600160a01b031681565b61020e60075481565b61020361043536600461102c565b610b57565b61020361044836600461100a565b610b6a565b61020e60085481565b600354610286906001600160a01b031681565b61020e600d5481565b61020e61048036600461102c565b60009081526004602052604090206001015490565b6104b86104a336600461102c565b60026020526000908152604090205460ff1681565b6040519015158152602001610218565b61020e6104d636600461102c565b600c6020526000908152604090205481565b600154610286906001600160a01b031681565b6103bd6105093660046114ee565b610c23565b8051600090815b818110156105735761055f610558600460008785815181106105395761053961153e565b6020026020010151815260200190815260200160002060010154610c44565b8490610c5b565b92508061056b8161156a565b915050610515565b5050919050565b80516000906001600160a01b03166105cd5760405162461bcd60e51b815260206004820152601160248201527026a09d102a37b5b2b724b71032b93937b960791b60448201526064015b60405180910390fd5b60208201516001600160a01b031661061c5760405162461bcd60e51b815260206004820152601260248201527126a09d103a37b5b2b727baba1032b93937b960711b60448201526064016105c4565b8160800151156106f55760008260400151116106715760405162461bcd60e51b815260206004820152601460248201527326a09d1024b73b30b634b21030b6b7bab73a24b760611b60448201526064016105c4565b8151600154604080850151905163095ea7b360e01b81526001600160a01b039283166004820152602481019190915291169063095ea7b3906044016020604051808303816000875af11580156106cb573d6000803e3d6000fd5b505050506040513d601f19601f820116820180604052508101906106ef9190611583565b506107d3565b60008260600151116107535760405162461bcd60e51b815260206004820152602160248201527f4d413a20496e76616c6964205f73776170506172616d732e616d6f756e744f756044820152601d60fa1b60648201526084016105c4565b8151600154606084015160405163095ea7b360e01b81526001600160a01b039283166004820152602481019190915291169063095ea7b3906044016020604051808303816000875af11580156107ad573d6000803e3d6000fd5b505050506040513d601f19601f820116820180604052508101906107d19190611583565b505b606460018360800151156108b057604080516101008101825285516001600160a01b03908116825260208088015182169083015262ffffff8516828401523060608301524260808301528683015160a08084019190915260c08089015190840152870151811660e0830152600154925163414bf38960e01b81529192169063414bf389906108659084906004016115a0565b6020604051808303816000875af1158015610884573d6000803e3d6000fd5b505050506040513d601f19601f820116820180604052508101906108a8919061160a565b935050610573565b604080516101008101825285516001600160a01b03908116825260208088015182169083015262ffffff8516828401523060608084019190915242608084015287015160a080840191909152600060c0840152870151811660e08301526001549251631b67c43360e31b81529192169063db3e2198906108659084906004016115a0565b60405163095ea7b360e01b81526001600160a01b038281166004830152600019602483015283169063095ea7b3906044016020604051808303816000875af1158015610984573d6000803e3d6000fd5b505050506040513d601f19601f820116820180604052508101906109a89190611583565b505050565b6000828152600460209081526040808320845181546001600160a01b0319166001600160a01b039091161781558483015160018083019190915585830151600280840191909155606087018051600390940193909355909352908320805460ff191690921790915551600b805491929091610a29908490611623565b90915550505050565b6109a86001600160a01b038316843084610c67565b60606000610a5484610cd8565b905060005b8160ff168160ff161015610ad457610ac0848260ff1681518110610a7f57610a7f61153e565b602002602001015187878460ff16818110610a9c57610a9c61153e565b9050602002016020810190610ab1919061164b565b6001600160a01b031690610d39565b925080610acc81611668565b915050610a59565b50505b9392505050565b8051600090815b8181101561057357610b2f60046000868481518110610b0657610b0661153e565b602002602001015181526020019081526020016000206001015484610d7b90919063ffffffff16565b925080610b3b8161156a565b915050610ae5565b6109a86001600160a01b0384168383610d87565b600b54610b649082610d7b565b600b5550565b6000828152600c6020526040812054610b839083610d7b565b13610be45760405162461bcd60e51b815260206004820152602b60248201527f4d413a2043616e6e6f742068617665206e65676174697665206d617267696e2060448201526a125b881c1c9bdd1bd8dbdb60aa1b60648201526084016105c4565b600d54610bf19082610d7b565b600d556000828152600c6020526040902054610c0d9082610d7b565b6000928352600c60205260409092209190915550565b60606000610c3a6001600160a01b03851684610d39565b9150505b92915050565b600080821215610c575781600003610c3e565b5090565b6000610ad78284611687565b6040516001600160a01b0380851660248301528316604482015260648101829052610cd29085906323b872dd60e01b906084015b60408051601f198184030181529190526020810180516001600160e01b03166001600160e01b031990931692909217909152610db7565b50505050565b600060ff821115610c575760405162461bcd60e51b815260206004820152602560248201527f53616665436173743a2076616c756520646f65736e27742066697420696e2038604482015264206269747360d81b60648201526084016105c4565b6060610ad783836040518060400160405280601e81526020017f416464726573733a206c6f772d6c6576656c2063616c6c206661696c65640000815250610e89565b6000610ad78284611623565b6040516001600160a01b0383166024820152604481018290526109a890849063a9059cbb60e01b90606401610c9b565b6000610e0c826040518060400160405280602081526020017f5361666545524332303a206c6f772d6c6576656c2063616c6c206661696c6564815250856001600160a01b0316610e899092919063ffffffff16565b8051909150156109a85780806020019051810190610e2a9190611583565b6109a85760405162461bcd60e51b815260206004820152602a60248201527f5361666545524332303a204552433230206f7065726174696f6e20646964206e6044820152691bdd081cdd58d8d9595960b21b60648201526084016105c4565b6060610e988484600085610ea0565b949350505050565b606082471015610f015760405162461bcd60e51b815260206004820152602660248201527f416464726573733a20696e73756666696369656e742062616c616e636520666f6044820152651c8818d85b1b60d21b60648201526084016105c4565b6001600160a01b0385163b610f585760405162461bcd60e51b815260206004820152601d60248201527f416464726573733a2063616c6c20746f206e6f6e2d636f6e747261637400000060448201526064016105c4565b600080866001600160a01b03168587604051610f74919061169a565b60006040518083038185875af1925050503d8060008114610fb1576040519150601f19603f3d011682016040523d82523d6000602084013e610fb6565b606091505b5091509150610fc6828286610fd1565b979650505050505050565b60608315610fe0575081610ad7565b825115610ff05782518084602001fd5b8160405162461bcd60e51b81526004016105c491906114db565b6000806040838503121561101d57600080fd5b50508035926020909101359150565b60006020828403121561103e57600080fd5b5035919050565b634e487b7160e01b600052604160045260246000fd5b604051601f8201601f1916810167ffffffffffffffff8111828210171561108457611084611045565b604052919050565b600067ffffffffffffffff8211156110a6576110a6611045565b5060051b60200190565b600060208083850312156110c357600080fd5b823567ffffffffffffffff8111156110da57600080fd5b8301601f810185136110eb57600080fd5b80356110fe6110f98261108c565b61105b565b81815260059190911b8201830190838101908783111561111d57600080fd5b928401925b82841015610fc657833582529284019290840190611122565b6001600160a01b038116811461115057600080fd5b50565b801515811461115057600080fd5b600060e0828403121561117357600080fd5b60405160e0810181811067ffffffffffffffff8211171561119657611196611045565b60405282356111a48161113b565b815260208301356111b48161113b565b80602083015250604083013560408201526060830135606082015260808301356111dd81611153565b608082015260a08301356111f08161113b565b60a082015260c0928301359281019290925250919050565b6000806040838503121561121b57600080fd5b82356112268161113b565b915060208301356112368161113b565b809150509250929050565b60008082840360a081121561125557600080fd5b833592506080601f198201121561126b57600080fd5b506040516080810181811067ffffffffffffffff8211171561128f5761128f611045565b60405260208401356112a08161113b565b80825250604084013560208201526060840135604082015260808401356060820152809150509250929050565b6000806000606084860312156112e257600080fd5b83356112ed8161113b565b925060208401356112fd8161113b565b929592945050506040919091013590565b600082601f83011261131f57600080fd5b813567ffffffffffffffff81111561133957611339611045565b61134c601f8201601f191660200161105b565b81815284602083860101111561136157600080fd5b816020850160208301376000918101602001919091529392505050565b60008060006040848603121561139357600080fd5b833567ffffffffffffffff808211156113ab57600080fd5b818601915086601f8301126113bf57600080fd5b8135818111156113ce57600080fd5b602088818360051b86010111156113e457600080fd5b8084019650819550808801359350828411156113ff57600080fd5b838801935088601f85011261141357600080fd5b833591506114236110f98361108c565b82815260059290921b8401810191818101908a84111561144257600080fd5b8286015b8481101561147a5780358681111561145e5760008081fd5b61146c8d86838b010161130e565b845250918301918301611446565b508096505050505050509250925092565b60005b838110156114a657818101518382015260200161148e565b50506000910152565b600081518084526114c781602086016020860161148b565b601f01601f19169290920160200192915050565b602081526000610ad760208301846114af565b6000806040838503121561150157600080fd5b823561150c8161113b565b9150602083013567ffffffffffffffff81111561152857600080fd5b6115348582860161130e565b9150509250929050565b634e487b7160e01b600052603260045260246000fd5b634e487b7160e01b600052601160045260246000fd5b60006001820161157c5761157c611554565b5060010190565b60006020828403121561159557600080fd5b8151610ad781611153565b6101008101610c3e828480516001600160a01b03908116835260208083015182169084015260408083015162ffffff16908401526060808301518216908401526080808301519084015260a0828101519084015260c0808301519084015260e09182015116910152565b60006020828403121561161c57600080fd5b5051919050565b808201828112600083128015821682158216171561164357611643611554565b505092915050565b60006020828403121561165d57600080fd5b8135610ad78161113b565b600060ff821660ff810361167e5761167e611554565b60010192915050565b80820180821115610c3e57610c3e611554565b600082516116ac81846020870161148b565b919091019291505056fea2646970667358221220786e9087a29764dc1f148f1e54dd2eb903b636c467cc7832e70c4213e5ef636964736f6c63430008110033a2646970667358221220a87e09af783a6b8469a370f542ff1689c97571ae6c73ba5635ba91a7627c718a64736f6c63430008110033",
    "linkReferences": {}
  },
  "methodIdentifiers": {
    "RemoveCollateral()": "734452c9",
    "SetCollatralRatio(address,uint256)": "aec6a8cd",
    "SetPenalty(uint256)": "c657328d",
    "SetRiskManager(address)": "37c8df85",
    "allowedUnderlyingTokens(address)": "90838c8c",
    "calcCreditAccountAccruedInterest(address)": "3192195c",
    "calcMarginAccountAccruedInterest(address)": "94b75797",
    "closeMarginAccount()": "fb787d01",
    "closePosition(bytes32,address[],bytes[])": "f0da5f79",
    "collatralRatio(address)": "7536cbf5",
    "contractRegistry()": "abf410e5",
    "decreaseDebt(address,uint256)": "2fb9ba31",
    "getInterestAccrued(address)": "870c421e",
    "liquidate(bytes32[],address[],bytes[])": "bc2ca844",
    "liquidationPenalty()": "23f5589a",
    "marginAccounts(address)": "9c498bc3",
    "marketManager()": "41ed2c12",
    "openMarginAccount()": "b9e41a21",
    "openPosition(bytes32,address[],bytes[])": "fb80a0f1",
    "priceOracle()": "2630c12f",
    "riskManager()": "47842663",
    "setVault(address)": "6817031b",
    "settleFee(address)": "4b11df11",
    "updatePosition(bytes32,address[],bytes[])": "f6ba5d16",
    "vault()": "fbfa77cf"
  },
  "id": 28
}