{
  "abi": [
    {
      "inputs": [
        {
          "internalType": "contract IContractRegistry",
          "name": "_contractRegistry",
          "type": "address"
        },
        {
          "internalType": "contract IMarketManager",
          "name": "_marketManager",
          "type": "address"
        },
        {
          "internalType": "contract IPriceOracle",
          "name": "_priceOracle",
          "type": "address"
        }
      ],
      "stateMutability": "nonpayable",
      "type": "constructor"
    },
    {
      "anonymous": false,
      "inputs": [
        {
          "indexed": true,
          "internalType": "address",
          "name": "",
          "type": "address"
        },
        {
          "indexed": true,
          "internalType": "address",
          "name": "",
          "type": "address"
        }
      ],
      "name": "MarginAccountClosed",
      "type": "event"
    },
    {
      "anonymous": false,
      "inputs": [
        {
          "indexed": true,
          "internalType": "address",
          "name": "",
          "type": "address"
        },
        {
          "indexed": true,
          "internalType": "address",
          "name": "",
          "type": "address"
        }
      ],
      "name": "MarginAccountLiquidated",
      "type": "event"
    },
    {
      "anonymous": false,
      "inputs": [
        {
          "indexed": true,
          "internalType": "address",
          "name": "",
          "type": "address"
        },
        {
          "indexed": true,
          "internalType": "address",
          "name": "",
          "type": "address"
        }
      ],
      "name": "MarginAccountOpened",
      "type": "event"
    },
    {
      "anonymous": false,
      "inputs": [
        {
          "indexed": true,
          "internalType": "address",
          "name": "",
          "type": "address"
        },
        {
          "indexed": true,
          "internalType": "address",
          "name": "",
          "type": "address"
        },
        {
          "indexed": true,
          "internalType": "address",
          "name": "",
          "type": "address"
        },
        {
          "indexed": false,
          "internalType": "int256",
          "name": "",
          "type": "int256"
        },
        {
          "indexed": false,
          "internalType": "int256",
          "name": "",
          "type": "int256"
        }
      ],
      "name": "MarginTransferred",
      "type": "event"
    },
    {
      "anonymous": false,
      "inputs": [
        {
          "indexed": true,
          "internalType": "address",
          "name": "",
          "type": "address"
        },
        {
          "indexed": true,
          "internalType": "address",
          "name": "",
          "type": "address"
        },
        {
          "indexed": true,
          "internalType": "address",
          "name": "",
          "type": "address"
        },
        {
          "indexed": false,
          "internalType": "int256",
          "name": "",
          "type": "int256"
        },
        {
          "indexed": false,
          "internalType": "int256",
          "name": "",
          "type": "int256"
        }
      ],
      "name": "PositionAdded",
      "type": "event"
    },
    {
      "anonymous": false,
      "inputs": [
        {
          "indexed": true,
          "internalType": "address",
          "name": "",
          "type": "address"
        },
        {
          "indexed": true,
          "internalType": "address",
          "name": "",
          "type": "address"
        },
        {
          "indexed": true,
          "internalType": "address",
          "name": "",
          "type": "address"
        },
        {
          "indexed": false,
          "internalType": "int256",
          "name": "",
          "type": "int256"
        },
        {
          "indexed": false,
          "internalType": "int256",
          "name": "",
          "type": "int256"
        }
      ],
      "name": "PositionRemoved",
      "type": "event"
    },
    {
      "anonymous": false,
      "inputs": [
        {
          "indexed": true,
          "internalType": "address",
          "name": "",
          "type": "address"
        },
        {
          "indexed": true,
          "internalType": "address",
          "name": "",
          "type": "address"
        },
        {
          "indexed": true,
          "internalType": "address",
          "name": "",
          "type": "address"
        },
        {
          "indexed": false,
          "internalType": "int256",
          "name": "",
          "type": "int256"
        },
        {
          "indexed": false,
          "internalType": "int256",
          "name": "",
          "type": "int256"
        }
      ],
      "name": "PositionUpdated",
      "type": "event"
    },
    {
      "inputs": [],
      "name": "RemoveCollateral",
      "outputs": [],
      "stateMutability": "nonpayable",
      "type": "function"
    },
    {
      "inputs": [
        {
          "internalType": "address",
          "name": "token",
          "type": "address"
        },
        {
          "internalType": "uint256",
          "name": "value",
          "type": "uint256"
        }
      ],
      "name": "SetCollatralRatio",
      "outputs": [],
      "stateMutability": "nonpayable",
      "type": "function"
    },
    {
      "inputs": [
        {
          "internalType": "uint256",
          "name": "value",
          "type": "uint256"
        }
      ],
      "name": "SetPenalty",
      "outputs": [],
      "stateMutability": "nonpayable",
      "type": "function"
    },
    {
      "inputs": [
        {
          "internalType": "address",
          "name": "_riskmgr",
          "type": "address"
        }
      ],
      "name": "SetRiskManager",
      "outputs": [],
      "stateMutability": "nonpayable",
      "type": "function"
    },
    {
      "inputs": [
        {
          "internalType": "address",
          "name": "",
          "type": "address"
        }
      ],
      "name": "allowedUnderlyingTokens",
      "outputs": [
        {
          "internalType": "bool",
          "name": "",
          "type": "bool"
        }
      ],
      "stateMutability": "view",
      "type": "function"
    },
    {
      "inputs": [
        {
          "internalType": "address",
          "name": "marginacc",
          "type": "address"
        }
      ],
      "name": "calcCreditAccountAccruedInterest",
      "outputs": [
        {
          "internalType": "uint256",
          "name": "",
          "type": "uint256"
        }
      ],
      "stateMutability": "view",
      "type": "function"
    },
    {
      "inputs": [
        {
          "internalType": "address",
          "name": "_marginAccount",
          "type": "address"
        }
      ],
      "name": "calcMarginAccountAccruedInterest",
      "outputs": [
        {
          "internalType": "uint256",
          "name": "borrowedAmount",
          "type": "uint256"
        },
        {
          "internalType": "uint256",
          "name": "borrowedAmountWithInterest",
          "type": "uint256"
        }
      ],
      "stateMutability": "view",
      "type": "function"
    },
    {
      "inputs": [],
      "name": "closeMarginAccount",
      "outputs": [],
      "stateMutability": "nonpayable",
      "type": "function"
    },
    {
      "inputs": [
        {
          "internalType": "bytes32",
          "name": "marketKey",
          "type": "bytes32"
        },
        {
          "internalType": "address[]",
          "name": "destinations",
          "type": "address[]"
        },
        {
          "internalType": "bytes[]",
          "name": "data",
          "type": "bytes[]"
        }
      ],
      "name": "closePosition",
      "outputs": [],
      "stateMutability": "nonpayable",
      "type": "function"
    },
    {
      "inputs": [
        {
          "internalType": "address",
          "name": "",
          "type": "address"
        }
      ],
      "name": "collatralRatio",
      "outputs": [
        {
          "internalType": "uint256",
          "name": "",
          "type": "uint256"
        }
      ],
      "stateMutability": "view",
      "type": "function"
    },
    {
      "inputs": [],
      "name": "contractRegistry",
      "outputs": [
        {
          "internalType": "contract IContractRegistry",
          "name": "",
          "type": "address"
        }
      ],
      "stateMutability": "view",
      "type": "function"
    },
    {
      "inputs": [
        {
          "internalType": "address",
          "name": "marginAcc",
          "type": "address"
        },
        {
          "internalType": "uint256",
          "name": "amount",
          "type": "uint256"
        }
      ],
      "name": "decreaseDebt",
      "outputs": [
        {
          "internalType": "uint256",
          "name": "newBorrowedAmount",
          "type": "uint256"
        }
      ],
      "stateMutability": "nonpayable",
      "type": "function"
    },
    {
      "inputs": [
        {
          "internalType": "address",
          "name": "marginAccount",
          "type": "address"
        }
      ],
      "name": "getInterestAccrued",
      "outputs": [
        {
          "internalType": "uint256",
          "name": "",
          "type": "uint256"
        }
      ],
      "stateMutability": "view",
      "type": "function"
    },
    {
      "inputs": [
        {
          "internalType": "bytes32[]",
          "name": "marketKeys",
          "type": "bytes32[]"
        },
        {
          "internalType": "address[]",
          "name": "destinations",
          "type": "address[]"
        },
        {
          "internalType": "bytes[]",
          "name": "data",
          "type": "bytes[]"
        }
      ],
      "name": "liquidate",
      "outputs": [],
      "stateMutability": "nonpayable",
      "type": "function"
    },
    {
      "inputs": [],
      "name": "liquidationPenalty",
      "outputs": [
        {
          "internalType": "uint256",
          "name": "",
          "type": "uint256"
        }
      ],
      "stateMutability": "view",
      "type": "function"
    },
    {
      "inputs": [
        {
          "internalType": "address",
          "name": "",
          "type": "address"
        }
      ],
      "name": "marginAccounts",
      "outputs": [
        {
          "internalType": "address",
          "name": "",
          "type": "address"
        }
      ],
      "stateMutability": "view",
      "type": "function"
    },
    {
      "inputs": [],
      "name": "marketManager",
      "outputs": [
        {
          "internalType": "contract IMarketManager",
          "name": "",
          "type": "address"
        }
      ],
      "stateMutability": "view",
      "type": "function"
    },
    {
      "inputs": [],
      "name": "openMarginAccount",
      "outputs": [
        {
          "internalType": "address",
          "name": "",
          "type": "address"
        }
      ],
      "stateMutability": "nonpayable",
      "type": "function"
    },
    {
      "inputs": [
        {
          "internalType": "bytes32",
          "name": "marketKey",
          "type": "bytes32"
        },
        {
          "internalType": "address[]",
          "name": "destinations",
          "type": "address[]"
        },
        {
          "internalType": "bytes[]",
          "name": "data",
          "type": "bytes[]"
        }
      ],
      "name": "openPosition",
      "outputs": [],
      "stateMutability": "nonpayable",
      "type": "function"
    },
    {
      "inputs": [],
      "name": "priceOracle",
      "outputs": [
        {
          "internalType": "contract IPriceOracle",
          "name": "",
          "type": "address"
        }
      ],
      "stateMutability": "view",
      "type": "function"
    },
    {
      "inputs": [],
      "name": "riskManager",
      "outputs": [
        {
          "internalType": "contract RiskManager",
          "name": "",
          "type": "address"
        }
      ],
      "stateMutability": "view",
      "type": "function"
    },
    {
      "inputs": [
        {
          "internalType": "address",
          "name": "_vault",
          "type": "address"
        }
      ],
      "name": "setVault",
      "outputs": [],
      "stateMutability": "nonpayable",
      "type": "function"
    },
    {
      "inputs": [
        {
          "internalType": "address",
          "name": "acc",
          "type": "address"
        }
      ],
      "name": "settleFee",
      "outputs": [],
      "stateMutability": "nonpayable",
      "type": "function"
    },
    {
      "inputs": [
        {
          "internalType": "address",
          "name": "trader",
          "type": "address"
        }
      ],
      "name": "settleRealizedAccounting",
      "outputs": [],
      "stateMutability": "nonpayable",
      "type": "function"
    },
    {
      "inputs": [
        {
          "internalType": "bytes32",
          "name": "marketKey",
          "type": "bytes32"
        },
        {
          "internalType": "address[]",
          "name": "destinations",
          "type": "address[]"
        },
        {
          "internalType": "bytes[]",
          "name": "data",
          "type": "bytes[]"
        }
      ],
      "name": "updatePosition",
      "outputs": [],
      "stateMutability": "nonpayable",
      "type": "function"
    },
    {
      "inputs": [
        {
          "internalType": "address",
          "name": "trader",
          "type": "address"
        }
      ],
      "name": "updateUnsettledRealizedPnL",
      "outputs": [],
      "stateMutability": "nonpayable",
      "type": "function"
    },
    {
      "inputs": [],
      "name": "vault",
      "outputs": [
        {
          "internalType": "contract Vault",
          "name": "",
          "type": "address"
        }
      ],
      "stateMutability": "view",
      "type": "function"
    }
  ],
  "bytecode": {
    "object": "0x60806040523480156200001157600080fd5b506040516200828c3803806200828c833981810160405281019062000037919062000213565b600160008190555082600260006101000a81548173ffffffffffffffffffffffffffffffffffffffff021916908373ffffffffffffffffffffffffffffffffffffffff16021790555081600360006101000a81548173ffffffffffffffffffffffffffffffffffffffff021916908373ffffffffffffffffffffffffffffffffffffffff16021790555080600460006101000a81548173ffffffffffffffffffffffffffffffffffffffff021916908373ffffffffffffffffffffffffffffffffffffffff1602179055505050506200026f565b600080fd5b600073ffffffffffffffffffffffffffffffffffffffff82169050919050565b60006200013d8262000110565b9050919050565b6000620001518262000130565b9050919050565b620001638162000144565b81146200016f57600080fd5b50565b600081519050620001838162000158565b92915050565b6000620001968262000130565b9050919050565b620001a88162000189565b8114620001b457600080fd5b50565b600081519050620001c8816200019d565b92915050565b6000620001db8262000130565b9050919050565b620001ed81620001ce565b8114620001f957600080fd5b50565b6000815190506200020d81620001e2565b92915050565b6000806000606084860312156200022f576200022e6200010b565b5b60006200023f8682870162000172565b93505060206200025286828701620001b7565b92505060406200026586828701620001fc565b9150509250925092565b61800d806200027f6000396000f3fe60806040523480156200001157600080fd5b5060043610620001d25760003560e01c8063870c421e1162000111578063bc2ca84411620000a5578063f6ba5d16116200007b578063f6ba5d16146200054a578063fb787d01146200056a578063fb80a0f11462000576578063fbfa77cf146200059657620001d2565b8063bc2ca84414620004ea578063c657328d146200050a578063f0da5f79146200052a57620001d2565b80639c498bc311620000e75780639c498bc31462000450578063abf410e51462000486578063aec6a8cd14620004a8578063b9e41a2114620004c857620001d2565b8063870c421e14620003ad57806390838c8c14620003e357806394b75797146200041957620001d2565b806341ed2c1211620001895780636817031b116200015f5780636817031b146200032b578063734452c9146200034b5780637536cbf514620003575780637d649b71146200038d57620001d2565b806341ed2c1214620002c75780634784266314620002e95780634b11df11146200030b57620001d2565b806323f5589a14620001d757806324d2343a14620001f95780632630c12f14620002195780632fb9ba31146200023b5780633192195c146200027157806337c8df8514620002a7575b600080fd5b620001e1620005b8565b604051620001f0919062002b65565b60405180910390f35b62000217600480360381019062000211919062002bfb565b620005be565b005b6200022362000662565b60405162000232919062002c98565b60405180910390f35b62000259600480360381019062000253919062002ce6565b62000688565b60405162000268919062002b65565b60405180910390f35b6200028f600480360381019062000289919062002bfb565b620008a9565b6040516200029e919062002b65565b60405180910390f35b620002c56004803603810190620002bf919062002bfb565b620008b4565b005b620002d162000934565b604051620002e0919062002d52565b60405180910390f35b620002f36200095a565b60405162000302919062002d94565b60405180910390f35b62000329600480360381019062000323919062002bfb565b62000980565b005b62000349600480360381019062000343919062002bfb565b62000af6565b005b6200035562000b76565b005b6200037560048036038101906200036f919062002bfb565b62000b78565b60405162000384919062002b65565b60405180910390f35b620003ab6004803603810190620003a5919062002bfb565b62000b90565b005b620003cb6004803603810190620003c5919062002bfb565b62000bae565b604051620003da919062002b65565b60405180910390f35b620004016004803603810190620003fb919062002bfb565b62000bc2565b60405162000410919062002dce565b60405180910390f35b62000437600480360381019062000431919062002bfb565b62000be2565b6040516200044792919062002deb565b60405180910390f35b6200046e600480360381019062000468919062002bfb565b62000c23565b6040516200047d919062002e29565b60405180910390f35b6200049062000c56565b6040516200049f919062002e6b565b60405180910390f35b620004c66004803603810190620004c0919062002ce6565b62000c7c565b005b620004d262000cc4565b604051620004e1919062002e29565b60405180910390f35b620005086004803603810190620005029190620032cd565b62000e3a565b005b62000528600480360381019062000522919062003386565b62001113565b005b620005486004803603810190620005429190620033b8565b6200111d565b005b620005686004803603810190620005629190620033b8565b6200152c565b005b6200057462001775565b005b6200059460048036038101906200058e919062003515565b62001777565b005b620005a0620022cf565b604051620005af9190620035de565b60405180910390f35b60065481565b6000620005cb82620022f5565b9050600160009054906101000a900473ffffffffffffffffffffffffffffffffffffffff1673ffffffffffffffffffffffffffffffffffffffff166324d2343a826040518263ffffffff1660e01b81526004016200062a919062002e29565b600060405180830381600087803b1580156200064557600080fd5b505af11580156200065a573d6000803e3d6000fd5b505050505050565b600460009054906101000a900473ffffffffffffffffffffffffffffffffffffffff1681565b60008083905060006200069b856200242e565b505090506000620006ac86620025cd565b905060008203620006c45760009350505050620008a3565b620006d985836200262d90919063ffffffff16565b9350600080600190506000620006fb838386620026459092919063ffffffff16565b9050600560009054906101000a900473ffffffffffffffffffffffffffffffffffffffff1673ffffffffffffffffffffffffffffffffffffffff16638cd2e0c78a8a876040518463ffffffff1660e01b81526004016200075e93929190620035fb565b600060405180830381600087803b1580156200077957600080fd5b505af11580156200078e573d6000803e3d6000fd5b505050506000600560009054906101000a900473ffffffffffffffffffffffffffffffffffffffff1673ffffffffffffffffffffffffffffffffffffffff16630fce70fb6040518163ffffffff1660e01b8152600401602060405180830381865afa15801562000802573d6000803e3d6000fd5b505050506040513d601f19601f820116820180604052508101906200082891906200364f565b90508673ffffffffffffffffffffffffffffffffffffffff16630797ceec89836040518363ffffffff1660e01b81526004016200086792919062002deb565b600060405180830381600087803b1580156200088257600080fd5b505af115801562000897573d6000803e3d6000fd5b50505050505050505050505b92915050565b600060019050919050565b80600073ffffffffffffffffffffffffffffffffffffffff168173ffffffffffffffffffffffffffffffffffffffff1603620008ef57600080fd5b81600160006101000a81548173ffffffffffffffffffffffffffffffffffffffff021916908373ffffffffffffffffffffffffffffffffffffffff1602179055505050565b600360009054906101000a900473ffffffffffffffffffffffffffffffffffffffff1681565b600160009054906101000a900473ffffffffffffffffffffffffffffffffffffffff1681565b600080600360009054906101000a900473ffffffffffffffffffffffffffffffffffffffff1673ffffffffffffffffffffffffffffffffffffffff1663ed2ed5446040518163ffffffff1660e01b81526004016000604051808303816000875af1158015620009f3573d6000803e3d6000fd5b505050506040513d6000823e3d601f19601f8201168201806040525081019062000a1e91906200373f565b905060005b815181101562000af05781818151811062000a435762000a4262003790565b5b602002602001015173ffffffffffffffffffffffffffffffffffffffff166350989a57856040518263ffffffff1660e01b815260040162000a85919062002e29565b6020604051808303816000875af115801562000aa5573d6000803e3d6000fd5b505050506040513d601f19601f8201168201806040525081019062000acb9190620037fa565b8362000ad891906200385b565b9250808062000ae790620038a6565b91505062000a23565b50505050565b80600073ffffffffffffffffffffffffffffffffffffffff168173ffffffffffffffffffffffffffffffffffffffff160362000b3157600080fd5b81600560006101000a81548173ffffffffffffffffffffffffffffffffffffffff021916908373ffffffffffffffffffffffffffffffffffffffff1602179055505050565b565b60096020528060005260406000206000915090505481565b600062000b9d82620022f5565b905062000baa8162002726565b5050565b600062000bbb82620025cd565b9050919050565b60086020528060005260406000206000915054906101000a900460ff1681565b600080600080600062000bf5866200242e565b92509250925082945081818662000c0d9190620038f3565b62000c1991906200396d565b9350505050915091565b60076020528060005260406000206000915054906101000a900473ffffffffffffffffffffffffffffffffffffffff1681565b600260009054906101000a900473ffffffffffffffffffffffffffffffffffffffff1681565b80600960008473ffffffffffffffffffffffffffffffffffffffff1673ffffffffffffffffffffffffffffffffffffffff168152602001908152602001600020819055505050565b60008073ffffffffffffffffffffffffffffffffffffffff16600760003373ffffffffffffffffffffffffffffffffffffffff1673ffffffffffffffffffffffffffffffffffffffff16815260200190815260200160002060009054906101000a900473ffffffffffffffffffffffffffffffffffffffff1673ffffffffffffffffffffffffffffffffffffffff161462000d5e57600080fd5b600073e592427a0aece92de3edee1f18e0157c05861564905060008160405162000d889062002b3c565b62000d94919062002e29565b604051809103906000f08015801562000db1573d6000803e3d6000fd5b50905080600760003373ffffffffffffffffffffffffffffffffffffffff1673ffffffffffffffffffffffffffffffffffffffff16815260200190815260200160002060006101000a81548173ffffffffffffffffffffffffffffffffffffffff021916908373ffffffffffffffffffffffffffffffffffffffff160217905550809250505090565b6000600760003373ffffffffffffffffffffffffffffffffffffffff1673ffffffffffffffffffffffffffffffffffffffff16815260200190815260200160002060009054906101000a900473ffffffffffffffffffffffffffffffffffffffff16905062000ea98162000980565b600080600160009054906101000a900473ffffffffffffffffffffffffffffffffffffffff1673ffffffffffffffffffffffffffffffffffffffff16637e748f8c848888886040518563ffffffff1660e01b815260040162000f0f949392919062003c9a565b60408051808303816000875af115801562000f2e573d6000803e3d6000fd5b505050506040513d601f19601f8201168201806040525081019062000f54919062003cfc565b80925081935050506000821315801562000f6e5750600081125b62000fb0576040517f08c379a000000000000000000000000000000000000000000000000000000000815260040162000fa79062003dca565b60405180910390fd5b8273ffffffffffffffffffffffffffffffffffffffff166359cbbf4986866040518363ffffffff1660e01b815260040162000fed92919062003dec565b6000604051808303816000875af11580156200100d573d6000803e3d6000fd5b505050506040513d6000823e3d601f19601f8201168201806040525081019062001038919062003ea5565b5060008212156200105b576200105983620010538462002840565b62000688565b505b60005b86518110156200110a578373ffffffffffffffffffffffffffffffffffffffff16634c89b68d8883815181106200109a576200109962003790565b5b60200260200101516040518263ffffffff1660e01b8152600401620010c0919062003f07565b600060405180830381600087803b158015620010db57600080fd5b505af1158015620010f0573d6000803e3d6000fd5b5050505080806200110190620038a6565b9150506200105e565b50505050505050565b8060068190555050565b6000600760003373ffffffffffffffffffffffffffffffffffffffff1673ffffffffffffffffffffffffffffffffffffffff16815260200190815260200160002060009054906101000a900473ffffffffffffffffffffffffffffffffffffffff1690506200118c8162000980565b8073ffffffffffffffffffffffffffffffffffffffff1663eda11ef0856040518263ffffffff1660e01b8152600401620011c7919062003f07565b602060405180830381865afa158015620011e5573d6000803e3d6000fd5b505050506040513d601f19601f820116820180604052508101906200120b919062003f55565b6200124d576040517f08c379a0000000000000000000000000000000000000000000000000000000008152600401620012449062003fd7565b60405180910390fd5b600080600160009054906101000a900473ffffffffffffffffffffffffffffffffffffffff1673ffffffffffffffffffffffffffffffffffffffff1663e650e5df848888886040518563ffffffff1660e01b8152600401620012b3949392919062003ff9565b60408051808303816000875af1158015620012d2573d6000803e3d6000fd5b505050506040513d601f19601f82011682018060405250810190620012f8919062003cfc565b80925081935050508273ffffffffffffffffffffffffffffffffffffffff1663db386b8d876040518263ffffffff1660e01b81526004016200133b919062003f07565b602060405180830381865afa15801562001359573d6000803e3d6000fd5b505050506040513d601f19601f820116820180604052508101906200137f9190620037fa565b8114620013c3576040517f08c379a0000000000000000000000000000000000000000000000000000000008152600401620013ba90620040a4565b60405180910390fd5b60008213156200140a576040517f08c379a0000000000000000000000000000000000000000000000000000000008152600401620014019062003dca565b60405180910390fd5b60008212156200142c576200142a83620014248462002840565b62000688565b505b8273ffffffffffffffffffffffffffffffffffffffff166359cbbf4986866040518363ffffffff1660e01b81526004016200146992919062003dec565b6000604051808303816000875af115801562001489573d6000803e3d6000fd5b505050506040513d6000823e3d601f19601f82011682018060405250810190620014b4919062003ea5565b508273ffffffffffffffffffffffffffffffffffffffff16634c89b68d876040518263ffffffff1660e01b8152600401620014f0919062003f07565b600060405180830381600087803b1580156200150b57600080fd5b505af115801562001520573d6000803e3d6000fd5b50505050505050505050565b60006200153933620022f5565b90508073ffffffffffffffffffffffffffffffffffffffff1663eda11ef0856040518263ffffffff1660e01b815260040162001576919062003f07565b602060405180830381865afa15801562001594573d6000803e3d6000fd5b505050506040513d601f19601f82011682018060405250810190620015ba919062003f55565b620015fc576040517f08c379a0000000000000000000000000000000000000000000000000000000008152600401620015f39062003fd7565b60405180910390fd5b620016078162002726565b6000600160009054906101000a900473ffffffffffffffffffffffffffffffffffffffff1673ffffffffffffffffffffffffffffffffffffffff16634f82d618838787876200165688620025cd565b6040518663ffffffff1660e01b815260040162001678959493929190620040c6565b610100604051808303816000875af115801562001699573d6000803e3d6000fd5b505050506040513d601f19601f82011682018060405250810190620016bf919062004257565b9050600080600360009054906101000a900473ffffffffffffffffffffffffffffffffffffffff1673ffffffffffffffffffffffffffffffffffffffff1663382dfc3d886040518263ffffffff1660e01b815260040162001721919062003f07565b6040805180830381865afa1580156200173e573d6000803e3d6000fd5b505050506040513d601f19601f820116820180604052508101906200176491906200428a565b809350819250505050505050505050565b565b60006200178433620022f5565b90508073ffffffffffffffffffffffffffffffffffffffff1663eda11ef0876040518263ffffffff1660e01b8152600401620017c1919062003f07565b602060405180830381865afa158015620017df573d6000803e3d6000fd5b505050506040513d601f19601f8201168201806040525081019062001805919062003f55565b1562001848576040517f08c379a00000000000000000000000000000000000000000000000000000000081526004016200183f9062004321565b60405180910390fd5b620018538162002726565b6000600160009054906101000a900473ffffffffffffffffffffffffffffffffffffffff1673ffffffffffffffffffffffffffffffffffffffff16634f82d618838989898989620018a48a620025cd565b6040518863ffffffff1660e01b8152600401620018c897969594939291906200453b565b610100604051808303816000875af1158015620018e9573d6000803e3d6000fd5b505050506040513d601f19601f820116820180604052508101906200190f919062004257565b90506000600560009054906101000a900473ffffffffffffffffffffffffffffffffffffffff1673ffffffffffffffffffffffffffffffffffffffff166338d52e0f6040518163ffffffff1660e01b8152600401602060405180830381865afa15801562001981573d6000803e3d6000fd5b505050506040513d601f19601f82011682018060405250810190620019a79190620045aa565b90506000620019be83606001516040015162002840565b111562001ad3578273ffffffffffffffffffffffffffffffffffffffff1663318a96a78984606001516040518363ffffffff1660e01b815260040162001a069291906200465b565b600060405180830381600087803b15801562001a2157600080fd5b505af115801562001a36573d6000803e3d6000fd5b50505050816080015173ffffffffffffffffffffffffffffffffffffffff16826000015173ffffffffffffffffffffffffffffffffffffffff168473ffffffffffffffffffffffffffffffffffffffff167fd33d152596235f4fb4d1bb20ba163cec1503b843bfeace18a0a218e25cbbe65c85606001516040015186606001516020015160405162001aca92919062004699565b60405180910390a45b60008260400151121562001b1e576040517f08c379a000000000000000000000000000000000000000000000000000000000815260040162001b159062004762565b60405180910390fd5b600062001b2f836040015162002840565b111562002238578273ffffffffffffffffffffffffffffffffffffffff16630952886a836000015184604001516040518363ffffffff1660e01b815260040162001b7b92919062004784565b600060405180830381600087803b15801562001b9657600080fd5b505af115801562001bab573d6000803e3d6000fd5b50505050816080015173ffffffffffffffffffffffffffffffffffffffff16826000015173ffffffffffffffffffffffffffffffffffffffff168473ffffffffffffffffffffffffffffffffffffffff167f48e9eae93900d26ec70afc86dfc8919856a7b28c0ff25b326fbdd8a04aa87b0f8560200151866040015160405162001c3792919062004699565b60405180910390a46000826080015173ffffffffffffffffffffffffffffffffffffffff166370a08231856040518263ffffffff1660e01b815260040162001c80919062002e29565b602060405180830381865afa15801562001c9e573d6000803e3d6000fd5b505050506040513d601f19601f8201168201806040525081019062001cc491906200364f565b905060008273ffffffffffffffffffffffffffffffffffffffff166370a08231866040518263ffffffff1660e01b815260040162001d03919062002e29565b602060405180830381865afa15801562001d21573d6000803e3d6000fd5b505050506040513d601f19601f8201168201806040525081019062001d4791906200364f565b905062001d58846020015162002840565b8210156200223557600062001d858362001d76876020015162002840565b6200262d90919063ffffffff16565b9050600062001f40866080015173ffffffffffffffffffffffffffffffffffffffff1663313ce5676040518163ffffffff1660e01b8152600401602060405180830381865afa15801562001ddd573d6000803e3d6000fd5b505050506040513d601f19601f8201168201806040525081019062001e039190620047ef565b8673ffffffffffffffffffffffffffffffffffffffff1663313ce5676040518163ffffffff1660e01b8152600401602060405180830381865afa15801562001e4f573d6000803e3d6000fd5b505050506040513d601f19601f8201168201806040525081019062001e759190620047ef565b62001f30600460009054906101000a900473ffffffffffffffffffffffffffffffffffffffff1673ffffffffffffffffffffffffffffffffffffffff166308ba908462001ec2886200285e565b8c608001516040518363ffffffff1660e01b815260040162001ee692919062004821565b602060405180830381865afa15801562001f04573d6000803e3d6000fd5b505050506040513d601f19601f8201168201806040525081019062001f2a9190620037fa565b62002840565b620028ce9092919063ffffffff16565b9050828111156200200b5762002009876200200362001fdf60008973ffffffffffffffffffffffffffffffffffffffff1663313ce5676040518163ffffffff1660e01b8152600401602060405180830381865afa15801562001fa6573d6000803e3d6000fd5b505050506040513d601f19601f8201168201806040525081019062001fcc9190620047ef565b6103e8620028ce9092919063ffffffff16565b62001ff487866200262d90919063ffffffff16565b6200296690919063ffffffff16565b6200297e565b505b856080015173ffffffffffffffffffffffffffffffffffffffff168573ffffffffffffffffffffffffffffffffffffffff1614620022325760006040518060e001604052808773ffffffffffffffffffffffffffffffffffffffff168152602001886080015173ffffffffffffffffffffffffffffffffffffffff1681526020016200212b6200211b60008a73ffffffffffffffffffffffffffffffffffffffff1663313ce5676040518163ffffffff1660e01b8152600401602060405180830381865afa158015620020e2573d6000803e3d6000fd5b505050506040513d601f19601f82011682018060405250810190620021089190620047ef565b6103e8620028ce9092919063ffffffff16565b856200296690919063ffffffff16565b815260200160008152602001600115158152602001600073ffffffffffffffffffffffffffffffffffffffff1681526020016000815250905060008873ffffffffffffffffffffffffffffffffffffffff1663220b6dec836040518263ffffffff1660e01b8152600401620021a191906200490c565b6020604051808303816000875af1158015620021c1573d6000803e3d6000fd5b505050506040513d601f19601f82011682018060405250810190620021e791906200364f565b9050838110156200222f576040517f08c379a0000000000000000000000000000000000000000000000000000000008152600401620022269062004979565b60405180910390fd5b50505b50505b50505b8273ffffffffffffffffffffffffffffffffffffffff166359cbbf49888888886040518563ffffffff1660e01b81526004016200227994939291906200499b565b6000604051808303816000875af115801562002299573d6000803e3d6000fd5b505050506040513d6000823e3d601f19601f82011682018060405250810190620022c4919062003ea5565b505050505050505050565b600560009054906101000a900473ffffffffffffffffffffffffffffffffffffffff1681565b60008073ffffffffffffffffffffffffffffffffffffffff16600760008473ffffffffffffffffffffffffffffffffffffffff1673ffffffffffffffffffffffffffffffffffffffff16815260200190815260200160002060009054906101000a900473ffffffffffffffffffffffffffffffffffffffff1673ffffffffffffffffffffffffffffffffffffffff1603620023c7576040517f08c379a0000000000000000000000000000000000000000000000000000000008152600401620023be9062004a2a565b60405180910390fd5b600760008373ffffffffffffffffffffffffffffffffffffffff1673ffffffffffffffffffffffffffffffffffffffff16815260200190815260200160002060009054906101000a900473ffffffffffffffffffffffffffffffffffffffff169050919050565b60008060008373ffffffffffffffffffffffffffffffffffffffff16634c19386c6040518163ffffffff1660e01b8152600401602060405180830381865afa1580156200247f573d6000803e3d6000fd5b505050506040513d601f19601f82011682018060405250810190620024a591906200364f565b92508373ffffffffffffffffffffffffffffffffffffffff166317d11a156040518163ffffffff1660e01b8152600401602060405180830381865afa158015620024f3573d6000803e3d6000fd5b505050506040513d601f19601f820116820180604052508101906200251991906200364f565b9150600560009054906101000a900473ffffffffffffffffffffffffffffffffffffffff1673ffffffffffffffffffffffffffffffffffffffff16630fce70fb6040518163ffffffff1660e01b8152600401602060405180830381865afa15801562002589573d6000803e3d6000fd5b505050506040513d601f19601f82011682018060405250810190620025af91906200364f565b905060008211620025c2576001620025c4565b815b91509193909250565b600080600080620025de856200242e565b92509250925060008303620025fa576000935050505062002628565b828282856200260a9190620038f3565b6200261691906200396d565b62002622919062004a4c565b93505050505b919050565b600081836200263d919062004a4c565b905092915050565b600080600080198587098587029250828110838203039150506000810362002685578382816200267a57620026796200393e565b5b04925050506200271f565b8084116200269257600080fd5b60008486880990508281118203915080830392506000600186190186169050808604955080840493506001818260000304019050808302841793506000600287600302189050808702600203810290508087026002038102905080870260020381029050808702600203810290508087026002038102905080870260020381029050808502955050505050505b9392505050565b6000600160009054906101000a900473ffffffffffffffffffffffffffffffffffffffff1673ffffffffffffffffffffffffffffffffffffffff1663e91fad7f836040518263ffffffff1660e01b815260040162002785919062002e29565b6020604051808303816000875af1158015620027a5573d6000803e3d6000fd5b505050506040513d601f19601f82011682018060405250810190620027cb9190620037fa565b90508173ffffffffffffffffffffffffffffffffffffffff1663d93baf74826040518263ffffffff1660e01b815260040162002808919062004a87565b600060405180830381600087803b1580156200282357600080fd5b505af115801562002838573d6000803e3d6000fd5b505050505050565b60008082121562002855578160000362002857565b815b9050919050565b60007f7fffffffffffffffffffffffffffffffffffffffffffffffffffffffffffffff821115620028c6576040517f08c379a0000000000000000000000000000000000000000000000000000000008152600401620028bd9062004b1a565b60405180910390fd5b819050919050565b60008160ff168360ff1603620028e7578390506200295f565b8160ff168360ff16116200292b5762002925838362002907919062004b3c565b600a62002915919062004ccc565b8562002b0c90919063ffffffff16565b6200295c565b6200295b82846200293d919062004b3c565b600a6200294b919062004ccc565b8562002b2490919063ffffffff16565b5b90505b9392505050565b6000818362002976919062004d1d565b905092915050565b600080839050600080600062002994876200242e565b9250925092508583620029a8919062004d1d565b945060008287620029ba9190620038f3565b8483620029c89190620038f3565b620029d4919062004d1d565b868484620029e39190620038f3565b620029ef9190620038f3565b620029fb91906200396d565b9050600560009054906101000a900473ffffffffffffffffffffffffffffffffffffffff1673ffffffffffffffffffffffffffffffffffffffff16634b8a352989896040518363ffffffff1660e01b815260040162002a5c92919062004d58565b600060405180830381600087803b15801562002a7757600080fd5b505af115801562002a8c573d6000803e3d6000fd5b505050508473ffffffffffffffffffffffffffffffffffffffff16630797ceec87836040518363ffffffff1660e01b815260040162002acd92919062002deb565b600060405180830381600087803b15801562002ae857600080fd5b505af115801562002afd573d6000803e3d6000fd5b50505050505050505092915050565b6000818362002b1c9190620038f3565b905092915050565b6000818362002b3491906200396d565b905092915050565b6132528062004d8683390190565b6000819050919050565b62002b5f8162002b4a565b82525050565b600060208201905062002b7c600083018462002b54565b92915050565b6000604051905090565b600080fd5b600080fd5b600073ffffffffffffffffffffffffffffffffffffffff82169050919050565b600062002bc38262002b96565b9050919050565b62002bd58162002bb6565b811462002be157600080fd5b50565b60008135905062002bf58162002bca565b92915050565b60006020828403121562002c145762002c1362002b8c565b5b600062002c248482850162002be4565b91505092915050565b6000819050919050565b600062002c5862002c5262002c4c8462002b96565b62002c2d565b62002b96565b9050919050565b600062002c6c8262002c37565b9050919050565b600062002c808262002c5f565b9050919050565b62002c928162002c73565b82525050565b600060208201905062002caf600083018462002c87565b92915050565b62002cc08162002b4a565b811462002ccc57600080fd5b50565b60008135905062002ce08162002cb5565b92915050565b6000806040838503121562002d005762002cff62002b8c565b5b600062002d108582860162002be4565b925050602062002d238582860162002ccf565b9150509250929050565b600062002d3a8262002c5f565b9050919050565b62002d4c8162002d2d565b82525050565b600060208201905062002d69600083018462002d41565b92915050565b600062002d7c8262002c5f565b9050919050565b62002d8e8162002d6f565b82525050565b600060208201905062002dab600083018462002d83565b92915050565b60008115159050919050565b62002dc88162002db1565b82525050565b600060208201905062002de5600083018462002dbd565b92915050565b600060408201905062002e02600083018562002b54565b62002e11602083018462002b54565b9392505050565b62002e238162002bb6565b82525050565b600060208201905062002e40600083018462002e18565b92915050565b600062002e538262002c5f565b9050919050565b62002e658162002e46565b82525050565b600060208201905062002e82600083018462002e5a565b92915050565b600080fd5b6000601f19601f8301169050919050565b7f4e487b7100000000000000000000000000000000000000000000000000000000600052604160045260246000fd5b62002ed88262002e8d565b810181811067ffffffffffffffff8211171562002efa5762002ef962002e9e565b5b80604052505050565b600062002f0f62002b82565b905062002f1d828262002ecd565b919050565b600067ffffffffffffffff82111562002f405762002f3f62002e9e565b5b602082029050602081019050919050565b600080fd5b6000819050919050565b62002f6b8162002f56565b811462002f7757600080fd5b50565b60008135905062002f8b8162002f60565b92915050565b600062002fa862002fa28462002f22565b62002f03565b9050808382526020820190506020840283018581111562002fce5762002fcd62002f51565b5b835b8181101562002ffb578062002fe6888262002f7a565b84526020840193505060208101905062002fd0565b5050509392505050565b600082601f8301126200301d576200301c62002e88565b5b81356200302f84826020860162002f91565b91505092915050565b600067ffffffffffffffff82111562003056576200305562002e9e565b5b602082029050602081019050919050565b60006200307e620030788462003038565b62002f03565b90508083825260208201905060208402830185811115620030a457620030a362002f51565b5b835b81811015620030d15780620030bc888262002be4565b845260208401935050602081019050620030a6565b5050509392505050565b600082601f830112620030f357620030f262002e88565b5b81356200310584826020860162003067565b91505092915050565b600067ffffffffffffffff8211156200312c576200312b62002e9e565b5b602082029050602081019050919050565b600080fd5b600067ffffffffffffffff82111562003160576200315f62002e9e565b5b6200316b8262002e8d565b9050602081019050919050565b82818337600083830152505050565b60006200319e620031988462003142565b62002f03565b905082815260208101848484011115620031bd57620031bc6200313d565b5b620031ca84828562003178565b509392505050565b600082601f830112620031ea57620031e962002e88565b5b8135620031fc84826020860162003187565b91505092915050565b60006200321c62003216846200310e565b62002f03565b9050808382526020820190506020840283018581111562003242576200324162002f51565b5b835b818110156200329057803567ffffffffffffffff8111156200326b576200326a62002e88565b5b8086016200327a8982620031d2565b8552602085019450505060208101905062003244565b5050509392505050565b600082601f830112620032b257620032b162002e88565b5b8135620032c484826020860162003205565b91505092915050565b600080600060608486031215620032e957620032e862002b8c565b5b600084013567ffffffffffffffff8111156200330a576200330962002b91565b5b620033188682870162003005565b935050602084013567ffffffffffffffff8111156200333c576200333b62002b91565b5b6200334a86828701620030db565b925050604084013567ffffffffffffffff8111156200336e576200336d62002b91565b5b6200337c868287016200329a565b9150509250925092565b6000602082840312156200339f576200339e62002b8c565b5b6000620033af8482850162002ccf565b91505092915050565b600080600060608486031215620033d457620033d362002b8c565b5b6000620033e48682870162002f7a565b935050602084013567ffffffffffffffff81111562003408576200340762002b91565b5b6200341686828701620030db565b925050604084013567ffffffffffffffff8111156200343a576200343962002b91565b5b62003448868287016200329a565b9150509250925092565b600080fd5b60008083601f84011262003470576200346f62002e88565b5b8235905067ffffffffffffffff81111562003490576200348f62003452565b5b602083019150836020820283011115620034af57620034ae62002f51565b5b9250929050565b60008083601f840112620034cf57620034ce62002e88565b5b8235905067ffffffffffffffff811115620034ef57620034ee62003452565b5b6020830191508360208202830111156200350e576200350d62002f51565b5b9250929050565b60008060008060006060868803121562003534576200353362002b8c565b5b6000620035448882890162002f7a565b955050602086013567ffffffffffffffff81111562003568576200356762002b91565b5b620035768882890162003457565b9450945050604086013567ffffffffffffffff8111156200359c576200359b62002b91565b5b620035aa88828901620034b6565b92509250509295509295909350565b6000620035c68262002c5f565b9050919050565b620035d881620035b9565b82525050565b6000602082019050620035f56000830184620035cd565b92915050565b600060608201905062003612600083018662002e18565b62003621602083018562002b54565b62003630604083018462002b54565b949350505050565b600081519050620036498162002cb5565b92915050565b60006020828403121562003668576200366762002b8c565b5b6000620036788482850162003638565b91505092915050565b600081519050620036928162002bca565b92915050565b6000620036af620036a98462003038565b62002f03565b90508083825260208201905060208402830185811115620036d557620036d462002f51565b5b835b81811015620037025780620036ed888262003681565b845260208401935050602081019050620036d7565b5050509392505050565b600082601f83011262003724576200372362002e88565b5b81516200373684826020860162003698565b91505092915050565b60006020828403121562003758576200375762002b8c565b5b600082015167ffffffffffffffff81111562003779576200377862002b91565b5b62003787848285016200370c565b91505092915050565b7f4e487b7100000000000000000000000000000000000000000000000000000000600052603260045260246000fd5b6000819050919050565b620037d481620037bf565b8114620037e057600080fd5b50565b600081519050620037f481620037c9565b92915050565b60006020828403121562003813576200381262002b8c565b5b60006200382384828501620037e3565b91505092915050565b7f4e487b7100000000000000000000000000000000000000000000000000000000600052601160045260246000fd5b60006200386882620037bf565b91506200387583620037bf565b925082820190508281121560008312168382126000841215161715620038a0576200389f6200382c565b5b92915050565b6000620038b38262002b4a565b91507fffffffffffffffffffffffffffffffffffffffffffffffffffffffffffffffff8203620038e857620038e76200382c565b5b600182019050919050565b6000620039008262002b4a565b91506200390d8362002b4a565b92508282026200391d8162002b4a565b915082820484148315176200393757620039366200382c565b5b5092915050565b7f4e487b7100000000000000000000000000000000000000000000000000000000600052601260045260246000fd5b60006200397a8262002b4a565b9150620039878362002b4a565b9250826200399a57620039996200393e565b5b828204905092915050565b600081519050919050565b600082825260208201905092915050565b6000819050602082019050919050565b620039dc8162002f56565b82525050565b6000620039f08383620039d1565b60208301905092915050565b6000602082019050919050565b600062003a1682620039a5565b62003a228185620039b0565b935062003a2f83620039c1565b8060005b8381101562003a6657815162003a4a8882620039e2565b975062003a5783620039fc565b92505060018101905062003a33565b5085935050505092915050565b600081519050919050565b600082825260208201905092915050565b6000819050602082019050919050565b62003aaa8162002bb6565b82525050565b600062003abe838362003a9f565b60208301905092915050565b6000602082019050919050565b600062003ae48262003a73565b62003af0818562003a7e565b935062003afd8362003a8f565b8060005b8381101562003b3457815162003b18888262003ab0565b975062003b258362003aca565b92505060018101905062003b01565b5085935050505092915050565b600081519050919050565b600082825260208201905092915050565b6000819050602082019050919050565b600081519050919050565b600082825260208201905092915050565b60005b8381101562003ba957808201518184015260208101905062003b8c565b60008484015250505050565b600062003bc28262003b6d565b62003bce818562003b78565b935062003be081856020860162003b89565b62003beb8162002e8d565b840191505092915050565b600062003c04838362003bb5565b905092915050565b6000602082019050919050565b600062003c268262003b41565b62003c32818562003b4c565b93508360208202850162003c468562003b5d565b8060005b8581101562003c88578484038952815162003c66858262003bf6565b945062003c738362003c0c565b925060208a0199505060018101905062003c4a565b50829750879550505050505092915050565b600060808201905062003cb1600083018762002e18565b818103602083015262003cc5818662003a09565b9050818103604083015262003cdb818562003ad7565b9050818103606083015262003cf1818462003c19565b905095945050505050565b6000806040838503121562003d165762003d1562002b8c565b5b600062003d2685828601620037e3565b925050602062003d3985828601620037e3565b9150509250929050565b600082825260208201905092915050565b7f616464206d617267696e206973206e6f7420616c6c6f77656420696e20636c6f60008201527f736520706f736974696f6e000000000000000000000000000000000000000000602082015250565b600062003db2602b8362003d43565b915062003dbf8262003d54565b604082019050919050565b6000602082019050818103600083015262003de58162003da3565b9050919050565b6000604082019050818103600083015262003e08818562003ad7565b9050818103602083015262003e1e818462003c19565b90509392505050565b600062003e3e62003e388462003142565b62002f03565b90508281526020810184848401111562003e5d5762003e5c6200313d565b5b62003e6a84828562003b89565b509392505050565b600082601f83011262003e8a5762003e8962002e88565b5b815162003e9c84826020860162003e27565b91505092915050565b60006020828403121562003ebe5762003ebd62002b8c565b5b600082015167ffffffffffffffff81111562003edf5762003ede62002b91565b5b62003eed8482850162003e72565b91505092915050565b62003f018162002f56565b82525050565b600060208201905062003f1e600083018462003ef6565b92915050565b62003f2f8162002db1565b811462003f3b57600080fd5b50565b60008151905062003f4f8162003f24565b92915050565b60006020828403121562003f6e5762003f6d62002b8c565b5b600062003f7e8482850162003f3e565b91505092915050565b7f506f736974696f6e20646f65736e277420657869737400000000000000000000600082015250565b600062003fbf60168362003d43565b915062003fcc8262003f87565b602082019050919050565b6000602082019050818103600083015262003ff28162003fb0565b9050919050565b600060808201905062004010600083018762002e18565b6200401f602083018662003ef6565b818103604083015262004033818562003ad7565b9050818103606083015262004049818462003c19565b905095945050505050565b7f496e76616c696420636c6f736520706f73000000000000000000000000000000600082015250565b60006200408c60118362003d43565b9150620040998262004054565b602082019050919050565b60006020820190508181036000830152620040bf816200407d565b9050919050565b600060a082019050620040dd600083018862002e18565b620040ec602083018762003ef6565b818103604083015262004100818662003ad7565b9050818103606083015262004116818562003c19565b905062004127608083018462002b54565b9695505050505050565b600080fd5b6000608082840312156200414f576200414e62004131565b5b6200415b608062002f03565b905060006200416d8482850162003681565b60008301525060206200418384828501620037e3565b60208301525060406200419984828501620037e3565b6040830152506060620041af8482850162003638565b60608301525092915050565b60006101008284031215620041d557620041d462004131565b5b620041e160a062002f03565b90506000620041f38482850162003681565b60008301525060206200420984828501620037e3565b60208301525060406200421f84828501620037e3565b6040830152506060620042358482850162004136565b60608301525060e06200424b8482850162003681565b60808301525092915050565b6000610100828403121562004271576200427062002b8c565b5b60006200428184828501620041bb565b91505092915050565b60008060408385031215620042a457620042a362002b8c565b5b6000620042b48582860162003681565b9250506020620042c78582860162003681565b9150509250929050565b7f4578697374696e6720706f736974696f6e000000000000000000000000000000600082015250565b60006200430960118362003d43565b91506200431682620042d1565b602082019050919050565b600060208201905081810360008301526200433c81620042fa565b9050919050565b6000819050919050565b60006200435e602084018462002be4565b905092915050565b6000602082019050919050565b600062004381838562003a7e565b93506200438e8262004343565b8060005b85811015620043cf57620043a782846200434d565b620043b3888262003ab0565b9750620043c08362004366565b92505060018101905062004392565b5085925050509392505050565b6000819050919050565b6000620043f4838562003b78565b93506200440383858462003178565b6200440e8362002e8d565b840190509392505050565b600062004428848484620043e6565b90509392505050565b600080fd5b600080fd5b600080fd5b6000808335600160200384360303811262004460576200445f6200443b565b5b83810192508235915060208301925067ffffffffffffffff8211156200448b576200448a62004431565b5b600182023603831315620044a457620044a362004436565b5b509250929050565b6000602082019050919050565b6000620044c7838562003b4c565b935083602084028501620044db84620043dc565b8060005b8781101562004529578484038952620044f9828462004440565b6200450686828462004419565b95506200451384620044ac565b935060208b019a505050600181019050620044df565b50829750879450505050509392505050565b600060a08201905062004552600083018a62002e18565b62004561602083018962003ef6565b81810360408301526200457681878962004373565b905081810360608301526200458d818587620044b9565b90506200459e608083018462002b54565b98975050505050505050565b600060208284031215620045c357620045c262002b8c565b5b6000620045d38482850162003681565b91505092915050565b620045e781620037bf565b82525050565b620045f88162002b4a565b82525050565b60808201600082015162004616600085018262003a9f565b5060208201516200462b6020850182620045dc565b506040820151620046406040850182620045dc565b506060820151620046556060850182620045ed565b50505050565b600060a08201905062004672600083018562003ef6565b620046816020830184620045fe565b9392505050565b6200469381620037bf565b82525050565b6000604082019050620046b0600083018562004688565b620046bf602083018462004688565b9392505050565b7f4d4d3a20496e76616c6964204f7065726174696f6e2e2043616e6e6f7420757360008201527f65206f70656e20706f736974696f6e20746f20726564756365206d617267696e60208201527f2066726f6d2061204d61726b65742e0000000000000000000000000000000000604082015250565b60006200474a604f8362003d43565b91506200475782620046c6565b606082019050919050565b600060208201905081810360008301526200477d816200473b565b9050919050565b60006040820190506200479b600083018562002e18565b620047aa602083018462004688565b9392505050565b600060ff82169050919050565b620047c981620047b1565b8114620047d557600080fd5b50565b600081519050620047e981620047be565b92915050565b60006020828403121562004808576200480762002b8c565b5b60006200481884828501620047d8565b91505092915050565b600060408201905062004838600083018562004688565b62004847602083018462002e18565b9392505050565b620048598162002db1565b82525050565b6200486a8162002b96565b82525050565b60e08201600082015162004888600085018262003a9f565b5060208201516200489d602085018262003a9f565b506040820151620048b26040850182620045ed565b506060820151620048c76060850182620045ed565b506080820151620048dc60808501826200484e565b5060a0820151620048f160a08501826200485f565b5060c08201516200490660c0850182620045ed565b50505050565b600060e08201905062004923600083018462004870565b92915050565b7f524d3a2042616420537761700000000000000000000000000000000000000000600082015250565b600062004961600c8362003d43565b91506200496e8262004929565b602082019050919050565b60006020820190508181036000830152620049948162004952565b9050919050565b60006040820190508181036000830152620049b881868862004373565b90508181036020830152620049cf818486620044b9565b905095945050505050565b7f4d4d3a20496e76616c6964206d617267696e206163636f756e74000000000000600082015250565b600062004a12601a8362003d43565b915062004a1f82620049da565b602082019050919050565b6000602082019050818103600083015262004a458162004a03565b9050919050565b600062004a598262002b4a565b915062004a668362002b4a565b925082820390508181111562004a815762004a806200382c565b5b92915050565b600060208201905062004a9e600083018462004688565b92915050565b7f53616665436173743a2076616c756520646f65736e27742066697420696e206160008201527f6e20696e74323536000000000000000000000000000000000000000000000000602082015250565b600062004b0260288362003d43565b915062004b0f8262004aa4565b604082019050919050565b6000602082019050818103600083015262004b358162004af3565b9050919050565b600062004b4982620047b1565b915062004b5683620047b1565b9250828203905060ff81111562004b725762004b716200382c565b5b92915050565b60008160011c9050919050565b6000808291508390505b600185111562004bd75780860481111562004baf5762004bae6200382c565b5b600185161562004bbf5780820291505b808102905062004bcf8562004b78565b945062004b8f565b94509492505050565b60008262004bf2576001905062004cc5565b8162004c02576000905062004cc5565b816001811462004c1b576002811462004c265762004c5c565b600191505062004cc5565b60ff84111562004c3b5762004c3a6200382c565b5b8360020a91508482111562004c555762004c546200382c565b5b5062004cc5565b5060208310610133831016604e8410600b841016171562004c965782820a90508381111562004c905762004c8f6200382c565b5b62004cc5565b62004ca5848484600162004b85565b9250905081840481111562004cbf5762004cbe6200382c565b5b81810290505b9392505050565b600062004cd98262002b4a565b915062004ce683620047b1565b925062004d157fffffffffffffffffffffffffffffffffffffffffffffffffffffffffffffffff848462004be0565b905092915050565b600062004d2a8262002b4a565b915062004d378362002b4a565b925082820190508082111562004d525762004d516200382c565b5b92915050565b600060408201905062004d6f600083018562002e18565b62004d7e602083018462002b54565b939250505056fe60806040523480156200001157600080fd5b50604051620032523803806200325283398181016040528101906200003791906200019e565b80600073ffffffffffffffffffffffffffffffffffffffff168173ffffffffffffffffffffffffffffffffffffffff1603620000aa576040517f08c379a0000000000000000000000000000000000000000000000000000000008152600401620000a19062000231565b60405180910390fd5b80600160006101000a81548173ffffffffffffffffffffffffffffffffffffffff021916908373ffffffffffffffffffffffffffffffffffffffff1602179055505033600460006101000a81548173ffffffffffffffffffffffffffffffffffffffff021916908373ffffffffffffffffffffffffffffffffffffffff1602179055505062000253565b600080fd5b600073ffffffffffffffffffffffffffffffffffffffff82169050919050565b6000620001668262000139565b9050919050565b620001788162000159565b81146200018457600080fd5b50565b60008151905062000198816200016d565b92915050565b600060208284031215620001b757620001b662000134565b5b6000620001c78482850162000187565b91505092915050565b600082825260208201905092915050565b7f4d413a42616420526f7574657220616464726573730000000000000000000000600082015250565b600062000219601583620001d0565b91506200022682620001e1565b602082019050919050565b600060208201905081810360008301526200024c816200020a565b9050919050565b612fef80620002636000396000f3fe608060405234801561001057600080fd5b50600436106101da5760003560e01c806359cbbf4911610104578063b1f1150c116100a2578063db386b8d11610071578063db386b8d14610558578063eda11ef014610588578063f887ea40146105b8578063fac5e981146105d6576101da565b8063b1f1150c146104d2578063c0cb2d25146104ee578063ca96a6a71461051e578063d93baf741461053c576101da565b806390b2f8f5116100de57806390b2f8f51461044a578063a64b6e5f1461047a578063abf410e514610496578063aeccd4b9146104b4576101da565b806359cbbf49146103e0578063643090bc146104105780637d1c484d1461042e576101da565b8063251b652c1161017c5780634c19386c1161014b5780634c19386c146103575780634c89b68d14610375578063514ea4bf1461039157806359781034146103c4576101da565b8063251b652c146102e3578063272c4a1114610301578063318a96a71461031d578063481cecaa14610339576101da565b80631928b3cb116101b85780631928b3cb146102355780631d9fd309146102655780631fb3b7ac14610295578063220b6dec146102b3576101da565b80630797ceec146101df5780630952886a146101fb57806317d11a1514610217575b600080fd5b6101f960048036038101906101f49190611997565b610606565b005b61021560048036038101906102109190611a6b565b610618565b005b61021f610760565b60405161022c9190611aba565b60405180910390f35b61024f600480360381019061024a9190611b0b565b610766565b60405161025c9190611b47565b60405180910390f35b61027f600480360381019061027a9190611cbb565b610786565b60405161028c9190611aba565b60405180910390f35b61029d6107ff565b6040516102aa9190611aba565b60405180910390f35b6102cd60048036038101906102c89190611e21565b610805565b6040516102da9190611aba565b60405180910390f35b6102eb610fb3565b6040516102f89190611b47565b60405180910390f35b61031b60048036038101906103169190611e4e565b610fb9565b005b61033760048036038101906103329190611f06565b61105c565b005b610341611125565b60405161034e9190611f55565b60405180910390f35b61035f61114b565b60405161036c9190611aba565b60405180910390f35b61038f600480360381019061038a9190611b0b565b611151565b005b6103ab60048036038101906103a69190611b0b565b6111d5565b6040516103bb9493929190611f70565b60405180910390f35b6103de60048036038101906103d99190611fb5565b611225565b005b6103fa60048036038101906103f591906121f9565b611257565b60405161040791906122f4565b60405180910390f35b610418611308565b6040516104259190611b47565b60405180910390f35b61044860048036038101906104439190612316565b61130e565b005b610464600480360381019061045f9190611cbb565b611312565b6040516104719190611b47565b60405180910390f35b610494600480360381019061048f9190611fb5565b611383565b005b61049e6113b3565b6040516104ab91906123b5565b60405180910390f35b6104bc6113d7565b6040516104c99190611aba565b60405180910390f35b6104ec60048036038101906104e791906123d0565b6113dd565b005b610508600480360381019061050391906123fd565b6113fb565b6040516105159190611b47565b60405180910390f35b610526611413565b6040516105339190611b47565b60405180910390f35b610556600480360381019061055191906123d0565b611419565b005b610572600480360381019061056d9190611b0b565b611423565b60405161057f9190611b47565b60405180910390f35b6105a2600480360381019061059d9190611b0b565b611443565b6040516105af9190612439565b60405180910390f35b6105c0611463565b6040516105cd9190612475565b60405180910390f35b6105f060048036038101906105eb9190612490565b611489565b6040516105fd91906122f4565b60405180910390f35b81600781905550806008819055505050565b600061066c82600a60008673ffffffffffffffffffffffffffffffffffffffff1673ffffffffffffffffffffffffffffffffffffffff168152602001908152602001600020546114c290919063ffffffff16565b136106ac576040517f08c379a00000000000000000000000000000000000000000000000000000000081526004016106a39061256f565b60405180910390fd5b6106c181600b546114c290919063ffffffff16565b600b8190555061071981600a60008573ffffffffffffffffffffffffffffffffffffffff1673ffffffffffffffffffffffffffffffffffffffff168152602001908152602001600020546114c290919063ffffffff16565b600a60008473ffffffffffffffffffffffffffffffffffffffff1673ffffffffffffffffffffffffffffffffffffffff168152602001908152602001600020819055505050565b60085481565b600060036000838152602001908152602001600020600201549050919050565b6000808251905060005b818110156107f8576107e36107d4600360008785815181106107b5576107b461258f565b5b60200260200101518152602001908152602001600020600101546114d8565b846114f490919063ffffffff16565b925080806107f0906125ed565b915050610790565b5050919050565b60055481565b60008073ffffffffffffffffffffffffffffffffffffffff16826000015173ffffffffffffffffffffffffffffffffffffffff1603610879576040517f08c379a000000000000000000000000000000000000000000000000000000000815260040161087090612681565b60405180910390fd5b600073ffffffffffffffffffffffffffffffffffffffff16826020015173ffffffffffffffffffffffffffffffffffffffff16036108ec576040517f08c379a00000000000000000000000000000000000000000000000000000000081526004016108e3906126ed565b60405180910390fd5b8160800151156109eb57600082604001511161093d576040517f08c379a000000000000000000000000000000000000000000000000000000000815260040161093490612759565b60405180910390fd5b816000015173ffffffffffffffffffffffffffffffffffffffff1663095ea7b3600160009054906101000a900473ffffffffffffffffffffffffffffffffffffffff1684604001516040518363ffffffff1660e01b81526004016109a2929190612779565b6020604051808303816000875af11580156109c1573d6000803e3d6000fd5b505050506040513d601f19601f820116820180604052508101906109e591906127b7565b50610adc565b6000826060015111610a32576040517f08c379a0000000000000000000000000000000000000000000000000000000008152600401610a2990612856565b60405180910390fd5b816000015173ffffffffffffffffffffffffffffffffffffffff1663095ea7b3600160009054906101000a900473ffffffffffffffffffffffffffffffffffffffff1684606001516040518363ffffffff1660e01b8152600401610a97929190612779565b6020604051808303816000875af1158015610ab6573d6000803e3d6000fd5b505050506040513d601f19601f82011682018060405250810190610ada91906127b7565b505b6000610ae661150a565b90506000610afc84600001518560200151611513565b90508015610db657836080015115610c63576000604051806101000160405280866000015173ffffffffffffffffffffffffffffffffffffffff168152602001866020015173ffffffffffffffffffffffffffffffffffffffff1681526020018462ffffff1681526020013073ffffffffffffffffffffffffffffffffffffffff168152602001428152602001866040015181526020018660c0015181526020018660a0015173ffffffffffffffffffffffffffffffffffffffff168152509050600160009054906101000a900473ffffffffffffffffffffffffffffffffffffffff1673ffffffffffffffffffffffffffffffffffffffff1663414bf389826040518263ffffffff1660e01b8152600401610c189190612963565b6020604051808303816000875af1158015610c37573d6000803e3d6000fd5b505050506040513d601f19601f82011682018060405250810190610c5b9190612994565b935050610db1565b6000604051806101000160405280866000015173ffffffffffffffffffffffffffffffffffffffff168152602001866020015173ffffffffffffffffffffffffffffffffffffffff1681526020018462ffffff1681526020013073ffffffffffffffffffffffffffffffffffffffff16815260200142815260200186606001518152602001600081526020018660a0015173ffffffffffffffffffffffffffffffffffffffff168152509050600160009054906101000a900473ffffffffffffffffffffffffffffffffffffffff1673ffffffffffffffffffffffffffffffffffffffff1663db3e2198826040518263ffffffff1660e01b8152600401610d6a9190612a63565b6020604051808303816000875af1158015610d89573d6000803e3d6000fd5b505050506040513d601f19601f82011682018060405250810190610dad9190612994565b9350505b610fac565b6000610dca8560000151866020015161151f565b9050846080015115610ec25760006040518060a001604052808381526020013373ffffffffffffffffffffffffffffffffffffffff1681526020014281526020018760400151815260200160008152509050600160009054906101000a900473ffffffffffffffffffffffffffffffffffffffff1673ffffffffffffffffffffffffffffffffffffffff1663c04b8d59826040518263ffffffff1660e01b8152600401610e779190612b3f565b6020604051808303816000875af1158015610e96573d6000803e3d6000fd5b505050506040513d601f19601f82011682018060405250810190610eba9190612994565b945050610faa565b60006040518060a001604052808381526020013373ffffffffffffffffffffffffffffffffffffffff1681526020014281526020018760600151815260200160008152509050600160009054906101000a900473ffffffffffffffffffffffffffffffffffffffff1673ffffffffffffffffffffffffffffffffffffffff1663f28c0498826040518263ffffffff1660e01b8152600401610f639190612bd7565b6020604051808303816000875af1158015610f82573d6000803e3d6000fd5b505050506040513d601f19601f82011682018060405250810190610fa69190612994565b9450505b505b5050919050565b600c5481565b8173ffffffffffffffffffffffffffffffffffffffff1663095ea7b3827fffffffffffffffffffffffffffffffffffffffffffffffffffffffffffffffff6040518363ffffffff1660e01b8152600401611014929190612779565b6020604051808303816000875af1158015611033573d6000803e3d6000fd5b505050506040513d601f19601f8201168201806040525081019061105791906127b7565b505050565b806003600084815260200190815260200160002060008201518160000160006101000a81548173ffffffffffffffffffffffffffffffffffffffff021916908373ffffffffffffffffffffffffffffffffffffffff16021790555060208201518160010155604082015181600201556060820151816003015590505060016002600084815260200190815260200160002060006101000a81548160ff02191690831515021790555080606001516009600082825461111a9190612bf9565b925050819055505050565b600460009054906101000a900473ffffffffffffffffffffffffffffffffffffffff1681565b60075481565b60006002600083815260200190815260200160002060006101000a81548160ff02191690831515021790555060036000828152602001908152602001600020600080820160006101000a81549073ffffffffffffffffffffffffffffffffffffffff0219169055600182016000905560028201600090556003820160009055505050565b60036020528060005260406000206000915090508060000160009054906101000a900473ffffffffffffffffffffffffffffffffffffffff16908060010154908060020154908060030154905084565b6112528330838573ffffffffffffffffffffffffffffffffffffffff16611527909392919063ffffffff16565b505050565b60606000611267858590506115b0565b905060005b8160ff168160ff1610156112ff576112ea848260ff16815181106112935761129261258f565b5b602002602001015187878460ff168181106112b1576112b061258f565b5b90506020020160208101906112c691906123fd565b73ffffffffffffffffffffffffffffffffffffffff1661160090919063ffffffff16565b925080806112f790612c4a565b91505061126c565b50509392505050565b60095481565b5050565b6000808251905060005b8181101561137c576113676003600086848151811061133e5761133d61258f565b5b6020026020010151815260200190815260200160002060010154846114c290919063ffffffff16565b92508080611374906125ed565b91505061131c565b5050919050565b6113ae82828573ffffffffffffffffffffffffffffffffffffffff1661164a9092919063ffffffff16565b505050565b60008054906101000a900473ffffffffffffffffffffffffffffffffffffffff1681565b60065481565b6113f2816009546114c290919063ffffffff16565b60098190555050565b600a6020528060005260406000206000915090505481565b600b5481565b80600c8190555050565b600060036000838152602001908152602001600020600101549050919050565b60026020528060005260406000206000915054906101000a900460ff1681565b600160009054906101000a900473ffffffffffffffffffffffffffffffffffffffff1681565b606060006114b6838573ffffffffffffffffffffffffffffffffffffffff1661160090919063ffffffff16565b90508091505092915050565b600081836114d09190612bf9565b905092915050565b6000808212156114eb57816000036114ed565b815b9050919050565b600081836115029190612c73565b905092915050565b60006064905090565b60006001905092915050565b606092915050565b6115aa846323b872dd60e01b85858560405160240161154893929190612ca7565b604051602081830303815290604052907bffffffffffffffffffffffffffffffffffffffffffffffffffffffff19166020820180517bffffffffffffffffffffffffffffffffffffffffffffffffffffffff83818316178352505050506116d0565b50505050565b600060ff80168211156115f8576040517f08c379a00000000000000000000000000000000000000000000000000000000081526004016115ef90612d50565b60405180910390fd5b819050919050565b606061164283836040518060400160405280601e81526020017f416464726573733a206c6f772d6c6576656c2063616c6c206661696c65640000815250611797565b905092915050565b6116cb8363a9059cbb60e01b8484604051602401611669929190612779565b604051602081830303815290604052907bffffffffffffffffffffffffffffffffffffffffffffffffffffffff19166020820180517bffffffffffffffffffffffffffffffffffffffffffffffffffffffff83818316178352505050506116d0565b505050565b6000611732826040518060400160405280602081526020017f5361666545524332303a206c6f772d6c6576656c2063616c6c206661696c65648152508573ffffffffffffffffffffffffffffffffffffffff166117979092919063ffffffff16565b9050600081511115611792578080602001905181019061175291906127b7565b611791576040517f08c379a000000000000000000000000000000000000000000000000000000000815260040161178890612de2565b60405180910390fd5b5b505050565b60606117a684846000856117af565b90509392505050565b6060824710156117f4576040517f08c379a00000000000000000000000000000000000000000000000000000000081526004016117eb90612e74565b60405180910390fd5b6117fd856118c3565b61183c576040517f08c379a000000000000000000000000000000000000000000000000000000000815260040161183390612ee0565b60405180910390fd5b6000808673ffffffffffffffffffffffffffffffffffffffff1685876040516118659190612f3c565b60006040518083038185875af1925050503d80600081146118a2576040519150601f19603f3d011682016040523d82523d6000602084013e6118a7565b606091505b50915091506118b78282866118e6565b92505050949350505050565b6000808273ffffffffffffffffffffffffffffffffffffffff163b119050919050565b606083156118f657829050611946565b6000835111156119095782518084602001fd5b816040517f08c379a000000000000000000000000000000000000000000000000000000000815260040161193d9190612f97565b60405180910390fd5b9392505050565b6000604051905090565b600080fd5b600080fd5b6000819050919050565b61197481611961565b811461197f57600080fd5b50565b6000813590506119918161196b565b92915050565b600080604083850312156119ae576119ad611957565b5b60006119bc85828601611982565b92505060206119cd85828601611982565b9150509250929050565b600073ffffffffffffffffffffffffffffffffffffffff82169050919050565b6000611a02826119d7565b9050919050565b611a12816119f7565b8114611a1d57600080fd5b50565b600081359050611a2f81611a09565b92915050565b6000819050919050565b611a4881611a35565b8114611a5357600080fd5b50565b600081359050611a6581611a3f565b92915050565b60008060408385031215611a8257611a81611957565b5b6000611a9085828601611a20565b9250506020611aa185828601611a56565b9150509250929050565b611ab481611961565b82525050565b6000602082019050611acf6000830184611aab565b92915050565b6000819050919050565b611ae881611ad5565b8114611af357600080fd5b50565b600081359050611b0581611adf565b92915050565b600060208284031215611b2157611b20611957565b5b6000611b2f84828501611af6565b91505092915050565b611b4181611a35565b82525050565b6000602082019050611b5c6000830184611b38565b92915050565b600080fd5b6000601f19601f8301169050919050565b7f4e487b7100000000000000000000000000000000000000000000000000000000600052604160045260246000fd5b611bb082611b67565b810181811067ffffffffffffffff82111715611bcf57611bce611b78565b5b80604052505050565b6000611be261194d565b9050611bee8282611ba7565b919050565b600067ffffffffffffffff821115611c0e57611c0d611b78565b5b602082029050602081019050919050565b600080fd5b6000611c37611c3284611bf3565b611bd8565b90508083825260208201905060208402830185811115611c5a57611c59611c1f565b5b835b81811015611c835780611c6f8882611af6565b845260208401935050602081019050611c5c565b5050509392505050565b600082601f830112611ca257611ca1611b62565b5b8135611cb2848260208601611c24565b91505092915050565b600060208284031215611cd157611cd0611957565b5b600082013567ffffffffffffffff811115611cef57611cee61195c565b5b611cfb84828501611c8d565b91505092915050565b600080fd5b60008115159050919050565b611d1e81611d09565b8114611d2957600080fd5b50565b600081359050611d3b81611d15565b92915050565b611d4a816119d7565b8114611d5557600080fd5b50565b600081359050611d6781611d41565b92915050565b600060e08284031215611d8357611d82611d04565b5b611d8d60e0611bd8565b90506000611d9d84828501611a20565b6000830152506020611db184828501611a20565b6020830152506040611dc584828501611982565b6040830152506060611dd984828501611982565b6060830152506080611ded84828501611d2c565b60808301525060a0611e0184828501611d58565b60a08301525060c0611e1584828501611982565b60c08301525092915050565b600060e08284031215611e3757611e36611957565b5b6000611e4584828501611d6d565b91505092915050565b60008060408385031215611e6557611e64611957565b5b6000611e7385828601611a20565b9250506020611e8485828601611a20565b9150509250929050565b600060808284031215611ea457611ea3611d04565b5b611eae6080611bd8565b90506000611ebe84828501611a20565b6000830152506020611ed284828501611a56565b6020830152506040611ee684828501611a56565b6040830152506060611efa84828501611982565b60608301525092915050565b60008060a08385031215611f1d57611f1c611957565b5b6000611f2b85828601611af6565b9250506020611f3c85828601611e8e565b9150509250929050565b611f4f816119f7565b82525050565b6000602082019050611f6a6000830184611f46565b92915050565b6000608082019050611f856000830187611f46565b611f926020830186611b38565b611f9f6040830185611b38565b611fac6060830184611aab565b95945050505050565b600080600060608486031215611fce57611fcd611957565b5b6000611fdc86828701611a20565b9350506020611fed86828701611a20565b9250506040611ffe86828701611982565b9150509250925092565b600080fd5b60008083601f84011261202357612022611b62565b5b8235905067ffffffffffffffff8111156120405761203f612008565b5b60208301915083602082028301111561205c5761205b611c1f565b5b9250929050565b600067ffffffffffffffff82111561207e5761207d611b78565b5b602082029050602081019050919050565b600080fd5b600067ffffffffffffffff8211156120af576120ae611b78565b5b6120b882611b67565b9050602081019050919050565b82818337600083830152505050565b60006120e76120e284612094565b611bd8565b9050828152602081018484840111156121035761210261208f565b5b61210e8482856120c5565b509392505050565b600082601f83011261212b5761212a611b62565b5b813561213b8482602086016120d4565b91505092915050565b600061215761215284612063565b611bd8565b9050808382526020820190506020840283018581111561217a57612179611c1f565b5b835b818110156121c157803567ffffffffffffffff81111561219f5761219e611b62565b5b8086016121ac8982612116565b8552602085019450505060208101905061217c565b5050509392505050565b600082601f8301126121e0576121df611b62565b5b81356121f0848260208601612144565b91505092915050565b60008060006040848603121561221257612211611957565b5b600084013567ffffffffffffffff8111156122305761222f61195c565b5b61223c8682870161200d565b9350935050602084013567ffffffffffffffff81111561225f5761225e61195c565b5b61226b868287016121cb565b9150509250925092565b600081519050919050565b600082825260208201905092915050565b60005b838110156122af578082015181840152602081019050612294565b60008484015250505050565b60006122c682612275565b6122d08185612280565b93506122e0818560208601612291565b6122e981611b67565b840191505092915050565b6000602082019050818103600083015261230e81846122bb565b905092915050565b6000806040838503121561232d5761232c611957565b5b600061233b85828601611af6565b925050602061234c85828601611a56565b9150509250929050565b6000819050919050565b600061237b612376612371846119d7565b612356565b6119d7565b9050919050565b600061238d82612360565b9050919050565b600061239f82612382565b9050919050565b6123af81612394565b82525050565b60006020820190506123ca60008301846123a6565b92915050565b6000602082840312156123e6576123e5611957565b5b60006123f484828501611a56565b91505092915050565b60006020828403121561241357612412611957565b5b600061242184828501611a20565b91505092915050565b61243381611d09565b82525050565b600060208201905061244e600083018461242a565b92915050565b600061245f82612382565b9050919050565b61246f81612454565b82525050565b600060208201905061248a6000830184612466565b92915050565b600080604083850312156124a7576124a6611957565b5b60006124b585828601611a20565b925050602083013567ffffffffffffffff8111156124d6576124d561195c565b5b6124e285828601612116565b9150509250929050565b600082825260208201905092915050565b7f4d413a2043616e6e6f742068617665206e65676174697665206d617267696e2060008201527f496e2070726f746f636f6c000000000000000000000000000000000000000000602082015250565b6000612559602b836124ec565b9150612564826124fd565b604082019050919050565b600060208201905081810360008301526125888161254c565b9050919050565b7f4e487b7100000000000000000000000000000000000000000000000000000000600052603260045260246000fd5b7f4e487b7100000000000000000000000000000000000000000000000000000000600052601160045260246000fd5b60006125f882611961565b91507fffffffffffffffffffffffffffffffffffffffffffffffffffffffffffffffff820361262a576126296125be565b5b600182019050919050565b7f4d413a20546f6b656e496e206572726f72000000000000000000000000000000600082015250565b600061266b6011836124ec565b915061267682612635565b602082019050919050565b6000602082019050818103600083015261269a8161265e565b9050919050565b7f4d413a20746f6b656e4f7574206572726f720000000000000000000000000000600082015250565b60006126d76012836124ec565b91506126e2826126a1565b602082019050919050565b60006020820190508181036000830152612706816126ca565b9050919050565b7f4d413a20496e76616c696420616d6f756e74496e000000000000000000000000600082015250565b60006127436014836124ec565b915061274e8261270d565b602082019050919050565b6000602082019050818103600083015261277281612736565b9050919050565b600060408201905061278e6000830185611f46565b61279b6020830184611aab565b9392505050565b6000815190506127b181611d15565b92915050565b6000602082840312156127cd576127cc611957565b5b60006127db848285016127a2565b91505092915050565b7f4d413a20496e76616c6964205f73776170506172616d732e616d6f756e744f7560008201527f7400000000000000000000000000000000000000000000000000000000000000602082015250565b60006128406021836124ec565b915061284b826127e4565b604082019050919050565b6000602082019050818103600083015261286f81612833565b9050919050565b61287f816119f7565b82525050565b600062ffffff82169050919050565b61289d81612885565b82525050565b6128ac81611961565b82525050565b6128bb816119d7565b82525050565b610100820160008201516128d86000850182612876565b5060208201516128eb6020850182612876565b5060408201516128fe6040850182612894565b5060608201516129116060850182612876565b50608082015161292460808501826128a3565b5060a082015161293760a08501826128a3565b5060c082015161294a60c08501826128a3565b5060e082015161295d60e08501826128b2565b50505050565b60006101008201905061297960008301846128c1565b92915050565b60008151905061298e8161196b565b92915050565b6000602082840312156129aa576129a9611957565b5b60006129b88482850161297f565b91505092915050565b610100820160008201516129d86000850182612876565b5060208201516129eb6020850182612876565b5060408201516129fe6040850182612894565b506060820151612a116060850182612876565b506080820151612a2460808501826128a3565b5060a0820151612a3760a08501826128a3565b5060c0820151612a4a60c08501826128a3565b5060e0820151612a5d60e08501826128b2565b50505050565b600061010082019050612a7960008301846129c1565b92915050565b600082825260208201905092915050565b6000612a9b82612275565b612aa58185612a7f565b9350612ab5818560208601612291565b612abe81611b67565b840191505092915050565b600060a0830160008301518482036000860152612ae68282612a90565b9150506020830151612afb6020860182612876565b506040830151612b0e60408601826128a3565b506060830151612b2160608601826128a3565b506080830151612b3460808601826128a3565b508091505092915050565b60006020820190508181036000830152612b598184612ac9565b905092915050565b600060a0830160008301518482036000860152612b7e8282612a90565b9150506020830151612b936020860182612876565b506040830151612ba660408601826128a3565b506060830151612bb960608601826128a3565b506080830151612bcc60808601826128a3565b508091505092915050565b60006020820190508181036000830152612bf18184612b61565b905092915050565b6000612c0482611a35565b9150612c0f83611a35565b925082820190508281121560008312168382126000841215161715612c3757612c366125be565b5b92915050565b600060ff82169050919050565b6000612c5582612c3d565b915060ff8203612c6857612c676125be565b5b600182019050919050565b6000612c7e82611961565b9150612c8983611961565b9250828201905080821115612ca157612ca06125be565b5b92915050565b6000606082019050612cbc6000830186611f46565b612cc96020830185611f46565b612cd66040830184611aab565b949350505050565b7f53616665436173743a2076616c756520646f65736e27742066697420696e203860008201527f2062697473000000000000000000000000000000000000000000000000000000602082015250565b6000612d3a6025836124ec565b9150612d4582612cde565b604082019050919050565b60006020820190508181036000830152612d6981612d2d565b9050919050565b7f5361666545524332303a204552433230206f7065726174696f6e20646964206e60008201527f6f74207375636365656400000000000000000000000000000000000000000000602082015250565b6000612dcc602a836124ec565b9150612dd782612d70565b604082019050919050565b60006020820190508181036000830152612dfb81612dbf565b9050919050565b7f416464726573733a20696e73756666696369656e742062616c616e636520666f60008201527f722063616c6c0000000000000000000000000000000000000000000000000000602082015250565b6000612e5e6026836124ec565b9150612e6982612e02565b604082019050919050565b60006020820190508181036000830152612e8d81612e51565b9050919050565b7f416464726573733a2063616c6c20746f206e6f6e2d636f6e7472616374000000600082015250565b6000612eca601d836124ec565b9150612ed582612e94565b602082019050919050565b60006020820190508181036000830152612ef981612ebd565b9050919050565b600081905092915050565b6000612f1682612275565b612f208185612f00565b9350612f30818560208601612291565b80840191505092915050565b6000612f488284612f0b565b915081905092915050565b600081519050919050565b6000612f6982612f53565b612f7381856124ec565b9350612f83818560208601612291565b612f8c81611b67565b840191505092915050565b60006020820190508181036000830152612fb18184612f5e565b90509291505056fea2646970667358221220b3ac999f2dce16e7999d05f2206ed2551bba89fc6db232b7ffc8eef109672ea564736f6c63430008110033a2646970667358221220bc6dcaad49ff90606e7fe3a8f123435e78b46889648ce5b208caa19b0830fafd64736f6c63430008110033",
    "linkReferences": {}
  },
  "methodIdentifiers": {
    "RemoveCollateral()": "734452c9",
    "SetCollatralRatio(address,uint256)": "aec6a8cd",
    "SetPenalty(uint256)": "c657328d",
    "SetRiskManager(address)": "37c8df85",
    "allowedUnderlyingTokens(address)": "90838c8c",
    "calcCreditAccountAccruedInterest(address)": "3192195c",
    "calcMarginAccountAccruedInterest(address)": "94b75797",
    "closeMarginAccount()": "fb787d01",
    "closePosition(bytes32,address[],bytes[])": "f0da5f79",
    "collatralRatio(address)": "7536cbf5",
    "contractRegistry()": "abf410e5",
    "decreaseDebt(address,uint256)": "2fb9ba31",
    "getInterestAccrued(address)": "870c421e",
    "liquidate(bytes32[],address[],bytes[])": "bc2ca844",
    "liquidationPenalty()": "23f5589a",
    "marginAccounts(address)": "9c498bc3",
    "marketManager()": "41ed2c12",
    "openMarginAccount()": "b9e41a21",
    "openPosition(bytes32,address[],bytes[])": "fb80a0f1",
    "priceOracle()": "2630c12f",
    "riskManager()": "47842663",
    "setVault(address)": "6817031b",
    "settleFee(address)": "4b11df11",
    "settleRealizedAccounting(address)": "24d2343a",
    "updatePosition(bytes32,address[],bytes[])": "f6ba5d16",
    "updateUnsettledRealizedPnL(address)": "7d649b71",
    "vault()": "fbfa77cf"
  },
  "id": 29
}