{
  "abi": [
    {
      "inputs": [
        {
          "internalType": "contract IContractRegistry",
          "name": "_contractRegistry",
          "type": "address"
        },
        {
          "internalType": "contract IMarketManager",
          "name": "_marketManager",
          "type": "address"
        },
        {
          "internalType": "contract IPriceOracle",
          "name": "_priceOracle",
          "type": "address"
        }
      ],
      "stateMutability": "nonpayable",
      "type": "constructor"
    },
    {
      "anonymous": false,
      "inputs": [
        {
          "indexed": true,
          "internalType": "address",
          "name": "",
          "type": "address"
        },
        {
          "indexed": true,
          "internalType": "address",
          "name": "",
          "type": "address"
        }
      ],
      "name": "MarginAccountClosed",
      "type": "event"
    },
    {
      "anonymous": false,
      "inputs": [
        {
          "indexed": true,
          "internalType": "address",
          "name": "",
          "type": "address"
        },
        {
          "indexed": true,
          "internalType": "address",
          "name": "",
          "type": "address"
        }
      ],
      "name": "MarginAccountLiquidated",
      "type": "event"
    },
    {
      "anonymous": false,
      "inputs": [
        {
          "indexed": true,
          "internalType": "address",
          "name": "",
          "type": "address"
        },
        {
          "indexed": true,
          "internalType": "address",
          "name": "",
          "type": "address"
        }
      ],
      "name": "MarginAccountOpened",
      "type": "event"
    },
    {
      "anonymous": false,
      "inputs": [
        {
          "indexed": true,
          "internalType": "address",
          "name": "",
          "type": "address"
        },
        {
          "indexed": true,
          "internalType": "address",
          "name": "",
          "type": "address"
        },
        {
          "indexed": true,
          "internalType": "address",
          "name": "",
          "type": "address"
        },
        {
          "indexed": false,
          "internalType": "int256",
          "name": "",
          "type": "int256"
        },
        {
          "indexed": false,
          "internalType": "int256",
          "name": "",
          "type": "int256"
        }
      ],
      "name": "MarginTransferred",
      "type": "event"
    },
    {
      "anonymous": false,
      "inputs": [
        {
          "indexed": true,
          "internalType": "address",
          "name": "",
          "type": "address"
        },
        {
          "indexed": true,
          "internalType": "address",
          "name": "",
          "type": "address"
        },
        {
          "indexed": true,
          "internalType": "address",
          "name": "",
          "type": "address"
        },
        {
          "indexed": false,
          "internalType": "int256",
          "name": "",
          "type": "int256"
        },
        {
          "indexed": false,
          "internalType": "int256",
          "name": "",
          "type": "int256"
        }
      ],
      "name": "PositionAdded",
      "type": "event"
    },
    {
      "anonymous": false,
      "inputs": [
        {
          "indexed": true,
          "internalType": "address",
          "name": "",
          "type": "address"
        },
        {
          "indexed": true,
          "internalType": "address",
          "name": "",
          "type": "address"
        },
        {
          "indexed": true,
          "internalType": "address",
          "name": "",
          "type": "address"
        },
        {
          "indexed": false,
          "internalType": "int256",
          "name": "",
          "type": "int256"
        },
        {
          "indexed": false,
          "internalType": "int256",
          "name": "",
          "type": "int256"
        }
      ],
      "name": "PositionRemoved",
      "type": "event"
    },
    {
      "anonymous": false,
      "inputs": [
        {
          "indexed": true,
          "internalType": "address",
          "name": "",
          "type": "address"
        },
        {
          "indexed": true,
          "internalType": "address",
          "name": "",
          "type": "address"
        },
        {
          "indexed": true,
          "internalType": "address",
          "name": "",
          "type": "address"
        },
        {
          "indexed": false,
          "internalType": "int256",
          "name": "",
          "type": "int256"
        },
        {
          "indexed": false,
          "internalType": "int256",
          "name": "",
          "type": "int256"
        }
      ],
      "name": "PositionUpdated",
      "type": "event"
    },
    {
      "inputs": [],
      "name": "RemoveCollateral",
      "outputs": [],
      "stateMutability": "nonpayable",
      "type": "function"
    },
    {
      "inputs": [
        {
          "internalType": "address",
          "name": "token",
          "type": "address"
        },
        {
          "internalType": "uint256",
          "name": "value",
          "type": "uint256"
        }
      ],
      "name": "SetCollatralRatio",
      "outputs": [],
      "stateMutability": "nonpayable",
      "type": "function"
    },
    {
      "inputs": [
        {
          "internalType": "uint256",
          "name": "value",
          "type": "uint256"
        }
      ],
      "name": "SetPenalty",
      "outputs": [],
      "stateMutability": "nonpayable",
      "type": "function"
    },
    {
      "inputs": [
        {
          "internalType": "address",
          "name": "_riskmgr",
          "type": "address"
        }
      ],
      "name": "SetRiskManager",
      "outputs": [],
      "stateMutability": "nonpayable",
      "type": "function"
    },
    {
      "inputs": [
        {
          "internalType": "address",
          "name": "",
          "type": "address"
        }
      ],
      "name": "allowedUnderlyingTokens",
      "outputs": [
        {
          "internalType": "bool",
          "name": "",
          "type": "bool"
        }
      ],
      "stateMutability": "view",
      "type": "function"
    },
    {
      "inputs": [
        {
          "internalType": "address",
          "name": "marginacc",
          "type": "address"
        }
      ],
      "name": "calcCreditAccountAccruedInterest",
      "outputs": [
        {
          "internalType": "uint256",
          "name": "",
          "type": "uint256"
        }
      ],
      "stateMutability": "view",
      "type": "function"
    },
    {
      "inputs": [
        {
          "internalType": "address",
          "name": "_marginAccount",
          "type": "address"
        }
      ],
      "name": "calcMarginAccountAccruedInterest",
      "outputs": [
        {
          "internalType": "uint256",
          "name": "borrowedAmount",
          "type": "uint256"
        },
        {
          "internalType": "uint256",
          "name": "borrowedAmountWithInterest",
          "type": "uint256"
        }
      ],
      "stateMutability": "view",
      "type": "function"
    },
    {
      "inputs": [],
      "name": "closeMarginAccount",
      "outputs": [],
      "stateMutability": "nonpayable",
      "type": "function"
    },
    {
      "inputs": [
        {
          "internalType": "bytes32",
          "name": "marketKey",
          "type": "bytes32"
        },
        {
          "internalType": "address[]",
          "name": "destinations",
          "type": "address[]"
        },
        {
          "internalType": "bytes[]",
          "name": "data",
          "type": "bytes[]"
        }
      ],
      "name": "closePosition",
      "outputs": [],
      "stateMutability": "nonpayable",
      "type": "function"
    },
    {
      "inputs": [
        {
          "internalType": "address",
          "name": "",
          "type": "address"
        }
      ],
      "name": "collatralRatio",
      "outputs": [
        {
          "internalType": "uint256",
          "name": "",
          "type": "uint256"
        }
      ],
      "stateMutability": "view",
      "type": "function"
    },
    {
      "inputs": [],
      "name": "contractRegistry",
      "outputs": [
        {
          "internalType": "contract IContractRegistry",
          "name": "",
          "type": "address"
        }
      ],
      "stateMutability": "view",
      "type": "function"
    },
    {
      "inputs": [
        {
          "internalType": "address",
          "name": "marginAcc",
          "type": "address"
        },
        {
          "internalType": "uint256",
          "name": "amount",
          "type": "uint256"
        }
      ],
      "name": "decreaseDebt",
      "outputs": [
        {
          "internalType": "uint256",
          "name": "newBorrowedAmount",
          "type": "uint256"
        }
      ],
      "stateMutability": "nonpayable",
      "type": "function"
    },
    {
      "inputs": [
        {
          "internalType": "address",
          "name": "marginAccount",
          "type": "address"
        }
      ],
      "name": "getInterestAccrued",
      "outputs": [
        {
          "internalType": "uint256",
          "name": "",
          "type": "uint256"
        }
      ],
      "stateMutability": "view",
      "type": "function"
    },
    {
      "inputs": [
        {
          "internalType": "bytes32[]",
          "name": "marketKeys",
          "type": "bytes32[]"
        },
        {
          "internalType": "address[]",
          "name": "destinations",
          "type": "address[]"
        },
        {
          "internalType": "bytes[]",
          "name": "data",
          "type": "bytes[]"
        }
      ],
      "name": "liquidate",
      "outputs": [],
      "stateMutability": "nonpayable",
      "type": "function"
    },
    {
      "inputs": [],
      "name": "liquidationPenalty",
      "outputs": [
        {
          "internalType": "uint256",
          "name": "",
          "type": "uint256"
        }
      ],
      "stateMutability": "view",
      "type": "function"
    },
    {
      "inputs": [
        {
          "internalType": "address",
          "name": "",
          "type": "address"
        }
      ],
      "name": "marginAccounts",
      "outputs": [
        {
          "internalType": "address",
          "name": "",
          "type": "address"
        }
      ],
      "stateMutability": "view",
      "type": "function"
    },
    {
      "inputs": [],
      "name": "marketManager",
      "outputs": [
        {
          "internalType": "contract IMarketManager",
          "name": "",
          "type": "address"
        }
      ],
      "stateMutability": "view",
      "type": "function"
    },
    {
      "inputs": [],
      "name": "openMarginAccount",
      "outputs": [
        {
          "internalType": "address",
          "name": "",
          "type": "address"
        }
      ],
      "stateMutability": "nonpayable",
      "type": "function"
    },
    {
      "inputs": [
        {
          "internalType": "bytes32",
          "name": "marketKey",
          "type": "bytes32"
        },
        {
          "internalType": "address[]",
          "name": "destinations",
          "type": "address[]"
        },
        {
          "internalType": "bytes[]",
          "name": "data",
          "type": "bytes[]"
        }
      ],
      "name": "openPosition",
      "outputs": [],
      "stateMutability": "nonpayable",
      "type": "function"
    },
    {
      "inputs": [],
      "name": "priceOracle",
      "outputs": [
        {
          "internalType": "contract IPriceOracle",
          "name": "",
          "type": "address"
        }
      ],
      "stateMutability": "view",
      "type": "function"
    },
    {
      "inputs": [],
      "name": "riskManager",
      "outputs": [
        {
          "internalType": "contract RiskManager",
          "name": "",
          "type": "address"
        }
      ],
      "stateMutability": "view",
      "type": "function"
    },
    {
      "inputs": [
        {
          "internalType": "address",
          "name": "_vault",
          "type": "address"
        }
      ],
      "name": "setVault",
      "outputs": [],
      "stateMutability": "nonpayable",
      "type": "function"
    },
    {
      "inputs": [
        {
          "internalType": "address",
          "name": "acc",
          "type": "address"
        }
      ],
      "name": "settleFee",
      "outputs": [],
      "stateMutability": "nonpayable",
      "type": "function"
    },
    {
      "inputs": [
        {
          "internalType": "address",
          "name": "trader",
          "type": "address"
        }
      ],
      "name": "settleRealizedAccounting",
      "outputs": [],
      "stateMutability": "nonpayable",
      "type": "function"
    },
    {
      "inputs": [
        {
          "internalType": "bytes32",
          "name": "marketKey",
          "type": "bytes32"
        },
        {
          "internalType": "address[]",
          "name": "destinations",
          "type": "address[]"
        },
        {
          "internalType": "bytes[]",
          "name": "data",
          "type": "bytes[]"
        }
      ],
      "name": "updatePosition",
      "outputs": [],
      "stateMutability": "nonpayable",
      "type": "function"
    },
    {
      "inputs": [
        {
          "internalType": "address",
          "name": "trader",
          "type": "address"
        }
      ],
      "name": "updateUnsettledRealizedPnL",
      "outputs": [],
      "stateMutability": "nonpayable",
      "type": "function"
    },
    {
      "inputs": [],
      "name": "vault",
      "outputs": [
        {
          "internalType": "contract Vault",
          "name": "",
          "type": "address"
        }
      ],
      "stateMutability": "view",
      "type": "function"
    }
  ],
  "bytecode": {
    "object": "0x60806040523480156200001157600080fd5b5060405162008f0138038062008f01833981810160405281019062000037919062000213565b600160008190555082600260006101000a81548173ffffffffffffffffffffffffffffffffffffffff021916908373ffffffffffffffffffffffffffffffffffffffff16021790555081600360006101000a81548173ffffffffffffffffffffffffffffffffffffffff021916908373ffffffffffffffffffffffffffffffffffffffff16021790555080600460006101000a81548173ffffffffffffffffffffffffffffffffffffffff021916908373ffffffffffffffffffffffffffffffffffffffff1602179055505050506200026f565b600080fd5b600073ffffffffffffffffffffffffffffffffffffffff82169050919050565b60006200013d8262000110565b9050919050565b6000620001518262000130565b9050919050565b620001638162000144565b81146200016f57600080fd5b50565b600081519050620001838162000158565b92915050565b6000620001968262000130565b9050919050565b620001a88162000189565b8114620001b457600080fd5b50565b600081519050620001c8816200019d565b92915050565b6000620001db8262000130565b9050919050565b620001ed81620001ce565b8114620001f957600080fd5b50565b6000815190506200020d81620001e2565b92915050565b6000806000606084860312156200022f576200022e6200010b565b5b60006200023f8682870162000172565b93505060206200025286828701620001b7565b92505060406200026586828701620001fc565b9150509250925092565b618c82806200027f6000396000f3fe60806040523480156200001157600080fd5b5060043610620001d25760003560e01c8063870c421e1162000111578063bc2ca84411620000a5578063f6ba5d16116200007b578063f6ba5d16146200054a578063fb787d01146200056a578063fb80a0f11462000576578063fbfa77cf146200059657620001d2565b8063bc2ca84414620004ea578063c657328d146200050a578063f0da5f79146200052a57620001d2565b80639c498bc311620000e75780639c498bc31462000450578063abf410e51462000486578063aec6a8cd14620004a8578063b9e41a2114620004c857620001d2565b8063870c421e14620003ad57806390838c8c14620003e357806394b75797146200041957620001d2565b806341ed2c1211620001895780636817031b116200015f5780636817031b146200032b578063734452c9146200034b5780637536cbf514620003575780637d649b71146200038d57620001d2565b806341ed2c1214620002c75780634784266314620002e95780634b11df11146200030b57620001d2565b806323f5589a14620001d757806324d2343a14620001f95780632630c12f14620002195780632fb9ba31146200023b5780633192195c146200027157806337c8df8514620002a7575b600080fd5b620001e1620005b8565b604051620001f0919062003694565b60405180910390f35b6200021760048036038101906200021191906200372a565b620005be565b005b6200022362000662565b604051620002329190620037c7565b60405180910390f35b62000259600480360381019062000253919062003815565b62000688565b60405162000268919062003694565b60405180910390f35b6200028f60048036038101906200028991906200372a565b620008a9565b6040516200029e919062003694565b60405180910390f35b620002c56004803603810190620002bf91906200372a565b620008b4565b005b620002d162000934565b604051620002e0919062003881565b60405180910390f35b620002f36200095a565b604051620003029190620038c3565b60405180910390f35b6200032960048036038101906200032391906200372a565b62000980565b005b6200034960048036038101906200034391906200372a565b62000af6565b005b6200035562000b76565b005b6200037560048036038101906200036f91906200372a565b62000b78565b60405162000384919062003694565b60405180910390f35b620003ab6004803603810190620003a591906200372a565b62000b90565b005b620003cb6004803603810190620003c591906200372a565b62000bae565b604051620003da919062003694565b60405180910390f35b620004016004803603810190620003fb91906200372a565b62000bc2565b604051620004109190620038fd565b60405180910390f35b6200043760048036038101906200043191906200372a565b62000be2565b604051620004479291906200391a565b60405180910390f35b6200046e60048036038101906200046891906200372a565b62000c23565b6040516200047d919062003958565b60405180910390f35b6200049062000c56565b6040516200049f91906200399a565b60405180910390f35b620004c66004803603810190620004c0919062003815565b62000c7c565b005b620004d262000cc4565b604051620004e1919062003958565b60405180910390f35b62000508600480360381019062000502919062003dfc565b62000e3a565b005b62000528600480360381019062000522919062003eb5565b62001113565b005b62000548600480360381019062000542919062003ee7565b6200111d565b005b62000568600480360381019062000562919062003ee7565b6200152c565b005b6200057462002267565b005b6200059460048036038101906200058e919062004044565b62002269565b005b620005a062002dc0565b604051620005af91906200410d565b60405180910390f35b60065481565b6000620005cb8262002de6565b9050600160009054906101000a900473ffffffffffffffffffffffffffffffffffffffff1673ffffffffffffffffffffffffffffffffffffffff166324d2343a826040518263ffffffff1660e01b81526004016200062a919062003958565b600060405180830381600087803b1580156200064557600080fd5b505af11580156200065a573d6000803e3d6000fd5b505050505050565b600460009054906101000a900473ffffffffffffffffffffffffffffffffffffffff1681565b60008083905060006200069b8562002f1f565b505090506000620006ac86620030be565b905060008203620006c45760009350505050620008a3565b620006d985836200311e90919063ffffffff16565b9350600080600190506000620006fb838386620031369092919063ffffffff16565b9050600560009054906101000a900473ffffffffffffffffffffffffffffffffffffffff1673ffffffffffffffffffffffffffffffffffffffff16638cd2e0c78a8a876040518463ffffffff1660e01b81526004016200075e939291906200412a565b600060405180830381600087803b1580156200077957600080fd5b505af11580156200078e573d6000803e3d6000fd5b505050506000600560009054906101000a900473ffffffffffffffffffffffffffffffffffffffff1673ffffffffffffffffffffffffffffffffffffffff16630fce70fb6040518163ffffffff1660e01b8152600401602060405180830381865afa15801562000802573d6000803e3d6000fd5b505050506040513d601f19601f820116820180604052508101906200082891906200417e565b90508673ffffffffffffffffffffffffffffffffffffffff16630797ceec89836040518363ffffffff1660e01b8152600401620008679291906200391a565b600060405180830381600087803b1580156200088257600080fd5b505af115801562000897573d6000803e3d6000fd5b50505050505050505050505b92915050565b600060019050919050565b80600073ffffffffffffffffffffffffffffffffffffffff168173ffffffffffffffffffffffffffffffffffffffff1603620008ef57600080fd5b81600160006101000a81548173ffffffffffffffffffffffffffffffffffffffff021916908373ffffffffffffffffffffffffffffffffffffffff1602179055505050565b600360009054906101000a900473ffffffffffffffffffffffffffffffffffffffff1681565b600160009054906101000a900473ffffffffffffffffffffffffffffffffffffffff1681565b600080600360009054906101000a900473ffffffffffffffffffffffffffffffffffffffff1673ffffffffffffffffffffffffffffffffffffffff1663ed2ed5446040518163ffffffff1660e01b81526004016000604051808303816000875af1158015620009f3573d6000803e3d6000fd5b505050506040513d6000823e3d601f19601f8201168201806040525081019062000a1e91906200426e565b905060005b815181101562000af05781818151811062000a435762000a42620042bf565b5b602002602001015173ffffffffffffffffffffffffffffffffffffffff166350989a57856040518263ffffffff1660e01b815260040162000a85919062003958565b6020604051808303816000875af115801562000aa5573d6000803e3d6000fd5b505050506040513d601f19601f8201168201806040525081019062000acb919062004329565b8362000ad891906200438a565b9250808062000ae790620043d5565b91505062000a23565b50505050565b80600073ffffffffffffffffffffffffffffffffffffffff168173ffffffffffffffffffffffffffffffffffffffff160362000b3157600080fd5b81600560006101000a81548173ffffffffffffffffffffffffffffffffffffffff021916908373ffffffffffffffffffffffffffffffffffffffff1602179055505050565b565b60096020528060005260406000206000915090505481565b600062000b9d8262002de6565b905062000baa8162003217565b5050565b600062000bbb82620030be565b9050919050565b60086020528060005260406000206000915054906101000a900460ff1681565b600080600080600062000bf58662002f1f565b92509250925082945081818662000c0d919062004422565b62000c1991906200449c565b9350505050915091565b60076020528060005260406000206000915054906101000a900473ffffffffffffffffffffffffffffffffffffffff1681565b600260009054906101000a900473ffffffffffffffffffffffffffffffffffffffff1681565b80600960008473ffffffffffffffffffffffffffffffffffffffff1673ffffffffffffffffffffffffffffffffffffffff168152602001908152602001600020819055505050565b60008073ffffffffffffffffffffffffffffffffffffffff16600760003373ffffffffffffffffffffffffffffffffffffffff1673ffffffffffffffffffffffffffffffffffffffff16815260200190815260200160002060009054906101000a900473ffffffffffffffffffffffffffffffffffffffff1673ffffffffffffffffffffffffffffffffffffffff161462000d5e57600080fd5b600073e592427a0aece92de3edee1f18e0157c05861564905060008160405162000d88906200362d565b62000d94919062003958565b604051809103906000f08015801562000db1573d6000803e3d6000fd5b50905080600760003373ffffffffffffffffffffffffffffffffffffffff1673ffffffffffffffffffffffffffffffffffffffff16815260200190815260200160002060006101000a81548173ffffffffffffffffffffffffffffffffffffffff021916908373ffffffffffffffffffffffffffffffffffffffff160217905550809250505090565b6000600760003373ffffffffffffffffffffffffffffffffffffffff1673ffffffffffffffffffffffffffffffffffffffff16815260200190815260200160002060009054906101000a900473ffffffffffffffffffffffffffffffffffffffff16905062000ea98162000980565b600080600160009054906101000a900473ffffffffffffffffffffffffffffffffffffffff1673ffffffffffffffffffffffffffffffffffffffff16637e748f8c848888886040518563ffffffff1660e01b815260040162000f0f9493929190620047c9565b60408051808303816000875af115801562000f2e573d6000803e3d6000fd5b505050506040513d601f19601f8201168201806040525081019062000f5491906200482b565b80925081935050506000821315801562000f6e5750600081125b62000fb0576040517f08c379a000000000000000000000000000000000000000000000000000000000815260040162000fa790620048f9565b60405180910390fd5b8273ffffffffffffffffffffffffffffffffffffffff166359cbbf4986866040518363ffffffff1660e01b815260040162000fed9291906200491b565b6000604051808303816000875af11580156200100d573d6000803e3d6000fd5b505050506040513d6000823e3d601f19601f82011682018060405250810190620010389190620049d4565b5060008212156200105b576200105983620010538462003331565b62000688565b505b60005b86518110156200110a578373ffffffffffffffffffffffffffffffffffffffff16634c89b68d8883815181106200109a5762001099620042bf565b5b60200260200101516040518263ffffffff1660e01b8152600401620010c0919062004a36565b600060405180830381600087803b158015620010db57600080fd5b505af1158015620010f0573d6000803e3d6000fd5b5050505080806200110190620043d5565b9150506200105e565b50505050505050565b8060068190555050565b6000600760003373ffffffffffffffffffffffffffffffffffffffff1673ffffffffffffffffffffffffffffffffffffffff16815260200190815260200160002060009054906101000a900473ffffffffffffffffffffffffffffffffffffffff1690506200118c8162000980565b8073ffffffffffffffffffffffffffffffffffffffff1663eda11ef0856040518263ffffffff1660e01b8152600401620011c7919062004a36565b602060405180830381865afa158015620011e5573d6000803e3d6000fd5b505050506040513d601f19601f820116820180604052508101906200120b919062004a84565b6200124d576040517f08c379a0000000000000000000000000000000000000000000000000000000008152600401620012449062004b06565b60405180910390fd5b600080600160009054906101000a900473ffffffffffffffffffffffffffffffffffffffff1673ffffffffffffffffffffffffffffffffffffffff1663e650e5df848888886040518563ffffffff1660e01b8152600401620012b3949392919062004b28565b60408051808303816000875af1158015620012d2573d6000803e3d6000fd5b505050506040513d601f19601f82011682018060405250810190620012f891906200482b565b80925081935050508273ffffffffffffffffffffffffffffffffffffffff1663db386b8d876040518263ffffffff1660e01b81526004016200133b919062004a36565b602060405180830381865afa15801562001359573d6000803e3d6000fd5b505050506040513d601f19601f820116820180604052508101906200137f919062004329565b8114620013c3576040517f08c379a0000000000000000000000000000000000000000000000000000000008152600401620013ba9062004bd3565b60405180910390fd5b60008213156200140a576040517f08c379a00000000000000000000000000000000000000000000000000000000081526004016200140190620048f9565b60405180910390fd5b60008212156200142c576200142a83620014248462003331565b62000688565b505b8273ffffffffffffffffffffffffffffffffffffffff166359cbbf4986866040518363ffffffff1660e01b8152600401620014699291906200491b565b6000604051808303816000875af115801562001489573d6000803e3d6000fd5b505050506040513d6000823e3d601f19601f82011682018060405250810190620014b49190620049d4565b508273ffffffffffffffffffffffffffffffffffffffff16634c89b68d876040518263ffffffff1660e01b8152600401620014f0919062004a36565b600060405180830381600087803b1580156200150b57600080fd5b505af115801562001520573d6000803e3d6000fd5b50505050505050505050565b6000620015393362002de6565b90508073ffffffffffffffffffffffffffffffffffffffff1663eda11ef0856040518263ffffffff1660e01b815260040162001576919062004a36565b602060405180830381865afa15801562001594573d6000803e3d6000fd5b505050506040513d601f19601f82011682018060405250810190620015ba919062004a84565b620015fc576040517f08c379a0000000000000000000000000000000000000000000000000000000008152600401620015f39062004b06565b60405180910390fd5b620016078162003217565b6000600560009054906101000a900473ffffffffffffffffffffffffffffffffffffffff1673ffffffffffffffffffffffffffffffffffffffff166338d52e0f6040518163ffffffff1660e01b8152600401602060405180830381865afa15801562001677573d6000803e3d6000fd5b505050506040513d601f19601f820116820180604052508101906200169d919062004bf5565b90506000600160009054906101000a900473ffffffffffffffffffffffffffffffffffffffff1673ffffffffffffffffffffffffffffffffffffffff16634f82d61884888888620016ee89620030be565b6040518663ffffffff1660e01b81526004016200171095949392919062004c27565b610100604051808303816000875af115801562001731573d6000803e3d6000fd5b505050506040513d601f19601f8201168201806040525081019062001757919062004db8565b9050600080600360009054906101000a900473ffffffffffffffffffffffffffffffffffffffff1673ffffffffffffffffffffffffffffffffffffffff1663382dfc3d896040518263ffffffff1660e01b8152600401620017b9919062004a36565b6040805180830381865afa158015620017d6573d6000803e3d6000fd5b505050506040513d601f19601f82011682018060405250810190620017fc919062004deb565b809350819250505060006200181984606001516040015162003331565b111562001b44576200182a6200363b565b836060015160000151816000019073ffffffffffffffffffffffffffffffffffffffff16908173ffffffffffffffffffffffffffffffffffffffff16815250508360600151604001518673ffffffffffffffffffffffffffffffffffffffff16631928b3cb8b6040518263ffffffff1660e01b8152600401620018ae919062004a36565b602060405180830381865afa158015620018cc573d6000803e3d6000fd5b505050506040513d601f19601f82011682018060405250810190620018f2919062004329565b620018fe91906200438a565b8160400181815250508360600151602001518673ffffffffffffffffffffffffffffffffffffffff1663db386b8d8b6040518263ffffffff1660e01b81526004016200194b919062004a36565b602060405180830381865afa15801562001969573d6000803e3d6000fd5b505050506040513d601f19601f820116820180604052508101906200198f919062004329565b6200199b91906200438a565b8160200181815250508360600151606001518673ffffffffffffffffffffffffffffffffffffffff1663ba3f279f8b6040518263ffffffff1660e01b8152600401620019e8919062004a36565b602060405180830381865afa15801562001a06573d6000803e3d6000fd5b505050506040513d601f19601f8201168201806040525081019062001a2c91906200417e565b62001a38919062004e32565b8160600181815250508573ffffffffffffffffffffffffffffffffffffffff1663019ce0028a836040518363ffffffff1660e01b815260040162001a7e92919062004eec565b600060405180830381600087803b15801562001a9957600080fd5b505af115801562001aae573d6000803e3d6000fd5b50505050836080015173ffffffffffffffffffffffffffffffffffffffff16846000015173ffffffffffffffffffffffffffffffffffffffff168773ffffffffffffffffffffffffffffffffffffffff167f103683e8e3949ba257618e408d17a6f50f8c74ace38a8c99ae60f53c31d228708460400151856020015160405162001b3a92919062004f2a565b60405180910390a4505b600062001b55846040015162003331565b11156200225d578473ffffffffffffffffffffffffffffffffffffffff16630952886a846000015185604001516040518363ffffffff1660e01b815260040162001ba192919062004f57565b600060405180830381600087803b15801562001bbc57600080fd5b505af115801562001bd1573d6000803e3d6000fd5b50505050826080015173ffffffffffffffffffffffffffffffffffffffff16836000015173ffffffffffffffffffffffffffffffffffffffff168673ffffffffffffffffffffffffffffffffffffffff167f48e9eae93900d26ec70afc86dfc8919856a7b28c0ff25b326fbdd8a04aa87b0f8660200151876040015160405162001c5d92919062004f2a565b60405180910390a46000836080015173ffffffffffffffffffffffffffffffffffffffff166370a08231876040518263ffffffff1660e01b815260040162001ca6919062003958565b602060405180830381865afa15801562001cc4573d6000803e3d6000fd5b505050506040513d601f19601f8201168201806040525081019062001cea91906200417e565b905060008573ffffffffffffffffffffffffffffffffffffffff166370a08231886040518263ffffffff1660e01b815260040162001d29919062003958565b602060405180830381865afa15801562001d47573d6000803e3d6000fd5b505050506040513d601f19601f8201168201806040525081019062001d6d91906200417e565b905062001d7e856020015162003331565b8210156200225a57600062001dab8362001d9c886020015162003331565b6200311e90919063ffffffff16565b9050600062001f66876080015173ffffffffffffffffffffffffffffffffffffffff1663313ce5676040518163ffffffff1660e01b8152600401602060405180830381865afa15801562001e03573d6000803e3d6000fd5b505050506040513d601f19601f8201168201806040525081019062001e29919062004fc2565b8973ffffffffffffffffffffffffffffffffffffffff1663313ce5676040518163ffffffff1660e01b8152600401602060405180830381865afa15801562001e75573d6000803e3d6000fd5b505050506040513d601f19601f8201168201806040525081019062001e9b919062004fc2565b62001f56600460009054906101000a900473ffffffffffffffffffffffffffffffffffffffff1673ffffffffffffffffffffffffffffffffffffffff166308ba908462001ee8886200334f565b8d608001516040518363ffffffff1660e01b815260040162001f0c92919062004ff4565b602060405180830381865afa15801562001f2a573d6000803e3d6000fd5b505050506040513d601f19601f8201168201806040525081019062001f50919062004329565b62003331565b620033bf9092919063ffffffff16565b90508281111562002031576200202f89620020296200200560008c73ffffffffffffffffffffffffffffffffffffffff1663313ce5676040518163ffffffff1660e01b8152600401602060405180830381865afa15801562001fcc573d6000803e3d6000fd5b505050506040513d601f19601f8201168201806040525081019062001ff2919062004fc2565b6103e8620033bf9092919063ffffffff16565b6200201a87866200311e90919063ffffffff16565b6200345790919063ffffffff16565b6200346f565b505b866080015173ffffffffffffffffffffffffffffffffffffffff168873ffffffffffffffffffffffffffffffffffffffff1614620022575760006040518060e001604052808a73ffffffffffffffffffffffffffffffffffffffff168152602001896080015173ffffffffffffffffffffffffffffffffffffffff168152602001620021516200214160008d73ffffffffffffffffffffffffffffffffffffffff1663313ce5676040518163ffffffff1660e01b8152600401602060405180830381865afa15801562002108573d6000803e3d6000fd5b505050506040513d601f19601f820116820180604052508101906200212e919062004fc2565b6103e8620033bf9092919063ffffffff16565b856200345790919063ffffffff16565b815260200160008152602001600115158152602001600073ffffffffffffffffffffffffffffffffffffffff16815260200184815250905060008a73ffffffffffffffffffffffffffffffffffffffff1663220b6dec836040518263ffffffff1660e01b8152600401620021c69190620050df565b6020604051808303816000875af1158015620021e6573d6000803e3d6000fd5b505050506040513d601f19601f820116820180604052508101906200220c91906200417e565b90508381101562002254576040517f08c379a00000000000000000000000000000000000000000000000000000000081526004016200224b906200514c565b60405180910390fd5b50505b50505b50505b5050505050505050565b565b6000620022763362002de6565b90508073ffffffffffffffffffffffffffffffffffffffff1663eda11ef0876040518263ffffffff1660e01b8152600401620022b3919062004a36565b602060405180830381865afa158015620022d1573d6000803e3d6000fd5b505050506040513d601f19601f82011682018060405250810190620022f7919062004a84565b156200233a576040517f08c379a00000000000000000000000000000000000000000000000000000000081526004016200233190620051be565b60405180910390fd5b620023458162003217565b6000600160009054906101000a900473ffffffffffffffffffffffffffffffffffffffff1673ffffffffffffffffffffffffffffffffffffffff16634f82d618838989898989620023968a620030be565b6040518863ffffffff1660e01b8152600401620023ba9796959493929190620053d8565b610100604051808303816000875af1158015620023db573d6000803e3d6000fd5b505050506040513d601f19601f8201168201806040525081019062002401919062004db8565b90506000600560009054906101000a900473ffffffffffffffffffffffffffffffffffffffff1673ffffffffffffffffffffffffffffffffffffffff166338d52e0f6040518163ffffffff1660e01b8152600401602060405180830381865afa15801562002473573d6000803e3d6000fd5b505050506040513d601f19601f8201168201806040525081019062002499919062004bf5565b90506000620024b083606001516040015162003331565b1115620025c5578273ffffffffffffffffffffffffffffffffffffffff1663318a96a78984606001516040518363ffffffff1660e01b8152600401620024f892919062004eec565b600060405180830381600087803b1580156200251357600080fd5b505af115801562002528573d6000803e3d6000fd5b50505050816080015173ffffffffffffffffffffffffffffffffffffffff16826000015173ffffffffffffffffffffffffffffffffffffffff168473ffffffffffffffffffffffffffffffffffffffff167fd33d152596235f4fb4d1bb20ba163cec1503b843bfeace18a0a218e25cbbe65c856060015160400151866060015160200151604051620025bc92919062004f2a565b60405180910390a45b60008260400151121562002610576040517f08c379a00000000000000000000000000000000000000000000000000000000081526004016200260790620054e3565b60405180910390fd5b600062002621836040015162003331565b111562002d29578273ffffffffffffffffffffffffffffffffffffffff16630952886a836000015184604001516040518363ffffffff1660e01b81526004016200266d92919062004f57565b600060405180830381600087803b1580156200268857600080fd5b505af11580156200269d573d6000803e3d6000fd5b50505050816080015173ffffffffffffffffffffffffffffffffffffffff16826000015173ffffffffffffffffffffffffffffffffffffffff168473ffffffffffffffffffffffffffffffffffffffff167f48e9eae93900d26ec70afc86dfc8919856a7b28c0ff25b326fbdd8a04aa87b0f856020015186604001516040516200272992919062004f2a565b60405180910390a46000826080015173ffffffffffffffffffffffffffffffffffffffff166370a08231856040518263ffffffff1660e01b815260040162002772919062003958565b602060405180830381865afa15801562002790573d6000803e3d6000fd5b505050506040513d601f19601f82011682018060405250810190620027b691906200417e565b905060008273ffffffffffffffffffffffffffffffffffffffff166370a08231866040518263ffffffff1660e01b8152600401620027f5919062003958565b602060405180830381865afa15801562002813573d6000803e3d6000fd5b505050506040513d601f19601f820116820180604052508101906200283991906200417e565b90506200284a846020015162003331565b82101562002d26576000620028778362002868876020015162003331565b6200311e90919063ffffffff16565b9050600062002a32866080015173ffffffffffffffffffffffffffffffffffffffff1663313ce5676040518163ffffffff1660e01b8152600401602060405180830381865afa158015620028cf573d6000803e3d6000fd5b505050506040513d601f19601f82011682018060405250810190620028f5919062004fc2565b8673ffffffffffffffffffffffffffffffffffffffff1663313ce5676040518163ffffffff1660e01b8152600401602060405180830381865afa15801562002941573d6000803e3d6000fd5b505050506040513d601f19601f8201168201806040525081019062002967919062004fc2565b62002a22600460009054906101000a900473ffffffffffffffffffffffffffffffffffffffff1673ffffffffffffffffffffffffffffffffffffffff166308ba9084620029b4886200334f565b8c608001516040518363ffffffff1660e01b8152600401620029d892919062004ff4565b602060405180830381865afa158015620029f6573d6000803e3d6000fd5b505050506040513d601f19601f8201168201806040525081019062002a1c919062004329565b62003331565b620033bf9092919063ffffffff16565b90508281111562002afd5762002afb8762002af562002ad160008973ffffffffffffffffffffffffffffffffffffffff1663313ce5676040518163ffffffff1660e01b8152600401602060405180830381865afa15801562002a98573d6000803e3d6000fd5b505050506040513d601f19601f8201168201806040525081019062002abe919062004fc2565b6103e8620033bf9092919063ffffffff16565b62002ae687866200311e90919063ffffffff16565b6200345790919063ffffffff16565b6200346f565b505b856080015173ffffffffffffffffffffffffffffffffffffffff168573ffffffffffffffffffffffffffffffffffffffff161462002d235760006040518060e001604052808773ffffffffffffffffffffffffffffffffffffffff168152602001886080015173ffffffffffffffffffffffffffffffffffffffff16815260200162002c1d62002c0d60008a73ffffffffffffffffffffffffffffffffffffffff1663313ce5676040518163ffffffff1660e01b8152600401602060405180830381865afa15801562002bd4573d6000803e3d6000fd5b505050506040513d601f19601f8201168201806040525081019062002bfa919062004fc2565b6103e8620033bf9092919063ffffffff16565b856200345790919063ffffffff16565b815260200160008152602001600115158152602001600073ffffffffffffffffffffffffffffffffffffffff16815260200184815250905060008873ffffffffffffffffffffffffffffffffffffffff1663220b6dec836040518263ffffffff1660e01b815260040162002c929190620050df565b6020604051808303816000875af115801562002cb2573d6000803e3d6000fd5b505050506040513d601f19601f8201168201806040525081019062002cd891906200417e565b90508381101562002d20576040517f08c379a000000000000000000000000000000000000000000000000000000000815260040162002d17906200514c565b60405180910390fd5b50505b50505b50505b8273ffffffffffffffffffffffffffffffffffffffff166359cbbf49888888886040518563ffffffff1660e01b815260040162002d6a949392919062005505565b6000604051808303816000875af115801562002d8a573d6000803e3d6000fd5b505050506040513d6000823e3d601f19601f8201168201806040525081019062002db59190620049d4565b505050505050505050565b600560009054906101000a900473ffffffffffffffffffffffffffffffffffffffff1681565b60008073ffffffffffffffffffffffffffffffffffffffff16600760008473ffffffffffffffffffffffffffffffffffffffff1673ffffffffffffffffffffffffffffffffffffffff16815260200190815260200160002060009054906101000a900473ffffffffffffffffffffffffffffffffffffffff1673ffffffffffffffffffffffffffffffffffffffff160362002eb8576040517f08c379a000000000000000000000000000000000000000000000000000000000815260040162002eaf9062005594565b60405180910390fd5b600760008373ffffffffffffffffffffffffffffffffffffffff1673ffffffffffffffffffffffffffffffffffffffff16815260200190815260200160002060009054906101000a900473ffffffffffffffffffffffffffffffffffffffff169050919050565b60008060008373ffffffffffffffffffffffffffffffffffffffff16634c19386c6040518163ffffffff1660e01b8152600401602060405180830381865afa15801562002f70573d6000803e3d6000fd5b505050506040513d601f19601f8201168201806040525081019062002f9691906200417e565b92508373ffffffffffffffffffffffffffffffffffffffff166317d11a156040518163ffffffff1660e01b8152600401602060405180830381865afa15801562002fe4573d6000803e3d6000fd5b505050506040513d601f19601f820116820180604052508101906200300a91906200417e565b9150600560009054906101000a900473ffffffffffffffffffffffffffffffffffffffff1673ffffffffffffffffffffffffffffffffffffffff16630fce70fb6040518163ffffffff1660e01b8152600401602060405180830381865afa1580156200307a573d6000803e3d6000fd5b505050506040513d601f19601f82011682018060405250810190620030a091906200417e565b905060008211620030b3576001620030b5565b815b91509193909250565b600080600080620030cf8562002f1f565b92509250925060008303620030eb576000935050505062003119565b82828285620030fb919062004422565b6200310791906200449c565b620031139190620055b6565b93505050505b919050565b600081836200312e9190620055b6565b905092915050565b600080600080198587098587029250828110838203039150506000810362003176578382816200316b576200316a6200446d565b5b049250505062003210565b8084116200318357600080fd5b60008486880990508281118203915080830392506000600186190186169050808604955080840493506001818260000304019050808302841793506000600287600302189050808702600203810290508087026002038102905080870260020381029050808702600203810290508087026002038102905080870260020381029050808502955050505050505b9392505050565b6000600160009054906101000a900473ffffffffffffffffffffffffffffffffffffffff1673ffffffffffffffffffffffffffffffffffffffff1663e91fad7f836040518263ffffffff1660e01b815260040162003276919062003958565b6020604051808303816000875af115801562003296573d6000803e3d6000fd5b505050506040513d601f19601f82011682018060405250810190620032bc919062004329565b90508173ffffffffffffffffffffffffffffffffffffffff1663d93baf74826040518263ffffffff1660e01b8152600401620032f99190620055f1565b600060405180830381600087803b1580156200331457600080fd5b505af115801562003329573d6000803e3d6000fd5b505050505050565b60008082121562003346578160000362003348565b815b9050919050565b60007f7fffffffffffffffffffffffffffffffffffffffffffffffffffffffffffffff821115620033b7576040517f08c379a0000000000000000000000000000000000000000000000000000000008152600401620033ae9062005684565b60405180910390fd5b819050919050565b60008160ff168360ff1603620033d85783905062003450565b8160ff168360ff16116200341c57620034168383620033f89190620056a6565b600a62003406919062005836565b85620035fd90919063ffffffff16565b6200344d565b6200344c82846200342e9190620056a6565b600a6200343c919062005836565b856200361590919063ffffffff16565b5b90505b9392505050565b6000818362003467919062004e32565b905092915050565b6000808390506000806000620034858762002f1f565b925092509250858362003499919062004e32565b945060008287620034ab919062004422565b8483620034b9919062004422565b620034c5919062004e32565b868484620034d4919062004422565b620034e0919062004422565b620034ec91906200449c565b9050600560009054906101000a900473ffffffffffffffffffffffffffffffffffffffff1673ffffffffffffffffffffffffffffffffffffffff16634b8a352989896040518363ffffffff1660e01b81526004016200354d92919062005887565b600060405180830381600087803b1580156200356857600080fd5b505af11580156200357d573d6000803e3d6000fd5b505050508473ffffffffffffffffffffffffffffffffffffffff16630797ceec87836040518363ffffffff1660e01b8152600401620035be9291906200391a565b600060405180830381600087803b158015620035d957600080fd5b505af1158015620035ee573d6000803e3d6000fd5b50505050505050505092915050565b600081836200360d919062004422565b905092915050565b600081836200362591906200449c565b905092915050565b61339880620058b583390190565b6040518060800160405280600073ffffffffffffffffffffffffffffffffffffffff1681526020016000815260200160008152602001600081525090565b6000819050919050565b6200368e8162003679565b82525050565b6000602082019050620036ab600083018462003683565b92915050565b6000604051905090565b600080fd5b600080fd5b600073ffffffffffffffffffffffffffffffffffffffff82169050919050565b6000620036f282620036c5565b9050919050565b6200370481620036e5565b81146200371057600080fd5b50565b6000813590506200372481620036f9565b92915050565b600060208284031215620037435762003742620036bb565b5b6000620037538482850162003713565b91505092915050565b6000819050919050565b600062003787620037816200377b84620036c5565b6200375c565b620036c5565b9050919050565b60006200379b8262003766565b9050919050565b6000620037af826200378e565b9050919050565b620037c181620037a2565b82525050565b6000602082019050620037de6000830184620037b6565b92915050565b620037ef8162003679565b8114620037fb57600080fd5b50565b6000813590506200380f81620037e4565b92915050565b600080604083850312156200382f576200382e620036bb565b5b60006200383f8582860162003713565b92505060206200385285828601620037fe565b9150509250929050565b600062003869826200378e565b9050919050565b6200387b816200385c565b82525050565b600060208201905062003898600083018462003870565b92915050565b6000620038ab826200378e565b9050919050565b620038bd816200389e565b82525050565b6000602082019050620038da6000830184620038b2565b92915050565b60008115159050919050565b620038f781620038e0565b82525050565b6000602082019050620039146000830184620038ec565b92915050565b600060408201905062003931600083018562003683565b62003940602083018462003683565b9392505050565b6200395281620036e5565b82525050565b60006020820190506200396f600083018462003947565b92915050565b600062003982826200378e565b9050919050565b620039948162003975565b82525050565b6000602082019050620039b1600083018462003989565b92915050565b600080fd5b6000601f19601f8301169050919050565b7f4e487b7100000000000000000000000000000000000000000000000000000000600052604160045260246000fd5b62003a0782620039bc565b810181811067ffffffffffffffff8211171562003a295762003a28620039cd565b5b80604052505050565b600062003a3e620036b1565b905062003a4c8282620039fc565b919050565b600067ffffffffffffffff82111562003a6f5762003a6e620039cd565b5b602082029050602081019050919050565b600080fd5b6000819050919050565b62003a9a8162003a85565b811462003aa657600080fd5b50565b60008135905062003aba8162003a8f565b92915050565b600062003ad762003ad18462003a51565b62003a32565b9050808382526020820190506020840283018581111562003afd5762003afc62003a80565b5b835b8181101562003b2a578062003b15888262003aa9565b84526020840193505060208101905062003aff565b5050509392505050565b600082601f83011262003b4c5762003b4b620039b7565b5b813562003b5e84826020860162003ac0565b91505092915050565b600067ffffffffffffffff82111562003b855762003b84620039cd565b5b602082029050602081019050919050565b600062003bad62003ba78462003b67565b62003a32565b9050808382526020820190506020840283018581111562003bd35762003bd262003a80565b5b835b8181101562003c00578062003beb888262003713565b84526020840193505060208101905062003bd5565b5050509392505050565b600082601f83011262003c225762003c21620039b7565b5b813562003c3484826020860162003b96565b91505092915050565b600067ffffffffffffffff82111562003c5b5762003c5a620039cd565b5b602082029050602081019050919050565b600080fd5b600067ffffffffffffffff82111562003c8f5762003c8e620039cd565b5b62003c9a82620039bc565b9050602081019050919050565b82818337600083830152505050565b600062003ccd62003cc78462003c71565b62003a32565b90508281526020810184848401111562003cec5762003ceb62003c6c565b5b62003cf984828562003ca7565b509392505050565b600082601f83011262003d195762003d18620039b7565b5b813562003d2b84826020860162003cb6565b91505092915050565b600062003d4b62003d458462003c3d565b62003a32565b9050808382526020820190506020840283018581111562003d715762003d7062003a80565b5b835b8181101562003dbf57803567ffffffffffffffff81111562003d9a5762003d99620039b7565b5b80860162003da9898262003d01565b8552602085019450505060208101905062003d73565b5050509392505050565b600082601f83011262003de15762003de0620039b7565b5b813562003df384826020860162003d34565b91505092915050565b60008060006060848603121562003e185762003e17620036bb565b5b600084013567ffffffffffffffff81111562003e395762003e38620036c0565b5b62003e478682870162003b34565b935050602084013567ffffffffffffffff81111562003e6b5762003e6a620036c0565b5b62003e798682870162003c0a565b925050604084013567ffffffffffffffff81111562003e9d5762003e9c620036c0565b5b62003eab8682870162003dc9565b9150509250925092565b60006020828403121562003ece5762003ecd620036bb565b5b600062003ede84828501620037fe565b91505092915050565b60008060006060848603121562003f035762003f02620036bb565b5b600062003f138682870162003aa9565b935050602084013567ffffffffffffffff81111562003f375762003f36620036c0565b5b62003f458682870162003c0a565b925050604084013567ffffffffffffffff81111562003f695762003f68620036c0565b5b62003f778682870162003dc9565b9150509250925092565b600080fd5b60008083601f84011262003f9f5762003f9e620039b7565b5b8235905067ffffffffffffffff81111562003fbf5762003fbe62003f81565b5b60208301915083602082028301111562003fde5762003fdd62003a80565b5b9250929050565b60008083601f84011262003ffe5762003ffd620039b7565b5b8235905067ffffffffffffffff8111156200401e576200401d62003f81565b5b6020830191508360208202830111156200403d576200403c62003a80565b5b9250929050565b600080600080600060608688031215620040635762004062620036bb565b5b6000620040738882890162003aa9565b955050602086013567ffffffffffffffff811115620040975762004096620036c0565b5b620040a58882890162003f86565b9450945050604086013567ffffffffffffffff811115620040cb57620040ca620036c0565b5b620040d98882890162003fe5565b92509250509295509295909350565b6000620040f5826200378e565b9050919050565b6200410781620040e8565b82525050565b6000602082019050620041246000830184620040fc565b92915050565b600060608201905062004141600083018662003947565b62004150602083018562003683565b6200415f604083018462003683565b949350505050565b6000815190506200417881620037e4565b92915050565b600060208284031215620041975762004196620036bb565b5b6000620041a78482850162004167565b91505092915050565b600081519050620041c181620036f9565b92915050565b6000620041de620041d88462003b67565b62003a32565b9050808382526020820190506020840283018581111562004204576200420362003a80565b5b835b818110156200423157806200421c8882620041b0565b84526020840193505060208101905062004206565b5050509392505050565b600082601f830112620042535762004252620039b7565b5b815162004265848260208601620041c7565b91505092915050565b600060208284031215620042875762004286620036bb565b5b600082015167ffffffffffffffff811115620042a857620042a7620036c0565b5b620042b6848285016200423b565b91505092915050565b7f4e487b7100000000000000000000000000000000000000000000000000000000600052603260045260246000fd5b6000819050919050565b6200430381620042ee565b81146200430f57600080fd5b50565b6000815190506200432381620042f8565b92915050565b600060208284031215620043425762004341620036bb565b5b6000620043528482850162004312565b91505092915050565b7f4e487b7100000000000000000000000000000000000000000000000000000000600052601160045260246000fd5b60006200439782620042ee565b9150620043a483620042ee565b925082820190508281121560008312168382126000841215161715620043cf57620043ce6200435b565b5b92915050565b6000620043e28262003679565b91507fffffffffffffffffffffffffffffffffffffffffffffffffffffffffffffffff82036200441757620044166200435b565b5b600182019050919050565b60006200442f8262003679565b91506200443c8362003679565b92508282026200444c8162003679565b915082820484148315176200446657620044656200435b565b5b5092915050565b7f4e487b7100000000000000000000000000000000000000000000000000000000600052601260045260246000fd5b6000620044a98262003679565b9150620044b68362003679565b925082620044c957620044c86200446d565b5b828204905092915050565b600081519050919050565b600082825260208201905092915050565b6000819050602082019050919050565b6200450b8162003a85565b82525050565b60006200451f838362004500565b60208301905092915050565b6000602082019050919050565b60006200454582620044d4565b620045518185620044df565b93506200455e83620044f0565b8060005b838110156200459557815162004579888262004511565b975062004586836200452b565b92505060018101905062004562565b5085935050505092915050565b600081519050919050565b600082825260208201905092915050565b6000819050602082019050919050565b620045d981620036e5565b82525050565b6000620045ed8383620045ce565b60208301905092915050565b6000602082019050919050565b60006200461382620045a2565b6200461f8185620045ad565b93506200462c83620045be565b8060005b8381101562004663578151620046478882620045df565b97506200465483620045f9565b92505060018101905062004630565b5085935050505092915050565b600081519050919050565b600082825260208201905092915050565b6000819050602082019050919050565b600081519050919050565b600082825260208201905092915050565b60005b83811015620046d8578082015181840152602081019050620046bb565b60008484015250505050565b6000620046f1826200469c565b620046fd8185620046a7565b93506200470f818560208601620046b8565b6200471a81620039bc565b840191505092915050565b6000620047338383620046e4565b905092915050565b6000602082019050919050565b6000620047558262004670565b6200476181856200467b565b93508360208202850162004775856200468c565b8060005b85811015620047b7578484038952815162004795858262004725565b9450620047a2836200473b565b925060208a0199505060018101905062004779565b50829750879550505050505092915050565b6000608082019050620047e0600083018762003947565b8181036020830152620047f4818662004538565b905081810360408301526200480a818562004606565b9050818103606083015262004820818462004748565b905095945050505050565b60008060408385031215620048455762004844620036bb565b5b6000620048558582860162004312565b9250506020620048688582860162004312565b9150509250929050565b600082825260208201905092915050565b7f616464206d617267696e206973206e6f7420616c6c6f77656420696e20636c6f60008201527f736520706f736974696f6e000000000000000000000000000000000000000000602082015250565b6000620048e1602b8362004872565b9150620048ee8262004883565b604082019050919050565b600060208201905081810360008301526200491481620048d2565b9050919050565b6000604082019050818103600083015262004937818562004606565b905081810360208301526200494d818462004748565b90509392505050565b60006200496d620049678462003c71565b62003a32565b9050828152602081018484840111156200498c576200498b62003c6c565b5b62004999848285620046b8565b509392505050565b600082601f830112620049b957620049b8620039b7565b5b8151620049cb84826020860162004956565b91505092915050565b600060208284031215620049ed57620049ec620036bb565b5b600082015167ffffffffffffffff81111562004a0e5762004a0d620036c0565b5b62004a1c84828501620049a1565b91505092915050565b62004a308162003a85565b82525050565b600060208201905062004a4d600083018462004a25565b92915050565b62004a5e81620038e0565b811462004a6a57600080fd5b50565b60008151905062004a7e8162004a53565b92915050565b60006020828403121562004a9d5762004a9c620036bb565b5b600062004aad8482850162004a6d565b91505092915050565b7f506f736974696f6e20646f65736e277420657869737400000000000000000000600082015250565b600062004aee60168362004872565b915062004afb8262004ab6565b602082019050919050565b6000602082019050818103600083015262004b218162004adf565b9050919050565b600060808201905062004b3f600083018762003947565b62004b4e602083018662004a25565b818103604083015262004b62818562004606565b9050818103606083015262004b78818462004748565b905095945050505050565b7f496e76616c696420636c6f736520706f73000000000000000000000000000000600082015250565b600062004bbb60118362004872565b915062004bc88262004b83565b602082019050919050565b6000602082019050818103600083015262004bee8162004bac565b9050919050565b60006020828403121562004c0e5762004c0d620036bb565b5b600062004c1e84828501620041b0565b91505092915050565b600060a08201905062004c3e600083018862003947565b62004c4d602083018762004a25565b818103604083015262004c61818662004606565b9050818103606083015262004c77818562004748565b905062004c88608083018462003683565b9695505050505050565b600080fd5b60006080828403121562004cb05762004caf62004c92565b5b62004cbc608062003a32565b9050600062004cce84828501620041b0565b600083015250602062004ce48482850162004312565b602083015250604062004cfa8482850162004312565b604083015250606062004d108482850162004167565b60608301525092915050565b6000610100828403121562004d365762004d3562004c92565b5b62004d4260a062003a32565b9050600062004d5484828501620041b0565b600083015250602062004d6a8482850162004312565b602083015250604062004d808482850162004312565b604083015250606062004d968482850162004c97565b60608301525060e062004dac84828501620041b0565b60808301525092915050565b6000610100828403121562004dd25762004dd1620036bb565b5b600062004de28482850162004d1c565b91505092915050565b6000806040838503121562004e055762004e04620036bb565b5b600062004e1585828601620041b0565b925050602062004e2885828601620041b0565b9150509250929050565b600062004e3f8262003679565b915062004e4c8362003679565b925082820190508082111562004e675762004e666200435b565b5b92915050565b62004e7881620042ee565b82525050565b62004e898162003679565b82525050565b60808201600082015162004ea76000850182620045ce565b50602082015162004ebc602085018262004e6d565b50604082015162004ed1604085018262004e6d565b50606082015162004ee6606085018262004e7e565b50505050565b600060a08201905062004f03600083018562004a25565b62004f12602083018462004e8f565b9392505050565b62004f2481620042ee565b82525050565b600060408201905062004f41600083018562004f19565b62004f50602083018462004f19565b9392505050565b600060408201905062004f6e600083018562003947565b62004f7d602083018462004f19565b9392505050565b600060ff82169050919050565b62004f9c8162004f84565b811462004fa857600080fd5b50565b60008151905062004fbc8162004f91565b92915050565b60006020828403121562004fdb5762004fda620036bb565b5b600062004feb8482850162004fab565b91505092915050565b60006040820190506200500b600083018562004f19565b6200501a602083018462003947565b9392505050565b6200502c81620038e0565b82525050565b6200503d81620036c5565b82525050565b60e0820160008201516200505b6000850182620045ce565b506020820151620050706020850182620045ce565b50604082015162005085604085018262004e7e565b5060608201516200509a606085018262004e7e565b506080820151620050af608085018262005021565b5060a0820151620050c460a085018262005032565b5060c0820151620050d960c085018262004e7e565b50505050565b600060e082019050620050f6600083018462005043565b92915050565b7f524d3a2042616420537761700000000000000000000000000000000000000000600082015250565b600062005134600c8362004872565b91506200514182620050fc565b602082019050919050565b60006020820190508181036000830152620051678162005125565b9050919050565b7f4578697374696e6720706f736974696f6e000000000000000000000000000000600082015250565b6000620051a660118362004872565b9150620051b3826200516e565b602082019050919050565b60006020820190508181036000830152620051d98162005197565b9050919050565b6000819050919050565b6000620051fb602084018462003713565b905092915050565b6000602082019050919050565b60006200521e8385620045ad565b93506200522b82620051e0565b8060005b858110156200526c57620052448284620051ea565b620052508882620045df565b97506200525d8362005203565b9250506001810190506200522f565b5085925050509392505050565b6000819050919050565b6000620052918385620046a7565b9350620052a083858462003ca7565b620052ab83620039bc565b840190509392505050565b6000620052c584848462005283565b90509392505050565b600080fd5b600080fd5b600080fd5b60008083356001602003843603038112620052fd57620052fc620052d8565b5b83810192508235915060208301925067ffffffffffffffff821115620053285762005327620052ce565b5b600182023603831315620053415762005340620052d3565b5b509250929050565b6000602082019050919050565b60006200536483856200467b565b935083602084028501620053788462005279565b8060005b87811015620053c6578484038952620053968284620052dd565b620053a3868284620052b6565b9550620053b08462005349565b935060208b019a5050506001810190506200537c565b50829750879450505050509392505050565b600060a082019050620053ef600083018a62003947565b620053fe602083018962004a25565b81810360408301526200541381878962005210565b905081810360608301526200542a81858762005356565b90506200543b608083018462003683565b98975050505050505050565b7f4d4d3a20496e76616c6964204f7065726174696f6e2e2043616e6e6f7420757360008201527f65206f70656e20706f736974696f6e20746f20726564756365206d617267696e60208201527f2066726f6d2061204d61726b65742e0000000000000000000000000000000000604082015250565b6000620054cb604f8362004872565b9150620054d88262005447565b606082019050919050565b60006020820190508181036000830152620054fe81620054bc565b9050919050565b600060408201905081810360008301526200552281868862005210565b905081810360208301526200553981848662005356565b905095945050505050565b7f4d4d3a20496e76616c6964206d617267696e206163636f756e74000000000000600082015250565b60006200557c601a8362004872565b9150620055898262005544565b602082019050919050565b60006020820190508181036000830152620055af816200556d565b9050919050565b6000620055c38262003679565b9150620055d08362003679565b9250828203905081811115620055eb57620055ea6200435b565b5b92915050565b600060208201905062005608600083018462004f19565b92915050565b7f53616665436173743a2076616c756520646f65736e27742066697420696e206160008201527f6e20696e74323536000000000000000000000000000000000000000000000000602082015250565b60006200566c60288362004872565b915062005679826200560e565b604082019050919050565b600060208201905081810360008301526200569f816200565d565b9050919050565b6000620056b38262004f84565b9150620056c08362004f84565b9250828203905060ff811115620056dc57620056db6200435b565b5b92915050565b60008160011c9050919050565b6000808291508390505b600185111562005741578086048111156200571957620057186200435b565b5b6001851615620057295780820291505b80810290506200573985620056e2565b9450620056f9565b94509492505050565b6000826200575c57600190506200582f565b816200576c57600090506200582f565b81600181146200578557600281146200579057620057c6565b60019150506200582f565b60ff841115620057a557620057a46200435b565b5b8360020a915084821115620057bf57620057be6200435b565b5b506200582f565b5060208310610133831016604e8410600b8410161715620058005782820a905083811115620057fa57620057f96200435b565b5b6200582f565b6200580f8484846001620056ef565b925090508184048111156200582957620058286200435b565b5b81810290505b9392505050565b6000620058438262003679565b9150620058508362004f84565b92506200587f7fffffffffffffffffffffffffffffffffffffffffffffffffffffffffffffffff84846200574a565b905092915050565b60006040820190506200589e600083018562003947565b620058ad602083018462003683565b939250505056fe60806040523480156200001157600080fd5b50604051620033983803806200339883398181016040528101906200003791906200019e565b80600073ffffffffffffffffffffffffffffffffffffffff168173ffffffffffffffffffffffffffffffffffffffff1603620000aa576040517f08c379a0000000000000000000000000000000000000000000000000000000008152600401620000a19062000231565b60405180910390fd5b80600160006101000a81548173ffffffffffffffffffffffffffffffffffffffff021916908373ffffffffffffffffffffffffffffffffffffffff1602179055505033600460006101000a81548173ffffffffffffffffffffffffffffffffffffffff021916908373ffffffffffffffffffffffffffffffffffffffff1602179055505062000253565b600080fd5b600073ffffffffffffffffffffffffffffffffffffffff82169050919050565b6000620001668262000139565b9050919050565b620001788162000159565b81146200018457600080fd5b50565b60008151905062000198816200016d565b92915050565b600060208284031215620001b757620001b662000134565b5b6000620001c78482850162000187565b91505092915050565b600082825260208201905092915050565b7f4d413a42616420526f7574657220616464726573730000000000000000000000600082015250565b600062000219601583620001d0565b91506200022682620001e1565b602082019050919050565b600060208201905081810360008301526200024c816200020a565b9050919050565b61313580620002636000396000f3fe608060405234801561001057600080fd5b50600436106101e55760003560e01c8063597810341161010f578063ba3f279f116100a2578063db386b8d11610071578063db386b8d14610593578063eda11ef0146105c3578063f887ea40146105f3578063fac5e98114610611576101e5565b8063ba3f279f146104f9578063c0cb2d2514610529578063ca96a6a714610559578063d93baf7414610577576101e5565b8063a64b6e5f116100de578063a64b6e5f14610485578063abf410e5146104a1578063aeccd4b9146104bf578063b1f1150c146104dd576101e5565b806359781034146103eb57806359cbbf4914610407578063643090bc1461043757806390b2f8f514610455576101e5565b8063220b6dec11610187578063481cecaa11610156578063481cecaa146103605780634c19386c1461037e5780634c89b68d1461039c578063514ea4bf146103b8576101e5565b8063220b6dec146102da578063251b652c1461030a578063272c4a1114610328578063318a96a714610344576101e5565b806317d11a15116101c357806317d11a151461023e5780631928b3cb1461025c5780631d9fd3091461028c5780631fb3b7ac146102bc576101e5565b8063019ce002146101ea5780630797ceec146102065780630952886a14610222575b600080fd5b61020460048036038101906101ff9190611c84565b610641565b005b610220600480360381019061021b9190611cc4565b610721565b005b61023c60048036038101906102379190611d04565b610733565b005b61024661087b565b6040516102539190611d53565b60405180910390f35b61027660048036038101906102719190611d6e565b610881565b6040516102839190611daa565b60405180910390f35b6102a660048036038101906102a19190611e92565b6108a1565b6040516102b39190611d53565b60405180910390f35b6102c461091a565b6040516102d19190611d53565b60405180910390f35b6102f460048036038101906102ef9190611ff3565b610920565b6040516103019190611d53565b60405180910390f35b6103126110ce565b60405161031f9190611daa565b60405180910390f35b610342600480360381019061033d9190612020565b6110d4565b005b61035e60048036038101906103599190611c84565b611177565b005b610368611223565b604051610375919061206f565b60405180910390f35b610386611249565b6040516103939190611d53565b60405180910390f35b6103b660048036038101906103b19190611d6e565b61124f565b005b6103d260048036038101906103cd9190611d6e565b6112d3565b6040516103e2949392919061208a565b60405180910390f35b610405600480360381019061040091906120cf565b611323565b005b610421600480360381019061041c9190612313565b611355565b60405161042e919061240e565b60405180910390f35b61043f611406565b60405161044c9190611daa565b60405180910390f35b61046f600480360381019061046a9190611e92565b61140c565b60405161047c9190611daa565b60405180910390f35b61049f600480360381019061049a91906120cf565b61147d565b005b6104a96114ad565b6040516104b6919061248f565b60405180910390f35b6104c76114d1565b6040516104d49190611d53565b60405180910390f35b6104f760048036038101906104f291906124aa565b6114d7565b005b610513600480360381019061050e9190611d6e565b6114f5565b6040516105209190611d53565b60405180910390f35b610543600480360381019061053e91906124d7565b611515565b6040516105509190611daa565b60405180910390f35b61056161152d565b60405161056e9190611daa565b60405180910390f35b610591600480360381019061058c91906124aa565b611533565b005b6105ad60048036038101906105a89190611d6e565b61153d565b6040516105ba9190611daa565b60405180910390f35b6105dd60048036038101906105d89190611d6e565b61155d565b6040516105ea9190612513565b60405180910390f35b6105fb61157d565b604051610608919061254f565b60405180910390f35b61062b6004803603810190610626919061256a565b6115a3565b604051610638919061240e565b60405180910390f35b6002600083815260200190815260200160002060009054906101000a900460ff166106a1576040517f08c379a000000000000000000000000000000000000000000000000000000000815260040161069890612623565b60405180910390fd5b806003600084815260200190815260200160002060008201518160000160006101000a81548173ffffffffffffffffffffffffffffffffffffffff021916908373ffffffffffffffffffffffffffffffffffffffff1602179055506020820151816001015560408201518160020155606082015181600301559050505050565b81600781905550806008819055505050565b600061078782600a60008673ffffffffffffffffffffffffffffffffffffffff1673ffffffffffffffffffffffffffffffffffffffff168152602001908152602001600020546115dc90919063ffffffff16565b136107c7576040517f08c379a00000000000000000000000000000000000000000000000000000000081526004016107be906126b5565b60405180910390fd5b6107dc81600b546115dc90919063ffffffff16565b600b8190555061083481600a60008573ffffffffffffffffffffffffffffffffffffffff1673ffffffffffffffffffffffffffffffffffffffff168152602001908152602001600020546115dc90919063ffffffff16565b600a60008473ffffffffffffffffffffffffffffffffffffffff1673ffffffffffffffffffffffffffffffffffffffff168152602001908152602001600020819055505050565b60085481565b600060036000838152602001908152602001600020600201549050919050565b6000808251905060005b81811015610913576108fe6108ef600360008785815181106108d0576108cf6126d5565b5b60200260200101518152602001908152602001600020600101546115f2565b8461160e90919063ffffffff16565b9250808061090b90612733565b9150506108ab565b5050919050565b60055481565b60008073ffffffffffffffffffffffffffffffffffffffff16826000015173ffffffffffffffffffffffffffffffffffffffff1603610994576040517f08c379a000000000000000000000000000000000000000000000000000000000815260040161098b906127c7565b60405180910390fd5b600073ffffffffffffffffffffffffffffffffffffffff16826020015173ffffffffffffffffffffffffffffffffffffffff1603610a07576040517f08c379a00000000000000000000000000000000000000000000000000000000081526004016109fe90612833565b60405180910390fd5b816080015115610b06576000826040015111610a58576040517f08c379a0000000000000000000000000000000000000000000000000000000008152600401610a4f9061289f565b60405180910390fd5b816000015173ffffffffffffffffffffffffffffffffffffffff1663095ea7b3600160009054906101000a900473ffffffffffffffffffffffffffffffffffffffff1684604001516040518363ffffffff1660e01b8152600401610abd9291906128bf565b6020604051808303816000875af1158015610adc573d6000803e3d6000fd5b505050506040513d601f19601f82011682018060405250810190610b0091906128fd565b50610bf7565b6000826060015111610b4d576040517f08c379a0000000000000000000000000000000000000000000000000000000008152600401610b449061299c565b60405180910390fd5b816000015173ffffffffffffffffffffffffffffffffffffffff1663095ea7b3600160009054906101000a900473ffffffffffffffffffffffffffffffffffffffff1684606001516040518363ffffffff1660e01b8152600401610bb29291906128bf565b6020604051808303816000875af1158015610bd1573d6000803e3d6000fd5b505050506040513d601f19601f82011682018060405250810190610bf591906128fd565b505b6000610c01611624565b90506000610c178460000151856020015161162d565b90508015610ed157836080015115610d7e576000604051806101000160405280866000015173ffffffffffffffffffffffffffffffffffffffff168152602001866020015173ffffffffffffffffffffffffffffffffffffffff1681526020018462ffffff1681526020013073ffffffffffffffffffffffffffffffffffffffff168152602001428152602001866040015181526020018660c0015181526020018660a0015173ffffffffffffffffffffffffffffffffffffffff168152509050600160009054906101000a900473ffffffffffffffffffffffffffffffffffffffff1673ffffffffffffffffffffffffffffffffffffffff1663414bf389826040518263ffffffff1660e01b8152600401610d339190612aa9565b6020604051808303816000875af1158015610d52573d6000803e3d6000fd5b505050506040513d601f19601f82011682018060405250810190610d769190612ada565b935050610ecc565b6000604051806101000160405280866000015173ffffffffffffffffffffffffffffffffffffffff168152602001866020015173ffffffffffffffffffffffffffffffffffffffff1681526020018462ffffff1681526020013073ffffffffffffffffffffffffffffffffffffffff16815260200142815260200186606001518152602001600081526020018660a0015173ffffffffffffffffffffffffffffffffffffffff168152509050600160009054906101000a900473ffffffffffffffffffffffffffffffffffffffff1673ffffffffffffffffffffffffffffffffffffffff1663db3e2198826040518263ffffffff1660e01b8152600401610e859190612ba9565b6020604051808303816000875af1158015610ea4573d6000803e3d6000fd5b505050506040513d601f19601f82011682018060405250810190610ec89190612ada565b9350505b6110c7565b6000610ee585600001518660200151611639565b9050846080015115610fdd5760006040518060a001604052808381526020013373ffffffffffffffffffffffffffffffffffffffff1681526020014281526020018760400151815260200160008152509050600160009054906101000a900473ffffffffffffffffffffffffffffffffffffffff1673ffffffffffffffffffffffffffffffffffffffff1663c04b8d59826040518263ffffffff1660e01b8152600401610f929190612c85565b6020604051808303816000875af1158015610fb1573d6000803e3d6000fd5b505050506040513d601f19601f82011682018060405250810190610fd59190612ada565b9450506110c5565b60006040518060a001604052808381526020013373ffffffffffffffffffffffffffffffffffffffff1681526020014281526020018760600151815260200160008152509050600160009054906101000a900473ffffffffffffffffffffffffffffffffffffffff1673ffffffffffffffffffffffffffffffffffffffff1663f28c0498826040518263ffffffff1660e01b815260040161107e9190612d1d565b6020604051808303816000875af115801561109d573d6000803e3d6000fd5b505050506040513d601f19601f820116820180604052508101906110c19190612ada565b9450505b505b5050919050565b600c5481565b8173ffffffffffffffffffffffffffffffffffffffff1663095ea7b3827fffffffffffffffffffffffffffffffffffffffffffffffffffffffffffffffff6040518363ffffffff1660e01b815260040161112f9291906128bf565b6020604051808303816000875af115801561114e573d6000803e3d6000fd5b505050506040513d601f19601f8201168201806040525081019061117291906128fd565b505050565b806003600084815260200190815260200160002060008201518160000160006101000a81548173ffffffffffffffffffffffffffffffffffffffff021916908373ffffffffffffffffffffffffffffffffffffffff16021790555060208201518160010155604082015181600201556060820151816003015590505060016002600084815260200190815260200160002060006101000a81548160ff0219169083151502179055505050565b600460009054906101000a900473ffffffffffffffffffffffffffffffffffffffff1681565b60075481565b60006002600083815260200190815260200160002060006101000a81548160ff02191690831515021790555060036000828152602001908152602001600020600080820160006101000a81549073ffffffffffffffffffffffffffffffffffffffff0219169055600182016000905560028201600090556003820160009055505050565b60036020528060005260406000206000915090508060000160009054906101000a900473ffffffffffffffffffffffffffffffffffffffff16908060010154908060020154908060030154905084565b6113508330838573ffffffffffffffffffffffffffffffffffffffff16611641909392919063ffffffff16565b505050565b60606000611365858590506116ca565b905060005b8160ff168160ff1610156113fd576113e8848260ff1681518110611391576113906126d5565b5b602002602001015187878460ff168181106113af576113ae6126d5565b5b90506020020160208101906113c491906124d7565b73ffffffffffffffffffffffffffffffffffffffff1661171a90919063ffffffff16565b925080806113f590612d4c565b91505061136a565b50509392505050565b60095481565b6000808251905060005b818110156114765761146160036000868481518110611438576114376126d5565b5b6020026020010151815260200190815260200160002060010154846115dc90919063ffffffff16565b9250808061146e90612733565b915050611416565b5050919050565b6114a882828573ffffffffffffffffffffffffffffffffffffffff166117649092919063ffffffff16565b505050565b60008054906101000a900473ffffffffffffffffffffffffffffffffffffffff1681565b60065481565b6114ec816009546115dc90919063ffffffff16565b60098190555050565b600060036000838152602001908152602001600020600301549050919050565b600a6020528060005260406000206000915090505481565b600b5481565b80600c8190555050565b600060036000838152602001908152602001600020600101549050919050565b60026020528060005260406000206000915054906101000a900460ff1681565b600160009054906101000a900473ffffffffffffffffffffffffffffffffffffffff1681565b606060006115d0838573ffffffffffffffffffffffffffffffffffffffff1661171a90919063ffffffff16565b90508091505092915050565b600081836115ea9190612d75565b905092915050565b6000808212156116055781600003611607565b815b9050919050565b6000818361161c9190612db9565b905092915050565b60006064905090565b60006001905092915050565b606092915050565b6116c4846323b872dd60e01b85858560405160240161166293929190612ded565b604051602081830303815290604052907bffffffffffffffffffffffffffffffffffffffffffffffffffffffff19166020820180517bffffffffffffffffffffffffffffffffffffffffffffffffffffffff83818316178352505050506117ea565b50505050565b600060ff8016821115611712576040517f08c379a000000000000000000000000000000000000000000000000000000000815260040161170990612e96565b60405180910390fd5b819050919050565b606061175c83836040518060400160405280601e81526020017f416464726573733a206c6f772d6c6576656c2063616c6c206661696c656400008152506118b1565b905092915050565b6117e58363a9059cbb60e01b84846040516024016117839291906128bf565b604051602081830303815290604052907bffffffffffffffffffffffffffffffffffffffffffffffffffffffff19166020820180517bffffffffffffffffffffffffffffffffffffffffffffffffffffffff83818316178352505050506117ea565b505050565b600061184c826040518060400160405280602081526020017f5361666545524332303a206c6f772d6c6576656c2063616c6c206661696c65648152508573ffffffffffffffffffffffffffffffffffffffff166118b19092919063ffffffff16565b90506000815111156118ac578080602001905181019061186c91906128fd565b6118ab576040517f08c379a00000000000000000000000000000000000000000000000000000000081526004016118a290612f28565b60405180910390fd5b5b505050565b60606118c084846000856118c9565b90509392505050565b60608247101561190e576040517f08c379a000000000000000000000000000000000000000000000000000000000815260040161190590612fba565b60405180910390fd5b611917856119dd565b611956576040517f08c379a000000000000000000000000000000000000000000000000000000000815260040161194d90613026565b60405180910390fd5b6000808673ffffffffffffffffffffffffffffffffffffffff16858760405161197f9190613082565b60006040518083038185875af1925050503d80600081146119bc576040519150601f19603f3d011682016040523d82523d6000602084013e6119c1565b606091505b50915091506119d1828286611a00565b92505050949350505050565b6000808273ffffffffffffffffffffffffffffffffffffffff163b119050919050565b60608315611a1057829050611a60565b600083511115611a235782518084602001fd5b816040517f08c379a0000000000000000000000000000000000000000000000000000000008152600401611a5791906130dd565b60405180910390fd5b9392505050565b6000604051905090565b600080fd5b600080fd5b6000819050919050565b611a8e81611a7b565b8114611a9957600080fd5b50565b600081359050611aab81611a85565b92915050565b600080fd5b6000601f19601f8301169050919050565b7f4e487b7100000000000000000000000000000000000000000000000000000000600052604160045260246000fd5b611aff82611ab6565b810181811067ffffffffffffffff82111715611b1e57611b1d611ac7565b5b80604052505050565b6000611b31611a67565b9050611b3d8282611af6565b919050565b600073ffffffffffffffffffffffffffffffffffffffff82169050919050565b6000611b6d82611b42565b9050919050565b611b7d81611b62565b8114611b8857600080fd5b50565b600081359050611b9a81611b74565b92915050565b6000819050919050565b611bb381611ba0565b8114611bbe57600080fd5b50565b600081359050611bd081611baa565b92915050565b6000819050919050565b611be981611bd6565b8114611bf457600080fd5b50565b600081359050611c0681611be0565b92915050565b600060808284031215611c2257611c21611ab1565b5b611c2c6080611b27565b90506000611c3c84828501611b8b565b6000830152506020611c5084828501611bc1565b6020830152506040611c6484828501611bc1565b6040830152506060611c7884828501611bf7565b60608301525092915050565b60008060a08385031215611c9b57611c9a611a71565b5b6000611ca985828601611a9c565b9250506020611cba85828601611c0c565b9150509250929050565b60008060408385031215611cdb57611cda611a71565b5b6000611ce985828601611bf7565b9250506020611cfa85828601611bf7565b9150509250929050565b60008060408385031215611d1b57611d1a611a71565b5b6000611d2985828601611b8b565b9250506020611d3a85828601611bc1565b9150509250929050565b611d4d81611bd6565b82525050565b6000602082019050611d686000830184611d44565b92915050565b600060208284031215611d8457611d83611a71565b5b6000611d9284828501611a9c565b91505092915050565b611da481611ba0565b82525050565b6000602082019050611dbf6000830184611d9b565b92915050565b600080fd5b600067ffffffffffffffff821115611de557611de4611ac7565b5b602082029050602081019050919050565b600080fd5b6000611e0e611e0984611dca565b611b27565b90508083825260208201905060208402830185811115611e3157611e30611df6565b5b835b81811015611e5a5780611e468882611a9c565b845260208401935050602081019050611e33565b5050509392505050565b600082601f830112611e7957611e78611dc5565b5b8135611e89848260208601611dfb565b91505092915050565b600060208284031215611ea857611ea7611a71565b5b600082013567ffffffffffffffff811115611ec657611ec5611a76565b5b611ed284828501611e64565b91505092915050565b60008115159050919050565b611ef081611edb565b8114611efb57600080fd5b50565b600081359050611f0d81611ee7565b92915050565b611f1c81611b42565b8114611f2757600080fd5b50565b600081359050611f3981611f13565b92915050565b600060e08284031215611f5557611f54611ab1565b5b611f5f60e0611b27565b90506000611f6f84828501611b8b565b6000830152506020611f8384828501611b8b565b6020830152506040611f9784828501611bf7565b6040830152506060611fab84828501611bf7565b6060830152506080611fbf84828501611efe565b60808301525060a0611fd384828501611f2a565b60a08301525060c0611fe784828501611bf7565b60c08301525092915050565b600060e0828403121561200957612008611a71565b5b600061201784828501611f3f565b91505092915050565b6000806040838503121561203757612036611a71565b5b600061204585828601611b8b565b925050602061205685828601611b8b565b9150509250929050565b61206981611b62565b82525050565b60006020820190506120846000830184612060565b92915050565b600060808201905061209f6000830187612060565b6120ac6020830186611d9b565b6120b96040830185611d9b565b6120c66060830184611d44565b95945050505050565b6000806000606084860312156120e8576120e7611a71565b5b60006120f686828701611b8b565b935050602061210786828701611b8b565b925050604061211886828701611bf7565b9150509250925092565b600080fd5b60008083601f84011261213d5761213c611dc5565b5b8235905067ffffffffffffffff81111561215a57612159612122565b5b60208301915083602082028301111561217657612175611df6565b5b9250929050565b600067ffffffffffffffff82111561219857612197611ac7565b5b602082029050602081019050919050565b600080fd5b600067ffffffffffffffff8211156121c9576121c8611ac7565b5b6121d282611ab6565b9050602081019050919050565b82818337600083830152505050565b60006122016121fc846121ae565b611b27565b90508281526020810184848401111561221d5761221c6121a9565b5b6122288482856121df565b509392505050565b600082601f83011261224557612244611dc5565b5b81356122558482602086016121ee565b91505092915050565b600061227161226c8461217d565b611b27565b9050808382526020820190506020840283018581111561229457612293611df6565b5b835b818110156122db57803567ffffffffffffffff8111156122b9576122b8611dc5565b5b8086016122c68982612230565b85526020850194505050602081019050612296565b5050509392505050565b600082601f8301126122fa576122f9611dc5565b5b813561230a84826020860161225e565b91505092915050565b60008060006040848603121561232c5761232b611a71565b5b600084013567ffffffffffffffff81111561234a57612349611a76565b5b61235686828701612127565b9350935050602084013567ffffffffffffffff81111561237957612378611a76565b5b612385868287016122e5565b9150509250925092565b600081519050919050565b600082825260208201905092915050565b60005b838110156123c95780820151818401526020810190506123ae565b60008484015250505050565b60006123e08261238f565b6123ea818561239a565b93506123fa8185602086016123ab565b61240381611ab6565b840191505092915050565b6000602082019050818103600083015261242881846123d5565b905092915050565b6000819050919050565b600061245561245061244b84611b42565b612430565b611b42565b9050919050565b60006124678261243a565b9050919050565b60006124798261245c565b9050919050565b6124898161246e565b82525050565b60006020820190506124a46000830184612480565b92915050565b6000602082840312156124c0576124bf611a71565b5b60006124ce84828501611bc1565b91505092915050565b6000602082840312156124ed576124ec611a71565b5b60006124fb84828501611b8b565b91505092915050565b61250d81611edb565b82525050565b60006020820190506125286000830184612504565b92915050565b60006125398261245c565b9050919050565b6125498161252e565b82525050565b60006020820190506125646000830184612540565b92915050565b6000806040838503121561258157612580611a71565b5b600061258f85828601611b8b565b925050602083013567ffffffffffffffff8111156125b0576125af611a76565b5b6125bc85828601612230565b9150509250929050565b600082825260208201905092915050565b7f4e6f7420616e206578697374696e6720506f736974696f6e0000000000000000600082015250565b600061260d6018836125c6565b9150612618826125d7565b602082019050919050565b6000602082019050818103600083015261263c81612600565b9050919050565b7f4d413a2043616e6e6f742068617665206e65676174697665206d617267696e2060008201527f496e2070726f746f636f6c000000000000000000000000000000000000000000602082015250565b600061269f602b836125c6565b91506126aa82612643565b604082019050919050565b600060208201905081810360008301526126ce81612692565b9050919050565b7f4e487b7100000000000000000000000000000000000000000000000000000000600052603260045260246000fd5b7f4e487b7100000000000000000000000000000000000000000000000000000000600052601160045260246000fd5b600061273e82611bd6565b91507fffffffffffffffffffffffffffffffffffffffffffffffffffffffffffffffff82036127705761276f612704565b5b600182019050919050565b7f4d413a20546f6b656e496e206572726f72000000000000000000000000000000600082015250565b60006127b16011836125c6565b91506127bc8261277b565b602082019050919050565b600060208201905081810360008301526127e0816127a4565b9050919050565b7f4d413a20746f6b656e4f7574206572726f720000000000000000000000000000600082015250565b600061281d6012836125c6565b9150612828826127e7565b602082019050919050565b6000602082019050818103600083015261284c81612810565b9050919050565b7f4d413a20496e76616c696420616d6f756e74496e000000000000000000000000600082015250565b60006128896014836125c6565b915061289482612853565b602082019050919050565b600060208201905081810360008301526128b88161287c565b9050919050565b60006040820190506128d46000830185612060565b6128e16020830184611d44565b9392505050565b6000815190506128f781611ee7565b92915050565b60006020828403121561291357612912611a71565b5b6000612921848285016128e8565b91505092915050565b7f4d413a20496e76616c6964205f73776170506172616d732e616d6f756e744f7560008201527f7400000000000000000000000000000000000000000000000000000000000000602082015250565b60006129866021836125c6565b91506129918261292a565b604082019050919050565b600060208201905081810360008301526129b581612979565b9050919050565b6129c581611b62565b82525050565b600062ffffff82169050919050565b6129e3816129cb565b82525050565b6129f281611bd6565b82525050565b612a0181611b42565b82525050565b61010082016000820151612a1e60008501826129bc565b506020820151612a3160208501826129bc565b506040820151612a4460408501826129da565b506060820151612a5760608501826129bc565b506080820151612a6a60808501826129e9565b5060a0820151612a7d60a08501826129e9565b5060c0820151612a9060c08501826129e9565b5060e0820151612aa360e08501826129f8565b50505050565b600061010082019050612abf6000830184612a07565b92915050565b600081519050612ad481611be0565b92915050565b600060208284031215612af057612aef611a71565b5b6000612afe84828501612ac5565b91505092915050565b61010082016000820151612b1e60008501826129bc565b506020820151612b3160208501826129bc565b506040820151612b4460408501826129da565b506060820151612b5760608501826129bc565b506080820151612b6a60808501826129e9565b5060a0820151612b7d60a08501826129e9565b5060c0820151612b9060c08501826129e9565b5060e0820151612ba360e08501826129f8565b50505050565b600061010082019050612bbf6000830184612b07565b92915050565b600082825260208201905092915050565b6000612be18261238f565b612beb8185612bc5565b9350612bfb8185602086016123ab565b612c0481611ab6565b840191505092915050565b600060a0830160008301518482036000860152612c2c8282612bd6565b9150506020830151612c4160208601826129bc565b506040830151612c5460408601826129e9565b506060830151612c6760608601826129e9565b506080830151612c7a60808601826129e9565b508091505092915050565b60006020820190508181036000830152612c9f8184612c0f565b905092915050565b600060a0830160008301518482036000860152612cc48282612bd6565b9150506020830151612cd960208601826129bc565b506040830151612cec60408601826129e9565b506060830151612cff60608601826129e9565b506080830151612d1260808601826129e9565b508091505092915050565b60006020820190508181036000830152612d378184612ca7565b905092915050565b600060ff82169050919050565b6000612d5782612d3f565b915060ff8203612d6a57612d69612704565b5b600182019050919050565b6000612d8082611ba0565b9150612d8b83611ba0565b925082820190508281121560008312168382126000841215161715612db357612db2612704565b5b92915050565b6000612dc482611bd6565b9150612dcf83611bd6565b9250828201905080821115612de757612de6612704565b5b92915050565b6000606082019050612e026000830186612060565b612e0f6020830185612060565b612e1c6040830184611d44565b949350505050565b7f53616665436173743a2076616c756520646f65736e27742066697420696e203860008201527f2062697473000000000000000000000000000000000000000000000000000000602082015250565b6000612e806025836125c6565b9150612e8b82612e24565b604082019050919050565b60006020820190508181036000830152612eaf81612e73565b9050919050565b7f5361666545524332303a204552433230206f7065726174696f6e20646964206e60008201527f6f74207375636365656400000000000000000000000000000000000000000000602082015250565b6000612f12602a836125c6565b9150612f1d82612eb6565b604082019050919050565b60006020820190508181036000830152612f4181612f05565b9050919050565b7f416464726573733a20696e73756666696369656e742062616c616e636520666f60008201527f722063616c6c0000000000000000000000000000000000000000000000000000602082015250565b6000612fa46026836125c6565b9150612faf82612f48565b604082019050919050565b60006020820190508181036000830152612fd381612f97565b9050919050565b7f416464726573733a2063616c6c20746f206e6f6e2d636f6e7472616374000000600082015250565b6000613010601d836125c6565b915061301b82612fda565b602082019050919050565b6000602082019050818103600083015261303f81613003565b9050919050565b600081905092915050565b600061305c8261238f565b6130668185613046565b93506130768185602086016123ab565b80840191505092915050565b600061308e8284613051565b915081905092915050565b600081519050919050565b60006130af82613099565b6130b981856125c6565b93506130c98185602086016123ab565b6130d281611ab6565b840191505092915050565b600060208201905081810360008301526130f781846130a4565b90509291505056fea264697066735822122032a0dea141e11ebd815a03cf0f2ec7bf3a4d3b7f74d056296effa50ead9d028564736f6c63430008110033a2646970667358221220652660738aa787813854966c5534d705d1345bc0beaaa91966c868532e96d86764736f6c63430008110033",
    "linkReferences": {}
  },
  "methodIdentifiers": {
    "RemoveCollateral()": "734452c9",
    "SetCollatralRatio(address,uint256)": "aec6a8cd",
    "SetPenalty(uint256)": "c657328d",
    "SetRiskManager(address)": "37c8df85",
    "allowedUnderlyingTokens(address)": "90838c8c",
    "calcCreditAccountAccruedInterest(address)": "3192195c",
    "calcMarginAccountAccruedInterest(address)": "94b75797",
    "closeMarginAccount()": "fb787d01",
    "closePosition(bytes32,address[],bytes[])": "f0da5f79",
    "collatralRatio(address)": "7536cbf5",
    "contractRegistry()": "abf410e5",
    "decreaseDebt(address,uint256)": "2fb9ba31",
    "getInterestAccrued(address)": "870c421e",
    "liquidate(bytes32[],address[],bytes[])": "bc2ca844",
    "liquidationPenalty()": "23f5589a",
    "marginAccounts(address)": "9c498bc3",
    "marketManager()": "41ed2c12",
    "openMarginAccount()": "b9e41a21",
    "openPosition(bytes32,address[],bytes[])": "fb80a0f1",
    "priceOracle()": "2630c12f",
    "riskManager()": "47842663",
    "setVault(address)": "6817031b",
    "settleFee(address)": "4b11df11",
    "settleRealizedAccounting(address)": "24d2343a",
    "updatePosition(bytes32,address[],bytes[])": "f6ba5d16",
    "updateUnsettledRealizedPnL(address)": "7d649b71",
    "vault()": "fbfa77cf"
  },
  "id": 30
}