{
  "abi": [
    {
      "inputs": [
        {
          "internalType": "contract IContractRegistry",
          "name": "_contractRegistry",
          "type": "address"
        },
        {
          "internalType": "contract IMarketManager",
          "name": "_marketManager",
          "type": "address"
        },
        {
          "internalType": "contract IPriceOracle",
          "name": "_priceOracle",
          "type": "address"
        }
      ],
      "stateMutability": "nonpayable",
      "type": "constructor"
    },
    {
      "anonymous": false,
      "inputs": [
        {
          "indexed": true,
          "internalType": "address",
          "name": "",
          "type": "address"
        },
        {
          "indexed": true,
          "internalType": "address",
          "name": "",
          "type": "address"
        }
      ],
      "name": "MarginAccountClosed",
      "type": "event"
    },
    {
      "anonymous": false,
      "inputs": [
        {
          "indexed": true,
          "internalType": "address",
          "name": "",
          "type": "address"
        },
        {
          "indexed": true,
          "internalType": "address",
          "name": "",
          "type": "address"
        }
      ],
      "name": "MarginAccountLiquidated",
      "type": "event"
    },
    {
      "anonymous": false,
      "inputs": [
        {
          "indexed": true,
          "internalType": "address",
          "name": "",
          "type": "address"
        },
        {
          "indexed": true,
          "internalType": "address",
          "name": "",
          "type": "address"
        }
      ],
      "name": "MarginAccountOpened",
      "type": "event"
    },
    {
      "anonymous": false,
      "inputs": [
        {
          "indexed": true,
          "internalType": "address",
          "name": "",
          "type": "address"
        },
        {
          "indexed": true,
          "internalType": "address",
          "name": "",
          "type": "address"
        },
        {
          "indexed": true,
          "internalType": "address",
          "name": "",
          "type": "address"
        },
        {
          "indexed": false,
          "internalType": "int256",
          "name": "",
          "type": "int256"
        },
        {
          "indexed": false,
          "internalType": "uint256",
          "name": "",
          "type": "uint256"
        }
      ],
      "name": "MarginTransferred",
      "type": "event"
    },
    {
      "anonymous": false,
      "inputs": [
        {
          "indexed": true,
          "internalType": "address",
          "name": "",
          "type": "address"
        },
        {
          "indexed": true,
          "internalType": "address",
          "name": "",
          "type": "address"
        },
        {
          "indexed": true,
          "internalType": "address",
          "name": "",
          "type": "address"
        },
        {
          "indexed": false,
          "internalType": "int256",
          "name": "",
          "type": "int256"
        },
        {
          "indexed": false,
          "internalType": "uint256",
          "name": "",
          "type": "uint256"
        }
      ],
      "name": "PositionAdded",
      "type": "event"
    },
    {
      "anonymous": false,
      "inputs": [
        {
          "indexed": true,
          "internalType": "address",
          "name": "",
          "type": "address"
        },
        {
          "indexed": true,
          "internalType": "address",
          "name": "",
          "type": "address"
        },
        {
          "indexed": true,
          "internalType": "address",
          "name": "",
          "type": "address"
        },
        {
          "indexed": false,
          "internalType": "uint256",
          "name": "",
          "type": "uint256"
        },
        {
          "indexed": false,
          "internalType": "uint256",
          "name": "",
          "type": "uint256"
        }
      ],
      "name": "PositionRemoved",
      "type": "event"
    },
    {
      "anonymous": false,
      "inputs": [
        {
          "indexed": true,
          "internalType": "address",
          "name": "",
          "type": "address"
        },
        {
          "indexed": true,
          "internalType": "address",
          "name": "",
          "type": "address"
        },
        {
          "indexed": true,
          "internalType": "address",
          "name": "",
          "type": "address"
        },
        {
          "indexed": false,
          "internalType": "uint256",
          "name": "",
          "type": "uint256"
        },
        {
          "indexed": false,
          "internalType": "uint256",
          "name": "",
          "type": "uint256"
        }
      ],
      "name": "PositionUpdated",
      "type": "event"
    },
    {
      "inputs": [],
      "name": "RemoveCollateral",
      "outputs": [],
      "stateMutability": "nonpayable",
      "type": "function"
    },
    {
      "inputs": [
        {
          "internalType": "address",
          "name": "token",
          "type": "address"
        },
        {
          "internalType": "uint256",
          "name": "value",
          "type": "uint256"
        }
      ],
      "name": "SetCollatralRatio",
      "outputs": [],
      "stateMutability": "nonpayable",
      "type": "function"
    },
    {
      "inputs": [
        {
          "internalType": "uint256",
          "name": "value",
          "type": "uint256"
        }
      ],
      "name": "SetPenalty",
      "outputs": [],
      "stateMutability": "nonpayable",
      "type": "function"
    },
    {
      "inputs": [
        {
          "internalType": "address",
          "name": "_riskmgr",
          "type": "address"
        }
      ],
      "name": "SetRiskManager",
      "outputs": [],
      "stateMutability": "nonpayable",
      "type": "function"
    },
    {
      "inputs": [
        {
          "internalType": "address",
          "name": "",
          "type": "address"
        }
      ],
      "name": "allowedUnderlyingTokens",
      "outputs": [
        {
          "internalType": "bool",
          "name": "",
          "type": "bool"
        }
      ],
      "stateMutability": "view",
      "type": "function"
    },
    {
      "inputs": [
        {
          "internalType": "address",
          "name": "marginacc",
          "type": "address"
        }
      ],
      "name": "calcCreditAccountAccruedInterest",
      "outputs": [
        {
          "internalType": "uint256",
          "name": "",
          "type": "uint256"
        }
      ],
      "stateMutability": "view",
      "type": "function"
    },
    {
      "inputs": [
        {
          "internalType": "address",
          "name": "_marginAccount",
          "type": "address"
        }
      ],
      "name": "calcMarginAccountAccruedInterest",
      "outputs": [
        {
          "internalType": "uint256",
          "name": "borrowedAmount",
          "type": "uint256"
        },
        {
          "internalType": "uint256",
          "name": "borrowedAmountWithInterest",
          "type": "uint256"
        }
      ],
      "stateMutability": "view",
      "type": "function"
    },
    {
      "inputs": [],
      "name": "closeMarginAccount",
      "outputs": [],
      "stateMutability": "nonpayable",
      "type": "function"
    },
    {
      "inputs": [
        {
          "internalType": "bytes32",
          "name": "marketKey",
          "type": "bytes32"
        },
        {
          "internalType": "address[]",
          "name": "destinations",
          "type": "address[]"
        },
        {
          "internalType": "bytes[]",
          "name": "data",
          "type": "bytes[]"
        }
      ],
      "name": "closePosition",
      "outputs": [],
      "stateMutability": "nonpayable",
      "type": "function"
    },
    {
      "inputs": [
        {
          "internalType": "address",
          "name": "",
          "type": "address"
        }
      ],
      "name": "collatralRatio",
      "outputs": [
        {
          "internalType": "uint256",
          "name": "",
          "type": "uint256"
        }
      ],
      "stateMutability": "view",
      "type": "function"
    },
    {
      "inputs": [],
      "name": "contractRegistry",
      "outputs": [
        {
          "internalType": "contract IContractRegistry",
          "name": "",
          "type": "address"
        }
      ],
      "stateMutability": "view",
      "type": "function"
    },
    {
      "inputs": [
        {
          "internalType": "address",
          "name": "marginAcc",
          "type": "address"
        },
        {
          "internalType": "uint256",
          "name": "amount",
          "type": "uint256"
        }
      ],
      "name": "decreaseDebt",
      "outputs": [
        {
          "internalType": "uint256",
          "name": "newBorrowedAmount",
          "type": "uint256"
        }
      ],
      "stateMutability": "nonpayable",
      "type": "function"
    },
    {
      "inputs": [
        {
          "internalType": "address",
          "name": "marginAccount",
          "type": "address"
        }
      ],
      "name": "getInterestAccrued",
      "outputs": [
        {
          "internalType": "uint256",
          "name": "",
          "type": "uint256"
        }
      ],
      "stateMutability": "view",
      "type": "function"
    },
    {
      "inputs": [
        {
          "internalType": "bytes32[]",
          "name": "marketKeys",
          "type": "bytes32[]"
        },
        {
          "internalType": "address[]",
          "name": "destinations",
          "type": "address[]"
        },
        {
          "internalType": "bytes[]",
          "name": "data",
          "type": "bytes[]"
        }
      ],
      "name": "liquidate",
      "outputs": [],
      "stateMutability": "nonpayable",
      "type": "function"
    },
    {
      "inputs": [],
      "name": "liquidationPenalty",
      "outputs": [
        {
          "internalType": "uint256",
          "name": "",
          "type": "uint256"
        }
      ],
      "stateMutability": "view",
      "type": "function"
    },
    {
      "inputs": [
        {
          "internalType": "address",
          "name": "",
          "type": "address"
        }
      ],
      "name": "marginAccounts",
      "outputs": [
        {
          "internalType": "address",
          "name": "",
          "type": "address"
        }
      ],
      "stateMutability": "view",
      "type": "function"
    },
    {
      "inputs": [],
      "name": "marketManager",
      "outputs": [
        {
          "internalType": "contract IMarketManager",
          "name": "",
          "type": "address"
        }
      ],
      "stateMutability": "view",
      "type": "function"
    },
    {
      "inputs": [],
      "name": "openMarginAccount",
      "outputs": [
        {
          "internalType": "address",
          "name": "",
          "type": "address"
        }
      ],
      "stateMutability": "nonpayable",
      "type": "function"
    },
    {
      "inputs": [
        {
          "internalType": "bytes32",
          "name": "marketKey",
          "type": "bytes32"
        },
        {
          "internalType": "address[]",
          "name": "destinations",
          "type": "address[]"
        },
        {
          "internalType": "bytes[]",
          "name": "data",
          "type": "bytes[]"
        }
      ],
      "name": "openPosition",
      "outputs": [],
      "stateMutability": "nonpayable",
      "type": "function"
    },
    {
      "inputs": [],
      "name": "priceOracle",
      "outputs": [
        {
          "internalType": "contract IPriceOracle",
          "name": "",
          "type": "address"
        }
      ],
      "stateMutability": "view",
      "type": "function"
    },
    {
      "inputs": [],
      "name": "riskManager",
      "outputs": [
        {
          "internalType": "contract RiskManager",
          "name": "",
          "type": "address"
        }
      ],
      "stateMutability": "view",
      "type": "function"
    },
    {
      "inputs": [
        {
          "internalType": "address",
          "name": "_vault",
          "type": "address"
        }
      ],
      "name": "setVault",
      "outputs": [],
      "stateMutability": "nonpayable",
      "type": "function"
    },
    {
      "inputs": [
        {
          "internalType": "bytes32",
          "name": "marketKey",
          "type": "bytes32"
        },
        {
          "internalType": "address[]",
          "name": "destinations",
          "type": "address[]"
        },
        {
          "internalType": "bytes[]",
          "name": "data",
          "type": "bytes[]"
        }
      ],
      "name": "updatePosition",
      "outputs": [],
      "stateMutability": "nonpayable",
      "type": "function"
    },
    {
      "inputs": [],
      "name": "vault",
      "outputs": [
        {
          "internalType": "contract Vault",
          "name": "",
          "type": "address"
        }
      ],
      "stateMutability": "view",
      "type": "function"
    }
  ],
  "bytecode": {
    "object": "0x60806040523480156200001157600080fd5b50604051620041b7380380620041b7833981016040819052620000349162000095565b6001600055600280546001600160a01b039485166001600160a01b031991821617909155600380549385169382169390931790925560048054919093169116179055620000e9565b6001600160a01b03811681146200009257600080fd5b50565b600080600060608486031215620000ab57600080fd5b8351620000b8816200007c565b6020850151909350620000cb816200007c565b6040850151909250620000de816200007c565b809150509250925092565b6140be80620000f96000396000f3fe60806040523480156200001157600080fd5b5060043610620001755760003560e01c806394b7579711620000d3578063c657328d1162000086578063c657328d1462000376578063f0da5f79146200038c578063f6ba5d1614620003a3578063fb787d011462000209578063fb80a0f114620003ba578063fbfa77cf14620003d157600080fd5b806394b7579714620002bb5780639c498bc314620002e8578063abf410e51462000314578063aec6a8cd1462000328578063b9e41a211462000355578063bc2ca844146200035f57600080fd5b806347842663116200012c57806347842663146200021f5780636817031b1462000233578063734452c914620002095780637536cbf5146200024a578063870c421e146200026d57806390838c8c146200028457600080fd5b806323f5589a146200017a5780632630c12f14620001975780632fb9ba3114620001c45780633192195c14620001db57806337c8df8514620001f257806341ed2c12146200020b575b600080fd5b6200018460065481565b6040519081526020015b60405180910390f35b600454620001ab906001600160a01b031681565b6040516001600160a01b0390911681526020016200018e565b62000184620001d536600462001e71565b620003e5565b62000184620001ec36600462001ea0565b50600190565b620002096200020336600462001ea0565b6200059e565b005b600354620001ab906001600160a01b031681565b600154620001ab906001600160a01b031681565b620002096200024436600462001ea0565b620005d6565b620001846200025b36600462001ea0565b60096020526000908152604090205481565b620001846200027e36600462001ea0565b6200060e565b620002aa6200029536600462001ea0565b60086020526000908152604090205460ff1681565b60405190151581526020016200018e565b620002d2620002cc36600462001ea0565b6200061b565b604080519283526020830191909152016200018e565b620001ab620002f936600462001ea0565b6007602052600090815260409020546001600160a01b031681565b600254620001ab906001600160a01b031681565b620002096200033936600462001e71565b6001600160a01b03909116600090815260096020526040902055565b620001ab6200065b565b6200020962000370366004620020a6565b62000706565b620002096200038736600462002192565b600655565b620002096200039d366004620021ac565b62000919565b62000209620003b4366004620021ac565b62000c36565b62000209620003cb36600462002231565b62000e09565b600554620001ab906001600160a01b031681565b60008281620003f482620017d7565b505090506000620004058662001942565b9050816000036200041d576000935050505062000598565b6200042982866200199c565b935060006001816200043d848284620019b1565b600554604051638cd2e0c760e01b81526001600160a01b038c81166004830152602482018c905260448201889052929350911690638cd2e0c790606401600060405180830381600087803b1580156200049557600080fd5b505af1158015620004aa573d6000803e3d6000fd5b505050506000600560009054906101000a90046001600160a01b03166001600160a01b0316630fce70fb6040518163ffffffff1660e01b8152600401602060405180830381865afa15801562000504573d6000803e3d6000fd5b505050506040513d601f19601f820116820180604052508101906200052a9190620022b2565b6040516301e5f3bb60e21b8152600481018a9052602481018290529091506001600160a01b03881690630797ceec90604401600060405180830381600087803b1580156200057757600080fd5b505af11580156200058c573d6000803e3d6000fd5b50505050505050505050505b92915050565b806001600160a01b038116620005b357600080fd5b50600180546001600160a01b0319166001600160a01b0392909216919091179055565b806001600160a01b038116620005eb57600080fd5b50600580546001600160a01b0319166001600160a01b0392909216919091179055565b6000620005988262001942565b60008060008060006200062e86620017d7565b9196508694509250905081620006458285620022e2565b62000651919062002312565b9350505050915091565b336000908152600760205260408120546001600160a01b0316156200067f57600080fd5b600073e592427a0aece92de3edee1f18e0157c058615649050600081604051620006a99062001e4a565b6001600160a01b039091168152602001604051809103906000f080158015620006d6573d6000803e3d6000fd5b5033600090815260076020526040902080546001600160a01b0319166001600160a01b0383161790559392505050565b33600090815260076020526040808220546001549151631f9d23e360e21b81526001600160a01b03918216939283921690637e748f8c90620007539086908a908a908a9060040162002406565b60408051808303816000875af115801562000772573d6000803e3d6000fd5b505050506040513d601f19601f820116820180604052508101906200079891906200247f565b909250905060008213801590620007af5750600081125b620007d75760405162461bcd60e51b8152600401620007ce90620024a4565b60405180910390fd5b6040516359cbbf4960e01b81526001600160a01b038416906359cbbf4990620008079088908890600401620024ef565b6000604051808303816000875af115801562000827573d6000803e3d6000fd5b505050506040513d6000823e601f3d908101601f1916820160405262000851919081019062002518565b5060008212156200086e576200086c83620001d58462001a65565b505b60005b86518110156200091057836001600160a01b0316634c89b68d8883815181106200089f576200089f6200258f565b60200260200101516040518263ffffffff1660e01b8152600401620008c691815260200190565b600060405180830381600087803b158015620008e157600080fd5b505af1158015620008f6573d6000803e3d6000fd5b5050505080806200090790620025a5565b91505062000871565b50505050505050565b3360009081526007602052604090819020549051630eda11ef60e41b8152600481018590526001600160a01b0390911690819063eda11ef090602401602060405180830381865afa15801562000973573d6000803e3d6000fd5b505050506040513d601f19601f82011682018060405250810190620009999190620025c1565b620009e05760405162461bcd60e51b8152602060048201526016602482015275141bdcda5d1a5bdb88191bd95cdb89dd08195e1a5cdd60521b6044820152606401620007ce565b60015460405163e650e5df60e01b815260009182916001600160a01b039091169063e650e5df9062000a1d9086908a908a908a90600401620025e5565b60408051808303816000875af115801562000a3c573d6000803e3d6000fd5b505050506040513d601f19601f8201168201806040525081019062000a6291906200247f565b604051632cda5af760e11b81526004810189905291935091506001600160a01b038416906359b4b5ee90602401602060405180830381865afa15801562000aad573d6000803e3d6000fd5b505050506040513d601f19601f8201168201806040525081019062000ad39190620022b2565b811462000b175760405162461bcd60e51b8152602060048201526011602482015270496e76616c696420636c6f736520706f7360781b6044820152606401620007ce565b600082131562000b3b5760405162461bcd60e51b8152600401620007ce90620024a4565b600082121562000b575762000b5583620001d58462001a65565b505b6040516359cbbf4960e01b81526001600160a01b038416906359cbbf499062000b879088908890600401620024ef565b6000604051808303816000875af115801562000ba7573d6000803e3d6000fd5b505050506040513d6000823e601f3d908101601f1916820160405262000bd1919081019062002518565b50604051634c89b68d60e01b8152600481018790526001600160a01b03841690634c89b68d90602401600060405180830381600087803b15801562000c1557600080fd5b505af115801562000c2a573d6000803e3d6000fd5b50505050505050505050565b3360009081526007602052604090819020549051630eda11ef60e41b8152600481018590526001600160a01b0390911690819063eda11ef090602401602060405180830381865afa15801562000c90573d6000803e3d6000fd5b505050506040513d601f19601f8201168201806040525081019062000cb69190620025c1565b62000cfd5760405162461bcd60e51b8152602060048201526016602482015275141bdcda5d1a5bdb88191bd95cdb89dd08195e1a5cdd60521b6044820152606401620007ce565b60035460405163382dfc3d60e01b81526004810186905260009182916001600160a01b039091169063382dfc3d906024016040805180830381865afa15801562000d4b573d6000803e3d6000fd5b505050506040513d601f19601f8201168201806040525081019062000d71919062002622565b60405163db386b8d60e01b8152600481018990529093509091506000908190819081906001600160a01b0388169063db386b8d90602401602060405180830381865afa15801562000dc6573d6000803e3d6000fd5b505050506040513d601f19601f8201168201806040525081019062000dec9190620022b2565b9050600062000dfb3362001942565b505050505050505050505050565b600062000e163362001a7e565b604051630eda11ef60e41b8152600481018890529091506001600160a01b0382169063eda11ef090602401602060405180830381865afa15801562000e5f573d6000803e3d6000fd5b505050506040513d601f19601f8201168201806040525081019062000e859190620025c1565b1562000ec85760405162461bcd60e51b815260206004820152601160248201527022bc34b9ba34b733903837b9b4ba34b7b760791b6044820152606401620007ce565b600062000ed58262001942565b6001546040516309f05ac360e31b81529192506000916001600160a01b0390911690634f82d6189062000f199086908c908c908c908c908c908b9060040162002758565b6080604051808303816000875af115801562000f39573d6000803e3d6000fd5b505050506040513d601f19601f8201168201806040525081019062000f5f9190620027ac565b90506000600560009054906101000a90046001600160a01b03166001600160a01b03166338d52e0f6040518163ffffffff1660e01b8152600401602060405180830381865afa15801562000fb7573d6000803e3d6000fd5b505050506040513d601f19601f8201168201806040525081019062000fdd919062002829565b60608301516040516370a0823160e01b81526001600160a01b038781166004830152929350600092909116906370a0823190602401602060405180830381865afa15801562001030573d6000803e3d6000fd5b505050506040513d601f19601f82011682018060405250810190620010569190620022b2565b60045460208501519192506000916001600160a01b039091169063f9a6503090620010819062001a65565b60608701516040516001600160e01b031960e085901b16815260048101929092526001600160a01b03166024820152604401602060405180830381865afa158015620010d1573d6000803e3d6000fd5b505050506040513d601f19601f82011682018060405250810190620010f79190620022b2565b9050620011d484606001516001600160a01b031663313ce5676040518163ffffffff1660e01b8152600401602060405180830381865afa15801562001140573d6000803e3d6000fd5b505050506040513d601f19601f8201168201806040525081019062001166919062002849565b846001600160a01b031663313ce5676040518163ffffffff1660e01b8152600401602060405180830381865afa158015620011a5573d6000803e3d6000fd5b505050506040513d601f19601f82011682018060405250810190620011cb919062002849565b83919062001b08565b9050600084604001511315620012c2576040808501519051631ed13ed960e21b81526001600160a01b03881691637b44fb64916200121f918f91600401918252602082015260400190565b600060405180830381600087803b1580156200123a57600080fd5b505af11580156200124f573d6000803e3d6000fd5b5050505083606001516001600160a01b031684600001516001600160a01b0316876001600160a01b03167fb0797e046414efbd5ce63ce164487caff8e798334b3d78bcc6d07fe58a9de2c687604001516000604051620012b9929190918252602082015260400190565b60405180910390a45b80156200175957856001600160a01b031663bbf9f2a08c620012e48462001b86565b6040516001600160e01b031960e085901b16815260048101929092526024820152604401600060405180830381600087803b1580156200132357600080fd5b505af115801562001338573d6000803e3d6000fd5b5050505083606001516001600160a01b031684600001516001600160a01b0316876001600160a01b03167f156d704551c741711e33916cc713d95238ad73c6f0bca20569242d24599df1a3876020015185604051620013a1929190918252602082015260400190565b60405180910390a460008460200151131562001759576200144062001434600086606001516001600160a01b031663313ce5676040518163ffffffff1660e01b8152600401602060405180830381865afa15801562001404573d6000803e3d6000fd5b505050506040513d601f19601f820116820180604052508101906200142a919062002849565b6064919062001bf2565b60208601519062001cbb565b60208501819052620014529062001a65565b82101562001759576000620014778362001470876020015162001a65565b906200199c565b90506000620015d086606001516001600160a01b031663313ce5676040518163ffffffff1660e01b8152600401602060405180830381865afa158015620014c2573d6000803e3d6000fd5b505050506040513d601f19601f82011682018060405250810190620014e8919062002849565b866001600160a01b031663313ce5676040518163ffffffff1660e01b8152600401602060405180830381865afa15801562001527573d6000803e3d6000fd5b505050506040513d601f19601f820116820180604052508101906200154d919062002849565b6004805460608b0151604051630f9a650360e41b81529283018890526001600160a01b039081166024840152169063f9a6503090604401602060405180830381865afa158015620015a2573d6000803e3d6000fd5b505050506040513d601f19601f82011682018060405250810190620015c89190620022b2565b919062001b08565b6040516370a0823160e01b81526001600160a01b038a811660048301529192506000918716906370a0823190602401602060405180830381865afa1580156200161d573d6000803e3d6000fd5b505050506040513d601f19601f82011682018060405250810190620016439190620022b2565b6200164f90836200286e565b90506200165d898262001cc9565b5086606001516001600160a01b0316866001600160a01b03161462001755576040805160c0810182526001600160a01b03888116825260608a810151821660208401908152838501878152600092850183815260016080870190815260a08701858152975163033c92c560e41b81528751871660048201529351861660248501529151604484015251606483015251151560848201529351821660a48501529192908c16906333c92c509060c4016020604051808303816000875af11580156200172b573d6000803e3d6000fd5b505050506040513d601f19601f82011682018060405250810190620017519190620022b2565b5050505b5050505b6040516359cbbf4960e01b81526001600160a01b038716906359cbbf49906200178d908d908d908d908d9060040162002884565b6000604051808303816000875af1158015620017ad573d6000803e3d6000fd5b505050506040513d6000823e601f3d908101601f1916820160405262000dfb919081019062002518565b6000806000836001600160a01b0316634c19386c6040518163ffffffff1660e01b8152600401602060405180830381865afa1580156200181b573d6000803e3d6000fd5b505050506040513d601f19601f82011682018060405250810190620018419190620022b2565b9250836001600160a01b03166317d11a156040518163ffffffff1660e01b8152600401602060405180830381865afa15801562001882573d6000803e3d6000fd5b505050506040513d601f19601f82011682018060405250810190620018a89190620022b2565b9150600560009054906101000a90046001600160a01b03166001600160a01b0316630fce70fb6040518163ffffffff1660e01b8152600401602060405180830381865afa158015620018fe573d6000803e3d6000fd5b505050506040513d601f19601f82011682018060405250810190620019249190620022b2565b9050600082116200193757600162001939565b815b91509193909250565b6000806000806200195385620017d7565b925092509250826000036200196d57506000949350505050565b82826200197b8383620022e2565b62001987919062002312565b6200199391906200286e565b95945050505050565b6000620019aa82846200286e565b9392505050565b6000808060001985870985870292508281108382030391505080600003620019f057838281620019e557620019e5620022fc565b0492505050620019aa565b808411620019fd57600080fd5b600084868809600260036001881981018916988990049182028318808302840302808302840302808302840302808302840302808302840302918202909203026000889003889004909101858311909403939093029303949094049190911702949350505050565b60008082121562001a7a578160000362000598565b5090565b6001600160a01b0381811660009081526007602052604081205490911662001ae95760405162461bcd60e51b815260206004820152601a60248201527f4d4d3a20496e76616c6964206d617267696e206163636f756e740000000000006044820152606401620007ce565b506001600160a01b039081166000908152600760205260409020541690565b60008160ff168360ff160362001b20575082620019aa565b8160ff168360ff161162001b595762001b5362001b3e8484620028af565b62001b4b90600a620029c8565b859062001e12565b62001b7e565b62001b7e62001b698385620028af565b62001b7690600a620029c8565b859062001e20565b949350505050565b60006001600160ff1b0382111562001a7a5760405162461bcd60e51b815260206004820152602860248201527f53616665436173743a2076616c756520646f65736e27742066697420696e2061604482015267371034b73a191a9b60c11b6064820152608401620007ce565b60008160ff168360ff160362001c0a575082620019aa565b8160ff168360ff16101562001c465762001c3e62001c298484620028af565b62001c3690600a620029c8565b859062001e2e565b9050620019aa565b600062001c548385620028af565b62001c6190600a620029c8565b90506000808612801562001c8b57508162001c7c87620029d9565b62001c889190620029f8565b15155b1562001c9657506000195b600062001cb08262001ca9898662001e3c565b9062001cbb565b979650505050505050565b6000620019aa828462002a0f565b60008281808062001cda84620017d7565b9194509250905062001ced868462002a3a565b9450600062001cfd8388620022e2565b62001d098584620022e2565b62001d15919062002a3a565b8662001d228585620022e2565b62001d2e9190620022e2565b62001d3a919062002312565b600554604051634b8a352960e01b81526001600160a01b038b81166004830152602482018b9052929350911690634b8a352990604401600060405180830381600087803b15801562001d8b57600080fd5b505af115801562001da0573d6000803e3d6000fd5b50506040516301e5f3bb60e21b815260048101899052602481018490526001600160a01b0388169250630797ceec9150604401600060405180830381600087803b15801562001dee57600080fd5b505af115801562001e03573d6000803e3d6000fd5b50505050505050505092915050565b6000620019aa8284620022e2565b6000620019aa828462002312565b6000620019aa828462002a50565b6000620019aa828462002a86565b6115ce8062002abb83390190565b6001600160a01b038116811462001e6e57600080fd5b50565b6000806040838503121562001e8557600080fd5b823562001e928162001e58565b946020939093013593505050565b60006020828403121562001eb357600080fd5b8135620019aa8162001e58565b634e487b7160e01b600052604160045260246000fd5b604051601f8201601f1916810167ffffffffffffffff8111828210171562001f025762001f0262001ec0565b604052919050565b600067ffffffffffffffff82111562001f275762001f2762001ec0565b5060051b60200190565b600082601f83011262001f4357600080fd5b8135602062001f5c62001f568362001f0a565b62001ed6565b82815260059290921b8401810191818101908684111562001f7c57600080fd5b8286015b8481101562001fa457803562001f968162001e58565b835291830191830162001f80565b509695505050505050565b600067ffffffffffffffff82111562001fcc5762001fcc62001ec0565b50601f01601f191660200190565b600082601f83011262001fec57600080fd5b8135602062001fff62001f568362001f0a565b82815260059290921b840181019181810190868411156200201f57600080fd5b8286015b8481101562001fa457803567ffffffffffffffff811115620020455760008081fd5b8701603f81018913620020585760008081fd5b8481013560406200206d62001f568362001faf565b8281528b82848601011115620020835760008081fd5b828285018983013760009281018801929092525084525091830191830162002023565b600080600060608486031215620020bc57600080fd5b833567ffffffffffffffff80821115620020d557600080fd5b818601915086601f830112620020ea57600080fd5b81356020620020fd62001f568362001f0a565b82815260059290921b8401810191818101908a8411156200211d57600080fd5b948201945b838610156200213d5785358252948201949082019062002122565b975050870135925050808211156200215457600080fd5b620021628783880162001f31565b935060408601359150808211156200217957600080fd5b50620021888682870162001fda565b9150509250925092565b600060208284031215620021a557600080fd5b5035919050565b600080600060608486031215620021c257600080fd5b83359250602084013567ffffffffffffffff808211156200215457600080fd5b60008083601f840112620021f557600080fd5b50813567ffffffffffffffff8111156200220e57600080fd5b6020830191508360208260051b85010111156200222a57600080fd5b9250929050565b6000806000806000606086880312156200224a57600080fd5b85359450602086013567ffffffffffffffff808211156200226a57600080fd5b6200227889838a01620021e2565b909650945060408801359150808211156200229257600080fd5b50620022a188828901620021e2565b969995985093965092949392505050565b600060208284031215620022c557600080fd5b5051919050565b634e487b7160e01b600052601160045260246000fd5b8082028115828204841417620005985762000598620022cc565b634e487b7160e01b600052601260045260246000fd5b600082620023245762002324620022fc565b500490565b600081518084526020808501945080840160005b83811015620023645781516001600160a01b0316875295820195908201906001016200233d565b509495945050505050565b60005b838110156200238c57818101518382015260200162002372565b50506000910152565b600081518084526020808501808196508360051b8101915082860160005b85811015620023f957828403895281518051808652620023d9818888018985016200236f565b99860199601f01601f1916949094018501935090840190600101620023b3565b5091979650505050505050565b6001600160a01b0385168152608060208083018290528551918301829052600091868201919060a0850190845b81811015620024515784518352938301939183019160010162002433565b5050848103604086015262002467818862002329565b92505050828103606084015262001cb0818562002395565b600080604083850312156200249357600080fd5b505080516020909101519092909150565b6020808252602b908201527f616464206d617267696e206973206e6f7420616c6c6f77656420696e20636c6f60408201526a39b2903837b9b4ba34b7b760a91b606082015260800190565b60408152600062002504604083018562002329565b828103602084015262001993818562002395565b6000602082840312156200252b57600080fd5b815167ffffffffffffffff8111156200254357600080fd5b8201601f810184136200255557600080fd5b80516200256662001f568262001faf565b8181528560208385010111156200257c57600080fd5b620019938260208301602086016200236f565b634e487b7160e01b600052603260045260246000fd5b600060018201620025ba57620025ba620022cc565b5060010190565b600060208284031215620025d457600080fd5b81518015158114620019aa57600080fd5b60018060a01b03851681528360208201526080604082015260006200260e608083018562002329565b828103606084015262001cb0818562002395565b600080604083850312156200263657600080fd5b8251620026438162001e58565b6020840151909250620026568162001e58565b809150509250929050565b8183526000602080850194508260005b8581101562002364578135620026878162001e58565b6001600160a01b03168752958201959082019060010162002671565b81835281816020850137506000828201602090810191909152601f909101601f19169091010190565b81835260006020808501808196508560051b810191508460005b87811015620023f95782840389528135601e198836030181126200270957600080fd5b8701858101903567ffffffffffffffff8111156200272657600080fd5b8036038213156200273657600080fd5b62002743868284620026a3565b9a87019a9550505090840190600101620026e6565b60018060a01b038816815286602082015260a0604082015260006200278260a08301878962002661565b828103606084015262002797818688620026cc565b91505082608083015298975050505050505050565b600060808284031215620027bf57600080fd5b6040516080810181811067ffffffffffffffff82111715620027e557620027e562001ec0565b6040528251620027f58162001e58565b80825250602083015160208201526040830151604082015260608301516200281d8162001e58565b60608201529392505050565b6000602082840312156200283c57600080fd5b8151620019aa8162001e58565b6000602082840312156200285c57600080fd5b815160ff81168114620019aa57600080fd5b81810381811115620005985762000598620022cc565b6040815260006200289a60408301868862002661565b828103602084015262001cb0818587620026cc565b60ff8281168282160390811115620005985762000598620022cc565b600181815b808511156200290c578160001904821115620028f057620028f0620022cc565b80851615620028fe57918102915b93841c9390800290620028d0565b509250929050565b600082620029255750600162000598565b81620029345750600062000598565b81600181146200294d5760028114620029585762002978565b600191505062000598565b60ff8411156200296c576200296c620022cc565b50506001821b62000598565b5060208310610133831016604e8410600b84101617156200299d575081810a62000598565b620029a98383620028cb565b8060001904821115620029c057620029c0620022cc565b029392505050565b6000620019aa60ff84168362002914565b6000600160ff1b8201620029f157620029f1620022cc565b5060000390565b60008262002a0a5762002a0a620022fc565b500690565b808201828112600083128015821682158216171562002a325762002a32620022cc565b505092915050565b80820180821115620005985762000598620022cc565b80820260008212600160ff1b8414161562002a6f5762002a6f620022cc565b8181058314821517620005985762000598620022cc565b60008262002a985762002a98620022fc565b600160ff1b82146000198414161562002ab55762002ab5620022cc565b50059056fe608060405234801561001057600080fd5b506040516115ce3803806115ce83398101604081905261002f916100b9565b806001600160a01b03811661008a5760405162461bcd60e51b815260206004820152601560248201527f4d413a42616420526f7574657220616464726573730000000000000000000000604482015260640160405180910390fd5b600180546001600160a01b039092166001600160a01b03199283161790556006805490911633179055506100e9565b6000602082840312156100cb57600080fd5b81516001600160a01b03811681146100e257600080fd5b9392505050565b6114d6806100f86000396000f3fe608060405234801561001057600080fd5b50600436106101da5760003560e01c80637b44fb6411610104578063c55dae63116100a2578063eda11ef011610071578063eda11ef01461041a578063f73b858d1461044d578063f887ea401461046d578063fac5e9811461048057600080fd5b8063c55dae63146103f6578063ca96a6a714610409578063cfff340114610412578063db386b8d1461031557600080fd5b8063abf410e5116100de578063abf410e5146103be578063aeccd4b9146103d1578063bbf9f2a0146103da578063c52cee7a146103ed57600080fd5b80637b44fb64146103555780637d1c484d1461038b578063a64b6e5f146103ab57600080fd5b806341ed2c121161017c578063514ea4bf1161014b578063514ea4bf146102e2578063597810341461030257806359b4b5ee1461031557806359cbbf491461033557600080fd5b806341ed2c1214610283578063481cecaa146102965780634c19386c146102a95780634c89b68d146102b157600080fd5b80631fb3b7ac116101b85780631fb3b7ac146102295780632495a59914610232578063272c4a111461025d57806333c92c501461027057600080fd5b80630797ceec146101df57806317d11a15146101fa5780631f7dd4ba14610216575b600080fd5b6101f86101ed366004610e8c565b600991909155600a55565b005b610203600a5481565b6040519081526020015b60405180910390f35b610203610224366004610f19565b610493565b61020360075481565b600b54610245906001600160a01b031681565b6040516001600160a01b03909116815260200161020d565b6101f861026b366004610fbc565b6104fc565b61020361027e366004611003565b610575565b600254610245906001600160a01b031681565b600654610245906001600160a01b031681565b600954610203565b6101f86102bf36600461109e565b6000908152600360209081526040808320805460ff191690556005909152812055565b6102036102f036600461109e565b60056020526000908152604090205481565b6101f86103103660046110b7565b61092c565b61020361032336600461109e565b60009081526005602052604090205490565b610348610343366004611168565b610941565b60405161020d91906112c5565b6101f8610363366004610e8c565b600091825260056020908152604080842092909255600390529020805460ff19166001179055565b6101f8610399366004610e8c565b60009182526005602052604090912055565b6101f86103b93660046110b7565b6109d8565b600054610245906001600160a01b031681565b61020360085481565b6101f86103e8366004610e8c565b6109ec565b61020360095481565b600454610245906001600160a01b031681565b610203600d5481565b600d54610203565b61043d61042836600461109e565b60036020526000908152604090205460ff1681565b604051901515815260200161020d565b61020361045b36600461109e565b600c6020526000908152604090205481565b600154610245906001600160a01b031681565b61034861048e3660046112d8565b610aa5565b8051600090815b818110156104f5576104e16104da600560008785815181106104be576104be611328565b6020026020010151815260200190815260200160002054610ac6565b8490610add565b9250806104ed81611354565b91505061049a565b5050919050565b60405163095ea7b360e01b81526001600160a01b038281166004830152600019602483015283169063095ea7b3906044016020604051808303816000875af115801561054c573d6000803e3d6000fd5b505050506040513d601f19601f82011682018060405250810190610570919061136d565b505050565b80516000906001600160a01b03166105c85760405162461bcd60e51b815260206004820152601160248201527026a09d102a37b5b2b724b71032b93937b960791b60448201526064015b60405180910390fd5b60208201516001600160a01b03166106175760405162461bcd60e51b815260206004820152601260248201527126a09d103a37b5b2b727baba1032b93937b960711b60448201526064016105bf565b8160800151156106f057600082604001511161066c5760405162461bcd60e51b815260206004820152601460248201527326a09d1024b73b30b634b21030b6b7bab73a24b760611b60448201526064016105bf565b8151600154604080850151905163095ea7b360e01b81526001600160a01b039283166004820152602481019190915291169063095ea7b3906044016020604051808303816000875af11580156106c6573d6000803e3d6000fd5b505050506040513d601f19601f820116820180604052508101906106ea919061136d565b506107ce565b600082606001511161074e5760405162461bcd60e51b815260206004820152602160248201527f4d413a20496e76616c6964205f73776170506172616d732e616d6f756e744f756044820152601d60fa1b60648201526084016105bf565b8151600154606084015160405163095ea7b360e01b81526001600160a01b039283166004820152602481019190915291169063095ea7b3906044016020604051808303816000875af11580156107a8573d6000803e3d6000fd5b505050506040513d601f19601f820116820180604052508101906107cc919061136d565b505b606460018360800151156108a857604080516101008101825285516001600160a01b03908116825260208088015182169083015262ffffff8516828401523060608301524260808301528683015160a080840191909152600060c0840152870151811660e0830152600154925163414bf38960e01b81529192169063414bf3899061085d90849060040161138a565b6020604051808303816000875af115801561087c573d6000803e3d6000fd5b505050506040513d601f19601f820116820180604052508101906108a091906113f4565b9350506104f5565b604080516101008101825285516001600160a01b03908116825260208088015182169083015262ffffff8516828401523060608084019190915242608084015287015160a080840191909152600060c0840152870151811660e08301526001549251631b67c43360e31b81529192169063db3e21989061085d90849060040161138a565b6105706001600160a01b038316843084610ae9565b6060600061094e84610b5a565b905060005b8160ff168160ff1610156109ce576109ba848260ff168151811061097957610979611328565b602002602001015187878460ff1681811061099657610996611328565b90506020020160208101906109ab919061140d565b6001600160a01b031690610bbb565b9250806109c68161142a565b915050610953565b50505b9392505050565b6105706001600160a01b0384168383610bfd565b6000828152600c6020526040812054610a059083610c2d565b13610a665760405162461bcd60e51b815260206004820152602b60248201527f4d413a2043616e6e6f742068617665206e65676174697665206d617267696e2060448201526a125b881c1c9bdd1bd8dbdb60aa1b60648201526084016105bf565b600d54610a739082610c2d565b600d556000828152600c6020526040902054610a8f9082610c2d565b6000928352600c60205260409092209190915550565b60606000610abc6001600160a01b03851684610bbb565b9150505b92915050565b600080821215610ad95781600003610ac0565b5090565b60006109d18284611449565b6040516001600160a01b0380851660248301528316604482015260648101829052610b549085906323b872dd60e01b906084015b60408051601f198184030181529190526020810180516001600160e01b03166001600160e01b031990931692909217909152610c39565b50505050565b600060ff821115610ad95760405162461bcd60e51b815260206004820152602560248201527f53616665436173743a2076616c756520646f65736e27742066697420696e2038604482015264206269747360d81b60648201526084016105bf565b60606109d183836040518060400160405280601e81526020017f416464726573733a206c6f772d6c6576656c2063616c6c206661696c65640000815250610d0b565b6040516001600160a01b03831660248201526044810182905261057090849063a9059cbb60e01b90606401610b1d565b60006109d1828461145c565b6000610c8e826040518060400160405280602081526020017f5361666545524332303a206c6f772d6c6576656c2063616c6c206661696c6564815250856001600160a01b0316610d0b9092919063ffffffff16565b8051909150156105705780806020019051810190610cac919061136d565b6105705760405162461bcd60e51b815260206004820152602a60248201527f5361666545524332303a204552433230206f7065726174696f6e20646964206e6044820152691bdd081cdd58d8d9595960b21b60648201526084016105bf565b6060610d1a8484600085610d22565b949350505050565b606082471015610d835760405162461bcd60e51b815260206004820152602660248201527f416464726573733a20696e73756666696369656e742062616c616e636520666f6044820152651c8818d85b1b60d21b60648201526084016105bf565b6001600160a01b0385163b610dda5760405162461bcd60e51b815260206004820152601d60248201527f416464726573733a2063616c6c20746f206e6f6e2d636f6e747261637400000060448201526064016105bf565b600080866001600160a01b03168587604051610df69190611484565b60006040518083038185875af1925050503d8060008114610e33576040519150601f19603f3d011682016040523d82523d6000602084013e610e38565b606091505b5091509150610e48828286610e53565b979650505050505050565b60608315610e625750816109d1565b825115610e725782518084602001fd5b8160405162461bcd60e51b81526004016105bf91906112c5565b60008060408385031215610e9f57600080fd5b50508035926020909101359150565b634e487b7160e01b600052604160045260246000fd5b604051601f8201601f1916810167ffffffffffffffff81118282101715610eed57610eed610eae565b604052919050565b600067ffffffffffffffff821115610f0f57610f0f610eae565b5060051b60200190565b60006020808385031215610f2c57600080fd5b823567ffffffffffffffff811115610f4357600080fd5b8301601f81018513610f5457600080fd5b8035610f67610f6282610ef5565b610ec4565b81815260059190911b82018301908381019087831115610f8657600080fd5b928401925b82841015610e4857833582529284019290840190610f8b565b6001600160a01b0381168114610fb957600080fd5b50565b60008060408385031215610fcf57600080fd5b8235610fda81610fa4565b91506020830135610fea81610fa4565b809150509250929050565b8015158114610fb957600080fd5b600060c0828403121561101557600080fd5b60405160c0810181811067ffffffffffffffff8211171561103857611038610eae565b604052823561104681610fa4565b8152602083013561105681610fa4565b806020830152506040830135604082015260608301356060820152608083013561107f81610ff5565b608082015260a083013561109281610fa4565b60a08201529392505050565b6000602082840312156110b057600080fd5b5035919050565b6000806000606084860312156110cc57600080fd5b83356110d781610fa4565b925060208401356110e781610fa4565b929592945050506040919091013590565b600082601f83011261110957600080fd5b813567ffffffffffffffff81111561112357611123610eae565b611136601f8201601f1916602001610ec4565b81815284602083860101111561114b57600080fd5b816020850160208301376000918101602001919091529392505050565b60008060006040848603121561117d57600080fd5b833567ffffffffffffffff8082111561119557600080fd5b818601915086601f8301126111a957600080fd5b8135818111156111b857600080fd5b602088818360051b86010111156111ce57600080fd5b8084019650819550808801359350828411156111e957600080fd5b838801935088601f8501126111fd57600080fd5b8335915061120d610f6283610ef5565b82815260059290921b8401810191818101908a84111561122c57600080fd5b8286015b84811015611264578035868111156112485760008081fd5b6112568d86838b01016110f8565b845250918301918301611230565b508096505050505050509250925092565b60005b83811015611290578181015183820152602001611278565b50506000910152565b600081518084526112b1816020860160208601611275565b601f01601f19169290920160200192915050565b6020815260006109d16020830184611299565b600080604083850312156112eb57600080fd5b82356112f681610fa4565b9150602083013567ffffffffffffffff81111561131257600080fd5b61131e858286016110f8565b9150509250929050565b634e487b7160e01b600052603260045260246000fd5b634e487b7160e01b600052601160045260246000fd5b6000600182016113665761136661133e565b5060010190565b60006020828403121561137f57600080fd5b81516109d181610ff5565b6101008101610ac0828480516001600160a01b03908116835260208083015182169084015260408083015162ffffff16908401526060808301518216908401526080808301519084015260a0828101519084015260c0808301519084015260e09182015116910152565b60006020828403121561140657600080fd5b5051919050565b60006020828403121561141f57600080fd5b81356109d181610fa4565b600060ff821660ff81036114405761144061133e565b60010192915050565b80820180821115610ac057610ac061133e565b808201828112600083128015821682158216171561147c5761147c61133e565b505092915050565b60008251611496818460208701611275565b919091019291505056fea26469706673582212201e142af8947e3068e94f41d9a0e9bb327272c9235da6bdb4116a4809bfcfa79664736f6c63430008110033a26469706673582212205a96641df3320a6b8f7e11ed2e299c6ad43db130969957a649d2deaff9769c8464736f6c63430008110033",
    "linkReferences": {}
  },
  "methodIdentifiers": {
    "RemoveCollateral()": "734452c9",
    "SetCollatralRatio(address,uint256)": "aec6a8cd",
    "SetPenalty(uint256)": "c657328d",
    "SetRiskManager(address)": "37c8df85",
    "allowedUnderlyingTokens(address)": "90838c8c",
    "calcCreditAccountAccruedInterest(address)": "3192195c",
    "calcMarginAccountAccruedInterest(address)": "94b75797",
    "closeMarginAccount()": "fb787d01",
    "closePosition(bytes32,address[],bytes[])": "f0da5f79",
    "collatralRatio(address)": "7536cbf5",
    "contractRegistry()": "abf410e5",
    "decreaseDebt(address,uint256)": "2fb9ba31",
    "getInterestAccrued(address)": "870c421e",
    "liquidate(bytes32[],address[],bytes[])": "bc2ca844",
    "liquidationPenalty()": "23f5589a",
    "marginAccounts(address)": "9c498bc3",
    "marketManager()": "41ed2c12",
    "openMarginAccount()": "b9e41a21",
    "openPosition(bytes32,address[],bytes[])": "fb80a0f1",
    "priceOracle()": "2630c12f",
    "riskManager()": "47842663",
    "setVault(address)": "6817031b",
    "updatePosition(bytes32,address[],bytes[])": "f6ba5d16",
    "vault()": "fbfa77cf"
  },
  "id": 41
}