{
  "abi": [
    {
      "inputs": [
        {
          "internalType": "contract IContractRegistry",
          "name": "_contractRegistry",
          "type": "address"
        },
        {
          "internalType": "contract IMarketManager",
          "name": "_marketManager",
          "type": "address"
        },
        {
          "internalType": "contract IPriceOracle",
          "name": "_priceOracle",
          "type": "address"
        }
      ],
      "stateMutability": "nonpayable",
      "type": "constructor"
    },
    {
      "anonymous": false,
      "inputs": [
        {
          "indexed": true,
          "internalType": "address",
          "name": "",
          "type": "address"
        },
        {
          "indexed": true,
          "internalType": "address",
          "name": "",
          "type": "address"
        }
      ],
      "name": "MarginAccountClosed",
      "type": "event"
    },
    {
      "anonymous": false,
      "inputs": [
        {
          "indexed": true,
          "internalType": "address",
          "name": "",
          "type": "address"
        },
        {
          "indexed": true,
          "internalType": "address",
          "name": "",
          "type": "address"
        }
      ],
      "name": "MarginAccountLiquidated",
      "type": "event"
    },
    {
      "anonymous": false,
      "inputs": [
        {
          "indexed": true,
          "internalType": "address",
          "name": "",
          "type": "address"
        },
        {
          "indexed": true,
          "internalType": "address",
          "name": "",
          "type": "address"
        }
      ],
      "name": "MarginAccountOpened",
      "type": "event"
    },
    {
      "anonymous": false,
      "inputs": [
        {
          "indexed": true,
          "internalType": "address",
          "name": "",
          "type": "address"
        },
        {
          "indexed": true,
          "internalType": "address",
          "name": "",
          "type": "address"
        },
        {
          "indexed": true,
          "internalType": "address",
          "name": "",
          "type": "address"
        },
        {
          "indexed": false,
          "internalType": "int256",
          "name": "",
          "type": "int256"
        },
        {
          "indexed": false,
          "internalType": "uint256",
          "name": "",
          "type": "uint256"
        }
      ],
      "name": "MarginTransferred",
      "type": "event"
    },
    {
      "anonymous": false,
      "inputs": [
        {
          "indexed": true,
          "internalType": "address",
          "name": "",
          "type": "address"
        },
        {
          "indexed": true,
          "internalType": "address",
          "name": "",
          "type": "address"
        },
        {
          "indexed": true,
          "internalType": "address",
          "name": "",
          "type": "address"
        },
        {
          "indexed": false,
          "internalType": "int256",
          "name": "",
          "type": "int256"
        },
        {
          "indexed": false,
          "internalType": "uint256",
          "name": "",
          "type": "uint256"
        }
      ],
      "name": "PositionAdded",
      "type": "event"
    },
    {
      "anonymous": false,
      "inputs": [
        {
          "indexed": true,
          "internalType": "address",
          "name": "",
          "type": "address"
        },
        {
          "indexed": true,
          "internalType": "address",
          "name": "",
          "type": "address"
        },
        {
          "indexed": true,
          "internalType": "address",
          "name": "",
          "type": "address"
        },
        {
          "indexed": false,
          "internalType": "uint256",
          "name": "",
          "type": "uint256"
        },
        {
          "indexed": false,
          "internalType": "uint256",
          "name": "",
          "type": "uint256"
        }
      ],
      "name": "PositionRemoved",
      "type": "event"
    },
    {
      "anonymous": false,
      "inputs": [
        {
          "indexed": true,
          "internalType": "address",
          "name": "",
          "type": "address"
        },
        {
          "indexed": true,
          "internalType": "address",
          "name": "",
          "type": "address"
        },
        {
          "indexed": true,
          "internalType": "address",
          "name": "",
          "type": "address"
        },
        {
          "indexed": false,
          "internalType": "uint256",
          "name": "",
          "type": "uint256"
        },
        {
          "indexed": false,
          "internalType": "uint256",
          "name": "",
          "type": "uint256"
        }
      ],
      "name": "PositionUpdated",
      "type": "event"
    },
    {
      "inputs": [],
      "name": "RemoveCollateral",
      "outputs": [],
      "stateMutability": "nonpayable",
      "type": "function"
    },
    {
      "inputs": [
        {
          "internalType": "address",
          "name": "token",
          "type": "address"
        },
        {
          "internalType": "uint256",
          "name": "value",
          "type": "uint256"
        }
      ],
      "name": "SetCollatralRatio",
      "outputs": [],
      "stateMutability": "nonpayable",
      "type": "function"
    },
    {
      "inputs": [
        {
          "internalType": "uint256",
          "name": "value",
          "type": "uint256"
        }
      ],
      "name": "SetPenalty",
      "outputs": [],
      "stateMutability": "nonpayable",
      "type": "function"
    },
    {
      "inputs": [
        {
          "internalType": "address",
          "name": "_riskmgr",
          "type": "address"
        }
      ],
      "name": "SetRiskManager",
      "outputs": [],
      "stateMutability": "nonpayable",
      "type": "function"
    },
    {
      "inputs": [
        {
          "internalType": "address",
          "name": "",
          "type": "address"
        }
      ],
      "name": "allowedUnderlyingTokens",
      "outputs": [
        {
          "internalType": "bool",
          "name": "",
          "type": "bool"
        }
      ],
      "stateMutability": "view",
      "type": "function"
    },
    {
      "inputs": [
        {
          "internalType": "address",
          "name": "marginacc",
          "type": "address"
        }
      ],
      "name": "calcCreditAccountAccruedInterest",
      "outputs": [
        {
          "internalType": "uint256",
          "name": "",
          "type": "uint256"
        }
      ],
      "stateMutability": "view",
      "type": "function"
    },
    {
      "inputs": [
        {
          "internalType": "address",
          "name": "_marginAccount",
          "type": "address"
        }
      ],
      "name": "calcMarginAccountAccruedInterest",
      "outputs": [
        {
          "internalType": "uint256",
          "name": "borrowedAmount",
          "type": "uint256"
        },
        {
          "internalType": "uint256",
          "name": "borrowedAmountWithInterest",
          "type": "uint256"
        }
      ],
      "stateMutability": "view",
      "type": "function"
    },
    {
      "inputs": [],
      "name": "closeMarginAccount",
      "outputs": [],
      "stateMutability": "nonpayable",
      "type": "function"
    },
    {
      "inputs": [
        {
          "internalType": "bytes32",
          "name": "marketKey",
          "type": "bytes32"
        },
        {
          "internalType": "address[]",
          "name": "destinations",
          "type": "address[]"
        },
        {
          "internalType": "bytes[]",
          "name": "data",
          "type": "bytes[]"
        }
      ],
      "name": "closePosition",
      "outputs": [],
      "stateMutability": "nonpayable",
      "type": "function"
    },
    {
      "inputs": [
        {
          "internalType": "address",
          "name": "",
          "type": "address"
        }
      ],
      "name": "collatralRatio",
      "outputs": [
        {
          "internalType": "uint256",
          "name": "",
          "type": "uint256"
        }
      ],
      "stateMutability": "view",
      "type": "function"
    },
    {
      "inputs": [],
      "name": "contractRegistry",
      "outputs": [
        {
          "internalType": "contract IContractRegistry",
          "name": "",
          "type": "address"
        }
      ],
      "stateMutability": "view",
      "type": "function"
    },
    {
      "inputs": [
        {
          "internalType": "address",
          "name": "marginAcc",
          "type": "address"
        },
        {
          "internalType": "uint256",
          "name": "amount",
          "type": "uint256"
        }
      ],
      "name": "decreaseDebt",
      "outputs": [
        {
          "internalType": "uint256",
          "name": "newBorrowedAmount",
          "type": "uint256"
        }
      ],
      "stateMutability": "nonpayable",
      "type": "function"
    },
    {
      "inputs": [
        {
          "internalType": "address",
          "name": "marginAccount",
          "type": "address"
        }
      ],
      "name": "getInterestAccrued",
      "outputs": [
        {
          "internalType": "uint256",
          "name": "",
          "type": "uint256"
        }
      ],
      "stateMutability": "view",
      "type": "function"
    },
    {
      "inputs": [
        {
          "internalType": "bytes32[]",
          "name": "marketKeys",
          "type": "bytes32[]"
        },
        {
          "internalType": "address[]",
          "name": "destinations",
          "type": "address[]"
        },
        {
          "internalType": "bytes[]",
          "name": "data",
          "type": "bytes[]"
        }
      ],
      "name": "liquidate",
      "outputs": [],
      "stateMutability": "nonpayable",
      "type": "function"
    },
    {
      "inputs": [],
      "name": "liquidationPenalty",
      "outputs": [
        {
          "internalType": "uint256",
          "name": "",
          "type": "uint256"
        }
      ],
      "stateMutability": "view",
      "type": "function"
    },
    {
      "inputs": [
        {
          "internalType": "address",
          "name": "",
          "type": "address"
        }
      ],
      "name": "marginAccounts",
      "outputs": [
        {
          "internalType": "address",
          "name": "",
          "type": "address"
        }
      ],
      "stateMutability": "view",
      "type": "function"
    },
    {
      "inputs": [],
      "name": "marketManager",
      "outputs": [
        {
          "internalType": "contract IMarketManager",
          "name": "",
          "type": "address"
        }
      ],
      "stateMutability": "view",
      "type": "function"
    },
    {
      "inputs": [],
      "name": "openMarginAccount",
      "outputs": [
        {
          "internalType": "address",
          "name": "",
          "type": "address"
        }
      ],
      "stateMutability": "nonpayable",
      "type": "function"
    },
    {
      "inputs": [
        {
          "internalType": "bytes32",
          "name": "marketKey",
          "type": "bytes32"
        },
        {
          "internalType": "address[]",
          "name": "destinations",
          "type": "address[]"
        },
        {
          "internalType": "bytes[]",
          "name": "data",
          "type": "bytes[]"
        }
      ],
      "name": "openPosition",
      "outputs": [],
      "stateMutability": "nonpayable",
      "type": "function"
    },
    {
      "inputs": [],
      "name": "priceOracle",
      "outputs": [
        {
          "internalType": "contract IPriceOracle",
          "name": "",
          "type": "address"
        }
      ],
      "stateMutability": "view",
      "type": "function"
    },
    {
      "inputs": [],
      "name": "riskManager",
      "outputs": [
        {
          "internalType": "contract RiskManager",
          "name": "",
          "type": "address"
        }
      ],
      "stateMutability": "view",
      "type": "function"
    },
    {
      "inputs": [
        {
          "internalType": "address",
          "name": "_vault",
          "type": "address"
        }
      ],
      "name": "setVault",
      "outputs": [],
      "stateMutability": "nonpayable",
      "type": "function"
    },
    {
      "inputs": [
        {
          "internalType": "bytes32",
          "name": "marketKey",
          "type": "bytes32"
        },
        {
          "internalType": "address[]",
          "name": "destinations",
          "type": "address[]"
        },
        {
          "internalType": "bytes[]",
          "name": "data",
          "type": "bytes[]"
        }
      ],
      "name": "updatePosition",
      "outputs": [],
      "stateMutability": "nonpayable",
      "type": "function"
    },
    {
      "inputs": [],
      "name": "vault",
      "outputs": [
        {
          "internalType": "contract Vault",
          "name": "",
          "type": "address"
        }
      ],
      "stateMutability": "view",
      "type": "function"
    }
  ],
  "bytecode": {
    "object": "0x60806040523480156200001157600080fd5b506040516200426938038062004269833981016040819052620000349162000095565b6001600055600280546001600160a01b039485166001600160a01b031991821617909155600380549385169382169390931790925560048054919093169116179055620000e9565b6001600160a01b03811681146200009257600080fd5b50565b600080600060608486031215620000ab57600080fd5b8351620000b8816200007c565b6020850151909350620000cb816200007c565b6040850151909250620000de816200007c565b809150509250925092565b61417080620000f96000396000f3fe60806040523480156200001157600080fd5b5060043610620001755760003560e01c806394b7579711620000d3578063c657328d1162000086578063c657328d1462000376578063f0da5f79146200038c578063f6ba5d1614620003a3578063fb787d011462000209578063fb80a0f114620003ba578063fbfa77cf14620003d157600080fd5b806394b7579714620002bb5780639c498bc314620002e8578063abf410e51462000314578063aec6a8cd1462000328578063b9e41a211462000355578063bc2ca844146200035f57600080fd5b806347842663116200012c57806347842663146200021f5780636817031b1462000233578063734452c914620002095780637536cbf5146200024a578063870c421e146200026d57806390838c8c146200028457600080fd5b806323f5589a146200017a5780632630c12f14620001975780632fb9ba3114620001c45780633192195c14620001db57806337c8df8514620001f257806341ed2c12146200020b575b600080fd5b6200018460065481565b6040519081526020015b60405180910390f35b600454620001ab906001600160a01b031681565b6040516001600160a01b0390911681526020016200018e565b62000184620001d536600462001f9d565b620003e5565b62000184620001ec36600462001fcc565b50600190565b620002096200020336600462001fcc565b6200059e565b005b600354620001ab906001600160a01b031681565b600154620001ab906001600160a01b031681565b620002096200024436600462001fcc565b620005d6565b620001846200025b36600462001fcc565b60096020526000908152604090205481565b620001846200027e36600462001fcc565b6200060e565b620002aa6200029536600462001fcc565b60086020526000908152604090205460ff1681565b60405190151581526020016200018e565b620002d2620002cc36600462001fcc565b6200061b565b604080519283526020830191909152016200018e565b620001ab620002f936600462001fcc565b6007602052600090815260409020546001600160a01b031681565b600254620001ab906001600160a01b031681565b620002096200033936600462001f9d565b6001600160a01b03909116600090815260096020526040902055565b620001ab6200065b565b6200020962000370366004620021d2565b62000706565b6200020962000387366004620022be565b600655565b620002096200039d366004620022d8565b62000919565b62000209620003b4366004620022d8565b62000c36565b62000209620003cb3660046200235d565b62000e09565b600554620001ab906001600160a01b031681565b60008281620003f48262001938565b505090506000620004058662001aa3565b9050816000036200041d576000935050505062000598565b62000429828662001afd565b935060006001816200043d84828462001b12565b600554604051638cd2e0c760e01b81526001600160a01b038c81166004830152602482018c905260448201889052929350911690638cd2e0c790606401600060405180830381600087803b1580156200049557600080fd5b505af1158015620004aa573d6000803e3d6000fd5b505050506000600560009054906101000a90046001600160a01b03166001600160a01b0316630fce70fb6040518163ffffffff1660e01b8152600401602060405180830381865afa15801562000504573d6000803e3d6000fd5b505050506040513d601f19601f820116820180604052508101906200052a9190620023de565b6040516301e5f3bb60e21b8152600481018a9052602481018290529091506001600160a01b03881690630797ceec90604401600060405180830381600087803b1580156200057757600080fd5b505af11580156200058c573d6000803e3d6000fd5b50505050505050505050505b92915050565b806001600160a01b038116620005b357600080fd5b50600180546001600160a01b0319166001600160a01b0392909216919091179055565b806001600160a01b038116620005eb57600080fd5b50600580546001600160a01b0319166001600160a01b0392909216919091179055565b6000620005988262001aa3565b60008060008060006200062e8662001938565b91965086945092509050816200064582856200240e565b6200065191906200243e565b9350505050915091565b336000908152600760205260408120546001600160a01b0316156200067f57600080fd5b600073e592427a0aece92de3edee1f18e0157c058615649050600081604051620006a99062001f79565b6001600160a01b039091168152602001604051809103906000f080158015620006d6573d6000803e3d6000fd5b5033600090815260076020526040902080546001600160a01b0319166001600160a01b0383161790559392505050565b33600090815260076020526040808220546001549151631f9d23e360e21b81526001600160a01b03918216939283921690637e748f8c90620007539086908a908a908a9060040162002554565b60408051808303816000875af115801562000772573d6000803e3d6000fd5b505050506040513d601f19601f82011682018060405250810190620007989190620025d8565b909250905060008213801590620007af5750600081125b620007d75760405162461bcd60e51b8152600401620007ce90620025fd565b60405180910390fd5b6040516359cbbf4960e01b81526001600160a01b038416906359cbbf499062000807908890889060040162002648565b6000604051808303816000875af115801562000827573d6000803e3d6000fd5b505050506040513d6000823e601f3d908101601f1916820160405262000851919081019062002671565b5060008212156200086e576200086c83620001d58462001bc6565b505b60005b86518110156200091057836001600160a01b0316634c89b68d8883815181106200089f576200089f620026e8565b60200260200101516040518263ffffffff1660e01b8152600401620008c691815260200190565b600060405180830381600087803b158015620008e157600080fd5b505af1158015620008f6573d6000803e3d6000fd5b5050505080806200090790620026fe565b91505062000871565b50505050505050565b3360009081526007602052604090819020549051630eda11ef60e41b8152600481018590526001600160a01b0390911690819063eda11ef090602401602060405180830381865afa15801562000973573d6000803e3d6000fd5b505050506040513d601f19601f820116820180604052508101906200099991906200271a565b620009e05760405162461bcd60e51b8152602060048201526016602482015275141bdcda5d1a5bdb88191bd95cdb89dd08195e1a5cdd60521b6044820152606401620007ce565b60015460405163e650e5df60e01b815260009182916001600160a01b039091169063e650e5df9062000a1d9086908a908a908a906004016200273e565b60408051808303816000875af115801562000a3c573d6000803e3d6000fd5b505050506040513d601f19601f8201168201806040525081019062000a629190620025d8565b604051632cda5af760e11b81526004810189905291935091506001600160a01b038416906359b4b5ee90602401602060405180830381865afa15801562000aad573d6000803e3d6000fd5b505050506040513d601f19601f8201168201806040525081019062000ad39190620023de565b811462000b175760405162461bcd60e51b8152602060048201526011602482015270496e76616c696420636c6f736520706f7360781b6044820152606401620007ce565b600082131562000b3b5760405162461bcd60e51b8152600401620007ce90620025fd565b600082121562000b575762000b5583620001d58462001bc6565b505b6040516359cbbf4960e01b81526001600160a01b038416906359cbbf499062000b87908890889060040162002648565b6000604051808303816000875af115801562000ba7573d6000803e3d6000fd5b505050506040513d6000823e601f3d908101601f1916820160405262000bd1919081019062002671565b50604051634c89b68d60e01b8152600481018790526001600160a01b03841690634c89b68d90602401600060405180830381600087803b15801562000c1557600080fd5b505af115801562000c2a573d6000803e3d6000fd5b50505050505050505050565b3360009081526007602052604090819020549051630eda11ef60e41b8152600481018590526001600160a01b0390911690819063eda11ef090602401602060405180830381865afa15801562000c90573d6000803e3d6000fd5b505050506040513d601f19601f8201168201806040525081019062000cb691906200271a565b62000cfd5760405162461bcd60e51b8152602060048201526016602482015275141bdcda5d1a5bdb88191bd95cdb89dd08195e1a5cdd60521b6044820152606401620007ce565b60035460405163382dfc3d60e01b81526004810186905260009182916001600160a01b039091169063382dfc3d906024016040805180830381865afa15801562000d4b573d6000803e3d6000fd5b505050506040513d601f19601f8201168201806040525081019062000d7191906200277b565b60405163db386b8d60e01b8152600481018990529093509091506000908190819081906001600160a01b0388169063db386b8d90602401602060405180830381865afa15801562000dc6573d6000803e3d6000fd5b505050506040513d601f19601f8201168201806040525081019062000dec9190620023de565b9050600062000dfb3362001aa3565b505050505050505050505050565b600062000e163362001bdf565b604051630eda11ef60e41b8152600481018890529091506001600160a01b0382169063eda11ef090602401602060405180830381865afa15801562000e5f573d6000803e3d6000fd5b505050506040513d601f19601f8201168201806040525081019062000e8591906200271a565b1562000ec85760405162461bcd60e51b815260206004820152601160248201527022bc34b9ba34b733903837b9b4ba34b7b760791b6044820152606401620007ce565b6001546000906001600160a01b0316634f82d61883898989898962000eed8662001aa3565b6040518863ffffffff1660e01b815260040162000f119796959493929190620028b1565b6080604051808303816000875af115801562000f31573d6000803e3d6000fd5b505050506040513d601f19601f8201168201806040525081019062000f57919062002905565b90506000600560009054906101000a90046001600160a01b03166001600160a01b03166338d52e0f6040518163ffffffff1660e01b8152600401602060405180830381865afa15801562000faf573d6000803e3d6000fd5b505050506040513d601f19601f8201168201806040525081019062000fd5919062002982565b60045460208401519192506000916001600160a01b039091169063f9a6503090620010009062001bc6565b60608601516040516001600160e01b031960e085901b16815260048101929092526001600160a01b03166024820152604401602060405180830381865afa15801562001050573d6000803e3d6000fd5b505050506040513d601f19601f82011682018060405250810190620010769190620023de565b90506200115383606001516001600160a01b031663313ce5676040518163ffffffff1660e01b8152600401602060405180830381865afa158015620010bf573d6000803e3d6000fd5b505050506040513d601f19601f82011682018060405250810190620010e59190620029a2565b836001600160a01b031663313ce5676040518163ffffffff1660e01b8152600401602060405180830381865afa15801562001124573d6000803e3d6000fd5b505050506040513d601f19601f820116820180604052508101906200114a9190620029a2565b83919062001c69565b90506000836040015113156200127f57620011926040518060400160405280600c81526020016b706f736974696f6e53697a6560a01b81525062001ce7565b620011a1836040015162001d31565b6040808401519051631ed13ed960e21b81526001600160a01b03861691637b44fb6491620011dc918d91600401918252602082015260400190565b600060405180830381600087803b158015620011f757600080fd5b505af11580156200120c573d6000803e3d6000fd5b5050505082606001516001600160a01b031683600001516001600160a01b0316856001600160a01b03167fb0797e046414efbd5ce63ce164487caff8e798334b3d78bcc6d07fe58a9de2c68660400151600060405162001276929190918252602082015260400190565b60405180910390a45b8015620018ba57836001600160a01b031663bbf9f2a08a620012a18462001d79565b6040516001600160e01b031960e085901b16815260048101929092526024820152604401600060405180830381600087803b158015620012e057600080fd5b505af1158015620012f5573d6000803e3d6000fd5b5050505082606001516001600160a01b031683600001516001600160a01b0316856001600160a01b03167f156d704551c741711e33916cc713d95238ad73c6f0bca20569242d24599df1a38660200151856040516200135e929190918252602082015260400190565b60405180910390a4600083602001511315620018ba5760608301516040516370a0823160e01b81526001600160a01b03868116600483015260009216906370a0823190602401602060405180830381865afa158015620013c2573d6000803e3d6000fd5b505050506040513d601f19601f82011682018060405250810190620013e89190620023de565b9050620013f9846020015162001bc6565b811015620018b85760006200141e8262001417876020015162001bc6565b9062001afd565b905060006200157786606001516001600160a01b031663313ce5676040518163ffffffff1660e01b8152600401602060405180830381865afa15801562001469573d6000803e3d6000fd5b505050506040513d601f19601f820116820180604052508101906200148f9190620029a2565b866001600160a01b031663313ce5676040518163ffffffff1660e01b8152600401602060405180830381865afa158015620014ce573d6000803e3d6000fd5b505050506040513d601f19601f82011682018060405250810190620014f49190620029a2565b6004805460608b0151604051630f9a650360e41b81529283018890526001600160a01b039081166024840152169063f9a6503090604401602060405180830381865afa15801562001549573d6000803e3d6000fd5b505050506040513d601f19601f820116820180604052508101906200156f9190620023de565b919062001c69565b6040516370a0823160e01b81526001600160a01b038981166004830152919250908616906370a0823190602401602060405180830381865afa158015620015c2573d6000803e3d6000fd5b505050506040513d601f19601f82011682018060405250810190620015e89190620023de565b811115620016f957620016f787620016f16200166f6000896001600160a01b031663313ce5676040518163ffffffff1660e01b8152600401602060405180830381865afa1580156200163e573d6000803e3d6000fd5b505050506040513d601f19601f82011682018060405250810190620016649190620029a2565b6101f4919062001c69565b6040516370a0823160e01b81526001600160a01b038c81166004830152620016ea91908b16906370a0823190602401602060405180830381865afa158015620016bc573d6000803e3d6000fd5b505050506040513d601f19601f82011682018060405250810190620016e29190620023de565b869062001afd565b9062001de5565b62001df3565b505b85606001516001600160a01b0316856001600160a01b031614620018b55760006040518060e00160405280876001600160a01b0316815260200188606001516001600160a01b03168152602001620017976200178f60008a6001600160a01b031663313ce5676040518163ffffffff1660e01b8152600401602060405180830381865afa1580156200163e573d6000803e3d6000fd5b859062001de5565b8152600060208083018290526001604080850191909152606080850184905260809485018990528151630882db7b60e21b815286516001600160a01b03908116600483015293870151841660248201529186015160448301528501516064820152928401511515608484015260a0840151811660a484015260c084015160c4840152929350918a169063220b6dec9060e4016020604051808303816000875af115801562001849573d6000803e3d6000fd5b505050506040513d601f19601f820116820180604052508101906200186f9190620023de565b905083811015620018b25760405162461bcd60e51b815260206004820152600c60248201526b0524d3a2042616420537761760a41b6044820152606401620007ce565b50505b50505b505b6040516359cbbf4960e01b81526001600160a01b038516906359cbbf4990620018ee908b908b908b908b90600401620029c7565b6000604051808303816000875af11580156200190e573d6000803e3d6000fd5b505050506040513d6000823e601f3d908101601f1916820160405262000c2a919081019062002671565b6000806000836001600160a01b0316634c19386c6040518163ffffffff1660e01b8152600401602060405180830381865afa1580156200197c573d6000803e3d6000fd5b505050506040513d601f19601f82011682018060405250810190620019a29190620023de565b9250836001600160a01b03166317d11a156040518163ffffffff1660e01b8152600401602060405180830381865afa158015620019e3573d6000803e3d6000fd5b505050506040513d601f19601f8201168201806040525081019062001a099190620023de565b9150600560009054906101000a90046001600160a01b03166001600160a01b0316630fce70fb6040518163ffffffff1660e01b8152600401602060405180830381865afa15801562001a5f573d6000803e3d6000fd5b505050506040513d601f19601f8201168201806040525081019062001a859190620023de565b90506000821162001a9857600162001a9a565b815b91509193909250565b60008060008062001ab48562001938565b9250925092508260000362001ace57506000949350505050565b828262001adc83836200240e565b62001ae891906200243e565b62001af49190620029f2565b95945050505050565b600062001b0b8284620029f2565b9392505050565b600080806000198587098587029250828110838203039150508060000362001b515783828162001b465762001b4662002428565b049250505062001b0b565b80841162001b5e57600080fd5b600084868809600260036001881981018916988990049182028318808302840302808302840302808302840302808302840302808302840302918202909203026000889003889004909101858311909403939093029303949094049190911702949350505050565b60008082121562001bdb578160000362000598565b5090565b6001600160a01b0381811660009081526007602052604081205490911662001c4a5760405162461bcd60e51b815260206004820152601a60248201527f4d4d3a20496e76616c6964206d617267696e206163636f756e740000000000006044820152606401620007ce565b506001600160a01b039081166000908152600760205260409020541690565b60008160ff168360ff160362001c8157508262001b0b565b8160ff168360ff161162001cba5762001cb462001c9f848462002a08565b62001cac90600a62002b21565b859062001f3c565b62001cdf565b62001cdf62001cca838562002a08565b62001cd790600a62002b21565b859062001f4a565b949350505050565b62001d2e8160405160240162001cfe919062002b32565b60408051601f198184030181529190526020810180516001600160e01b031663104c13eb60e21b17905262001f58565b50565b62001d2e8160405160240162001d4991815260200190565b60408051601f198184030181529190526020810180516001600160e01b0316632d5b6cb960e01b17905262001f58565b60006001600160ff1b0382111562001bdb5760405162461bcd60e51b815260206004820152602860248201527f53616665436173743a2076616c756520646f65736e27742066697420696e2061604482015267371034b73a191a9b60c11b6064820152608401620007ce565b600062001b0b828462002b47565b60008281808062001e048462001938565b9194509250905062001e17868462002b47565b9450600062001e2783886200240e565b62001e3385846200240e565b62001e3f919062002b47565b8662001e4c85856200240e565b62001e5891906200240e565b62001e6491906200243e565b600554604051634b8a352960e01b81526001600160a01b038b81166004830152602482018b9052929350911690634b8a352990604401600060405180830381600087803b15801562001eb557600080fd5b505af115801562001eca573d6000803e3d6000fd5b50506040516301e5f3bb60e21b815260048101899052602481018490526001600160a01b0388169250630797ceec9150604401600060405180830381600087803b15801562001f1857600080fd5b505af115801562001f2d573d6000803e3d6000fd5b50505050505050505092915050565b600062001b0b82846200240e565b600062001b0b82846200243e565b80516a636f6e736f6c652e6c6f67602083016000808483855afa5050505050565b6115dd8062002b5e83390190565b6001600160a01b038116811462001d2e57600080fd5b6000806040838503121562001fb157600080fd5b823562001fbe8162001f87565b946020939093013593505050565b60006020828403121562001fdf57600080fd5b813562001b0b8162001f87565b634e487b7160e01b600052604160045260246000fd5b604051601f8201601f1916810167ffffffffffffffff811182821017156200202e576200202e62001fec565b604052919050565b600067ffffffffffffffff82111562002053576200205362001fec565b5060051b60200190565b600082601f8301126200206f57600080fd5b8135602062002088620020828362002036565b62002002565b82815260059290921b84018101918181019086841115620020a857600080fd5b8286015b84811015620020d0578035620020c28162001f87565b8352918301918301620020ac565b509695505050505050565b600067ffffffffffffffff821115620020f857620020f862001fec565b50601f01601f191660200190565b600082601f8301126200211857600080fd5b813560206200212b620020828362002036565b82815260059290921b840181019181810190868411156200214b57600080fd5b8286015b84811015620020d057803567ffffffffffffffff811115620021715760008081fd5b8701603f81018913620021845760008081fd5b848101356040620021996200208283620020db565b8281528b82848601011115620021af5760008081fd5b82828501898301376000928101880192909252508452509183019183016200214f565b600080600060608486031215620021e857600080fd5b833567ffffffffffffffff808211156200220157600080fd5b818601915086601f8301126200221657600080fd5b8135602062002229620020828362002036565b82815260059290921b8401810191818101908a8411156200224957600080fd5b948201945b8386101562002269578535825294820194908201906200224e565b975050870135925050808211156200228057600080fd5b6200228e878388016200205d565b93506040860135915080821115620022a557600080fd5b50620022b48682870162002106565b9150509250925092565b600060208284031215620022d157600080fd5b5035919050565b600080600060608486031215620022ee57600080fd5b83359250602084013567ffffffffffffffff808211156200228057600080fd5b60008083601f8401126200232157600080fd5b50813567ffffffffffffffff8111156200233a57600080fd5b6020830191508360208260051b85010111156200235657600080fd5b9250929050565b6000806000806000606086880312156200237657600080fd5b85359450602086013567ffffffffffffffff808211156200239657600080fd5b620023a489838a016200230e565b90965094506040880135915080821115620023be57600080fd5b50620023cd888289016200230e565b969995985093965092949392505050565b600060208284031215620023f157600080fd5b5051919050565b634e487b7160e01b600052601160045260246000fd5b8082028115828204841417620005985762000598620023f8565b634e487b7160e01b600052601260045260246000fd5b6000826200245c57634e487b7160e01b600052601260045260246000fd5b500490565b600081518084526020808501945080840160005b838110156200249c5781516001600160a01b03168752958201959082019060010162002475565b509495945050505050565b60005b83811015620024c4578181015183820152602001620024aa565b50506000910152565b60008151808452620024e7816020860160208601620024a7565b601f01601f19169290920160200192915050565b600081518084526020808501808196508360051b8101915082860160005b858110156200254757828403895262002534848351620024cd565b9885019893509084019060010162002519565b5091979650505050505050565b6001600160a01b0385168152608060208083018290528551918301829052600091868201919060a0850190845b818110156200259f5784518352938301939183019160010162002581565b50508481036040860152620025b5818862002461565b925050508281036060840152620025cd8185620024fb565b979650505050505050565b60008060408385031215620025ec57600080fd5b505080516020909101519092909150565b6020808252602b908201527f616464206d617267696e206973206e6f7420616c6c6f77656420696e20636c6f60408201526a39b2903837b9b4ba34b7b760a91b606082015260800190565b6040815260006200265d604083018562002461565b828103602084015262001af48185620024fb565b6000602082840312156200268457600080fd5b815167ffffffffffffffff8111156200269c57600080fd5b8201601f81018413620026ae57600080fd5b8051620026bf6200208282620020db565b818152856020838501011115620026d557600080fd5b62001af4826020830160208601620024a7565b634e487b7160e01b600052603260045260246000fd5b600060018201620027135762002713620023f8565b5060010190565b6000602082840312156200272d57600080fd5b8151801515811462001b0b57600080fd5b60018060a01b038516815283602082015260806040820152600062002767608083018562002461565b8281036060840152620025cd8185620024fb565b600080604083850312156200278f57600080fd5b82516200279c8162001f87565b6020840151909250620027af8162001f87565b809150509250929050565b8183526000602080850194508260005b858110156200249c578135620027e08162001f87565b6001600160a01b031687529582019590820190600101620027ca565b81835281816020850137506000828201602090810191909152601f909101601f19169091010190565b81835260006020808501808196508560051b810191508460005b87811015620025475782840389528135601e198836030181126200286257600080fd5b8701858101903567ffffffffffffffff8111156200287f57600080fd5b8036038213156200288f57600080fd5b6200289c868284620027fc565b9a87019a95505050908401906001016200283f565b60018060a01b038816815286602082015260a060408201526000620028db60a083018789620027ba565b8281036060840152620028f081868862002825565b91505082608083015298975050505050505050565b6000608082840312156200291857600080fd5b6040516080810181811067ffffffffffffffff821117156200293e576200293e62001fec565b60405282516200294e8162001f87565b8082525060208301516020820152604083015160408201526060830151620029768162001f87565b60608201529392505050565b6000602082840312156200299557600080fd5b815162001b0b8162001f87565b600060208284031215620029b557600080fd5b815160ff8116811462001b0b57600080fd5b604081526000620029dd604083018688620027ba565b8281036020840152620025cd81858762002825565b81810381811115620005985762000598620023f8565b60ff8281168282160390811115620005985762000598620023f8565b600181815b8085111562002a6557816000190482111562002a495762002a49620023f8565b8085161562002a5757918102915b93841c939080029062002a29565b509250929050565b60008262002a7e5750600162000598565b8162002a8d5750600062000598565b816001811462002aa6576002811462002ab15762002ad1565b600191505062000598565b60ff84111562002ac55762002ac5620023f8565b50506001821b62000598565b5060208310610133831016604e8410600b841016171562002af6575081810a62000598565b62002b02838362002a24565b806000190482111562002b195762002b19620023f8565b029392505050565b600062001b0b60ff84168362002a6d565b60208152600062001b0b6020830184620024cd565b80820180821115620005985762000598620023f856fe608060405234801561001057600080fd5b506040516115dd3803806115dd83398101604081905261002f916100b9565b806001600160a01b03811661008a5760405162461bcd60e51b815260206004820152601560248201527f4d413a42616420526f7574657220616464726573730000000000000000000000604482015260640160405180910390fd5b600180546001600160a01b039092166001600160a01b03199283161790556006805490911633179055506100e9565b6000602082840312156100cb57600080fd5b81516001600160a01b03811681146100e257600080fd5b9392505050565b6114e5806100f86000396000f3fe608060405234801561001057600080fd5b50600436106101da5760003560e01c80637b44fb6411610104578063c55dae63116100a2578063eda11ef011610071578063eda11ef01461041a578063f73b858d1461044d578063f887ea401461046d578063fac5e9811461048057600080fd5b8063c55dae63146103f6578063ca96a6a714610409578063cfff340114610412578063db386b8d1461031557600080fd5b8063abf410e5116100de578063abf410e5146103be578063aeccd4b9146103d1578063bbf9f2a0146103da578063c52cee7a146103ed57600080fd5b80637b44fb64146103555780637d1c484d1461038b578063a64b6e5f146103ab57600080fd5b806341ed2c121161017c578063514ea4bf1161014b578063514ea4bf146102e2578063597810341461030257806359b4b5ee1461031557806359cbbf491461033557600080fd5b806341ed2c1214610283578063481cecaa146102965780634c19386c146102a95780634c89b68d146102b157600080fd5b80631fb3b7ac116101b85780631fb3b7ac14610229578063220b6dec146102325780632495a59914610245578063272c4a111461027057600080fd5b80630797ceec146101df57806317d11a15146101fa5780631f7dd4ba14610216575b600080fd5b6101f86101ed366004610e8f565b600991909155600a55565b005b610203600a5481565b6040519081526020015b60405180910390f35b610203610224366004610f1c565b610493565b61020360075481565b610203610240366004610fcd565b6104fc565b600b54610258906001600160a01b031681565b6040516001600160a01b03909116815260200161020d565b6101f861027e366004611074565b6108b6565b600254610258906001600160a01b031681565b600654610258906001600160a01b031681565b600954610203565b6101f86102bf3660046110ad565b6000908152600360209081526040808320805460ff191690556005909152812055565b6102036102f03660046110ad565b60056020526000908152604090205481565b6101f86103103660046110c6565b61092f565b6102036103233660046110ad565b60009081526005602052604090205490565b610348610343366004611177565b610944565b60405161020d91906112d4565b6101f8610363366004610e8f565b600091825260056020908152604080842092909255600390529020805460ff19166001179055565b6101f8610399366004610e8f565b60009182526005602052604090912055565b6101f86103b93660046110c6565b6109db565b600054610258906001600160a01b031681565b61020360085481565b6101f86103e8366004610e8f565b6109ef565b61020360095481565b600454610258906001600160a01b031681565b610203600d5481565b600d54610203565b61043d6104283660046110ad565b60036020526000908152604090205460ff1681565b604051901515815260200161020d565b61020361045b3660046110ad565b600c6020526000908152604090205481565b600154610258906001600160a01b031681565b61034861048e3660046112e7565b610aa8565b8051600090815b818110156104f5576104e16104da600560008785815181106104be576104be611337565b6020026020010151815260200190815260200160002054610ac9565b8490610ae0565b9250806104ed81611363565b91505061049a565b5050919050565b80516000906001600160a01b031661054f5760405162461bcd60e51b815260206004820152601160248201527026a09d102a37b5b2b724b71032b93937b960791b60448201526064015b60405180910390fd5b60208201516001600160a01b031661059e5760405162461bcd60e51b815260206004820152601260248201527126a09d103a37b5b2b727baba1032b93937b960711b6044820152606401610546565b8160800151156106775760008260400151116105f35760405162461bcd60e51b815260206004820152601460248201527326a09d1024b73b30b634b21030b6b7bab73a24b760611b6044820152606401610546565b8151600154604080850151905163095ea7b360e01b81526001600160a01b039283166004820152602481019190915291169063095ea7b3906044016020604051808303816000875af115801561064d573d6000803e3d6000fd5b505050506040513d601f19601f82011682018060405250810190610671919061137c565b50610755565b60008260600151116106d55760405162461bcd60e51b815260206004820152602160248201527f4d413a20496e76616c6964205f73776170506172616d732e616d6f756e744f756044820152601d60fa1b6064820152608401610546565b8151600154606084015160405163095ea7b360e01b81526001600160a01b039283166004820152602481019190915291169063095ea7b3906044016020604051808303816000875af115801561072f573d6000803e3d6000fd5b505050506040513d601f19601f82011682018060405250810190610753919061137c565b505b6064600183608001511561083257604080516101008101825285516001600160a01b03908116825260208088015182169083015262ffffff8516828401523060608301524260808301528683015160a08084019190915260c08089015190840152870151811660e0830152600154925163414bf38960e01b81529192169063414bf389906107e7908490600401611399565b6020604051808303816000875af1158015610806573d6000803e3d6000fd5b505050506040513d601f19601f8201168201806040525081019061082a9190611403565b9350506104f5565b604080516101008101825285516001600160a01b03908116825260208088015182169083015262ffffff8516828401523060608084019190915242608084015287015160a080840191909152600060c0840152870151811660e08301526001549251631b67c43360e31b81529192169063db3e2198906107e7908490600401611399565b60405163095ea7b360e01b81526001600160a01b038281166004830152600019602483015283169063095ea7b3906044016020604051808303816000875af1158015610906573d6000803e3d6000fd5b505050506040513d601f19601f8201168201806040525081019061092a919061137c565b505050565b61092a6001600160a01b038316843084610aec565b6060600061095184610b5d565b905060005b8160ff168160ff1610156109d1576109bd848260ff168151811061097c5761097c611337565b602002602001015187878460ff1681811061099957610999611337565b90506020020160208101906109ae919061141c565b6001600160a01b031690610bbe565b9250806109c981611439565b915050610956565b50505b9392505050565b61092a6001600160a01b0384168383610c00565b6000828152600c6020526040812054610a089083610c30565b13610a695760405162461bcd60e51b815260206004820152602b60248201527f4d413a2043616e6e6f742068617665206e65676174697665206d617267696e2060448201526a125b881c1c9bdd1bd8dbdb60aa1b6064820152608401610546565b600d54610a769082610c30565b600d556000828152600c6020526040902054610a929082610c30565b6000928352600c60205260409092209190915550565b60606000610abf6001600160a01b03851684610bbe565b9150505b92915050565b600080821215610adc5781600003610ac3565b5090565b60006109d48284611458565b6040516001600160a01b0380851660248301528316604482015260648101829052610b579085906323b872dd60e01b906084015b60408051601f198184030181529190526020810180516001600160e01b03166001600160e01b031990931692909217909152610c3c565b50505050565b600060ff821115610adc5760405162461bcd60e51b815260206004820152602560248201527f53616665436173743a2076616c756520646f65736e27742066697420696e2038604482015264206269747360d81b6064820152608401610546565b60606109d483836040518060400160405280601e81526020017f416464726573733a206c6f772d6c6576656c2063616c6c206661696c65640000815250610d0e565b6040516001600160a01b03831660248201526044810182905261092a90849063a9059cbb60e01b90606401610b20565b60006109d4828461146b565b6000610c91826040518060400160405280602081526020017f5361666545524332303a206c6f772d6c6576656c2063616c6c206661696c6564815250856001600160a01b0316610d0e9092919063ffffffff16565b80519091501561092a5780806020019051810190610caf919061137c565b61092a5760405162461bcd60e51b815260206004820152602a60248201527f5361666545524332303a204552433230206f7065726174696f6e20646964206e6044820152691bdd081cdd58d8d9595960b21b6064820152608401610546565b6060610d1d8484600085610d25565b949350505050565b606082471015610d865760405162461bcd60e51b815260206004820152602660248201527f416464726573733a20696e73756666696369656e742062616c616e636520666f6044820152651c8818d85b1b60d21b6064820152608401610546565b6001600160a01b0385163b610ddd5760405162461bcd60e51b815260206004820152601d60248201527f416464726573733a2063616c6c20746f206e6f6e2d636f6e74726163740000006044820152606401610546565b600080866001600160a01b03168587604051610df99190611493565b60006040518083038185875af1925050503d8060008114610e36576040519150601f19603f3d011682016040523d82523d6000602084013e610e3b565b606091505b5091509150610e4b828286610e56565b979650505050505050565b60608315610e655750816109d4565b825115610e755782518084602001fd5b8160405162461bcd60e51b815260040161054691906112d4565b60008060408385031215610ea257600080fd5b50508035926020909101359150565b634e487b7160e01b600052604160045260246000fd5b604051601f8201601f1916810167ffffffffffffffff81118282101715610ef057610ef0610eb1565b604052919050565b600067ffffffffffffffff821115610f1257610f12610eb1565b5060051b60200190565b60006020808385031215610f2f57600080fd5b823567ffffffffffffffff811115610f4657600080fd5b8301601f81018513610f5757600080fd5b8035610f6a610f6582610ef8565b610ec7565b81815260059190911b82018301908381019087831115610f8957600080fd5b928401925b82841015610e4b57833582529284019290840190610f8e565b6001600160a01b0381168114610fbc57600080fd5b50565b8015158114610fbc57600080fd5b600060e08284031215610fdf57600080fd5b60405160e0810181811067ffffffffffffffff8211171561100257611002610eb1565b604052823561101081610fa7565b8152602083013561102081610fa7565b806020830152506040830135604082015260608301356060820152608083013561104981610fbf565b608082015260a083013561105c81610fa7565b60a082015260c0928301359281019290925250919050565b6000806040838503121561108757600080fd5b823561109281610fa7565b915060208301356110a281610fa7565b809150509250929050565b6000602082840312156110bf57600080fd5b5035919050565b6000806000606084860312156110db57600080fd5b83356110e681610fa7565b925060208401356110f681610fa7565b929592945050506040919091013590565b600082601f83011261111857600080fd5b813567ffffffffffffffff81111561113257611132610eb1565b611145601f8201601f1916602001610ec7565b81815284602083860101111561115a57600080fd5b816020850160208301376000918101602001919091529392505050565b60008060006040848603121561118c57600080fd5b833567ffffffffffffffff808211156111a457600080fd5b818601915086601f8301126111b857600080fd5b8135818111156111c757600080fd5b602088818360051b86010111156111dd57600080fd5b8084019650819550808801359350828411156111f857600080fd5b838801935088601f85011261120c57600080fd5b8335915061121c610f6583610ef8565b82815260059290921b8401810191818101908a84111561123b57600080fd5b8286015b84811015611273578035868111156112575760008081fd5b6112658d86838b0101611107565b84525091830191830161123f565b508096505050505050509250925092565b60005b8381101561129f578181015183820152602001611287565b50506000910152565b600081518084526112c0816020860160208601611284565b601f01601f19169290920160200192915050565b6020815260006109d460208301846112a8565b600080604083850312156112fa57600080fd5b823561130581610fa7565b9150602083013567ffffffffffffffff81111561132157600080fd5b61132d85828601611107565b9150509250929050565b634e487b7160e01b600052603260045260246000fd5b634e487b7160e01b600052601160045260246000fd5b6000600182016113755761137561134d565b5060010190565b60006020828403121561138e57600080fd5b81516109d481610fbf565b6101008101610ac3828480516001600160a01b03908116835260208083015182169084015260408083015162ffffff16908401526060808301518216908401526080808301519084015260a0828101519084015260c0808301519084015260e09182015116910152565b60006020828403121561141557600080fd5b5051919050565b60006020828403121561142e57600080fd5b81356109d481610fa7565b600060ff821660ff810361144f5761144f61134d565b60010192915050565b80820180821115610ac357610ac361134d565b808201828112600083128015821682158216171561148b5761148b61134d565b505092915050565b600082516114a5818460208701611284565b919091019291505056fea264697066735822122077e99bc7b23387f5822e9f2fc536452acac451eaa919cd19b417585808dc2af864736f6c63430008110033a2646970667358221220497fc288ce6145e3b5ab829624bf69712ba86b62cdd57918d3e8f253b410128164736f6c63430008110033",
    "linkReferences": {}
  },
  "methodIdentifiers": {
    "RemoveCollateral()": "734452c9",
    "SetCollatralRatio(address,uint256)": "aec6a8cd",
    "SetPenalty(uint256)": "c657328d",
    "SetRiskManager(address)": "37c8df85",
    "allowedUnderlyingTokens(address)": "90838c8c",
    "calcCreditAccountAccruedInterest(address)": "3192195c",
    "calcMarginAccountAccruedInterest(address)": "94b75797",
    "closeMarginAccount()": "fb787d01",
    "closePosition(bytes32,address[],bytes[])": "f0da5f79",
    "collatralRatio(address)": "7536cbf5",
    "contractRegistry()": "abf410e5",
    "decreaseDebt(address,uint256)": "2fb9ba31",
    "getInterestAccrued(address)": "870c421e",
    "liquidate(bytes32[],address[],bytes[])": "bc2ca844",
    "liquidationPenalty()": "23f5589a",
    "marginAccounts(address)": "9c498bc3",
    "marketManager()": "41ed2c12",
    "openMarginAccount()": "b9e41a21",
    "openPosition(bytes32,address[],bytes[])": "fb80a0f1",
    "priceOracle()": "2630c12f",
    "riskManager()": "47842663",
    "setVault(address)": "6817031b",
    "updatePosition(bytes32,address[],bytes[])": "f6ba5d16",
    "vault()": "fbfa77cf"
  },
  "id": 25
}