{
  "abi": [
    {
      "inputs": [
        {
          "internalType": "contract IContractRegistry",
          "name": "_contractRegistry",
          "type": "address"
        },
        {
          "internalType": "contract IMarketManager",
          "name": "_marketManager",
          "type": "address"
        },
        {
          "internalType": "contract IPriceOracle",
          "name": "_priceOracle",
          "type": "address"
        }
      ],
      "stateMutability": "nonpayable",
      "type": "constructor"
    },
    {
      "anonymous": false,
      "inputs": [
        {
          "indexed": true,
          "internalType": "address",
          "name": "",
          "type": "address"
        },
        {
          "indexed": true,
          "internalType": "address",
          "name": "",
          "type": "address"
        }
      ],
      "name": "MarginAccountClosed",
      "type": "event"
    },
    {
      "anonymous": false,
      "inputs": [
        {
          "indexed": true,
          "internalType": "address",
          "name": "",
          "type": "address"
        },
        {
          "indexed": true,
          "internalType": "address",
          "name": "",
          "type": "address"
        }
      ],
      "name": "MarginAccountLiquidated",
      "type": "event"
    },
    {
      "anonymous": false,
      "inputs": [
        {
          "indexed": true,
          "internalType": "address",
          "name": "",
          "type": "address"
        },
        {
          "indexed": true,
          "internalType": "address",
          "name": "",
          "type": "address"
        }
      ],
      "name": "MarginAccountOpened",
      "type": "event"
    },
    {
      "anonymous": false,
      "inputs": [
        {
          "indexed": true,
          "internalType": "address",
          "name": "",
          "type": "address"
        },
        {
          "indexed": true,
          "internalType": "address",
          "name": "",
          "type": "address"
        },
        {
          "indexed": true,
          "internalType": "address",
          "name": "",
          "type": "address"
        },
        {
          "indexed": false,
          "internalType": "int256",
          "name": "",
          "type": "int256"
        },
        {
          "indexed": false,
          "internalType": "int256",
          "name": "",
          "type": "int256"
        }
      ],
      "name": "MarginTransferred",
      "type": "event"
    },
    {
      "anonymous": false,
      "inputs": [
        {
          "indexed": true,
          "internalType": "address",
          "name": "",
          "type": "address"
        },
        {
          "indexed": true,
          "internalType": "address",
          "name": "",
          "type": "address"
        },
        {
          "indexed": true,
          "internalType": "address",
          "name": "",
          "type": "address"
        },
        {
          "indexed": false,
          "internalType": "int256",
          "name": "",
          "type": "int256"
        },
        {
          "indexed": false,
          "internalType": "int256",
          "name": "",
          "type": "int256"
        }
      ],
      "name": "PositionAdded",
      "type": "event"
    },
    {
      "anonymous": false,
      "inputs": [
        {
          "indexed": true,
          "internalType": "address",
          "name": "",
          "type": "address"
        },
        {
          "indexed": true,
          "internalType": "address",
          "name": "",
          "type": "address"
        },
        {
          "indexed": true,
          "internalType": "address",
          "name": "",
          "type": "address"
        },
        {
          "indexed": false,
          "internalType": "int256",
          "name": "",
          "type": "int256"
        },
        {
          "indexed": false,
          "internalType": "int256",
          "name": "",
          "type": "int256"
        }
      ],
      "name": "PositionRemoved",
      "type": "event"
    },
    {
      "anonymous": false,
      "inputs": [
        {
          "indexed": true,
          "internalType": "address",
          "name": "",
          "type": "address"
        },
        {
          "indexed": true,
          "internalType": "address",
          "name": "",
          "type": "address"
        },
        {
          "indexed": true,
          "internalType": "address",
          "name": "",
          "type": "address"
        },
        {
          "indexed": false,
          "internalType": "int256",
          "name": "",
          "type": "int256"
        },
        {
          "indexed": false,
          "internalType": "int256",
          "name": "",
          "type": "int256"
        }
      ],
      "name": "PositionUpdated",
      "type": "event"
    },
    {
      "inputs": [],
      "name": "RemoveCollateral",
      "outputs": [],
      "stateMutability": "nonpayable",
      "type": "function"
    },
    {
      "inputs": [
        {
          "internalType": "address",
          "name": "token",
          "type": "address"
        },
        {
          "internalType": "uint256",
          "name": "value",
          "type": "uint256"
        }
      ],
      "name": "SetCollatralRatio",
      "outputs": [],
      "stateMutability": "nonpayable",
      "type": "function"
    },
    {
      "inputs": [
        {
          "internalType": "uint256",
          "name": "value",
          "type": "uint256"
        }
      ],
      "name": "SetPenalty",
      "outputs": [],
      "stateMutability": "nonpayable",
      "type": "function"
    },
    {
      "inputs": [
        {
          "internalType": "address",
          "name": "_riskmgr",
          "type": "address"
        }
      ],
      "name": "SetRiskManager",
      "outputs": [],
      "stateMutability": "nonpayable",
      "type": "function"
    },
    {
      "inputs": [
        {
          "internalType": "address",
          "name": "",
          "type": "address"
        }
      ],
      "name": "allowedUnderlyingTokens",
      "outputs": [
        {
          "internalType": "bool",
          "name": "",
          "type": "bool"
        }
      ],
      "stateMutability": "view",
      "type": "function"
    },
    {
      "inputs": [
        {
          "internalType": "address",
          "name": "marginacc",
          "type": "address"
        }
      ],
      "name": "calcCreditAccountAccruedInterest",
      "outputs": [
        {
          "internalType": "uint256",
          "name": "",
          "type": "uint256"
        }
      ],
      "stateMutability": "view",
      "type": "function"
    },
    {
      "inputs": [
        {
          "internalType": "address",
          "name": "_marginAccount",
          "type": "address"
        }
      ],
      "name": "calcMarginAccountAccruedInterest",
      "outputs": [
        {
          "internalType": "uint256",
          "name": "borrowedAmount",
          "type": "uint256"
        },
        {
          "internalType": "uint256",
          "name": "borrowedAmountWithInterest",
          "type": "uint256"
        }
      ],
      "stateMutability": "view",
      "type": "function"
    },
    {
      "inputs": [],
      "name": "closeMarginAccount",
      "outputs": [],
      "stateMutability": "nonpayable",
      "type": "function"
    },
    {
      "inputs": [
        {
          "internalType": "bytes32",
          "name": "marketKey",
          "type": "bytes32"
        },
        {
          "internalType": "address[]",
          "name": "destinations",
          "type": "address[]"
        },
        {
          "internalType": "bytes[]",
          "name": "data",
          "type": "bytes[]"
        }
      ],
      "name": "closePosition",
      "outputs": [],
      "stateMutability": "nonpayable",
      "type": "function"
    },
    {
      "inputs": [
        {
          "internalType": "address",
          "name": "",
          "type": "address"
        }
      ],
      "name": "collatralRatio",
      "outputs": [
        {
          "internalType": "uint256",
          "name": "",
          "type": "uint256"
        }
      ],
      "stateMutability": "view",
      "type": "function"
    },
    {
      "inputs": [],
      "name": "contractRegistry",
      "outputs": [
        {
          "internalType": "contract IContractRegistry",
          "name": "",
          "type": "address"
        }
      ],
      "stateMutability": "view",
      "type": "function"
    },
    {
      "inputs": [
        {
          "internalType": "address",
          "name": "marginAcc",
          "type": "address"
        },
        {
          "internalType": "uint256",
          "name": "amount",
          "type": "uint256"
        }
      ],
      "name": "decreaseDebt",
      "outputs": [
        {
          "internalType": "uint256",
          "name": "newBorrowedAmount",
          "type": "uint256"
        }
      ],
      "stateMutability": "nonpayable",
      "type": "function"
    },
    {
      "inputs": [
        {
          "internalType": "address",
          "name": "marginAccount",
          "type": "address"
        }
      ],
      "name": "getInterestAccrued",
      "outputs": [
        {
          "internalType": "uint256",
          "name": "",
          "type": "uint256"
        }
      ],
      "stateMutability": "view",
      "type": "function"
    },
    {
      "inputs": [
        {
          "internalType": "bytes32[]",
          "name": "marketKeys",
          "type": "bytes32[]"
        },
        {
          "internalType": "address[]",
          "name": "destinations",
          "type": "address[]"
        },
        {
          "internalType": "bytes[]",
          "name": "data",
          "type": "bytes[]"
        }
      ],
      "name": "liquidate",
      "outputs": [],
      "stateMutability": "nonpayable",
      "type": "function"
    },
    {
      "inputs": [],
      "name": "liquidationPenalty",
      "outputs": [
        {
          "internalType": "uint256",
          "name": "",
          "type": "uint256"
        }
      ],
      "stateMutability": "view",
      "type": "function"
    },
    {
      "inputs": [
        {
          "internalType": "address",
          "name": "",
          "type": "address"
        }
      ],
      "name": "marginAccounts",
      "outputs": [
        {
          "internalType": "address",
          "name": "",
          "type": "address"
        }
      ],
      "stateMutability": "view",
      "type": "function"
    },
    {
      "inputs": [],
      "name": "marketManager",
      "outputs": [
        {
          "internalType": "contract IMarketManager",
          "name": "",
          "type": "address"
        }
      ],
      "stateMutability": "view",
      "type": "function"
    },
    {
      "inputs": [],
      "name": "openMarginAccount",
      "outputs": [
        {
          "internalType": "address",
          "name": "",
          "type": "address"
        }
      ],
      "stateMutability": "nonpayable",
      "type": "function"
    },
    {
      "inputs": [
        {
          "internalType": "bytes32",
          "name": "marketKey",
          "type": "bytes32"
        },
        {
          "internalType": "address[]",
          "name": "destinations",
          "type": "address[]"
        },
        {
          "internalType": "bytes[]",
          "name": "data",
          "type": "bytes[]"
        }
      ],
      "name": "openPosition",
      "outputs": [],
      "stateMutability": "nonpayable",
      "type": "function"
    },
    {
      "inputs": [],
      "name": "priceOracle",
      "outputs": [
        {
          "internalType": "contract IPriceOracle",
          "name": "",
          "type": "address"
        }
      ],
      "stateMutability": "view",
      "type": "function"
    },
    {
      "inputs": [],
      "name": "riskManager",
      "outputs": [
        {
          "internalType": "contract RiskManager",
          "name": "",
          "type": "address"
        }
      ],
      "stateMutability": "view",
      "type": "function"
    },
    {
      "inputs": [
        {
          "internalType": "address",
          "name": "_vault",
          "type": "address"
        }
      ],
      "name": "setVault",
      "outputs": [],
      "stateMutability": "nonpayable",
      "type": "function"
    },
    {
      "inputs": [
        {
          "internalType": "address",
          "name": "acc",
          "type": "address"
        }
      ],
      "name": "settleFee",
      "outputs": [],
      "stateMutability": "nonpayable",
      "type": "function"
    },
    {
      "inputs": [
        {
          "internalType": "bytes32",
          "name": "marketKey",
          "type": "bytes32"
        },
        {
          "internalType": "address[]",
          "name": "destinations",
          "type": "address[]"
        },
        {
          "internalType": "bytes[]",
          "name": "data",
          "type": "bytes[]"
        }
      ],
      "name": "updatePosition",
      "outputs": [],
      "stateMutability": "nonpayable",
      "type": "function"
    },
    {
      "inputs": [],
      "name": "vault",
      "outputs": [
        {
          "internalType": "contract Vault",
          "name": "",
          "type": "address"
        }
      ],
      "stateMutability": "view",
      "type": "function"
    }
  ],
  "bytecode": {
    "object": "0x60806040523480156200001157600080fd5b50604051620047cc380380620047cc833981016040819052620000349162000095565b6001600055600280546001600160a01b039485166001600160a01b031991821617909155600380549385169382169390931790925560048054919093169116179055620000e9565b6001600160a01b03811681146200009257600080fd5b50565b600080600060608486031215620000ab57600080fd5b8351620000b8816200007c565b6020850151909350620000cb816200007c565b6040850151909250620000de816200007c565b809150509250925092565b6146d380620000f96000396000f3fe60806040523480156200001157600080fd5b5060043610620001925760003560e01c806390838c8c11620000f0578063bc2ca84411620000a3578063f6ba5d16116200007a578063f6ba5d1614620003d7578063fb787d011462000226578063fb80a0f114620003ee578063fbfa77cf146200040557600080fd5b8063bc2ca8441462000393578063c657328d14620003aa578063f0da5f7914620003c057600080fd5b806390838c8c14620002b857806394b7579714620002ef5780639c498bc3146200031c578063abf410e51462000348578063aec6a8cd146200035c578063b9e41a21146200038957600080fd5b806347842663116200014957806347842663146200023c5780634b11df1114620002505780636817031b1462000267578063734452c914620002265780637536cbf5146200027e578063870c421e14620002a157600080fd5b806323f5589a14620001975780632630c12f14620001b45780632fb9ba3114620001e15780633192195c14620001f857806337c8df85146200020f57806341ed2c121462000228575b600080fd5b620001a160065481565b6040519081526020015b60405180910390f35b600454620001c8906001600160a01b031681565b6040516001600160a01b039091168152602001620001ab565b620001a1620001f236600462002155565b62000419565b620001a16200020936600462002184565b50600190565b620002266200022036600462002184565b620005d2565b005b600354620001c8906001600160a01b031681565b600154620001c8906001600160a01b031681565b620002266200026136600462002184565b6200060a565b620002266200027836600462002184565b6200078e565b620001a16200028f36600462002184565b60096020526000908152604090205481565b620001a1620002b236600462002184565b620007c6565b620002de620002c936600462002184565b60086020526000908152604090205460ff1681565b6040519015158152602001620001ab565b620003066200030036600462002184565b620007d3565b60408051928352602083019190915201620001ab565b620001c86200032d36600462002184565b6007602052600090815260409020546001600160a01b031681565b600254620001c8906001600160a01b031681565b620002266200036d36600462002155565b6001600160a01b03909116600090815260096020526040902055565b620001c862000813565b62000226620003a4366004620023d6565b620008be565b62000226620003bb366004620024c1565b600655565b62000226620003d1366004620024db565b62000b13565b62000226620003e8366004620024db565b62000e40565b62000226620003ff3660046200255e565b62001013565b600554620001c8906001600160a01b031681565b60008281620004288262001a5a565b505090506000620004398662001bc5565b905081600003620004515760009350505050620005cc565b6200045d828662001c1f565b935060006001816200047184828462001c34565b600554604051638cd2e0c760e01b81526001600160a01b038c81166004830152602482018c905260448201889052929350911690638cd2e0c790606401600060405180830381600087803b158015620004c957600080fd5b505af1158015620004de573d6000803e3d6000fd5b505050506000600560009054906101000a90046001600160a01b03166001600160a01b0316630fce70fb6040518163ffffffff1660e01b8152600401602060405180830381865afa15801562000538573d6000803e3d6000fd5b505050506040513d601f19601f820116820180604052508101906200055e9190620025de565b6040516301e5f3bb60e21b8152600481018a9052602481018290529091506001600160a01b03881690630797ceec90604401600060405180830381600087803b158015620005ab57600080fd5b505af1158015620005c0573d6000803e3d6000fd5b50505050505050505050505b92915050565b806001600160a01b038116620005e757600080fd5b50600180546001600160a01b0319166001600160a01b0392909216919091179055565b600080600360009054906101000a90046001600160a01b03166001600160a01b031663ed2ed5446040518163ffffffff1660e01b81526004016000604051808303816000875af115801562000663573d6000803e3d6000fd5b505050506040513d6000823e601f3d908101601f191682016040526200068d91908101906200260a565b905060005b81518110156200074f57818181518110620006b157620006b1620026ae565b60209081029190910101516040516350989a5760e01b81526001600160a01b038681166004830152909116906350989a57906024016020604051808303816000875af115801562000706573d6000803e3d6000fd5b505050506040513d601f19601f820116820180604052508101906200072c9190620025de565b620007389084620026da565b925080620007468162002705565b91505062000692565b50620007896040518060400160405280600b81526020016a4d4d3a746f74616c46656560a81b815250620007838462001ce8565b62001d01565b505050565b806001600160a01b038116620007a357600080fd5b50600580546001600160a01b0319166001600160a01b0392909216919091179055565b6000620005cc8262001bc5565b6000806000806000620007e68662001a5a565b9196508694509250905081620007fd828562002721565b62000809919062002751565b9350505050915091565b336000908152600760205260408120546001600160a01b0316156200083757600080fd5b600073e592427a0aece92de3edee1f18e0157c058615649050600081604051620008619062002131565b6001600160a01b039091168152602001604051809103906000f0801580156200088e573d6000803e3d6000fd5b5033600090815260076020526040902080546001600160a01b0319166001600160a01b0383161790559392505050565b336000908152600760205260409020546001600160a01b0316620008e2816200060a565b62000910816040518060400160405280600a8152602001694d617267696e2061636360b01b81525062001d4e565b600154604051631f9d23e360e21b815260009182916001600160a01b0390911690637e748f8c906200094d9086908a908a908a906004016200286a565b60408051808303816000875af11580156200096c573d6000803e3d6000fd5b505050506040513d601f19601f82011682018060405250810190620009929190620028e3565b909250905060008213801590620009a95750600081125b620009d15760405162461bcd60e51b8152600401620009c89062002908565b60405180910390fd5b6040516359cbbf4960e01b81526001600160a01b038416906359cbbf499062000a01908890889060040162002953565b6000604051808303816000875af115801562000a21573d6000803e3d6000fd5b505050506040513d6000823e601f3d908101601f1916820160405262000a4b91908101906200297c565b50600082121562000a685762000a6683620001f28462001ce8565b505b60005b865181101562000b0a57836001600160a01b0316634c89b68d88838151811062000a995762000a99620026ae565b60200260200101516040518263ffffffff1660e01b815260040162000ac091815260200190565b600060405180830381600087803b15801562000adb57600080fd5b505af115801562000af0573d6000803e3d6000fd5b50505050808062000b019062002705565b91505062000a6b565b50505050505050565b336000908152600760205260409020546001600160a01b031662000b37816200060a565b604051630eda11ef60e41b8152600481018590526001600160a01b0382169063eda11ef090602401602060405180830381865afa15801562000b7d573d6000803e3d6000fd5b505050506040513d601f19601f8201168201806040525081019062000ba39190620029f2565b62000bea5760405162461bcd60e51b8152602060048201526016602482015275141bdcda5d1a5bdb88191bd95cdb89dd08195e1a5cdd60521b6044820152606401620009c8565b60015460405163e650e5df60e01b815260009182916001600160a01b039091169063e650e5df9062000c279086908a908a908a9060040162002a16565b60408051808303816000875af115801562000c46573d6000803e3d6000fd5b505050506040513d601f19601f8201168201806040525081019062000c6c9190620028e3565b60405163db386b8d60e01b81526004810189905291935091506001600160a01b0384169063db386b8d90602401602060405180830381865afa15801562000cb7573d6000803e3d6000fd5b505050506040513d601f19601f8201168201806040525081019062000cdd9190620025de565b811462000d215760405162461bcd60e51b8152602060048201526011602482015270496e76616c696420636c6f736520706f7360781b6044820152606401620009c8565b600082131562000d455760405162461bcd60e51b8152600401620009c89062002908565b600082121562000d615762000d5f83620001f28462001ce8565b505b6040516359cbbf4960e01b81526001600160a01b038416906359cbbf499062000d91908890889060040162002953565b6000604051808303816000875af115801562000db1573d6000803e3d6000fd5b505050506040513d6000823e601f3d908101601f1916820160405262000ddb91908101906200297c565b50604051634c89b68d60e01b8152600481018790526001600160a01b03841690634c89b68d90602401600060405180830381600087803b15801562000e1f57600080fd5b505af115801562000e34573d6000803e3d6000fd5b50505050505050505050565b3360009081526007602052604090819020549051630eda11ef60e41b8152600481018590526001600160a01b0390911690819063eda11ef090602401602060405180830381865afa15801562000e9a573d6000803e3d6000fd5b505050506040513d601f19601f8201168201806040525081019062000ec09190620029f2565b62000f075760405162461bcd60e51b8152602060048201526016602482015275141bdcda5d1a5bdb88191bd95cdb89dd08195e1a5cdd60521b6044820152606401620009c8565b60035460405163382dfc3d60e01b81526004810186905260009182916001600160a01b039091169063382dfc3d906024016040805180830381865afa15801562000f55573d6000803e3d6000fd5b505050506040513d601f19601f8201168201806040525081019062000f7b919062002a53565b60405163db386b8d60e01b8152600481018990529093509091506000908190819081906001600160a01b0388169063db386b8d90602401602060405180830381865afa15801562000fd0573d6000803e3d6000fd5b505050506040513d601f19601f8201168201806040525081019062000ff69190620025de565b90506000620010053362001bc5565b505050505050505050505050565b6000620010203362001d97565b604051630eda11ef60e41b8152600481018890529091506001600160a01b0382169063eda11ef090602401602060405180830381865afa15801562001069573d6000803e3d6000fd5b505050506040513d601f19601f820116820180604052508101906200108f9190620029f2565b15620010d25760405162461bcd60e51b815260206004820152601160248201527022bc34b9ba34b733903837b9b4ba34b7b760791b6044820152606401620009c8565b6001546000906001600160a01b0316634f82d618838989898989620010f78662001bc5565b6040518863ffffffff1660e01b81526004016200111b979695949392919062002b8c565b610100604051808303816000875af11580156200113c573d6000803e3d6000fd5b505050506040513d601f19601f8201168201806040525081019062001162919062002be0565b90506000600560009054906101000a90046001600160a01b03166001600160a01b03166338d52e0f6040518163ffffffff1660e01b8152600401602060405180830381865afa158015620011ba573d6000803e3d6000fd5b505050506040513d601f19601f82011682018060405250810190620011e0919062002c94565b90506000620011f783606001516040015162001ce8565b111562001345576200122d6040518060400160405280600c81526020016b706f736974696f6e53697a6560a01b81525062001e21565b6200124082606001516040015162001e6b565b6060828101516040805163318a96a760e01b8152600481018c905282516001600160a01b03908116602483015260208401516044830152918301516064820152919092015160848201529084169063318a96a79060a401600060405180830381600087803b158015620012b257600080fd5b505af1158015620012c7573d6000803e3d6000fd5b5050505081608001516001600160a01b031682600001516001600160a01b0316846001600160a01b03167fd33d152596235f4fb4d1bb20ba163cec1503b843bfeace18a0a218e25cbbe65c8560600151604001518660600151602001516040516200133c929190918252602082015260400190565b60405180910390a45b600082604001511215620013da5760405162461bcd60e51b815260206004820152604f60248201527f4d4d3a20496e76616c6964204f7065726174696f6e2e2043616e6e6f7420757360448201527f65206f70656e20706f736974696f6e20746f20726564756365206d617267696e60648201526e10333937b690309026b0b935b2ba1760891b608482015260a401620009c8565b6000620013eb836040015162001ce8565b111562001a505760408083015190516305dfcf9560e51b81526001600160a01b0385169163bbf9f2a0916200142d918c91600401918252602082015260400190565b600060405180830381600087803b1580156200144857600080fd5b505af11580156200145d573d6000803e3d6000fd5b5050505081608001516001600160a01b031682600001516001600160a01b0316846001600160a01b03167f48e9eae93900d26ec70afc86dfc8919856a7b28c0ff25b326fbdd8a04aa87b0f85602001518660400151604051620014ca929190918252602082015260400190565b60405180910390a460808201516040516370a0823160e01b81526001600160a01b03858116600483015260009216906370a0823190602401602060405180830381865afa15801562001520573d6000803e3d6000fd5b505050506040513d601f19601f82011682018060405250810190620015469190620025de565b6040516370a0823160e01b81526001600160a01b0386811660048301529192506000918416906370a0823190602401602060405180830381865afa15801562001593573d6000803e3d6000fd5b505050506040513d601f19601f82011682018060405250810190620015b99190620025de565b9050620015ca846020015162001ce8565b821015620019ce576000620015ef83620015e8876020015162001ce8565b9062001c1f565b905060006200176a86608001516001600160a01b031663313ce5676040518163ffffffff1660e01b8152600401602060405180830381865afa1580156200163a573d6000803e3d6000fd5b505050506040513d601f19601f8201168201806040525081019062001660919062002cb4565b866001600160a01b031663313ce5676040518163ffffffff1660e01b8152600401602060405180830381865afa1580156200169f573d6000803e3d6000fd5b505050506040513d601f19601f82011682018060405250810190620016c5919062002cb4565b60045462001762906001600160a01b03166308ba9084620016e68862001eb3565b60808d01516040516001600160e01b031960e085901b16815260048101929092526001600160a01b03166024820152604401602060405180830381865afa15801562001736573d6000803e3d6000fd5b505050506040513d601f19601f820116820180604052508101906200175c9190620025de565b62001ce8565b919062001f1f565b9050828111156200180f576200180d8762001807620017f46000896001600160a01b031663313ce5676040518163ffffffff1660e01b8152600401602060405180830381865afa158015620017c3573d6000803e3d6000fd5b505050506040513d601f19601f82011682018060405250810190620017e9919062002cb4565b6101f4919062001f1f565b62001800858862001c1f565b9062001f9d565b62001fab565b505b85608001516001600160a01b0316856001600160a01b031614620019cb5760006040518060e00160405280876001600160a01b0316815260200188608001516001600160a01b03168152602001620018ad620018a560008a6001600160a01b031663313ce5676040518163ffffffff1660e01b8152600401602060405180830381865afa158015620017c3573d6000803e3d6000fd5b859062001f9d565b8152600060208083018290526001604080850191909152606080850184905260809485018990528151630882db7b60e21b815286516001600160a01b03908116600483015293870151841660248201529186015160448301528501516064820152928401511515608484015260a0840151811660a484015260c084015160c4840152929350918a169063220b6dec9060e4016020604051808303816000875af11580156200195f573d6000803e3d6000fd5b505050506040513d601f19601f82011682018060405250810190620019859190620025de565b905083811015620019c85760405162461bcd60e51b815260206004820152600c60248201526b0524d3a2042616420537761760a41b6044820152606401620009c8565b50505b50505b6040516359cbbf4960e01b81526001600160a01b038616906359cbbf499062001a02908c908c908c908c9060040162002cd9565b6000604051808303816000875af115801562001a22573d6000803e3d6000fd5b505050506040513d6000823e601f3d908101601f1916820160405262001a4c91908101906200297c565b5050505b5050505050505050565b6000806000836001600160a01b0316634c19386c6040518163ffffffff1660e01b8152600401602060405180830381865afa15801562001a9e573d6000803e3d6000fd5b505050506040513d601f19601f8201168201806040525081019062001ac49190620025de565b9250836001600160a01b03166317d11a156040518163ffffffff1660e01b8152600401602060405180830381865afa15801562001b05573d6000803e3d6000fd5b505050506040513d601f19601f8201168201806040525081019062001b2b9190620025de565b9150600560009054906101000a90046001600160a01b03166001600160a01b0316630fce70fb6040518163ffffffff1660e01b8152600401602060405180830381865afa15801562001b81573d6000803e3d6000fd5b505050506040513d601f19601f8201168201806040525081019062001ba79190620025de565b90506000821162001bba57600162001bbc565b815b91509193909250565b60008060008062001bd68562001a5a565b9250925092508260000362001bf057506000949350505050565b828262001bfe838362002721565b62001c0a919062002751565b62001c16919062002d04565b95945050505050565b600062001c2d828462002d04565b9392505050565b600080806000198587098587029250828110838203039150508060000362001c735783828162001c685762001c686200273b565b049250505062001c2d565b80841162001c8057600080fd5b600084868809600260036001881981018916988990049182028318808302840302808302840302808302840302808302840302808302840302918202909203026000889003889004909101858311909403939093029303949094049190911702949350505050565b60008082121562001cfd5781600003620005cc565b5090565b62001d4a828260405160240162001d1a92919062002d1a565b60408051601f198184030181529190526020810180516001600160e01b0316632d839cb360e21b179052620020f4565b5050565b62001d4a828260405160240162001d6792919062002d3e565b60408051601f198184030181529190526020810180516001600160e01b031663759f86bb60e01b179052620020f4565b6001600160a01b0381811660009081526007602052604081205490911662001e025760405162461bcd60e51b815260206004820152601a60248201527f4d4d3a20496e76616c6964206d617267696e206163636f756e740000000000006044820152606401620009c8565b506001600160a01b039081166000908152600760205260409020541690565b62001e688160405160240162001e38919062002d64565b60408051601f198184030181529190526020810180516001600160e01b031663104c13eb60e21b179052620020f4565b50565b62001e688160405160240162001e8391815260200190565b60408051601f198184030181529190526020810180516001600160e01b0316632d5b6cb960e01b179052620020f4565b60006001600160ff1b0382111562001cfd5760405162461bcd60e51b815260206004820152602860248201527f53616665436173743a2076616c756520646f65736e27742066697420696e2061604482015267371034b73a191a9b60c11b6064820152608401620009c8565b60008160ff168360ff160362001f3757508262001c2d565b8160ff168360ff161162001f705762001f6a62001f55848462002d79565b62001f6290600a62002e92565b859062002115565b62001f95565b62001f9562001f80838562002d79565b62001f8d90600a62002e92565b859062002123565b949350505050565b600062001c2d828462002ea3565b60008281808062001fbc8462001a5a565b9194509250905062001fcf868462002ea3565b9450600062001fdf838862002721565b62001feb858462002721565b62001ff7919062002ea3565b8662002004858562002721565b62002010919062002721565b6200201c919062002751565b600554604051634b8a352960e01b81526001600160a01b038b81166004830152602482018b9052929350911690634b8a352990604401600060405180830381600087803b1580156200206d57600080fd5b505af115801562002082573d6000803e3d6000fd5b50506040516301e5f3bb60e21b815260048101899052602481018490526001600160a01b0388169250630797ceec9150604401600060405180830381600087803b158015620020d057600080fd5b505af1158015620020e5573d6000803e3d6000fd5b50505050505050505092915050565b80516a636f6e736f6c652e6c6f67602083016000808483855afa5050505050565b600062001c2d828462002721565b600062001c2d828462002751565b6117e48062002eba83390190565b6001600160a01b038116811462001e6857600080fd5b600080604083850312156200216957600080fd5b823562002176816200213f565b946020939093013593505050565b6000602082840312156200219757600080fd5b813562001c2d816200213f565b634e487b7160e01b600052604160045260246000fd5b60405160a081016001600160401b0381118282101715620021df57620021df620021a4565b60405290565b604051608081016001600160401b0381118282101715620021df57620021df620021a4565b604051601f8201601f191681016001600160401b0381118282101715620022355762002235620021a4565b604052919050565b60006001600160401b03821115620022595762002259620021a4565b5060051b60200190565b600082601f8301126200227557600080fd5b813560206200228e62002288836200223d565b6200220a565b82815260059290921b84018101918181019086841115620022ae57600080fd5b8286015b84811015620022d6578035620022c8816200213f565b8352918301918301620022b2565b509695505050505050565b60006001600160401b03821115620022fd57620022fd620021a4565b50601f01601f191660200190565b600082601f8301126200231d57600080fd5b813560206200233062002288836200223d565b82815260059290921b840181019181810190868411156200235057600080fd5b8286015b84811015620022d65780356001600160401b03811115620023755760008081fd5b8701603f81018913620023885760008081fd5b8481013560406200239d6200228883620022e1565b8281528b82848601011115620023b35760008081fd5b828285018983013760009281018801929092525084525091830191830162002354565b600080600060608486031215620023ec57600080fd5b83356001600160401b03808211156200240457600080fd5b818601915086601f8301126200241957600080fd5b813560206200242c62002288836200223d565b82815260059290921b8401810191818101908a8411156200244c57600080fd5b948201945b838610156200246c5785358252948201949082019062002451565b975050870135925050808211156200248357600080fd5b620024918783880162002263565b93506040860135915080821115620024a857600080fd5b50620024b7868287016200230b565b9150509250925092565b600060208284031215620024d457600080fd5b5035919050565b600080600060608486031215620024f157600080fd5b8335925060208401356001600160401b03808211156200248357600080fd5b60008083601f8401126200252357600080fd5b5081356001600160401b038111156200253b57600080fd5b6020830191508360208260051b85010111156200255757600080fd5b9250929050565b6000806000806000606086880312156200257757600080fd5b8535945060208601356001600160401b03808211156200259657600080fd5b620025a489838a0162002510565b90965094506040880135915080821115620025be57600080fd5b50620025cd8882890162002510565b969995985093965092949392505050565b600060208284031215620025f157600080fd5b5051919050565b805162002605816200213f565b919050565b600060208083850312156200261e57600080fd5b82516001600160401b038111156200263557600080fd5b8301601f810185136200264757600080fd5b80516200265862002288826200223d565b81815260059190911b820183019083810190878311156200267857600080fd5b928401925b82841015620026a357835162002693816200213f565b825292840192908401906200267d565b979650505050505050565b634e487b7160e01b600052603260045260246000fd5b634e487b7160e01b600052601160045260246000fd5b8082018281126000831280158216821582161715620026fd57620026fd620026c4565b505092915050565b6000600182016200271a576200271a620026c4565b5060010190565b8082028115828204841417620005cc57620005cc620026c4565b634e487b7160e01b600052601260045260246000fd5b6000826200276f57634e487b7160e01b600052601260045260246000fd5b500490565b600081518084526020808501945080840160005b83811015620027af5781516001600160a01b03168752958201959082019060010162002788565b509495945050505050565b60005b83811015620027d7578181015183820152602001620027bd565b50506000910152565b60008151808452620027fa816020860160208601620027ba565b601f01601f19169290920160200192915050565b600082825180855260208086019550808260051b84010181860160005b848110156200285d57601f198684030189526200284a838351620027e0565b988401989250908301906001016200282b565b5090979650505050505050565b6001600160a01b0385168152608060208083018290528551918301829052600091868201919060a0850190845b81811015620028b55784518352938301939183019160010162002897565b50508481036040860152620028cb818862002774565b925050508281036060840152620026a381856200280e565b60008060408385031215620028f757600080fd5b505080516020909101519092909150565b6020808252602b908201527f616464206d617267696e206973206e6f7420616c6c6f77656420696e20636c6f60408201526a39b2903837b9b4ba34b7b760a91b606082015260800190565b60408152600062002968604083018562002774565b828103602084015262001c1681856200280e565b6000602082840312156200298f57600080fd5b81516001600160401b03811115620029a657600080fd5b8201601f81018413620029b857600080fd5b8051620029c96200228882620022e1565b818152856020838501011115620029df57600080fd5b62001c16826020830160208601620027ba565b60006020828403121562002a0557600080fd5b8151801515811462001c2d57600080fd5b60018060a01b038516815283602082015260806040820152600062002a3f608083018562002774565b8281036060840152620026a381856200280e565b6000806040838503121562002a6757600080fd5b825162002a74816200213f565b602084015190925062002a87816200213f565b809150509250929050565b8183526000602080850194508260005b85811015620027af57813562002ab8816200213f565b6001600160a01b03168752958201959082019060010162002aa2565b81835281816020850137506000828201602090810191909152601f909101601f19169091010190565b60008383855260208086019550808560051b8301018460005b878110156200285d57848303601f19018952813536889003601e1901811262002b3e57600080fd5b870184810190356001600160401b0381111562002b5a57600080fd5b80360382131562002b6a57600080fd5b62002b7785828462002ad4565b9a86019a945050509083019060010162002b16565b60018060a01b038816815286602082015260a06040820152600062002bb660a08301878962002a92565b828103606084015262002bcb81868862002afd565b91505082608083015298975050505050505050565b600081830361010081121562002bf557600080fd5b62002bff620021ba565b835162002c0c816200213f565b815260208481015190820152604080850151908201526080605f198301121562002c3557600080fd5b62002c3f620021e5565b9150606084015162002c51816200213f565b808352506080840151602083015260a0840151604083015260c0840151606083015281606082015262002c8760e08501620025f8565b6080820152949350505050565b60006020828403121562002ca757600080fd5b815162001c2d816200213f565b60006020828403121562002cc757600080fd5b815160ff8116811462001c2d57600080fd5b60408152600062002cef60408301868862002a92565b8281036020840152620026a381858762002afd565b81810381811115620005cc57620005cc620026c4565b60408152600062002d2f6040830185620027e0565b90508260208301529392505050565b6001600160a01b038316815260406020820181905260009062001f9590830184620027e0565b60208152600062001c2d6020830184620027e0565b60ff8281168282160390811115620005cc57620005cc620026c4565b600181815b8085111562002dd657816000190482111562002dba5762002dba620026c4565b8085161562002dc857918102915b93841c939080029062002d9a565b509250929050565b60008262002def57506001620005cc565b8162002dfe57506000620005cc565b816001811462002e17576002811462002e225762002e42565b6001915050620005cc565b60ff84111562002e365762002e36620026c4565b50506001821b620005cc565b5060208310610133831016604e8410600b841016171562002e67575081810a620005cc565b62002e73838362002d95565b806000190482111562002e8a5762002e8a620026c4565b029392505050565b600062001c2d60ff84168362002dde565b80820180821115620005cc57620005cc620026c456fe608060405234801561001057600080fd5b506040516117e43803806117e483398101604081905261002f916100b9565b806001600160a01b03811661008a5760405162461bcd60e51b815260206004820152601560248201527f4d413a42616420526f7574657220616464726573730000000000000000000000604482015260640160405180910390fd5b600180546001600160a01b039092166001600160a01b03199283161790556005805490911633179055506100e9565b6000602082840312156100cb57600080fd5b81516001600160a01b03811681146100e257600080fd5b9392505050565b6116ec806100f86000396000f3fe608060405234801561001057600080fd5b50600436106101e55760003560e01c8063643090bc1161010f578063c52cee7a116100a2578063eda11ef011610071578063eda11ef014610495578063f73b858d146104c8578063f887ea40146104e8578063fac5e981146104fb57600080fd5b8063c52cee7a1461044d578063c55dae6314610456578063ca96a6a714610469578063db386b8d1461047257600080fd5b8063abf410e5116100de578063abf410e51461040b578063aeccd4b91461041e578063b1f1150c14610427578063bbf9f2a01461043a57600080fd5b8063643090bc146103ca5780637d1c484d146103d357806390b2f8f5146103e5578063a64b6e5f146103f857600080fd5b8063272c4a11116101875780634c89b68d116101565780634c89b68d146102df578063514ea4bf1461032e578063597810341461039757806359cbbf49146103aa57600080fd5b8063272c4a111461029e578063318a96a7146102b1578063481cecaa146102c45780634c19386c146102d757600080fd5b80631d9fd309116101c35780631d9fd309146102445780631fb3b7ac14610257578063220b6dec146102605780632495a5991461027357600080fd5b80630797ceec146101ea57806317d11a15146102055780631928b3cb14610221575b600080fd5b6102036101f836600461100a565b600891909155600955565b005b61020e60095481565b6040519081526020015b60405180910390f35b61020e61022f36600461102c565b60009081526004602052604090206002015490565b61020e6102523660046110b0565b61050e565b61020e60065481565b61020e61026e366004611161565b61057a565b600a54610286906001600160a01b031681565b6040516001600160a01b039091168152602001610218565b6102036102ac366004611208565b610934565b6102036102bf366004611241565b6109ad565b600554610286906001600160a01b031681565b60085461020e565b6102036102ed36600461102c565b6000908152600260208181526040808420805460ff191690556004909152822080546001600160a01b03191681556001810183905590810182905560030155565b61036d61033c36600461102c565b60046020526000908152604090208054600182015460028301546003909301546001600160a01b0390921692909184565b604080516001600160a01b0390951685526020850193909352918301526060820152608001610218565b6102036103a53660046112cd565b610a32565b6103bd6103b836600461137e565b610a47565b60405161021891906114db565b61020e600b5481565b6102036103e136600461100a565b5050565b61020e6103f33660046110b0565b610ade565b6102036104063660046112cd565b610b43565b600054610286906001600160a01b031681565b61020e60075481565b61020361043536600461102c565b610b57565b61020361044836600461100a565b610b6a565b61020e60085481565b600354610286906001600160a01b031681565b61020e600d5481565b61020e61048036600461102c565b60009081526004602052604090206001015490565b6104b86104a336600461102c565b60026020526000908152604090205460ff1681565b6040519015158152602001610218565b61020e6104d636600461102c565b600c6020526000908152604090205481565b600154610286906001600160a01b031681565b6103bd6105093660046114ee565b610c23565b8051600090815b818110156105735761055f610558600460008785815181106105395761053961153e565b6020026020010151815260200190815260200160002060010154610c44565b8490610c5b565b92508061056b8161156a565b915050610515565b5050919050565b80516000906001600160a01b03166105cd5760405162461bcd60e51b815260206004820152601160248201527026a09d102a37b5b2b724b71032b93937b960791b60448201526064015b60405180910390fd5b60208201516001600160a01b031661061c5760405162461bcd60e51b815260206004820152601260248201527126a09d103a37b5b2b727baba1032b93937b960711b60448201526064016105c4565b8160800151156106f55760008260400151116106715760405162461bcd60e51b815260206004820152601460248201527326a09d1024b73b30b634b21030b6b7bab73a24b760611b60448201526064016105c4565b8151600154604080850151905163095ea7b360e01b81526001600160a01b039283166004820152602481019190915291169063095ea7b3906044016020604051808303816000875af11580156106cb573d6000803e3d6000fd5b505050506040513d601f19601f820116820180604052508101906106ef9190611583565b506107d3565b60008260600151116107535760405162461bcd60e51b815260206004820152602160248201527f4d413a20496e76616c6964205f73776170506172616d732e616d6f756e744f756044820152601d60fa1b60648201526084016105c4565b8151600154606084015160405163095ea7b360e01b81526001600160a01b039283166004820152602481019190915291169063095ea7b3906044016020604051808303816000875af11580156107ad573d6000803e3d6000fd5b505050506040513d601f19601f820116820180604052508101906107d19190611583565b505b606460018360800151156108b057604080516101008101825285516001600160a01b03908116825260208088015182169083015262ffffff8516828401523060608301524260808301528683015160a08084019190915260c08089015190840152870151811660e0830152600154925163414bf38960e01b81529192169063414bf389906108659084906004016115a0565b6020604051808303816000875af1158015610884573d6000803e3d6000fd5b505050506040513d601f19601f820116820180604052508101906108a8919061160a565b935050610573565b604080516101008101825285516001600160a01b03908116825260208088015182169083015262ffffff8516828401523060608084019190915242608084015287015160a080840191909152600060c0840152870151811660e08301526001549251631b67c43360e31b81529192169063db3e2198906108659084906004016115a0565b60405163095ea7b360e01b81526001600160a01b038281166004830152600019602483015283169063095ea7b3906044016020604051808303816000875af1158015610984573d6000803e3d6000fd5b505050506040513d601f19601f820116820180604052508101906109a89190611583565b505050565b6000828152600460209081526040808320845181546001600160a01b0319166001600160a01b039091161781558483015160018083019190915585830151600280840191909155606087018051600390940193909355909352908320805460ff191690921790915551600b805491929091610a29908490611623565b90915550505050565b6109a86001600160a01b038316843084610c67565b60606000610a5484610cd8565b905060005b8160ff168160ff161015610ad457610ac0848260ff1681518110610a7f57610a7f61153e565b602002602001015187878460ff16818110610a9c57610a9c61153e565b9050602002016020810190610ab1919061164b565b6001600160a01b031690610d39565b925080610acc81611668565b915050610a59565b50505b9392505050565b8051600090815b8181101561057357610b2f60046000868481518110610b0657610b0661153e565b602002602001015181526020019081526020016000206001015484610d7b90919063ffffffff16565b925080610b3b8161156a565b915050610ae5565b6109a86001600160a01b0384168383610d87565b600b54610b649082610d7b565b600b5550565b6000828152600c6020526040812054610b839083610d7b565b13610be45760405162461bcd60e51b815260206004820152602b60248201527f4d413a2043616e6e6f742068617665206e65676174697665206d617267696e2060448201526a125b881c1c9bdd1bd8dbdb60aa1b60648201526084016105c4565b600d54610bf19082610d7b565b600d556000828152600c6020526040902054610c0d9082610d7b565b6000928352600c60205260409092209190915550565b60606000610c3a6001600160a01b03851684610d39565b9150505b92915050565b600080821215610c575781600003610c3e565b5090565b6000610ad78284611687565b6040516001600160a01b0380851660248301528316604482015260648101829052610cd29085906323b872dd60e01b906084015b60408051601f198184030181529190526020810180516001600160e01b03166001600160e01b031990931692909217909152610db7565b50505050565b600060ff821115610c575760405162461bcd60e51b815260206004820152602560248201527f53616665436173743a2076616c756520646f65736e27742066697420696e2038604482015264206269747360d81b60648201526084016105c4565b6060610ad783836040518060400160405280601e81526020017f416464726573733a206c6f772d6c6576656c2063616c6c206661696c65640000815250610e89565b6000610ad78284611623565b6040516001600160a01b0383166024820152604481018290526109a890849063a9059cbb60e01b90606401610c9b565b6000610e0c826040518060400160405280602081526020017f5361666545524332303a206c6f772d6c6576656c2063616c6c206661696c6564815250856001600160a01b0316610e899092919063ffffffff16565b8051909150156109a85780806020019051810190610e2a9190611583565b6109a85760405162461bcd60e51b815260206004820152602a60248201527f5361666545524332303a204552433230206f7065726174696f6e20646964206e6044820152691bdd081cdd58d8d9595960b21b60648201526084016105c4565b6060610e988484600085610ea0565b949350505050565b606082471015610f015760405162461bcd60e51b815260206004820152602660248201527f416464726573733a20696e73756666696369656e742062616c616e636520666f6044820152651c8818d85b1b60d21b60648201526084016105c4565b6001600160a01b0385163b610f585760405162461bcd60e51b815260206004820152601d60248201527f416464726573733a2063616c6c20746f206e6f6e2d636f6e747261637400000060448201526064016105c4565b600080866001600160a01b03168587604051610f74919061169a565b60006040518083038185875af1925050503d8060008114610fb1576040519150601f19603f3d011682016040523d82523d6000602084013e610fb6565b606091505b5091509150610fc6828286610fd1565b979650505050505050565b60608315610fe0575081610ad7565b825115610ff05782518084602001fd5b8160405162461bcd60e51b81526004016105c491906114db565b6000806040838503121561101d57600080fd5b50508035926020909101359150565b60006020828403121561103e57600080fd5b5035919050565b634e487b7160e01b600052604160045260246000fd5b604051601f8201601f1916810167ffffffffffffffff8111828210171561108457611084611045565b604052919050565b600067ffffffffffffffff8211156110a6576110a6611045565b5060051b60200190565b600060208083850312156110c357600080fd5b823567ffffffffffffffff8111156110da57600080fd5b8301601f810185136110eb57600080fd5b80356110fe6110f98261108c565b61105b565b81815260059190911b8201830190838101908783111561111d57600080fd5b928401925b82841015610fc657833582529284019290840190611122565b6001600160a01b038116811461115057600080fd5b50565b801515811461115057600080fd5b600060e0828403121561117357600080fd5b60405160e0810181811067ffffffffffffffff8211171561119657611196611045565b60405282356111a48161113b565b815260208301356111b48161113b565b80602083015250604083013560408201526060830135606082015260808301356111dd81611153565b608082015260a08301356111f08161113b565b60a082015260c0928301359281019290925250919050565b6000806040838503121561121b57600080fd5b82356112268161113b565b915060208301356112368161113b565b809150509250929050565b60008082840360a081121561125557600080fd5b833592506080601f198201121561126b57600080fd5b506040516080810181811067ffffffffffffffff8211171561128f5761128f611045565b60405260208401356112a08161113b565b80825250604084013560208201526060840135604082015260808401356060820152809150509250929050565b6000806000606084860312156112e257600080fd5b83356112ed8161113b565b925060208401356112fd8161113b565b929592945050506040919091013590565b600082601f83011261131f57600080fd5b813567ffffffffffffffff81111561133957611339611045565b61134c601f8201601f191660200161105b565b81815284602083860101111561136157600080fd5b816020850160208301376000918101602001919091529392505050565b60008060006040848603121561139357600080fd5b833567ffffffffffffffff808211156113ab57600080fd5b818601915086601f8301126113bf57600080fd5b8135818111156113ce57600080fd5b602088818360051b86010111156113e457600080fd5b8084019650819550808801359350828411156113ff57600080fd5b838801935088601f85011261141357600080fd5b833591506114236110f98361108c565b82815260059290921b8401810191818101908a84111561144257600080fd5b8286015b8481101561147a5780358681111561145e5760008081fd5b61146c8d86838b010161130e565b845250918301918301611446565b508096505050505050509250925092565b60005b838110156114a657818101518382015260200161148e565b50506000910152565b600081518084526114c781602086016020860161148b565b601f01601f19169290920160200192915050565b602081526000610ad760208301846114af565b6000806040838503121561150157600080fd5b823561150c8161113b565b9150602083013567ffffffffffffffff81111561152857600080fd5b6115348582860161130e565b9150509250929050565b634e487b7160e01b600052603260045260246000fd5b634e487b7160e01b600052601160045260246000fd5b60006001820161157c5761157c611554565b5060010190565b60006020828403121561159557600080fd5b8151610ad781611153565b6101008101610c3e828480516001600160a01b03908116835260208083015182169084015260408083015162ffffff16908401526060808301518216908401526080808301519084015260a0828101519084015260c0808301519084015260e09182015116910152565b60006020828403121561161c57600080fd5b5051919050565b808201828112600083128015821682158216171561164357611643611554565b505092915050565b60006020828403121561165d57600080fd5b8135610ad78161113b565b600060ff821660ff810361167e5761167e611554565b60010192915050565b80820180821115610c3e57610c3e611554565b600082516116ac81846020870161148b565b919091019291505056fea2646970667358221220786e9087a29764dc1f148f1e54dd2eb903b636c467cc7832e70c4213e5ef636964736f6c63430008110033a2646970667358221220552d00d89aed3fcedd9d0b356eb7d126635744d5dd49bc9fc34b0a54b7bec94b64736f6c63430008110033",
    "linkReferences": {}
  },
  "methodIdentifiers": {
    "RemoveCollateral()": "734452c9",
    "SetCollatralRatio(address,uint256)": "aec6a8cd",
    "SetPenalty(uint256)": "c657328d",
    "SetRiskManager(address)": "37c8df85",
    "allowedUnderlyingTokens(address)": "90838c8c",
    "calcCreditAccountAccruedInterest(address)": "3192195c",
    "calcMarginAccountAccruedInterest(address)": "94b75797",
    "closeMarginAccount()": "fb787d01",
    "closePosition(bytes32,address[],bytes[])": "f0da5f79",
    "collatralRatio(address)": "7536cbf5",
    "contractRegistry()": "abf410e5",
    "decreaseDebt(address,uint256)": "2fb9ba31",
    "getInterestAccrued(address)": "870c421e",
    "liquidate(bytes32[],address[],bytes[])": "bc2ca844",
    "liquidationPenalty()": "23f5589a",
    "marginAccounts(address)": "9c498bc3",
    "marketManager()": "41ed2c12",
    "openMarginAccount()": "b9e41a21",
    "openPosition(bytes32,address[],bytes[])": "fb80a0f1",
    "priceOracle()": "2630c12f",
    "riskManager()": "47842663",
    "setVault(address)": "6817031b",
    "settleFee(address)": "4b11df11",
    "updatePosition(bytes32,address[],bytes[])": "f6ba5d16",
    "vault()": "fbfa77cf"
  },
  "id": 29
}