{
  "abi": [
    {
      "inputs": [
        {
          "internalType": "bytes32",
          "name": "currencyKey",
          "type": "bytes32"
        },
        {
          "internalType": "address",
          "name": "aggregatorAddress",
          "type": "address"
        }
      ],
      "name": "addAggregator",
      "outputs": [],
      "stateMutability": "nonpayable",
      "type": "function"
    },
    {
      "inputs": [
        {
          "internalType": "bytes32",
          "name": "",
          "type": "bytes32"
        }
      ],
      "name": "aggregators",
      "outputs": [
        {
          "internalType": "address",
          "name": "",
          "type": "address"
        }
      ],
      "stateMutability": "view",
      "type": "function"
    },
    {
      "inputs": [],
      "name": "nominatedOwner",
      "outputs": [
        {
          "internalType": "address",
          "name": "",
          "type": "address"
        }
      ],
      "stateMutability": "view",
      "type": "function"
    },
    {
      "inputs": [],
      "name": "owner",
      "outputs": [
        {
          "internalType": "address",
          "name": "",
          "type": "address"
        }
      ],
      "stateMutability": "view",
      "type": "function"
    },
    {
      "inputs": [
        {
          "internalType": "bytes32",
          "name": "currencyKey",
          "type": "bytes32"
        }
      ],
      "name": "rateWithSafetyChecks",
      "outputs": [
        {
          "internalType": "uint256",
          "name": "rate",
          "type": "uint256"
        },
        {
          "internalType": "bool",
          "name": "broken",
          "type": "bool"
        },
        {
          "internalType": "bool",
          "name": "staleOrInvalid",
          "type": "bool"
        }
      ],
      "stateMutability": "nonpayable",
      "type": "function"
    },
    {
      "inputs": [
        {
          "internalType": "bytes32",
          "name": "currencyKey",
          "type": "bytes32"
        }
      ],
      "name": "removeAggregator",
      "outputs": [],
      "stateMutability": "nonpayable",
      "type": "function"
    }
  ],
  "bytecode": {
    "object": "0x608060405234801561001057600080fd5b506101b8806100206000396000f3fe608060405234801561001057600080fd5b50600436106100625760003560e01c8063045056f8146100675780632bed9e0c146100a15780633f0e084f146100b457806353a47bb7146100c65780637103353e146100f15780638da5cb5b1461011a575b600080fd5b61007f61007536600461012d565b5060009081908190565b6040805193845291151560208401521515908201526060015b60405180910390f35b6100b26100af36600461012d565b50565b005b6100b26100c2366004610146565b5050565b6001546100d9906001600160a01b031681565b6040516001600160a01b039091168152602001610098565b6100d96100ff36600461012d565b6002602052600090815260409020546001600160a01b031681565b6000546100d9906001600160a01b031681565b60006020828403121561013f57600080fd5b5035919050565b6000806040838503121561015957600080fd5b8235915060208301356001600160a01b038116811461017757600080fd5b80915050925092905056fea26469706673582212208ebe9c6e3a31d1651fbf06f054e36e89797c173b77c9f0284aa8883fdda7257d64736f6c63430008110033",
    "linkReferences": {}
  },
  "methodIdentifiers": {
    "addAggregator(bytes32,address)": "3f0e084f",
    "aggregators(bytes32)": "7103353e",
    "nominatedOwner()": "53a47bb7",
    "owner()": "8da5cb5b",
    "rateWithSafetyChecks(bytes32)": "045056f8",
    "removeAggregator(bytes32)": "2bed9e0c"
  },
  "id": 25
}