{
  "abi": [
    {
      "inputs": [
        {
          "internalType": "bytes32",
          "name": "currencyKey",
          "type": "bytes32"
        },
        {
          "internalType": "address",
          "name": "aggregatorAddress",
          "type": "address"
        }
      ],
      "name": "addAggregator",
      "outputs": [],
      "stateMutability": "nonpayable",
      "type": "function"
    },
    {
      "inputs": [
        {
          "internalType": "bytes32",
          "name": "",
          "type": "bytes32"
        }
      ],
      "name": "aggregators",
      "outputs": [
        {
          "internalType": "address",
          "name": "",
          "type": "address"
        }
      ],
      "stateMutability": "view",
      "type": "function"
    },
    {
      "inputs": [],
      "name": "nominatedOwner",
      "outputs": [
        {
          "internalType": "address",
          "name": "",
          "type": "address"
        }
      ],
      "stateMutability": "view",
      "type": "function"
    },
    {
      "inputs": [],
      "name": "owner",
      "outputs": [
        {
          "internalType": "address",
          "name": "",
          "type": "address"
        }
      ],
      "stateMutability": "view",
      "type": "function"
    },
    {
      "inputs": [
        {
          "internalType": "bytes32",
          "name": "currencyKey",
          "type": "bytes32"
        }
      ],
      "name": "rateWithSafetyChecks",
      "outputs": [
        {
          "internalType": "uint256",
          "name": "rate",
          "type": "uint256"
        },
        {
          "internalType": "bool",
          "name": "broken",
          "type": "bool"
        },
        {
          "internalType": "bool",
          "name": "staleOrInvalid",
          "type": "bool"
        }
      ],
      "stateMutability": "nonpayable",
      "type": "function"
    },
    {
      "inputs": [
        {
          "internalType": "bytes32",
          "name": "currencyKey",
          "type": "bytes32"
        }
      ],
      "name": "removeAggregator",
      "outputs": [],
      "stateMutability": "nonpayable",
      "type": "function"
    }
  ],
  "bytecode": {
    "object": "0x608060405234801561001057600080fd5b5061039e806100206000396000f3fe608060405234801561001057600080fd5b50600436106100625760003560e01c8063045056f8146100675780632bed9e0c146100995780633f0e084f146100b557806353a47bb7146100d15780637103353e146100ef5780638da5cb5b1461011f575b600080fd5b610081600480360381019061007c9190610208565b61013d565b60405161009093929190610269565b60405180910390f35b6100b360048036038101906100ae9190610208565b610149565b005b6100cf60048036038101906100ca91906102fe565b61014c565b005b6100d9610150565b6040516100e6919061034d565b60405180910390f35b61010960048036038101906101049190610208565b610176565b604051610116919061034d565b60405180910390f35b6101276101a9565b604051610134919061034d565b60405180910390f35b60008060009193909250565b50565b5050565b600160009054906101000a900473ffffffffffffffffffffffffffffffffffffffff1681565b60026020528060005260406000206000915054906101000a900473ffffffffffffffffffffffffffffffffffffffff1681565b60008054906101000a900473ffffffffffffffffffffffffffffffffffffffff1681565b600080fd5b6000819050919050565b6101e5816101d2565b81146101f057600080fd5b50565b600081359050610202816101dc565b92915050565b60006020828403121561021e5761021d6101cd565b5b600061022c848285016101f3565b91505092915050565b6000819050919050565b61024881610235565b82525050565b60008115159050919050565b6102638161024e565b82525050565b600060608201905061027e600083018661023f565b61028b602083018561025a565b610298604083018461025a565b949350505050565b600073ffffffffffffffffffffffffffffffffffffffff82169050919050565b60006102cb826102a0565b9050919050565b6102db816102c0565b81146102e657600080fd5b50565b6000813590506102f8816102d2565b92915050565b60008060408385031215610315576103146101cd565b5b6000610323858286016101f3565b9250506020610334858286016102e9565b9150509250929050565b610347816102c0565b82525050565b6000602082019050610362600083018461033e565b9291505056fea264697066735822122058592b9f764243dea0c90c76000bb0b76754905158daf379983e2f5eaaf25cd364736f6c63430008110033",
    "linkReferences": {}
  },
  "methodIdentifiers": {
    "addAggregator(bytes32,address)": "3f0e084f",
    "aggregators(bytes32)": "7103353e",
    "nominatedOwner()": "53a47bb7",
    "owner()": "8da5cb5b",
    "rateWithSafetyChecks(bytes32)": "045056f8",
    "removeAggregator(bytes32)": "2bed9e0c"
  },
  "id": 27
}