{
  "abi": [
    {
      "inputs": [
        {
          "internalType": "address",
          "name": "target",
          "type": "address"
        },
        {
          "internalType": "bytes",
          "name": "payload",
          "type": "bytes"
        }
      ],
      "name": "directRelay",
      "outputs": [],
      "stateMutability": "nonpayable",
      "type": "function"
    },
    {
      "inputs": [],
      "name": "expiryTime",
      "outputs": [
        {
          "internalType": "uint256",
          "name": "",
          "type": "uint256"
        }
      ],
      "stateMutability": "view",
      "type": "function"
    },
    {
      "inputs": [],
      "name": "temporaryOwner",
      "outputs": [
        {
          "internalType": "address",
          "name": "",
          "type": "address"
        }
      ],
      "stateMutability": "view",
      "type": "function"
    }
  ],
  "bytecode": {
    "object": "0x608060405234801561001057600080fd5b5061026f806100206000396000f3fe608060405234801561001057600080fd5b50600436106100415760003560e01c8063508d2ed71461004657806399bc0aea14610062578063a3578eed14610080575b600080fd5b610060600480360381019061005b919061017b565b61009e565b005b61006a6100a3565b60405161007791906101f4565b60405180910390f35b6100886100a9565b604051610095919061021e565b60405180910390f35b505050565b60005481565b600090565b600080fd5b600080fd5b600073ffffffffffffffffffffffffffffffffffffffff82169050919050565b60006100e3826100b8565b9050919050565b6100f3816100d8565b81146100fe57600080fd5b50565b600081359050610110816100ea565b92915050565b600080fd5b600080fd5b600080fd5b60008083601f84011261013b5761013a610116565b5b8235905067ffffffffffffffff8111156101585761015761011b565b5b60208301915083600182028301111561017457610173610120565b5b9250929050565b600080600060408486031215610194576101936100ae565b5b60006101a286828701610101565b935050602084013567ffffffffffffffff8111156101c3576101c26100b3565b5b6101cf86828701610125565b92509250509250925092565b6000819050919050565b6101ee816101db565b82525050565b600060208201905061020960008301846101e5565b92915050565b610218816100d8565b82525050565b6000602082019050610233600083018461020f565b9291505056fea2646970667358221220d7091bfedc755a9244c379756eeaf21a92fe3d97220f3e6312081a9f007892a164736f6c63430008110033",
    "linkReferences": {}
  },
  "methodIdentifiers": {
    "directRelay(address,bytes)": "508d2ed7",
    "expiryTime()": "99bc0aea",
    "temporaryOwner()": "a3578eed"
  },
  "id": 27
}