{
  "abi": [
    {
      "inputs": [
        {
          "internalType": "address",
          "name": "target",
          "type": "address"
        },
        {
          "internalType": "bytes",
          "name": "payload",
          "type": "bytes"
        }
      ],
      "name": "directRelay",
      "outputs": [],
      "stateMutability": "nonpayable",
      "type": "function"
    },
    {
      "inputs": [],
      "name": "expiryTime",
      "outputs": [
        {
          "internalType": "uint256",
          "name": "",
          "type": "uint256"
        }
      ],
      "stateMutability": "view",
      "type": "function"
    },
    {
      "inputs": [],
      "name": "temporaryOwner",
      "outputs": [
        {
          "internalType": "address",
          "name": "",
          "type": "address"
        }
      ],
      "stateMutability": "view",
      "type": "function"
    }
  ],
  "bytecode": {
    "object": "0x608060405234801561001057600080fd5b5061014d806100206000396000f3fe608060405234801561001057600080fd5b50600436106100415760003560e01c8063508d2ed71461004657806399bc0aea1461005b578063a3578eed14610077575b600080fd5b610059610054366004610086565b505050565b005b61006460005481565b6040519081526020015b60405180910390f35b6040516000815260200161006e565b60008060006040848603121561009b57600080fd5b83356001600160a01b03811681146100b257600080fd5b9250602084013567ffffffffffffffff808211156100cf57600080fd5b818601915086601f8301126100e357600080fd5b8135818111156100f257600080fd5b87602082850101111561010457600080fd5b602083019450809350505050925092509256fea2646970667358221220bfd346f6820502c11d4387a272796305bd64d1e5669e0c02348520da76cbfe8764736f6c63430008110033",
    "linkReferences": {}
  },
  "methodIdentifiers": {
    "directRelay(address,bytes)": "508d2ed7",
    "expiryTime()": "99bc0aea",
    "temporaryOwner()": "a3578eed"
  },
  "id": 25
}