{
  "abi": [
    {
      "inputs": [
        {
          "internalType": "address",
          "name": "_asset",
          "type": "address"
        },
        {
          "internalType": "string",
          "name": "_lpTokenName",
          "type": "string"
        },
        {
          "internalType": "string",
          "name": "_lpTokenSymbol",
          "type": "string"
        },
        {
          "internalType": "address",
          "name": "_interestRateModelAddress",
          "type": "address"
        },
        {
          "internalType": "uint256",
          "name": "_maxExpectedLiquidity",
          "type": "uint256"
        }
      ],
      "stateMutability": "nonpayable",
      "type": "constructor"
    },
    {
      "anonymous": false,
      "inputs": [
        {
          "indexed": true,
          "internalType": "address",
          "name": "owner",
          "type": "address"
        },
        {
          "indexed": true,
          "internalType": "address",
          "name": "spender",
          "type": "address"
        },
        {
          "indexed": false,
          "internalType": "uint256",
          "name": "value",
          "type": "uint256"
        }
      ],
      "name": "Approval",
      "type": "event"
    },
    {
      "anonymous": false,
      "inputs": [
        {
          "indexed": true,
          "internalType": "address",
          "name": "creditManager",
          "type": "address"
        },
        {
          "indexed": true,
          "internalType": "address",
          "name": "creditAccount",
          "type": "address"
        },
        {
          "indexed": false,
          "internalType": "uint256",
          "name": "amount",
          "type": "uint256"
        }
      ],
      "name": "Borrow",
      "type": "event"
    },
    {
      "anonymous": false,
      "inputs": [
        {
          "indexed": true,
          "internalType": "address",
          "name": "creditManager",
          "type": "address"
        }
      ],
      "name": "BorrowForbidden",
      "type": "event"
    },
    {
      "anonymous": false,
      "inputs": [
        {
          "indexed": true,
          "internalType": "address",
          "name": "caller",
          "type": "address"
        },
        {
          "indexed": true,
          "internalType": "address",
          "name": "owner",
          "type": "address"
        },
        {
          "indexed": false,
          "internalType": "uint256",
          "name": "assets",
          "type": "uint256"
        },
        {
          "indexed": false,
          "internalType": "uint256",
          "name": "shares",
          "type": "uint256"
        }
      ],
      "name": "Deposit",
      "type": "event"
    },
    {
      "anonymous": false,
      "inputs": [
        {
          "indexed": true,
          "internalType": "address",
          "name": "newInterestRateModel",
          "type": "address"
        }
      ],
      "name": "InterestRateModelUpdated",
      "type": "event"
    },
    {
      "anonymous": false,
      "inputs": [
        {
          "indexed": true,
          "internalType": "address",
          "name": "creditManager",
          "type": "address"
        }
      ],
      "name": "NewCreditManagerConnected",
      "type": "event"
    },
    {
      "anonymous": false,
      "inputs": [
        {
          "indexed": true,
          "internalType": "address",
          "name": "creditManager",
          "type": "address"
        },
        {
          "indexed": false,
          "internalType": "uint256",
          "name": "borrowedAmount",
          "type": "uint256"
        },
        {
          "indexed": false,
          "internalType": "uint256",
          "name": "interest",
          "type": "uint256"
        },
        {
          "indexed": false,
          "internalType": "uint256",
          "name": "profit",
          "type": "uint256"
        },
        {
          "indexed": false,
          "internalType": "uint256",
          "name": "loss",
          "type": "uint256"
        }
      ],
      "name": "Repay",
      "type": "event"
    },
    {
      "anonymous": false,
      "inputs": [
        {
          "indexed": true,
          "internalType": "address",
          "name": "from",
          "type": "address"
        },
        {
          "indexed": true,
          "internalType": "address",
          "name": "to",
          "type": "address"
        },
        {
          "indexed": false,
          "internalType": "uint256",
          "name": "value",
          "type": "uint256"
        }
      ],
      "name": "Transfer",
      "type": "event"
    },
    {
      "anonymous": false,
      "inputs": [
        {
          "indexed": true,
          "internalType": "address",
          "name": "caller",
          "type": "address"
        },
        {
          "indexed": true,
          "internalType": "address",
          "name": "receiver",
          "type": "address"
        },
        {
          "indexed": true,
          "internalType": "address",
          "name": "owner",
          "type": "address"
        },
        {
          "indexed": false,
          "internalType": "uint256",
          "name": "assets",
          "type": "uint256"
        },
        {
          "indexed": false,
          "internalType": "uint256",
          "name": "shares",
          "type": "uint256"
        }
      ],
      "name": "Withdraw",
      "type": "event"
    },
    {
      "inputs": [],
      "name": "_cumulativeIndex_RAY",
      "outputs": [
        {
          "internalType": "uint256",
          "name": "",
          "type": "uint256"
        }
      ],
      "stateMutability": "view",
      "type": "function"
    },
    {
      "inputs": [
        {
          "internalType": "address",
          "name": "_lendAddress",
          "type": "address"
        }
      ],
      "name": "addLendingAddress",
      "outputs": [],
      "stateMutability": "nonpayable",
      "type": "function"
    },
    {
      "inputs": [
        {
          "internalType": "address",
          "name": "_repayAddress",
          "type": "address"
        }
      ],
      "name": "addRepayingAddress",
      "outputs": [],
      "stateMutability": "nonpayable",
      "type": "function"
    },
    {
      "inputs": [
        {
          "internalType": "address",
          "name": "owner",
          "type": "address"
        },
        {
          "internalType": "address",
          "name": "spender",
          "type": "address"
        }
      ],
      "name": "allowance",
      "outputs": [
        {
          "internalType": "uint256",
          "name": "",
          "type": "uint256"
        }
      ],
      "stateMutability": "view",
      "type": "function"
    },
    {
      "inputs": [
        {
          "internalType": "address",
          "name": "spender",
          "type": "address"
        },
        {
          "internalType": "uint256",
          "name": "amount",
          "type": "uint256"
        }
      ],
      "name": "approve",
      "outputs": [
        {
          "internalType": "bool",
          "name": "",
          "type": "bool"
        }
      ],
      "stateMutability": "nonpayable",
      "type": "function"
    },
    {
      "inputs": [],
      "name": "asset",
      "outputs": [
        {
          "internalType": "address",
          "name": "",
          "type": "address"
        }
      ],
      "stateMutability": "view",
      "type": "function"
    },
    {
      "inputs": [
        {
          "internalType": "address",
          "name": "account",
          "type": "address"
        }
      ],
      "name": "balanceOf",
      "outputs": [
        {
          "internalType": "uint256",
          "name": "",
          "type": "uint256"
        }
      ],
      "stateMutability": "view",
      "type": "function"
    },
    {
      "inputs": [
        {
          "internalType": "address",
          "name": "borrower",
          "type": "address"
        },
        {
          "internalType": "uint256",
          "name": "amount",
          "type": "uint256"
        }
      ],
      "name": "borrow",
      "outputs": [],
      "stateMutability": "nonpayable",
      "type": "function"
    },
    {
      "inputs": [],
      "name": "borrowAPY_RAY",
      "outputs": [
        {
          "internalType": "uint256",
          "name": "",
          "type": "uint256"
        }
      ],
      "stateMutability": "view",
      "type": "function"
    },
    {
      "inputs": [],
      "name": "calcLinearCumulative_RAY",
      "outputs": [
        {
          "internalType": "uint256",
          "name": "",
          "type": "uint256"
        }
      ],
      "stateMutability": "view",
      "type": "function"
    },
    {
      "inputs": [
        {
          "internalType": "uint256",
          "name": "cumulativeIndex_RAY",
          "type": "uint256"
        },
        {
          "internalType": "uint256",
          "name": "currentBorrowRate_RAY",
          "type": "uint256"
        },
        {
          "internalType": "uint256",
          "name": "timeDifference",
          "type": "uint256"
        }
      ],
      "name": "calcLinearIndex_RAY",
      "outputs": [
        {
          "internalType": "uint256",
          "name": "",
          "type": "uint256"
        }
      ],
      "stateMutability": "pure",
      "type": "function"
    },
    {
      "inputs": [
        {
          "internalType": "uint256",
          "name": "shares",
          "type": "uint256"
        }
      ],
      "name": "convertToAssets",
      "outputs": [
        {
          "internalType": "uint256",
          "name": "assets",
          "type": "uint256"
        }
      ],
      "stateMutability": "view",
      "type": "function"
    },
    {
      "inputs": [
        {
          "internalType": "uint256",
          "name": "assets",
          "type": "uint256"
        }
      ],
      "name": "convertToShares",
      "outputs": [
        {
          "internalType": "uint256",
          "name": "shares",
          "type": "uint256"
        }
      ],
      "stateMutability": "view",
      "type": "function"
    },
    {
      "inputs": [],
      "name": "decimals",
      "outputs": [
        {
          "internalType": "uint8",
          "name": "",
          "type": "uint8"
        }
      ],
      "stateMutability": "view",
      "type": "function"
    },
    {
      "inputs": [
        {
          "internalType": "address",
          "name": "spender",
          "type": "address"
        },
        {
          "internalType": "uint256",
          "name": "subtractedValue",
          "type": "uint256"
        }
      ],
      "name": "decreaseAllowance",
      "outputs": [
        {
          "internalType": "bool",
          "name": "",
          "type": "bool"
        }
      ],
      "stateMutability": "nonpayable",
      "type": "function"
    },
    {
      "inputs": [
        {
          "internalType": "uint256",
          "name": "assets",
          "type": "uint256"
        },
        {
          "internalType": "address",
          "name": "receiver",
          "type": "address"
        }
      ],
      "name": "deposit",
      "outputs": [
        {
          "internalType": "uint256",
          "name": "",
          "type": "uint256"
        }
      ],
      "stateMutability": "nonpayable",
      "type": "function"
    },
    {
      "inputs": [],
      "name": "expectedLiquidity",
      "outputs": [
        {
          "internalType": "uint256",
          "name": "",
          "type": "uint256"
        }
      ],
      "stateMutability": "view",
      "type": "function"
    },
    {
      "inputs": [],
      "name": "getInterestRateModel",
      "outputs": [
        {
          "internalType": "address",
          "name": "",
          "type": "address"
        }
      ],
      "stateMutability": "view",
      "type": "function"
    },
    {
      "inputs": [],
      "name": "getShareRate_Ray",
      "outputs": [
        {
          "internalType": "uint256",
          "name": "",
          "type": "uint256"
        }
      ],
      "stateMutability": "view",
      "type": "function"
    },
    {
      "inputs": [
        {
          "internalType": "address",
          "name": "spender",
          "type": "address"
        },
        {
          "internalType": "uint256",
          "name": "addedValue",
          "type": "uint256"
        }
      ],
      "name": "increaseAllowance",
      "outputs": [
        {
          "internalType": "bool",
          "name": "",
          "type": "bool"
        }
      ],
      "stateMutability": "nonpayable",
      "type": "function"
    },
    {
      "inputs": [
        {
          "internalType": "address",
          "name": "",
          "type": "address"
        }
      ],
      "name": "lendingAllowed",
      "outputs": [
        {
          "internalType": "bool",
          "name": "",
          "type": "bool"
        }
      ],
      "stateMutability": "view",
      "type": "function"
    },
    {
      "inputs": [
        {
          "internalType": "address",
          "name": "",
          "type": "address"
        }
      ],
      "name": "maxDeposit",
      "outputs": [
        {
          "internalType": "uint256",
          "name": "",
          "type": "uint256"
        }
      ],
      "stateMutability": "view",
      "type": "function"
    },
    {
      "inputs": [],
      "name": "maxExpectedLiquidity",
      "outputs": [
        {
          "internalType": "uint256",
          "name": "",
          "type": "uint256"
        }
      ],
      "stateMutability": "view",
      "type": "function"
    },
    {
      "inputs": [
        {
          "internalType": "address",
          "name": "",
          "type": "address"
        }
      ],
      "name": "maxMint",
      "outputs": [
        {
          "internalType": "uint256",
          "name": "",
          "type": "uint256"
        }
      ],
      "stateMutability": "view",
      "type": "function"
    },
    {
      "inputs": [
        {
          "internalType": "address",
          "name": "owner",
          "type": "address"
        }
      ],
      "name": "maxRedeem",
      "outputs": [
        {
          "internalType": "uint256",
          "name": "",
          "type": "uint256"
        }
      ],
      "stateMutability": "view",
      "type": "function"
    },
    {
      "inputs": [
        {
          "internalType": "address",
          "name": "owner",
          "type": "address"
        }
      ],
      "name": "maxWithdraw",
      "outputs": [
        {
          "internalType": "uint256",
          "name": "",
          "type": "uint256"
        }
      ],
      "stateMutability": "view",
      "type": "function"
    },
    {
      "inputs": [
        {
          "internalType": "uint256",
          "name": "shares",
          "type": "uint256"
        },
        {
          "internalType": "address",
          "name": "receiver",
          "type": "address"
        }
      ],
      "name": "mint",
      "outputs": [
        {
          "internalType": "uint256",
          "name": "",
          "type": "uint256"
        }
      ],
      "stateMutability": "nonpayable",
      "type": "function"
    },
    {
      "inputs": [],
      "name": "name",
      "outputs": [
        {
          "internalType": "string",
          "name": "",
          "type": "string"
        }
      ],
      "stateMutability": "view",
      "type": "function"
    },
    {
      "inputs": [
        {
          "internalType": "uint256",
          "name": "assets",
          "type": "uint256"
        }
      ],
      "name": "previewDeposit",
      "outputs": [
        {
          "internalType": "uint256",
          "name": "",
          "type": "uint256"
        }
      ],
      "stateMutability": "view",
      "type": "function"
    },
    {
      "inputs": [
        {
          "internalType": "uint256",
          "name": "shares",
          "type": "uint256"
        }
      ],
      "name": "previewMint",
      "outputs": [
        {
          "internalType": "uint256",
          "name": "",
          "type": "uint256"
        }
      ],
      "stateMutability": "view",
      "type": "function"
    },
    {
      "inputs": [
        {
          "internalType": "uint256",
          "name": "shares",
          "type": "uint256"
        }
      ],
      "name": "previewRedeem",
      "outputs": [
        {
          "internalType": "uint256",
          "name": "",
          "type": "uint256"
        }
      ],
      "stateMutability": "view",
      "type": "function"
    },
    {
      "inputs": [
        {
          "internalType": "uint256",
          "name": "assets",
          "type": "uint256"
        }
      ],
      "name": "previewWithdraw",
      "outputs": [
        {
          "internalType": "uint256",
          "name": "",
          "type": "uint256"
        }
      ],
      "stateMutability": "view",
      "type": "function"
    },
    {
      "inputs": [
        {
          "internalType": "uint256",
          "name": "shares",
          "type": "uint256"
        },
        {
          "internalType": "address",
          "name": "receiver",
          "type": "address"
        },
        {
          "internalType": "address",
          "name": "owner",
          "type": "address"
        }
      ],
      "name": "redeem",
      "outputs": [
        {
          "internalType": "uint256",
          "name": "",
          "type": "uint256"
        }
      ],
      "stateMutability": "nonpayable",
      "type": "function"
    },
    {
      "inputs": [
        {
          "internalType": "address",
          "name": "borrower",
          "type": "address"
        },
        {
          "internalType": "uint256",
          "name": "borrowedAmount",
          "type": "uint256"
        },
        {
          "internalType": "uint256",
          "name": "interest",
          "type": "uint256"
        }
      ],
      "name": "repay",
      "outputs": [],
      "stateMutability": "nonpayable",
      "type": "function"
    },
    {
      "inputs": [
        {
          "internalType": "address",
          "name": "",
          "type": "address"
        }
      ],
      "name": "repayingAllowed",
      "outputs": [
        {
          "internalType": "bool",
          "name": "",
          "type": "bool"
        }
      ],
      "stateMutability": "view",
      "type": "function"
    },
    {
      "inputs": [],
      "name": "symbol",
      "outputs": [
        {
          "internalType": "string",
          "name": "",
          "type": "string"
        }
      ],
      "stateMutability": "view",
      "type": "function"
    },
    {
      "inputs": [],
      "name": "totalAssets",
      "outputs": [
        {
          "internalType": "uint256",
          "name": "",
          "type": "uint256"
        }
      ],
      "stateMutability": "view",
      "type": "function"
    },
    {
      "inputs": [],
      "name": "totalSupply",
      "outputs": [
        {
          "internalType": "uint256",
          "name": "",
          "type": "uint256"
        }
      ],
      "stateMutability": "view",
      "type": "function"
    },
    {
      "inputs": [
        {
          "internalType": "address",
          "name": "to",
          "type": "address"
        },
        {
          "internalType": "uint256",
          "name": "amount",
          "type": "uint256"
        }
      ],
      "name": "transfer",
      "outputs": [
        {
          "internalType": "bool",
          "name": "",
          "type": "bool"
        }
      ],
      "stateMutability": "nonpayable",
      "type": "function"
    },
    {
      "inputs": [
        {
          "internalType": "address",
          "name": "from",
          "type": "address"
        },
        {
          "internalType": "address",
          "name": "to",
          "type": "address"
        },
        {
          "internalType": "uint256",
          "name": "amount",
          "type": "uint256"
        }
      ],
      "name": "transferFrom",
      "outputs": [
        {
          "internalType": "bool",
          "name": "",
          "type": "bool"
        }
      ],
      "stateMutability": "nonpayable",
      "type": "function"
    },
    {
      "inputs": [
        {
          "internalType": "uint256",
          "name": "assets",
          "type": "uint256"
        },
        {
          "internalType": "address",
          "name": "receiver",
          "type": "address"
        },
        {
          "internalType": "address",
          "name": "owner",
          "type": "address"
        }
      ],
      "name": "withdraw",
      "outputs": [
        {
          "internalType": "uint256",
          "name": "",
          "type": "uint256"
        }
      ],
      "stateMutability": "nonpayable",
      "type": "function"
    }
  ],
  "bytecode": {
    "object": "0x60a06040523480156200001157600080fd5b506040516200273238038062002732833981016040819052620000349162000589565b8484846003620000458382620006b2565b506004620000548282620006b2565b5050506001600160a01b039081166080528516158015906200007e57506001600160a01b03821615155b6040518060400160405280600281526020016105a360f41b81525090620000c35760405162461bcd60e51b8152600401620000ba91906200077e565b60405180910390fd5b506b033b2e3c9fd0803ce8000000600b55620000df82620000ed565b600655506200084c92505050565b60408051808201909152600281526105a360f41b60208201526001600160a01b038216620001305760405162461bcd60e51b8152600401620000ba91906200077e565b50600780546001600160a01b0319166001600160a01b0383161790556200015860006200018f565b6040516001600160a01b038216907f371881eae32ec133f4b803567276bcf1009d4d4bb8aa6684fcec05b2318b970a90600090a250565b806200019a6200024a565b620001a69190620007c9565b600d55620001b3620002c3565b600b55600754600d546001600160a01b03909116906342568d4490620001d8620002f5565b6040516001600160e01b031960e085901b16815260048101929092526024820152604401602060405180830381865afa1580156200021a573d6000803e3d6000fd5b505050506040513d601f19601f82011682018060405250810190620002409190620007df565b600c555042600e55565b600080600e54426200025d9190620007c9565b905060006301e133806b033b2e3c9fd0803ce800000083600c54600554620002869190620007f9565b620002929190620007f9565b6200029e919062000813565b620002aa919062000813565b905080600d54620002bc919062000836565b9250505090565b600080600e5442620002d69190620007c9565b9050620002ef600b54600c54836200036a60201b60201c565b91505090565b6080516040516370a0823160e01b81523060048201526000916001600160a01b0316906370a0823190602401602060405180830381865afa1580156200033f573d6000803e3d6000fd5b505050506040513d601f19601f82011682018060405250810190620003659190620007df565b905090565b6000806301e133806200037e8486620007f9565b6200038a919062000813565b620003a2906b033b2e3c9fd0803ce800000062000836565b9050620003be8186620003c760201b62000eef1790919060201c565b95945050505050565b6000821580620003d5575081155b15620003e45750600062000499565b81620003fe60026b033b2e3c9fd0803ce800000062000813565b6200040c90600019620007c9565b62000418919062000813565b831115604051806040016040528060028152602001614d3160f01b81525090620004575760405162461bcd60e51b8152600401620000ba91906200077e565b506b033b2e3c9fd0803ce80000006200047260028262000813565b6200047e8486620007f9565b6200048a919062000836565b62000496919062000813565b90505b92915050565b80516001600160a01b0381168114620004b757600080fd5b919050565b634e487b7160e01b600052604160045260246000fd5b60005b83811015620004ef578181015183820152602001620004d5565b50506000910152565b600082601f8301126200050a57600080fd5b81516001600160401b0380821115620005275762000527620004bc565b604051601f8301601f19908116603f01168101908282118183101715620005525762000552620004bc565b816040528381528660208588010111156200056c57600080fd5b6200057f846020830160208901620004d2565b9695505050505050565b600080600080600060a08688031215620005a257600080fd5b620005ad866200049f565b60208701519095506001600160401b0380821115620005cb57600080fd5b620005d989838a01620004f8565b95506040880151915080821115620005f057600080fd5b50620005ff88828901620004f8565b93505062000610606087016200049f565b9150608086015190509295509295909350565b600181811c908216806200063857607f821691505b6020821081036200065957634e487b7160e01b600052602260045260246000fd5b50919050565b601f821115620006ad57600081815260208120601f850160051c81016020861015620006885750805b601f850160051c820191505b81811015620006a95782815560010162000694565b5050505b505050565b81516001600160401b03811115620006ce57620006ce620004bc565b620006e681620006df845462000623565b846200065f565b602080601f8311600181146200071e5760008415620007055750858301515b600019600386901b1c1916600185901b178555620006a9565b600085815260208120601f198616915b828110156200074f578886015182559484019460019091019084016200072e565b50858210156200076e5787850151600019600388901b60f8161c191681555b5050505050600190811b01905550565b60208152600082518060208401526200079f816040850160208701620004d2565b601f01601f19169190910160400192915050565b634e487b7160e01b600052601160045260246000fd5b81810381811115620004995762000499620007b3565b600060208284031215620007f257600080fd5b5051919050565b8082028115828204841417620004995762000499620007b3565b6000826200083157634e487b7160e01b600052601260045260246000fd5b500490565b80820180821115620004995762000499620007b3565b608051611ea76200088b60003960008181610353015281816105b2015281816108f901528181610b3d0152818161143e01526115690152611ea76000f3fe608060405234801561001057600080fd5b50600436106102525760003560e01c806370a0823111610146578063ba087652116100c3578063dbcb313b11610087578063dbcb313b14610521578063dc36f02a1461052a578063dceac9c81461054d578063dd62ed3e1461057f578063ef8b30f7146104e8578063fe14112d1461059257600080fd5b8063ba087652146104c0578063c63d75b6146104d3578063c6e6f592146104e8578063ce96cb77146104fb578063d905777e1461050e57600080fd5b806395d89b411161010a57806395d89b411461046c578063a457c2d714610474578063a9059cbb14610487578063b3d7f6b91461049a578063b460af94146104ad57600080fd5b806370a08231146103f1578063726f6e221461041a57806384aafe52146104235780638cd2e0c71461044657806394bf804d1461045957600080fd5b8063313ce567116101d457806345d31f9d1161019857806345d31f9d146103b15780634b8a3529146103ba5780634cdad506146102bb57806360b722f3146103cd5780636e553f65146103de57600080fd5b8063313ce5671461032f57806331d8bc271461033e57806338d52e0f14610351578063395093511461038b578063402d267d1461039e57600080fd5b80630a28a4771161021b5780630a28a477146102f15780630fce70fb1461030457806318160ddd1461030c578063222632f11461031457806323b872dd1461031c57600080fd5b8062e970991461025757806301e1d1141461028b57806306fdde03146102a657806307a2d13a146102bb578063095ea7b3146102ce575b600080fd5b610289610265366004611b5d565b6001600160a01b03166000908152600860205260409020805460ff19166001179055565b005b61029361059a565b6040519081526020015b60405180910390f35b6102ae61062a565b60405161029d9190611b9c565b6102936102c9366004611bcf565b6106bc565b6102e16102dc366004611be8565b6106cf565b604051901515815260200161029d565b6102936102ff366004611bcf565b6106e7565b6102936106f4565b600254610293565b61029361071c565b6102e161032a366004611c12565b61076d565b6040516012815260200161029d565b61029361034c366004611c4e565b610793565b7f00000000000000000000000000000000000000000000000000000000000000005b6040516001600160a01b03909116815260200161029d565b6102e1610399366004611be8565b6107d9565b6102936103ac366004611b5d565b6107fb565b610293600c5481565b6102896103c8366004611be8565b610819565b6007546001600160a01b0316610373565b6102936103ec366004611c7a565b6109d3565b6102936103ff366004611b5d565b6001600160a01b031660009081526020819052604090205490565b61029360065481565b6102e1610431366004611b5d565b60096020526000908152604090205460ff1681565b610289610454366004611ca6565b610ab3565b610293610467366004611c7a565b610bc6565b6102ae610c40565b6102e1610482366004611be8565b610c4f565b6102e1610495366004611be8565b610cd5565b6102936104a8366004611bcf565b610ce3565b6102936104bb366004611cd9565b610cf0565b6102936104ce366004611cd9565b610d87565b6102936104e1366004611b5d565b5060001990565b6102936104f6366004611bcf565b610e09565b610293610509366004611b5d565b610e16565b61029361051c366004611b5d565b610e3a565b610293600b5481565b6102e1610538366004611b5d565b60086020526000908152604090205460ff1681565b61028961055b366004611b5d565b6001600160a01b03166000908152600960205260409020805460ff19166001179055565b61029361058d366004611d15565b610e58565b610293610e83565b6040516370a0823160e01b81523060048201526000907f00000000000000000000000000000000000000000000000000000000000000006001600160a01b0316906370a0823190602401602060405180830381865afa158015610601573d6000803e3d6000fd5b505050506040513d601f19601f820116820180604052508101906106259190611d3f565b905090565b60606003805461063990611d58565b80601f016020809104026020016040519081016040528092919081815260200182805461066590611d58565b80156106b25780601f10610687576101008083540402835291602001916106b2565b820191906000526020600020905b81548152906001019060200180831161069557829003601f168201915b5050505050905090565b60006106c9826000610fa8565b92915050565b6000336106dd818585610fc9565b5060019392505050565b60006106c98260016110ed565b600080600e54426107059190611da8565b9050610716600b54600c5483610793565b91505090565b60008061072860025490565b90508060000361074457676765c793fa10079d601b1b91505090565b80676765c793fa10079d601b1b610759610e83565b6107639190611dbb565b6107169190611de8565b60003361077b85828561110f565b610786858585611189565b60019150505b9392505050565b6000806301e133806107a58486611dbb565b6107af9190611de8565b6107c490676765c793fa10079d601b1b611e0a565b90506107d08582610eef565b95945050505050565b6000336106dd8185856107ec8383610e58565b6107f69190611e0a565b610fc9565b6000610805611357565b6108105760006106c9565b60001992915050565b3360009081526008602052604090205460ff1615156001146108765760405162461bcd60e51b8152602060048201526011602482015270155b985d5d1a1bdc9a5e99590813195b99607a1b60448201526064015b60405180910390fd5b8061087f61059a565b10156108cd5760405162461bcd60e51b815260206004820152601860248201527f5661756c743a204e6f7420656e6f756768206173736574730000000000000000604482015260640161086d565b6005546108da9082611371565b600555600d546108ea908261137d565b600d556108f76000611389565b7f000000000000000000000000000000000000000000000000000000000000000060405163a9059cbb60e01b81526001600160a01b03848116600483015260248201849052919091169063a9059cbb906044016020604051808303816000875af1158015610969573d6000803e3d6000fd5b505050506040513d601f19601f8201168201806040525081019061098d9190611e1d565b506040518181526001600160a01b0383169033907f312a5e5e1079f5dda4e95dbbd0b908b291fd5b992ef22073643ab691572c5b52906020015b60405180910390a35050565b60006109de826107fb565b831115610a2d5760405162461bcd60e51b815260206004820152601e60248201527f455243343632363a206465706f736974206d6f7265207468616e206d61780000604482015260640161086d565b60065483610a39610e83565b610a439190611e0a565b11156040518060400160405280600381526020016228299960e91b81525090610a7f5760405162461bcd60e51b815260040161086d9190611b9c565b506000610a8b84610e09565b9050610a9933848684611439565b600d54610aa69085611371565b600d5561078c6000611389565b3360009081526009602052604090205460ff161515600114610b0c5760405162461bcd60e51b8152602060048201526012602482015271556e617574686f72697a656420526570617960701b604482015260640161086d565b600554610b19908361137d565b600555600d54610b35908290610b2f9085611371565b90611371565b600d55610b6d7f00000000000000000000000000000000000000000000000000000000000000008430610b688686611371565b6114cb565b610b776000611389565b604080518381526020810183905260008183018190526060820152905133917fc8453d1b0c8f6e547923ef0f16bf4a0c29ba241bc57aee96bfe36584a99e5095919081900360800190a2505050565b600080610bd284610ce3565b905060065481610be0610e83565b610bea9190611e0a565b11156040518060400160405280600381526020016228299960e91b81525090610c265760405162461bcd60e51b815260040161086d9190611b9c565b50610c3333848387611439565b600d54610aa69082611371565b60606004805461063990611d58565b60003381610c5d8286610e58565b905083811015610cbd5760405162461bcd60e51b815260206004820152602560248201527f45524332303a2064656372656173656420616c6c6f77616e63652062656c6f77604482015264207a65726f60d81b606482015260840161086d565b610cca8286868403610fc9565b506001949350505050565b6000336106dd818585611189565b60006106c9826001610fa8565b6000610cfb82610e16565b841115610d4a5760405162461bcd60e51b815260206004820152601f60248201527f455243343632363a207769746864726177206d6f7265207468616e206d617800604482015260640161086d565b6000610d55856106e7565b9050610d643385858885611536565b84600d54610d729190611da8565b600d55610d7f6000611389565b949350505050565b6000610d9282610e3a565b841115610de15760405162461bcd60e51b815260206004820152601d60248201527f455243343632363a2072656465656d206d6f7265207468616e206d6178000000604482015260640161086d565b6000610dec856106bc565b9050610dfb3385858489611536565b80600d54610d729190611da8565b60006106c98260006110ed565b6001600160a01b0381166000908152602081905260408120546106c9906000610fa8565b6001600160a01b0381166000908152602081905260408120546106c9565b6001600160a01b03918216600090815260016020908152604080832093909416825291909152205490565b600080600e5442610e949190611da8565b905060006301e13380676765c793fa10079d601b1b83600c54600554610eba9190611dbb565b610ec49190611dbb565b610ece9190611de8565b610ed89190611de8565b905080600d54610ee89190611e0a565b9250505090565b6000821580610efc575081155b15610f09575060006106c9565b81610f206002676765c793fa10079d601b1b611de8565b610f2c90600019611da8565b610f369190611de8565b831115604051806040016040528060028152602001614d3160f01b81525090610f725760405162461bcd60e51b815260040161086d9190611b9c565b50676765c793fa10079d601b1b610f8a600282611de8565b610f948486611dbb565b610f9e9190611e0a565b61078c9190611de8565b600061078c610fb561071c565b8490676765c793fa10079d601b1b856115f6565b6001600160a01b03831661102b5760405162461bcd60e51b8152602060048201526024808201527f45524332303a20617070726f76652066726f6d20746865207a65726f206164646044820152637265737360e01b606482015260840161086d565b6001600160a01b03821661108c5760405162461bcd60e51b815260206004820152602260248201527f45524332303a20617070726f766520746f20746865207a65726f206164647265604482015261737360f01b606482015260840161086d565b6001600160a01b0383811660008181526001602090815260408083209487168084529482529182902085905590518481527f8c5be1e5ebec7d5bd14f71427d1e84f3dd0314c0f7b2291e5b200ac8c7c3b925910160405180910390a3505050565b600061078c676765c793fa10079d601b1b61110661071c565b859190856115f6565b600061111b8484610e58565b9050600019811461118357818110156111765760405162461bcd60e51b815260206004820152601d60248201527f45524332303a20696e73756666696369656e7420616c6c6f77616e6365000000604482015260640161086d565b6111838484848403610fc9565b50505050565b6001600160a01b0383166111ed5760405162461bcd60e51b815260206004820152602560248201527f45524332303a207472616e736665722066726f6d20746865207a65726f206164604482015264647265737360d81b606482015260840161086d565b6001600160a01b03821661124f5760405162461bcd60e51b815260206004820152602360248201527f45524332303a207472616e7366657220746f20746865207a65726f206164647260448201526265737360e81b606482015260840161086d565b6001600160a01b038316600090815260208190526040902054818110156112c75760405162461bcd60e51b815260206004820152602660248201527f45524332303a207472616e7366657220616d6f756e7420657863656564732062604482015265616c616e636560d01b606482015260840161086d565b6001600160a01b038085166000908152602081905260408082208585039055918516815290812080548492906112fe908490611e0a565b92505081905550826001600160a01b0316846001600160a01b03167fddf252ad1be2c89b69c2b068fc378daa952ba7f163c4a11628f55a4df523b3ef8460405161134a91815260200190565b60405180910390a3611183565b60008061136261059a565b11806106255750506002541590565b600061078c8284611e0a565b600061078c8284611da8565b80611392610e83565b61139c9190611da8565b600d556113a76106f4565b600b55600754600d546001600160a01b03909116906342568d44906113ca61059a565b6040516001600160e01b031960e085901b16815260048101929092526024820152604401602060405180830381865afa15801561140b573d6000803e3d6000fd5b505050506040513d601f19601f8201168201806040525081019061142f9190611d3f565b600c555042600e55565b6114657f00000000000000000000000000000000000000000000000000000000000000008530856114cb565b61146f8382611656565b826001600160a01b0316846001600160a01b03167fdcbc1c05240f31ff3ad067ef1ee35ce4997762752e3a095284754544f4c709d784846040516114bd929190918252602082015260400190565b60405180910390a350505050565b6040516001600160a01b03808516602483015283166044820152606481018290526111839085906323b872dd60e01b906084015b60408051601f198184030181529190526020810180516001600160e01b03166001600160e01b03199093169290921790915261172e565b826001600160a01b0316856001600160a01b03161461155a5761155a83868361110f565b6115648382611800565b61158f7f0000000000000000000000000000000000000000000000000000000000000000858461194e565b826001600160a01b0316846001600160a01b0316866001600160a01b03167ffbde797d201c681b91056529119e0b02407c7bb96a4a2c75c01fc9667232c8db85856040516115e7929190918252602082015260400190565b60405180910390a45050505050565b60008061160486868661197e565b9050600183600281111561161a5761161a611e3f565b14801561163757506000848061163257611632611dd2565b868809115b156107d057611647600182611e0a565b9695505050505050565b505050565b6001600160a01b0382166116ac5760405162461bcd60e51b815260206004820152601f60248201527f45524332303a206d696e7420746f20746865207a65726f206164647265737300604482015260640161086d565b80600260008282546116be9190611e0a565b90915550506001600160a01b038216600090815260208190526040812080548392906116eb908490611e0a565b90915550506040518181526001600160a01b038316906000907fddf252ad1be2c89b69c2b068fc378daa952ba7f163c4a11628f55a4df523b3ef906020016109c7565b6000611783826040518060400160405280602081526020017f5361666545524332303a206c6f772d6c6576656c2063616c6c206661696c6564815250856001600160a01b0316611a2d9092919063ffffffff16565b80519091501561165157808060200190518101906117a19190611e1d565b6116515760405162461bcd60e51b815260206004820152602a60248201527f5361666545524332303a204552433230206f7065726174696f6e20646964206e6044820152691bdd081cdd58d8d9595960b21b606482015260840161086d565b6001600160a01b0382166118605760405162461bcd60e51b815260206004820152602160248201527f45524332303a206275726e2066726f6d20746865207a65726f206164647265736044820152607360f81b606482015260840161086d565b6001600160a01b038216600090815260208190526040902054818110156118d45760405162461bcd60e51b815260206004820152602260248201527f45524332303a206275726e20616d6f756e7420657863656564732062616c616e604482015261636560f01b606482015260840161086d565b6001600160a01b0383166000908152602081905260408120838303905560028054849290611903908490611da8565b90915550506040518281526000906001600160a01b038516907fddf252ad1be2c89b69c2b068fc378daa952ba7f163c4a11628f55a4df523b3ef9060200160405180910390a3505050565b6040516001600160a01b03831660248201526044810182905261165190849063a9059cbb60e01b906064016114ff565b60008080600019858709858702925082811083820303915050806000036119b8578382816119ae576119ae611dd2565b049250505061078c565b8084116119c457600080fd5b60008486880960026001871981018816978890046003810283188082028403028082028403028082028403028082028403028082028403029081029092039091026000889003889004909101858311909403939093029303949094049190911702949350505050565b6060610d7f8484600085856001600160a01b0385163b611a8f5760405162461bcd60e51b815260206004820152601d60248201527f416464726573733a2063616c6c20746f206e6f6e2d636f6e7472616374000000604482015260640161086d565b600080866001600160a01b03168587604051611aab9190611e55565b60006040518083038185875af1925050503d8060008114611ae8576040519150601f19603f3d011682016040523d82523d6000602084013e611aed565b606091505b5091509150611afd828286611b08565b979650505050505050565b60608315611b1757508161078c565b825115611b275782518084602001fd5b8160405162461bcd60e51b815260040161086d9190611b9c565b80356001600160a01b0381168114611b5857600080fd5b919050565b600060208284031215611b6f57600080fd5b61078c82611b41565b60005b83811015611b93578181015183820152602001611b7b565b50506000910152565b6020815260008251806020840152611bbb816040850160208701611b78565b601f01601f19169190910160400192915050565b600060208284031215611be157600080fd5b5035919050565b60008060408385031215611bfb57600080fd5b611c0483611b41565b946020939093013593505050565b600080600060608486031215611c2757600080fd5b611c3084611b41565b9250611c3e60208501611b41565b9150604084013590509250925092565b600080600060608486031215611c6357600080fd5b505081359360208301359350604090920135919050565b60008060408385031215611c8d57600080fd5b82359150611c9d60208401611b41565b90509250929050565b600080600060608486031215611cbb57600080fd5b611cc484611b41565b95602085013595506040909401359392505050565b600080600060608486031215611cee57600080fd5b83359250611cfe60208501611b41565b9150611d0c60408501611b41565b90509250925092565b60008060408385031215611d2857600080fd5b611d3183611b41565b9150611c9d60208401611b41565b600060208284031215611d5157600080fd5b5051919050565b600181811c90821680611d6c57607f821691505b602082108103611d8c57634e487b7160e01b600052602260045260246000fd5b50919050565b634e487b7160e01b600052601160045260246000fd5b818103818111156106c9576106c9611d92565b80820281158282048414176106c9576106c9611d92565b634e487b7160e01b600052601260045260246000fd5b600082611e0557634e487b7160e01b600052601260045260246000fd5b500490565b808201808211156106c9576106c9611d92565b600060208284031215611e2f57600080fd5b8151801515811461078c57600080fd5b634e487b7160e01b600052602160045260246000fd5b60008251611e67818460208701611b78565b919091019291505056fea2646970667358221220e6d2c7b30cf952050b7abf818aead223a19250c1f93d595e84854fc86c631c6464736f6c63430008110033",
    "linkReferences": {}
  },
  "methodIdentifiers": {
    "_cumulativeIndex_RAY()": "dbcb313b",
    "addLendingAddress(address)": "00e97099",
    "addRepayingAddress(address)": "dceac9c8",
    "allowance(address,address)": "dd62ed3e",
    "approve(address,uint256)": "095ea7b3",
    "asset()": "38d52e0f",
    "balanceOf(address)": "70a08231",
    "borrow(address,uint256)": "4b8a3529",
    "borrowAPY_RAY()": "45d31f9d",
    "calcLinearCumulative_RAY()": "0fce70fb",
    "calcLinearIndex_RAY(uint256,uint256,uint256)": "31d8bc27",
    "convertToAssets(uint256)": "07a2d13a",
    "convertToShares(uint256)": "c6e6f592",
    "decimals()": "313ce567",
    "decreaseAllowance(address,uint256)": "a457c2d7",
    "deposit(uint256,address)": "6e553f65",
    "expectedLiquidity()": "fe14112d",
    "getInterestRateModel()": "60b722f3",
    "getShareRate_Ray()": "222632f1",
    "increaseAllowance(address,uint256)": "39509351",
    "lendingAllowed(address)": "dc36f02a",
    "maxDeposit(address)": "402d267d",
    "maxExpectedLiquidity()": "726f6e22",
    "maxMint(address)": "c63d75b6",
    "maxRedeem(address)": "d905777e",
    "maxWithdraw(address)": "ce96cb77",
    "mint(uint256,address)": "94bf804d",
    "name()": "06fdde03",
    "previewDeposit(uint256)": "ef8b30f7",
    "previewMint(uint256)": "b3d7f6b9",
    "previewRedeem(uint256)": "4cdad506",
    "previewWithdraw(uint256)": "0a28a477",
    "redeem(uint256,address,address)": "ba087652",
    "repay(address,uint256,uint256)": "8cd2e0c7",
    "repayingAllowed(address)": "84aafe52",
    "symbol()": "95d89b41",
    "totalAssets()": "01e1d114",
    "totalSupply()": "18160ddd",
    "transfer(address,uint256)": "a9059cbb",
    "transferFrom(address,address,uint256)": "23b872dd",
    "withdraw(uint256,address,address)": "b460af94"
  },
  "id": 45
}