{
  "abi": [
    {
      "inputs": [
        {
          "internalType": "address",
          "name": "_asset",
          "type": "address"
        },
        {
          "internalType": "string",
          "name": "_lpTokenName",
          "type": "string"
        },
        {
          "internalType": "string",
          "name": "_lpTokenSymbol",
          "type": "string"
        },
        {
          "internalType": "address",
          "name": "_interestRateModelAddress",
          "type": "address"
        },
        {
          "internalType": "uint256",
          "name": "_maxExpectedLiquidity",
          "type": "uint256"
        }
      ],
      "stateMutability": "nonpayable",
      "type": "constructor"
    },
    {
      "anonymous": false,
      "inputs": [
        {
          "indexed": true,
          "internalType": "address",
          "name": "owner",
          "type": "address"
        },
        {
          "indexed": true,
          "internalType": "address",
          "name": "spender",
          "type": "address"
        },
        {
          "indexed": false,
          "internalType": "uint256",
          "name": "value",
          "type": "uint256"
        }
      ],
      "name": "Approval",
      "type": "event"
    },
    {
      "anonymous": false,
      "inputs": [
        {
          "indexed": true,
          "internalType": "address",
          "name": "creditManager",
          "type": "address"
        },
        {
          "indexed": true,
          "internalType": "address",
          "name": "creditAccount",
          "type": "address"
        },
        {
          "indexed": false,
          "internalType": "uint256",
          "name": "amount",
          "type": "uint256"
        }
      ],
      "name": "Borrow",
      "type": "event"
    },
    {
      "anonymous": false,
      "inputs": [
        {
          "indexed": true,
          "internalType": "address",
          "name": "creditManager",
          "type": "address"
        }
      ],
      "name": "BorrowForbidden",
      "type": "event"
    },
    {
      "anonymous": false,
      "inputs": [
        {
          "indexed": true,
          "internalType": "address",
          "name": "caller",
          "type": "address"
        },
        {
          "indexed": true,
          "internalType": "address",
          "name": "owner",
          "type": "address"
        },
        {
          "indexed": false,
          "internalType": "uint256",
          "name": "assets",
          "type": "uint256"
        },
        {
          "indexed": false,
          "internalType": "uint256",
          "name": "shares",
          "type": "uint256"
        }
      ],
      "name": "Deposit",
      "type": "event"
    },
    {
      "anonymous": false,
      "inputs": [
        {
          "indexed": true,
          "internalType": "address",
          "name": "newInterestRateModel",
          "type": "address"
        }
      ],
      "name": "InterestRateModelUpdated",
      "type": "event"
    },
    {
      "anonymous": false,
      "inputs": [
        {
          "indexed": true,
          "internalType": "address",
          "name": "creditManager",
          "type": "address"
        }
      ],
      "name": "NewCreditManagerConnected",
      "type": "event"
    },
    {
      "anonymous": false,
      "inputs": [
        {
          "indexed": true,
          "internalType": "address",
          "name": "creditManager",
          "type": "address"
        },
        {
          "indexed": false,
          "internalType": "uint256",
          "name": "borrowedAmount",
          "type": "uint256"
        },
        {
          "indexed": false,
          "internalType": "uint256",
          "name": "interest",
          "type": "uint256"
        },
        {
          "indexed": false,
          "internalType": "uint256",
          "name": "profit",
          "type": "uint256"
        },
        {
          "indexed": false,
          "internalType": "uint256",
          "name": "loss",
          "type": "uint256"
        }
      ],
      "name": "Repay",
      "type": "event"
    },
    {
      "anonymous": false,
      "inputs": [
        {
          "indexed": true,
          "internalType": "address",
          "name": "from",
          "type": "address"
        },
        {
          "indexed": true,
          "internalType": "address",
          "name": "to",
          "type": "address"
        },
        {
          "indexed": false,
          "internalType": "uint256",
          "name": "value",
          "type": "uint256"
        }
      ],
      "name": "Transfer",
      "type": "event"
    },
    {
      "anonymous": false,
      "inputs": [
        {
          "indexed": true,
          "internalType": "address",
          "name": "caller",
          "type": "address"
        },
        {
          "indexed": true,
          "internalType": "address",
          "name": "receiver",
          "type": "address"
        },
        {
          "indexed": true,
          "internalType": "address",
          "name": "owner",
          "type": "address"
        },
        {
          "indexed": false,
          "internalType": "uint256",
          "name": "assets",
          "type": "uint256"
        },
        {
          "indexed": false,
          "internalType": "uint256",
          "name": "shares",
          "type": "uint256"
        }
      ],
      "name": "Withdraw",
      "type": "event"
    },
    {
      "inputs": [],
      "name": "_cumulativeIndex_RAY",
      "outputs": [
        {
          "internalType": "uint256",
          "name": "",
          "type": "uint256"
        }
      ],
      "stateMutability": "view",
      "type": "function"
    },
    {
      "inputs": [
        {
          "internalType": "address",
          "name": "_lendAddress",
          "type": "address"
        }
      ],
      "name": "addLendingAddress",
      "outputs": [],
      "stateMutability": "nonpayable",
      "type": "function"
    },
    {
      "inputs": [
        {
          "internalType": "address",
          "name": "_repayAddress",
          "type": "address"
        }
      ],
      "name": "addRepayingAddress",
      "outputs": [],
      "stateMutability": "nonpayable",
      "type": "function"
    },
    {
      "inputs": [
        {
          "internalType": "address",
          "name": "owner",
          "type": "address"
        },
        {
          "internalType": "address",
          "name": "spender",
          "type": "address"
        }
      ],
      "name": "allowance",
      "outputs": [
        {
          "internalType": "uint256",
          "name": "",
          "type": "uint256"
        }
      ],
      "stateMutability": "view",
      "type": "function"
    },
    {
      "inputs": [
        {
          "internalType": "address",
          "name": "spender",
          "type": "address"
        },
        {
          "internalType": "uint256",
          "name": "amount",
          "type": "uint256"
        }
      ],
      "name": "approve",
      "outputs": [
        {
          "internalType": "bool",
          "name": "",
          "type": "bool"
        }
      ],
      "stateMutability": "nonpayable",
      "type": "function"
    },
    {
      "inputs": [],
      "name": "asset",
      "outputs": [
        {
          "internalType": "address",
          "name": "",
          "type": "address"
        }
      ],
      "stateMutability": "view",
      "type": "function"
    },
    {
      "inputs": [
        {
          "internalType": "address",
          "name": "account",
          "type": "address"
        }
      ],
      "name": "balanceOf",
      "outputs": [
        {
          "internalType": "uint256",
          "name": "",
          "type": "uint256"
        }
      ],
      "stateMutability": "view",
      "type": "function"
    },
    {
      "inputs": [
        {
          "internalType": "address",
          "name": "borrower",
          "type": "address"
        },
        {
          "internalType": "uint256",
          "name": "amount",
          "type": "uint256"
        }
      ],
      "name": "borrow",
      "outputs": [],
      "stateMutability": "nonpayable",
      "type": "function"
    },
    {
      "inputs": [],
      "name": "borrowAPY_RAY",
      "outputs": [
        {
          "internalType": "uint256",
          "name": "",
          "type": "uint256"
        }
      ],
      "stateMutability": "view",
      "type": "function"
    },
    {
      "inputs": [],
      "name": "calcLinearCumulative_RAY",
      "outputs": [
        {
          "internalType": "uint256",
          "name": "",
          "type": "uint256"
        }
      ],
      "stateMutability": "view",
      "type": "function"
    },
    {
      "inputs": [
        {
          "internalType": "uint256",
          "name": "cumulativeIndex_RAY",
          "type": "uint256"
        },
        {
          "internalType": "uint256",
          "name": "currentBorrowRate_RAY",
          "type": "uint256"
        },
        {
          "internalType": "uint256",
          "name": "timeDifference",
          "type": "uint256"
        }
      ],
      "name": "calcLinearIndex_RAY",
      "outputs": [
        {
          "internalType": "uint256",
          "name": "",
          "type": "uint256"
        }
      ],
      "stateMutability": "pure",
      "type": "function"
    },
    {
      "inputs": [
        {
          "internalType": "uint256",
          "name": "shares",
          "type": "uint256"
        }
      ],
      "name": "convertToAssets",
      "outputs": [
        {
          "internalType": "uint256",
          "name": "assets",
          "type": "uint256"
        }
      ],
      "stateMutability": "view",
      "type": "function"
    },
    {
      "inputs": [
        {
          "internalType": "uint256",
          "name": "assets",
          "type": "uint256"
        }
      ],
      "name": "convertToShares",
      "outputs": [
        {
          "internalType": "uint256",
          "name": "shares",
          "type": "uint256"
        }
      ],
      "stateMutability": "view",
      "type": "function"
    },
    {
      "inputs": [],
      "name": "decimals",
      "outputs": [
        {
          "internalType": "uint8",
          "name": "",
          "type": "uint8"
        }
      ],
      "stateMutability": "view",
      "type": "function"
    },
    {
      "inputs": [
        {
          "internalType": "address",
          "name": "spender",
          "type": "address"
        },
        {
          "internalType": "uint256",
          "name": "subtractedValue",
          "type": "uint256"
        }
      ],
      "name": "decreaseAllowance",
      "outputs": [
        {
          "internalType": "bool",
          "name": "",
          "type": "bool"
        }
      ],
      "stateMutability": "nonpayable",
      "type": "function"
    },
    {
      "inputs": [
        {
          "internalType": "uint256",
          "name": "assets",
          "type": "uint256"
        },
        {
          "internalType": "address",
          "name": "receiver",
          "type": "address"
        }
      ],
      "name": "deposit",
      "outputs": [
        {
          "internalType": "uint256",
          "name": "",
          "type": "uint256"
        }
      ],
      "stateMutability": "nonpayable",
      "type": "function"
    },
    {
      "inputs": [],
      "name": "expectedLiquidity",
      "outputs": [
        {
          "internalType": "uint256",
          "name": "",
          "type": "uint256"
        }
      ],
      "stateMutability": "view",
      "type": "function"
    },
    {
      "inputs": [],
      "name": "getInterestRateModel",
      "outputs": [
        {
          "internalType": "address",
          "name": "",
          "type": "address"
        }
      ],
      "stateMutability": "view",
      "type": "function"
    },
    {
      "inputs": [],
      "name": "getShareRate_Ray",
      "outputs": [
        {
          "internalType": "uint256",
          "name": "",
          "type": "uint256"
        }
      ],
      "stateMutability": "view",
      "type": "function"
    },
    {
      "inputs": [
        {
          "internalType": "address",
          "name": "spender",
          "type": "address"
        },
        {
          "internalType": "uint256",
          "name": "addedValue",
          "type": "uint256"
        }
      ],
      "name": "increaseAllowance",
      "outputs": [
        {
          "internalType": "bool",
          "name": "",
          "type": "bool"
        }
      ],
      "stateMutability": "nonpayable",
      "type": "function"
    },
    {
      "inputs": [
        {
          "internalType": "address",
          "name": "",
          "type": "address"
        }
      ],
      "name": "lendingAllowed",
      "outputs": [
        {
          "internalType": "bool",
          "name": "",
          "type": "bool"
        }
      ],
      "stateMutability": "view",
      "type": "function"
    },
    {
      "inputs": [
        {
          "internalType": "address",
          "name": "",
          "type": "address"
        }
      ],
      "name": "maxDeposit",
      "outputs": [
        {
          "internalType": "uint256",
          "name": "",
          "type": "uint256"
        }
      ],
      "stateMutability": "view",
      "type": "function"
    },
    {
      "inputs": [],
      "name": "maxExpectedLiquidity",
      "outputs": [
        {
          "internalType": "uint256",
          "name": "",
          "type": "uint256"
        }
      ],
      "stateMutability": "view",
      "type": "function"
    },
    {
      "inputs": [
        {
          "internalType": "address",
          "name": "",
          "type": "address"
        }
      ],
      "name": "maxMint",
      "outputs": [
        {
          "internalType": "uint256",
          "name": "",
          "type": "uint256"
        }
      ],
      "stateMutability": "view",
      "type": "function"
    },
    {
      "inputs": [
        {
          "internalType": "address",
          "name": "owner",
          "type": "address"
        }
      ],
      "name": "maxRedeem",
      "outputs": [
        {
          "internalType": "uint256",
          "name": "",
          "type": "uint256"
        }
      ],
      "stateMutability": "view",
      "type": "function"
    },
    {
      "inputs": [
        {
          "internalType": "address",
          "name": "owner",
          "type": "address"
        }
      ],
      "name": "maxWithdraw",
      "outputs": [
        {
          "internalType": "uint256",
          "name": "",
          "type": "uint256"
        }
      ],
      "stateMutability": "view",
      "type": "function"
    },
    {
      "inputs": [
        {
          "internalType": "uint256",
          "name": "shares",
          "type": "uint256"
        },
        {
          "internalType": "address",
          "name": "receiver",
          "type": "address"
        }
      ],
      "name": "mint",
      "outputs": [
        {
          "internalType": "uint256",
          "name": "",
          "type": "uint256"
        }
      ],
      "stateMutability": "nonpayable",
      "type": "function"
    },
    {
      "inputs": [],
      "name": "name",
      "outputs": [
        {
          "internalType": "string",
          "name": "",
          "type": "string"
        }
      ],
      "stateMutability": "view",
      "type": "function"
    },
    {
      "inputs": [
        {
          "internalType": "uint256",
          "name": "assets",
          "type": "uint256"
        }
      ],
      "name": "previewDeposit",
      "outputs": [
        {
          "internalType": "uint256",
          "name": "",
          "type": "uint256"
        }
      ],
      "stateMutability": "view",
      "type": "function"
    },
    {
      "inputs": [
        {
          "internalType": "uint256",
          "name": "shares",
          "type": "uint256"
        }
      ],
      "name": "previewMint",
      "outputs": [
        {
          "internalType": "uint256",
          "name": "",
          "type": "uint256"
        }
      ],
      "stateMutability": "view",
      "type": "function"
    },
    {
      "inputs": [
        {
          "internalType": "uint256",
          "name": "shares",
          "type": "uint256"
        }
      ],
      "name": "previewRedeem",
      "outputs": [
        {
          "internalType": "uint256",
          "name": "",
          "type": "uint256"
        }
      ],
      "stateMutability": "view",
      "type": "function"
    },
    {
      "inputs": [
        {
          "internalType": "uint256",
          "name": "assets",
          "type": "uint256"
        }
      ],
      "name": "previewWithdraw",
      "outputs": [
        {
          "internalType": "uint256",
          "name": "",
          "type": "uint256"
        }
      ],
      "stateMutability": "view",
      "type": "function"
    },
    {
      "inputs": [
        {
          "internalType": "uint256",
          "name": "shares",
          "type": "uint256"
        },
        {
          "internalType": "address",
          "name": "receiver",
          "type": "address"
        },
        {
          "internalType": "address",
          "name": "owner",
          "type": "address"
        }
      ],
      "name": "redeem",
      "outputs": [
        {
          "internalType": "uint256",
          "name": "",
          "type": "uint256"
        }
      ],
      "stateMutability": "nonpayable",
      "type": "function"
    },
    {
      "inputs": [
        {
          "internalType": "address",
          "name": "borrower",
          "type": "address"
        },
        {
          "internalType": "uint256",
          "name": "borrowedAmount",
          "type": "uint256"
        },
        {
          "internalType": "uint256",
          "name": "interest",
          "type": "uint256"
        }
      ],
      "name": "repay",
      "outputs": [],
      "stateMutability": "nonpayable",
      "type": "function"
    },
    {
      "inputs": [
        {
          "internalType": "address",
          "name": "",
          "type": "address"
        }
      ],
      "name": "repayingAllowed",
      "outputs": [
        {
          "internalType": "bool",
          "name": "",
          "type": "bool"
        }
      ],
      "stateMutability": "view",
      "type": "function"
    },
    {
      "inputs": [],
      "name": "symbol",
      "outputs": [
        {
          "internalType": "string",
          "name": "",
          "type": "string"
        }
      ],
      "stateMutability": "view",
      "type": "function"
    },
    {
      "inputs": [],
      "name": "totalAssets",
      "outputs": [
        {
          "internalType": "uint256",
          "name": "",
          "type": "uint256"
        }
      ],
      "stateMutability": "view",
      "type": "function"
    },
    {
      "inputs": [],
      "name": "totalSupply",
      "outputs": [
        {
          "internalType": "uint256",
          "name": "",
          "type": "uint256"
        }
      ],
      "stateMutability": "view",
      "type": "function"
    },
    {
      "inputs": [
        {
          "internalType": "address",
          "name": "to",
          "type": "address"
        },
        {
          "internalType": "uint256",
          "name": "amount",
          "type": "uint256"
        }
      ],
      "name": "transfer",
      "outputs": [
        {
          "internalType": "bool",
          "name": "",
          "type": "bool"
        }
      ],
      "stateMutability": "nonpayable",
      "type": "function"
    },
    {
      "inputs": [
        {
          "internalType": "address",
          "name": "from",
          "type": "address"
        },
        {
          "internalType": "address",
          "name": "to",
          "type": "address"
        },
        {
          "internalType": "uint256",
          "name": "amount",
          "type": "uint256"
        }
      ],
      "name": "transferFrom",
      "outputs": [
        {
          "internalType": "bool",
          "name": "",
          "type": "bool"
        }
      ],
      "stateMutability": "nonpayable",
      "type": "function"
    },
    {
      "inputs": [
        {
          "internalType": "uint256",
          "name": "assets",
          "type": "uint256"
        },
        {
          "internalType": "address",
          "name": "receiver",
          "type": "address"
        },
        {
          "internalType": "address",
          "name": "owner",
          "type": "address"
        }
      ],
      "name": "withdraw",
      "outputs": [
        {
          "internalType": "uint256",
          "name": "",
          "type": "uint256"
        }
      ],
      "stateMutability": "nonpayable",
      "type": "function"
    }
  ],
  "bytecode": {
    "object": "0x60a06040523480156200001157600080fd5b5060405162004a9038038062004a90833981810160405281019062000037919062000905565b84848481600390816200004b919062000c0c565b5080600490816200005d919062000c0c565b5050508073ffffffffffffffffffffffffffffffffffffffff1660808173ffffffffffffffffffffffffffffffffffffffff168152505050600073ffffffffffffffffffffffffffffffffffffffff168573ffffffffffffffffffffffffffffffffffffffff1614158015620001005750600073ffffffffffffffffffffffffffffffffffffffff168273ffffffffffffffffffffffffffffffffffffffff1614155b6040518060400160405280600281526020017f5a30000000000000000000000000000000000000000000000000000000000000815250906200017a576040517f08c379a000000000000000000000000000000000000000000000000000000000815260040162000171919062000d45565b60405180910390fd5b506b033b2e3c9fd0803ce8000000600b819055506200019f82620001b160201b60201c565b80600681905550505050505062000f5e565b600073ffffffffffffffffffffffffffffffffffffffff168173ffffffffffffffffffffffffffffffffffffffff1614156040518060400160405280600281526020017f5a30000000000000000000000000000000000000000000000000000000000000815250906200025c576040517f08c379a000000000000000000000000000000000000000000000000000000000815260040162000253919062000d45565b60405180910390fd5b5080600760006101000a81548173ffffffffffffffffffffffffffffffffffffffff021916908373ffffffffffffffffffffffffffffffffffffffff160217905550620002b06000620002f660201b60201c565b8073ffffffffffffffffffffffffffffffffffffffff167f371881eae32ec133f4b803567276bcf1009d4d4bb8aa6684fcec05b2318b970a60405160405180910390a250565b8062000307620003f360201b60201c565b62000313919062000d98565b600d81905550620003296200046c60201b60201c565b600b81905550600760009054906101000a900473ffffffffffffffffffffffffffffffffffffffff1673ffffffffffffffffffffffffffffffffffffffff166342568d44600d54620003806200049e60201b60201c565b6040518363ffffffff1660e01b81526004016200039f92919062000de4565b602060405180830381865afa158015620003bd573d6000803e3d6000fd5b505050506040513d601f19601f82011682018060405250810190620003e3919062000e11565b600c8190555042600e8190555050565b600080600e544262000406919062000d98565b905060006301e133806b033b2e3c9fd0803ce800000083600c546005546200042f919062000e43565b6200043b919062000e43565b62000447919062000ebd565b62000453919062000ebd565b905080600d5462000465919062000ef5565b9250505090565b600080600e54426200047f919062000d98565b905062000498600b54600c54836200052660201b60201c565b91505090565b600060805173ffffffffffffffffffffffffffffffffffffffff166370a08231306040518263ffffffff1660e01b8152600401620004dd919062000f41565b602060405180830381865afa158015620004fb573d6000803e3d6000fd5b505050506040513d601f19601f8201168201806040525081019062000521919062000e11565b905090565b6000806301e1338083856200053c919062000e43565b62000548919062000ebd565b6b033b2e3c9fd0803ce800000062000561919062000ef5565b90506200057d81866200058760201b620017391790919060201c565b9150509392505050565b600080831480620005985750600082145b15620005a85760009050620006cc565b8160026b033b2e3c9fd0803ce8000000620005c4919062000ebd565b7fffffffffffffffffffffffffffffffffffffffffffffffffffffffffffffffff620005f1919062000d98565b620005fd919062000ebd565b8311156040518060400160405280600281526020017f4d31000000000000000000000000000000000000000000000000000000000000815250906200067a576040517f08c379a000000000000000000000000000000000000000000000000000000000815260040162000671919062000d45565b60405180910390fd5b506b033b2e3c9fd0803ce800000060026b033b2e3c9fd0803ce8000000620006a3919062000ebd565b8385620006b1919062000e43565b620006bd919062000ef5565b620006c9919062000ebd565b90505b92915050565b6000604051905090565b600080fd5b600080fd5b600073ffffffffffffffffffffffffffffffffffffffff82169050919050565b60006200071382620006e6565b9050919050565b620007258162000706565b81146200073157600080fd5b50565b60008151905062000745816200071a565b92915050565b600080fd5b600080fd5b6000601f19601f8301169050919050565b7f4e487b7100000000000000000000000000000000000000000000000000000000600052604160045260246000fd5b620007a08262000755565b810181811067ffffffffffffffff82111715620007c257620007c162000766565b5b80604052505050565b6000620007d7620006d2565b9050620007e5828262000795565b919050565b600067ffffffffffffffff82111562000808576200080762000766565b5b620008138262000755565b9050602081019050919050565b60005b838110156200084057808201518184015260208101905062000823565b60008484015250505050565b6000620008636200085d84620007ea565b620007cb565b90508281526020810184848401111562000882576200088162000750565b5b6200088f84828562000820565b509392505050565b600082601f830112620008af57620008ae6200074b565b5b8151620008c18482602086016200084c565b91505092915050565b6000819050919050565b620008df81620008ca565b8114620008eb57600080fd5b50565b600081519050620008ff81620008d4565b92915050565b600080600080600060a08688031215620009245762000923620006dc565b5b6000620009348882890162000734565b955050602086015167ffffffffffffffff811115620009585762000957620006e1565b5b620009668882890162000897565b945050604086015167ffffffffffffffff8111156200098a5762000989620006e1565b5b620009988882890162000897565b9350506060620009ab8882890162000734565b9250506080620009be88828901620008ee565b9150509295509295909350565b600081519050919050565b7f4e487b7100000000000000000000000000000000000000000000000000000000600052602260045260246000fd5b6000600282049050600182168062000a1e57607f821691505b60208210810362000a345762000a33620009d6565b5b50919050565b60008190508160005260206000209050919050565b60006020601f8301049050919050565b600082821b905092915050565b60006008830262000a9e7fffffffffffffffffffffffffffffffffffffffffffffffffffffffffffffffff8262000a5f565b62000aaa868362000a5f565b95508019841693508086168417925050509392505050565b6000819050919050565b600062000aed62000ae762000ae184620008ca565b62000ac2565b620008ca565b9050919050565b6000819050919050565b62000b098362000acc565b62000b2162000b188262000af4565b84845462000a6c565b825550505050565b600090565b62000b3862000b29565b62000b4581848462000afe565b505050565b5b8181101562000b6d5762000b6160008262000b2e565b60018101905062000b4b565b5050565b601f82111562000bbc5762000b868162000a3a565b62000b918462000a4f565b8101602085101562000ba1578190505b62000bb962000bb08562000a4f565b83018262000b4a565b50505b505050565b600082821c905092915050565b600062000be16000198460080262000bc1565b1980831691505092915050565b600062000bfc838362000bce565b9150826002028217905092915050565b62000c1782620009cb565b67ffffffffffffffff81111562000c335762000c3262000766565b5b62000c3f825462000a05565b62000c4c82828562000b71565b600060209050601f83116001811462000c84576000841562000c6f578287015190505b62000c7b858262000bee565b86555062000ceb565b601f19841662000c948662000a3a565b60005b8281101562000cbe5784890151825560018201915060208501945060208101905062000c97565b8683101562000cde578489015162000cda601f89168262000bce565b8355505b6001600288020188555050505b505050505050565b600082825260208201905092915050565b600062000d1182620009cb565b62000d1d818562000cf3565b935062000d2f81856020860162000820565b62000d3a8162000755565b840191505092915050565b6000602082019050818103600083015262000d61818462000d04565b905092915050565b7f4e487b7100000000000000000000000000000000000000000000000000000000600052601160045260246000fd5b600062000da582620008ca565b915062000db283620008ca565b925082820390508181111562000dcd5762000dcc62000d69565b5b92915050565b62000dde81620008ca565b82525050565b600060408201905062000dfb600083018562000dd3565b62000e0a602083018462000dd3565b9392505050565b60006020828403121562000e2a5762000e29620006dc565b5b600062000e3a84828501620008ee565b91505092915050565b600062000e5082620008ca565b915062000e5d83620008ca565b925082820262000e6d81620008ca565b9150828204841483151762000e875762000e8662000d69565b5b5092915050565b7f4e487b7100000000000000000000000000000000000000000000000000000000600052601260045260246000fd5b600062000eca82620008ca565b915062000ed783620008ca565b92508262000eea5762000ee962000e8e565b5b828204905092915050565b600062000f0282620008ca565b915062000f0f83620008ca565b925082820190508082111562000f2a5762000f2962000d69565b5b92915050565b62000f3b8162000706565b82525050565b600060208201905062000f58600083018462000f30565b92915050565b608051613b0162000f8f6000396000818161092c01528181610bc301528181611ee6015261205b0152613b016000f3fe608060405234801561001057600080fd5b50600436106102525760003560e01c806370a0823111610146578063ba087652116100c3578063dbcb313b11610087578063dbcb313b146107e5578063dc36f02a14610803578063dceac9c814610833578063dd62ed3e1461084f578063ef8b30f71461087f578063fe14112d146108af57610252565b8063ba087652146106f5578063c63d75b614610725578063c6e6f59214610755578063ce96cb7714610785578063d905777e146107b557610252565b806395d89b411161010a57806395d89b4114610617578063a457c2d714610635578063a9059cbb14610665578063b3d7f6b914610695578063b460af94146106c557610252565b806370a082311461054d578063726f6e221461057d57806384aafe521461059b5780638cd2e0c7146105cb57806394bf804d146105e757610252565b8063313ce567116101d457806345d31f9d1161019857806345d31f9d146104955780634b8a3529146104b35780634cdad506146104cf57806360b722f3146104ff5780636e553f651461051d57610252565b8063313ce567146103c957806331d8bc27146103e757806338d52e0f146104175780633950935114610435578063402d267d1461046557610252565b80630a28a4771161021b5780630a28a4771461030f5780630fce70fb1461033f57806318160ddd1461035d578063222632f11461037b57806323b872dd1461039957610252565b8062e970991461025757806301e1d1141461027357806306fdde031461029157806307a2d13a146102af578063095ea7b3146102df575b600080fd5b610271600480360381019061026c91906128fc565b6108cd565b005b61027b610928565b6040516102889190612942565b60405180910390f35b6102996109c9565b6040516102a691906129ed565b60405180910390f35b6102c960048036038101906102c49190612a3b565b610a5b565b6040516102d69190612942565b60405180910390f35b6102f960048036038101906102f49190612a68565b610a6f565b6040516103069190612ac3565b60405180910390f35b61032960048036038101906103249190612a3b565b610a92565b6040516103369190612942565b60405180910390f35b610347610aa6565b6040516103549190612942565b60405180910390f35b610365610ace565b6040516103729190612942565b60405180910390f35b610383610ad8565b6040516103909190612942565b60405180910390f35b6103b360048036038101906103ae9190612ade565b610b33565b6040516103c09190612ac3565b60405180910390f35b6103d1610b62565b6040516103de9190612b4d565b60405180910390f35b61040160048036038101906103fc9190612b68565b610b6b565b60405161040e9190612942565b60405180910390f35b61041f610bbf565b60405161042c9190612bca565b60405180910390f35b61044f600480360381019061044a9190612a68565b610be7565b60405161045c9190612ac3565b60405180910390f35b61047f600480360381019061047a91906128fc565b610c1e565b60405161048c9190612942565b60405180910390f35b61049d610c5c565b6040516104aa9190612942565b60405180910390f35b6104cd60048036038101906104c89190612a68565b610c62565b005b6104e960048036038101906104e49190612a3b565b610e6e565b6040516104f69190612942565b60405180910390f35b610507610e82565b6040516105149190612bca565b60405180910390f35b61053760048036038101906105329190612be5565b610eac565b6040516105449190612942565b60405180910390f35b610567600480360381019061056291906128fc565b610fd8565b6040516105749190612942565b60405180910390f35b610585611020565b6040516105929190612942565b60405180910390f35b6105b560048036038101906105b091906128fc565b611026565b6040516105c29190612ac3565b60405180910390f35b6105e560048036038101906105e09190612c25565b611046565b005b61060160048036038101906105fc9190612be5565b6111aa565b60405161060e9190612942565b60405180910390f35b61061f6112d6565b60405161062c91906129ed565b60405180910390f35b61064f600480360381019061064a9190612a68565b611368565b60405161065c9190612ac3565b60405180910390f35b61067f600480360381019061067a9190612a68565b6113df565b60405161068c9190612ac3565b60405180910390f35b6106af60048036038101906106aa9190612a3b565b611402565b6040516106bc9190612942565b60405180910390f35b6106df60048036038101906106da9190612c78565b611416565b6040516106ec9190612942565b60405180910390f35b61070f600480360381019061070a9190612c78565b6114ad565b60405161071c9190612942565b60405180910390f35b61073f600480360381019061073a91906128fc565b611544565b60405161074c9190612942565b60405180910390f35b61076f600480360381019061076a9190612a3b565b61156e565b60405161077c9190612942565b60405180910390f35b61079f600480360381019061079a91906128fc565b611582565b6040516107ac9190612942565b60405180910390f35b6107cf60048036038101906107ca91906128fc565b61159e565b6040516107dc9190612942565b60405180910390f35b6107ed6115b0565b6040516107fa9190612942565b60405180910390f35b61081d600480360381019061081891906128fc565b6115b6565b60405161082a9190612ac3565b60405180910390f35b61084d600480360381019061084891906128fc565b6115d6565b005b61086960048036038101906108649190612ccb565b611631565b6040516108769190612942565b60405180910390f35b61089960048036038101906108949190612a3b565b6116b8565b6040516108a69190612942565b60405180910390f35b6108b76116cc565b6040516108c49190612942565b60405180910390f35b6001600860008373ffffffffffffffffffffffffffffffffffffffff1673ffffffffffffffffffffffffffffffffffffffff16815260200190815260200160002060006101000a81548160ff02191690831515021790555050565b60007f000000000000000000000000000000000000000000000000000000000000000073ffffffffffffffffffffffffffffffffffffffff166370a08231306040518263ffffffff1660e01b81526004016109839190612bca565b602060405180830381865afa1580156109a0573d6000803e3d6000fd5b505050506040513d601f19601f820116820180604052508101906109c49190612d20565b905090565b6060600380546109d890612d7c565b80601f0160208091040260200160405190810160405280929190818152602001828054610a0490612d7c565b8015610a515780601f10610a2657610100808354040283529160200191610a51565b820191906000526020600020905b815481529060010190602001808311610a3457829003601f168201915b5050505050905090565b6000610a68826000611870565b9050919050565b600080610a7a6118a4565b9050610a878185856118ac565b600191505092915050565b6000610a9f826001611a75565b9050919050565b600080600e5442610ab79190612ddc565b9050610ac8600b54600c5483610b6b565b91505090565b6000600254905090565b600080610ae3610ace565b905060008103610b02576b033b2e3c9fd0803ce8000000915050610b30565b806b033b2e3c9fd0803ce8000000610b186116cc565b610b229190612e10565b610b2c9190612e81565b9150505b90565b600080610b3e6118a4565b9050610b4b858285611aa9565b610b56858585611b35565b60019150509392505050565b60006012905090565b6000806301e133808385610b7f9190612e10565b610b899190612e81565b6b033b2e3c9fd0803ce8000000610ba09190612eb2565b9050610bb5818661173990919063ffffffff16565b9150509392505050565b60007f0000000000000000000000000000000000000000000000000000000000000000905090565b600080610bf26118a4565b9050610c13818585610c048589611631565b610c0e9190612eb2565b6118ac565b600191505092915050565b6000610c28611db4565b610c33576000610c55565b7fffffffffffffffffffffffffffffffffffffffffffffffffffffffffffffffff5b9050919050565b600c5481565b60011515600860003373ffffffffffffffffffffffffffffffffffffffff1673ffffffffffffffffffffffffffffffffffffffff16815260200190815260200160002060009054906101000a900460ff16151514610cf5576040517f08c379a0000000000000000000000000000000000000000000000000000000008152600401610cec90612f32565b60405180910390fd5b80610cfe610928565b1015610d3f576040517f08c379a0000000000000000000000000000000000000000000000000000000008152600401610d3690612f9e565b60405180910390fd5b610d5481600554611dd790919063ffffffff16565b600581905550610d6f81600d54611ded90919063ffffffff16565b600d81905550610d7f6000611e03565b610d87610bbf565b73ffffffffffffffffffffffffffffffffffffffff1663a9059cbb83836040518363ffffffff1660e01b8152600401610dc1929190612fbe565b6020604051808303816000875af1158015610de0573d6000803e3d6000fd5b505050506040513d601f19601f82011682018060405250810190610e049190613013565b508173ffffffffffffffffffffffffffffffffffffffff163373ffffffffffffffffffffffffffffffffffffffff167f312a5e5e1079f5dda4e95dbbd0b908b291fd5b992ef22073643ab691572c5b5283604051610e629190612942565b60405180910390a35050565b6000610e7b826000611870565b9050919050565b6000600760009054906101000a900473ffffffffffffffffffffffffffffffffffffffff16905090565b6000610eb782610c1e565b831115610ef9576040517f08c379a0000000000000000000000000000000000000000000000000000000008152600401610ef09061308c565b60405180910390fd5b60065483610f056116cc565b610f0f9190612eb2565b11156040518060400160405280600381526020017f505332000000000000000000000000000000000000000000000000000000000081525090610f88576040517f08c379a0000000000000000000000000000000000000000000000000000000008152600401610f7f91906129ed565b60405180910390fd5b506000610f94846116b8565b9050610fa9610fa16118a4565b848684611ee1565b610fbe84600d54611dd790919063ffffffff16565b600d81905550610fce6000611e03565b8091505092915050565b60008060008373ffffffffffffffffffffffffffffffffffffffff1673ffffffffffffffffffffffffffffffffffffffff168152602001908152602001600020549050919050565b60065481565b60096020528060005260406000206000915054906101000a900460ff1681565b60011515600960003373ffffffffffffffffffffffffffffffffffffffff1673ffffffffffffffffffffffffffffffffffffffff16815260200190815260200160002060009054906101000a900460ff161515146110d9576040517f08c379a00000000000000000000000000000000000000000000000000000000081526004016110d0906130f8565b60405180910390fd5b6110ee82600554611ded90919063ffffffff16565b60058190555061111b8161110d84600d54611dd790919063ffffffff16565b611dd790919063ffffffff16565b600d8190555061114661112c610bbf565b84306111418587611dd790919063ffffffff16565b611f84565b6111506000611e03565b3373ffffffffffffffffffffffffffffffffffffffff167fc8453d1b0c8f6e547923ef0f16bf4a0c29ba241bc57aee96bfe36584a99e5095838360008060405161119d949392919061315d565b60405180910390a2505050565b60006111b582611544565b8311156111f7576040517f08c379a00000000000000000000000000000000000000000000000000000000081526004016111ee906131ee565b60405180910390fd5b600061120284611402565b9050600654816112106116cc565b61121a9190612eb2565b11156040518060400160405280600381526020017f505332000000000000000000000000000000000000000000000000000000000081525090611293576040517f08c379a000000000000000000000000000000000000000000000000000000000815260040161128a91906129ed565b60405180910390fd5b506112a761129f6118a4565b848387611ee1565b6112bc81600d54611dd790919063ffffffff16565b600d819055506112cc6000611e03565b8091505092915050565b6060600480546112e590612d7c565b80601f016020809104026020016040519081016040528092919081815260200182805461131190612d7c565b801561135e5780601f106113335761010080835404028352916020019161135e565b820191906000526020600020905b81548152906001019060200180831161134157829003601f168201915b5050505050905090565b6000806113736118a4565b905060006113818286611631565b9050838110156113c6576040517f08c379a00000000000000000000000000000000000000000000000000000000081526004016113bd90613280565b60405180910390fd5b6113d382868684036118ac565b60019250505092915050565b6000806113ea6118a4565b90506113f7818585611b35565b600191505092915050565b600061140f826001611870565b9050919050565b600061142182611582565b841115611463576040517f08c379a000000000000000000000000000000000000000000000000000000000815260040161145a906132ec565b60405180910390fd5b600061146e85610a92565b905061148461147b6118a4565b8585888561200d565b84600d546114929190612ddc565b600d819055506114a26000611e03565b809150509392505050565b60006114b88261159e565b8411156114fa576040517f08c379a00000000000000000000000000000000000000000000000000000000081526004016114f190613358565b60405180910390fd5b600061150585610e6e565b905061151b6115126118a4565b8585848961200d565b80600d546115299190612ddc565b600d819055506115396000611e03565b809150509392505050565b60007fffffffffffffffffffffffffffffffffffffffffffffffffffffffffffffffff9050919050565b600061157b826000611a75565b9050919050565b600061159761159083610fd8565b6000611870565b9050919050565b60006115a982610fd8565b9050919050565b600b5481565b60086020528060005260406000206000915054906101000a900460ff1681565b6001600960008373ffffffffffffffffffffffffffffffffffffffff1673ffffffffffffffffffffffffffffffffffffffff16815260200190815260200160002060006101000a81548160ff02191690831515021790555050565b6000600160008473ffffffffffffffffffffffffffffffffffffffff1673ffffffffffffffffffffffffffffffffffffffff16815260200190815260200160002060008373ffffffffffffffffffffffffffffffffffffffff1673ffffffffffffffffffffffffffffffffffffffff16815260200190815260200160002054905092915050565b60006116c5826000611a75565b9050919050565b600080600e54426116dd9190612ddc565b905060006301e133806b033b2e3c9fd0803ce800000083600c546005546117049190612e10565b61170e9190612e10565b6117189190612e81565b6117229190612e81565b905080600d546117329190612eb2565b9250505090565b6000808314806117495750600082145b15611757576000905061186a565b8160026b033b2e3c9fd0803ce80000006117719190612e81565b7fffffffffffffffffffffffffffffffffffffffffffffffffffffffffffffffff61179c9190612ddc565b6117a69190612e81565b8311156040518060400160405280600281526020017f4d3100000000000000000000000000000000000000000000000000000000000081525090611820576040517f08c379a000000000000000000000000000000000000000000000000000000000815260040161181791906129ed565b60405180910390fd5b506b033b2e3c9fd0803ce800000060026b033b2e3c9fd0803ce80000006118479190612e81565b83856118539190612e10565b61185d9190612eb2565b6118679190612e81565b90505b92915050565b600061189c61187d610ad8565b6b033b2e3c9fd0803ce80000008486612106909392919063ffffffff16565b905092915050565b600033905090565b600073ffffffffffffffffffffffffffffffffffffffff168373ffffffffffffffffffffffffffffffffffffffff160361191b576040517f08c379a0000000000000000000000000000000000000000000000000000000008152600401611912906133ea565b60405180910390fd5b600073ffffffffffffffffffffffffffffffffffffffff168273ffffffffffffffffffffffffffffffffffffffff160361198a576040517f08c379a00000000000000000000000000000000000000000000000000000000081526004016119819061347c565b60405180910390fd5b80600160008573ffffffffffffffffffffffffffffffffffffffff1673ffffffffffffffffffffffffffffffffffffffff16815260200190815260200160002060008473ffffffffffffffffffffffffffffffffffffffff1673ffffffffffffffffffffffffffffffffffffffff168152602001908152602001600020819055508173ffffffffffffffffffffffffffffffffffffffff168373ffffffffffffffffffffffffffffffffffffffff167f8c5be1e5ebec7d5bd14f71427d1e84f3dd0314c0f7b2291e5b200ac8c7c3b92583604051611a689190612942565b60405180910390a3505050565b6000611aa16b033b2e3c9fd0803ce8000000611a8f610ad8565b8486612106909392919063ffffffff16565b905092915050565b6000611ab58484611631565b90507fffffffffffffffffffffffffffffffffffffffffffffffffffffffffffffffff8114611b2f5781811015611b21576040517f08c379a0000000000000000000000000000000000000000000000000000000008152600401611b18906134e8565b60405180910390fd5b611b2e84848484036118ac565b5b50505050565b600073ffffffffffffffffffffffffffffffffffffffff168373ffffffffffffffffffffffffffffffffffffffff1603611ba4576040517f08c379a0000000000000000000000000000000000000000000000000000000008152600401611b9b9061357a565b60405180910390fd5b600073ffffffffffffffffffffffffffffffffffffffff168273ffffffffffffffffffffffffffffffffffffffff1603611c13576040517f08c379a0000000000000000000000000000000000000000000000000000000008152600401611c0a9061360c565b60405180910390fd5b611c1e83838361217c565b60008060008573ffffffffffffffffffffffffffffffffffffffff1673ffffffffffffffffffffffffffffffffffffffff16815260200190815260200160002054905081811015611ca4576040517f08c379a0000000000000000000000000000000000000000000000000000000008152600401611c9b9061369e565b60405180910390fd5b8181036000808673ffffffffffffffffffffffffffffffffffffffff1673ffffffffffffffffffffffffffffffffffffffff16815260200190815260200160002081905550816000808573ffffffffffffffffffffffffffffffffffffffff1673ffffffffffffffffffffffffffffffffffffffff1681526020019081526020016000206000828254611d379190612eb2565b925050819055508273ffffffffffffffffffffffffffffffffffffffff168473ffffffffffffffffffffffffffffffffffffffff167fddf252ad1be2c89b69c2b068fc378daa952ba7f163c4a11628f55a4df523b3ef84604051611d9b9190612942565b60405180910390a3611dae848484612181565b50505050565b600080611dbf610928565b1180611dd257506000611dd0610ace565b145b905090565b60008183611de59190612eb2565b905092915050565b60008183611dfb9190612ddc565b905092915050565b80611e0c6116cc565b611e169190612ddc565b600d81905550611e24610aa6565b600b81905550600760009054906101000a900473ffffffffffffffffffffffffffffffffffffffff1673ffffffffffffffffffffffffffffffffffffffff166342568d44600d54611e73610928565b6040518363ffffffff1660e01b8152600401611e909291906136be565b602060405180830381865afa158015611ead573d6000803e3d6000fd5b505050506040513d601f19601f82011682018060405250810190611ed19190612d20565b600c8190555042600e8190555050565b611f0d7f0000000000000000000000000000000000000000000000000000000000000000853085611f84565b611f178382612186565b8273ffffffffffffffffffffffffffffffffffffffff168473ffffffffffffffffffffffffffffffffffffffff167fdcbc1c05240f31ff3ad067ef1ee35ce4997762752e3a095284754544f4c709d78484604051611f769291906136be565b60405180910390a350505050565b612007846323b872dd60e01b858585604051602401611fa5939291906136e7565b604051602081830303815290604052907bffffffffffffffffffffffffffffffffffffffffffffffffffffffff19166020820180517bffffffffffffffffffffffffffffffffffffffffffffffffffffffff83818316178352505050506122e5565b50505050565b8273ffffffffffffffffffffffffffffffffffffffff168573ffffffffffffffffffffffffffffffffffffffff161461204c5761204b838683611aa9565b5b61205683826123ac565b6120817f00000000000000000000000000000000000000000000000000000000000000008584612582565b8273ffffffffffffffffffffffffffffffffffffffff168473ffffffffffffffffffffffffffffffffffffffff168673ffffffffffffffffffffffffffffffffffffffff167ffbde797d201c681b91056529119e0b02407c7bb96a4a2c75c01fc9667232c8db85856040516120f79291906136be565b60405180910390a45050505050565b600080612114868686612608565b90506001600281111561212a5761212961371e565b5b83600281111561213d5761213c61371e565b5b14801561215b57506000848061215657612155612e52565b5b868809115b156121705760018161216d9190612eb2565b90505b80915050949350505050565b505050565b505050565b600073ffffffffffffffffffffffffffffffffffffffff168273ffffffffffffffffffffffffffffffffffffffff16036121f5576040517f08c379a00000000000000000000000000000000000000000000000000000000081526004016121ec90613799565b60405180910390fd5b6122016000838361217c565b80600260008282546122139190612eb2565b92505081905550806000808473ffffffffffffffffffffffffffffffffffffffff1673ffffffffffffffffffffffffffffffffffffffff16815260200190815260200160002060008282546122689190612eb2565b925050819055508173ffffffffffffffffffffffffffffffffffffffff16600073ffffffffffffffffffffffffffffffffffffffff167fddf252ad1be2c89b69c2b068fc378daa952ba7f163c4a11628f55a4df523b3ef836040516122cd9190612942565b60405180910390a36122e160008383612181565b5050565b6000612347826040518060400160405280602081526020017f5361666545524332303a206c6f772d6c6576656c2063616c6c206661696c65648152508573ffffffffffffffffffffffffffffffffffffffff166126e39092919063ffffffff16565b90506000815111156123a757808060200190518101906123679190613013565b6123a6576040517f08c379a000000000000000000000000000000000000000000000000000000000815260040161239d9061382b565b60405180910390fd5b5b505050565b600073ffffffffffffffffffffffffffffffffffffffff168273ffffffffffffffffffffffffffffffffffffffff160361241b576040517f08c379a0000000000000000000000000000000000000000000000000000000008152600401612412906138bd565b60405180910390fd5b6124278260008361217c565b60008060008473ffffffffffffffffffffffffffffffffffffffff1673ffffffffffffffffffffffffffffffffffffffff168152602001908152602001600020549050818110156124ad576040517f08c379a00000000000000000000000000000000000000000000000000000000081526004016124a49061394f565b60405180910390fd5b8181036000808573ffffffffffffffffffffffffffffffffffffffff1673ffffffffffffffffffffffffffffffffffffffff1681526020019081526020016000208190555081600260008282546125049190612ddc565b92505081905550600073ffffffffffffffffffffffffffffffffffffffff168373ffffffffffffffffffffffffffffffffffffffff167fddf252ad1be2c89b69c2b068fc378daa952ba7f163c4a11628f55a4df523b3ef846040516125699190612942565b60405180910390a361257d83600084612181565b505050565b6126038363a9059cbb60e01b84846040516024016125a1929190612fbe565b604051602081830303815290604052907bffffffffffffffffffffffffffffffffffffffffffffffffffffffff19166020820180517bffffffffffffffffffffffffffffffffffffffffffffffffffffffff83818316178352505050506122e5565b505050565b60008060008019858709858702925082811083820303915050600081036126435783828161263957612638612e52565b5b04925050506126dc565b80841161264f57600080fd5b60008486880990508281118203915080830392506000600186190186169050808604955080840493506001818260000304019050808302841793506000600287600302189050808702600203810290508087026002038102905080870260020381029050808702600203810290508087026002038102905080870260020381029050808502955050505050505b9392505050565b60606126f284846000856126fb565b90509392505050565b606082471015612740576040517f08c379a0000000000000000000000000000000000000000000000000000000008152600401612737906139e1565b60405180910390fd5b6127498561280f565b612788576040517f08c379a000000000000000000000000000000000000000000000000000000000815260040161277f90613a4d565b60405180910390fd5b6000808673ffffffffffffffffffffffffffffffffffffffff1685876040516127b19190613ab4565b60006040518083038185875af1925050503d80600081146127ee576040519150601f19603f3d011682016040523d82523d6000602084013e6127f3565b606091505b5091509150612803828286612832565b92505050949350505050565b6000808273ffffffffffffffffffffffffffffffffffffffff163b119050919050565b6060831561284257829050612892565b6000835111156128555782518084602001fd5b816040517f08c379a000000000000000000000000000000000000000000000000000000000815260040161288991906129ed565b60405180910390fd5b9392505050565b600080fd5b600073ffffffffffffffffffffffffffffffffffffffff82169050919050565b60006128c98261289e565b9050919050565b6128d9816128be565b81146128e457600080fd5b50565b6000813590506128f6816128d0565b92915050565b60006020828403121561291257612911612899565b5b6000612920848285016128e7565b91505092915050565b6000819050919050565b61293c81612929565b82525050565b60006020820190506129576000830184612933565b92915050565b600081519050919050565b600082825260208201905092915050565b60005b8381101561299757808201518184015260208101905061297c565b60008484015250505050565b6000601f19601f8301169050919050565b60006129bf8261295d565b6129c98185612968565b93506129d9818560208601612979565b6129e2816129a3565b840191505092915050565b60006020820190508181036000830152612a0781846129b4565b905092915050565b612a1881612929565b8114612a2357600080fd5b50565b600081359050612a3581612a0f565b92915050565b600060208284031215612a5157612a50612899565b5b6000612a5f84828501612a26565b91505092915050565b60008060408385031215612a7f57612a7e612899565b5b6000612a8d858286016128e7565b9250506020612a9e85828601612a26565b9150509250929050565b60008115159050919050565b612abd81612aa8565b82525050565b6000602082019050612ad86000830184612ab4565b92915050565b600080600060608486031215612af757612af6612899565b5b6000612b05868287016128e7565b9350506020612b16868287016128e7565b9250506040612b2786828701612a26565b9150509250925092565b600060ff82169050919050565b612b4781612b31565b82525050565b6000602082019050612b626000830184612b3e565b92915050565b600080600060608486031215612b8157612b80612899565b5b6000612b8f86828701612a26565b9350506020612ba086828701612a26565b9250506040612bb186828701612a26565b9150509250925092565b612bc4816128be565b82525050565b6000602082019050612bdf6000830184612bbb565b92915050565b60008060408385031215612bfc57612bfb612899565b5b6000612c0a85828601612a26565b9250506020612c1b858286016128e7565b9150509250929050565b600080600060608486031215612c3e57612c3d612899565b5b6000612c4c868287016128e7565b9350506020612c5d86828701612a26565b9250506040612c6e86828701612a26565b9150509250925092565b600080600060608486031215612c9157612c90612899565b5b6000612c9f86828701612a26565b9350506020612cb0868287016128e7565b9250506040612cc1868287016128e7565b9150509250925092565b60008060408385031215612ce257612ce1612899565b5b6000612cf0858286016128e7565b9250506020612d01858286016128e7565b9150509250929050565b600081519050612d1a81612a0f565b92915050565b600060208284031215612d3657612d35612899565b5b6000612d4484828501612d0b565b91505092915050565b7f4e487b7100000000000000000000000000000000000000000000000000000000600052602260045260246000fd5b60006002820490506001821680612d9457607f821691505b602082108103612da757612da6612d4d565b5b50919050565b7f4e487b7100000000000000000000000000000000000000000000000000000000600052601160045260246000fd5b6000612de782612929565b9150612df283612929565b9250828203905081811115612e0a57612e09612dad565b5b92915050565b6000612e1b82612929565b9150612e2683612929565b9250828202612e3481612929565b91508282048414831517612e4b57612e4a612dad565b5b5092915050565b7f4e487b7100000000000000000000000000000000000000000000000000000000600052601260045260246000fd5b6000612e8c82612929565b9150612e9783612929565b925082612ea757612ea6612e52565b5b828204905092915050565b6000612ebd82612929565b9150612ec883612929565b9250828201905080821115612ee057612edf612dad565b5b92915050565b7f556e617574686f72697a6564204c656e64000000000000000000000000000000600082015250565b6000612f1c601183612968565b9150612f2782612ee6565b602082019050919050565b60006020820190508181036000830152612f4b81612f0f565b9050919050565b7f5661756c743a204e6f7420656e6f756768206173736574730000000000000000600082015250565b6000612f88601883612968565b9150612f9382612f52565b602082019050919050565b60006020820190508181036000830152612fb781612f7b565b9050919050565b6000604082019050612fd36000830185612bbb565b612fe06020830184612933565b9392505050565b612ff081612aa8565b8114612ffb57600080fd5b50565b60008151905061300d81612fe7565b92915050565b60006020828403121561302957613028612899565b5b600061303784828501612ffe565b91505092915050565b7f455243343632363a206465706f736974206d6f7265207468616e206d61780000600082015250565b6000613076601e83612968565b915061308182613040565b602082019050919050565b600060208201905081810360008301526130a581613069565b9050919050565b7f556e617574686f72697a65642052657061790000000000000000000000000000600082015250565b60006130e2601283612968565b91506130ed826130ac565b602082019050919050565b60006020820190508181036000830152613111816130d5565b9050919050565b6000819050919050565b6000819050919050565b600061314761314261313d84613118565b613122565b612929565b9050919050565b6131578161312c565b82525050565b60006080820190506131726000830187612933565b61317f6020830186612933565b61318c604083018561314e565b613199606083018461314e565b95945050505050565b7f455243343632363a206d696e74206d6f7265207468616e206d61780000000000600082015250565b60006131d8601b83612968565b91506131e3826131a2565b602082019050919050565b60006020820190508181036000830152613207816131cb565b9050919050565b7f45524332303a2064656372656173656420616c6c6f77616e63652062656c6f7760008201527f207a65726f000000000000000000000000000000000000000000000000000000602082015250565b600061326a602583612968565b91506132758261320e565b604082019050919050565b600060208201905081810360008301526132998161325d565b9050919050565b7f455243343632363a207769746864726177206d6f7265207468616e206d617800600082015250565b60006132d6601f83612968565b91506132e1826132a0565b602082019050919050565b60006020820190508181036000830152613305816132c9565b9050919050565b7f455243343632363a2072656465656d206d6f7265207468616e206d6178000000600082015250565b6000613342601d83612968565b915061334d8261330c565b602082019050919050565b6000602082019050818103600083015261337181613335565b9050919050565b7f45524332303a20617070726f76652066726f6d20746865207a65726f2061646460008201527f7265737300000000000000000000000000000000000000000000000000000000602082015250565b60006133d4602483612968565b91506133df82613378565b604082019050919050565b60006020820190508181036000830152613403816133c7565b9050919050565b7f45524332303a20617070726f766520746f20746865207a65726f20616464726560008201527f7373000000000000000000000000000000000000000000000000000000000000602082015250565b6000613466602283612968565b91506134718261340a565b604082019050919050565b6000602082019050818103600083015261349581613459565b9050919050565b7f45524332303a20696e73756666696369656e7420616c6c6f77616e6365000000600082015250565b60006134d2601d83612968565b91506134dd8261349c565b602082019050919050565b60006020820190508181036000830152613501816134c5565b9050919050565b7f45524332303a207472616e736665722066726f6d20746865207a65726f20616460008201527f6472657373000000000000000000000000000000000000000000000000000000602082015250565b6000613564602583612968565b915061356f82613508565b604082019050919050565b6000602082019050818103600083015261359381613557565b9050919050565b7f45524332303a207472616e7366657220746f20746865207a65726f206164647260008201527f6573730000000000000000000000000000000000000000000000000000000000602082015250565b60006135f6602383612968565b91506136018261359a565b604082019050919050565b60006020820190508181036000830152613625816135e9565b9050919050565b7f45524332303a207472616e7366657220616d6f756e742065786365656473206260008201527f616c616e63650000000000000000000000000000000000000000000000000000602082015250565b6000613688602683612968565b91506136938261362c565b604082019050919050565b600060208201905081810360008301526136b78161367b565b9050919050565b60006040820190506136d36000830185612933565b6136e06020830184612933565b9392505050565b60006060820190506136fc6000830186612bbb565b6137096020830185612bbb565b6137166040830184612933565b949350505050565b7f4e487b7100000000000000000000000000000000000000000000000000000000600052602160045260246000fd5b7f45524332303a206d696e7420746f20746865207a65726f206164647265737300600082015250565b6000613783601f83612968565b915061378e8261374d565b602082019050919050565b600060208201905081810360008301526137b281613776565b9050919050565b7f5361666545524332303a204552433230206f7065726174696f6e20646964206e60008201527f6f74207375636365656400000000000000000000000000000000000000000000602082015250565b6000613815602a83612968565b9150613820826137b9565b604082019050919050565b6000602082019050818103600083015261384481613808565b9050919050565b7f45524332303a206275726e2066726f6d20746865207a65726f2061646472657360008201527f7300000000000000000000000000000000000000000000000000000000000000602082015250565b60006138a7602183612968565b91506138b28261384b565b604082019050919050565b600060208201905081810360008301526138d68161389a565b9050919050565b7f45524332303a206275726e20616d6f756e7420657863656564732062616c616e60008201527f6365000000000000000000000000000000000000000000000000000000000000602082015250565b6000613939602283612968565b9150613944826138dd565b604082019050919050565b600060208201905081810360008301526139688161392c565b9050919050565b7f416464726573733a20696e73756666696369656e742062616c616e636520666f60008201527f722063616c6c0000000000000000000000000000000000000000000000000000602082015250565b60006139cb602683612968565b91506139d68261396f565b604082019050919050565b600060208201905081810360008301526139fa816139be565b9050919050565b7f416464726573733a2063616c6c20746f206e6f6e2d636f6e7472616374000000600082015250565b6000613a37601d83612968565b9150613a4282613a01565b602082019050919050565b60006020820190508181036000830152613a6681613a2a565b9050919050565b600081519050919050565b600081905092915050565b6000613a8e82613a6d565b613a988185613a78565b9350613aa8818560208601612979565b80840191505092915050565b6000613ac08284613a83565b91508190509291505056fea26469706673582212201816eec073b9a318afab5e0c1647f94e30dd899016d1071e9bde0fa4818891aa64736f6c63430008110033",
    "linkReferences": {}
  },
  "methodIdentifiers": {
    "_cumulativeIndex_RAY()": "dbcb313b",
    "addLendingAddress(address)": "00e97099",
    "addRepayingAddress(address)": "dceac9c8",
    "allowance(address,address)": "dd62ed3e",
    "approve(address,uint256)": "095ea7b3",
    "asset()": "38d52e0f",
    "balanceOf(address)": "70a08231",
    "borrow(address,uint256)": "4b8a3529",
    "borrowAPY_RAY()": "45d31f9d",
    "calcLinearCumulative_RAY()": "0fce70fb",
    "calcLinearIndex_RAY(uint256,uint256,uint256)": "31d8bc27",
    "convertToAssets(uint256)": "07a2d13a",
    "convertToShares(uint256)": "c6e6f592",
    "decimals()": "313ce567",
    "decreaseAllowance(address,uint256)": "a457c2d7",
    "deposit(uint256,address)": "6e553f65",
    "expectedLiquidity()": "fe14112d",
    "getInterestRateModel()": "60b722f3",
    "getShareRate_Ray()": "222632f1",
    "increaseAllowance(address,uint256)": "39509351",
    "lendingAllowed(address)": "dc36f02a",
    "maxDeposit(address)": "402d267d",
    "maxExpectedLiquidity()": "726f6e22",
    "maxMint(address)": "c63d75b6",
    "maxRedeem(address)": "d905777e",
    "maxWithdraw(address)": "ce96cb77",
    "mint(uint256,address)": "94bf804d",
    "name()": "06fdde03",
    "previewDeposit(uint256)": "ef8b30f7",
    "previewMint(uint256)": "b3d7f6b9",
    "previewRedeem(uint256)": "4cdad506",
    "previewWithdraw(uint256)": "0a28a477",
    "redeem(uint256,address,address)": "ba087652",
    "repay(address,uint256,uint256)": "8cd2e0c7",
    "repayingAllowed(address)": "84aafe52",
    "symbol()": "95d89b41",
    "totalAssets()": "01e1d114",
    "totalSupply()": "18160ddd",
    "transfer(address,uint256)": "a9059cbb",
    "transferFrom(address,address,uint256)": "23b872dd",
    "withdraw(uint256,address,address)": "b460af94"
  },
  "id": 48
}