{
  "abi": [
    {
      "inputs": [
        {
          "internalType": "address",
          "name": "_asset",
          "type": "address"
        },
        {
          "internalType": "string",
          "name": "_lpTokenName",
          "type": "string"
        },
        {
          "internalType": "string",
          "name": "_lpTokenSymbol",
          "type": "string"
        },
        {
          "internalType": "address",
          "name": "_interestRateModelAddress",
          "type": "address"
        },
        {
          "internalType": "uint256",
          "name": "_maxExpectedLiquidity",
          "type": "uint256"
        }
      ],
      "stateMutability": "nonpayable",
      "type": "constructor"
    },
    {
      "anonymous": false,
      "inputs": [
        {
          "indexed": true,
          "internalType": "address",
          "name": "owner",
          "type": "address"
        },
        {
          "indexed": true,
          "internalType": "address",
          "name": "spender",
          "type": "address"
        },
        {
          "indexed": false,
          "internalType": "uint256",
          "name": "value",
          "type": "uint256"
        }
      ],
      "name": "Approval",
      "type": "event"
    },
    {
      "anonymous": false,
      "inputs": [
        {
          "indexed": true,
          "internalType": "address",
          "name": "creditManager",
          "type": "address"
        },
        {
          "indexed": true,
          "internalType": "address",
          "name": "creditAccount",
          "type": "address"
        },
        {
          "indexed": false,
          "internalType": "uint256",
          "name": "amount",
          "type": "uint256"
        }
      ],
      "name": "Borrow",
      "type": "event"
    },
    {
      "anonymous": false,
      "inputs": [
        {
          "indexed": true,
          "internalType": "address",
          "name": "creditManager",
          "type": "address"
        }
      ],
      "name": "BorrowForbidden",
      "type": "event"
    },
    {
      "anonymous": false,
      "inputs": [
        {
          "indexed": true,
          "internalType": "address",
          "name": "caller",
          "type": "address"
        },
        {
          "indexed": true,
          "internalType": "address",
          "name": "owner",
          "type": "address"
        },
        {
          "indexed": false,
          "internalType": "uint256",
          "name": "assets",
          "type": "uint256"
        },
        {
          "indexed": false,
          "internalType": "uint256",
          "name": "shares",
          "type": "uint256"
        }
      ],
      "name": "Deposit",
      "type": "event"
    },
    {
      "anonymous": false,
      "inputs": [
        {
          "indexed": true,
          "internalType": "address",
          "name": "newInterestRateModel",
          "type": "address"
        }
      ],
      "name": "InterestRateModelUpdated",
      "type": "event"
    },
    {
      "anonymous": false,
      "inputs": [
        {
          "indexed": true,
          "internalType": "address",
          "name": "creditManager",
          "type": "address"
        }
      ],
      "name": "NewCreditManagerConnected",
      "type": "event"
    },
    {
      "anonymous": false,
      "inputs": [
        {
          "indexed": true,
          "internalType": "address",
          "name": "creditManager",
          "type": "address"
        },
        {
          "indexed": false,
          "internalType": "uint256",
          "name": "borrowedAmount",
          "type": "uint256"
        },
        {
          "indexed": false,
          "internalType": "uint256",
          "name": "interest",
          "type": "uint256"
        },
        {
          "indexed": false,
          "internalType": "uint256",
          "name": "profit",
          "type": "uint256"
        },
        {
          "indexed": false,
          "internalType": "uint256",
          "name": "loss",
          "type": "uint256"
        }
      ],
      "name": "Repay",
      "type": "event"
    },
    {
      "anonymous": false,
      "inputs": [
        {
          "indexed": true,
          "internalType": "address",
          "name": "from",
          "type": "address"
        },
        {
          "indexed": true,
          "internalType": "address",
          "name": "to",
          "type": "address"
        },
        {
          "indexed": false,
          "internalType": "uint256",
          "name": "value",
          "type": "uint256"
        }
      ],
      "name": "Transfer",
      "type": "event"
    },
    {
      "anonymous": false,
      "inputs": [
        {
          "indexed": true,
          "internalType": "address",
          "name": "caller",
          "type": "address"
        },
        {
          "indexed": true,
          "internalType": "address",
          "name": "receiver",
          "type": "address"
        },
        {
          "indexed": true,
          "internalType": "address",
          "name": "owner",
          "type": "address"
        },
        {
          "indexed": false,
          "internalType": "uint256",
          "name": "assets",
          "type": "uint256"
        },
        {
          "indexed": false,
          "internalType": "uint256",
          "name": "shares",
          "type": "uint256"
        }
      ],
      "name": "Withdraw",
      "type": "event"
    },
    {
      "inputs": [],
      "name": "_cumulativeIndex_RAY",
      "outputs": [
        {
          "internalType": "uint256",
          "name": "",
          "type": "uint256"
        }
      ],
      "stateMutability": "view",
      "type": "function"
    },
    {
      "inputs": [
        {
          "internalType": "address",
          "name": "_lendAddress",
          "type": "address"
        }
      ],
      "name": "addLendingAddress",
      "outputs": [],
      "stateMutability": "nonpayable",
      "type": "function"
    },
    {
      "inputs": [
        {
          "internalType": "address",
          "name": "_repayAddress",
          "type": "address"
        }
      ],
      "name": "addRepayingAddress",
      "outputs": [],
      "stateMutability": "nonpayable",
      "type": "function"
    },
    {
      "inputs": [
        {
          "internalType": "address",
          "name": "owner",
          "type": "address"
        },
        {
          "internalType": "address",
          "name": "spender",
          "type": "address"
        }
      ],
      "name": "allowance",
      "outputs": [
        {
          "internalType": "uint256",
          "name": "",
          "type": "uint256"
        }
      ],
      "stateMutability": "view",
      "type": "function"
    },
    {
      "inputs": [
        {
          "internalType": "address",
          "name": "spender",
          "type": "address"
        },
        {
          "internalType": "uint256",
          "name": "amount",
          "type": "uint256"
        }
      ],
      "name": "approve",
      "outputs": [
        {
          "internalType": "bool",
          "name": "",
          "type": "bool"
        }
      ],
      "stateMutability": "nonpayable",
      "type": "function"
    },
    {
      "inputs": [],
      "name": "asset",
      "outputs": [
        {
          "internalType": "address",
          "name": "",
          "type": "address"
        }
      ],
      "stateMutability": "view",
      "type": "function"
    },
    {
      "inputs": [
        {
          "internalType": "address",
          "name": "account",
          "type": "address"
        }
      ],
      "name": "balanceOf",
      "outputs": [
        {
          "internalType": "uint256",
          "name": "",
          "type": "uint256"
        }
      ],
      "stateMutability": "view",
      "type": "function"
    },
    {
      "inputs": [
        {
          "internalType": "address",
          "name": "borrower",
          "type": "address"
        },
        {
          "internalType": "uint256",
          "name": "amount",
          "type": "uint256"
        }
      ],
      "name": "borrow",
      "outputs": [],
      "stateMutability": "nonpayable",
      "type": "function"
    },
    {
      "inputs": [],
      "name": "borrowAPY_RAY",
      "outputs": [
        {
          "internalType": "uint256",
          "name": "",
          "type": "uint256"
        }
      ],
      "stateMutability": "view",
      "type": "function"
    },
    {
      "inputs": [],
      "name": "calcLinearCumulative_RAY",
      "outputs": [
        {
          "internalType": "uint256",
          "name": "",
          "type": "uint256"
        }
      ],
      "stateMutability": "view",
      "type": "function"
    },
    {
      "inputs": [
        {
          "internalType": "uint256",
          "name": "cumulativeIndex_RAY",
          "type": "uint256"
        },
        {
          "internalType": "uint256",
          "name": "currentBorrowRate_RAY",
          "type": "uint256"
        },
        {
          "internalType": "uint256",
          "name": "timeDifference",
          "type": "uint256"
        }
      ],
      "name": "calcLinearIndex_RAY",
      "outputs": [
        {
          "internalType": "uint256",
          "name": "",
          "type": "uint256"
        }
      ],
      "stateMutability": "pure",
      "type": "function"
    },
    {
      "inputs": [
        {
          "internalType": "uint256",
          "name": "shares",
          "type": "uint256"
        }
      ],
      "name": "convertToAssets",
      "outputs": [
        {
          "internalType": "uint256",
          "name": "assets",
          "type": "uint256"
        }
      ],
      "stateMutability": "view",
      "type": "function"
    },
    {
      "inputs": [
        {
          "internalType": "uint256",
          "name": "assets",
          "type": "uint256"
        }
      ],
      "name": "convertToShares",
      "outputs": [
        {
          "internalType": "uint256",
          "name": "shares",
          "type": "uint256"
        }
      ],
      "stateMutability": "view",
      "type": "function"
    },
    {
      "inputs": [],
      "name": "decimals",
      "outputs": [
        {
          "internalType": "uint8",
          "name": "",
          "type": "uint8"
        }
      ],
      "stateMutability": "view",
      "type": "function"
    },
    {
      "inputs": [
        {
          "internalType": "address",
          "name": "spender",
          "type": "address"
        },
        {
          "internalType": "uint256",
          "name": "subtractedValue",
          "type": "uint256"
        }
      ],
      "name": "decreaseAllowance",
      "outputs": [
        {
          "internalType": "bool",
          "name": "",
          "type": "bool"
        }
      ],
      "stateMutability": "nonpayable",
      "type": "function"
    },
    {
      "inputs": [
        {
          "internalType": "uint256",
          "name": "assets",
          "type": "uint256"
        },
        {
          "internalType": "address",
          "name": "receiver",
          "type": "address"
        }
      ],
      "name": "deposit",
      "outputs": [
        {
          "internalType": "uint256",
          "name": "",
          "type": "uint256"
        }
      ],
      "stateMutability": "nonpayable",
      "type": "function"
    },
    {
      "inputs": [],
      "name": "expectedLiquidity",
      "outputs": [
        {
          "internalType": "uint256",
          "name": "",
          "type": "uint256"
        }
      ],
      "stateMutability": "view",
      "type": "function"
    },
    {
      "inputs": [],
      "name": "getInterestRateModel",
      "outputs": [
        {
          "internalType": "address",
          "name": "",
          "type": "address"
        }
      ],
      "stateMutability": "view",
      "type": "function"
    },
    {
      "inputs": [],
      "name": "getShareRate_Ray",
      "outputs": [
        {
          "internalType": "uint256",
          "name": "",
          "type": "uint256"
        }
      ],
      "stateMutability": "view",
      "type": "function"
    },
    {
      "inputs": [
        {
          "internalType": "address",
          "name": "spender",
          "type": "address"
        },
        {
          "internalType": "uint256",
          "name": "addedValue",
          "type": "uint256"
        }
      ],
      "name": "increaseAllowance",
      "outputs": [
        {
          "internalType": "bool",
          "name": "",
          "type": "bool"
        }
      ],
      "stateMutability": "nonpayable",
      "type": "function"
    },
    {
      "inputs": [
        {
          "internalType": "address",
          "name": "",
          "type": "address"
        }
      ],
      "name": "lendingAllowed",
      "outputs": [
        {
          "internalType": "bool",
          "name": "",
          "type": "bool"
        }
      ],
      "stateMutability": "view",
      "type": "function"
    },
    {
      "inputs": [
        {
          "internalType": "address",
          "name": "",
          "type": "address"
        }
      ],
      "name": "maxDeposit",
      "outputs": [
        {
          "internalType": "uint256",
          "name": "",
          "type": "uint256"
        }
      ],
      "stateMutability": "view",
      "type": "function"
    },
    {
      "inputs": [
        {
          "internalType": "address",
          "name": "",
          "type": "address"
        }
      ],
      "name": "maxMint",
      "outputs": [
        {
          "internalType": "uint256",
          "name": "",
          "type": "uint256"
        }
      ],
      "stateMutability": "view",
      "type": "function"
    },
    {
      "inputs": [
        {
          "internalType": "address",
          "name": "owner",
          "type": "address"
        }
      ],
      "name": "maxRedeem",
      "outputs": [
        {
          "internalType": "uint256",
          "name": "",
          "type": "uint256"
        }
      ],
      "stateMutability": "view",
      "type": "function"
    },
    {
      "inputs": [
        {
          "internalType": "address",
          "name": "owner",
          "type": "address"
        }
      ],
      "name": "maxWithdraw",
      "outputs": [
        {
          "internalType": "uint256",
          "name": "",
          "type": "uint256"
        }
      ],
      "stateMutability": "view",
      "type": "function"
    },
    {
      "inputs": [
        {
          "internalType": "uint256",
          "name": "shares",
          "type": "uint256"
        },
        {
          "internalType": "address",
          "name": "receiver",
          "type": "address"
        }
      ],
      "name": "mint",
      "outputs": [
        {
          "internalType": "uint256",
          "name": "",
          "type": "uint256"
        }
      ],
      "stateMutability": "nonpayable",
      "type": "function"
    },
    {
      "inputs": [],
      "name": "name",
      "outputs": [
        {
          "internalType": "string",
          "name": "",
          "type": "string"
        }
      ],
      "stateMutability": "view",
      "type": "function"
    },
    {
      "inputs": [
        {
          "internalType": "uint256",
          "name": "assets",
          "type": "uint256"
        }
      ],
      "name": "previewDeposit",
      "outputs": [
        {
          "internalType": "uint256",
          "name": "",
          "type": "uint256"
        }
      ],
      "stateMutability": "view",
      "type": "function"
    },
    {
      "inputs": [
        {
          "internalType": "uint256",
          "name": "shares",
          "type": "uint256"
        }
      ],
      "name": "previewMint",
      "outputs": [
        {
          "internalType": "uint256",
          "name": "",
          "type": "uint256"
        }
      ],
      "stateMutability": "view",
      "type": "function"
    },
    {
      "inputs": [
        {
          "internalType": "uint256",
          "name": "shares",
          "type": "uint256"
        }
      ],
      "name": "previewRedeem",
      "outputs": [
        {
          "internalType": "uint256",
          "name": "",
          "type": "uint256"
        }
      ],
      "stateMutability": "view",
      "type": "function"
    },
    {
      "inputs": [
        {
          "internalType": "uint256",
          "name": "assets",
          "type": "uint256"
        }
      ],
      "name": "previewWithdraw",
      "outputs": [
        {
          "internalType": "uint256",
          "name": "",
          "type": "uint256"
        }
      ],
      "stateMutability": "view",
      "type": "function"
    },
    {
      "inputs": [
        {
          "internalType": "uint256",
          "name": "shares",
          "type": "uint256"
        },
        {
          "internalType": "address",
          "name": "receiver",
          "type": "address"
        },
        {
          "internalType": "address",
          "name": "owner",
          "type": "address"
        }
      ],
      "name": "redeem",
      "outputs": [
        {
          "internalType": "uint256",
          "name": "",
          "type": "uint256"
        }
      ],
      "stateMutability": "nonpayable",
      "type": "function"
    },
    {
      "inputs": [
        {
          "internalType": "address",
          "name": "borrower",
          "type": "address"
        },
        {
          "internalType": "uint256",
          "name": "borrowedAmount",
          "type": "uint256"
        },
        {
          "internalType": "uint256",
          "name": "interest",
          "type": "uint256"
        }
      ],
      "name": "repay",
      "outputs": [],
      "stateMutability": "nonpayable",
      "type": "function"
    },
    {
      "inputs": [
        {
          "internalType": "address",
          "name": "",
          "type": "address"
        }
      ],
      "name": "repayingAllowed",
      "outputs": [
        {
          "internalType": "bool",
          "name": "",
          "type": "bool"
        }
      ],
      "stateMutability": "view",
      "type": "function"
    },
    {
      "inputs": [],
      "name": "symbol",
      "outputs": [
        {
          "internalType": "string",
          "name": "",
          "type": "string"
        }
      ],
      "stateMutability": "view",
      "type": "function"
    },
    {
      "inputs": [],
      "name": "totalAssets",
      "outputs": [
        {
          "internalType": "uint256",
          "name": "",
          "type": "uint256"
        }
      ],
      "stateMutability": "view",
      "type": "function"
    },
    {
      "inputs": [],
      "name": "totalSupply",
      "outputs": [
        {
          "internalType": "uint256",
          "name": "",
          "type": "uint256"
        }
      ],
      "stateMutability": "view",
      "type": "function"
    },
    {
      "inputs": [
        {
          "internalType": "address",
          "name": "to",
          "type": "address"
        },
        {
          "internalType": "uint256",
          "name": "amount",
          "type": "uint256"
        }
      ],
      "name": "transfer",
      "outputs": [
        {
          "internalType": "bool",
          "name": "",
          "type": "bool"
        }
      ],
      "stateMutability": "nonpayable",
      "type": "function"
    },
    {
      "inputs": [
        {
          "internalType": "address",
          "name": "from",
          "type": "address"
        },
        {
          "internalType": "address",
          "name": "to",
          "type": "address"
        },
        {
          "internalType": "uint256",
          "name": "amount",
          "type": "uint256"
        }
      ],
      "name": "transferFrom",
      "outputs": [
        {
          "internalType": "bool",
          "name": "",
          "type": "bool"
        }
      ],
      "stateMutability": "nonpayable",
      "type": "function"
    },
    {
      "inputs": [
        {
          "internalType": "uint256",
          "name": "assets",
          "type": "uint256"
        },
        {
          "internalType": "address",
          "name": "receiver",
          "type": "address"
        },
        {
          "internalType": "address",
          "name": "owner",
          "type": "address"
        }
      ],
      "name": "withdraw",
      "outputs": [
        {
          "internalType": "uint256",
          "name": "",
          "type": "uint256"
        }
      ],
      "stateMutability": "nonpayable",
      "type": "function"
    }
  ],
  "bytecode": {
    "object": "0x60a06040523480156200001157600080fd5b50604051620026db380380620026db833981016040819052620000349162000589565b8484846003620000458382620006b2565b506004620000548282620006b2565b5050506001600160a01b039081166080528516158015906200007e57506001600160a01b03821615155b6040518060400160405280600281526020016105a360f41b81525090620000c35760405162461bcd60e51b8152600401620000ba91906200077e565b60405180910390fd5b506b033b2e3c9fd0803ce8000000600b55620000df82620000ed565b600655506200084c92505050565b60408051808201909152600281526105a360f41b60208201526001600160a01b038216620001305760405162461bcd60e51b8152600401620000ba91906200077e565b50600780546001600160a01b0319166001600160a01b0383161790556200015860006200018f565b6040516001600160a01b038216907f371881eae32ec133f4b803567276bcf1009d4d4bb8aa6684fcec05b2318b970a90600090a250565b806200019a6200024a565b620001a69190620007c9565b600d55620001b3620002c3565b600b55600754600d546001600160a01b03909116906342568d4490620001d8620002f5565b6040516001600160e01b031960e085901b16815260048101929092526024820152604401602060405180830381865afa1580156200021a573d6000803e3d6000fd5b505050506040513d601f19601f82011682018060405250810190620002409190620007df565b600c555042600e55565b600080600e54426200025d9190620007c9565b905060006301e133806b033b2e3c9fd0803ce800000083600c54600554620002869190620007f9565b620002929190620007f9565b6200029e919062000813565b620002aa919062000813565b905080600d54620002bc919062000836565b9250505090565b600080600e5442620002d69190620007c9565b9050620002ef600b54600c54836200036a60201b60201c565b91505090565b6080516040516370a0823160e01b81523060048201526000916001600160a01b0316906370a0823190602401602060405180830381865afa1580156200033f573d6000803e3d6000fd5b505050506040513d601f19601f82011682018060405250810190620003659190620007df565b905090565b6000806301e133806200037e8486620007f9565b6200038a919062000813565b620003a2906b033b2e3c9fd0803ce800000062000836565b9050620003be8186620003c760201b62000e981790919060201c565b95945050505050565b6000821580620003d5575081155b15620003e45750600062000499565b81620003fe60026b033b2e3c9fd0803ce800000062000813565b6200040c90600019620007c9565b62000418919062000813565b831115604051806040016040528060028152602001614d3160f01b81525090620004575760405162461bcd60e51b8152600401620000ba91906200077e565b506b033b2e3c9fd0803ce80000006200047260028262000813565b6200047e8486620007f9565b6200048a919062000836565b62000496919062000813565b90505b92915050565b80516001600160a01b0381168114620004b757600080fd5b919050565b634e487b7160e01b600052604160045260246000fd5b60005b83811015620004ef578181015183820152602001620004d5565b50506000910152565b600082601f8301126200050a57600080fd5b81516001600160401b0380821115620005275762000527620004bc565b604051601f8301601f19908116603f01168101908282118183101715620005525762000552620004bc565b816040528381528660208588010111156200056c57600080fd5b6200057f846020830160208901620004d2565b9695505050505050565b600080600080600060a08688031215620005a257600080fd5b620005ad866200049f565b60208701519095506001600160401b0380821115620005cb57600080fd5b620005d989838a01620004f8565b95506040880151915080821115620005f057600080fd5b50620005ff88828901620004f8565b93505062000610606087016200049f565b9150608086015190509295509295909350565b600181811c908216806200063857607f821691505b6020821081036200065957634e487b7160e01b600052602260045260246000fd5b50919050565b601f821115620006ad57600081815260208120601f850160051c81016020861015620006885750805b601f850160051c820191505b81811015620006a95782815560010162000694565b5050505b505050565b81516001600160401b03811115620006ce57620006ce620004bc565b620006e681620006df845462000623565b846200065f565b602080601f8311600181146200071e5760008415620007055750858301515b600019600386901b1c1916600185901b178555620006a9565b600085815260208120601f198616915b828110156200074f578886015182559484019460019091019084016200072e565b50858210156200076e5787850151600019600388901b60f8161c191681555b5050505050600190811b01905550565b60208152600082518060208401526200079f816040850160208701620004d2565b601f01601f19169190910160400192915050565b634e487b7160e01b600052601160045260246000fd5b81810381811115620004995762000499620007b3565b600060208284031215620007f257600080fd5b5051919050565b8082028115828204841417620004995762000499620007b3565b6000826200083157634e487b7160e01b600052601260045260246000fd5b500490565b80820180821115620004995762000499620007b3565b608051611e506200088b600039600081816103480152818161059e015281816108a201528181610ae6015281816113e701526115120152611e506000f3fe608060405234801561001057600080fd5b50600436106102475760003560e01c806370a082311161013b578063c63d75b6116100b8578063dc36f02a1161007c578063dc36f02a14610516578063dceac9c814610539578063dd62ed3e1461056b578063ef8b30f7146104d4578063fe14112d1461057e57600080fd5b8063c63d75b6146104bf578063c6e6f592146104d4578063ce96cb77146104e7578063d905777e146104fa578063dbcb313b1461050d57600080fd5b8063a457c2d7116100ff578063a457c2d714610460578063a9059cbb14610473578063b3d7f6b914610486578063b460af9414610499578063ba087652146104ac57600080fd5b806370a08231146103e657806384aafe521461040f5780638cd2e0c71461043257806394bf804d1461044557806395d89b411461045857600080fd5b8063313ce567116101c957806345d31f9d1161018d57806345d31f9d146103a65780634b8a3529146103af5780634cdad506146102b057806360b722f3146103c25780636e553f65146103d357600080fd5b8063313ce5671461032457806331d8bc271461033357806338d52e0f146103465780633950935114610380578063402d267d1461039357600080fd5b80630a28a477116102105780630a28a477146102e65780630fce70fb146102f957806318160ddd14610301578063222632f11461030957806323b872dd1461031157600080fd5b8062e970991461024c57806301e1d1141461028057806306fdde031461029b57806307a2d13a146102b0578063095ea7b3146102c3575b600080fd5b61027e61025a366004611b06565b6001600160a01b03166000908152600860205260409020805460ff19166001179055565b005b610288610586565b6040519081526020015b60405180910390f35b6102a3610616565b6040516102929190611b45565b6102886102be366004611b78565b6106a8565b6102d66102d1366004611b91565b6106bb565b6040519015158152602001610292565b6102886102f4366004611b78565b6106d3565b6102886106e0565b600254610288565b610288610708565b6102d661031f366004611bbb565b610759565b60405160128152602001610292565b610288610341366004611bf7565b61077f565b7f00000000000000000000000000000000000000000000000000000000000000005b6040516001600160a01b039091168152602001610292565b6102d661038e366004611b91565b6107c5565b6102886103a1366004611b06565b6107e7565b610288600c5481565b61027e6103bd366004611b91565b610805565b6007546001600160a01b0316610368565b6102886103e1366004611c23565b61097c565b6102886103f4366004611b06565b6001600160a01b031660009081526020819052604090205490565b6102d661041d366004611b06565b60096020526000908152604090205460ff1681565b61027e610440366004611c4f565b610a5c565b610288610453366004611c23565b610b6f565b6102a3610be9565b6102d661046e366004611b91565b610bf8565b6102d6610481366004611b91565b610c7e565b610288610494366004611b78565b610c8c565b6102886104a7366004611c82565b610c99565b6102886104ba366004611c82565b610d30565b6102886104cd366004611b06565b5060001990565b6102886104e2366004611b78565b610db2565b6102886104f5366004611b06565b610dbf565b610288610508366004611b06565b610de3565b610288600b5481565b6102d6610524366004611b06565b60086020526000908152604090205460ff1681565b61027e610547366004611b06565b6001600160a01b03166000908152600960205260409020805460ff19166001179055565b610288610579366004611cbe565b610e01565b610288610e2c565b6040516370a0823160e01b81523060048201526000907f00000000000000000000000000000000000000000000000000000000000000006001600160a01b0316906370a0823190602401602060405180830381865afa1580156105ed573d6000803e3d6000fd5b505050506040513d601f19601f820116820180604052508101906106119190611ce8565b905090565b60606003805461062590611d01565b80601f016020809104026020016040519081016040528092919081815260200182805461065190611d01565b801561069e5780601f106106735761010080835404028352916020019161069e565b820191906000526020600020905b81548152906001019060200180831161068157829003601f168201915b5050505050905090565b60006106b5826000610f51565b92915050565b6000336106c9818585610f72565b5060019392505050565b60006106b5826001611096565b600080600e54426106f19190611d51565b9050610702600b54600c548361077f565b91505090565b60008061071460025490565b90508060000361073057676765c793fa10079d601b1b91505090565b80676765c793fa10079d601b1b610745610e2c565b61074f9190611d64565b6107029190611d91565b6000336107678582856110b8565b610772858585611132565b60019150505b9392505050565b6000806301e133806107918486611d64565b61079b9190611d91565b6107b090676765c793fa10079d601b1b611db3565b90506107bc8582610e98565b95945050505050565b6000336106c98185856107d88383610e01565b6107e29190611db3565b610f72565b60006107f1611300565b6107fc5760006106b5565b60001992915050565b3360009081526008602052604090205460ff1615156001146108625760405162461bcd60e51b8152602060048201526011602482015270155b985d5d1a1bdc9a5e99590813195b99607a1b60448201526064015b60405180910390fd5b8061086b610586565b101561087657600080fd5b600554610883908261131a565b600555600d546108939082611326565b600d556108a06000611332565b7f000000000000000000000000000000000000000000000000000000000000000060405163a9059cbb60e01b81526001600160a01b03848116600483015260248201849052919091169063a9059cbb906044016020604051808303816000875af1158015610912573d6000803e3d6000fd5b505050506040513d601f19601f820116820180604052508101906109369190611dc6565b506040518181526001600160a01b0383169033907f312a5e5e1079f5dda4e95dbbd0b908b291fd5b992ef22073643ab691572c5b52906020015b60405180910390a35050565b6000610987826107e7565b8311156109d65760405162461bcd60e51b815260206004820152601e60248201527f455243343632363a206465706f736974206d6f7265207468616e206d617800006044820152606401610859565b600654836109e2610e2c565b6109ec9190611db3565b11156040518060400160405280600381526020016228299960e91b81525090610a285760405162461bcd60e51b81526004016108599190611b45565b506000610a3484610db2565b9050610a42338486846113e2565b600d54610a4f908561131a565b600d556107786000611332565b3360009081526009602052604090205460ff161515600114610ab55760405162461bcd60e51b8152602060048201526012602482015271556e617574686f72697a656420526570617960701b6044820152606401610859565b600554610ac29083611326565b600555600d54610ade908290610ad8908561131a565b9061131a565b600d55610b167f00000000000000000000000000000000000000000000000000000000000000008430610b11868661131a565b611474565b610b206000611332565b604080518381526020810183905260008183018190526060820152905133917fc8453d1b0c8f6e547923ef0f16bf4a0c29ba241bc57aee96bfe36584a99e5095919081900360800190a2505050565b600080610b7b84610c8c565b905060065481610b89610e2c565b610b939190611db3565b11156040518060400160405280600381526020016228299960e91b81525090610bcf5760405162461bcd60e51b81526004016108599190611b45565b50610bdc338483876113e2565b600d54610a4f908261131a565b60606004805461062590611d01565b60003381610c068286610e01565b905083811015610c665760405162461bcd60e51b815260206004820152602560248201527f45524332303a2064656372656173656420616c6c6f77616e63652062656c6f77604482015264207a65726f60d81b6064820152608401610859565b610c738286868403610f72565b506001949350505050565b6000336106c9818585611132565b60006106b5826001610f51565b6000610ca482610dbf565b841115610cf35760405162461bcd60e51b815260206004820152601f60248201527f455243343632363a207769746864726177206d6f7265207468616e206d6178006044820152606401610859565b6000610cfe856106d3565b9050610d0d33858588856114df565b84600d54610d1b9190611d51565b600d55610d286000611332565b949350505050565b6000610d3b82610de3565b841115610d8a5760405162461bcd60e51b815260206004820152601d60248201527f455243343632363a2072656465656d206d6f7265207468616e206d61780000006044820152606401610859565b6000610d95856106a8565b9050610da433858584896114df565b80600d54610d1b9190611d51565b60006106b5826000611096565b6001600160a01b0381166000908152602081905260408120546106b5906000610f51565b6001600160a01b0381166000908152602081905260408120546106b5565b6001600160a01b03918216600090815260016020908152604080832093909416825291909152205490565b600080600e5442610e3d9190611d51565b905060006301e13380676765c793fa10079d601b1b83600c54600554610e639190611d64565b610e6d9190611d64565b610e779190611d91565b610e819190611d91565b905080600d54610e919190611db3565b9250505090565b6000821580610ea5575081155b15610eb2575060006106b5565b81610ec96002676765c793fa10079d601b1b611d91565b610ed590600019611d51565b610edf9190611d91565b831115604051806040016040528060028152602001614d3160f01b81525090610f1b5760405162461bcd60e51b81526004016108599190611b45565b50676765c793fa10079d601b1b610f33600282611d91565b610f3d8486611d64565b610f479190611db3565b6107789190611d91565b6000610778610f5e610708565b8490676765c793fa10079d601b1b8561159f565b6001600160a01b038316610fd45760405162461bcd60e51b8152602060048201526024808201527f45524332303a20617070726f76652066726f6d20746865207a65726f206164646044820152637265737360e01b6064820152608401610859565b6001600160a01b0382166110355760405162461bcd60e51b815260206004820152602260248201527f45524332303a20617070726f766520746f20746865207a65726f206164647265604482015261737360f01b6064820152608401610859565b6001600160a01b0383811660008181526001602090815260408083209487168084529482529182902085905590518481527f8c5be1e5ebec7d5bd14f71427d1e84f3dd0314c0f7b2291e5b200ac8c7c3b925910160405180910390a3505050565b6000610778676765c793fa10079d601b1b6110af610708565b8591908561159f565b60006110c48484610e01565b9050600019811461112c578181101561111f5760405162461bcd60e51b815260206004820152601d60248201527f45524332303a20696e73756666696369656e7420616c6c6f77616e63650000006044820152606401610859565b61112c8484848403610f72565b50505050565b6001600160a01b0383166111965760405162461bcd60e51b815260206004820152602560248201527f45524332303a207472616e736665722066726f6d20746865207a65726f206164604482015264647265737360d81b6064820152608401610859565b6001600160a01b0382166111f85760405162461bcd60e51b815260206004820152602360248201527f45524332303a207472616e7366657220746f20746865207a65726f206164647260448201526265737360e81b6064820152608401610859565b6001600160a01b038316600090815260208190526040902054818110156112705760405162461bcd60e51b815260206004820152602660248201527f45524332303a207472616e7366657220616d6f756e7420657863656564732062604482015265616c616e636560d01b6064820152608401610859565b6001600160a01b038085166000908152602081905260408082208585039055918516815290812080548492906112a7908490611db3565b92505081905550826001600160a01b0316846001600160a01b03167fddf252ad1be2c89b69c2b068fc378daa952ba7f163c4a11628f55a4df523b3ef846040516112f391815260200190565b60405180910390a361112c565b60008061130b610586565b11806106115750506002541590565b60006107788284611db3565b60006107788284611d51565b8061133b610e2c565b6113459190611d51565b600d556113506106e0565b600b55600754600d546001600160a01b03909116906342568d4490611373610586565b6040516001600160e01b031960e085901b16815260048101929092526024820152604401602060405180830381865afa1580156113b4573d6000803e3d6000fd5b505050506040513d601f19601f820116820180604052508101906113d89190611ce8565b600c555042600e55565b61140e7f0000000000000000000000000000000000000000000000000000000000000000853085611474565b61141883826115ff565b826001600160a01b0316846001600160a01b03167fdcbc1c05240f31ff3ad067ef1ee35ce4997762752e3a095284754544f4c709d78484604051611466929190918252602082015260400190565b60405180910390a350505050565b6040516001600160a01b038085166024830152831660448201526064810182905261112c9085906323b872dd60e01b906084015b60408051601f198184030181529190526020810180516001600160e01b03166001600160e01b0319909316929092179091526116d7565b826001600160a01b0316856001600160a01b031614611503576115038386836110b8565b61150d83826117a9565b6115387f000000000000000000000000000000000000000000000000000000000000000085846118f7565b826001600160a01b0316846001600160a01b0316866001600160a01b03167ffbde797d201c681b91056529119e0b02407c7bb96a4a2c75c01fc9667232c8db8585604051611590929190918252602082015260400190565b60405180910390a45050505050565b6000806115ad868686611927565b905060018360028111156115c3576115c3611de8565b1480156115e05750600084806115db576115db611d7b565b868809115b156107bc576115f0600182611db3565b9695505050505050565b505050565b6001600160a01b0382166116555760405162461bcd60e51b815260206004820152601f60248201527f45524332303a206d696e7420746f20746865207a65726f2061646472657373006044820152606401610859565b80600260008282546116679190611db3565b90915550506001600160a01b03821660009081526020819052604081208054839290611694908490611db3565b90915550506040518181526001600160a01b038316906000907fddf252ad1be2c89b69c2b068fc378daa952ba7f163c4a11628f55a4df523b3ef90602001610970565b600061172c826040518060400160405280602081526020017f5361666545524332303a206c6f772d6c6576656c2063616c6c206661696c6564815250856001600160a01b03166119d69092919063ffffffff16565b8051909150156115fa578080602001905181019061174a9190611dc6565b6115fa5760405162461bcd60e51b815260206004820152602a60248201527f5361666545524332303a204552433230206f7065726174696f6e20646964206e6044820152691bdd081cdd58d8d9595960b21b6064820152608401610859565b6001600160a01b0382166118095760405162461bcd60e51b815260206004820152602160248201527f45524332303a206275726e2066726f6d20746865207a65726f206164647265736044820152607360f81b6064820152608401610859565b6001600160a01b0382166000908152602081905260409020548181101561187d5760405162461bcd60e51b815260206004820152602260248201527f45524332303a206275726e20616d6f756e7420657863656564732062616c616e604482015261636560f01b6064820152608401610859565b6001600160a01b03831660009081526020819052604081208383039055600280548492906118ac908490611d51565b90915550506040518281526000906001600160a01b038516907fddf252ad1be2c89b69c2b068fc378daa952ba7f163c4a11628f55a4df523b3ef9060200160405180910390a3505050565b6040516001600160a01b0383166024820152604481018290526115fa90849063a9059cbb60e01b906064016114a8565b60008080600019858709858702925082811083820303915050806000036119615783828161195757611957611d7b565b0492505050610778565b80841161196d57600080fd5b60008486880960026001871981018816978890046003810283188082028403028082028403028082028403028082028403028082028403029081029092039091026000889003889004909101858311909403939093029303949094049190911702949350505050565b6060610d288484600085856001600160a01b0385163b611a385760405162461bcd60e51b815260206004820152601d60248201527f416464726573733a2063616c6c20746f206e6f6e2d636f6e74726163740000006044820152606401610859565b600080866001600160a01b03168587604051611a549190611dfe565b60006040518083038185875af1925050503d8060008114611a91576040519150601f19603f3d011682016040523d82523d6000602084013e611a96565b606091505b5091509150611aa6828286611ab1565b979650505050505050565b60608315611ac0575081610778565b825115611ad05782518084602001fd5b8160405162461bcd60e51b81526004016108599190611b45565b80356001600160a01b0381168114611b0157600080fd5b919050565b600060208284031215611b1857600080fd5b61077882611aea565b60005b83811015611b3c578181015183820152602001611b24565b50506000910152565b6020815260008251806020840152611b64816040850160208701611b21565b601f01601f19169190910160400192915050565b600060208284031215611b8a57600080fd5b5035919050565b60008060408385031215611ba457600080fd5b611bad83611aea565b946020939093013593505050565b600080600060608486031215611bd057600080fd5b611bd984611aea565b9250611be760208501611aea565b9150604084013590509250925092565b600080600060608486031215611c0c57600080fd5b505081359360208301359350604090920135919050565b60008060408385031215611c3657600080fd5b82359150611c4660208401611aea565b90509250929050565b600080600060608486031215611c6457600080fd5b611c6d84611aea565b95602085013595506040909401359392505050565b600080600060608486031215611c9757600080fd5b83359250611ca760208501611aea565b9150611cb560408501611aea565b90509250925092565b60008060408385031215611cd157600080fd5b611cda83611aea565b9150611c4660208401611aea565b600060208284031215611cfa57600080fd5b5051919050565b600181811c90821680611d1557607f821691505b602082108103611d3557634e487b7160e01b600052602260045260246000fd5b50919050565b634e487b7160e01b600052601160045260246000fd5b818103818111156106b5576106b5611d3b565b80820281158282048414176106b5576106b5611d3b565b634e487b7160e01b600052601260045260246000fd5b600082611dae57634e487b7160e01b600052601260045260246000fd5b500490565b808201808211156106b5576106b5611d3b565b600060208284031215611dd857600080fd5b8151801515811461077857600080fd5b634e487b7160e01b600052602160045260246000fd5b60008251611e10818460208701611b21565b919091019291505056fea2646970667358221220cc7b27c7f20bdaeddd7a4e699d3321d58e337870db60c266f75fd71c82da9c9364736f6c63430008110033",
    "linkReferences": {}
  },
  "methodIdentifiers": {
    "_cumulativeIndex_RAY()": "dbcb313b",
    "addLendingAddress(address)": "00e97099",
    "addRepayingAddress(address)": "dceac9c8",
    "allowance(address,address)": "dd62ed3e",
    "approve(address,uint256)": "095ea7b3",
    "asset()": "38d52e0f",
    "balanceOf(address)": "70a08231",
    "borrow(address,uint256)": "4b8a3529",
    "borrowAPY_RAY()": "45d31f9d",
    "calcLinearCumulative_RAY()": "0fce70fb",
    "calcLinearIndex_RAY(uint256,uint256,uint256)": "31d8bc27",
    "convertToAssets(uint256)": "07a2d13a",
    "convertToShares(uint256)": "c6e6f592",
    "decimals()": "313ce567",
    "decreaseAllowance(address,uint256)": "a457c2d7",
    "deposit(uint256,address)": "6e553f65",
    "expectedLiquidity()": "fe14112d",
    "getInterestRateModel()": "60b722f3",
    "getShareRate_Ray()": "222632f1",
    "increaseAllowance(address,uint256)": "39509351",
    "lendingAllowed(address)": "dc36f02a",
    "maxDeposit(address)": "402d267d",
    "maxMint(address)": "c63d75b6",
    "maxRedeem(address)": "d905777e",
    "maxWithdraw(address)": "ce96cb77",
    "mint(uint256,address)": "94bf804d",
    "name()": "06fdde03",
    "previewDeposit(uint256)": "ef8b30f7",
    "previewMint(uint256)": "b3d7f6b9",
    "previewRedeem(uint256)": "4cdad506",
    "previewWithdraw(uint256)": "0a28a477",
    "redeem(uint256,address,address)": "ba087652",
    "repay(address,uint256,uint256)": "8cd2e0c7",
    "repayingAllowed(address)": "84aafe52",
    "symbol()": "95d89b41",
    "totalAssets()": "01e1d114",
    "totalSupply()": "18160ddd",
    "transfer(address,uint256)": "a9059cbb",
    "transferFrom(address,address,uint256)": "23b872dd",
    "withdraw(uint256,address,address)": "b460af94"
  },
  "id": 25
}