{
  "abi": [
    {
      "inputs": [
        {
          "internalType": "address",
          "name": "_asset",
          "type": "address"
        },
        {
          "internalType": "string",
          "name": "_lpTokenName",
          "type": "string"
        },
        {
          "internalType": "string",
          "name": "_lpTokenSymbol",
          "type": "string"
        },
        {
          "internalType": "address",
          "name": "_interestRateModelAddress",
          "type": "address"
        }
      ],
      "stateMutability": "nonpayable",
      "type": "constructor"
    },
    {
      "anonymous": false,
      "inputs": [
        {
          "indexed": true,
          "internalType": "address",
          "name": "owner",
          "type": "address"
        },
        {
          "indexed": true,
          "internalType": "address",
          "name": "spender",
          "type": "address"
        },
        {
          "indexed": false,
          "internalType": "uint256",
          "name": "value",
          "type": "uint256"
        }
      ],
      "name": "Approval",
      "type": "event"
    },
    {
      "anonymous": false,
      "inputs": [
        {
          "indexed": true,
          "internalType": "address",
          "name": "creditManager",
          "type": "address"
        },
        {
          "indexed": true,
          "internalType": "address",
          "name": "creditAccount",
          "type": "address"
        },
        {
          "indexed": false,
          "internalType": "uint256",
          "name": "amount",
          "type": "uint256"
        }
      ],
      "name": "Borrow",
      "type": "event"
    },
    {
      "anonymous": false,
      "inputs": [
        {
          "indexed": true,
          "internalType": "address",
          "name": "creditManager",
          "type": "address"
        }
      ],
      "name": "BorrowForbidden",
      "type": "event"
    },
    {
      "anonymous": false,
      "inputs": [
        {
          "indexed": true,
          "internalType": "address",
          "name": "caller",
          "type": "address"
        },
        {
          "indexed": true,
          "internalType": "address",
          "name": "owner",
          "type": "address"
        },
        {
          "indexed": false,
          "internalType": "uint256",
          "name": "assets",
          "type": "uint256"
        },
        {
          "indexed": false,
          "internalType": "uint256",
          "name": "shares",
          "type": "uint256"
        }
      ],
      "name": "Deposit",
      "type": "event"
    },
    {
      "anonymous": false,
      "inputs": [
        {
          "indexed": true,
          "internalType": "address",
          "name": "newInterestRateModel",
          "type": "address"
        }
      ],
      "name": "InterestRateModelUpdated",
      "type": "event"
    },
    {
      "anonymous": false,
      "inputs": [
        {
          "indexed": true,
          "internalType": "address",
          "name": "creditManager",
          "type": "address"
        }
      ],
      "name": "NewCreditManagerConnected",
      "type": "event"
    },
    {
      "anonymous": false,
      "inputs": [
        {
          "indexed": true,
          "internalType": "address",
          "name": "creditManager",
          "type": "address"
        },
        {
          "indexed": false,
          "internalType": "uint256",
          "name": "borrowedAmount",
          "type": "uint256"
        },
        {
          "indexed": false,
          "internalType": "uint256",
          "name": "interest",
          "type": "uint256"
        },
        {
          "indexed": false,
          "internalType": "uint256",
          "name": "profit",
          "type": "uint256"
        },
        {
          "indexed": false,
          "internalType": "uint256",
          "name": "loss",
          "type": "uint256"
        }
      ],
      "name": "Repay",
      "type": "event"
    },
    {
      "anonymous": false,
      "inputs": [
        {
          "indexed": true,
          "internalType": "address",
          "name": "from",
          "type": "address"
        },
        {
          "indexed": true,
          "internalType": "address",
          "name": "to",
          "type": "address"
        },
        {
          "indexed": false,
          "internalType": "uint256",
          "name": "value",
          "type": "uint256"
        }
      ],
      "name": "Transfer",
      "type": "event"
    },
    {
      "anonymous": false,
      "inputs": [
        {
          "indexed": true,
          "internalType": "address",
          "name": "caller",
          "type": "address"
        },
        {
          "indexed": true,
          "internalType": "address",
          "name": "receiver",
          "type": "address"
        },
        {
          "indexed": true,
          "internalType": "address",
          "name": "owner",
          "type": "address"
        },
        {
          "indexed": false,
          "internalType": "uint256",
          "name": "assets",
          "type": "uint256"
        },
        {
          "indexed": false,
          "internalType": "uint256",
          "name": "shares",
          "type": "uint256"
        }
      ],
      "name": "Withdraw",
      "type": "event"
    },
    {
      "inputs": [],
      "name": "_cumulativeIndex_RAY",
      "outputs": [
        {
          "internalType": "uint256",
          "name": "",
          "type": "uint256"
        }
      ],
      "stateMutability": "view",
      "type": "function"
    },
    {
      "inputs": [
        {
          "internalType": "address",
          "name": "_lendAddress",
          "type": "address"
        }
      ],
      "name": "addLendingAddress",
      "outputs": [],
      "stateMutability": "nonpayable",
      "type": "function"
    },
    {
      "inputs": [
        {
          "internalType": "address",
          "name": "_repayAddress",
          "type": "address"
        }
      ],
      "name": "addRepayingAddress",
      "outputs": [],
      "stateMutability": "nonpayable",
      "type": "function"
    },
    {
      "inputs": [
        {
          "internalType": "address",
          "name": "owner",
          "type": "address"
        },
        {
          "internalType": "address",
          "name": "spender",
          "type": "address"
        }
      ],
      "name": "allowance",
      "outputs": [
        {
          "internalType": "uint256",
          "name": "",
          "type": "uint256"
        }
      ],
      "stateMutability": "view",
      "type": "function"
    },
    {
      "inputs": [
        {
          "internalType": "address",
          "name": "spender",
          "type": "address"
        },
        {
          "internalType": "uint256",
          "name": "amount",
          "type": "uint256"
        }
      ],
      "name": "approve",
      "outputs": [
        {
          "internalType": "bool",
          "name": "",
          "type": "bool"
        }
      ],
      "stateMutability": "nonpayable",
      "type": "function"
    },
    {
      "inputs": [],
      "name": "asset",
      "outputs": [
        {
          "internalType": "address",
          "name": "",
          "type": "address"
        }
      ],
      "stateMutability": "view",
      "type": "function"
    },
    {
      "inputs": [
        {
          "internalType": "address",
          "name": "account",
          "type": "address"
        }
      ],
      "name": "balanceOf",
      "outputs": [
        {
          "internalType": "uint256",
          "name": "",
          "type": "uint256"
        }
      ],
      "stateMutability": "view",
      "type": "function"
    },
    {
      "inputs": [
        {
          "internalType": "address",
          "name": "borrower",
          "type": "address"
        },
        {
          "internalType": "uint256",
          "name": "amount",
          "type": "uint256"
        }
      ],
      "name": "borrow",
      "outputs": [],
      "stateMutability": "nonpayable",
      "type": "function"
    },
    {
      "inputs": [],
      "name": "borrowAPY_RAY",
      "outputs": [
        {
          "internalType": "uint256",
          "name": "",
          "type": "uint256"
        }
      ],
      "stateMutability": "view",
      "type": "function"
    },
    {
      "inputs": [],
      "name": "calcLinearCumulative_RAY",
      "outputs": [
        {
          "internalType": "uint256",
          "name": "",
          "type": "uint256"
        }
      ],
      "stateMutability": "view",
      "type": "function"
    },
    {
      "inputs": [
        {
          "internalType": "uint256",
          "name": "cumulativeIndex_RAY",
          "type": "uint256"
        },
        {
          "internalType": "uint256",
          "name": "currentBorrowRate_RAY",
          "type": "uint256"
        },
        {
          "internalType": "uint256",
          "name": "timeDifference",
          "type": "uint256"
        }
      ],
      "name": "calcLinearIndex_RAY",
      "outputs": [
        {
          "internalType": "uint256",
          "name": "",
          "type": "uint256"
        }
      ],
      "stateMutability": "pure",
      "type": "function"
    },
    {
      "inputs": [
        {
          "internalType": "uint256",
          "name": "shares",
          "type": "uint256"
        }
      ],
      "name": "convertToAssets",
      "outputs": [
        {
          "internalType": "uint256",
          "name": "assets",
          "type": "uint256"
        }
      ],
      "stateMutability": "view",
      "type": "function"
    },
    {
      "inputs": [
        {
          "internalType": "uint256",
          "name": "assets",
          "type": "uint256"
        }
      ],
      "name": "convertToShares",
      "outputs": [
        {
          "internalType": "uint256",
          "name": "shares",
          "type": "uint256"
        }
      ],
      "stateMutability": "view",
      "type": "function"
    },
    {
      "inputs": [],
      "name": "decimals",
      "outputs": [
        {
          "internalType": "uint8",
          "name": "",
          "type": "uint8"
        }
      ],
      "stateMutability": "view",
      "type": "function"
    },
    {
      "inputs": [
        {
          "internalType": "address",
          "name": "spender",
          "type": "address"
        },
        {
          "internalType": "uint256",
          "name": "subtractedValue",
          "type": "uint256"
        }
      ],
      "name": "decreaseAllowance",
      "outputs": [
        {
          "internalType": "bool",
          "name": "",
          "type": "bool"
        }
      ],
      "stateMutability": "nonpayable",
      "type": "function"
    },
    {
      "inputs": [
        {
          "internalType": "uint256",
          "name": "assets",
          "type": "uint256"
        },
        {
          "internalType": "address",
          "name": "receiver",
          "type": "address"
        }
      ],
      "name": "deposit",
      "outputs": [
        {
          "internalType": "uint256",
          "name": "",
          "type": "uint256"
        }
      ],
      "stateMutability": "nonpayable",
      "type": "function"
    },
    {
      "inputs": [],
      "name": "expectedLiquidity",
      "outputs": [
        {
          "internalType": "uint256",
          "name": "",
          "type": "uint256"
        }
      ],
      "stateMutability": "view",
      "type": "function"
    },
    {
      "inputs": [],
      "name": "getInterestRateModel",
      "outputs": [
        {
          "internalType": "address",
          "name": "",
          "type": "address"
        }
      ],
      "stateMutability": "view",
      "type": "function"
    },
    {
      "inputs": [],
      "name": "getShareRate_Ray",
      "outputs": [
        {
          "internalType": "uint256",
          "name": "",
          "type": "uint256"
        }
      ],
      "stateMutability": "view",
      "type": "function"
    },
    {
      "inputs": [
        {
          "internalType": "address",
          "name": "spender",
          "type": "address"
        },
        {
          "internalType": "uint256",
          "name": "addedValue",
          "type": "uint256"
        }
      ],
      "name": "increaseAllowance",
      "outputs": [
        {
          "internalType": "bool",
          "name": "",
          "type": "bool"
        }
      ],
      "stateMutability": "nonpayable",
      "type": "function"
    },
    {
      "inputs": [
        {
          "internalType": "address",
          "name": "",
          "type": "address"
        }
      ],
      "name": "lendingAllowed",
      "outputs": [
        {
          "internalType": "bool",
          "name": "",
          "type": "bool"
        }
      ],
      "stateMutability": "view",
      "type": "function"
    },
    {
      "inputs": [
        {
          "internalType": "address",
          "name": "",
          "type": "address"
        }
      ],
      "name": "maxDeposit",
      "outputs": [
        {
          "internalType": "uint256",
          "name": "",
          "type": "uint256"
        }
      ],
      "stateMutability": "view",
      "type": "function"
    },
    {
      "inputs": [
        {
          "internalType": "address",
          "name": "",
          "type": "address"
        }
      ],
      "name": "maxMint",
      "outputs": [
        {
          "internalType": "uint256",
          "name": "",
          "type": "uint256"
        }
      ],
      "stateMutability": "view",
      "type": "function"
    },
    {
      "inputs": [
        {
          "internalType": "address",
          "name": "owner",
          "type": "address"
        }
      ],
      "name": "maxRedeem",
      "outputs": [
        {
          "internalType": "uint256",
          "name": "",
          "type": "uint256"
        }
      ],
      "stateMutability": "view",
      "type": "function"
    },
    {
      "inputs": [
        {
          "internalType": "address",
          "name": "owner",
          "type": "address"
        }
      ],
      "name": "maxWithdraw",
      "outputs": [
        {
          "internalType": "uint256",
          "name": "",
          "type": "uint256"
        }
      ],
      "stateMutability": "view",
      "type": "function"
    },
    {
      "inputs": [
        {
          "internalType": "uint256",
          "name": "shares",
          "type": "uint256"
        },
        {
          "internalType": "address",
          "name": "receiver",
          "type": "address"
        }
      ],
      "name": "mint",
      "outputs": [
        {
          "internalType": "uint256",
          "name": "",
          "type": "uint256"
        }
      ],
      "stateMutability": "nonpayable",
      "type": "function"
    },
    {
      "inputs": [],
      "name": "name",
      "outputs": [
        {
          "internalType": "string",
          "name": "",
          "type": "string"
        }
      ],
      "stateMutability": "view",
      "type": "function"
    },
    {
      "inputs": [
        {
          "internalType": "uint256",
          "name": "assets",
          "type": "uint256"
        }
      ],
      "name": "previewDeposit",
      "outputs": [
        {
          "internalType": "uint256",
          "name": "",
          "type": "uint256"
        }
      ],
      "stateMutability": "view",
      "type": "function"
    },
    {
      "inputs": [
        {
          "internalType": "uint256",
          "name": "shares",
          "type": "uint256"
        }
      ],
      "name": "previewMint",
      "outputs": [
        {
          "internalType": "uint256",
          "name": "",
          "type": "uint256"
        }
      ],
      "stateMutability": "view",
      "type": "function"
    },
    {
      "inputs": [
        {
          "internalType": "uint256",
          "name": "shares",
          "type": "uint256"
        }
      ],
      "name": "previewRedeem",
      "outputs": [
        {
          "internalType": "uint256",
          "name": "",
          "type": "uint256"
        }
      ],
      "stateMutability": "view",
      "type": "function"
    },
    {
      "inputs": [
        {
          "internalType": "uint256",
          "name": "assets",
          "type": "uint256"
        }
      ],
      "name": "previewWithdraw",
      "outputs": [
        {
          "internalType": "uint256",
          "name": "",
          "type": "uint256"
        }
      ],
      "stateMutability": "view",
      "type": "function"
    },
    {
      "inputs": [
        {
          "internalType": "uint256",
          "name": "shares",
          "type": "uint256"
        },
        {
          "internalType": "address",
          "name": "receiver",
          "type": "address"
        },
        {
          "internalType": "address",
          "name": "owner",
          "type": "address"
        }
      ],
      "name": "redeem",
      "outputs": [
        {
          "internalType": "uint256",
          "name": "",
          "type": "uint256"
        }
      ],
      "stateMutability": "nonpayable",
      "type": "function"
    },
    {
      "inputs": [
        {
          "internalType": "address",
          "name": "borrower",
          "type": "address"
        },
        {
          "internalType": "uint256",
          "name": "borrowedAmount",
          "type": "uint256"
        },
        {
          "internalType": "uint256",
          "name": "interest",
          "type": "uint256"
        }
      ],
      "name": "repay",
      "outputs": [],
      "stateMutability": "nonpayable",
      "type": "function"
    },
    {
      "inputs": [
        {
          "internalType": "address",
          "name": "",
          "type": "address"
        }
      ],
      "name": "repayingAllowed",
      "outputs": [
        {
          "internalType": "bool",
          "name": "",
          "type": "bool"
        }
      ],
      "stateMutability": "view",
      "type": "function"
    },
    {
      "inputs": [],
      "name": "symbol",
      "outputs": [
        {
          "internalType": "string",
          "name": "",
          "type": "string"
        }
      ],
      "stateMutability": "view",
      "type": "function"
    },
    {
      "inputs": [],
      "name": "totalAssets",
      "outputs": [
        {
          "internalType": "uint256",
          "name": "",
          "type": "uint256"
        }
      ],
      "stateMutability": "view",
      "type": "function"
    },
    {
      "inputs": [],
      "name": "totalSupply",
      "outputs": [
        {
          "internalType": "uint256",
          "name": "",
          "type": "uint256"
        }
      ],
      "stateMutability": "view",
      "type": "function"
    },
    {
      "inputs": [
        {
          "internalType": "address",
          "name": "to",
          "type": "address"
        },
        {
          "internalType": "uint256",
          "name": "amount",
          "type": "uint256"
        }
      ],
      "name": "transfer",
      "outputs": [
        {
          "internalType": "bool",
          "name": "",
          "type": "bool"
        }
      ],
      "stateMutability": "nonpayable",
      "type": "function"
    },
    {
      "inputs": [
        {
          "internalType": "address",
          "name": "from",
          "type": "address"
        },
        {
          "internalType": "address",
          "name": "to",
          "type": "address"
        },
        {
          "internalType": "uint256",
          "name": "amount",
          "type": "uint256"
        }
      ],
      "name": "transferFrom",
      "outputs": [
        {
          "internalType": "bool",
          "name": "",
          "type": "bool"
        }
      ],
      "stateMutability": "nonpayable",
      "type": "function"
    },
    {
      "inputs": [
        {
          "internalType": "uint256",
          "name": "assets",
          "type": "uint256"
        },
        {
          "internalType": "address",
          "name": "receiver",
          "type": "address"
        },
        {
          "internalType": "address",
          "name": "owner",
          "type": "address"
        }
      ],
      "name": "withdraw",
      "outputs": [
        {
          "internalType": "uint256",
          "name": "",
          "type": "uint256"
        }
      ],
      "stateMutability": "nonpayable",
      "type": "function"
    }
  ],
  "bytecode": {
    "object": "0x60a06040523480156200001157600080fd5b5060405162004923380380620049238339818101604052810190620000379190620008c2565b83838381600390816200004b919062000bbd565b5080600490816200005d919062000bbd565b5050508073ffffffffffffffffffffffffffffffffffffffff1660808173ffffffffffffffffffffffffffffffffffffffff168152505050600073ffffffffffffffffffffffffffffffffffffffff168473ffffffffffffffffffffffffffffffffffffffff1614158015620001005750600073ffffffffffffffffffffffffffffffffffffffff168173ffffffffffffffffffffffffffffffffffffffff1614155b6040518060400160405280600281526020017f5a30000000000000000000000000000000000000000000000000000000000000815250906200017a576040517f08c379a000000000000000000000000000000000000000000000000000000000815260040162000171919062000cf6565b60405180910390fd5b506b033b2e3c9fd0803ce8000000600a819055506200019f81620001a960201b60201c565b5050505062000f40565b600073ffffffffffffffffffffffffffffffffffffffff168173ffffffffffffffffffffffffffffffffffffffff1614156040518060400160405280600281526020017f5a300000000000000000000000000000000000000000000000000000000000008152509062000254576040517f08c379a00000000000000000000000000000000000000000000000000000000081526004016200024b919062000cf6565b60405180910390fd5b5080600660006101000a81548173ffffffffffffffffffffffffffffffffffffffff021916908373ffffffffffffffffffffffffffffffffffffffff160217905550620002a86000620002ee60201b60201c565b8073ffffffffffffffffffffffffffffffffffffffff167f371881eae32ec133f4b803567276bcf1009d4d4bb8aa6684fcec05b2318b970a60405160405180910390a250565b80620002ff620003eb60201b60201c565b6200030b919062000d49565b600c81905550620003216200046460201b60201c565b600a81905550600660009054906101000a900473ffffffffffffffffffffffffffffffffffffffff1673ffffffffffffffffffffffffffffffffffffffff166342568d44600c54620003786200049660201b60201c565b6040518363ffffffff1660e01b81526004016200039792919062000d95565b602060405180830381865afa158015620003b5573d6000803e3d6000fd5b505050506040513d601f19601f82011682018060405250810190620003db919062000df3565b600b8190555042600d8190555050565b600080600d5442620003fe919062000d49565b905060006301e133806b033b2e3c9fd0803ce800000083600b5460055462000427919062000e25565b62000433919062000e25565b6200043f919062000e9f565b6200044b919062000e9f565b905080600c546200045d919062000ed7565b9250505090565b600080600d544262000477919062000d49565b905062000490600a54600b54836200051e60201b60201c565b91505090565b600060805173ffffffffffffffffffffffffffffffffffffffff166370a08231306040518263ffffffff1660e01b8152600401620004d5919062000f23565b602060405180830381865afa158015620004f3573d6000803e3d6000fd5b505050506040513d601f19601f8201168201806040525081019062000519919062000df3565b905090565b6000806301e13380838562000534919062000e25565b62000540919062000e9f565b6b033b2e3c9fd0803ce800000062000559919062000ed7565b90506200057581866200057f60201b620015ea1790919060201c565b9150509392505050565b600080831480620005905750600082145b15620005a05760009050620006c4565b8160026b033b2e3c9fd0803ce8000000620005bc919062000e9f565b7fffffffffffffffffffffffffffffffffffffffffffffffffffffffffffffffff620005e9919062000d49565b620005f5919062000e9f565b8311156040518060400160405280600281526020017f4d310000000000000000000000000000000000000000000000000000000000008152509062000672576040517f08c379a000000000000000000000000000000000000000000000000000000000815260040162000669919062000cf6565b60405180910390fd5b506b033b2e3c9fd0803ce800000060026b033b2e3c9fd0803ce80000006200069b919062000e9f565b8385620006a9919062000e25565b620006b5919062000ed7565b620006c1919062000e9f565b90505b92915050565b6000604051905090565b600080fd5b600080fd5b600073ffffffffffffffffffffffffffffffffffffffff82169050919050565b60006200070b82620006de565b9050919050565b6200071d81620006fe565b81146200072957600080fd5b50565b6000815190506200073d8162000712565b92915050565b600080fd5b600080fd5b6000601f19601f8301169050919050565b7f4e487b7100000000000000000000000000000000000000000000000000000000600052604160045260246000fd5b62000798826200074d565b810181811067ffffffffffffffff82111715620007ba57620007b96200075e565b5b80604052505050565b6000620007cf620006ca565b9050620007dd82826200078d565b919050565b600067ffffffffffffffff8211156200080057620007ff6200075e565b5b6200080b826200074d565b9050602081019050919050565b60005b83811015620008385780820151818401526020810190506200081b565b60008484015250505050565b60006200085b6200085584620007e2565b620007c3565b9050828152602081018484840111156200087a576200087962000748565b5b6200088784828562000818565b509392505050565b600082601f830112620008a757620008a662000743565b5b8151620008b984826020860162000844565b91505092915050565b60008060008060808587031215620008df57620008de620006d4565b5b6000620008ef878288016200072c565b945050602085015167ffffffffffffffff811115620009135762000912620006d9565b5b62000921878288016200088f565b935050604085015167ffffffffffffffff811115620009455762000944620006d9565b5b62000953878288016200088f565b925050606062000966878288016200072c565b91505092959194509250565b600081519050919050565b7f4e487b7100000000000000000000000000000000000000000000000000000000600052602260045260246000fd5b60006002820490506001821680620009c557607f821691505b602082108103620009db57620009da6200097d565b5b50919050565b60008190508160005260206000209050919050565b60006020601f8301049050919050565b600082821b905092915050565b60006008830262000a457fffffffffffffffffffffffffffffffffffffffffffffffffffffffffffffffff8262000a06565b62000a51868362000a06565b95508019841693508086168417925050509392505050565b6000819050919050565b6000819050919050565b600062000a9e62000a9862000a928462000a69565b62000a73565b62000a69565b9050919050565b6000819050919050565b62000aba8362000a7d565b62000ad262000ac98262000aa5565b84845462000a13565b825550505050565b600090565b62000ae962000ada565b62000af681848462000aaf565b505050565b5b8181101562000b1e5762000b1260008262000adf565b60018101905062000afc565b5050565b601f82111562000b6d5762000b3781620009e1565b62000b4284620009f6565b8101602085101562000b52578190505b62000b6a62000b6185620009f6565b83018262000afb565b50505b505050565b600082821c905092915050565b600062000b926000198460080262000b72565b1980831691505092915050565b600062000bad838362000b7f565b9150826002028217905092915050565b62000bc88262000972565b67ffffffffffffffff81111562000be45762000be36200075e565b5b62000bf08254620009ac565b62000bfd82828562000b22565b600060209050601f83116001811462000c35576000841562000c20578287015190505b62000c2c858262000b9f565b86555062000c9c565b601f19841662000c4586620009e1565b60005b8281101562000c6f5784890151825560018201915060208501945060208101905062000c48565b8683101562000c8f578489015162000c8b601f89168262000b7f565b8355505b6001600288020188555050505b505050505050565b600082825260208201905092915050565b600062000cc28262000972565b62000cce818562000ca4565b935062000ce081856020860162000818565b62000ceb816200074d565b840191505092915050565b6000602082019050818103600083015262000d12818462000cb5565b905092915050565b7f4e487b7100000000000000000000000000000000000000000000000000000000600052601160045260246000fd5b600062000d568262000a69565b915062000d638362000a69565b925082820390508181111562000d7e5762000d7d62000d1a565b5b92915050565b62000d8f8162000a69565b82525050565b600060408201905062000dac600083018562000d84565b62000dbb602083018462000d84565b9392505050565b62000dcd8162000a69565b811462000dd957600080fd5b50565b60008151905062000ded8162000dc2565b92915050565b60006020828403121562000e0c5762000e0b620006d4565b5b600062000e1c8482850162000ddc565b91505092915050565b600062000e328262000a69565b915062000e3f8362000a69565b925082820262000e4f8162000a69565b9150828204841483151762000e695762000e6862000d1a565b5b5092915050565b7f4e487b7100000000000000000000000000000000000000000000000000000000600052601260045260246000fd5b600062000eac8262000a69565b915062000eb98362000a69565b92508262000ecc5762000ecb62000e70565b5b828204905092915050565b600062000ee48262000a69565b915062000ef18362000a69565b925082820190508082111562000f0c5762000f0b62000d1a565b5b92915050565b62000f1d81620006fe565b82525050565b600060208201905062000f3a600083018462000f12565b92915050565b6080516139b262000f716000396000818161090301528181610b9a01528181611d970152611f0c01526139b26000f3fe608060405234801561001057600080fd5b50600436106102475760003560e01c806370a082311161013b578063c63d75b6116100b8578063dc36f02a1161007c578063dc36f02a146107da578063dceac9c81461080a578063dd62ed3e14610826578063ef8b30f714610856578063fe14112d1461088657610247565b8063c63d75b6146106fc578063c6e6f5921461072c578063ce96cb771461075c578063d905777e1461078c578063dbcb313b146107bc57610247565b8063a457c2d7116100ff578063a457c2d71461060c578063a9059cbb1461063c578063b3d7f6b91461066c578063b460af941461069c578063ba087652146106cc57610247565b806370a082311461054257806384aafe52146105725780638cd2e0c7146105a257806394bf804d146105be57806395d89b41146105ee57610247565b8063313ce567116101c957806345d31f9d1161018d57806345d31f9d1461048a5780634b8a3529146104a85780634cdad506146104c457806360b722f3146104f45780636e553f651461051257610247565b8063313ce567146103be57806331d8bc27146103dc57806338d52e0f1461040c578063395093511461042a578063402d267d1461045a57610247565b80630a28a477116102105780630a28a477146103045780630fce70fb1461033457806318160ddd14610352578063222632f11461037057806323b872dd1461038e57610247565b8062e970991461024c57806301e1d1141461026857806306fdde031461028657806307a2d13a146102a4578063095ea7b3146102d4575b600080fd5b610266600480360381019061026191906127ad565b6108a4565b005b6102706108ff565b60405161027d91906127f3565b60405180910390f35b61028e6109a0565b60405161029b919061289e565b60405180910390f35b6102be60048036038101906102b991906128ec565b610a32565b6040516102cb91906127f3565b60405180910390f35b6102ee60048036038101906102e99190612919565b610a46565b6040516102fb9190612974565b60405180910390f35b61031e600480360381019061031991906128ec565b610a69565b60405161032b91906127f3565b60405180910390f35b61033c610a7d565b60405161034991906127f3565b60405180910390f35b61035a610aa5565b60405161036791906127f3565b60405180910390f35b610378610aaf565b60405161038591906127f3565b60405180910390f35b6103a860048036038101906103a3919061298f565b610b0a565b6040516103b59190612974565b60405180910390f35b6103c6610b39565b6040516103d391906129fe565b60405180910390f35b6103f660048036038101906103f19190612a19565b610b42565b60405161040391906127f3565b60405180910390f35b610414610b96565b6040516104219190612a7b565b60405180910390f35b610444600480360381019061043f9190612919565b610bbe565b6040516104519190612974565b60405180910390f35b610474600480360381019061046f91906127ad565b610bf5565b60405161048191906127f3565b60405180910390f35b610492610c33565b60405161049f91906127f3565b60405180910390f35b6104c260048036038101906104bd9190612919565b610c39565b005b6104de60048036038101906104d991906128ec565b610e45565b6040516104eb91906127f3565b60405180910390f35b6104fc610e59565b6040516105099190612a7b565b60405180910390f35b61052c60048036038101906105279190612a96565b610e83565b60405161053991906127f3565b60405180910390f35b61055c600480360381019061055791906127ad565b610f1f565b60405161056991906127f3565b60405180910390f35b61058c600480360381019061058791906127ad565b610f67565b6040516105999190612974565b60405180910390f35b6105bc60048036038101906105b79190612ad6565b610f87565b005b6105d860048036038101906105d39190612a96565b6110eb565b6040516105e591906127f3565b60405180910390f35b6105f6611187565b604051610603919061289e565b60405180910390f35b61062660048036038101906106219190612919565b611219565b6040516106339190612974565b60405180910390f35b61065660048036038101906106519190612919565b611290565b6040516106639190612974565b60405180910390f35b610686600480360381019061068191906128ec565b6112b3565b60405161069391906127f3565b60405180910390f35b6106b660048036038101906106b19190612b29565b6112c7565b6040516106c391906127f3565b60405180910390f35b6106e660048036038101906106e19190612b29565b61135e565b6040516106f391906127f3565b60405180910390f35b610716600480360381019061071191906127ad565b6113f5565b60405161072391906127f3565b60405180910390f35b610746600480360381019061074191906128ec565b61141f565b60405161075391906127f3565b60405180910390f35b610776600480360381019061077191906127ad565b611433565b60405161078391906127f3565b60405180910390f35b6107a660048036038101906107a191906127ad565b61144f565b6040516107b391906127f3565b60405180910390f35b6107c4611461565b6040516107d191906127f3565b60405180910390f35b6107f460048036038101906107ef91906127ad565b611467565b6040516108019190612974565b60405180910390f35b610824600480360381019061081f91906127ad565b611487565b005b610840600480360381019061083b9190612b7c565b6114e2565b60405161084d91906127f3565b60405180910390f35b610870600480360381019061086b91906128ec565b611569565b60405161087d91906127f3565b60405180910390f35b61088e61157d565b60405161089b91906127f3565b60405180910390f35b6001600760008373ffffffffffffffffffffffffffffffffffffffff1673ffffffffffffffffffffffffffffffffffffffff16815260200190815260200160002060006101000a81548160ff02191690831515021790555050565b60007f000000000000000000000000000000000000000000000000000000000000000073ffffffffffffffffffffffffffffffffffffffff166370a08231306040518263ffffffff1660e01b815260040161095a9190612a7b565b602060405180830381865afa158015610977573d6000803e3d6000fd5b505050506040513d601f19601f8201168201806040525081019061099b9190612bd1565b905090565b6060600380546109af90612c2d565b80601f01602080910402602001604051908101604052809291908181526020018280546109db90612c2d565b8015610a285780601f106109fd57610100808354040283529160200191610a28565b820191906000526020600020905b815481529060010190602001808311610a0b57829003601f168201915b5050505050905090565b6000610a3f826000611721565b9050919050565b600080610a51611755565b9050610a5e81858561175d565b600191505092915050565b6000610a76826001611926565b9050919050565b600080600d5442610a8e9190612c8d565b9050610a9f600a54600b5483610b42565b91505090565b6000600254905090565b600080610aba610aa5565b905060008103610ad9576b033b2e3c9fd0803ce8000000915050610b07565b806b033b2e3c9fd0803ce8000000610aef61157d565b610af99190612cc1565b610b039190612d32565b9150505b90565b600080610b15611755565b9050610b2285828561195a565b610b2d8585856119e6565b60019150509392505050565b60006012905090565b6000806301e133808385610b569190612cc1565b610b609190612d32565b6b033b2e3c9fd0803ce8000000610b779190612d63565b9050610b8c81866115ea90919063ffffffff16565b9150509392505050565b60007f0000000000000000000000000000000000000000000000000000000000000000905090565b600080610bc9611755565b9050610bea818585610bdb85896114e2565b610be59190612d63565b61175d565b600191505092915050565b6000610bff611c65565b610c0a576000610c2c565b7fffffffffffffffffffffffffffffffffffffffffffffffffffffffffffffffff5b9050919050565b600b5481565b60011515600760003373ffffffffffffffffffffffffffffffffffffffff1673ffffffffffffffffffffffffffffffffffffffff16815260200190815260200160002060009054906101000a900460ff16151514610ccc576040517f08c379a0000000000000000000000000000000000000000000000000000000008152600401610cc390612de3565b60405180910390fd5b80610cd56108ff565b1015610d16576040517f08c379a0000000000000000000000000000000000000000000000000000000008152600401610d0d90612e4f565b60405180910390fd5b610d2b81600554611c8890919063ffffffff16565b600581905550610d4681600c54611c9e90919063ffffffff16565b600c81905550610d566000611cb4565b610d5e610b96565b73ffffffffffffffffffffffffffffffffffffffff1663a9059cbb83836040518363ffffffff1660e01b8152600401610d98929190612e6f565b6020604051808303816000875af1158015610db7573d6000803e3d6000fd5b505050506040513d601f19601f82011682018060405250810190610ddb9190612ec4565b508173ffffffffffffffffffffffffffffffffffffffff163373ffffffffffffffffffffffffffffffffffffffff167f312a5e5e1079f5dda4e95dbbd0b908b291fd5b992ef22073643ab691572c5b5283604051610e3991906127f3565b60405180910390a35050565b6000610e52826000611721565b9050919050565b6000600660009054906101000a900473ffffffffffffffffffffffffffffffffffffffff16905090565b6000610e8e82610bf5565b831115610ed0576040517f08c379a0000000000000000000000000000000000000000000000000000000008152600401610ec790612f3d565b60405180910390fd5b6000610edb84611569565b9050610ef0610ee8611755565b848684611d92565b610f0584600c54611c8890919063ffffffff16565b600c81905550610f156000611cb4565b8091505092915050565b60008060008373ffffffffffffffffffffffffffffffffffffffff1673ffffffffffffffffffffffffffffffffffffffff168152602001908152602001600020549050919050565b60086020528060005260406000206000915054906101000a900460ff1681565b60011515600860003373ffffffffffffffffffffffffffffffffffffffff1673ffffffffffffffffffffffffffffffffffffffff16815260200190815260200160002060009054906101000a900460ff1615151461101a576040517f08c379a000000000000000000000000000000000000000000000000000000000815260040161101190612fa9565b60405180910390fd5b61102f82600554611c9e90919063ffffffff16565b60058190555061105c8161104e84600c54611c8890919063ffffffff16565b611c8890919063ffffffff16565b600c8190555061108761106d610b96565b84306110828587611c8890919063ffffffff16565b611e35565b6110916000611cb4565b3373ffffffffffffffffffffffffffffffffffffffff167fc8453d1b0c8f6e547923ef0f16bf4a0c29ba241bc57aee96bfe36584a99e509583836000806040516110de949392919061300e565b60405180910390a2505050565b60006110f6826113f5565b831115611138576040517f08c379a000000000000000000000000000000000000000000000000000000000815260040161112f9061309f565b60405180910390fd5b6000611143846112b3565b9050611158611150611755565b848387611d92565b61116d81600c54611c8890919063ffffffff16565b600c8190555061117d6000611cb4565b8091505092915050565b60606004805461119690612c2d565b80601f01602080910402602001604051908101604052809291908181526020018280546111c290612c2d565b801561120f5780601f106111e45761010080835404028352916020019161120f565b820191906000526020600020905b8154815290600101906020018083116111f257829003601f168201915b5050505050905090565b600080611224611755565b9050600061123282866114e2565b905083811015611277576040517f08c379a000000000000000000000000000000000000000000000000000000000815260040161126e90613131565b60405180910390fd5b611284828686840361175d565b60019250505092915050565b60008061129b611755565b90506112a88185856119e6565b600191505092915050565b60006112c0826001611721565b9050919050565b60006112d282611433565b841115611314576040517f08c379a000000000000000000000000000000000000000000000000000000000815260040161130b9061319d565b60405180910390fd5b600061131f85610a69565b905061133561132c611755565b85858885611ebe565b84600c546113439190612c8d565b600c819055506113536000611cb4565b809150509392505050565b60006113698261144f565b8411156113ab576040517f08c379a00000000000000000000000000000000000000000000000000000000081526004016113a290613209565b60405180910390fd5b60006113b685610e45565b90506113cc6113c3611755565b85858489611ebe565b80600c546113da9190612c8d565b600c819055506113ea6000611cb4565b809150509392505050565b60007fffffffffffffffffffffffffffffffffffffffffffffffffffffffffffffffff9050919050565b600061142c826000611926565b9050919050565b600061144861144183610f1f565b6000611721565b9050919050565b600061145a82610f1f565b9050919050565b600a5481565b60076020528060005260406000206000915054906101000a900460ff1681565b6001600860008373ffffffffffffffffffffffffffffffffffffffff1673ffffffffffffffffffffffffffffffffffffffff16815260200190815260200160002060006101000a81548160ff02191690831515021790555050565b6000600160008473ffffffffffffffffffffffffffffffffffffffff1673ffffffffffffffffffffffffffffffffffffffff16815260200190815260200160002060008373ffffffffffffffffffffffffffffffffffffffff1673ffffffffffffffffffffffffffffffffffffffff16815260200190815260200160002054905092915050565b6000611576826000611926565b9050919050565b600080600d544261158e9190612c8d565b905060006301e133806b033b2e3c9fd0803ce800000083600b546005546115b59190612cc1565b6115bf9190612cc1565b6115c99190612d32565b6115d39190612d32565b905080600c546115e39190612d63565b9250505090565b6000808314806115fa5750600082145b15611608576000905061171b565b8160026b033b2e3c9fd0803ce80000006116229190612d32565b7fffffffffffffffffffffffffffffffffffffffffffffffffffffffffffffffff61164d9190612c8d565b6116579190612d32565b8311156040518060400160405280600281526020017f4d31000000000000000000000000000000000000000000000000000000000000815250906116d1576040517f08c379a00000000000000000000000000000000000000000000000000000000081526004016116c8919061289e565b60405180910390fd5b506b033b2e3c9fd0803ce800000060026b033b2e3c9fd0803ce80000006116f89190612d32565b83856117049190612cc1565b61170e9190612d63565b6117189190612d32565b90505b92915050565b600061174d61172e610aaf565b6b033b2e3c9fd0803ce80000008486611fb7909392919063ffffffff16565b905092915050565b600033905090565b600073ffffffffffffffffffffffffffffffffffffffff168373ffffffffffffffffffffffffffffffffffffffff16036117cc576040517f08c379a00000000000000000000000000000000000000000000000000000000081526004016117c39061329b565b60405180910390fd5b600073ffffffffffffffffffffffffffffffffffffffff168273ffffffffffffffffffffffffffffffffffffffff160361183b576040517f08c379a00000000000000000000000000000000000000000000000000000000081526004016118329061332d565b60405180910390fd5b80600160008573ffffffffffffffffffffffffffffffffffffffff1673ffffffffffffffffffffffffffffffffffffffff16815260200190815260200160002060008473ffffffffffffffffffffffffffffffffffffffff1673ffffffffffffffffffffffffffffffffffffffff168152602001908152602001600020819055508173ffffffffffffffffffffffffffffffffffffffff168373ffffffffffffffffffffffffffffffffffffffff167f8c5be1e5ebec7d5bd14f71427d1e84f3dd0314c0f7b2291e5b200ac8c7c3b9258360405161191991906127f3565b60405180910390a3505050565b60006119526b033b2e3c9fd0803ce8000000611940610aaf565b8486611fb7909392919063ffffffff16565b905092915050565b600061196684846114e2565b90507fffffffffffffffffffffffffffffffffffffffffffffffffffffffffffffffff81146119e057818110156119d2576040517f08c379a00000000000000000000000000000000000000000000000000000000081526004016119c990613399565b60405180910390fd5b6119df848484840361175d565b5b50505050565b600073ffffffffffffffffffffffffffffffffffffffff168373ffffffffffffffffffffffffffffffffffffffff1603611a55576040517f08c379a0000000000000000000000000000000000000000000000000000000008152600401611a4c9061342b565b60405180910390fd5b600073ffffffffffffffffffffffffffffffffffffffff168273ffffffffffffffffffffffffffffffffffffffff1603611ac4576040517f08c379a0000000000000000000000000000000000000000000000000000000008152600401611abb906134bd565b60405180910390fd5b611acf83838361202d565b60008060008573ffffffffffffffffffffffffffffffffffffffff1673ffffffffffffffffffffffffffffffffffffffff16815260200190815260200160002054905081811015611b55576040517f08c379a0000000000000000000000000000000000000000000000000000000008152600401611b4c9061354f565b60405180910390fd5b8181036000808673ffffffffffffffffffffffffffffffffffffffff1673ffffffffffffffffffffffffffffffffffffffff16815260200190815260200160002081905550816000808573ffffffffffffffffffffffffffffffffffffffff1673ffffffffffffffffffffffffffffffffffffffff1681526020019081526020016000206000828254611be89190612d63565b925050819055508273ffffffffffffffffffffffffffffffffffffffff168473ffffffffffffffffffffffffffffffffffffffff167fddf252ad1be2c89b69c2b068fc378daa952ba7f163c4a11628f55a4df523b3ef84604051611c4c91906127f3565b60405180910390a3611c5f848484612032565b50505050565b600080611c706108ff565b1180611c8357506000611c81610aa5565b145b905090565b60008183611c969190612d63565b905092915050565b60008183611cac9190612c8d565b905092915050565b80611cbd61157d565b611cc79190612c8d565b600c81905550611cd5610a7d565b600a81905550600660009054906101000a900473ffffffffffffffffffffffffffffffffffffffff1673ffffffffffffffffffffffffffffffffffffffff166342568d44600c54611d246108ff565b6040518363ffffffff1660e01b8152600401611d4192919061356f565b602060405180830381865afa158015611d5e573d6000803e3d6000fd5b505050506040513d601f19601f82011682018060405250810190611d829190612bd1565b600b8190555042600d8190555050565b611dbe7f0000000000000000000000000000000000000000000000000000000000000000853085611e35565b611dc88382612037565b8273ffffffffffffffffffffffffffffffffffffffff168473ffffffffffffffffffffffffffffffffffffffff167fdcbc1c05240f31ff3ad067ef1ee35ce4997762752e3a095284754544f4c709d78484604051611e2792919061356f565b60405180910390a350505050565b611eb8846323b872dd60e01b858585604051602401611e5693929190613598565b604051602081830303815290604052907bffffffffffffffffffffffffffffffffffffffffffffffffffffffff19166020820180517bffffffffffffffffffffffffffffffffffffffffffffffffffffffff8381831617835250505050612196565b50505050565b8273ffffffffffffffffffffffffffffffffffffffff168573ffffffffffffffffffffffffffffffffffffffff1614611efd57611efc83868361195a565b5b611f07838261225d565b611f327f00000000000000000000000000000000000000000000000000000000000000008584612433565b8273ffffffffffffffffffffffffffffffffffffffff168473ffffffffffffffffffffffffffffffffffffffff168673ffffffffffffffffffffffffffffffffffffffff167ffbde797d201c681b91056529119e0b02407c7bb96a4a2c75c01fc9667232c8db8585604051611fa892919061356f565b60405180910390a45050505050565b600080611fc58686866124b9565b905060016002811115611fdb57611fda6135cf565b5b836002811115611fee57611fed6135cf565b5b14801561200c57506000848061200757612006612d03565b5b868809115b156120215760018161201e9190612d63565b90505b80915050949350505050565b505050565b505050565b600073ffffffffffffffffffffffffffffffffffffffff168273ffffffffffffffffffffffffffffffffffffffff16036120a6576040517f08c379a000000000000000000000000000000000000000000000000000000000815260040161209d9061364a565b60405180910390fd5b6120b26000838361202d565b80600260008282546120c49190612d63565b92505081905550806000808473ffffffffffffffffffffffffffffffffffffffff1673ffffffffffffffffffffffffffffffffffffffff16815260200190815260200160002060008282546121199190612d63565b925050819055508173ffffffffffffffffffffffffffffffffffffffff16600073ffffffffffffffffffffffffffffffffffffffff167fddf252ad1be2c89b69c2b068fc378daa952ba7f163c4a11628f55a4df523b3ef8360405161217e91906127f3565b60405180910390a361219260008383612032565b5050565b60006121f8826040518060400160405280602081526020017f5361666545524332303a206c6f772d6c6576656c2063616c6c206661696c65648152508573ffffffffffffffffffffffffffffffffffffffff166125949092919063ffffffff16565b905060008151111561225857808060200190518101906122189190612ec4565b612257576040517f08c379a000000000000000000000000000000000000000000000000000000000815260040161224e906136dc565b60405180910390fd5b5b505050565b600073ffffffffffffffffffffffffffffffffffffffff168273ffffffffffffffffffffffffffffffffffffffff16036122cc576040517f08c379a00000000000000000000000000000000000000000000000000000000081526004016122c39061376e565b60405180910390fd5b6122d88260008361202d565b60008060008473ffffffffffffffffffffffffffffffffffffffff1673ffffffffffffffffffffffffffffffffffffffff1681526020019081526020016000205490508181101561235e576040517f08c379a000000000000000000000000000000000000000000000000000000000815260040161235590613800565b60405180910390fd5b8181036000808573ffffffffffffffffffffffffffffffffffffffff1673ffffffffffffffffffffffffffffffffffffffff1681526020019081526020016000208190555081600260008282546123b59190612c8d565b92505081905550600073ffffffffffffffffffffffffffffffffffffffff168373ffffffffffffffffffffffffffffffffffffffff167fddf252ad1be2c89b69c2b068fc378daa952ba7f163c4a11628f55a4df523b3ef8460405161241a91906127f3565b60405180910390a361242e83600084612032565b505050565b6124b48363a9059cbb60e01b8484604051602401612452929190612e6f565b604051602081830303815290604052907bffffffffffffffffffffffffffffffffffffffffffffffffffffffff19166020820180517bffffffffffffffffffffffffffffffffffffffffffffffffffffffff8381831617835250505050612196565b505050565b60008060008019858709858702925082811083820303915050600081036124f4578382816124ea576124e9612d03565b5b049250505061258d565b80841161250057600080fd5b60008486880990508281118203915080830392506000600186190186169050808604955080840493506001818260000304019050808302841793506000600287600302189050808702600203810290508087026002038102905080870260020381029050808702600203810290508087026002038102905080870260020381029050808502955050505050505b9392505050565b60606125a384846000856125ac565b90509392505050565b6060824710156125f1576040517f08c379a00000000000000000000000000000000000000000000000000000000081526004016125e890613892565b60405180910390fd5b6125fa856126c0565b612639576040517f08c379a0000000000000000000000000000000000000000000000000000000008152600401612630906138fe565b60405180910390fd5b6000808673ffffffffffffffffffffffffffffffffffffffff1685876040516126629190613965565b60006040518083038185875af1925050503d806000811461269f576040519150601f19603f3d011682016040523d82523d6000602084013e6126a4565b606091505b50915091506126b48282866126e3565b92505050949350505050565b6000808273ffffffffffffffffffffffffffffffffffffffff163b119050919050565b606083156126f357829050612743565b6000835111156127065782518084602001fd5b816040517f08c379a000000000000000000000000000000000000000000000000000000000815260040161273a919061289e565b60405180910390fd5b9392505050565b600080fd5b600073ffffffffffffffffffffffffffffffffffffffff82169050919050565b600061277a8261274f565b9050919050565b61278a8161276f565b811461279557600080fd5b50565b6000813590506127a781612781565b92915050565b6000602082840312156127c3576127c261274a565b5b60006127d184828501612798565b91505092915050565b6000819050919050565b6127ed816127da565b82525050565b600060208201905061280860008301846127e4565b92915050565b600081519050919050565b600082825260208201905092915050565b60005b8381101561284857808201518184015260208101905061282d565b60008484015250505050565b6000601f19601f8301169050919050565b60006128708261280e565b61287a8185612819565b935061288a81856020860161282a565b61289381612854565b840191505092915050565b600060208201905081810360008301526128b88184612865565b905092915050565b6128c9816127da565b81146128d457600080fd5b50565b6000813590506128e6816128c0565b92915050565b6000602082840312156129025761290161274a565b5b6000612910848285016128d7565b91505092915050565b600080604083850312156129305761292f61274a565b5b600061293e85828601612798565b925050602061294f858286016128d7565b9150509250929050565b60008115159050919050565b61296e81612959565b82525050565b60006020820190506129896000830184612965565b92915050565b6000806000606084860312156129a8576129a761274a565b5b60006129b686828701612798565b93505060206129c786828701612798565b92505060406129d8868287016128d7565b9150509250925092565b600060ff82169050919050565b6129f8816129e2565b82525050565b6000602082019050612a1360008301846129ef565b92915050565b600080600060608486031215612a3257612a3161274a565b5b6000612a40868287016128d7565b9350506020612a51868287016128d7565b9250506040612a62868287016128d7565b9150509250925092565b612a758161276f565b82525050565b6000602082019050612a906000830184612a6c565b92915050565b60008060408385031215612aad57612aac61274a565b5b6000612abb858286016128d7565b9250506020612acc85828601612798565b9150509250929050565b600080600060608486031215612aef57612aee61274a565b5b6000612afd86828701612798565b9350506020612b0e868287016128d7565b9250506040612b1f868287016128d7565b9150509250925092565b600080600060608486031215612b4257612b4161274a565b5b6000612b50868287016128d7565b9350506020612b6186828701612798565b9250506040612b7286828701612798565b9150509250925092565b60008060408385031215612b9357612b9261274a565b5b6000612ba185828601612798565b9250506020612bb285828601612798565b9150509250929050565b600081519050612bcb816128c0565b92915050565b600060208284031215612be757612be661274a565b5b6000612bf584828501612bbc565b91505092915050565b7f4e487b7100000000000000000000000000000000000000000000000000000000600052602260045260246000fd5b60006002820490506001821680612c4557607f821691505b602082108103612c5857612c57612bfe565b5b50919050565b7f4e487b7100000000000000000000000000000000000000000000000000000000600052601160045260246000fd5b6000612c98826127da565b9150612ca3836127da565b9250828203905081811115612cbb57612cba612c5e565b5b92915050565b6000612ccc826127da565b9150612cd7836127da565b9250828202612ce5816127da565b91508282048414831517612cfc57612cfb612c5e565b5b5092915050565b7f4e487b7100000000000000000000000000000000000000000000000000000000600052601260045260246000fd5b6000612d3d826127da565b9150612d48836127da565b925082612d5857612d57612d03565b5b828204905092915050565b6000612d6e826127da565b9150612d79836127da565b9250828201905080821115612d9157612d90612c5e565b5b92915050565b7f556e617574686f72697a6564204c656e64000000000000000000000000000000600082015250565b6000612dcd601183612819565b9150612dd882612d97565b602082019050919050565b60006020820190508181036000830152612dfc81612dc0565b9050919050565b7f5661756c743a204e6f7420656e6f756768206173736574730000000000000000600082015250565b6000612e39601883612819565b9150612e4482612e03565b602082019050919050565b60006020820190508181036000830152612e6881612e2c565b9050919050565b6000604082019050612e846000830185612a6c565b612e9160208301846127e4565b9392505050565b612ea181612959565b8114612eac57600080fd5b50565b600081519050612ebe81612e98565b92915050565b600060208284031215612eda57612ed961274a565b5b6000612ee884828501612eaf565b91505092915050565b7f455243343632363a206465706f736974206d6f7265207468616e206d61780000600082015250565b6000612f27601e83612819565b9150612f3282612ef1565b602082019050919050565b60006020820190508181036000830152612f5681612f1a565b9050919050565b7f556e617574686f72697a65642052657061790000000000000000000000000000600082015250565b6000612f93601283612819565b9150612f9e82612f5d565b602082019050919050565b60006020820190508181036000830152612fc281612f86565b9050919050565b6000819050919050565b6000819050919050565b6000612ff8612ff3612fee84612fc9565b612fd3565b6127da565b9050919050565b61300881612fdd565b82525050565b600060808201905061302360008301876127e4565b61303060208301866127e4565b61303d6040830185612fff565b61304a6060830184612fff565b95945050505050565b7f455243343632363a206d696e74206d6f7265207468616e206d61780000000000600082015250565b6000613089601b83612819565b915061309482613053565b602082019050919050565b600060208201905081810360008301526130b88161307c565b9050919050565b7f45524332303a2064656372656173656420616c6c6f77616e63652062656c6f7760008201527f207a65726f000000000000000000000000000000000000000000000000000000602082015250565b600061311b602583612819565b9150613126826130bf565b604082019050919050565b6000602082019050818103600083015261314a8161310e565b9050919050565b7f455243343632363a207769746864726177206d6f7265207468616e206d617800600082015250565b6000613187601f83612819565b915061319282613151565b602082019050919050565b600060208201905081810360008301526131b68161317a565b9050919050565b7f455243343632363a2072656465656d206d6f7265207468616e206d6178000000600082015250565b60006131f3601d83612819565b91506131fe826131bd565b602082019050919050565b60006020820190508181036000830152613222816131e6565b9050919050565b7f45524332303a20617070726f76652066726f6d20746865207a65726f2061646460008201527f7265737300000000000000000000000000000000000000000000000000000000602082015250565b6000613285602483612819565b915061329082613229565b604082019050919050565b600060208201905081810360008301526132b481613278565b9050919050565b7f45524332303a20617070726f766520746f20746865207a65726f20616464726560008201527f7373000000000000000000000000000000000000000000000000000000000000602082015250565b6000613317602283612819565b9150613322826132bb565b604082019050919050565b600060208201905081810360008301526133468161330a565b9050919050565b7f45524332303a20696e73756666696369656e7420616c6c6f77616e6365000000600082015250565b6000613383601d83612819565b915061338e8261334d565b602082019050919050565b600060208201905081810360008301526133b281613376565b9050919050565b7f45524332303a207472616e736665722066726f6d20746865207a65726f20616460008201527f6472657373000000000000000000000000000000000000000000000000000000602082015250565b6000613415602583612819565b9150613420826133b9565b604082019050919050565b6000602082019050818103600083015261344481613408565b9050919050565b7f45524332303a207472616e7366657220746f20746865207a65726f206164647260008201527f6573730000000000000000000000000000000000000000000000000000000000602082015250565b60006134a7602383612819565b91506134b28261344b565b604082019050919050565b600060208201905081810360008301526134d68161349a565b9050919050565b7f45524332303a207472616e7366657220616d6f756e742065786365656473206260008201527f616c616e63650000000000000000000000000000000000000000000000000000602082015250565b6000613539602683612819565b9150613544826134dd565b604082019050919050565b600060208201905081810360008301526135688161352c565b9050919050565b600060408201905061358460008301856127e4565b61359160208301846127e4565b9392505050565b60006060820190506135ad6000830186612a6c565b6135ba6020830185612a6c565b6135c760408301846127e4565b949350505050565b7f4e487b7100000000000000000000000000000000000000000000000000000000600052602160045260246000fd5b7f45524332303a206d696e7420746f20746865207a65726f206164647265737300600082015250565b6000613634601f83612819565b915061363f826135fe565b602082019050919050565b6000602082019050818103600083015261366381613627565b9050919050565b7f5361666545524332303a204552433230206f7065726174696f6e20646964206e60008201527f6f74207375636365656400000000000000000000000000000000000000000000602082015250565b60006136c6602a83612819565b91506136d18261366a565b604082019050919050565b600060208201905081810360008301526136f5816136b9565b9050919050565b7f45524332303a206275726e2066726f6d20746865207a65726f2061646472657360008201527f7300000000000000000000000000000000000000000000000000000000000000602082015250565b6000613758602183612819565b9150613763826136fc565b604082019050919050565b600060208201905081810360008301526137878161374b565b9050919050565b7f45524332303a206275726e20616d6f756e7420657863656564732062616c616e60008201527f6365000000000000000000000000000000000000000000000000000000000000602082015250565b60006137ea602283612819565b91506137f58261378e565b604082019050919050565b60006020820190508181036000830152613819816137dd565b9050919050565b7f416464726573733a20696e73756666696369656e742062616c616e636520666f60008201527f722063616c6c0000000000000000000000000000000000000000000000000000602082015250565b600061387c602683612819565b915061388782613820565b604082019050919050565b600060208201905081810360008301526138ab8161386f565b9050919050565b7f416464726573733a2063616c6c20746f206e6f6e2d636f6e7472616374000000600082015250565b60006138e8601d83612819565b91506138f3826138b2565b602082019050919050565b60006020820190508181036000830152613917816138db565b9050919050565b600081519050919050565b600081905092915050565b600061393f8261391e565b6139498185613929565b935061395981856020860161282a565b80840191505092915050565b60006139718284613934565b91508190509291505056fea2646970667358221220de9550c503d685995ca48ac3f957073b9d7a16a3dc12077936fab8cf66bf451364736f6c63430008110033",
    "linkReferences": {}
  },
  "methodIdentifiers": {
    "_cumulativeIndex_RAY()": "dbcb313b",
    "addLendingAddress(address)": "00e97099",
    "addRepayingAddress(address)": "dceac9c8",
    "allowance(address,address)": "dd62ed3e",
    "approve(address,uint256)": "095ea7b3",
    "asset()": "38d52e0f",
    "balanceOf(address)": "70a08231",
    "borrow(address,uint256)": "4b8a3529",
    "borrowAPY_RAY()": "45d31f9d",
    "calcLinearCumulative_RAY()": "0fce70fb",
    "calcLinearIndex_RAY(uint256,uint256,uint256)": "31d8bc27",
    "convertToAssets(uint256)": "07a2d13a",
    "convertToShares(uint256)": "c6e6f592",
    "decimals()": "313ce567",
    "decreaseAllowance(address,uint256)": "a457c2d7",
    "deposit(uint256,address)": "6e553f65",
    "expectedLiquidity()": "fe14112d",
    "getInterestRateModel()": "60b722f3",
    "getShareRate_Ray()": "222632f1",
    "increaseAllowance(address,uint256)": "39509351",
    "lendingAllowed(address)": "dc36f02a",
    "maxDeposit(address)": "402d267d",
    "maxMint(address)": "c63d75b6",
    "maxRedeem(address)": "d905777e",
    "maxWithdraw(address)": "ce96cb77",
    "mint(uint256,address)": "94bf804d",
    "name()": "06fdde03",
    "previewDeposit(uint256)": "ef8b30f7",
    "previewMint(uint256)": "b3d7f6b9",
    "previewRedeem(uint256)": "4cdad506",
    "previewWithdraw(uint256)": "0a28a477",
    "redeem(uint256,address,address)": "ba087652",
    "repay(address,uint256,uint256)": "8cd2e0c7",
    "repayingAllowed(address)": "84aafe52",
    "symbol()": "95d89b41",
    "totalAssets()": "01e1d114",
    "totalSupply()": "18160ddd",
    "transfer(address,uint256)": "a9059cbb",
    "transferFrom(address,address,uint256)": "23b872dd",
    "withdraw(uint256,address,address)": "b460af94"
  },
  "id": 33
}