{
  "abi": [
    {
      "inputs": [
        {
          "internalType": "address",
          "name": "_router",
          "type": "address"
        }
      ],
      "stateMutability": "nonpayable",
      "type": "constructor"
    },
    {
      "inputs": [],
      "name": "contractRegistry",
      "outputs": [
        {
          "internalType": "contract IContractRegistry",
          "name": "",
          "type": "address"
        }
      ],
      "stateMutability": "view",
      "type": "function"
    },
    {
      "inputs": [],
      "name": "router",
      "outputs": [
        {
          "internalType": "contract ISwapRouter",
          "name": "",
          "type": "address"
        }
      ],
      "stateMutability": "view",
      "type": "function"
    },
    {
      "inputs": [
        {
          "components": [
            {
              "internalType": "address",
              "name": "tokenIn",
              "type": "address"
            },
            {
              "internalType": "address",
              "name": "tokenOut",
              "type": "address"
            },
            {
              "internalType": "uint256",
              "name": "amountIn",
              "type": "uint256"
            },
            {
              "internalType": "uint256",
              "name": "amountOut",
              "type": "uint256"
            },
            {
              "internalType": "bool",
              "name": "isExactInput",
              "type": "bool"
            },
            {
              "internalType": "uint160",
              "name": "sqrtPriceLimitX96",
              "type": "uint160"
            },
            {
              "internalType": "uint256",
              "name": "amountOutMinimum",
              "type": "uint256"
            }
          ],
          "internalType": "struct IExchange.SwapParams",
          "name": "_swapParams",
          "type": "tuple"
        }
      ],
      "name": "swap",
      "outputs": [
        {
          "internalType": "uint256",
          "name": "amountOut",
          "type": "uint256"
        }
      ],
      "stateMutability": "nonpayable",
      "type": "function"
    }
  ],
  "bytecode": {
    "object": "0x60806040523480156200001157600080fd5b506040516200148f3803806200148f83398181016040528101906200003791906200015b565b600073ffffffffffffffffffffffffffffffffffffffff168173ffffffffffffffffffffffffffffffffffffffff1603620000a9576040517f08c379a0000000000000000000000000000000000000000000000000000000008152600401620000a090620001ee565b60405180910390fd5b80600160006101000a81548173ffffffffffffffffffffffffffffffffffffffff021916908373ffffffffffffffffffffffffffffffffffffffff1602179055505062000210565b600080fd5b600073ffffffffffffffffffffffffffffffffffffffff82169050919050565b60006200012382620000f6565b9050919050565b620001358162000116565b81146200014157600080fd5b50565b60008151905062000155816200012a565b92915050565b600060208284031215620001745762000173620000f1565b5b6000620001848482850162000144565b91505092915050565b600082825260208201905092915050565b7f4d413a42616420526f7574657220616464726573730000000000000000000000600082015250565b6000620001d66015836200018d565b9150620001e3826200019e565b602082019050919050565b600060208201905081810360008301526200020981620001c7565b9050919050565b61126f80620002206000396000f3fe608060405234801561001057600080fd5b50600436106100415760003560e01c8063220b6dec14610046578063abf410e514610076578063f887ea4014610094575b600080fd5b610060600480360381019061005b9190610b13565b6100b2565b60405161006d9190610b4f565b60405180910390f35b61007e610860565b60405161008b9190610bc9565b60405180910390f35b61009c610884565b6040516100a99190610c05565b60405180910390f35b60008073ffffffffffffffffffffffffffffffffffffffff16826000015173ffffffffffffffffffffffffffffffffffffffff1603610126576040517f08c379a000000000000000000000000000000000000000000000000000000000815260040161011d90610c7d565b60405180910390fd5b600073ffffffffffffffffffffffffffffffffffffffff16826020015173ffffffffffffffffffffffffffffffffffffffff1603610199576040517f08c379a000000000000000000000000000000000000000000000000000000000815260040161019090610ce9565b60405180910390fd5b8160800151156102985760008260400151116101ea576040517f08c379a00000000000000000000000000000000000000000000000000000000081526004016101e190610d55565b60405180910390fd5b816000015173ffffffffffffffffffffffffffffffffffffffff1663095ea7b3600160009054906101000a900473ffffffffffffffffffffffffffffffffffffffff1684604001516040518363ffffffff1660e01b815260040161024f929190610d84565b6020604051808303816000875af115801561026e573d6000803e3d6000fd5b505050506040513d601f19601f820116820180604052508101906102929190610dc2565b50610389565b60008260600151116102df576040517f08c379a00000000000000000000000000000000000000000000000000000000081526004016102d690610e61565b60405180910390fd5b816000015173ffffffffffffffffffffffffffffffffffffffff1663095ea7b3600160009054906101000a900473ffffffffffffffffffffffffffffffffffffffff1684606001516040518363ffffffff1660e01b8152600401610344929190610d84565b6020604051808303816000875af1158015610363573d6000803e3d6000fd5b505050506040513d601f19601f820116820180604052508101906103879190610dc2565b505b60006103936108aa565b905060006103a9846000015185602001516108b3565b9050801561066357836080015115610510576000604051806101000160405280866000015173ffffffffffffffffffffffffffffffffffffffff168152602001866020015173ffffffffffffffffffffffffffffffffffffffff1681526020018462ffffff1681526020013073ffffffffffffffffffffffffffffffffffffffff168152602001428152602001866040015181526020018660c0015181526020018660a0015173ffffffffffffffffffffffffffffffffffffffff168152509050600160009054906101000a900473ffffffffffffffffffffffffffffffffffffffff1673ffffffffffffffffffffffffffffffffffffffff1663414bf389826040518263ffffffff1660e01b81526004016104c59190610f6e565b6020604051808303816000875af11580156104e4573d6000803e3d6000fd5b505050506040513d601f19601f820116820180604052508101906105089190610f9f565b93505061065e565b6000604051806101000160405280866000015173ffffffffffffffffffffffffffffffffffffffff168152602001866020015173ffffffffffffffffffffffffffffffffffffffff1681526020018462ffffff1681526020013073ffffffffffffffffffffffffffffffffffffffff16815260200142815260200186606001518152602001600081526020018660a0015173ffffffffffffffffffffffffffffffffffffffff168152509050600160009054906101000a900473ffffffffffffffffffffffffffffffffffffffff1673ffffffffffffffffffffffffffffffffffffffff1663db3e2198826040518263ffffffff1660e01b8152600401610617919061106e565b6020604051808303816000875af1158015610636573d6000803e3d6000fd5b505050506040513d601f19601f8201168201806040525081019061065a9190610f9f565b9350505b610859565b6000610677856000015186602001516108bf565b905084608001511561076f5760006040518060a001604052808381526020013373ffffffffffffffffffffffffffffffffffffffff1681526020014281526020018760400151815260200160008152509050600160009054906101000a900473ffffffffffffffffffffffffffffffffffffffff1673ffffffffffffffffffffffffffffffffffffffff1663c04b8d59826040518263ffffffff1660e01b8152600401610724919061117f565b6020604051808303816000875af1158015610743573d6000803e3d6000fd5b505050506040513d601f19601f820116820180604052508101906107679190610f9f565b945050610857565b60006040518060a001604052808381526020013373ffffffffffffffffffffffffffffffffffffffff1681526020014281526020018760600151815260200160008152509050600160009054906101000a900473ffffffffffffffffffffffffffffffffffffffff1673ffffffffffffffffffffffffffffffffffffffff1663f28c0498826040518263ffffffff1660e01b81526004016108109190611217565b6020604051808303816000875af115801561082f573d6000803e3d6000fd5b505050506040513d601f19601f820116820180604052508101906108539190610f9f565b9450505b505b5050919050565b60008054906101000a900473ffffffffffffffffffffffffffffffffffffffff1681565b600160009054906101000a900473ffffffffffffffffffffffffffffffffffffffff1681565b60006064905090565b60006001905092915050565b606092915050565b6000604051905090565b600080fd5b600080fd5b6000601f19601f8301169050919050565b7f4e487b7100000000000000000000000000000000000000000000000000000000600052604160045260246000fd5b610924826108db565b810181811067ffffffffffffffff82111715610943576109426108ec565b5b80604052505050565b60006109566108c7565b9050610962828261091b565b919050565b600073ffffffffffffffffffffffffffffffffffffffff82169050919050565b600061099282610967565b9050919050565b6109a281610987565b81146109ad57600080fd5b50565b6000813590506109bf81610999565b92915050565b6000819050919050565b6109d8816109c5565b81146109e357600080fd5b50565b6000813590506109f5816109cf565b92915050565b60008115159050919050565b610a10816109fb565b8114610a1b57600080fd5b50565b600081359050610a2d81610a07565b92915050565b610a3c81610967565b8114610a4757600080fd5b50565b600081359050610a5981610a33565b92915050565b600060e08284031215610a7557610a746108d6565b5b610a7f60e061094c565b90506000610a8f848285016109b0565b6000830152506020610aa3848285016109b0565b6020830152506040610ab7848285016109e6565b6040830152506060610acb848285016109e6565b6060830152506080610adf84828501610a1e565b60808301525060a0610af384828501610a4a565b60a08301525060c0610b07848285016109e6565b60c08301525092915050565b600060e08284031215610b2957610b286108d1565b5b6000610b3784828501610a5f565b91505092915050565b610b49816109c5565b82525050565b6000602082019050610b646000830184610b40565b92915050565b6000819050919050565b6000610b8f610b8a610b8584610967565b610b6a565b610967565b9050919050565b6000610ba182610b74565b9050919050565b6000610bb382610b96565b9050919050565b610bc381610ba8565b82525050565b6000602082019050610bde6000830184610bba565b92915050565b6000610bef82610b96565b9050919050565b610bff81610be4565b82525050565b6000602082019050610c1a6000830184610bf6565b92915050565b600082825260208201905092915050565b7f4d413a20546f6b656e496e206572726f72000000000000000000000000000000600082015250565b6000610c67601183610c20565b9150610c7282610c31565b602082019050919050565b60006020820190508181036000830152610c9681610c5a565b9050919050565b7f4d413a20746f6b656e4f7574206572726f720000000000000000000000000000600082015250565b6000610cd3601283610c20565b9150610cde82610c9d565b602082019050919050565b60006020820190508181036000830152610d0281610cc6565b9050919050565b7f4d413a20496e76616c696420616d6f756e74496e000000000000000000000000600082015250565b6000610d3f601483610c20565b9150610d4a82610d09565b602082019050919050565b60006020820190508181036000830152610d6e81610d32565b9050919050565b610d7e81610987565b82525050565b6000604082019050610d996000830185610d75565b610da66020830184610b40565b9392505050565b600081519050610dbc81610a07565b92915050565b600060208284031215610dd857610dd76108d1565b5b6000610de684828501610dad565b91505092915050565b7f4d413a20496e76616c6964205f73776170506172616d732e616d6f756e744f7560008201527f7400000000000000000000000000000000000000000000000000000000000000602082015250565b6000610e4b602183610c20565b9150610e5682610def565b604082019050919050565b60006020820190508181036000830152610e7a81610e3e565b9050919050565b610e8a81610987565b82525050565b600062ffffff82169050919050565b610ea881610e90565b82525050565b610eb7816109c5565b82525050565b610ec681610967565b82525050565b61010082016000820151610ee36000850182610e81565b506020820151610ef66020850182610e81565b506040820151610f096040850182610e9f565b506060820151610f1c6060850182610e81565b506080820151610f2f6080850182610eae565b5060a0820151610f4260a0850182610eae565b5060c0820151610f5560c0850182610eae565b5060e0820151610f6860e0850182610ebd565b50505050565b600061010082019050610f846000830184610ecc565b92915050565b600081519050610f99816109cf565b92915050565b600060208284031215610fb557610fb46108d1565b5b6000610fc384828501610f8a565b91505092915050565b61010082016000820151610fe36000850182610e81565b506020820151610ff66020850182610e81565b5060408201516110096040850182610e9f565b50606082015161101c6060850182610e81565b50608082015161102f6080850182610eae565b5060a082015161104260a0850182610eae565b5060c082015161105560c0850182610eae565b5060e082015161106860e0850182610ebd565b50505050565b6000610100820190506110846000830184610fcc565b92915050565b600081519050919050565b600082825260208201905092915050565b60005b838110156110c45780820151818401526020810190506110a9565b60008484015250505050565b60006110db8261108a565b6110e58185611095565b93506110f58185602086016110a6565b6110fe816108db565b840191505092915050565b600060a083016000830151848203600086015261112682826110d0565b915050602083015161113b6020860182610e81565b50604083015161114e6040860182610eae565b5060608301516111616060860182610eae565b5060808301516111746080860182610eae565b508091505092915050565b600060208201905081810360008301526111998184611109565b905092915050565b600060a08301600083015184820360008601526111be82826110d0565b91505060208301516111d36020860182610e81565b5060408301516111e66040860182610eae565b5060608301516111f96060860182610eae565b50608083015161120c6080860182610eae565b508091505092915050565b6000602082019050818103600083015261123181846111a1565b90509291505056fea26469706673582212205806cfb2e0159bdd3e36b4972b5fe807ff9d738ea2d905c284b865257b7f0cbb64736f6c63430008110033",
    "linkReferences": {}
  },
  "methodIdentifiers": {
    "contractRegistry()": "abf410e5",
    "router()": "f887ea40",
    "swap((address,address,uint256,uint256,bool,uint160,uint256))": "220b6dec"
  },
  "id": 1
}