{
  "abi": [
    {
      "inputs": [
        {
          "internalType": "address",
          "name": "_router",
          "type": "address"
        }
      ],
      "stateMutability": "nonpayable",
      "type": "constructor"
    },
    {
      "inputs": [],
      "name": "contractRegistry",
      "outputs": [
        {
          "internalType": "contract IContractRegistry",
          "name": "",
          "type": "address"
        }
      ],
      "stateMutability": "view",
      "type": "function"
    },
    {
      "inputs": [],
      "name": "router",
      "outputs": [
        {
          "internalType": "contract ISwapRouter",
          "name": "",
          "type": "address"
        }
      ],
      "stateMutability": "view",
      "type": "function"
    },
    {
      "inputs": [
        {
          "components": [
            {
              "internalType": "address",
              "name": "tokenIn",
              "type": "address"
            },
            {
              "internalType": "address",
              "name": "tokenOut",
              "type": "address"
            },
            {
              "internalType": "uint256",
              "name": "amountIn",
              "type": "uint256"
            },
            {
              "internalType": "uint256",
              "name": "amountOut",
              "type": "uint256"
            },
            {
              "internalType": "bool",
              "name": "isExactInput",
              "type": "bool"
            },
            {
              "internalType": "uint160",
              "name": "sqrtPriceLimitX96",
              "type": "uint160"
            },
            {
              "internalType": "uint256",
              "name": "amountOutMinimum",
              "type": "uint256"
            }
          ],
          "internalType": "struct IExchange.SwapParams",
          "name": "_swapParams",
          "type": "tuple"
        }
      ],
      "name": "swap",
      "outputs": [
        {
          "internalType": "uint256",
          "name": "amountOut",
          "type": "uint256"
        }
      ],
      "stateMutability": "nonpayable",
      "type": "function"
    }
  ],
  "bytecode": {
    "object": "0x608060405234801561001057600080fd5b5060405161079338038061079383398101604081905261002f916100ae565b6001600160a01b0381166100895760405162461bcd60e51b815260206004820152601560248201527f4d413a42616420526f7574657220616464726573730000000000000000000000604482015260640160405180910390fd5b600180546001600160a01b0319166001600160a01b03929092169190911790556100de565b6000602082840312156100c057600080fd5b81516001600160a01b03811681146100d757600080fd5b9392505050565b6106a6806100ed6000396000f3fe608060405234801561001057600080fd5b50600436106100415760003560e01c8063220b6dec14610046578063abf410e51461006c578063f887ea4014610097575b600080fd5b6100596100543660046104a3565b6100aa565b6040519081526020015b60405180910390f35b60005461007f906001600160a01b031681565b6040516001600160a01b039091168152602001610063565b60015461007f906001600160a01b031681565b80516000906001600160a01b03166100fd5760405162461bcd60e51b815260206004820152601160248201527026a09d102a37b5b2b724b71032b93937b960791b60448201526064015b60405180910390fd5b60208201516001600160a01b031661014c5760405162461bcd60e51b815260206004820152601260248201527126a09d103a37b5b2b727baba1032b93937b960711b60448201526064016100f4565b8160800151156102255760008260400151116101a15760405162461bcd60e51b815260206004820152601460248201527326a09d1024b73b30b634b21030b6b7bab73a24b760611b60448201526064016100f4565b8151600154604080850151905163095ea7b360e01b81526001600160a01b039283166004820152602481019190915291169063095ea7b3906044016020604051808303816000875af11580156101fb573d6000803e3d6000fd5b505050506040513d601f19601f8201168201806040525081019061021f919061054f565b50610303565b60008260600151116102835760405162461bcd60e51b815260206004820152602160248201527f4d413a20496e76616c6964205f73776170506172616d732e616d6f756e744f756044820152601d60fa1b60648201526084016100f4565b8151600154606084015160405163095ea7b360e01b81526001600160a01b039283166004820152602481019190915291169063095ea7b3906044016020604051808303816000875af11580156102dd573d6000803e3d6000fd5b505050506040513d601f19601f82011682018060405250810190610301919061054f565b505b606460018360800151156103e057604080516101008101825285516001600160a01b03908116825260208088015182169083015262ffffff8516828401523060608301524260808301528683015160a08084019190915260c08089015190840152870151811660e0830152600154925163414bf38960e01b81529192169063414bf38990610395908490600401610573565b6020604051808303816000875af11580156103b4573d6000803e3d6000fd5b505050506040513d601f19601f820116820180604052508101906103d891906105e3565b935050610464565b604080516101008101825285516001600160a01b03908116825260208088015182169083015262ffffff8516828401523060608084019190915242608084015287015160a080840191909152600060c0840152870151811660e08301526001549251631b67c43360e31b81529192169063db3e219890610395908490600401610573565b5050919050565b80356001600160a01b038116811461048257600080fd5b919050565b801515811461049557600080fd5b50565b803561048281610487565b600060e082840312156104b557600080fd5b60405160e0810181811067ffffffffffffffff821117156104e657634e487b7160e01b600052604160045260246000fd5b6040526104f28361046b565b81526105006020840161046b565b6020820152604083013560408201526060830135606082015261052560808401610498565b608082015261053660a0840161046b565b60a082015260c083013560c08201528091505092915050565b60006020828403121561056157600080fd5b815161056c81610487565b9392505050565b61010081016105dd828480516001600160a01b03908116835260208083015182169084015260408083015162ffffff16908401526060808301518216908401526080808301519084015260a0828101519084015260c0808301519084015260e09182015116910152565b92915050565b6000602082840312156105f557600080fd5b5051919050565b8181101561061957602081840181015160c08884010152016105fc565b50600060c082870101526020840151915061063f60208601836001600160a01b03169052565b6040848101519086015260608085015190860152608093840151938501939093525050601f01601f19160160c0019056fea26469706673582212204449da2307cf3a65458578fb4cf03c3bad0040ad5fb6c9b6ffdf545e70f2c2ff64736f6c63430008110033",
    "linkReferences": {}
  },
  "methodIdentifiers": {
    "contractRegistry()": "abf410e5",
    "router()": "f887ea40",
    "swap((address,address,uint256,uint256,bool,uint160,uint256))": "220b6dec"
  },
  "id": 1
}