{
  "abi": [
    {
      "inputs": [
        {
          "internalType": "address",
          "name": "_baseToken",
          "type": "address"
        },
        {
          "internalType": "address",
          "name": "_contractRegistry",
          "type": "address"
        }
      ],
      "stateMutability": "nonpayable",
      "type": "constructor"
    },
    {
      "inputs": [],
      "name": "OP",
      "outputs": [
        {
          "internalType": "bytes4",
          "name": "",
          "type": "bytes4"
        }
      ],
      "stateMutability": "view",
      "type": "function"
    },
    {
      "inputs": [],
      "name": "TM",
      "outputs": [
        {
          "internalType": "bytes4",
          "name": "",
          "type": "bytes4"
        }
      ],
      "stateMutability": "view",
      "type": "function"
    },
    {
      "inputs": [
        {
          "internalType": "address",
          "name": "account",
          "type": "address"
        }
      ],
      "name": "_getPositionPnLAcrossMarkets",
      "outputs": [
        {
          "internalType": "int256",
          "name": "pnl",
          "type": "int256"
        }
      ],
      "stateMutability": "nonpayable",
      "type": "function"
    },
    {
      "inputs": [],
      "name": "baseToken",
      "outputs": [
        {
          "internalType": "address",
          "name": "",
          "type": "address"
        }
      ],
      "stateMutability": "view",
      "type": "function"
    },
    {
      "inputs": [],
      "name": "futureManager",
      "outputs": [
        {
          "internalType": "contract IFuturesMarketManager",
          "name": "",
          "type": "address"
        }
      ],
      "stateMutability": "view",
      "type": "function"
    },
    {
      "inputs": [],
      "name": "getBaseToken",
      "outputs": [
        {
          "internalType": "address",
          "name": "",
          "type": "address"
        }
      ],
      "stateMutability": "view",
      "type": "function"
    },
    {
      "inputs": [
        {
          "internalType": "address",
          "name": "marginAccount",
          "type": "address"
        }
      ],
      "name": "getRealizedPnL",
      "outputs": [
        {
          "internalType": "int256",
          "name": "",
          "type": "int256"
        }
      ],
      "stateMutability": "nonpayable",
      "type": "function"
    },
    {
      "inputs": [
        {
          "internalType": "address",
          "name": "marginAccount",
          "type": "address"
        }
      ],
      "name": "getUnrealizedPnL",
      "outputs": [
        {
          "internalType": "int256",
          "name": "unrealizedPnL",
          "type": "int256"
        }
      ],
      "stateMutability": "nonpayable",
      "type": "function"
    },
    {
      "inputs": [
        {
          "internalType": "address",
          "name": "marginAccount",
          "type": "address"
        }
      ],
      "name": "getUnsettledAccounting",
      "outputs": [],
      "stateMutability": "nonpayable",
      "type": "function"
    },
    {
      "inputs": [
        {
          "internalType": "bytes",
          "name": "data",
          "type": "bytes"
        }
      ],
      "name": "previewPosition",
      "outputs": [],
      "stateMutability": "nonpayable",
      "type": "function"
    },
    {
      "inputs": [
        {
          "internalType": "address",
          "name": "account",
          "type": "address"
        }
      ],
      "name": "settleFeeForMarket",
      "outputs": [
        {
          "internalType": "int256",
          "name": "",
          "type": "int256"
        }
      ],
      "stateMutability": "nonpayable",
      "type": "function"
    },
    {
      "inputs": [
        {
          "internalType": "address",
          "name": "marginAccount",
          "type": "address"
        }
      ],
      "name": "settleRealizedAccounting",
      "outputs": [],
      "stateMutability": "nonpayable",
      "type": "function"
    },
    {
      "inputs": [
        {
          "internalType": "address",
          "name": "contractAddress",
          "type": "address"
        },
        {
          "internalType": "bool",
          "name": "isAllowed",
          "type": "bool"
        }
      ],
      "name": "toggleAddressWhitelisting",
      "outputs": [],
      "stateMutability": "nonpayable",
      "type": "function"
    },
    {
      "inputs": [
        {
          "internalType": "address",
          "name": "protocol",
          "type": "address"
        },
        {
          "internalType": "address[]",
          "name": "destinations",
          "type": "address[]"
        },
        {
          "internalType": "bytes[]",
          "name": "data",
          "type": "bytes[]"
        }
      ],
      "name": "verifyClose",
      "outputs": [
        {
          "internalType": "int256",
          "name": "amount",
          "type": "int256"
        },
        {
          "internalType": "int256",
          "name": "totalPosition",
          "type": "int256"
        },
        {
          "internalType": "uint256",
          "name": "fee",
          "type": "uint256"
        }
      ],
      "stateMutability": "nonpayable",
      "type": "function"
    },
    {
      "inputs": [
        {
          "internalType": "address",
          "name": "protocol",
          "type": "address"
        },
        {
          "internalType": "address[]",
          "name": "destinations",
          "type": "address[]"
        },
        {
          "internalType": "bytes[]",
          "name": "data",
          "type": "bytes[]"
        }
      ],
      "name": "verifyTrade",
      "outputs": [
        {
          "internalType": "int256",
          "name": "marginDelta",
          "type": "int256"
        },
        {
          "components": [
            {
              "internalType": "address",
              "name": "protocol",
              "type": "address"
            },
            {
              "internalType": "int256",
              "name": "openNotional",
              "type": "int256"
            },
            {
              "internalType": "int256",
              "name": "size",
              "type": "int256"
            },
            {
              "internalType": "uint256",
              "name": "orderFee",
              "type": "uint256"
            }
          ],
          "internalType": "struct Position",
          "name": "position",
          "type": "tuple"
        }
      ],
      "stateMutability": "view",
      "type": "function"
    }
  ],
  "bytecode": {
    "object": "0x60806040526006600160146101000a81548160ff021916908360ff1602179055506388a3c84860e01b600160156101000a81548163ffffffff021916908360e01c021790555063a28a2bc060e01b600160196101000a81548163ffffffff021916908360e01c02179055503480156200007757600080fd5b50604051620031f7380380620031f783398181016040528101906200009d91906200021d565b80600260006101000a81548173ffffffffffffffffffffffffffffffffffffffff021916908373ffffffffffffffffffffffffffffffffffffffff16021790555081600160006101000a81548173ffffffffffffffffffffffffffffffffffffffff021916908373ffffffffffffffffffffffffffffffffffffffff1602179055508173ffffffffffffffffffffffffffffffffffffffff1663313ce5676040518163ffffffff1660e01b8152600401602060405180830381865afa1580156200016b573d6000803e3d6000fd5b505050506040513d601f19601f82011682018060405250810190620001919190620002a2565b6001601d6101000a81548160ff021916908360ff1602179055505050620002d4565b600080fd5b600073ffffffffffffffffffffffffffffffffffffffff82169050919050565b6000620001e582620001b8565b9050919050565b620001f781620001d8565b81146200020357600080fd5b50565b6000815190506200021781620001ec565b92915050565b60008060408385031215620002375762000236620001b3565b5b6000620002478582860162000206565b92505060206200025a8582860162000206565b9150509250929050565b600060ff82169050919050565b6200027c8162000264565b81146200028857600080fd5b50565b6000815190506200029c8162000271565b92915050565b600060208284031215620002bb57620002ba620001b3565b5b6000620002cb848285016200028b565b91505092915050565b612f1380620002e46000396000f3fe608060405234801561001057600080fd5b50600436106100f55760003560e01c80639418b95511610097578063c55dae6311610066578063c55dae6314610299578063de6c0823146102b7578063e91fad7f146102d5578063ea344bf614610305576100f5565b80639418b9551461021357806398acd7a61461022f578063b413d6c91461024d578063bb4a976f1461027d576100f5565b80635104efaa116100d35780635104efaa14610178578063544305bf146101a95780637ab5b15e146101d95780637c9c3472146101f5576100f5565b8063130676f6146100fa57806324d2343a1461012c57806350989a5714610148575b600080fd5b610114600480360381019061010f9190611cb5565b610323565b60405161012393929190611d77565b60405180910390f35b61014660048036038101906101419190611dae565b610332565b005b610162600480360381019061015d9190611dae565b610335565b60405161016f9190611ddb565b60405180910390f35b610192600480360381019061018d9190611cb5565b61072b565b6040516101a0929190611e78565b60405180910390f35b6101c360048036038101906101be9190611dae565b610b70565b6040516101d09190611ddb565b60405180910390f35b6101f360048036038101906101ee9190611f56565b610ba3565b005b6101fd610ba6565b60405161020a9190611fda565b60405180910390f35b61022d6004803603810190610228919061202d565b610bb9565b005b610237610c4d565b604051610244919061207c565b60405180910390f35b61026760048036038101906102629190611dae565b610c77565b6040516102749190611ddb565b60405180910390f35b61029760048036038101906102929190611dae565b610ed2565b005b6102a1610ed5565b6040516102ae919061207c565b60405180910390f35b6102bf610efb565b6040516102cc91906120f6565b60405180910390f35b6102ef60048036038101906102ea9190611dae565b610f1f565b6040516102fc9190611ddb565b60405180910390f35b61030d610f31565b60405161031a9190611fda565b60405180910390f35b60008060009450945094915050565b50565b600080600080600260009054906101000a900473ffffffffffffffffffffffffffffffffffffffff1673ffffffffffffffffffffffffffffffffffffffff1663956109267f0d60a758dcc410973abaa125ce6458bd6a1d59eb466549e81b950c24e5f04d886040518263ffffffff1660e01b81526004016103b6919061212a565b602060405180830381865afa1580156103d3573d6000803e3d6000fd5b505050506040513d601f19601f820116820180604052508101906103f7919061215a565b73ffffffffffffffffffffffffffffffffffffffff1663f7a033e3306040518263ffffffff1660e01b815260040161042f919061207c565b600060405180830381865afa15801561044c573d6000803e3d6000fd5b505050506040513d6000823e3d601f19601f82011682018060405250810190610475919061221e565b905060006104838251610f44565b905060005b8160ff168160ff1610156106ce576000838260ff16815181106104ae576104ad612267565b5b602002602001015190506000808273ffffffffffffffffffffffffffffffffffffffff16631bf556d08b6040518263ffffffff1660e01b81526004016104f4919061207c565b6040805180830381865afa158015610510573d6000803e3d6000fd5b505050506040513d601f19601f8201168201806040525081019061053491906122d7565b50809150508273ffffffffffffffffffffffffffffffffffffffff1663b111dfac8b6040518263ffffffff1660e01b8152600401610572919061207c565b6040805180830381865afa15801561058e573d6000803e3d6000fd5b505050506040513d601f19601f820116820180604052508101906105b291906122d7565b508092505060008812156105ff576105fe6040518060400160405280600c81526020017f6e6567617469766520706e6c0000000000000000000000000000000000000000815250610f94565b5b6000811215610647576106466040518060400160405280601181526020017f6e65676174697665205f66756e64696e67000000000000000000000000000000815250610f94565b5b61065a828861102d90919063ffffffff16565b96506106a36040518060400160405280600781526020017f66756e64696e670000000000000000000000000000000000000000000000000081525061069e8a611043565b61105f565b6106b6818961102d90919063ffffffff16565b975050505080806106c690612353565b915050610488565b5061071f6040518060400160405280601a81526020017f66756e64696e6720616e6420706e6c20736574746c652066656500000000000081525061071186611043565b61071a86611043565b6110fb565b83945050505050919050565b6000610735611a51565b600084849050905080865114610780576040517f08c379a0000000000000000000000000000000000000000000000000000000008152600401610777906123d9565b60405180910390fd5b60005b81811015610b655760011515600360008984815181106107a6576107a5612267565b5b602002602001015173ffffffffffffffffffffffffffffffffffffffff1673ffffffffffffffffffffffffffffffffffffffff16815260200190815260200160002060009054906101000a900460ff16151514610838576040517f08c379a000000000000000000000000000000000000000000000000000000000815260040161082f9061246b565b60405180910390fd5b600086868381811061084d5761084c612267565b5b905060200281019061085f919061249a565b9061086a9190612515565b9050600160159054906101000a900460e01b7bffffffffffffffffffffffffffffffffffffffffffffffffffffffff1916817bffffffffffffffffffffffffffffffffffffffffffffffffffffffff19160361091c576109158787848181106108d6576108d5612267565b5b90506020028101906108e8919061249a565b60049080926108f99392919061257e565b81019061090691906125ce565b8661102d90919063ffffffff16565b9450610b51565b600160199054906101000a900460e01b7bffffffffffffffffffffffffffffffffffffffffffffffffffffffff1916817bffffffffffffffffffffffffffffffffffffffffffffffffffffffff191603610b1557600087878481811061098557610984612267565b5b9050602002810190610997919061249a565b60049080926109a89392919061257e565b8101906109b591906125ce565b90506000808b73ffffffffffffffffffffffffffffffffffffffff1663d24378eb6040518163ffffffff1660e01b81526004016040805180830381865afa158015610a04573d6000803e3d6000fd5b505050506040513d601f19601f82011682018060405250810190610a289190612627565b91509150610a61670de0b6b3a76400008385610a449190612667565b610a4e919061270e565b886020015161102d90919063ffffffff16565b876020018181525050610a8183886040015161102d90919063ffffffff16565b8760400181815250508b73ffffffffffffffffffffffffffffffffffffffff16631906652f846040518263ffffffff1660e01b8152600401610ac39190611ddb565b6040805180830381865afa158015610adf573d6000803e3d6000fd5b505050506040513d601f19601f82011682018060405250810190610b039190612627565b50876060018181525050505050610b50565b6040517f08c379a0000000000000000000000000000000000000000000000000000000008152600401610b47906127c4565b60405180910390fd5b5b508080610b5d906127e4565b915050610783565b505094509492505050565b6000610b7b8261119a565b81610b86919061282c565b9050610b9182610c77565b81610b9c919061282c565b9050919050565b50565b600160199054906101000a900460e01b81565b600073ffffffffffffffffffffffffffffffffffffffff168273ffffffffffffffffffffffffffffffffffffffff1603610bf257600080fd5b80600360008473ffffffffffffffffffffffffffffffffffffffff1673ffffffffffffffffffffffffffffffffffffffff16815260200190815260200160002060006101000a81548160ff0219169083151502179055505050565b6000600160009054906101000a900473ffffffffffffffffffffffffffffffffffffffff16905090565b6000806000600260009054906101000a900473ffffffffffffffffffffffffffffffffffffffff1673ffffffffffffffffffffffffffffffffffffffff1663956109267f0d60a758dcc410973abaa125ce6458bd6a1d59eb466549e81b950c24e5f04d886040518263ffffffff1660e01b8152600401610cf7919061212a565b602060405180830381865afa158015610d14573d6000803e3d6000fd5b505050506040513d601f19601f82011682018060405250810190610d38919061215a565b73ffffffffffffffffffffffffffffffffffffffff1663f7a033e3306040518263ffffffff1660e01b8152600401610d70919061207c565b600060405180830381865afa158015610d8d573d6000803e3d6000fd5b505050506040513d6000823e3d601f19601f82011682018060405250810190610db6919061221e565b905060008151905060005b81811015610e94576000838281518110610dde57610ddd612267565b5b602002602001015190506000808273ffffffffffffffffffffffffffffffffffffffff1663b111dfac8a6040518263ffffffff1660e01b8152600401610e24919061207c565b6040805180830381865afa158015610e40573d6000803e3d6000fd5b505050506040513d601f19601f82011682018060405250810190610e6491906122d7565b5080925050610e7c828961102d90919063ffffffff16565b97505050508080610e8c906127e4565b915050610dc1565b50610ec86001601d9054906101000a900460ff16600160149054906101000a900460ff16866114319092919063ffffffff16565b9350505050919050565b50565b600160009054906101000a900473ffffffffffffffffffffffffffffffffffffffff1681565b60008054906101000a900473ffffffffffffffffffffffffffffffffffffffff1681565b6000610f2a82611529565b9050919050565b600160159054906101000a900460e01b81565b600060ff8016821115610f8c576040517f08c379a0000000000000000000000000000000000000000000000000000000008152600401610f83906128e2565b60405180910390fd5b819050919050565b61102a81604051602401610fa89190612970565b6040516020818303038152906040527f41304fac000000000000000000000000000000000000000000000000000000007bffffffffffffffffffffffffffffffffffffffffffffffffffffffff19166020820180517bffffffffffffffffffffffffffffffffffffffffffffffffffffffff838183161783525050505061182c565b50565b6000818361103b919061282c565b905092915050565b6000808212156110565781600003611058565b815b9050919050565b6110f78282604051602401611075929190612992565b6040516020818303038152906040527fb60e72cc000000000000000000000000000000000000000000000000000000007bffffffffffffffffffffffffffffffffffffffffffffffffffffffff19166020820180517bffffffffffffffffffffffffffffffffffffffffffffffffffffffff838183161783525050505061182c565b5050565b611195838383604051602401611113939291906129c2565b6040516020818303038152906040527fca47c4eb000000000000000000000000000000000000000000000000000000007bffffffffffffffffffffffffffffffffffffffffffffffffffffffff19166020820180517bffffffffffffffffffffffffffffffffffffffffffffffffffffffff838183161783525050505061182c565b505050565b600080600260009054906101000a900473ffffffffffffffffffffffffffffffffffffffff1673ffffffffffffffffffffffffffffffffffffffff1663956109267f0d60a758dcc410973abaa125ce6458bd6a1d59eb466549e81b950c24e5f04d886040518263ffffffff1660e01b8152600401611218919061212a565b602060405180830381865afa158015611235573d6000803e3d6000fd5b505050506040513d601f19601f82011682018060405250810190611259919061215a565b73ffffffffffffffffffffffffffffffffffffffff1663f7a033e3306040518263ffffffff1660e01b8152600401611291919061207c565b600060405180830381865afa1580156112ae573d6000803e3d6000fd5b505050506040513d6000823e3d601f19601f820116820180604052508101906112d7919061221e565b905060008151905060005b818110156113ad5760008382815181106112ff576112fe612267565b5b602002602001015190506000808273ffffffffffffffffffffffffffffffffffffffff16631bf556d0896040518263ffffffff1660e01b8152600401611345919061207c565b6040805180830381865afa158015611361573d6000803e3d6000fd5b505050506040513d601f19601f8201168201806040525081019061138591906122d7565b915091508187611395919061282c565b965050505080806113a5906127e4565b9150506112e2565b506113e16001601d9054906101000a900460ff16600160149054906101000a900460ff16856114319092919063ffffffff16565b92506114216040518060400160405280600e81526020017f6163637275656446756e64696e67000000000000000000000000000000000000815250610f94565b61142a83611855565b5050919050565b60008160ff168360ff160361144857839050611522565b8160ff168360ff1610156114875761148083836114659190612a00565b600a6114719190612b68565b856118ee90919063ffffffff16565b9050611522565b600082846114959190612a00565b600a6114a19190612b68565b9050600080861280156114c95750600082876114bc90612bb3565b6114c69190612bfb565b14155b156114f2577fffffffffffffffffffffffffffffffffffffffffffffffffffffffffffffffff90505b60006115198261150b858a61190490919063ffffffff16565b61191a90919063ffffffff16565b90508093505050505b9392505050565b600080600260009054906101000a900473ffffffffffffffffffffffffffffffffffffffff1673ffffffffffffffffffffffffffffffffffffffff1663956109267f0d60a758dcc410973abaa125ce6458bd6a1d59eb466549e81b950c24e5f04d886040518263ffffffff1660e01b81526004016115a7919061212a565b602060405180830381865afa1580156115c4573d6000803e3d6000fd5b505050506040513d601f19601f820116820180604052508101906115e8919061215a565b73ffffffffffffffffffffffffffffffffffffffff1663f7a033e3306040518263ffffffff1660e01b8152600401611620919061207c565b600060405180830381865afa15801561163d573d6000803e3d6000fd5b505050506040513d6000823e3d601f19601f82011682018060405250810190611666919061221e565b905060005b815181101561182557600082828151811061168957611688612267565b5b602002602001015173ffffffffffffffffffffffffffffffffffffffff166355f57510866040518263ffffffff1660e01b81526004016116c9919061207c565b60a060405180830381865afa1580156116e6573d6000803e3d6000fd5b505050506040513d601f19601f8201168201806040525081019061170a9190612ced565b50506fffffffffffffffffffffffffffffffff16925050506117556001601d9054906101000a900460ff16600160149054906101000a900460ff16836119309092919063ffffffff16565b905060008573ffffffffffffffffffffffffffffffffffffffff1663c0cb2d2585858151811061178857611787612267565b5b60200260200101516040518263ffffffff1660e01b81526004016117ac919061207c565b602060405180830381865afa1580156117c9573d6000803e3d6000fd5b505050506040513d601f19601f820116820180604052508101906117ed9190612d68565b9050806117f9836119b8565b6118039190612d95565b8561180e919061282c565b94505050808061181d906127e4565b91505061166b565b5050919050565b60008151905060006a636f6e736f6c652e6c6f679050602083016000808483855afa5050505050565b6118eb816040516024016118699190611ddb565b6040516020818303038152906040527f2d5b6cb9000000000000000000000000000000000000000000000000000000007bffffffffffffffffffffffffffffffffffffffffffffffffffffffff19166020820180517bffffffffffffffffffffffffffffffffffffffffffffffffffffffff838183161783525050505061182c565b50565b600081836118fc9190612667565b905092915050565b60008183611912919061270e565b905092915050565b60008183611928919061282c565b905092915050565b60008160ff168360ff1603611947578390506119b1565b8160ff168360ff16116119835761197e83836119639190612a00565b600a61196f9190612b68565b85611a2590919063ffffffff16565b6119ae565b6119ad82846119929190612a00565b600a61199e9190612b68565b85611a3b90919063ffffffff16565b5b90505b9392505050565b60007f7fffffffffffffffffffffffffffffffffffffffffffffffffffffffffffffff821115611a1d576040517f08c379a0000000000000000000000000000000000000000000000000000000008152600401611a1490612e4a565b60405180910390fd5b819050919050565b60008183611a339190612e6a565b905092915050565b60008183611a499190612eac565b905092915050565b6040518060800160405280600073ffffffffffffffffffffffffffffffffffffffff1681526020016000815260200160008152602001600081525090565b6000604051905090565b600080fd5b600080fd5b600073ffffffffffffffffffffffffffffffffffffffff82169050919050565b6000611ace82611aa3565b9050919050565b611ade81611ac3565b8114611ae957600080fd5b50565b600081359050611afb81611ad5565b92915050565b600080fd5b6000601f19601f8301169050919050565b7f4e487b7100000000000000000000000000000000000000000000000000000000600052604160045260246000fd5b611b4f82611b06565b810181811067ffffffffffffffff82111715611b6e57611b6d611b17565b5b80604052505050565b6000611b81611a8f565b9050611b8d8282611b46565b919050565b600067ffffffffffffffff821115611bad57611bac611b17565b5b602082029050602081019050919050565b600080fd5b6000611bd6611bd184611b92565b611b77565b90508083825260208201905060208402830185811115611bf957611bf8611bbe565b5b835b81811015611c225780611c0e8882611aec565b845260208401935050602081019050611bfb565b5050509392505050565b600082601f830112611c4157611c40611b01565b5b8135611c51848260208601611bc3565b91505092915050565b600080fd5b60008083601f840112611c7557611c74611b01565b5b8235905067ffffffffffffffff811115611c9257611c91611c5a565b5b602083019150836020820283011115611cae57611cad611bbe565b5b9250929050565b60008060008060608587031215611ccf57611cce611a99565b5b6000611cdd87828801611aec565b945050602085013567ffffffffffffffff811115611cfe57611cfd611a9e565b5b611d0a87828801611c2c565b935050604085013567ffffffffffffffff811115611d2b57611d2a611a9e565b5b611d3787828801611c5f565b925092505092959194509250565b6000819050919050565b611d5881611d45565b82525050565b6000819050919050565b611d7181611d5e565b82525050565b6000606082019050611d8c6000830186611d4f565b611d996020830185611d4f565b611da66040830184611d68565b949350505050565b600060208284031215611dc457611dc3611a99565b5b6000611dd284828501611aec565b91505092915050565b6000602082019050611df06000830184611d4f565b92915050565b611dff81611ac3565b82525050565b611e0e81611d45565b82525050565b611e1d81611d5e565b82525050565b608082016000820151611e396000850182611df6565b506020820151611e4c6020850182611e05565b506040820151611e5f6040850182611e05565b506060820151611e726060850182611e14565b50505050565b600060a082019050611e8d6000830185611d4f565b611e9a6020830184611e23565b9392505050565b600080fd5b600067ffffffffffffffff821115611ec157611ec0611b17565b5b611eca82611b06565b9050602081019050919050565b82818337600083830152505050565b6000611ef9611ef484611ea6565b611b77565b905082815260208101848484011115611f1557611f14611ea1565b5b611f20848285611ed7565b509392505050565b600082601f830112611f3d57611f3c611b01565b5b8135611f4d848260208601611ee6565b91505092915050565b600060208284031215611f6c57611f6b611a99565b5b600082013567ffffffffffffffff811115611f8a57611f89611a9e565b5b611f9684828501611f28565b91505092915050565b60007fffffffff0000000000000000000000000000000000000000000000000000000082169050919050565b611fd481611f9f565b82525050565b6000602082019050611fef6000830184611fcb565b92915050565b60008115159050919050565b61200a81611ff5565b811461201557600080fd5b50565b60008135905061202781612001565b92915050565b6000806040838503121561204457612043611a99565b5b600061205285828601611aec565b925050602061206385828601612018565b9150509250929050565b61207681611ac3565b82525050565b6000602082019050612091600083018461206d565b92915050565b6000819050919050565b60006120bc6120b76120b284611aa3565b612097565b611aa3565b9050919050565b60006120ce826120a1565b9050919050565b60006120e0826120c3565b9050919050565b6120f0816120d5565b82525050565b600060208201905061210b60008301846120e7565b92915050565b6000819050919050565b61212481612111565b82525050565b600060208201905061213f600083018461211b565b92915050565b60008151905061215481611ad5565b92915050565b6000602082840312156121705761216f611a99565b5b600061217e84828501612145565b91505092915050565b600061219a61219584611b92565b611b77565b905080838252602082019050602084028301858111156121bd576121bc611bbe565b5b835b818110156121e657806121d28882612145565b8452602084019350506020810190506121bf565b5050509392505050565b600082601f83011261220557612204611b01565b5b8151612215848260208601612187565b91505092915050565b60006020828403121561223457612233611a99565b5b600082015167ffffffffffffffff81111561225257612251611a9e565b5b61225e848285016121f0565b91505092915050565b7f4e487b7100000000000000000000000000000000000000000000000000000000600052603260045260246000fd5b61229f81611d45565b81146122aa57600080fd5b50565b6000815190506122bc81612296565b92915050565b6000815190506122d181612001565b92915050565b600080604083850312156122ee576122ed611a99565b5b60006122fc858286016122ad565b925050602061230d858286016122c2565b9150509250929050565b7f4e487b7100000000000000000000000000000000000000000000000000000000600052601160045260246000fd5b600060ff82169050919050565b600061235e82612346565b915060ff820361237157612370612317565b5b600182019050919050565b600082825260208201905092915050565b7f73686f756c64206d617463680000000000000000000000000000000000000000600082015250565b60006123c3600c8361237c565b91506123ce8261238d565b602082019050919050565b600060208201905081810360008301526123f2816123b6565b9050919050565b7f50524d3a2043616c6c696e67206e6f6e2077686974656c697374656420636f6e60008201527f7472616374000000000000000000000000000000000000000000000000000000602082015250565b600061245560258361237c565b9150612460826123f9565b604082019050919050565b6000602082019050818103600083015261248481612448565b9050919050565b600080fd5b600080fd5b600080fd5b600080833560016020038436030381126124b7576124b661248b565b5b80840192508235915067ffffffffffffffff8211156124d9576124d8612490565b5b6020830192506001820236038313156124f5576124f4612495565b5b509250929050565b600082905092915050565b600082821b905092915050565b600061252183836124fd565b8261252c8135611f9f565b9250600482101561256c576125677fffffffff0000000000000000000000000000000000000000000000000000000083600403600802612508565b831692505b505092915050565b600080fd5b600080fd5b6000808585111561259257612591612574565b5b838611156125a3576125a2612579565b5b6001850283019150848603905094509492505050565b6000813590506125c881612296565b92915050565b6000602082840312156125e4576125e3611a99565b5b60006125f2848285016125b9565b91505092915050565b61260481611d5e565b811461260f57600080fd5b50565b600081519050612621816125fb565b92915050565b6000806040838503121561263e5761263d611a99565b5b600061264c85828601612612565b925050602061265d858286016122c2565b9150509250929050565b600061267282611d45565b915061267d83611d45565b925082820261268b81611d45565b91507f800000000000000000000000000000000000000000000000000000000000000084146000841216156126c3576126c2612317565b5b82820584148315176126d8576126d7612317565b5b5092915050565b7f4e487b7100000000000000000000000000000000000000000000000000000000600052601260045260246000fd5b600061271982611d45565b915061272483611d45565b925082612734576127336126df565b5b600160000383147f80000000000000000000000000000000000000000000000000000000000000008314161561276d5761276c612317565b5b828205905092915050565b7f50524d3a20556e737570706f727465642046756e6374696f6e2063616c6c0000600082015250565b60006127ae601e8361237c565b91506127b982612778565b602082019050919050565b600060208201905081810360008301526127dd816127a1565b9050919050565b60006127ef82611d5e565b91507fffffffffffffffffffffffffffffffffffffffffffffffffffffffffffffffff820361282157612820612317565b5b600182019050919050565b600061283782611d45565b915061284283611d45565b92508282019050828112156000831216838212600084121516171561286a57612869612317565b5b92915050565b7f53616665436173743a2076616c756520646f65736e27742066697420696e203860008201527f2062697473000000000000000000000000000000000000000000000000000000602082015250565b60006128cc60258361237c565b91506128d782612870565b604082019050919050565b600060208201905081810360008301526128fb816128bf565b9050919050565b600081519050919050565b60005b8381101561292b578082015181840152602081019050612910565b60008484015250505050565b600061294282612902565b61294c818561237c565b935061295c81856020860161290d565b61296581611b06565b840191505092915050565b6000602082019050818103600083015261298a8184612937565b905092915050565b600060408201905081810360008301526129ac8185612937565b90506129bb6020830184611d68565b9392505050565b600060608201905081810360008301526129dc8186612937565b90506129eb6020830185611d68565b6129f86040830184611d68565b949350505050565b6000612a0b82612346565b9150612a1683612346565b9250828203905060ff811115612a2f57612a2e612317565b5b92915050565b60008160011c9050919050565b6000808291508390505b6001851115612a8c57808604811115612a6857612a67612317565b5b6001851615612a775780820291505b8081029050612a8585612a35565b9450612a4c565b94509492505050565b600082612aa55760019050612b61565b81612ab35760009050612b61565b8160018114612ac95760028114612ad357612b02565b6001915050612b61565b60ff841115612ae557612ae4612317565b5b8360020a915084821115612afc57612afb612317565b5b50612b61565b5060208310610133831016604e8410600b8410161715612b375782820a905083811115612b3257612b31612317565b5b612b61565b612b448484846001612a42565b92509050818404811115612b5b57612b5a612317565b5b81810290505b9392505050565b6000612b7382611d5e565b9150612b7e83612346565b9250612bab7fffffffffffffffffffffffffffffffffffffffffffffffffffffffffffffffff8484612a95565b905092915050565b6000612bbe82611d45565b91507f80000000000000000000000000000000000000000000000000000000000000008203612bf057612bef612317565b5b816000039050919050565b6000612c0682611d5e565b9150612c1183611d5e565b925082612c2157612c206126df565b5b828206905092915050565b600067ffffffffffffffff82169050919050565b612c4981612c2c565b8114612c5457600080fd5b50565b600081519050612c6681612c40565b92915050565b60006fffffffffffffffffffffffffffffffff82169050919050565b612c9181612c6c565b8114612c9c57600080fd5b50565b600081519050612cae81612c88565b92915050565b600081600f0b9050919050565b612cca81612cb4565b8114612cd557600080fd5b50565b600081519050612ce781612cc1565b92915050565b600080600080600060a08688031215612d0957612d08611a99565b5b6000612d1788828901612c57565b9550506020612d2888828901612c57565b9450506040612d3988828901612c9f565b9350506060612d4a88828901612c9f565b9250506080612d5b88828901612cd8565b9150509295509295909350565b600060208284031215612d7e57612d7d611a99565b5b6000612d8c848285016122ad565b91505092915050565b6000612da082611d45565b9150612dab83611d45565b9250828203905081811260008412168282136000851215161715612dd257612dd1612317565b5b92915050565b7f53616665436173743a2076616c756520646f65736e27742066697420696e206160008201527f6e20696e74323536000000000000000000000000000000000000000000000000602082015250565b6000612e3460288361237c565b9150612e3f82612dd8565b604082019050919050565b60006020820190508181036000830152612e6381612e27565b9050919050565b6000612e7582611d5e565b9150612e8083611d5e565b9250828202612e8e81611d5e565b91508282048414831517612ea557612ea4612317565b5b5092915050565b6000612eb782611d5e565b9150612ec283611d5e565b925082612ed257612ed16126df565b5b82820490509291505056fea2646970667358221220be1e8d4b0fd246be920aa71c0d89ec8ff00495bf593ebd4aae26c8083274991664736f6c63430008110033",
    "linkReferences": {}
  },
  "methodIdentifiers": {
    "OP()": "7c9c3472",
    "TM()": "ea344bf6",
    "_getPositionPnLAcrossMarkets(address)": "b413d6c9",
    "baseToken()": "c55dae63",
    "futureManager()": "de6c0823",
    "getBaseToken()": "98acd7a6",
    "getRealizedPnL(address)": "e91fad7f",
    "getUnrealizedPnL(address)": "544305bf",
    "getUnsettledAccounting(address)": "bb4a976f",
    "previewPosition(bytes)": "7ab5b15e",
    "settleFeeForMarket(address)": "50989a57",
    "settleRealizedAccounting(address)": "24d2343a",
    "toggleAddressWhitelisting(address,bool)": "9418b955",
    "verifyClose(address,address[],bytes[])": "130676f6",
    "verifyTrade(address,address[],bytes[])": "5104efaa"
  },
  "id": 36
}