{
  "abi": [
    {
      "inputs": [
        {
          "internalType": "address",
          "name": "_baseToken",
          "type": "address"
        },
        {
          "internalType": "address",
          "name": "_contractRegistry",
          "type": "address"
        }
      ],
      "stateMutability": "nonpayable",
      "type": "constructor"
    },
    {
      "inputs": [],
      "name": "OP",
      "outputs": [
        {
          "internalType": "bytes4",
          "name": "",
          "type": "bytes4"
        }
      ],
      "stateMutability": "view",
      "type": "function"
    },
    {
      "inputs": [],
      "name": "TM",
      "outputs": [
        {
          "internalType": "bytes4",
          "name": "",
          "type": "bytes4"
        }
      ],
      "stateMutability": "view",
      "type": "function"
    },
    {
      "inputs": [],
      "name": "baseToken",
      "outputs": [
        {
          "internalType": "address",
          "name": "",
          "type": "address"
        }
      ],
      "stateMutability": "view",
      "type": "function"
    },
    {
      "inputs": [],
      "name": "futureManager",
      "outputs": [
        {
          "internalType": "contract IFuturesMarketManager",
          "name": "",
          "type": "address"
        }
      ],
      "stateMutability": "view",
      "type": "function"
    },
    {
      "inputs": [],
      "name": "getBaseToken",
      "outputs": [
        {
          "internalType": "address",
          "name": "",
          "type": "address"
        }
      ],
      "stateMutability": "view",
      "type": "function"
    },
    {
      "inputs": [
        {
          "internalType": "address",
          "name": "account",
          "type": "address"
        }
      ],
      "name": "getPositionPnL",
      "outputs": [
        {
          "internalType": "int256",
          "name": "pnl",
          "type": "int256"
        }
      ],
      "stateMutability": "nonpayable",
      "type": "function"
    },
    {
      "inputs": [
        {
          "internalType": "bytes",
          "name": "data",
          "type": "bytes"
        }
      ],
      "name": "previewPosition",
      "outputs": [],
      "stateMutability": "nonpayable",
      "type": "function"
    },
    {
      "inputs": [
        {
          "internalType": "address",
          "name": "contractAddress",
          "type": "address"
        },
        {
          "internalType": "bool",
          "name": "isAllowed",
          "type": "bool"
        }
      ],
      "name": "toggleAddressWhitelisting",
      "outputs": [],
      "stateMutability": "nonpayable",
      "type": "function"
    },
    {
      "inputs": [
        {
          "internalType": "address",
          "name": "protocol",
          "type": "address"
        },
        {
          "internalType": "address[]",
          "name": "destinations",
          "type": "address[]"
        },
        {
          "internalType": "bytes[]",
          "name": "data",
          "type": "bytes[]"
        }
      ],
      "name": "verifyClose",
      "outputs": [
        {
          "internalType": "int256",
          "name": "amount",
          "type": "int256"
        },
        {
          "internalType": "int256",
          "name": "totalPosition",
          "type": "int256"
        },
        {
          "internalType": "uint256",
          "name": "fee",
          "type": "uint256"
        }
      ],
      "stateMutability": "nonpayable",
      "type": "function"
    },
    {
      "inputs": [
        {
          "internalType": "address",
          "name": "protocol",
          "type": "address"
        },
        {
          "internalType": "address[]",
          "name": "destinations",
          "type": "address[]"
        },
        {
          "internalType": "bytes[]",
          "name": "data",
          "type": "bytes[]"
        }
      ],
      "name": "verifyTrade",
      "outputs": [
        {
          "internalType": "int256",
          "name": "marginDelta",
          "type": "int256"
        },
        {
          "components": [
            {
              "internalType": "address",
              "name": "protocol",
              "type": "address"
            },
            {
              "internalType": "int256",
              "name": "openNotional",
              "type": "int256"
            },
            {
              "internalType": "int256",
              "name": "size",
              "type": "int256"
            }
          ],
          "internalType": "struct Position",
          "name": "position",
          "type": "tuple"
        },
        {
          "internalType": "uint256",
          "name": "fee",
          "type": "uint256"
        }
      ],
      "stateMutability": "view",
      "type": "function"
    }
  ],
  "bytecode": {
    "object": "0x608060405260018054600160a01b600160e81b03191668514515e04451e4240360a11b17905534801561003157600080fd5b5060405162001143380380620011438339810160408190526100529161011c565b600280546001600160a01b038084166001600160a01b0319928316179092556001805492851692909116821790556040805163313ce56760e01b8152905163313ce567916004808201926020929091908290030181865afa1580156100bb573d6000803e3d6000fd5b505050506040513d601f19601f820116820180604052508101906100df919061014f565b6001601d6101000a81548160ff021916908360ff1602179055505050610179565b80516001600160a01b038116811461011757600080fd5b919050565b6000806040838503121561012f57600080fd5b61013883610100565b915061014660208401610100565b90509250929050565b60006020828403121561016157600080fd5b815160ff8116811461017257600080fd5b9392505050565b610fba80620001896000396000f3fe608060405234801561001057600080fd5b506004361061009e5760003560e01c806398acd7a61161006657806398acd7a61461017f578063a773deb9146101a4578063c55dae63146101c5578063de6c0823146101d8578063ea344bf6146101eb57600080fd5b8063130676f6146100a35780635104efaa146100e05780637ab5b15e1461012c5780637c9c34721461013f5780639418b9551461016c575b600080fd5b6100c06100b1366004610a02565b60008060009450945094915050565b604080519384526020840192909252908201526060015b60405180910390f35b6100f36100ee366004610a02565b6101ff565b6040805193845282516001600160a01b03166020808601919091528301518482015291909101516060830152608082015260a0016100d7565b61013d61013a366004610ae0565b50565b005b60015461015390600160c81b900460e01b81565b6040516001600160e01b031990911681526020016100d7565b61013d61017a366004610b83565b610598565b6001546001600160a01b03165b6040516001600160a01b0390911681526020016100d7565b6101b76101b2366004610bbc565b6105d6565b6040519081526020016100d7565b60015461018c906001600160a01b031681565b60005461018c906001600160a01b031681565b60015461015390600160a81b900460e01b81565b604080516060810182526000808252602082018190529181018290528451600090849081146102645760405162461bcd60e51b815260206004820152600c60248201526b0e6d0deead8c840dac2e8c6d60a31b60448201526064015b60405180910390fd5b60005b8181101561058c576003600089838151811061028557610285610bd9565b6020908102919091018101516001600160a01b031682528101919091526040016000205460ff16151560011461030b5760405162461bcd60e51b815260206004820152602560248201527f50524d3a2043616c6c696e67206e6f6e2077686974656c697374656420636f6e6044820152641d1c9858dd60da1b606482015260840161025b565b600087878381811061031f5761031f610bd9565b90506020028101906103319190610bef565b61033a91610c36565b6001549091506001600160e01b0319600160a81b90910460e01b8116908216036103ae576103a788888481811061037357610373610bd9565b90506020028101906103859190610bef565b610393916004908290610c66565b8101906103a09190610c90565b8790610856565b9550610579565b6001546001600160e01b0319600160c81b90910460e01b8116908216036105315760008888848181106103e3576103e3610bd9565b90506020028101906103f59190610bef565b610403916004908290610c66565b8101906104109190610c90565b90506000808c6001600160a01b031663d24378eb6040518163ffffffff1660e01b81526004016040805180830381865afa158015610452573d6000803e3d6000fd5b505050506040513d601f19601f820116820180604052508101906104769190610ca9565b9150915080156104e55760405162461bcd60e51b815260206004820152603460248201527f4572726f72206665746368696e672061737365742070726963652066726f6d206044820152731d1a1a5c99081c185c9d1e481c1c9bdd1bd8dbdb60621b606482015260840161025b565b61050f6104fa670de0b6b3a764000084610cfa565b6105049085610d28565b60208a015190610856565b602089015260408801516105239084610856565b604089015250610579915050565b60405162461bcd60e51b815260206004820152601e60248201527f50524d3a20556e737570706f727465642046756e6374696f6e2063616c6c0000604482015260640161025b565b508061058481610d58565b915050610267565b50509450945094915050565b6001600160a01b0382166105ab57600080fd5b6001600160a01b03919091166000908152600360205260409020805460ff1916911515919091179055565b600254604051634ab0849360e11b81527f0d60a758dcc410973abaa125ce6458bd6a1d59eb466549e81b950c24e5f04d886004820152600091829182916001600160a01b031690639561092690602401602060405180830381865afa158015610643573d6000803e3d6000fd5b505050506040513d601f19601f820116820180604052508101906106679190610d71565b60405163f7a033e360e01b81523060048201526001600160a01b03919091169063f7a033e390602401600060405180830381865afa1580156106ad573d6000803e3d6000fd5b505050506040513d6000823e601f3d908101601f191682016040526106d59190810190610d8e565b805190915060005b818110156108205760008382815181106106f9576106f9610bd9565b60200260200101519050600080826001600160a01b0316631bf556d08a6040518263ffffffff1660e01b815260040161074191906001600160a01b0391909116815260200190565b6040805180830381865afa15801561075d573d6000803e3d6000fd5b505050506040513d601f19601f820116820180604052508101906107819190610ca9565b50604051632c4477eb60e21b81526001600160a01b038b811660048301529192509084169063b111dfac906024016040805180830381865afa1580156107cb573d6000803e3d6000fd5b505050506040513d601f19601f820116820180604052508101906107ef9190610ca9565b5091506107fc8883610856565b97506108088782610856565b9650505050808061081890610d58565b9150506106dd565b5060015461084d9060ff600160e81b8204811691600160a01b9004166108468787610856565b919061086b565b95945050505050565b60006108628284610e28565b90505b92915050565b60008160ff168360ff1603610881575082610917565b8160ff168360ff1610156108b5576108ae61089c8484610e48565b6108a790600a610f45565b859061091e565b9050610917565b60006108c18385610e48565b6108cc90600a610f45565b9050600080861280156108f15750816108e487610f54565b6108ee9190610f70565b15155b156108fb57506000195b60006109118261090b898661092a565b90610856565b93505050505b9392505050565b60006108628284610d28565b60006108628284610cfa565b6001600160a01b038116811461013a57600080fd5b634e487b7160e01b600052604160045260246000fd5b604051601f8201601f1916810167ffffffffffffffff8111828210171561098a5761098a61094b565b604052919050565b600067ffffffffffffffff8211156109ac576109ac61094b565b5060051b60200190565b60008083601f8401126109c857600080fd5b50813567ffffffffffffffff8111156109e057600080fd5b6020830191508360208260051b85010111156109fb57600080fd5b9250929050565b60008060008060608587031215610a1857600080fd5b8435610a2381610936565b935060208581013567ffffffffffffffff80821115610a4157600080fd5b818801915088601f830112610a5557600080fd5b8135610a68610a6382610992565b610961565b81815260059190911b8301840190848101908b831115610a8757600080fd5b938501935b82851015610aae578435610a9f81610936565b82529385019390850190610a8c565b975050506040880135925080831115610ac657600080fd5b5050610ad4878288016109b6565b95989497509550505050565b60006020808385031215610af357600080fd5b823567ffffffffffffffff80821115610b0b57600080fd5b818501915085601f830112610b1f57600080fd5b813581811115610b3157610b3161094b565b610b43601f8201601f19168501610961565b91508082528684828501011115610b5957600080fd5b8084840185840137600090820190930192909252509392505050565b801515811461013a57600080fd5b60008060408385031215610b9657600080fd5b8235610ba181610936565b91506020830135610bb181610b75565b809150509250929050565b600060208284031215610bce57600080fd5b813561091781610936565b634e487b7160e01b600052603260045260246000fd5b6000808335601e19843603018112610c0657600080fd5b83018035915067ffffffffffffffff821115610c2157600080fd5b6020019150368190038213156109fb57600080fd5b6001600160e01b03198135818116916004851015610c5e5780818660040360031b1b83161692505b505092915050565b60008085851115610c7657600080fd5b83861115610c8357600080fd5b5050820193919092039150565b600060208284031215610ca257600080fd5b5035919050565b60008060408385031215610cbc57600080fd5b825191506020830151610bb181610b75565b634e487b7160e01b600052601260045260246000fd5b634e487b7160e01b600052601160045260246000fd5b600082610d0957610d09610cce565b600160ff1b821460001984141615610d2357610d23610ce4565b500590565b80820260008212600160ff1b84141615610d4457610d44610ce4565b818105831482151761086557610865610ce4565b600060018201610d6a57610d6a610ce4565b5060010190565b600060208284031215610d8357600080fd5b815161091781610936565b60006020808385031215610da157600080fd5b825167ffffffffffffffff811115610db857600080fd5b8301601f81018513610dc957600080fd5b8051610dd7610a6382610992565b81815260059190911b82018301908381019087831115610df657600080fd5b928401925b82841015610e1d578351610e0e81610936565b82529284019290840190610dfb565b979650505050505050565b8082018281126000831280158216821582161715610c5e57610c5e610ce4565b60ff828116828216039081111561086557610865610ce4565b600181815b80851115610e9c578160001904821115610e8257610e82610ce4565b80851615610e8f57918102915b93841c9390800290610e66565b509250929050565b600082610eb357506001610865565b81610ec057506000610865565b8160018114610ed65760028114610ee057610efc565b6001915050610865565b60ff841115610ef157610ef1610ce4565b50506001821b610865565b5060208310610133831016604e8410600b8410161715610f1f575081810a610865565b610f298383610e61565b8060001904821115610f3d57610f3d610ce4565b029392505050565b600061086260ff841683610ea4565b6000600160ff1b8201610f6957610f69610ce4565b5060000390565b600082610f7f57610f7f610cce565b50069056fea264697066735822122012a71e996c0e7a0f31a2eb7d11faf5f7e04c74872effe02327c103602e1d166064736f6c63430008110033",
    "linkReferences": {}
  },
  "methodIdentifiers": {
    "OP()": "7c9c3472",
    "TM()": "ea344bf6",
    "baseToken()": "c55dae63",
    "futureManager()": "de6c0823",
    "getBaseToken()": "98acd7a6",
    "getPositionPnL(address)": "a773deb9",
    "previewPosition(bytes)": "7ab5b15e",
    "toggleAddressWhitelisting(address,bool)": "9418b955",
    "verifyClose(address,address[],bytes[])": "130676f6",
    "verifyTrade(address,address[],bytes[])": "5104efaa"
  },
  "id": 32
}