{
  "abi": [
    {
      "inputs": [
        {
          "internalType": "address",
          "name": "_baseToken",
          "type": "address"
        }
      ],
      "stateMutability": "nonpayable",
      "type": "constructor"
    },
    {
      "inputs": [],
      "name": "OP",
      "outputs": [
        {
          "internalType": "bytes4",
          "name": "",
          "type": "bytes4"
        }
      ],
      "stateMutability": "view",
      "type": "function"
    },
    {
      "inputs": [],
      "name": "TM",
      "outputs": [
        {
          "internalType": "bytes4",
          "name": "",
          "type": "bytes4"
        }
      ],
      "stateMutability": "view",
      "type": "function"
    },
    {
      "inputs": [
        {
          "internalType": "address",
          "name": "market",
          "type": "address"
        }
      ],
      "name": "addNewMarket",
      "outputs": [],
      "stateMutability": "nonpayable",
      "type": "function"
    },
    {
      "inputs": [
        {
          "internalType": "uint256",
          "name": "",
          "type": "uint256"
        }
      ],
      "name": "allowedMarkets",
      "outputs": [
        {
          "internalType": "address",
          "name": "",
          "type": "address"
        }
      ],
      "stateMutability": "view",
      "type": "function"
    },
    {
      "inputs": [],
      "name": "baseToken",
      "outputs": [
        {
          "internalType": "address",
          "name": "",
          "type": "address"
        }
      ],
      "stateMutability": "view",
      "type": "function"
    },
    {
      "inputs": [],
      "name": "futureManager",
      "outputs": [
        {
          "internalType": "contract IFuturesMarketManager",
          "name": "",
          "type": "address"
        }
      ],
      "stateMutability": "view",
      "type": "function"
    },
    {
      "inputs": [],
      "name": "getBaseToken",
      "outputs": [
        {
          "internalType": "address",
          "name": "",
          "type": "address"
        }
      ],
      "stateMutability": "view",
      "type": "function"
    },
    {
      "inputs": [
        {
          "internalType": "address",
          "name": "account",
          "type": "address"
        }
      ],
      "name": "getPositionPnL",
      "outputs": [
        {
          "internalType": "uint256",
          "name": "_marginDeposited",
          "type": "uint256"
        },
        {
          "internalType": "int256",
          "name": "pnl",
          "type": "int256"
        }
      ],
      "stateMutability": "nonpayable",
      "type": "function"
    },
    {
      "inputs": [
        {
          "internalType": "bytes",
          "name": "data",
          "type": "bytes"
        }
      ],
      "name": "previewPosition",
      "outputs": [],
      "stateMutability": "nonpayable",
      "type": "function"
    },
    {
      "inputs": [
        {
          "internalType": "address",
          "name": "protocol",
          "type": "address"
        },
        {
          "internalType": "address[]",
          "name": "destinations",
          "type": "address[]"
        },
        {
          "internalType": "bytes[]",
          "name": "data",
          "type": "bytes[]"
        }
      ],
      "name": "verifyClose",
      "outputs": [
        {
          "internalType": "int256",
          "name": "amount",
          "type": "int256"
        },
        {
          "internalType": "int256",
          "name": "totalPosition",
          "type": "int256"
        },
        {
          "internalType": "uint256",
          "name": "fee",
          "type": "uint256"
        }
      ],
      "stateMutability": "view",
      "type": "function"
    },
    {
      "inputs": [
        {
          "internalType": "address",
          "name": "protocol",
          "type": "address"
        },
        {
          "internalType": "address[]",
          "name": "destinations",
          "type": "address[]"
        },
        {
          "internalType": "bytes[]",
          "name": "data",
          "type": "bytes[]"
        }
      ],
      "name": "verifyTrade",
      "outputs": [
        {
          "internalType": "int256",
          "name": "amount",
          "type": "int256"
        },
        {
          "internalType": "int256",
          "name": "totalPosition",
          "type": "int256"
        },
        {
          "internalType": "uint256",
          "name": "fee",
          "type": "uint256"
        }
      ],
      "stateMutability": "view",
      "type": "function"
    }
  ],
  "bytecode": {
    "object": "0x608060405260018054600160a01b600160e81b03191668514515e04451e4240360a11b17905534801561003157600080fd5b506040516112cc3803806112cc833981016040819052610050916100ed565b600180546001600160a01b0319166001600160a01b0383169081179091556040805163313ce56760e01b8152905163313ce567916004808201926020929091908290030181865afa1580156100a9573d6000803e3d6000fd5b505050506040513d601f19601f820116820180604052508101906100cd919061011d565b6001601d6101000a81548160ff021916908360ff16021790555050610140565b6000602082840312156100ff57600080fd5b81516001600160a01b038116811461011657600080fd5b9392505050565b60006020828403121561012f57600080fd5b815160ff8116811461011657600080fd5b61117d8061014f6000396000f3fe608060405234801561001057600080fd5b50600436106100a95760003560e01c806398acd7a61161007157806398acd7a61461015f578063a773deb914610170578063c55dae6314610198578063ce2d1409146101ab578063de6c08231461020b578063ea344bf61461021e57600080fd5b8063128c13d5146100ae578063130676f6146100de5780635104efaa1461010c5780637ab5b15e1461011f5780637c9c347214610132575b600080fd5b6100c16100bc366004610af5565b610232565b6040516001600160a01b0390911681526020015b60405180910390f35b6100f16100ec366004610bbd565b61025c565b604080519384526020840192909252908201526060016100d5565b6100f161011a366004610bbd565b61027d565b61013061012d366004610ca1565b50565b005b60015461014690600160c81b900460e01b81565b6040516001600160e01b031990911681526020016100d5565b6001546001600160a01b03166100c1565b61018361017e366004610d36565b61052d565b604080519283526020830191909152016100d5565b6001546100c1906001600160a01b031681565b6101306101b9366004610d36565b600280546001810182556000919091527f405787fa12a823e0f2b7631cc41b3ba8828b3321ca811111fa75cd3aa3bb5ace0180546001600160a01b0319166001600160a01b0392909216919091179055565b6000546100c1906001600160a01b031681565b60015461014690600160a81b900460e01b81565b6002818154811061024257600080fd5b6000918252602090912001546001600160a01b0316905081565b600080600061026d8787878761027d565b9199909850909650945050505050565b600080808061028b856107b4565b90508060ff1661029b88516107b4565b60ff16146102df5760405162461bcd60e51b815260206004820152600c60248201526b0e6d0deead8c840dac2e8c6d60a31b60448201526064015b60405180910390fd5b60005b8160ff168160ff16101561041c57600087878360ff1681811061030757610307610d51565b90506020028101906103199190610d67565b61032291610dae565b6001549091506001600160e01b0319600160a81b90910460e01b8116908216036103b3576001546103ac9060ff600160e81b8204811691600160a01b90048116908b908b90871681811061037857610378610d51565b905060200281019061038a9190610d67565b610398916004908290610dde565b8101906103a59190610af5565b9190610819565b9550610409565b6001546001600160e01b0319600160c81b90910460e01b811690821603610409576001546104069060ff600160e81b8204811691600160a01b90048116908b908b90871681811061037857610378610d51565b94505b508061041481610e1e565b9150506102e2565b506000886001600160a01b031663d24378eb6040518163ffffffff1660e01b81526004016040805180830381865afa15801561045c573d6000803e3d6000fd5b505050506040513d601f19601f820116820180604052508101906104809190610e4d565b50604051631906652f60e01b8152600481018690529091506001600160a01b038a1690631906652f906024016040805180830381865afa1580156104c8573d6000803e3d6000fd5b505050506040513d601f19601f820116820180604052508101906104ec9190610e4d565b5060015490935061050a908290600160e81b900460ff1660006108c2565b905061051f61051882610930565b859061099a565b935050509450945094915050565b6000806000806105416002805490506107b4565b905060005b8160ff168160ff16101561078057600060028260ff168154811061056c5761056c610d51565b60009182526020822001546040516301bf556d60e41b81526001600160a01b038a81166004830152909116925081908390631bf556d0906024016040805180830381865afa1580156105c2573d6000803e3d6000fd5b505050506040513d601f19601f820116820180604052508101906105e69190610e4d565b50604051632c4477eb60e21b81526001600160a01b038b811660048301529192509084169063b111dfac906024016040805180830381865afa158015610630573d6000803e3d6000fd5b505050506040513d601f19601f820116820180604052508101906106549190610e4d565b509150600082121561068d5761068d6040518060400160405280600c81526020016b1b9959d85d1a5d99481c1b9b60a21b8152506109af565b60008112156106c8576106c8604051806040016040528060118152602001706e65676174697665205f66756e64696e6760781b8152506109af565b6107216106d4836109f2565b604051806040016040528060048152602001630e9c1b9b60e21b81525060028760ff168154811061070757610707610d51565b6000918252602090912001546001600160a01b0316610a03565b61072b8783610a4f565b965061075e6040518060400160405280600781526020016666756e64696e6760c81b815250610759886109f2565b610a5b565b6107688682610a4f565b9550505050808061077890610e1e565b915050610546565b506001546000906107a99060ff600160e81b8204811691600160a01b9004166103a58787610aa4565b935093505050915091565b600060ff8211156108155760405162461bcd60e51b815260206004820152602560248201527f53616665436173743a2076616c756520646f65736e27742066697420696e2038604482015264206269747360d81b60648201526084016102d6565b5090565b60008160ff168360ff160361082f5750826108bb565b8160ff168360ff16101561085c5761085561084a8484610e79565b61051890600a610f76565b90506108bb565b60006108688385610e79565b61087390600a610f76565b90506000808612801561089857508161088b87610f85565b6108959190610fb7565b15155b156108a257506000195b6108b6816108b08885610ab0565b90610a4f565b925050505b9392505050565b60008160ff168360ff16036108d85750826108bb565b8160ff168360ff1611610909576109046108f28484610e79565b6108fd90600a610f76565b8590610abc565b610928565b6109286109168385610e79565b61092190600a610f76565b8590610ac8565b949350505050565b60006001600160ff1b038211156108155760405162461bcd60e51b815260206004820152602860248201527f53616665436173743a2076616c756520646f65736e27742066697420696e2061604482015267371034b73a191a9b60c11b60648201526084016102d6565b60006109a68284610fcb565b90505b92915050565b61012d816040516024016109c39190611041565b60408051601f198184030181529190526020810180516001600160e01b031663104c13eb60e21b179052610ad4565b600080821215610815575060000390565b610a4a838383604051602401610a1b93929190611054565b60408051601f198184030181529190526020810180516001600160e01b0316637afac95960e01b179052610ad4565b505050565b60006109a68284611085565b610aa08282604051602401610a719291906110a5565b60408051601f198184030181529190526020810180516001600160e01b0316632d839cb360e21b179052610ad4565b5050565b60006109a682846110c7565b60006109a682846110ee565b60006109a6828461111c565b60006109a68284611133565b80516a636f6e736f6c652e6c6f67602083016000808483855afa5050505050565b600060208284031215610b0757600080fd5b5035919050565b80356001600160a01b0381168114610b2557600080fd5b919050565b634e487b7160e01b600052604160045260246000fd5b604051601f8201601f1916810167ffffffffffffffff81118282101715610b6957610b69610b2a565b604052919050565b60008083601f840112610b8357600080fd5b50813567ffffffffffffffff811115610b9b57600080fd5b6020830191508360208260051b8501011115610bb657600080fd5b9250929050565b60008060008060608587031215610bd357600080fd5b610bdc85610b0e565b935060208086013567ffffffffffffffff80821115610bfa57600080fd5b818801915088601f830112610c0e57600080fd5b813581811115610c2057610c20610b2a565b8060051b610c2f858201610b40565b918252838101850191858101908c841115610c4957600080fd5b948601945b83861015610c6e57610c5f86610b0e565b82529486019490860190610c4e565b98505050506040880135925080831115610c8757600080fd5b5050610c9587828801610b71565b95989497509550505050565b60006020808385031215610cb457600080fd5b823567ffffffffffffffff80821115610ccc57600080fd5b818501915085601f830112610ce057600080fd5b813581811115610cf257610cf2610b2a565b610d04601f8201601f19168501610b40565b91508082528684828501011115610d1a57600080fd5b8084840185840137600090820190930192909252509392505050565b600060208284031215610d4857600080fd5b6109a682610b0e565b634e487b7160e01b600052603260045260246000fd5b6000808335601e19843603018112610d7e57600080fd5b83018035915067ffffffffffffffff821115610d9957600080fd5b602001915036819003821315610bb657600080fd5b6001600160e01b03198135818116916004851015610dd65780818660040360031b1b83161692505b505092915050565b60008085851115610dee57600080fd5b83861115610dfb57600080fd5b5050820193919092039150565b634e487b7160e01b600052601160045260246000fd5b600060ff821660ff8103610e3457610e34610e08565b60010192915050565b80518015158114610b2557600080fd5b60008060408385031215610e6057600080fd5b82519150610e7060208401610e3d565b90509250929050565b60ff82811682821603908111156109a9576109a9610e08565b600181815b80851115610ecd578160001904821115610eb357610eb3610e08565b80851615610ec057918102915b93841c9390800290610e97565b509250929050565b600082610ee4575060016109a9565b81610ef1575060006109a9565b8160018114610f075760028114610f1157610f2d565b60019150506109a9565b60ff841115610f2257610f22610e08565b50506001821b6109a9565b5060208310610133831016604e8410600b8410161715610f50575081810a6109a9565b610f5a8383610e92565b8060001904821115610f6e57610f6e610e08565b029392505050565b60006109a660ff841683610ed5565b6000600160ff1b8201610f9a57610f9a610e08565b5060000390565b634e487b7160e01b600052601260045260246000fd5b600082610fc657610fc6610fa1565b500690565b80820260008212600160ff1b84141615610fe757610fe7610e08565b81810583148215176109a9576109a9610e08565b6000815180845260005b8181101561102157602081850181015186830182015201611005565b506000602082860101526020601f19601f83011685010191505092915050565b6020815260006109a66020830184610ffb565b83815260606020820152600061106d6060830185610ffb565b905060018060a01b0383166040830152949350505050565b8082018281126000831280158216821582161715610dd657610dd6610e08565b6040815260006110b86040830185610ffb565b90508260208301529392505050565b81810360008312801583831316838312821617156110e7576110e7610e08565b5092915050565b6000826110fd576110fd610fa1565b600160ff1b82146000198414161561111757611117610e08565b500590565b80820281158282048414176109a9576109a9610e08565b60008261114257611142610fa1565b50049056fea2646970667358221220757bc14a3434a02b8df96c880a2fdb4e34ced86d117d620d501c1ee4e296ddfd64736f6c63430008110033",
    "linkReferences": {}
  },
  "methodIdentifiers": {
    "OP()": "7c9c3472",
    "TM()": "ea344bf6",
    "addNewMarket(address)": "ce2d1409",
    "allowedMarkets(uint256)": "128c13d5",
    "baseToken()": "c55dae63",
    "futureManager()": "de6c0823",
    "getBaseToken()": "98acd7a6",
    "getPositionPnL(address)": "a773deb9",
    "previewPosition(bytes)": "7ab5b15e",
    "verifyClose(address,address[],bytes[])": "130676f6",
    "verifyTrade(address,address[],bytes[])": "5104efaa"
  },
  "id": 49
}