{
  "abi": [
    {
      "inputs": [
        {
          "internalType": "address",
          "name": "_baseToken",
          "type": "address"
        },
        {
          "internalType": "address",
          "name": "_contractRegistry",
          "type": "address"
        },
        {
          "internalType": "uint8",
          "name": "_vaultAssetDecimals",
          "type": "uint8"
        }
      ],
      "stateMutability": "nonpayable",
      "type": "constructor"
    },
    {
      "inputs": [],
      "name": "OP",
      "outputs": [
        {
          "internalType": "bytes4",
          "name": "",
          "type": "bytes4"
        }
      ],
      "stateMutability": "view",
      "type": "function"
    },
    {
      "inputs": [],
      "name": "TM",
      "outputs": [
        {
          "internalType": "bytes4",
          "name": "",
          "type": "bytes4"
        }
      ],
      "stateMutability": "view",
      "type": "function"
    },
    {
      "inputs": [
        {
          "internalType": "address",
          "name": "account",
          "type": "address"
        }
      ],
      "name": "_getPositionPnLAcrossMarkets",
      "outputs": [
        {
          "internalType": "int256",
          "name": "pnl",
          "type": "int256"
        }
      ],
      "stateMutability": "nonpayable",
      "type": "function"
    },
    {
      "inputs": [],
      "name": "baseToken",
      "outputs": [
        {
          "internalType": "address",
          "name": "",
          "type": "address"
        }
      ],
      "stateMutability": "view",
      "type": "function"
    },
    {
      "inputs": [],
      "name": "futureManager",
      "outputs": [
        {
          "internalType": "contract IFuturesMarketManager",
          "name": "",
          "type": "address"
        }
      ],
      "stateMutability": "view",
      "type": "function"
    },
    {
      "inputs": [],
      "name": "getBaseToken",
      "outputs": [
        {
          "internalType": "address",
          "name": "",
          "type": "address"
        }
      ],
      "stateMutability": "view",
      "type": "function"
    },
    {
      "inputs": [
        {
          "internalType": "address",
          "name": "marginAccount",
          "type": "address"
        }
      ],
      "name": "getRealizedPnL",
      "outputs": [
        {
          "internalType": "int256",
          "name": "",
          "type": "int256"
        }
      ],
      "stateMutability": "nonpayable",
      "type": "function"
    },
    {
      "inputs": [
        {
          "internalType": "address",
          "name": "marginAccount",
          "type": "address"
        }
      ],
      "name": "getUnrealizedPnL",
      "outputs": [
        {
          "internalType": "int256",
          "name": "unrealizedPnL",
          "type": "int256"
        }
      ],
      "stateMutability": "nonpayable",
      "type": "function"
    },
    {
      "inputs": [
        {
          "internalType": "address",
          "name": "marginAccount",
          "type": "address"
        }
      ],
      "name": "getUnsettledAccounting",
      "outputs": [],
      "stateMutability": "nonpayable",
      "type": "function"
    },
    {
      "inputs": [
        {
          "internalType": "bytes",
          "name": "data",
          "type": "bytes"
        }
      ],
      "name": "previewPosition",
      "outputs": [],
      "stateMutability": "nonpayable",
      "type": "function"
    },
    {
      "inputs": [
        {
          "internalType": "address",
          "name": "account",
          "type": "address"
        }
      ],
      "name": "settleFeeForMarket",
      "outputs": [
        {
          "internalType": "int256",
          "name": "",
          "type": "int256"
        }
      ],
      "stateMutability": "nonpayable",
      "type": "function"
    },
    {
      "inputs": [
        {
          "internalType": "address",
          "name": "marginAccount",
          "type": "address"
        }
      ],
      "name": "settleRealizedAccounting",
      "outputs": [],
      "stateMutability": "nonpayable",
      "type": "function"
    },
    {
      "inputs": [
        {
          "internalType": "address",
          "name": "contractAddress",
          "type": "address"
        },
        {
          "internalType": "bool",
          "name": "isAllowed",
          "type": "bool"
        }
      ],
      "name": "toggleAddressWhitelisting",
      "outputs": [],
      "stateMutability": "nonpayable",
      "type": "function"
    },
    {
      "inputs": [
        {
          "internalType": "address",
          "name": "protocol",
          "type": "address"
        },
        {
          "internalType": "address[]",
          "name": "destinations",
          "type": "address[]"
        },
        {
          "internalType": "bytes[]",
          "name": "data",
          "type": "bytes[]"
        }
      ],
      "name": "verifyClose",
      "outputs": [
        {
          "internalType": "int256",
          "name": "amount",
          "type": "int256"
        },
        {
          "internalType": "int256",
          "name": "totalPosition",
          "type": "int256"
        },
        {
          "internalType": "uint256",
          "name": "fee",
          "type": "uint256"
        }
      ],
      "stateMutability": "nonpayable",
      "type": "function"
    },
    {
      "inputs": [
        {
          "internalType": "address",
          "name": "protocol",
          "type": "address"
        },
        {
          "internalType": "address[]",
          "name": "destinations",
          "type": "address[]"
        },
        {
          "internalType": "bytes[]",
          "name": "data",
          "type": "bytes[]"
        }
      ],
      "name": "verifyTrade",
      "outputs": [
        {
          "internalType": "int256",
          "name": "marginDelta",
          "type": "int256"
        },
        {
          "components": [
            {
              "internalType": "address",
              "name": "protocol",
              "type": "address"
            },
            {
              "internalType": "int256",
              "name": "openNotional",
              "type": "int256"
            },
            {
              "internalType": "int256",
              "name": "size",
              "type": "int256"
            },
            {
              "internalType": "uint256",
              "name": "orderFee",
              "type": "uint256"
            }
          ],
          "internalType": "struct Position",
          "name": "position",
          "type": "tuple"
        }
      ],
      "stateMutability": "view",
      "type": "function"
    }
  ],
  "bytecode": {
    "object": "0x60806040526388a3c84860e01b600160156101000a81548163ffffffff021916908360e01c021790555063a28a2bc060e01b600160196101000a81548163ffffffff021916908360e01c02179055503480156200005b57600080fd5b50604051620031fa380380620031fa83398181016040528101906200008191906200025b565b81600260006101000a81548173ffffffffffffffffffffffffffffffffffffffff021916908373ffffffffffffffffffffffffffffffffffffffff16021790555080600160146101000a81548160ff021916908360ff16021790555082600160006101000a81548173ffffffffffffffffffffffffffffffffffffffff021916908373ffffffffffffffffffffffffffffffffffffffff1602179055508273ffffffffffffffffffffffffffffffffffffffff1663313ce5676040518163ffffffff1660e01b8152600401602060405180830381865afa1580156200016a573d6000803e3d6000fd5b505050506040513d601f19601f82011682018060405250810190620001909190620002b7565b6001601d6101000a81548160ff021916908360ff160217905550505050620002e9565b600080fd5b600073ffffffffffffffffffffffffffffffffffffffff82169050919050565b6000620001e582620001b8565b9050919050565b620001f781620001d8565b81146200020357600080fd5b50565b6000815190506200021781620001ec565b92915050565b600060ff82169050919050565b62000235816200021d565b81146200024157600080fd5b50565b60008151905062000255816200022a565b92915050565b600080600060608486031215620002775762000276620001b3565b5b6000620002878682870162000206565b93505060206200029a8682870162000206565b9250506040620002ad8682870162000244565b9150509250925092565b600060208284031215620002d057620002cf620001b3565b5b6000620002e08482850162000244565b91505092915050565b612f0180620002f96000396000f3fe608060405234801561001057600080fd5b50600436106100f55760003560e01c80639418b95511610097578063c55dae6311610066578063c55dae6314610299578063de6c0823146102b7578063e91fad7f146102d5578063ea344bf614610305576100f5565b80639418b9551461021357806398acd7a61461022f578063b413d6c91461024d578063bb4a976f1461027d576100f5565b80635104efaa116100d35780635104efaa14610178578063544305bf146101a95780637ab5b15e146101d95780637c9c3472146101f5576100f5565b8063130676f6146100fa57806324d2343a1461012c57806350989a5714610148575b600080fd5b610114600480360381019061010f9190611c11565b610323565b60405161012393929190611cd3565b60405180910390f35b61014660048036038101906101419190611d0a565b610332565b005b610162600480360381019061015d9190611d0a565b610335565b60405161016f9190611d37565b60405180910390f35b610192600480360381019061018d9190611c11565b61072b565b6040516101a0929190611dd4565b60405180910390f35b6101c360048036038101906101be9190611d0a565b610bb1565b6040516101d09190611d37565b60405180910390f35b6101f360048036038101906101ee9190611eb2565b610be4565b005b6101fd610be7565b60405161020a9190611f36565b60405180910390f35b61022d60048036038101906102289190611f89565b610bfa565b005b610237610c8e565b6040516102449190611fd8565b60405180910390f35b61026760048036038101906102629190611d0a565b610cb8565b6040516102749190611d37565b60405180910390f35b61029760048036038101906102929190611d0a565b610f0e565b005b6102a1610f11565b6040516102ae9190611fd8565b60405180910390f35b6102bf610f37565b6040516102cc9190612052565b60405180910390f35b6102ef60048036038101906102ea9190611d0a565b610f5b565b6040516102fc9190611d37565b60405180910390f35b61030d610f6d565b60405161031a9190611f36565b60405180910390f35b60008060009450945094915050565b50565b600080600080600260009054906101000a900473ffffffffffffffffffffffffffffffffffffffff1673ffffffffffffffffffffffffffffffffffffffff1663956109267f0d60a758dcc410973abaa125ce6458bd6a1d59eb466549e81b950c24e5f04d886040518263ffffffff1660e01b81526004016103b69190612086565b602060405180830381865afa1580156103d3573d6000803e3d6000fd5b505050506040513d601f19601f820116820180604052508101906103f791906120b6565b73ffffffffffffffffffffffffffffffffffffffff1663f7a033e3306040518263ffffffff1660e01b815260040161042f9190611fd8565b600060405180830381865afa15801561044c573d6000803e3d6000fd5b505050506040513d6000823e3d601f19601f82011682018060405250810190610475919061217a565b905060006104838251610f80565b905060005b8160ff168160ff1610156106ce576000838260ff16815181106104ae576104ad6121c3565b5b602002602001015190506000808273ffffffffffffffffffffffffffffffffffffffff16631bf556d08b6040518263ffffffff1660e01b81526004016104f49190611fd8565b6040805180830381865afa158015610510573d6000803e3d6000fd5b505050506040513d601f19601f820116820180604052508101906105349190612233565b50809150508273ffffffffffffffffffffffffffffffffffffffff1663b111dfac8b6040518263ffffffff1660e01b81526004016105729190611fd8565b6040805180830381865afa15801561058e573d6000803e3d6000fd5b505050506040513d601f19601f820116820180604052508101906105b29190612233565b508092505060008812156105ff576105fe6040518060400160405280600c81526020017f6e6567617469766520706e6c0000000000000000000000000000000000000000815250610fd0565b5b6000811215610647576106466040518060400160405280601181526020017f6e65676174697665205f66756e64696e67000000000000000000000000000000815250610fd0565b5b61065a828861106990919063ffffffff16565b96506106a36040518060400160405280600781526020017f66756e64696e670000000000000000000000000000000000000000000000000081525061069e8a61107f565b61109b565b6106b6818961106990919063ffffffff16565b975050505080806106c6906122af565b915050610488565b5061071f6040518060400160405280601a81526020017f66756e64696e6720616e6420706e6c20736574746c65206665650000000000008152506107118661107f565b61071a8661107f565b611137565b83945050505050919050565b60006107356119ad565b600084849050905080865114610780576040517f08c379a000000000000000000000000000000000000000000000000000000000815260040161077790612335565b60405180910390fd5b60005b81811015610ba65760011515600360008984815181106107a6576107a56121c3565b5b602002602001015173ffffffffffffffffffffffffffffffffffffffff1673ffffffffffffffffffffffffffffffffffffffff16815260200190815260200160002060009054906101000a900460ff16151514610838576040517f08c379a000000000000000000000000000000000000000000000000000000000815260040161082f906123c7565b60405180910390fd5b600086868381811061084d5761084c6121c3565b5b905060200281019061085f91906123f6565b9061086a9190612471565b9050600160159054906101000a900460e01b7bffffffffffffffffffffffffffffffffffffffffffffffffffffffff1916817bffffffffffffffffffffffffffffffffffffffffffffffffffffffff19160361091c576109158787848181106108d6576108d56121c3565b5b90506020028101906108e891906123f6565b60049080926108f9939291906124da565b810190610906919061252a565b8661106990919063ffffffff16565b9450610b92565b600160199054906101000a900460e01b7bffffffffffffffffffffffffffffffffffffffffffffffffffffffff1916817bffffffffffffffffffffffffffffffffffffffffffffffffffffffff191603610b56576000878784818110610985576109846121c3565b5b905060200281019061099791906123f6565b60049080926109a8939291906124da565b8101906109b5919061252a565b90506000808b73ffffffffffffffffffffffffffffffffffffffff1663d24378eb6040518163ffffffff1660e01b81526004016040805180830381865afa158015610a04573d6000803e3d6000fd5b505050506040513d601f19601f82011682018060405250810190610a289190612583565b915091508015610a6d576040517f08c379a0000000000000000000000000000000000000000000000000000000008152600401610a6490612635565b60405180910390fd5b610aa2670de0b6b3a76400008385610a859190612655565b610a8f91906126fc565b886020015161106990919063ffffffff16565b876020018181525050610ac283886040015161106990919063ffffffff16565b8760400181815250508b73ffffffffffffffffffffffffffffffffffffffff16631906652f846040518263ffffffff1660e01b8152600401610b049190611d37565b6040805180830381865afa158015610b20573d6000803e3d6000fd5b505050506040513d601f19601f82011682018060405250810190610b449190612583565b50876060018181525050505050610b91565b6040517f08c379a0000000000000000000000000000000000000000000000000000000008152600401610b88906127b2565b60405180910390fd5b5b508080610b9e906127d2565b915050610783565b505094509492505050565b6000610bbc826111d6565b81610bc7919061281a565b9050610bd282610cb8565b81610bdd919061281a565b9050919050565b50565b600160199054906101000a900460e01b81565b600073ffffffffffffffffffffffffffffffffffffffff168273ffffffffffffffffffffffffffffffffffffffff1603610c3357600080fd5b80600360008473ffffffffffffffffffffffffffffffffffffffff1673ffffffffffffffffffffffffffffffffffffffff16815260200190815260200160002060006101000a81548160ff0219169083151502179055505050565b6000600160009054906101000a900473ffffffffffffffffffffffffffffffffffffffff16905090565b600080600260009054906101000a900473ffffffffffffffffffffffffffffffffffffffff1673ffffffffffffffffffffffffffffffffffffffff1663956109267f0d60a758dcc410973abaa125ce6458bd6a1d59eb466549e81b950c24e5f04d886040518263ffffffff1660e01b8152600401610d369190612086565b602060405180830381865afa158015610d53573d6000803e3d6000fd5b505050506040513d601f19601f82011682018060405250810190610d7791906120b6565b73ffffffffffffffffffffffffffffffffffffffff1663f7a033e3306040518263ffffffff1660e01b8152600401610daf9190611fd8565b600060405180830381865afa158015610dcc573d6000803e3d6000fd5b505050506040513d6000823e3d601f19601f82011682018060405250810190610df5919061217a565b905060008151905060005b81811015610ed1576000838281518110610e1d57610e1c6121c3565b5b6020026020010151905060008173ffffffffffffffffffffffffffffffffffffffff1663b111dfac886040518263ffffffff1660e01b8152600401610e629190611fd8565b6040805180830381865afa158015610e7e573d6000803e3d6000fd5b505050506040513d601f19601f82011682018060405250810190610ea29190612233565b5080915050610eba818761106990919063ffffffff16565b955050508080610ec9906127d2565b915050610e00565b50610f056001601d9054906101000a900460ff16600160149054906101000a900460ff16856114269092919063ffffffff16565b92505050919050565b50565b600160009054906101000a900473ffffffffffffffffffffffffffffffffffffffff1681565b60008054906101000a900473ffffffffffffffffffffffffffffffffffffffff1681565b6000610f668261151e565b9050919050565b600160159054906101000a900460e01b81565b600060ff8016821115610fc8576040517f08c379a0000000000000000000000000000000000000000000000000000000008152600401610fbf906128d0565b60405180910390fd5b819050919050565b61106681604051602401610fe4919061295e565b6040516020818303038152906040527f41304fac000000000000000000000000000000000000000000000000000000007bffffffffffffffffffffffffffffffffffffffffffffffffffffffff19166020820180517bffffffffffffffffffffffffffffffffffffffffffffffffffffffff8381831617835250505050611821565b50565b60008183611077919061281a565b905092915050565b6000808212156110925781600003611094565b815b9050919050565b61113382826040516024016110b1929190612980565b6040516020818303038152906040527fb60e72cc000000000000000000000000000000000000000000000000000000007bffffffffffffffffffffffffffffffffffffffffffffffffffffffff19166020820180517bffffffffffffffffffffffffffffffffffffffffffffffffffffffff8381831617835250505050611821565b5050565b6111d183838360405160240161114f939291906129b0565b6040516020818303038152906040527fca47c4eb000000000000000000000000000000000000000000000000000000007bffffffffffffffffffffffffffffffffffffffffffffffffffffffff19166020820180517bffffffffffffffffffffffffffffffffffffffffffffffffffffffff8381831617835250505050611821565b505050565b600080600260009054906101000a900473ffffffffffffffffffffffffffffffffffffffff1673ffffffffffffffffffffffffffffffffffffffff1663956109267f0d60a758dcc410973abaa125ce6458bd6a1d59eb466549e81b950c24e5f04d886040518263ffffffff1660e01b81526004016112549190612086565b602060405180830381865afa158015611271573d6000803e3d6000fd5b505050506040513d601f19601f8201168201806040525081019061129591906120b6565b73ffffffffffffffffffffffffffffffffffffffff1663f7a033e3306040518263ffffffff1660e01b81526004016112cd9190611fd8565b600060405180830381865afa1580156112ea573d6000803e3d6000fd5b505050506040513d6000823e3d601f19601f82011682018060405250810190611313919061217a565b905060008151905060005b818110156113e957600083828151811061133b5761133a6121c3565b5b602002602001015190506000808273ffffffffffffffffffffffffffffffffffffffff16631bf556d0896040518263ffffffff1660e01b81526004016113819190611fd8565b6040805180830381865afa15801561139d573d6000803e3d6000fd5b505050506040513d601f19601f820116820180604052508101906113c19190612233565b9150915081876113d1919061281a565b965050505080806113e1906127d2565b91505061131e565b5061141d6001601d9054906101000a900460ff16600160149054906101000a900460ff16856114269092919063ffffffff16565b92505050919050565b60008160ff168360ff160361143d57839050611517565b8160ff168360ff16101561147c57611475838361145a91906129ee565b600a6114669190612b56565b8561184a90919063ffffffff16565b9050611517565b6000828461148a91906129ee565b600a6114969190612b56565b9050600080861280156114be5750600082876114b190612ba1565b6114bb9190612be9565b14155b156114e7577fffffffffffffffffffffffffffffffffffffffffffffffffffffffffffffffff90505b600061150e82611500858a61186090919063ffffffff16565b61187690919063ffffffff16565b90508093505050505b9392505050565b600080600260009054906101000a900473ffffffffffffffffffffffffffffffffffffffff1673ffffffffffffffffffffffffffffffffffffffff1663956109267f0d60a758dcc410973abaa125ce6458bd6a1d59eb466549e81b950c24e5f04d886040518263ffffffff1660e01b815260040161159c9190612086565b602060405180830381865afa1580156115b9573d6000803e3d6000fd5b505050506040513d601f19601f820116820180604052508101906115dd91906120b6565b73ffffffffffffffffffffffffffffffffffffffff1663f7a033e3306040518263ffffffff1660e01b81526004016116159190611fd8565b600060405180830381865afa158015611632573d6000803e3d6000fd5b505050506040513d6000823e3d601f19601f8201168201806040525081019061165b919061217a565b905060005b815181101561181a57600082828151811061167e5761167d6121c3565b5b602002602001015173ffffffffffffffffffffffffffffffffffffffff166355f57510866040518263ffffffff1660e01b81526004016116be9190611fd8565b60a060405180830381865afa1580156116db573d6000803e3d6000fd5b505050506040513d601f19601f820116820180604052508101906116ff9190612cdb565b50506fffffffffffffffffffffffffffffffff169250505061174a6001601d9054906101000a900460ff16600160149054906101000a900460ff168361188c9092919063ffffffff16565b905060008573ffffffffffffffffffffffffffffffffffffffff1663c0cb2d2585858151811061177d5761177c6121c3565b5b60200260200101516040518263ffffffff1660e01b81526004016117a19190611fd8565b602060405180830381865afa1580156117be573d6000803e3d6000fd5b505050506040513d601f19601f820116820180604052508101906117e29190612d56565b9050806117ee83611914565b6117f89190612d83565b85611803919061281a565b945050508080611812906127d2565b915050611660565b5050919050565b60008151905060006a636f6e736f6c652e6c6f679050602083016000808483855afa5050505050565b600081836118589190612655565b905092915050565b6000818361186e91906126fc565b905092915050565b60008183611884919061281a565b905092915050565b60008160ff168360ff16036118a35783905061190d565b8160ff168360ff16116118df576118da83836118bf91906129ee565b600a6118cb9190612b56565b8561198190919063ffffffff16565b61190a565b61190982846118ee91906129ee565b600a6118fa9190612b56565b8561199790919063ffffffff16565b5b90505b9392505050565b60007f7fffffffffffffffffffffffffffffffffffffffffffffffffffffffffffffff821115611979576040517f08c379a000000000000000000000000000000000000000000000000000000000815260040161197090612e38565b60405180910390fd5b819050919050565b6000818361198f9190612e58565b905092915050565b600081836119a59190612e9a565b905092915050565b6040518060800160405280600073ffffffffffffffffffffffffffffffffffffffff1681526020016000815260200160008152602001600081525090565b6000604051905090565b600080fd5b600080fd5b600073ffffffffffffffffffffffffffffffffffffffff82169050919050565b6000611a2a826119ff565b9050919050565b611a3a81611a1f565b8114611a4557600080fd5b50565b600081359050611a5781611a31565b92915050565b600080fd5b6000601f19601f8301169050919050565b7f4e487b7100000000000000000000000000000000000000000000000000000000600052604160045260246000fd5b611aab82611a62565b810181811067ffffffffffffffff82111715611aca57611ac9611a73565b5b80604052505050565b6000611add6119eb565b9050611ae98282611aa2565b919050565b600067ffffffffffffffff821115611b0957611b08611a73565b5b602082029050602081019050919050565b600080fd5b6000611b32611b2d84611aee565b611ad3565b90508083825260208201905060208402830185811115611b5557611b54611b1a565b5b835b81811015611b7e5780611b6a8882611a48565b845260208401935050602081019050611b57565b5050509392505050565b600082601f830112611b9d57611b9c611a5d565b5b8135611bad848260208601611b1f565b91505092915050565b600080fd5b60008083601f840112611bd157611bd0611a5d565b5b8235905067ffffffffffffffff811115611bee57611bed611bb6565b5b602083019150836020820283011115611c0a57611c09611b1a565b5b9250929050565b60008060008060608587031215611c2b57611c2a6119f5565b5b6000611c3987828801611a48565b945050602085013567ffffffffffffffff811115611c5a57611c596119fa565b5b611c6687828801611b88565b935050604085013567ffffffffffffffff811115611c8757611c866119fa565b5b611c9387828801611bbb565b925092505092959194509250565b6000819050919050565b611cb481611ca1565b82525050565b6000819050919050565b611ccd81611cba565b82525050565b6000606082019050611ce86000830186611cab565b611cf56020830185611cab565b611d026040830184611cc4565b949350505050565b600060208284031215611d2057611d1f6119f5565b5b6000611d2e84828501611a48565b91505092915050565b6000602082019050611d4c6000830184611cab565b92915050565b611d5b81611a1f565b82525050565b611d6a81611ca1565b82525050565b611d7981611cba565b82525050565b608082016000820151611d956000850182611d52565b506020820151611da86020850182611d61565b506040820151611dbb6040850182611d61565b506060820151611dce6060850182611d70565b50505050565b600060a082019050611de96000830185611cab565b611df66020830184611d7f565b9392505050565b600080fd5b600067ffffffffffffffff821115611e1d57611e1c611a73565b5b611e2682611a62565b9050602081019050919050565b82818337600083830152505050565b6000611e55611e5084611e02565b611ad3565b905082815260208101848484011115611e7157611e70611dfd565b5b611e7c848285611e33565b509392505050565b600082601f830112611e9957611e98611a5d565b5b8135611ea9848260208601611e42565b91505092915050565b600060208284031215611ec857611ec76119f5565b5b600082013567ffffffffffffffff811115611ee657611ee56119fa565b5b611ef284828501611e84565b91505092915050565b60007fffffffff0000000000000000000000000000000000000000000000000000000082169050919050565b611f3081611efb565b82525050565b6000602082019050611f4b6000830184611f27565b92915050565b60008115159050919050565b611f6681611f51565b8114611f7157600080fd5b50565b600081359050611f8381611f5d565b92915050565b60008060408385031215611fa057611f9f6119f5565b5b6000611fae85828601611a48565b9250506020611fbf85828601611f74565b9150509250929050565b611fd281611a1f565b82525050565b6000602082019050611fed6000830184611fc9565b92915050565b6000819050919050565b600061201861201361200e846119ff565b611ff3565b6119ff565b9050919050565b600061202a82611ffd565b9050919050565b600061203c8261201f565b9050919050565b61204c81612031565b82525050565b60006020820190506120676000830184612043565b92915050565b6000819050919050565b6120808161206d565b82525050565b600060208201905061209b6000830184612077565b92915050565b6000815190506120b081611a31565b92915050565b6000602082840312156120cc576120cb6119f5565b5b60006120da848285016120a1565b91505092915050565b60006120f66120f184611aee565b611ad3565b9050808382526020820190506020840283018581111561211957612118611b1a565b5b835b81811015612142578061212e88826120a1565b84526020840193505060208101905061211b565b5050509392505050565b600082601f83011261216157612160611a5d565b5b81516121718482602086016120e3565b91505092915050565b6000602082840312156121905761218f6119f5565b5b600082015167ffffffffffffffff8111156121ae576121ad6119fa565b5b6121ba8482850161214c565b91505092915050565b7f4e487b7100000000000000000000000000000000000000000000000000000000600052603260045260246000fd5b6121fb81611ca1565b811461220657600080fd5b50565b600081519050612218816121f2565b92915050565b60008151905061222d81611f5d565b92915050565b6000806040838503121561224a576122496119f5565b5b600061225885828601612209565b92505060206122698582860161221e565b9150509250929050565b7f4e487b7100000000000000000000000000000000000000000000000000000000600052601160045260246000fd5b600060ff82169050919050565b60006122ba826122a2565b915060ff82036122cd576122cc612273565b5b600182019050919050565b600082825260208201905092915050565b7f73686f756c64206d617463680000000000000000000000000000000000000000600082015250565b600061231f600c836122d8565b915061232a826122e9565b602082019050919050565b6000602082019050818103600083015261234e81612312565b9050919050565b7f50524d3a2043616c6c696e67206e6f6e2077686974656c697374656420636f6e60008201527f7472616374000000000000000000000000000000000000000000000000000000602082015250565b60006123b16025836122d8565b91506123bc82612355565b604082019050919050565b600060208201905081810360008301526123e0816123a4565b9050919050565b600080fd5b600080fd5b600080fd5b60008083356001602003843603038112612413576124126123e7565b5b80840192508235915067ffffffffffffffff821115612435576124346123ec565b5b602083019250600182023603831315612451576124506123f1565b5b509250929050565b600082905092915050565b600082821b905092915050565b600061247d8383612459565b826124888135611efb565b925060048210156124c8576124c37fffffffff0000000000000000000000000000000000000000000000000000000083600403600802612464565b831692505b505092915050565b600080fd5b600080fd5b600080858511156124ee576124ed6124d0565b5b838611156124ff576124fe6124d5565b5b6001850283019150848603905094509492505050565b600081359050612524816121f2565b92915050565b6000602082840312156125405761253f6119f5565b5b600061254e84828501612515565b91505092915050565b61256081611cba565b811461256b57600080fd5b50565b60008151905061257d81612557565b92915050565b6000806040838503121561259a576125996119f5565b5b60006125a88582860161256e565b92505060206125b98582860161221e565b9150509250929050565b7f4572726f72206665746368696e672061737365742070726963652066726f6d2060008201527f74686972642070617274792070726f746f636f6c000000000000000000000000602082015250565b600061261f6034836122d8565b915061262a826125c3565b604082019050919050565b6000602082019050818103600083015261264e81612612565b9050919050565b600061266082611ca1565b915061266b83611ca1565b925082820261267981611ca1565b91507f800000000000000000000000000000000000000000000000000000000000000084146000841216156126b1576126b0612273565b5b82820584148315176126c6576126c5612273565b5b5092915050565b7f4e487b7100000000000000000000000000000000000000000000000000000000600052601260045260246000fd5b600061270782611ca1565b915061271283611ca1565b925082612722576127216126cd565b5b600160000383147f80000000000000000000000000000000000000000000000000000000000000008314161561275b5761275a612273565b5b828205905092915050565b7f50524d3a20556e737570706f727465642046756e6374696f6e2063616c6c0000600082015250565b600061279c601e836122d8565b91506127a782612766565b602082019050919050565b600060208201905081810360008301526127cb8161278f565b9050919050565b60006127dd82611cba565b91507fffffffffffffffffffffffffffffffffffffffffffffffffffffffffffffffff820361280f5761280e612273565b5b600182019050919050565b600061282582611ca1565b915061283083611ca1565b92508282019050828112156000831216838212600084121516171561285857612857612273565b5b92915050565b7f53616665436173743a2076616c756520646f65736e27742066697420696e203860008201527f2062697473000000000000000000000000000000000000000000000000000000602082015250565b60006128ba6025836122d8565b91506128c58261285e565b604082019050919050565b600060208201905081810360008301526128e9816128ad565b9050919050565b600081519050919050565b60005b838110156129195780820151818401526020810190506128fe565b60008484015250505050565b6000612930826128f0565b61293a81856122d8565b935061294a8185602086016128fb565b61295381611a62565b840191505092915050565b600060208201905081810360008301526129788184612925565b905092915050565b6000604082019050818103600083015261299a8185612925565b90506129a96020830184611cc4565b9392505050565b600060608201905081810360008301526129ca8186612925565b90506129d96020830185611cc4565b6129e66040830184611cc4565b949350505050565b60006129f9826122a2565b9150612a04836122a2565b9250828203905060ff811115612a1d57612a1c612273565b5b92915050565b60008160011c9050919050565b6000808291508390505b6001851115612a7a57808604811115612a5657612a55612273565b5b6001851615612a655780820291505b8081029050612a7385612a23565b9450612a3a565b94509492505050565b600082612a935760019050612b4f565b81612aa15760009050612b4f565b8160018114612ab75760028114612ac157612af0565b6001915050612b4f565b60ff841115612ad357612ad2612273565b5b8360020a915084821115612aea57612ae9612273565b5b50612b4f565b5060208310610133831016604e8410600b8410161715612b255782820a905083811115612b2057612b1f612273565b5b612b4f565b612b328484846001612a30565b92509050818404811115612b4957612b48612273565b5b81810290505b9392505050565b6000612b6182611cba565b9150612b6c836122a2565b9250612b997fffffffffffffffffffffffffffffffffffffffffffffffffffffffffffffffff8484612a83565b905092915050565b6000612bac82611ca1565b91507f80000000000000000000000000000000000000000000000000000000000000008203612bde57612bdd612273565b5b816000039050919050565b6000612bf482611cba565b9150612bff83611cba565b925082612c0f57612c0e6126cd565b5b828206905092915050565b600067ffffffffffffffff82169050919050565b612c3781612c1a565b8114612c4257600080fd5b50565b600081519050612c5481612c2e565b92915050565b60006fffffffffffffffffffffffffffffffff82169050919050565b612c7f81612c5a565b8114612c8a57600080fd5b50565b600081519050612c9c81612c76565b92915050565b600081600f0b9050919050565b612cb881612ca2565b8114612cc357600080fd5b50565b600081519050612cd581612caf565b92915050565b600080600080600060a08688031215612cf757612cf66119f5565b5b6000612d0588828901612c45565b9550506020612d1688828901612c45565b9450506040612d2788828901612c8d565b9350506060612d3888828901612c8d565b9250506080612d4988828901612cc6565b9150509295509295909350565b600060208284031215612d6c57612d6b6119f5565b5b6000612d7a84828501612209565b91505092915050565b6000612d8e82611ca1565b9150612d9983611ca1565b9250828203905081811260008412168282136000851215161715612dc057612dbf612273565b5b92915050565b7f53616665436173743a2076616c756520646f65736e27742066697420696e206160008201527f6e20696e74323536000000000000000000000000000000000000000000000000602082015250565b6000612e226028836122d8565b9150612e2d82612dc6565b604082019050919050565b60006020820190508181036000830152612e5181612e15565b9050919050565b6000612e6382611cba565b9150612e6e83611cba565b9250828202612e7c81611cba565b91508282048414831517612e9357612e92612273565b5b5092915050565b6000612ea582611cba565b9150612eb083611cba565b925082612ec057612ebf6126cd565b5b82820490509291505056fea2646970667358221220c6ff76d76663da869906e94a664d9183f506b4cbf101b6c5692cc269ea4c945a64736f6c63430008110033",
    "linkReferences": {}
  },
  "methodIdentifiers": {
    "OP()": "7c9c3472",
    "TM()": "ea344bf6",
    "_getPositionPnLAcrossMarkets(address)": "b413d6c9",
    "baseToken()": "c55dae63",
    "futureManager()": "de6c0823",
    "getBaseToken()": "98acd7a6",
    "getRealizedPnL(address)": "e91fad7f",
    "getUnrealizedPnL(address)": "544305bf",
    "getUnsettledAccounting(address)": "bb4a976f",
    "previewPosition(bytes)": "7ab5b15e",
    "settleFeeForMarket(address)": "50989a57",
    "settleRealizedAccounting(address)": "24d2343a",
    "toggleAddressWhitelisting(address,bool)": "9418b955",
    "verifyClose(address,address[],bytes[])": "130676f6",
    "verifyTrade(address,address[],bytes[])": "5104efaa"
  },
  "id": 37
}