{
  "abi": [
    {
      "inputs": [
        {
          "internalType": "address",
          "name": "_baseToken",
          "type": "address"
        },
        {
          "internalType": "address",
          "name": "_contractRegistry",
          "type": "address"
        }
      ],
      "stateMutability": "nonpayable",
      "type": "constructor"
    },
    {
      "inputs": [],
      "name": "OP",
      "outputs": [
        {
          "internalType": "bytes4",
          "name": "",
          "type": "bytes4"
        }
      ],
      "stateMutability": "view",
      "type": "function"
    },
    {
      "inputs": [],
      "name": "TM",
      "outputs": [
        {
          "internalType": "bytes4",
          "name": "",
          "type": "bytes4"
        }
      ],
      "stateMutability": "view",
      "type": "function"
    },
    {
      "inputs": [],
      "name": "baseToken",
      "outputs": [
        {
          "internalType": "address",
          "name": "",
          "type": "address"
        }
      ],
      "stateMutability": "view",
      "type": "function"
    },
    {
      "inputs": [],
      "name": "futureManager",
      "outputs": [
        {
          "internalType": "contract IFuturesMarketManager",
          "name": "",
          "type": "address"
        }
      ],
      "stateMutability": "view",
      "type": "function"
    },
    {
      "inputs": [],
      "name": "getBaseToken",
      "outputs": [
        {
          "internalType": "address",
          "name": "",
          "type": "address"
        }
      ],
      "stateMutability": "view",
      "type": "function"
    },
    {
      "inputs": [
        {
          "internalType": "address",
          "name": "account",
          "type": "address"
        }
      ],
      "name": "getPositionPnL",
      "outputs": [
        {
          "internalType": "uint256",
          "name": "_marginDeposited",
          "type": "uint256"
        },
        {
          "internalType": "int256",
          "name": "pnl",
          "type": "int256"
        }
      ],
      "stateMutability": "nonpayable",
      "type": "function"
    },
    {
      "inputs": [
        {
          "internalType": "bytes",
          "name": "data",
          "type": "bytes"
        }
      ],
      "name": "previewPosition",
      "outputs": [],
      "stateMutability": "nonpayable",
      "type": "function"
    },
    {
      "inputs": [
        {
          "internalType": "address",
          "name": "contractAddress",
          "type": "address"
        },
        {
          "internalType": "bool",
          "name": "isAllowed",
          "type": "bool"
        }
      ],
      "name": "toggleAddressWhitelisting",
      "outputs": [],
      "stateMutability": "nonpayable",
      "type": "function"
    },
    {
      "inputs": [
        {
          "internalType": "address",
          "name": "protocol",
          "type": "address"
        },
        {
          "internalType": "address[]",
          "name": "destinations",
          "type": "address[]"
        },
        {
          "internalType": "bytes[]",
          "name": "data",
          "type": "bytes[]"
        }
      ],
      "name": "verifyClose",
      "outputs": [
        {
          "internalType": "int256",
          "name": "amount",
          "type": "int256"
        },
        {
          "internalType": "int256",
          "name": "totalPosition",
          "type": "int256"
        },
        {
          "internalType": "uint256",
          "name": "fee",
          "type": "uint256"
        }
      ],
      "stateMutability": "nonpayable",
      "type": "function"
    },
    {
      "inputs": [
        {
          "internalType": "address",
          "name": "protocol",
          "type": "address"
        },
        {
          "internalType": "address[]",
          "name": "destinations",
          "type": "address[]"
        },
        {
          "internalType": "bytes[]",
          "name": "data",
          "type": "bytes[]"
        }
      ],
      "name": "verifyTrade",
      "outputs": [
        {
          "internalType": "int256",
          "name": "amount",
          "type": "int256"
        },
        {
          "internalType": "int256",
          "name": "totalPosition",
          "type": "int256"
        },
        {
          "internalType": "uint256",
          "name": "fee",
          "type": "uint256"
        }
      ],
      "stateMutability": "nonpayable",
      "type": "function"
    }
  ],
  "bytecode": {
    "object": "0x608060405260018054600160a01b600160e81b03191668514515e04451e4240360a11b1790553480156200003257600080fd5b506040516200125c3803806200125c833981016040819052620000559162000124565b600280546001600160a01b038084166001600160a01b0319928316179092556001805492851692909116821790556040805163313ce56760e01b8152905163313ce567916004808201926020929091908290030181865afa158015620000bf573d6000803e3d6000fd5b505050506040513d601f19601f82011682018060405250810190620000e591906200015c565b6001601d6101000a81548160ff021916908360ff160217905550505062000188565b80516001600160a01b03811681146200011f57600080fd5b919050565b600080604083850312156200013857600080fd5b620001438362000107565b9150620001536020840162000107565b90509250929050565b6000602082840312156200016f57600080fd5b815160ff811681146200018157600080fd5b9392505050565b6110c480620001986000396000f3fe608060405234801561001057600080fd5b506004361061009e5760003560e01c806398acd7a61161006657806398acd7a61461013c578063a773deb914610161578063c55dae6314610189578063de6c08231461019c578063ea344bf6146101af57600080fd5b8063130676f6146100a35780635104efaa146100d65780637ab5b15e146100e95780637c9c3472146100fc5780639418b95514610129575b600080fd5b6100b66100b1366004610ac5565b6101c3565b604080519384526020840192909252908201526060015b60405180910390f35b6100b66100e4366004610ac5565b6101e4565b6100fa6100f7366004610ba3565b50565b005b60015461011090600160c81b900460e01b81565b6040516001600160e01b031990911681526020016100cd565b6100fa610137366004610c46565b610558565b6001546001600160a01b03165b6040516001600160a01b0390911681526020016100cd565b61017461016f366004610c7f565b610596565b604080519283526020830191909152016100cd565b600154610149906001600160a01b031681565b600054610149906001600160a01b031681565b60015461011090600160a81b900460e01b81565b60008060006101d4878787876101e4565b9199909850909650945050505050565b825160009081908190849081146102315760405162461bcd60e51b815260206004820152600c60248201526b0e6d0deead8c840dac2e8c6d60a31b60448201526064015b60405180910390fd5b60005b81811015610447576003600089838151811061025257610252610c9c565b6020908102919091018101516001600160a01b031682528101919091526040016000205460ff1615156001146102d85760405162461bcd60e51b815260206004820152602560248201527f50524d3a2043616c6c696e67206e6f6e2077686974656c697374657320636f6e6044820152641d1c9858dd60da1b6064820152608401610228565b60008787838181106102ec576102ec610c9c565b90506020028101906102fe9190610cb2565b61030791610cf9565b6001549091506001600160e01b0319600160a81b90910460e01b81169082160361037b5761037488888481811061034057610340610c9c565b90506020028101906103529190610cb2565b610360916004908290610d29565b81019061036d9190610d53565b8790610820565b9550610434565b6001546001600160e01b0319600160c81b90910460e01b8116908216036103ec576103e58888848181106103b1576103b1610c9c565b90506020028101906103c39190610cb2565b6103d1916004908290610d29565b8101906103de9190610d53565b8690610820565b9450610434565b60405162461bcd60e51b815260206004820152601e60248201527f50524d3a20556e737570706f727465642046756e6374696f6e2063616c6c00006044820152606401610228565b508061043f81610d82565b915050610234565b506000886001600160a01b031663d24378eb6040518163ffffffff1660e01b81526004016040805180830381865afa158015610487573d6000803e3d6000fd5b505050506040513d601f19601f820116820180604052508101906104ab9190610d9b565b50604051631906652f60e01b8152600481018690529091506001600160a01b038a1690631906652f906024016040805180830381865afa1580156104f3573d6000803e3d6000fd5b505050506040513d601f19601f820116820180604052508101906105179190610d9b565b50600154909350610535908290600160e81b900460ff166000610835565b905061054a610543826108a5565b8590610913565b935050509450945094915050565b6001600160a01b03821661056b57600080fd5b6001600160a01b03919091166000908152600360205260409020805460ff1916911515919091179055565b600254604051634ab0849360e11b81527f0d60a758dcc410973abaa125ce6458bd6a1d59eb466549e81b950c24e5f04d8860048201526000918291829182916001600160a01b0390911690639561092690602401602060405180830381865afa158015610607573d6000803e3d6000fd5b505050506040513d601f19601f8201168201806040525081019061062b9190610dc0565b60405163f7a033e360e01b81523060048201526001600160a01b03919091169063f7a033e390602401600060405180830381865afa158015610671573d6000803e3d6000fd5b505050506040513d6000823e601f3d908101601f191682016040526106999190810190610ddd565b805190915060005b818110156107e45760008382815181106106bd576106bd610c9c565b60200260200101519050600080826001600160a01b0316631bf556d08b6040518263ffffffff1660e01b815260040161070591906001600160a01b0391909116815260200190565b6040805180830381865afa158015610721573d6000803e3d6000fd5b505050506040513d601f19601f820116820180604052508101906107459190610d9b565b50604051632c4477eb60e21b81526001600160a01b038c811660048301529192509084169063b111dfac906024016040805180830381865afa15801561078f573d6000803e3d6000fd5b505050506040513d601f19601f820116820180604052508101906107b39190610d9b565b5091506107c08883610820565b97506107cc8782610820565b965050505080806107dc90610d82565b9150506106a1565b506001546000906108149060ff600160e81b8204811691600160a01b90041661080d888861091f565b919061092b565b94509450505050915091565b600061082c8284610e6c565b90505b92915050565b60008160ff168360ff160361084b57508261089e565b8160ff168360ff161161087c576108776108658484610e8c565b61087090600a610f89565b85906109d5565b61089b565b61089b6108898385610e8c565b61089490600a610f89565b85906109e1565b90505b9392505050565b60006001600160ff1b0382111561090f5760405162461bcd60e51b815260206004820152602860248201527f53616665436173743a2076616c756520646f65736e27742066697420696e2061604482015267371034b73a191a9b60c11b6064820152608401610228565b5090565b600061082c8284610f98565b600061082c8284610fc8565b60008160ff168360ff160361094157508261089e565b8160ff168360ff16101561096e5761096761095c8484610e8c565b61054390600a610f89565b905061089e565b600061097a8385610e8c565b61098590600a610f89565b9050600080861280156109aa57508161099d87610fef565b6109a79190611021565b15155b156109b457506000195b60006109ca826109c489866109ed565b90610820565b979650505050505050565b600061082c8284611035565b600061082c828461104c565b600061082c8284611060565b6001600160a01b03811681146100f757600080fd5b634e487b7160e01b600052604160045260246000fd5b604051601f8201601f1916810167ffffffffffffffff81118282101715610a4d57610a4d610a0e565b604052919050565b600067ffffffffffffffff821115610a6f57610a6f610a0e565b5060051b60200190565b60008083601f840112610a8b57600080fd5b50813567ffffffffffffffff811115610aa357600080fd5b6020830191508360208260051b8501011115610abe57600080fd5b9250929050565b60008060008060608587031215610adb57600080fd5b8435610ae6816109f9565b935060208581013567ffffffffffffffff80821115610b0457600080fd5b818801915088601f830112610b1857600080fd5b8135610b2b610b2682610a55565b610a24565b81815260059190911b8301840190848101908b831115610b4a57600080fd5b938501935b82851015610b71578435610b62816109f9565b82529385019390850190610b4f565b975050506040880135925080831115610b8957600080fd5b5050610b9787828801610a79565b95989497509550505050565b60006020808385031215610bb657600080fd5b823567ffffffffffffffff80821115610bce57600080fd5b818501915085601f830112610be257600080fd5b813581811115610bf457610bf4610a0e565b610c06601f8201601f19168501610a24565b91508082528684828501011115610c1c57600080fd5b8084840185840137600090820190930192909252509392505050565b80151581146100f757600080fd5b60008060408385031215610c5957600080fd5b8235610c64816109f9565b91506020830135610c7481610c38565b809150509250929050565b600060208284031215610c9157600080fd5b813561089e816109f9565b634e487b7160e01b600052603260045260246000fd5b6000808335601e19843603018112610cc957600080fd5b83018035915067ffffffffffffffff821115610ce457600080fd5b602001915036819003821315610abe57600080fd5b6001600160e01b03198135818116916004851015610d215780818660040360031b1b83161692505b505092915050565b60008085851115610d3957600080fd5b83861115610d4657600080fd5b5050820193919092039150565b600060208284031215610d6557600080fd5b5035919050565b634e487b7160e01b600052601160045260246000fd5b600060018201610d9457610d94610d6c565b5060010190565b60008060408385031215610dae57600080fd5b825191506020830151610c7481610c38565b600060208284031215610dd257600080fd5b815161089e816109f9565b60006020808385031215610df057600080fd5b825167ffffffffffffffff811115610e0757600080fd5b8301601f81018513610e1857600080fd5b8051610e26610b2682610a55565b81815260059190911b82018301908381019087831115610e4557600080fd5b928401925b828410156109ca578351610e5d816109f9565b82529284019290840190610e4a565b8082018281126000831280158216821582161715610d2157610d21610d6c565b60ff828116828216039081111561082f5761082f610d6c565b600181815b80851115610ee0578160001904821115610ec657610ec6610d6c565b80851615610ed357918102915b93841c9390800290610eaa565b509250929050565b600082610ef75750600161082f565b81610f045750600061082f565b8160018114610f1a5760028114610f2457610f40565b600191505061082f565b60ff841115610f3557610f35610d6c565b50506001821b61082f565b5060208310610133831016604e8410600b8410161715610f63575081810a61082f565b610f6d8383610ea5565b8060001904821115610f8157610f81610d6c565b029392505050565b600061082c60ff841683610ee8565b80820260008212600160ff1b84141615610fb457610fb4610d6c565b818105831482151761082f5761082f610d6c565b8181036000831280158383131683831282161715610fe857610fe8610d6c565b5092915050565b6000600160ff1b820161100457611004610d6c565b5060000390565b634e487b7160e01b600052601260045260246000fd5b6000826110305761103061100b565b500690565b808202811582820484141761082f5761082f610d6c565b60008261105b5761105b61100b565b500490565b60008261106f5761106f61100b565b600160ff1b82146000198414161561108957611089610d6c565b50059056fea2646970667358221220c39c814dc082240866dd7f60554815f3d3a079a705a94f04051d2a6c56d8f6b764736f6c63430008110033",
    "linkReferences": {}
  },
  "methodIdentifiers": {
    "OP()": "7c9c3472",
    "TM()": "ea344bf6",
    "baseToken()": "c55dae63",
    "futureManager()": "de6c0823",
    "getBaseToken()": "98acd7a6",
    "getPositionPnL(address)": "a773deb9",
    "previewPosition(bytes)": "7ab5b15e",
    "toggleAddressWhitelisting(address,bool)": "9418b955",
    "verifyClose(address,address[],bytes[])": "130676f6",
    "verifyTrade(address,address[],bytes[])": "5104efaa"
  },
  "id": 49
}