{
  "abi": [
    {
      "inputs": [
        {
          "internalType": "address",
          "name": "_baseToken",
          "type": "address"
        },
        {
          "internalType": "address",
          "name": "_contractRegistry",
          "type": "address"
        }
      ],
      "stateMutability": "nonpayable",
      "type": "constructor"
    },
    {
      "inputs": [],
      "name": "OP",
      "outputs": [
        {
          "internalType": "bytes4",
          "name": "",
          "type": "bytes4"
        }
      ],
      "stateMutability": "view",
      "type": "function"
    },
    {
      "inputs": [],
      "name": "TM",
      "outputs": [
        {
          "internalType": "bytes4",
          "name": "",
          "type": "bytes4"
        }
      ],
      "stateMutability": "view",
      "type": "function"
    },
    {
      "inputs": [],
      "name": "baseToken",
      "outputs": [
        {
          "internalType": "address",
          "name": "",
          "type": "address"
        }
      ],
      "stateMutability": "view",
      "type": "function"
    },
    {
      "inputs": [],
      "name": "futureManager",
      "outputs": [
        {
          "internalType": "contract IFuturesMarketManager",
          "name": "",
          "type": "address"
        }
      ],
      "stateMutability": "view",
      "type": "function"
    },
    {
      "inputs": [],
      "name": "getBaseToken",
      "outputs": [
        {
          "internalType": "address",
          "name": "",
          "type": "address"
        }
      ],
      "stateMutability": "view",
      "type": "function"
    },
    {
      "inputs": [
        {
          "internalType": "address",
          "name": "account",
          "type": "address"
        }
      ],
      "name": "getPositionPnL",
      "outputs": [
        {
          "internalType": "int256",
          "name": "pnl",
          "type": "int256"
        }
      ],
      "stateMutability": "nonpayable",
      "type": "function"
    },
    {
      "inputs": [
        {
          "internalType": "bytes",
          "name": "data",
          "type": "bytes"
        }
      ],
      "name": "previewPosition",
      "outputs": [],
      "stateMutability": "nonpayable",
      "type": "function"
    },
    {
      "inputs": [
        {
          "internalType": "address",
          "name": "account",
          "type": "address"
        }
      ],
      "name": "settleFeeForMarket",
      "outputs": [
        {
          "internalType": "int256",
          "name": "",
          "type": "int256"
        }
      ],
      "stateMutability": "nonpayable",
      "type": "function"
    },
    {
      "inputs": [
        {
          "internalType": "address",
          "name": "contractAddress",
          "type": "address"
        },
        {
          "internalType": "bool",
          "name": "isAllowed",
          "type": "bool"
        }
      ],
      "name": "toggleAddressWhitelisting",
      "outputs": [],
      "stateMutability": "nonpayable",
      "type": "function"
    },
    {
      "inputs": [
        {
          "internalType": "address",
          "name": "protocol",
          "type": "address"
        },
        {
          "internalType": "address[]",
          "name": "destinations",
          "type": "address[]"
        },
        {
          "internalType": "bytes[]",
          "name": "data",
          "type": "bytes[]"
        }
      ],
      "name": "verifyClose",
      "outputs": [
        {
          "internalType": "int256",
          "name": "amount",
          "type": "int256"
        },
        {
          "internalType": "int256",
          "name": "totalPosition",
          "type": "int256"
        },
        {
          "internalType": "uint256",
          "name": "fee",
          "type": "uint256"
        }
      ],
      "stateMutability": "nonpayable",
      "type": "function"
    },
    {
      "inputs": [
        {
          "internalType": "address",
          "name": "protocol",
          "type": "address"
        },
        {
          "internalType": "address[]",
          "name": "destinations",
          "type": "address[]"
        },
        {
          "internalType": "bytes[]",
          "name": "data",
          "type": "bytes[]"
        }
      ],
      "name": "verifyTrade",
      "outputs": [
        {
          "internalType": "int256",
          "name": "marginDelta",
          "type": "int256"
        },
        {
          "components": [
            {
              "internalType": "address",
              "name": "protocol",
              "type": "address"
            },
            {
              "internalType": "int256",
              "name": "openNotional",
              "type": "int256"
            },
            {
              "internalType": "int256",
              "name": "size",
              "type": "int256"
            },
            {
              "internalType": "uint256",
              "name": "fee",
              "type": "uint256"
            }
          ],
          "internalType": "struct Position",
          "name": "position",
          "type": "tuple"
        }
      ],
      "stateMutability": "view",
      "type": "function"
    }
  ],
  "bytecode": {
    "object": "0x608060405260018054600160a01b600160e81b03191668514515e04451e4240360a11b1790553480156200003257600080fd5b506040516200177538038062001775833981016040819052620000559162000124565b600280546001600160a01b038084166001600160a01b0319928316179092556001805492851692909116821790556040805163313ce56760e01b8152905163313ce567916004808201926020929091908290030181865afa158015620000bf573d6000803e3d6000fd5b505050506040513d601f19601f82011682018060405250810190620000e591906200015c565b6001601d6101000a81548160ff021916908360ff160217905550505062000188565b80516001600160a01b03811681146200011f57600080fd5b919050565b600080604083850312156200013857600080fd5b620001438362000107565b9150620001536020840162000107565b90509250929050565b6000602082840312156200016f57600080fd5b815160ff811681146200018157600080fd5b9392505050565b6115dd80620001986000396000f3fe608060405234801561001057600080fd5b50600436106100a95760003560e01c80639418b955116100715780639418b9551461019c57806398acd7a6146101af578063a773deb9146101d4578063c55dae63146101e7578063de6c0823146101fa578063ea344bf61461020d57600080fd5b8063130676f6146100ae57806350989a57146100eb5780635104efaa1461010c5780637ab5b15e1461015c5780637c9c34721461016f575b600080fd5b6100cb6100bc366004610f66565b60008060009450945094915050565b604080519384526020840192909252908201526060015b60405180910390f35b6100fe6100f9366004611044565b610221565b6040519081526020016100e2565b61011f61011a366004610f66565b610580565b6040805192835281516001600160a01b0316602080850191909152820151838201528101516060808401919091520151608082015260a0016100e2565b61016d61016a366004611061565b50565b005b60015461018390600160c81b900460e01b81565b6040516001600160e01b031990911681526020016100e2565b61016d6101aa366004611104565b61098d565b6001546001600160a01b03165b6040516001600160a01b0390911681526020016100e2565b6100fe6101e2366004611044565b6109cb565b6001546101bc906001600160a01b031681565b6000546101bc906001600160a01b031681565b60015461018390600160a81b900460e01b81565b600254604051634ab0849360e11b81527f0d60a758dcc410973abaa125ce6458bd6a1d59eb466549e81b950c24e5f04d8860048201526000918291829182916001600160a01b0390911690639561092690602401602060405180830381865afa158015610292573d6000803e3d6000fd5b505050506040513d601f19601f820116820180604052508101906102b6919061113d565b60405163f7a033e360e01b81523060048201526001600160a01b03919091169063f7a033e390602401600060405180830381865afa1580156102fc573d6000803e3d6000fd5b505050506040513d6000823e601f3d908101601f19168201604052610324919081019061115a565b905060006103328251610c4b565b905060005b8160ff168160ff161015610525576000838260ff168151811061035c5761035c6111f4565b60200260200101519050600080826001600160a01b0316631bf556d08b6040518263ffffffff1660e01b81526004016103a491906001600160a01b0391909116815260200190565b6040805180830381865afa1580156103c0573d6000803e3d6000fd5b505050506040513d601f19601f820116820180604052508101906103e4919061120a565b50604051632c4477eb60e21b81526001600160a01b038c811660048301529192509084169063b111dfac906024016040805180830381865afa15801561042e573d6000803e3d6000fd5b505050506040513d601f19601f82011682018060405250810190610452919061120a565b509150600088121561048b5761048b6040518060400160405280600c81526020016b1b9959d85d1a5d99481c1b9b60a21b815250610cb0565b60008112156104c6576104c6604051806040016040528060118152602001706e65676174697665205f66756e64696e6760781b815250610cb0565b6104d08783610cf3565b96506105036040518060400160405280600781526020016666756e64696e6760c81b8152506104fe8a610d08565b610d19565b61050d8882610cf3565b9750505050808061051d90611245565b915050610337565b506105766040518060400160405280601a81526020017f66756e64696e6720616e6420706e6c20736574746c652066656500000000000081525061056886610d08565b61057186610d08565b610d62565b5091949350505050565b60408051608081018252600080825260208201819052918101829052606081018290528451839081146105e95760405162461bcd60e51b815260206004820152600c60248201526b0e6d0deead8c840dac2e8c6d60a31b60448201526064015b60405180910390fd5b60005b81811015610982576003600088838151811061060a5761060a6111f4565b6020908102919091018101516001600160a01b031682528101919091526040016000205460ff1615156001146106905760405162461bcd60e51b815260206004820152602560248201527f50524d3a2043616c6c696e67206e6f6e2077686974656c697374656420636f6e6044820152641d1c9858dd60da1b60648201526084016105e0565b60008686838181106106a4576106a46111f4565b90506020028101906106b69190611264565b6106bf916112ab565b6001549091506001600160e01b0319600160a81b90910460e01b8116908216036107335761072c8787848181106106f8576106f86111f4565b905060200281019061070a9190611264565b6107189160049082906112db565b8101906107259190611305565b8690610cf3565b945061096f565b6001546001600160e01b0319600160c81b90910460e01b811690821603610927576000878784818110610768576107686111f4565b905060200281019061077a9190611264565b6107889160049082906112db565b8101906107959190611305565b90506000808b6001600160a01b031663d24378eb6040518163ffffffff1660e01b81526004016040805180830381865afa1580156107d7573d6000803e3d6000fd5b505050506040513d601f19601f820116820180604052508101906107fb919061120a565b91509150801561086a5760405162461bcd60e51b815260206004820152603460248201527f4572726f72206665746368696e672061737365742070726963652066726f6d206044820152731d1a1a5c99081c185c9d1e481c1c9bdd1bd8dbdb60621b60648201526084016105e0565b610895670de0b6b3a7640000610880848661131e565b61088a9190611364565b602089015190610cf3565b602088015260408701516108a99084610cf3565b60408881019190915251631906652f60e01b8152600481018490526001600160a01b038d1690631906652f906024016040805180830381865afa1580156108f4573d6000803e3d6000fd5b505050506040513d601f19601f82011682018060405250810190610918919061120a565b5060608801525061096f915050565b60405162461bcd60e51b815260206004820152601e60248201527f50524d3a20556e737570706f727465642046756e6374696f6e2063616c6c000060448201526064016105e0565b508061097a81611392565b9150506105ec565b505094509492505050565b6001600160a01b0382166109a057600080fd5b6001600160a01b03919091166000908152600360205260409020805460ff1916911515919091179055565b600254604051634ab0849360e11b81527f0d60a758dcc410973abaa125ce6458bd6a1d59eb466549e81b950c24e5f04d886004820152600091829182916001600160a01b031690639561092690602401602060405180830381865afa158015610a38573d6000803e3d6000fd5b505050506040513d601f19601f82011682018060405250810190610a5c919061113d565b60405163f7a033e360e01b81523060048201526001600160a01b03919091169063f7a033e390602401600060405180830381865afa158015610aa2573d6000803e3d6000fd5b505050506040513d6000823e601f3d908101601f19168201604052610aca919081019061115a565b805190915060005b81811015610c15576000838281518110610aee57610aee6111f4565b60200260200101519050600080826001600160a01b0316631bf556d08a6040518263ffffffff1660e01b8152600401610b3691906001600160a01b0391909116815260200190565b6040805180830381865afa158015610b52573d6000803e3d6000fd5b505050506040513d601f19601f82011682018060405250810190610b76919061120a565b50604051632c4477eb60e21b81526001600160a01b038b811660048301529192509084169063b111dfac906024016040805180830381865afa158015610bc0573d6000803e3d6000fd5b505050506040513d601f19601f82011682018060405250810190610be4919061120a565b509150610bf18883610cf3565b9750610bfd8782610cf3565b96505050508080610c0d90611392565b915050610ad2565b50600154610c429060ff600160e81b8204811691600160a01b900416610c3b8787610cf3565b9190610dae565b95945050505050565b600060ff821115610cac5760405162461bcd60e51b815260206004820152602560248201527f53616665436173743a2076616c756520646f65736e27742066697420696e2038604482015264206269747360d81b60648201526084016105e0565b5090565b61016a81604051602401610cc491906113f1565b60408051601f198184030181529190526020810180516001600160e01b031663104c13eb60e21b179052610e61565b6000610cff8284611404565b90505b92915050565b600080821215610cac575060000390565b610d5e8282604051602401610d2f929190611424565b60408051601f198184030181529190526020810180516001600160e01b0316632d839cb360e21b179052610e61565b5050565b610da9838383604051602401610d7a93929190611446565b60408051601f198184030181529190526020810180516001600160e01b031663ca47c4eb60e01b179052610e61565b505050565b60008160ff168360ff1603610dc4575082610e5a565b8160ff168360ff161015610df857610df1610ddf848461146b565b610dea90600a611568565b8590610e82565b9050610e5a565b6000610e04838561146b565b610e0f90600a611568565b905060008086128015610e34575081610e2787611577565b610e319190611593565b15155b15610e3e57506000195b6000610e5482610e4e8986610e8e565b90610cf3565b93505050505b9392505050565b80516a636f6e736f6c652e6c6f67602083016000808483855afa5050505050565b6000610cff828461131e565b6000610cff8284611364565b6001600160a01b038116811461016a57600080fd5b634e487b7160e01b600052604160045260246000fd5b604051601f8201601f1916810167ffffffffffffffff81118282101715610eee57610eee610eaf565b604052919050565b600067ffffffffffffffff821115610f1057610f10610eaf565b5060051b60200190565b60008083601f840112610f2c57600080fd5b50813567ffffffffffffffff811115610f4457600080fd5b6020830191508360208260051b8501011115610f5f57600080fd5b9250929050565b60008060008060608587031215610f7c57600080fd5b8435610f8781610e9a565b935060208581013567ffffffffffffffff80821115610fa557600080fd5b818801915088601f830112610fb957600080fd5b8135610fcc610fc782610ef6565b610ec5565b81815260059190911b8301840190848101908b831115610feb57600080fd5b938501935b8285101561101257843561100381610e9a565b82529385019390850190610ff0565b97505050604088013592508083111561102a57600080fd5b505061103887828801610f1a565b95989497509550505050565b60006020828403121561105657600080fd5b8135610e5a81610e9a565b6000602080838503121561107457600080fd5b823567ffffffffffffffff8082111561108c57600080fd5b818501915085601f8301126110a057600080fd5b8135818111156110b2576110b2610eaf565b6110c4601f8201601f19168501610ec5565b915080825286848285010111156110da57600080fd5b8084840185840137600090820190930192909252509392505050565b801515811461016a57600080fd5b6000806040838503121561111757600080fd5b823561112281610e9a565b91506020830135611132816110f6565b809150509250929050565b60006020828403121561114f57600080fd5b8151610e5a81610e9a565b6000602080838503121561116d57600080fd5b825167ffffffffffffffff81111561118457600080fd5b8301601f8101851361119557600080fd5b80516111a3610fc782610ef6565b81815260059190911b820183019083810190878311156111c257600080fd5b928401925b828410156111e95783516111da81610e9a565b825292840192908401906111c7565b979650505050505050565b634e487b7160e01b600052603260045260246000fd5b6000806040838503121561121d57600080fd5b825191506020830151611132816110f6565b634e487b7160e01b600052601160045260246000fd5b600060ff821660ff810361125b5761125b61122f565b60010192915050565b6000808335601e1984360301811261127b57600080fd5b83018035915067ffffffffffffffff82111561129657600080fd5b602001915036819003821315610f5f57600080fd5b6001600160e01b031981358181169160048510156112d35780818660040360031b1b83161692505b505092915050565b600080858511156112eb57600080fd5b838611156112f857600080fd5b5050820193919092039150565b60006020828403121561131757600080fd5b5035919050565b80820260008212600160ff1b8414161561133a5761133a61122f565b8181058314821517610d0257610d0261122f565b634e487b7160e01b600052601260045260246000fd5b6000826113735761137361134e565b600160ff1b82146000198414161561138d5761138d61122f565b500590565b6000600182016113a4576113a461122f565b5060010190565b6000815180845260005b818110156113d1576020818501810151868301820152016113b5565b506000602082860101526020601f19601f83011685010191505092915050565b602081526000610cff60208301846113ab565b80820182811260008312801582168215821617156112d3576112d361122f565b60408152600061143760408301856113ab565b90508260208301529392505050565b60608152600061145960608301866113ab565b60208301949094525060400152919050565b60ff8281168282160390811115610d0257610d0261122f565b600181815b808511156114bf5781600019048211156114a5576114a561122f565b808516156114b257918102915b93841c9390800290611489565b509250929050565b6000826114d657506001610d02565b816114e357506000610d02565b81600181146114f957600281146115035761151f565b6001915050610d02565b60ff8411156115145761151461122f565b50506001821b610d02565b5060208310610133831016604e8410600b8410161715611542575081810a610d02565b61154c8383611484565b80600019048211156115605761156061122f565b029392505050565b6000610cff60ff8416836114c7565b6000600160ff1b820161158c5761158c61122f565b5060000390565b6000826115a2576115a261134e565b50069056fea264697066735822122013e02aab8220d3942e69cfce4a55b17023876b2145d1c079f937e23cb67e536464736f6c63430008110033",
    "linkReferences": {}
  },
  "methodIdentifiers": {
    "OP()": "7c9c3472",
    "TM()": "ea344bf6",
    "baseToken()": "c55dae63",
    "futureManager()": "de6c0823",
    "getBaseToken()": "98acd7a6",
    "getPositionPnL(address)": "a773deb9",
    "previewPosition(bytes)": "7ab5b15e",
    "settleFeeForMarket(address)": "50989a57",
    "toggleAddressWhitelisting(address,bool)": "9418b955",
    "verifyClose(address,address[],bytes[])": "130676f6",
    "verifyTrade(address,address[],bytes[])": "5104efaa"
  },
  "id": 36
}