{
  "abi": [
    {
      "inputs": [
        {
          "internalType": "address",
          "name": "_baseToken",
          "type": "address"
        },
        {
          "internalType": "address",
          "name": "_contractRegistry",
          "type": "address"
        }
      ],
      "stateMutability": "nonpayable",
      "type": "constructor"
    },
    {
      "inputs": [],
      "name": "OP",
      "outputs": [
        {
          "internalType": "bytes4",
          "name": "",
          "type": "bytes4"
        }
      ],
      "stateMutability": "view",
      "type": "function"
    },
    {
      "inputs": [],
      "name": "TM",
      "outputs": [
        {
          "internalType": "bytes4",
          "name": "",
          "type": "bytes4"
        }
      ],
      "stateMutability": "view",
      "type": "function"
    },
    {
      "inputs": [],
      "name": "baseToken",
      "outputs": [
        {
          "internalType": "address",
          "name": "",
          "type": "address"
        }
      ],
      "stateMutability": "view",
      "type": "function"
    },
    {
      "inputs": [],
      "name": "futureManager",
      "outputs": [
        {
          "internalType": "contract IFuturesMarketManager",
          "name": "",
          "type": "address"
        }
      ],
      "stateMutability": "view",
      "type": "function"
    },
    {
      "inputs": [],
      "name": "getBaseToken",
      "outputs": [
        {
          "internalType": "address",
          "name": "",
          "type": "address"
        }
      ],
      "stateMutability": "view",
      "type": "function"
    },
    {
      "inputs": [
        {
          "internalType": "address",
          "name": "account",
          "type": "address"
        }
      ],
      "name": "getPositionPnL",
      "outputs": [
        {
          "internalType": "int256",
          "name": "pnl",
          "type": "int256"
        }
      ],
      "stateMutability": "nonpayable",
      "type": "function"
    },
    {
      "inputs": [
        {
          "internalType": "address",
          "name": "marginAccount",
          "type": "address"
        }
      ],
      "name": "getUnsettledAccounting",
      "outputs": [],
      "stateMutability": "nonpayable",
      "type": "function"
    },
    {
      "inputs": [
        {
          "internalType": "bytes",
          "name": "data",
          "type": "bytes"
        }
      ],
      "name": "previewPosition",
      "outputs": [],
      "stateMutability": "nonpayable",
      "type": "function"
    },
    {
      "inputs": [
        {
          "internalType": "address",
          "name": "account",
          "type": "address"
        }
      ],
      "name": "settleFeeForMarket",
      "outputs": [
        {
          "internalType": "int256",
          "name": "",
          "type": "int256"
        }
      ],
      "stateMutability": "nonpayable",
      "type": "function"
    },
    {
      "inputs": [
        {
          "internalType": "address",
          "name": "marginAccount",
          "type": "address"
        }
      ],
      "name": "settleRealizedAccounting",
      "outputs": [],
      "stateMutability": "nonpayable",
      "type": "function"
    },
    {
      "inputs": [
        {
          "internalType": "address",
          "name": "contractAddress",
          "type": "address"
        },
        {
          "internalType": "bool",
          "name": "isAllowed",
          "type": "bool"
        }
      ],
      "name": "toggleAddressWhitelisting",
      "outputs": [],
      "stateMutability": "nonpayable",
      "type": "function"
    },
    {
      "inputs": [
        {
          "internalType": "address",
          "name": "protocol",
          "type": "address"
        },
        {
          "internalType": "address[]",
          "name": "destinations",
          "type": "address[]"
        },
        {
          "internalType": "bytes[]",
          "name": "data",
          "type": "bytes[]"
        }
      ],
      "name": "verifyClose",
      "outputs": [
        {
          "internalType": "int256",
          "name": "amount",
          "type": "int256"
        },
        {
          "internalType": "int256",
          "name": "totalPosition",
          "type": "int256"
        },
        {
          "internalType": "uint256",
          "name": "fee",
          "type": "uint256"
        }
      ],
      "stateMutability": "nonpayable",
      "type": "function"
    },
    {
      "inputs": [
        {
          "internalType": "address",
          "name": "protocol",
          "type": "address"
        },
        {
          "internalType": "address[]",
          "name": "destinations",
          "type": "address[]"
        },
        {
          "internalType": "bytes[]",
          "name": "data",
          "type": "bytes[]"
        }
      ],
      "name": "verifyTrade",
      "outputs": [
        {
          "internalType": "int256",
          "name": "marginDelta",
          "type": "int256"
        },
        {
          "components": [
            {
              "internalType": "address",
              "name": "protocol",
              "type": "address"
            },
            {
              "internalType": "int256",
              "name": "openNotional",
              "type": "int256"
            },
            {
              "internalType": "int256",
              "name": "size",
              "type": "int256"
            },
            {
              "internalType": "uint256",
              "name": "fee",
              "type": "uint256"
            }
          ],
          "internalType": "struct Position",
          "name": "position",
          "type": "tuple"
        }
      ],
      "stateMutability": "view",
      "type": "function"
    }
  ],
  "bytecode": {
    "object": "0x608060405260018054600160a01b600160e81b03191668514515e04451e4240360a11b1790553480156200003257600080fd5b50604051620017a9380380620017a9833981016040819052620000559162000124565b600280546001600160a01b038084166001600160a01b0319928316179092556001805492851692909116821790556040805163313ce56760e01b8152905163313ce567916004808201926020929091908290030181865afa158015620000bf573d6000803e3d6000fd5b505050506040513d601f19601f82011682018060405250810190620000e591906200015c565b6001601d6101000a81548160ff021916908360ff160217905550505062000188565b80516001600160a01b03811681146200011f57600080fd5b919050565b600080604083850312156200013857600080fd5b620001438362000107565b9150620001536020840162000107565b90509250929050565b6000602082840312156200016f57600080fd5b815160ff811681146200018157600080fd5b9392505050565b61161180620001986000396000f3fe608060405234801561001057600080fd5b50600436106100cf5760003560e01c80639418b9551161008c578063bb4a976f11610066578063bb4a976f14610111578063c55dae631461021b578063de6c08231461022e578063ea344bf61461024157600080fd5b80639418b955146101d057806398acd7a6146101e3578063a773deb91461020857600080fd5b8063130676f6146100d457806324d2343a1461011157806350989a57146101245780635104efaa146101455780637ab5b15e146101955780637c9c3472146101a3575b600080fd5b6100f16100e2366004610f9a565b60008060009450945094915050565b604080519384526020840192909252908201526060015b60405180910390f35b61012261011f366004611078565b50565b005b610137610132366004611078565b610255565b604051908152602001610108565b610158610153366004610f9a565b6105b4565b6040805192835281516001600160a01b0316602080850191909152820151838201528101516060808401919091520151608082015260a001610108565b61012261011f366004611095565b6001546101b790600160c81b900460e01b81565b6040516001600160e01b03199091168152602001610108565b6101226101de366004611138565b6109c1565b6001546001600160a01b03165b6040516001600160a01b039091168152602001610108565b610137610216366004611078565b6109ff565b6001546101f0906001600160a01b031681565b6000546101f0906001600160a01b031681565b6001546101b790600160a81b900460e01b81565b600254604051634ab0849360e11b81527f0d60a758dcc410973abaa125ce6458bd6a1d59eb466549e81b950c24e5f04d8860048201526000918291829182916001600160a01b0390911690639561092690602401602060405180830381865afa1580156102c6573d6000803e3d6000fd5b505050506040513d601f19601f820116820180604052508101906102ea9190611171565b60405163f7a033e360e01b81523060048201526001600160a01b03919091169063f7a033e390602401600060405180830381865afa158015610330573d6000803e3d6000fd5b505050506040513d6000823e601f3d908101601f19168201604052610358919081019061118e565b905060006103668251610c7f565b905060005b8160ff168160ff161015610559576000838260ff168151811061039057610390611228565b60200260200101519050600080826001600160a01b0316631bf556d08b6040518263ffffffff1660e01b81526004016103d891906001600160a01b0391909116815260200190565b6040805180830381865afa1580156103f4573d6000803e3d6000fd5b505050506040513d601f19601f82011682018060405250810190610418919061123e565b50604051632c4477eb60e21b81526001600160a01b038c811660048301529192509084169063b111dfac906024016040805180830381865afa158015610462573d6000803e3d6000fd5b505050506040513d601f19601f82011682018060405250810190610486919061123e565b50915060008812156104bf576104bf6040518060400160405280600c81526020016b1b9959d85d1a5d99481c1b9b60a21b815250610ce4565b60008112156104fa576104fa604051806040016040528060118152602001706e65676174697665205f66756e64696e6760781b815250610ce4565b6105048783610d27565b96506105376040518060400160405280600781526020016666756e64696e6760c81b8152506105328a610d3c565b610d4d565b6105418882610d27565b9750505050808061055190611279565b91505061036b565b506105aa6040518060400160405280601a81526020017f66756e64696e6720616e6420706e6c20736574746c652066656500000000000081525061059c86610d3c565b6105a586610d3c565b610d96565b5091949350505050565b604080516080810182526000808252602082018190529181018290526060810182905284518390811461061d5760405162461bcd60e51b815260206004820152600c60248201526b0e6d0deead8c840dac2e8c6d60a31b60448201526064015b60405180910390fd5b60005b818110156109b6576003600088838151811061063e5761063e611228565b6020908102919091018101516001600160a01b031682528101919091526040016000205460ff1615156001146106c45760405162461bcd60e51b815260206004820152602560248201527f50524d3a2043616c6c696e67206e6f6e2077686974656c697374656420636f6e6044820152641d1c9858dd60da1b6064820152608401610614565b60008686838181106106d8576106d8611228565b90506020028101906106ea9190611298565b6106f3916112df565b6001549091506001600160e01b0319600160a81b90910460e01b8116908216036107675761076087878481811061072c5761072c611228565b905060200281019061073e9190611298565b61074c91600490829061130f565b8101906107599190611339565b8690610d27565b94506109a3565b6001546001600160e01b0319600160c81b90910460e01b81169082160361095b57600087878481811061079c5761079c611228565b90506020028101906107ae9190611298565b6107bc91600490829061130f565b8101906107c99190611339565b90506000808b6001600160a01b031663d24378eb6040518163ffffffff1660e01b81526004016040805180830381865afa15801561080b573d6000803e3d6000fd5b505050506040513d601f19601f8201168201806040525081019061082f919061123e565b91509150801561089e5760405162461bcd60e51b815260206004820152603460248201527f4572726f72206665746368696e672061737365742070726963652066726f6d206044820152731d1a1a5c99081c185c9d1e481c1c9bdd1bd8dbdb60621b6064820152608401610614565b6108c9670de0b6b3a76400006108b48486611352565b6108be9190611398565b602089015190610d27565b602088015260408701516108dd9084610d27565b60408881019190915251631906652f60e01b8152600481018490526001600160a01b038d1690631906652f906024016040805180830381865afa158015610928573d6000803e3d6000fd5b505050506040513d601f19601f8201168201806040525081019061094c919061123e565b506060880152506109a3915050565b60405162461bcd60e51b815260206004820152601e60248201527f50524d3a20556e737570706f727465642046756e6374696f6e2063616c6c00006044820152606401610614565b50806109ae816113c6565b915050610620565b505094509492505050565b6001600160a01b0382166109d457600080fd5b6001600160a01b03919091166000908152600360205260409020805460ff1916911515919091179055565b600254604051634ab0849360e11b81527f0d60a758dcc410973abaa125ce6458bd6a1d59eb466549e81b950c24e5f04d886004820152600091829182916001600160a01b031690639561092690602401602060405180830381865afa158015610a6c573d6000803e3d6000fd5b505050506040513d601f19601f82011682018060405250810190610a909190611171565b60405163f7a033e360e01b81523060048201526001600160a01b03919091169063f7a033e390602401600060405180830381865afa158015610ad6573d6000803e3d6000fd5b505050506040513d6000823e601f3d908101601f19168201604052610afe919081019061118e565b805190915060005b81811015610c49576000838281518110610b2257610b22611228565b60200260200101519050600080826001600160a01b0316631bf556d08a6040518263ffffffff1660e01b8152600401610b6a91906001600160a01b0391909116815260200190565b6040805180830381865afa158015610b86573d6000803e3d6000fd5b505050506040513d601f19601f82011682018060405250810190610baa919061123e565b50604051632c4477eb60e21b81526001600160a01b038b811660048301529192509084169063b111dfac906024016040805180830381865afa158015610bf4573d6000803e3d6000fd5b505050506040513d601f19601f82011682018060405250810190610c18919061123e565b509150610c258883610d27565b9750610c318782610d27565b96505050508080610c41906113c6565b915050610b06565b50600154610c769060ff600160e81b8204811691600160a01b900416610c6f8787610d27565b9190610de2565b95945050505050565b600060ff821115610ce05760405162461bcd60e51b815260206004820152602560248201527f53616665436173743a2076616c756520646f65736e27742066697420696e2038604482015264206269747360d81b6064820152608401610614565b5090565b61011f81604051602401610cf89190611425565b60408051601f198184030181529190526020810180516001600160e01b031663104c13eb60e21b179052610e95565b6000610d338284611438565b90505b92915050565b600080821215610ce0575060000390565b610d928282604051602401610d63929190611458565b60408051601f198184030181529190526020810180516001600160e01b0316632d839cb360e21b179052610e95565b5050565b610ddd838383604051602401610dae9392919061147a565b60408051601f198184030181529190526020810180516001600160e01b031663ca47c4eb60e01b179052610e95565b505050565b60008160ff168360ff1603610df8575082610e8e565b8160ff168360ff161015610e2c57610e25610e13848461149f565b610e1e90600a61159c565b8590610eb6565b9050610e8e565b6000610e38838561149f565b610e4390600a61159c565b905060008086128015610e68575081610e5b876115ab565b610e6591906115c7565b15155b15610e7257506000195b6000610e8882610e828986610ec2565b90610d27565b93505050505b9392505050565b80516a636f6e736f6c652e6c6f67602083016000808483855afa5050505050565b6000610d338284611352565b6000610d338284611398565b6001600160a01b038116811461011f57600080fd5b634e487b7160e01b600052604160045260246000fd5b604051601f8201601f1916810167ffffffffffffffff81118282101715610f2257610f22610ee3565b604052919050565b600067ffffffffffffffff821115610f4457610f44610ee3565b5060051b60200190565b60008083601f840112610f6057600080fd5b50813567ffffffffffffffff811115610f7857600080fd5b6020830191508360208260051b8501011115610f9357600080fd5b9250929050565b60008060008060608587031215610fb057600080fd5b8435610fbb81610ece565b935060208581013567ffffffffffffffff80821115610fd957600080fd5b818801915088601f830112610fed57600080fd5b8135611000610ffb82610f2a565b610ef9565b81815260059190911b8301840190848101908b83111561101f57600080fd5b938501935b8285101561104657843561103781610ece565b82529385019390850190611024565b97505050604088013592508083111561105e57600080fd5b505061106c87828801610f4e565b95989497509550505050565b60006020828403121561108a57600080fd5b8135610e8e81610ece565b600060208083850312156110a857600080fd5b823567ffffffffffffffff808211156110c057600080fd5b818501915085601f8301126110d457600080fd5b8135818111156110e6576110e6610ee3565b6110f8601f8201601f19168501610ef9565b9150808252868482850101111561110e57600080fd5b8084840185840137600090820190930192909252509392505050565b801515811461011f57600080fd5b6000806040838503121561114b57600080fd5b823561115681610ece565b915060208301356111668161112a565b809150509250929050565b60006020828403121561118357600080fd5b8151610e8e81610ece565b600060208083850312156111a157600080fd5b825167ffffffffffffffff8111156111b857600080fd5b8301601f810185136111c957600080fd5b80516111d7610ffb82610f2a565b81815260059190911b820183019083810190878311156111f657600080fd5b928401925b8284101561121d57835161120e81610ece565b825292840192908401906111fb565b979650505050505050565b634e487b7160e01b600052603260045260246000fd5b6000806040838503121561125157600080fd5b8251915060208301516111668161112a565b634e487b7160e01b600052601160045260246000fd5b600060ff821660ff810361128f5761128f611263565b60010192915050565b6000808335601e198436030181126112af57600080fd5b83018035915067ffffffffffffffff8211156112ca57600080fd5b602001915036819003821315610f9357600080fd5b6001600160e01b031981358181169160048510156113075780818660040360031b1b83161692505b505092915050565b6000808585111561131f57600080fd5b8386111561132c57600080fd5b5050820193919092039150565b60006020828403121561134b57600080fd5b5035919050565b80820260008212600160ff1b8414161561136e5761136e611263565b8181058314821517610d3657610d36611263565b634e487b7160e01b600052601260045260246000fd5b6000826113a7576113a7611382565b600160ff1b8214600019841416156113c1576113c1611263565b500590565b6000600182016113d8576113d8611263565b5060010190565b6000815180845260005b81811015611405576020818501810151868301820152016113e9565b506000602082860101526020601f19601f83011685010191505092915050565b602081526000610d3360208301846113df565b808201828112600083128015821682158216171561130757611307611263565b60408152600061146b60408301856113df565b90508260208301529392505050565b60608152600061148d60608301866113df565b60208301949094525060400152919050565b60ff8281168282160390811115610d3657610d36611263565b600181815b808511156114f35781600019048211156114d9576114d9611263565b808516156114e657918102915b93841c93908002906114bd565b509250929050565b60008261150a57506001610d36565b8161151757506000610d36565b816001811461152d576002811461153757611553565b6001915050610d36565b60ff84111561154857611548611263565b50506001821b610d36565b5060208310610133831016604e8410600b8410161715611576575081810a610d36565b61158083836114b8565b806000190482111561159457611594611263565b029392505050565b6000610d3360ff8416836114fb565b6000600160ff1b82016115c0576115c0611263565b5060000390565b6000826115d6576115d6611382565b50069056fea26469706673582212206736fbdeac81ca09051c2c1f7c6846abd4f2eff4a9eeb208e259f0ed5c6c15cb64736f6c63430008110033",
    "linkReferences": {}
  },
  "methodIdentifiers": {
    "OP()": "7c9c3472",
    "TM()": "ea344bf6",
    "baseToken()": "c55dae63",
    "futureManager()": "de6c0823",
    "getBaseToken()": "98acd7a6",
    "getPositionPnL(address)": "a773deb9",
    "getUnsettledAccounting(address)": "bb4a976f",
    "previewPosition(bytes)": "7ab5b15e",
    "settleFeeForMarket(address)": "50989a57",
    "settleRealizedAccounting(address)": "24d2343a",
    "toggleAddressWhitelisting(address,bool)": "9418b955",
    "verifyClose(address,address[],bytes[])": "130676f6",
    "verifyTrade(address,address[],bytes[])": "5104efaa"
  },
  "id": 35
}