{
  "abi": [
    {
      "inputs": [
        {
          "internalType": "address",
          "name": "_perpfi",
          "type": "address"
        }
      ],
      "stateMutability": "nonpayable",
      "type": "constructor"
    },
    {
      "inputs": [
        {
          "components": [
            {
              "internalType": "address",
              "name": "baseToken",
              "type": "address"
            },
            {
              "internalType": "uint160",
              "name": "sqrtPriceLimitX96",
              "type": "uint160"
            },
            {
              "internalType": "uint256",
              "name": "oppositeAmountBound",
              "type": "uint256"
            },
            {
              "internalType": "uint256",
              "name": "deadline",
              "type": "uint256"
            },
            {
              "internalType": "bytes32",
              "name": "referralCode",
              "type": "bytes32"
            }
          ],
          "internalType": "struct IClearingHouse.ClosePositionParams",
          "name": "params",
          "type": "tuple"
        }
      ],
      "name": "closePosition",
      "outputs": [
        {
          "internalType": "uint256",
          "name": "base",
          "type": "uint256"
        },
        {
          "internalType": "uint256",
          "name": "quote",
          "type": "uint256"
        }
      ],
      "stateMutability": "nonpayable",
      "type": "function"
    },
    {
      "inputs": [
        {
          "components": [
            {
              "internalType": "address",
              "name": "baseToken",
              "type": "address"
            },
            {
              "internalType": "bool",
              "name": "isBaseToQuote",
              "type": "bool"
            },
            {
              "internalType": "bool",
              "name": "isExactInput",
              "type": "bool"
            },
            {
              "internalType": "uint256",
              "name": "amount",
              "type": "uint256"
            },
            {
              "internalType": "uint256",
              "name": "oppositeAmountBound",
              "type": "uint256"
            },
            {
              "internalType": "uint256",
              "name": "deadline",
              "type": "uint256"
            },
            {
              "internalType": "uint160",
              "name": "sqrtPriceLimitX96",
              "type": "uint160"
            },
            {
              "internalType": "bytes32",
              "name": "referralCode",
              "type": "bytes32"
            }
          ],
          "internalType": "struct IClearingHouse.OpenPositionParams",
          "name": "params",
          "type": "tuple"
        }
      ],
      "name": "openPosition",
      "outputs": [
        {
          "internalType": "uint256",
          "name": "base",
          "type": "uint256"
        },
        {
          "internalType": "uint256",
          "name": "quote",
          "type": "uint256"
        }
      ],
      "stateMutability": "nonpayable",
      "type": "function"
    }
  ],
  "bytecode": {
    "object": "0x608060405234801561001057600080fd5b506040516108ea3803806108ea833981810160405281019061003291906100db565b806000806101000a81548173ffffffffffffffffffffffffffffffffffffffff021916908373ffffffffffffffffffffffffffffffffffffffff16021790555050610108565b600080fd5b600073ffffffffffffffffffffffffffffffffffffffff82169050919050565b60006100a88261007d565b9050919050565b6100b88161009d565b81146100c357600080fd5b50565b6000815190506100d5816100af565b92915050565b6000602082840312156100f1576100f0610078565b5b60006100ff848285016100c6565b91505092915050565b6107d3806101176000396000f3fe608060405234801561001057600080fd5b50600436106100355760003560e01c8062aa9a891461003a578063b6b1b6c31461006b575b600080fd5b610054600480360381019061004f919061021c565b61009c565b604051610062929190610262565b60405180910390f35b6100856004803603810190610080919061050a565b610142565b604051610093929190610262565b60405180910390f35b60008060008054906101000a900473ffffffffffffffffffffffffffffffffffffffff1673ffffffffffffffffffffffffffffffffffffffff1662aa9a89846040518263ffffffff1660e01b81526004016100f79190610660565b60408051808303816000875af1158015610115573d6000803e3d6000fd5b505050506040513d601f19601f820116820180604052508101906101399190610690565b91509150915091565b60008060008054906101000a900473ffffffffffffffffffffffffffffffffffffffff1673ffffffffffffffffffffffffffffffffffffffff1663b6b1b6c3846040518263ffffffff1660e01b815260040161019e9190610781565b60408051808303816000875af11580156101bc573d6000803e3d6000fd5b505050506040513d601f19601f820116820180604052508101906101e09190610690565b91509150915091565b6000604051905090565b600080fd5b600080fd5b600060a08284031215610213576102126101f8565b5b81905092915050565b600060a08284031215610232576102316101f3565b5b6000610240848285016101fd565b91505092915050565b6000819050919050565b61025c81610249565b82525050565b60006040820190506102776000830185610253565b6102846020830184610253565b9392505050565b600080fd5b6000601f19601f8301169050919050565b7f4e487b7100000000000000000000000000000000000000000000000000000000600052604160045260246000fd5b6102d982610290565b810181811067ffffffffffffffff821117156102f8576102f76102a1565b5b80604052505050565b600061030b6101e9565b905061031782826102d0565b919050565b600073ffffffffffffffffffffffffffffffffffffffff82169050919050565b60006103478261031c565b9050919050565b6103578161033c565b811461036257600080fd5b50565b6000813590506103748161034e565b92915050565b60008115159050919050565b61038f8161037a565b811461039a57600080fd5b50565b6000813590506103ac81610386565b92915050565b6103bb81610249565b81146103c657600080fd5b50565b6000813590506103d8816103b2565b92915050565b6103e78161031c565b81146103f257600080fd5b50565b600081359050610404816103de565b92915050565b6000819050919050565b61041d8161040a565b811461042857600080fd5b50565b60008135905061043a81610414565b92915050565b600061010082840312156104575761045661028b565b5b610462610100610301565b9050600061047284828501610365565b60008301525060206104868482850161039d565b602083015250604061049a8482850161039d565b60408301525060606104ae848285016103c9565b60608301525060806104c2848285016103c9565b60808301525060a06104d6848285016103c9565b60a08301525060c06104ea848285016103f5565b60c08301525060e06104fe8482850161042b565b60e08301525092915050565b60006101008284031215610521576105206101f3565b5b600061052f84828501610440565b91505092915050565b60006105476020840184610365565b905092915050565b6105588161033c565b82525050565b600061056d60208401846103f5565b905092915050565b61057e8161031c565b82525050565b600061059360208401846103c9565b905092915050565b6105a481610249565b82525050565b60006105b9602084018461042b565b905092915050565b6105ca8161040a565b82525050565b60a082016105e16000830183610538565b6105ee600085018261054f565b506105fc602083018361055e565b6106096020850182610575565b506106176040830183610584565b610624604085018261059b565b506106326060830183610584565b61063f606085018261059b565b5061064d60808301836105aa565b61065a60808501826105c1565b50505050565b600060a08201905061067560008301846105d0565b92915050565b60008151905061068a816103b2565b92915050565b600080604083850312156106a7576106a66101f3565b5b60006106b58582860161067b565b92505060206106c68582860161067b565b9150509250929050565b6106d98161037a565b82525050565b610100820160008201516106f6600085018261054f565b50602082015161070960208501826106d0565b50604082015161071c60408501826106d0565b50606082015161072f606085018261059b565b506080820151610742608085018261059b565b5060a082015161075560a085018261059b565b5060c082015161076860c0850182610575565b5060e082015161077b60e08501826105c1565b50505050565b60006101008201905061079760008301846106df565b9291505056fea26469706673582212204216e31192c849f3d40bfb4b7f1e5e39b4a0a7670baab6ee766644cde488a3e264736f6c63430008110033",
    "linkReferences": {}
  },
  "methodIdentifiers": {
    "closePosition((address,uint160,uint256,uint256,bytes32))": "00aa9a89",
    "openPosition((address,bool,bool,uint256,uint256,uint256,uint160,bytes32))": "b6b1b6c3"
  },
  "id": 4
}