{
  "abi": [
    {
      "inputs": [
        {
          "internalType": "address",
          "name": "_perpfi",
          "type": "address"
        }
      ],
      "stateMutability": "nonpayable",
      "type": "constructor"
    },
    {
      "inputs": [
        {
          "components": [
            {
              "internalType": "address",
              "name": "baseToken",
              "type": "address"
            },
            {
              "internalType": "uint160",
              "name": "sqrtPriceLimitX96",
              "type": "uint160"
            },
            {
              "internalType": "uint256",
              "name": "oppositeAmountBound",
              "type": "uint256"
            },
            {
              "internalType": "uint256",
              "name": "deadline",
              "type": "uint256"
            },
            {
              "internalType": "bytes32",
              "name": "referralCode",
              "type": "bytes32"
            }
          ],
          "internalType": "struct IClearingHouse.ClosePositionParams",
          "name": "params",
          "type": "tuple"
        }
      ],
      "name": "closePosition",
      "outputs": [
        {
          "internalType": "uint256",
          "name": "base",
          "type": "uint256"
        },
        {
          "internalType": "uint256",
          "name": "quote",
          "type": "uint256"
        }
      ],
      "stateMutability": "nonpayable",
      "type": "function"
    },
    {
      "inputs": [
        {
          "components": [
            {
              "internalType": "address",
              "name": "baseToken",
              "type": "address"
            },
            {
              "internalType": "bool",
              "name": "isBaseToQuote",
              "type": "bool"
            },
            {
              "internalType": "bool",
              "name": "isExactInput",
              "type": "bool"
            },
            {
              "internalType": "uint256",
              "name": "amount",
              "type": "uint256"
            },
            {
              "internalType": "uint256",
              "name": "oppositeAmountBound",
              "type": "uint256"
            },
            {
              "internalType": "uint256",
              "name": "deadline",
              "type": "uint256"
            },
            {
              "internalType": "uint160",
              "name": "sqrtPriceLimitX96",
              "type": "uint160"
            },
            {
              "internalType": "bytes32",
              "name": "referralCode",
              "type": "bytes32"
            }
          ],
          "internalType": "struct IClearingHouse.OpenPositionParams",
          "name": "params",
          "type": "tuple"
        }
      ],
      "name": "openPosition",
      "outputs": [
        {
          "internalType": "uint256",
          "name": "base",
          "type": "uint256"
        },
        {
          "internalType": "uint256",
          "name": "quote",
          "type": "uint256"
        }
      ],
      "stateMutability": "nonpayable",
      "type": "function"
    }
  ],
  "bytecode": {
    "object": "0x608060405234801561001057600080fd5b506040516103c83803806103c883398101604081905261002f91610054565b600080546001600160a01b0319166001600160a01b0392909216919091179055610084565b60006020828403121561006657600080fd5b81516001600160a01b038116811461007d57600080fd5b9392505050565b610335806100936000396000f3fe608060405234801561001057600080fd5b50600436106100355760003560e01c8062aa9a891461003a578063b6b1b6c314610066575b600080fd5b61004d610048366004610178565b610079565b6040805192835260208301919091520160405180910390f35b61004d6100743660046101c8565b6100f3565b6000805460405162aa9a8960e01b815282916001600160a01b03169062aa9a89906100a8908690600401610282565b60408051808303816000875af11580156100c6573d6000803e3d6000fd5b505050506040513d601f19601f820116820180604052508101906100ea91906102db565b91509150915091565b600080546040805163b6b1b6c360e01b815284516001600160a01b0390811660048301526020860151151560248301529185015115156044820152606085015160648201526080850151608482015260a085015160a482015260c0850151821660c482015260e085015160e48201528392919091169063b6b1b6c390610104016100a8565b600060a0828403121561018a57600080fd5b50919050565b6001600160a01b03811681146101a557600080fd5b50565b80356101b381610190565b919050565b803580151581146101b357600080fd5b60006101008083850312156101dc57600080fd5b6040519081019067ffffffffffffffff8211818310171561020d57634e487b7160e01b600052604160045260246000fd5b8160405261021a846101a8565b8152610228602085016101b8565b6020820152610239604085016101b8565b6040820152606084013560608201526080840135608082015260a084013560a082015261026860c085016101a8565b60c082015260e084013560e0820152809250505092915050565b60a08101823561029181610190565b6001600160a01b0390811683526020840135906102ad82610190565b8082166020850152505060408301356040830152606083013560608301526080830135608083015292915050565b600080604083850312156102ee57600080fd5b50508051602090910151909290915056fea2646970667358221220fef72f7d45ad2dfa6f03ef6b0ca97f383076fd105022cc7ff5a421b461569bef64736f6c63430008110033",
    "linkReferences": {}
  },
  "methodIdentifiers": {
    "closePosition((address,uint160,uint256,uint256,bytes32))": "00aa9a89",
    "openPosition((address,bool,bool,uint256,uint256,uint256,uint160,bytes32))": "b6b1b6c3"
  },
  "id": 2
}