{
  "abi": [
    {
      "inputs": [],
      "stateMutability": "nonpayable",
      "type": "constructor"
    },
    {
      "anonymous": false,
      "inputs": [
        {
          "indexed": true,
          "internalType": "bytes32",
          "name": "role",
          "type": "bytes32"
        },
        {
          "indexed": true,
          "internalType": "bytes32",
          "name": "previousAdminRole",
          "type": "bytes32"
        },
        {
          "indexed": true,
          "internalType": "bytes32",
          "name": "newAdminRole",
          "type": "bytes32"
        }
      ],
      "name": "RoleAdminChanged",
      "type": "event"
    },
    {
      "anonymous": false,
      "inputs": [
        {
          "indexed": true,
          "internalType": "bytes32",
          "name": "role",
          "type": "bytes32"
        },
        {
          "indexed": true,
          "internalType": "address",
          "name": "account",
          "type": "address"
        },
        {
          "indexed": true,
          "internalType": "address",
          "name": "sender",
          "type": "address"
        }
      ],
      "name": "RoleGranted",
      "type": "event"
    },
    {
      "anonymous": false,
      "inputs": [
        {
          "indexed": true,
          "internalType": "bytes32",
          "name": "role",
          "type": "bytes32"
        },
        {
          "indexed": true,
          "internalType": "address",
          "name": "account",
          "type": "address"
        },
        {
          "indexed": true,
          "internalType": "address",
          "name": "sender",
          "type": "address"
        }
      ],
      "name": "RoleRevoked",
      "type": "event"
    },
    {
      "inputs": [],
      "name": "DEFAULT_ADMIN_ROLE",
      "outputs": [
        {
          "internalType": "bytes32",
          "name": "",
          "type": "bytes32"
        }
      ],
      "stateMutability": "view",
      "type": "function"
    },
    {
      "inputs": [],
      "name": "REGISTRAR_ROLE",
      "outputs": [
        {
          "internalType": "bytes32",
          "name": "",
          "type": "bytes32"
        }
      ],
      "stateMutability": "view",
      "type": "function"
    },
    {
      "inputs": [
        {
          "internalType": "bytes32",
          "name": "contractName",
          "type": "bytes32"
        },
        {
          "internalType": "address",
          "name": "contractAddress",
          "type": "address"
        }
      ],
      "name": "addContractToRegistry",
      "outputs": [],
      "stateMutability": "nonpayable",
      "type": "function"
    },
    {
      "inputs": [
        {
          "internalType": "bytes32",
          "name": "",
          "type": "bytes32"
        }
      ],
      "name": "contractRegistry",
      "outputs": [
        {
          "internalType": "address",
          "name": "",
          "type": "address"
        }
      ],
      "stateMutability": "view",
      "type": "function"
    },
    {
      "inputs": [
        {
          "internalType": "bytes32",
          "name": "contractName",
          "type": "bytes32"
        }
      ],
      "name": "getContractByName",
      "outputs": [
        {
          "internalType": "address",
          "name": "",
          "type": "address"
        }
      ],
      "stateMutability": "view",
      "type": "function"
    },
    {
      "inputs": [
        {
          "internalType": "bytes32",
          "name": "role",
          "type": "bytes32"
        }
      ],
      "name": "getRoleAdmin",
      "outputs": [
        {
          "internalType": "bytes32",
          "name": "",
          "type": "bytes32"
        }
      ],
      "stateMutability": "view",
      "type": "function"
    },
    {
      "inputs": [
        {
          "internalType": "bytes32",
          "name": "role",
          "type": "bytes32"
        },
        {
          "internalType": "address",
          "name": "account",
          "type": "address"
        }
      ],
      "name": "grantRole",
      "outputs": [],
      "stateMutability": "nonpayable",
      "type": "function"
    },
    {
      "inputs": [
        {
          "internalType": "bytes32",
          "name": "role",
          "type": "bytes32"
        },
        {
          "internalType": "address",
          "name": "account",
          "type": "address"
        }
      ],
      "name": "hasRole",
      "outputs": [
        {
          "internalType": "bool",
          "name": "",
          "type": "bool"
        }
      ],
      "stateMutability": "view",
      "type": "function"
    },
    {
      "inputs": [
        {
          "internalType": "bytes32",
          "name": "contractName",
          "type": "bytes32"
        }
      ],
      "name": "removeContractFromRegistry",
      "outputs": [],
      "stateMutability": "nonpayable",
      "type": "function"
    },
    {
      "inputs": [
        {
          "internalType": "bytes32",
          "name": "role",
          "type": "bytes32"
        },
        {
          "internalType": "address",
          "name": "account",
          "type": "address"
        }
      ],
      "name": "renounceRole",
      "outputs": [],
      "stateMutability": "nonpayable",
      "type": "function"
    },
    {
      "inputs": [
        {
          "internalType": "bytes32",
          "name": "role",
          "type": "bytes32"
        },
        {
          "internalType": "address",
          "name": "account",
          "type": "address"
        }
      ],
      "name": "revokeRole",
      "outputs": [],
      "stateMutability": "nonpayable",
      "type": "function"
    },
    {
      "inputs": [
        {
          "internalType": "bytes4",
          "name": "interfaceId",
          "type": "bytes4"
        }
      ],
      "name": "supportsInterface",
      "outputs": [
        {
          "internalType": "bool",
          "name": "",
          "type": "bool"
        }
      ],
      "stateMutability": "view",
      "type": "function"
    }
  ],
  "bytecode": {
    "object": "0x608060405234801561001057600080fd5b5061003b7fedcc084d3dcd65a1f7f23c65c46722faca6953d28e43150a467cf43e5c30923833610040565b6100ec565b61004a828261004e565b5050565b6000828152602081815260408083206001600160a01b038516845290915290205460ff1661004a576000828152602081815260408083206001600160a01b03851684529091529020805460ff191660011790556100a83390565b6001600160a01b0316816001600160a01b0316837f2f8788117e7eff1d82e926ec794901d17c78024a50270940304540a733656f0d60405160405180910390a45050565b610957806100fb6000396000f3fe608060405234801561001057600080fd5b50600436106100b45760003560e01c806391d148541161007157806391d14854146101605780639561092614610173578063a217fddf1461019e578063d01b879a146101a6578063d547741f146101cf578063f68e9553146101e257600080fd5b806301ffc9a7146100b9578063248a9ca3146100e15780632f2ff15d1461011257806336568abe146101275780633d108f8d1461013a5780637a3cad041461014d575b600080fd5b6100cc6100c7366004610753565b610209565b60405190151581526020015b60405180910390f35b6101046100ef36600461077d565b60009081526020819052604090206001015490565b6040519081526020016100d8565b610125610120366004610796565b610240565b005b610125610135366004610796565b61026a565b61012561014836600461077d565b6102ed565b61012561015b366004610796565b610336565b6100cc61016e366004610796565b61038f565b61018661018136600461077d565b6103b8565b6040516001600160a01b0390911681526020016100d8565b610104600081565b6101866101b436600461077d565b6001602052600090815260409020546001600160a01b031681565b6101256101dd366004610796565b610431565b6101047fedcc084d3dcd65a1f7f23c65c46722faca6953d28e43150a467cf43e5c30923881565b60006001600160e01b03198216637965db0b60e01b148061023a57506301ffc9a760e01b6001600160e01b03198316145b92915050565b60008281526020819052604090206001015461025b81610456565b6102658383610463565b505050565b6001600160a01b03811633146102df5760405162461bcd60e51b815260206004820152602f60248201527f416363657373436f6e74726f6c3a2063616e206f6e6c792072656e6f756e636560448201526e103937b632b9903337b91039b2b63360891b60648201526084015b60405180910390fd5b6102e982826104e7565b5050565b7fedcc084d3dcd65a1f7f23c65c46722faca6953d28e43150a467cf43e5c30923861031781610456565b50600090815260016020526040902080546001600160a01b0319169055565b7fedcc084d3dcd65a1f7f23c65c46722faca6953d28e43150a467cf43e5c30923861036081610456565b5060009182526001602052604090912080546001600160a01b0319166001600160a01b03909216919091179055565b6000918252602082815260408084206001600160a01b0393909316845291905290205460ff1690565b6000818152600160205260408120546001600160a01b03166104155760405162461bcd60e51b815260206004820152601660248201527510d48e8810dbdb9d1c9858dd081b9bdd08199bdd5b9960521b60448201526064016102d6565b506000908152600160205260409020546001600160a01b031690565b60008281526020819052604090206001015461044c81610456565b61026583836104e7565b610460813361054c565b50565b61046d828261038f565b6102e9576000828152602081815260408083206001600160a01b03851684529091529020805460ff191660011790556104a33390565b6001600160a01b0316816001600160a01b0316837f2f8788117e7eff1d82e926ec794901d17c78024a50270940304540a733656f0d60405160405180910390a45050565b6104f1828261038f565b156102e9576000828152602081815260408083206001600160a01b0385168085529252808320805460ff1916905551339285917ff6391f5c32d9c69d2a47ea670b442974b53935d1edc7fd64eb21e047a839171b9190a45050565b610556828261038f565b6102e95761056e816001600160a01b031660146105b0565b6105798360206105b0565b60405160200161058a9291906107f6565b60408051601f198184030181529082905262461bcd60e51b82526102d69160040161086b565b606060006105bf8360026108b4565b6105ca9060026108cb565b67ffffffffffffffff8111156105e2576105e26108de565b6040519080825280601f01601f19166020018201604052801561060c576020820181803683370190505b509050600360fc1b81600081518110610627576106276108f4565b60200101906001600160f81b031916908160001a905350600f60fb1b81600181518110610656576106566108f4565b60200101906001600160f81b031916908160001a905350600061067a8460026108b4565b6106859060016108cb565b90505b60018111156106fd576f181899199a1a9b1b9c1cb0b131b232b360811b85600f16601081106106b9576106b96108f4565b1a60f81b8282815181106106cf576106cf6108f4565b60200101906001600160f81b031916908160001a90535060049490941c936106f68161090a565b9050610688565b50831561074c5760405162461bcd60e51b815260206004820181905260248201527f537472696e67733a20686578206c656e67746820696e73756666696369656e7460448201526064016102d6565b9392505050565b60006020828403121561076557600080fd5b81356001600160e01b03198116811461074c57600080fd5b60006020828403121561078f57600080fd5b5035919050565b600080604083850312156107a957600080fd5b8235915060208301356001600160a01b03811681146107c757600080fd5b809150509250929050565b60005b838110156107ed5781810151838201526020016107d5565b50506000910152565b7f416363657373436f6e74726f6c3a206163636f756e742000000000000000000081526000835161082e8160178501602088016107d2565b7001034b99036b4b9b9b4b733903937b6329607d1b601791840191820152835161085f8160288401602088016107d2565b01602801949350505050565b602081526000825180602084015261088a8160408501602087016107d2565b601f01601f19169190910160400192915050565b634e487b7160e01b600052601160045260246000fd5b808202811582820484141761023a5761023a61089e565b8082018082111561023a5761023a61089e565b634e487b7160e01b600052604160045260246000fd5b634e487b7160e01b600052603260045260246000fd5b6000816109195761091961089e565b50600019019056fea2646970667358221220d49c67defdd55b955b244d881fc955896ae99b938c7a7370706cfb0ae91a8a0764736f6c63430008110033",
    "linkReferences": {}
  },
  "methodIdentifiers": {
    "DEFAULT_ADMIN_ROLE()": "a217fddf",
    "REGISTRAR_ROLE()": "f68e9553",
    "addContractToRegistry(bytes32,address)": "7a3cad04",
    "contractRegistry(bytes32)": "d01b879a",
    "getContractByName(bytes32)": "95610926",
    "getRoleAdmin(bytes32)": "248a9ca3",
    "grantRole(bytes32,address)": "2f2ff15d",
    "hasRole(bytes32,address)": "91d14854",
    "removeContractFromRegistry(bytes32)": "3d108f8d",
    "renounceRole(bytes32,address)": "36568abe",
    "revokeRole(bytes32,address)": "d547741f",
    "supportsInterface(bytes4)": "01ffc9a7"
  },
  "id": 57
}