{
  "abi": [
    {
      "inputs": [],
      "name": "decimals",
      "outputs": [
        {
          "internalType": "uint8",
          "name": "",
          "type": "uint8"
        }
      ],
      "stateMutability": "view",
      "type": "function"
    },
    {
      "inputs": [],
      "name": "description",
      "outputs": [
        {
          "internalType": "string",
          "name": "",
          "type": "string"
        }
      ],
      "stateMutability": "view",
      "type": "function"
    },
    {
      "inputs": [
        {
          "internalType": "uint80",
          "name": "_roundId",
          "type": "uint80"
        }
      ],
      "name": "getRoundData",
      "outputs": [
        {
          "internalType": "uint80",
          "name": "roundId",
          "type": "uint80"
        },
        {
          "internalType": "int256",
          "name": "answer",
          "type": "int256"
        },
        {
          "internalType": "uint256",
          "name": "startedAt",
          "type": "uint256"
        },
        {
          "internalType": "uint256",
          "name": "updatedAt",
          "type": "uint256"
        },
        {
          "internalType": "uint80",
          "name": "answeredInRound",
          "type": "uint80"
        }
      ],
      "stateMutability": "view",
      "type": "function"
    },
    {
      "inputs": [],
      "name": "latestRoundData",
      "outputs": [
        {
          "internalType": "uint80",
          "name": "roundId",
          "type": "uint80"
        },
        {
          "internalType": "int256",
          "name": "answer",
          "type": "int256"
        },
        {
          "internalType": "uint256",
          "name": "startedAt",
          "type": "uint256"
        },
        {
          "internalType": "uint256",
          "name": "updatedAt",
          "type": "uint256"
        },
        {
          "internalType": "uint80",
          "name": "answeredInRound",
          "type": "uint80"
        }
      ],
      "stateMutability": "view",
      "type": "function"
    },
    {
      "inputs": [],
      "name": "version",
      "outputs": [
        {
          "internalType": "uint256",
          "name": "",
          "type": "uint256"
        }
      ],
      "stateMutability": "view",
      "type": "function"
    }
  ],
  "bytecode": {
    "object": "0x608060405234801561001057600080fd5b50610367806100206000396000f3fe608060405234801561001057600080fd5b50600436106100575760003560e01c8063313ce5671461005c57806354fd4d501461007a5780637284e416146100985780639a6fc8f5146100b6578063feaf968c146100ea575b600080fd5b61006461010c565b6040516100719190610141565b60405180910390f35b610082610111565b60405161008f9190610175565b60405180910390f35b6100a0610116565b6040516100ad9190610220565b60405180910390f35b6100d060048036038101906100cb9190610289565b61011b565b6040516100e19594939291906102de565b60405180910390f35b6100f2610120565b6040516101039594939291906102de565b60405180910390f35b600080fd5b600080fd5b600080fd5b600080fd5b600080fd5b600060ff82169050919050565b61013b81610125565b82525050565b60006020820190506101566000830184610132565b92915050565b6000819050919050565b61016f8161015c565b82525050565b600060208201905061018a6000830184610166565b92915050565b600081519050919050565b600082825260208201905092915050565b60005b838110156101ca5780820151818401526020810190506101af565b60008484015250505050565b6000601f19601f8301169050919050565b60006101f282610190565b6101fc818561019b565b935061020c8185602086016101ac565b610215816101d6565b840191505092915050565b6000602082019050818103600083015261023a81846101e7565b905092915050565b600080fd5b600069ffffffffffffffffffff82169050919050565b61026681610247565b811461027157600080fd5b50565b6000813590506102838161025d565b92915050565b60006020828403121561029f5761029e610242565b5b60006102ad84828501610274565b91505092915050565b6102bf81610247565b82525050565b6000819050919050565b6102d8816102c5565b82525050565b600060a0820190506102f360008301886102b6565b61030060208301876102cf565b61030d6040830186610166565b61031a6060830185610166565b61032760808301846102b6565b969550505050505056fea264697066735822122023b9db1741556828637ea480f01c58440dfaf5d28f896f3d22a466ab136747f764736f6c63430008110033",
    "linkReferences": {}
  },
  "methodIdentifiers": {
    "decimals()": "313ce567",
    "description()": "7284e416",
    "getRoundData(uint80)": "9a6fc8f5",
    "latestRoundData()": "feaf968c",
    "version()": "54fd4d50"
  },
  "id": 59
}