{
  "abi": [
    {
      "inputs": [],
      "name": "ACL_CALLER_NOT_CONFIGURATOR",
      "outputs": [
        {
          "internalType": "string",
          "name": "",
          "type": "string"
        }
      ],
      "stateMutability": "view",
      "type": "function"
    },
    {
      "inputs": [],
      "name": "ACL_CALLER_NOT_PAUSABLE_ADMIN",
      "outputs": [
        {
          "internalType": "string",
          "name": "",
          "type": "string"
        }
      ],
      "stateMutability": "view",
      "type": "function"
    },
    {
      "inputs": [],
      "name": "AF_CANT_CLOSE_CREDIT_ACCOUNT_IN_THE_SAME_BLOCK",
      "outputs": [
        {
          "internalType": "string",
          "name": "",
          "type": "string"
        }
      ],
      "stateMutability": "view",
      "type": "function"
    },
    {
      "inputs": [],
      "name": "AF_CREDIT_ACCOUNT_NOT_IN_STOCK",
      "outputs": [
        {
          "internalType": "string",
          "name": "",
          "type": "string"
        }
      ],
      "stateMutability": "view",
      "type": "function"
    },
    {
      "inputs": [],
      "name": "AF_EXTERNAL_ACCOUNTS_ARE_FORBIDDEN",
      "outputs": [
        {
          "internalType": "string",
          "name": "",
          "type": "string"
        }
      ],
      "stateMutability": "view",
      "type": "function"
    },
    {
      "inputs": [],
      "name": "AF_MINING_IS_FINISHED",
      "outputs": [
        {
          "internalType": "string",
          "name": "",
          "type": "string"
        }
      ],
      "stateMutability": "view",
      "type": "function"
    },
    {
      "inputs": [],
      "name": "AS_ADDRESS_NOT_FOUND",
      "outputs": [
        {
          "internalType": "string",
          "name": "",
          "type": "string"
        }
      ],
      "stateMutability": "view",
      "type": "function"
    },
    {
      "inputs": [],
      "name": "CA_CONNECTED_CREDIT_MANAGER_ONLY",
      "outputs": [
        {
          "internalType": "string",
          "name": "",
          "type": "string"
        }
      ],
      "stateMutability": "view",
      "type": "function"
    },
    {
      "inputs": [],
      "name": "CA_FACTORY_ONLY",
      "outputs": [
        {
          "internalType": "string",
          "name": "",
          "type": "string"
        }
      ],
      "stateMutability": "view",
      "type": "function"
    },
    {
      "inputs": [],
      "name": "CR_CREDIT_MANAGER_ALREADY_ADDED",
      "outputs": [
        {
          "internalType": "string",
          "name": "",
          "type": "string"
        }
      ],
      "stateMutability": "view",
      "type": "function"
    },
    {
      "inputs": [],
      "name": "CR_POOL_ALREADY_ADDED",
      "outputs": [
        {
          "internalType": "string",
          "name": "",
          "type": "string"
        }
      ],
      "stateMutability": "view",
      "type": "function"
    },
    {
      "inputs": [],
      "name": "INCORRECT_ARRAY_LENGTH",
      "outputs": [
        {
          "internalType": "string",
          "name": "",
          "type": "string"
        }
      ],
      "stateMutability": "view",
      "type": "function"
    },
    {
      "inputs": [],
      "name": "INCORRECT_PARAMETER",
      "outputs": [
        {
          "internalType": "string",
          "name": "",
          "type": "string"
        }
      ],
      "stateMutability": "view",
      "type": "function"
    },
    {
      "inputs": [],
      "name": "INCORRECT_PATH_LENGTH",
      "outputs": [
        {
          "internalType": "string",
          "name": "",
          "type": "string"
        }
      ],
      "stateMutability": "view",
      "type": "function"
    },
    {
      "inputs": [],
      "name": "MATH_ADDITION_OVERFLOW",
      "outputs": [
        {
          "internalType": "string",
          "name": "",
          "type": "string"
        }
      ],
      "stateMutability": "view",
      "type": "function"
    },
    {
      "inputs": [],
      "name": "MATH_DIVISION_BY_ZERO",
      "outputs": [
        {
          "internalType": "string",
          "name": "",
          "type": "string"
        }
      ],
      "stateMutability": "view",
      "type": "function"
    },
    {
      "inputs": [],
      "name": "MATH_MULTIPLICATION_OVERFLOW",
      "outputs": [
        {
          "internalType": "string",
          "name": "",
          "type": "string"
        }
      ],
      "stateMutability": "view",
      "type": "function"
    },
    {
      "inputs": [],
      "name": "NOT_IMPLEMENTED",
      "outputs": [
        {
          "internalType": "string",
          "name": "",
          "type": "string"
        }
      ],
      "stateMutability": "view",
      "type": "function"
    },
    {
      "inputs": [],
      "name": "POOL_CANT_ADD_CREDIT_MANAGER_TWICE",
      "outputs": [
        {
          "internalType": "string",
          "name": "",
          "type": "string"
        }
      ],
      "stateMutability": "view",
      "type": "function"
    },
    {
      "inputs": [],
      "name": "POOL_CONNECTED_CREDIT_MANAGERS_ONLY",
      "outputs": [
        {
          "internalType": "string",
          "name": "",
          "type": "string"
        }
      ],
      "stateMutability": "view",
      "type": "function"
    },
    {
      "inputs": [],
      "name": "POOL_INCOMPATIBLE_CREDIT_ACCOUNT_MANAGER",
      "outputs": [
        {
          "internalType": "string",
          "name": "",
          "type": "string"
        }
      ],
      "stateMutability": "view",
      "type": "function"
    },
    {
      "inputs": [],
      "name": "POOL_INCORRECT_WITHDRAW_FEE",
      "outputs": [
        {
          "internalType": "string",
          "name": "",
          "type": "string"
        }
      ],
      "stateMutability": "view",
      "type": "function"
    },
    {
      "inputs": [],
      "name": "POOL_MORE_THAN_EXPECTED_LIQUIDITY_LIMIT",
      "outputs": [
        {
          "internalType": "string",
          "name": "",
          "type": "string"
        }
      ],
      "stateMutability": "view",
      "type": "function"
    },
    {
      "inputs": [],
      "name": "REGISTERED_CREDIT_ACCOUNT_MANAGERS_ONLY",
      "outputs": [
        {
          "internalType": "string",
          "name": "",
          "type": "string"
        }
      ],
      "stateMutability": "view",
      "type": "function"
    },
    {
      "inputs": [],
      "name": "REGISTERED_POOLS_ONLY",
      "outputs": [
        {
          "internalType": "string",
          "name": "",
          "type": "string"
        }
      ],
      "stateMutability": "view",
      "type": "function"
    },
    {
      "inputs": [],
      "name": "TD_CONTRIBUTOR_IS_NOT_REGISTERED",
      "outputs": [
        {
          "internalType": "string",
          "name": "",
          "type": "string"
        }
      ],
      "stateMutability": "view",
      "type": "function"
    },
    {
      "inputs": [],
      "name": "TD_INCORRECT_WEIGHTS",
      "outputs": [
        {
          "internalType": "string",
          "name": "",
          "type": "string"
        }
      ],
      "stateMutability": "view",
      "type": "function"
    },
    {
      "inputs": [],
      "name": "TD_NON_ZERO_BALANCE_AFTER_DISTRIBUTION",
      "outputs": [
        {
          "internalType": "string",
          "name": "",
          "type": "string"
        }
      ],
      "stateMutability": "view",
      "type": "function"
    },
    {
      "inputs": [],
      "name": "TD_WALLET_IS_ALREADY_CONNECTED_TO_VC",
      "outputs": [
        {
          "internalType": "string",
          "name": "",
          "type": "string"
        }
      ],
      "stateMutability": "view",
      "type": "function"
    },
    {
      "inputs": [],
      "name": "WG_DESTINATION_IS_NOT_WETH_COMPATIBLE",
      "outputs": [
        {
          "internalType": "string",
          "name": "",
          "type": "string"
        }
      ],
      "stateMutability": "view",
      "type": "function"
    },
    {
      "inputs": [],
      "name": "WG_NOT_ENOUGH_FUNDS",
      "outputs": [
        {
          "internalType": "string",
          "name": "",
          "type": "string"
        }
      ],
      "stateMutability": "view",
      "type": "function"
    },
    {
      "inputs": [],
      "name": "WG_RECEIVE_IS_NOT_ALLOWED",
      "outputs": [
        {
          "internalType": "string",
          "name": "",
          "type": "string"
        }
      ],
      "stateMutability": "view",
      "type": "function"
    },
    {
      "inputs": [],
      "name": "ZERO_ADDRESS_IS_NOT_ALLOWED",
      "outputs": [
        {
          "internalType": "string",
          "name": "",
          "type": "string"
        }
      ],
      "stateMutability": "view",
      "type": "function"
    }
  ],
  "bytecode": {
    "object": "0x6106fe61003a600b82828239805160001a60731461002d57634e487b7160e01b600052600060045260246000fd5b30600052607381538281f3fe73000000000000000000000000000000000000000030146080604052600436106102055760003560e01c806387f88ef411610124578063bdcb2576116100b7578063de63cd4011610086578063de63cd40146105d0578063e7f3be0c146105f2578063ebbd977f14610613578063fe32e65d14610636578063ff2a04e31461065857600080fd5b8063bdcb257614610549578063beea5ec21461056a578063ccbf92781461058c578063d1a65a38146105ae57600080fd5b8063a988ac60116100f3578063a988ac60146104c0578063abc3d254146104e3578063ac75713914610505578063b563b3001461052757600080fd5b806387f88ef41461043957806394391a4a1461045b57806399a98c991461047c578063a27c03701461049e57600080fd5b80633647c9f91161019c57806343f6e4ab1161016b57806343f6e4ab146103b2578063447d8e42146103d357806353278911146103f557806376d9ebb81461041757600080fd5b80633647c9f91461032d5780633df46fe51461034f5780633f3153b2146103705780634349e3d81461039157600080fd5b80630f5ee482116101d85780630f5ee482146102a6578063119427c5146102c75780632357f362146102e957806328432c221461030b57600080fd5b8063029d23441461020a5780630a2b1d3a146102415780630afeee97146102635780630c9409e714610284575b600080fd5b61022b604051806040016040528060028152602001614d3160f01b81525081565b604051610238919061067a565b60405180910390f35b61022b6040518060400160405280600381526020016243523160e81b81525081565b61022b60405180604001604052806002815260200161052560f41b81525081565b61022b6040518060400160405280600381526020016241463160e81b81525081565b61022b60405180604001604052806002815260200161269960f11b81525081565b61022b6040518060400160405280600381526020016228299960e91b81525081565b61022b6040518060400160405280600381526020016221a09960e91b81525081565b61022b6040518060400160405280600381526020016250533360e81b81525081565b61022b6040518060400160405280600381526020016257473160e81b81525081565b61022b60405180604001604052806002815260200161141360f21b81525081565b61022b6040518060400160405280600281526020016105a360f41b81525081565b61022b604051806040016040528060028152602001614d3360f01b81525081565b61022b604051806040016040528060028152602001614e4960f01b81525081565b61022b604051806040016040528060038152602001622ba39960e91b81525081565b61022b6040518060400160405280600381526020016254443160e81b81525081565b61022b6040518060400160405280600381526020016205053360ec1b81525081565b61022b6040518060400160405280600381526020016220a31960e91b81525081565b61022b60405180604001604052806002815260200161043560f41b81525081565b61022b6040518060400160405280600381526020016221a91960e91b81525081565b61022b6040518060400160405280600381526020016250533160e81b81525081565b61022b6040518060400160405280600481526020016341434c3160e01b81525081565b61022b6040518060400160405280600381526020016254443360e81b81525081565b61022b6040518060400160405280600381526020016241463360e81b81525081565b61022b6040518060400160405280600381526020016215110d60ea1b81525081565b61022b60405180604001604052806002815260200161049560f41b81525081565b61022b6040518060400160405280600381526020016257473360e81b81525081565b61022b604051806040016040528060038152602001621414cd60ea1b81525081565b61022b6040518060400160405280600381526020016210518d60ea1b81525081565b61022b6040518060400160405280600381526020016241503160e81b81525081565b61022b6040518060400160405280600281526020016121a960f11b81525081565b61022b6040518060400160405280600481526020016320a1a61960e11b81525081565b61022b604051806040016040528060038152602001622a221960e91b81525081565b61022b6040518060400160405280600381526020016243413160e81b81525081565b600060208083528351808285015260005b818110156106a75785810183015185820160400152820161068b565b506000604082860101526040601f19601f830116850101925050509291505056fea26469706673582212208ef3ed026f953b6bf724cc32617ccf8f2f4ca676c5665c76437137abe1a1937264736f6c63430008110033",
    "linkReferences": {}
  },
  "methodIdentifiers": {
    "ACL_CALLER_NOT_CONFIGURATOR()": "ebbd977f",
    "ACL_CALLER_NOT_PAUSABLE_ADMIN()": "a988ac60",
    "AF_CANT_CLOSE_CREDIT_ACCOUNT_IN_THE_SAME_BLOCK()": "0c9409e7",
    "AF_CREDIT_ACCOUNT_NOT_IN_STOCK()": "ac757139",
    "AF_EXTERNAL_ACCOUNTS_ARE_FORBIDDEN()": "d1a65a38",
    "AF_MINING_IS_FINISHED()": "87f88ef4",
    "AS_ADDRESS_NOT_FOUND()": "de63cd40",
    "CA_CONNECTED_CREDIT_MANAGER_ONLY()": "ff2a04e3",
    "CA_FACTORY_ONLY()": "2357f362",
    "CR_CREDIT_MANAGER_ALREADY_ADDED()": "99a98c99",
    "CR_POOL_ALREADY_ADDED()": "0a2b1d3a",
    "INCORRECT_ARRAY_LENGTH()": "e7f3be0c",
    "INCORRECT_PARAMETER()": "bdcb2576",
    "INCORRECT_PATH_LENGTH()": "3df46fe5",
    "MATH_ADDITION_OVERFLOW()": "0f5ee482",
    "MATH_DIVISION_BY_ZERO()": "4349e3d8",
    "MATH_MULTIPLICATION_OVERFLOW()": "029d2344",
    "NOT_IMPLEMENTED()": "43f6e4ab",
    "POOL_CANT_ADD_CREDIT_MANAGER_TWICE()": "ccbf9278",
    "POOL_CONNECTED_CREDIT_MANAGERS_ONLY()": "76d9ebb8",
    "POOL_INCOMPATIBLE_CREDIT_ACCOUNT_MANAGER()": "a27c0370",
    "POOL_INCORRECT_WITHDRAW_FEE()": "28432c22",
    "POOL_MORE_THAN_EXPECTED_LIQUIDITY_LIMIT()": "119427c5",
    "REGISTERED_CREDIT_ACCOUNT_MANAGERS_ONLY()": "94391a4a",
    "REGISTERED_POOLS_ONLY()": "0afeee97",
    "TD_CONTRIBUTOR_IS_NOT_REGISTERED()": "b563b300",
    "TD_INCORRECT_WEIGHTS()": "fe32e65d",
    "TD_NON_ZERO_BALANCE_AFTER_DISTRIBUTION()": "abc3d254",
    "TD_WALLET_IS_ALREADY_CONNECTED_TO_VC()": "53278911",
    "WG_DESTINATION_IS_NOT_WETH_COMPATIBLE()": "3647c9f9",
    "WG_NOT_ENOUGH_FUNDS()": "beea5ec2",
    "WG_RECEIVE_IS_NOT_ALLOWED()": "447d8e42",
    "ZERO_ADDRESS_IS_NOT_ALLOWED()": "3f3153b2"
  },
  "id": 36
}