{
  "abi": [
    {
      "inputs": [],
      "name": "ACL_CALLER_NOT_CONFIGURATOR",
      "outputs": [
        {
          "internalType": "string",
          "name": "",
          "type": "string"
        }
      ],
      "stateMutability": "view",
      "type": "function"
    },
    {
      "inputs": [],
      "name": "ACL_CALLER_NOT_PAUSABLE_ADMIN",
      "outputs": [
        {
          "internalType": "string",
          "name": "",
          "type": "string"
        }
      ],
      "stateMutability": "view",
      "type": "function"
    },
    {
      "inputs": [],
      "name": "AF_CANT_CLOSE_CREDIT_ACCOUNT_IN_THE_SAME_BLOCK",
      "outputs": [
        {
          "internalType": "string",
          "name": "",
          "type": "string"
        }
      ],
      "stateMutability": "view",
      "type": "function"
    },
    {
      "inputs": [],
      "name": "AF_CREDIT_ACCOUNT_NOT_IN_STOCK",
      "outputs": [
        {
          "internalType": "string",
          "name": "",
          "type": "string"
        }
      ],
      "stateMutability": "view",
      "type": "function"
    },
    {
      "inputs": [],
      "name": "AF_EXTERNAL_ACCOUNTS_ARE_FORBIDDEN",
      "outputs": [
        {
          "internalType": "string",
          "name": "",
          "type": "string"
        }
      ],
      "stateMutability": "view",
      "type": "function"
    },
    {
      "inputs": [],
      "name": "AF_MINING_IS_FINISHED",
      "outputs": [
        {
          "internalType": "string",
          "name": "",
          "type": "string"
        }
      ],
      "stateMutability": "view",
      "type": "function"
    },
    {
      "inputs": [],
      "name": "AS_ADDRESS_NOT_FOUND",
      "outputs": [
        {
          "internalType": "string",
          "name": "",
          "type": "string"
        }
      ],
      "stateMutability": "view",
      "type": "function"
    },
    {
      "inputs": [],
      "name": "CA_CONNECTED_CREDIT_MANAGER_ONLY",
      "outputs": [
        {
          "internalType": "string",
          "name": "",
          "type": "string"
        }
      ],
      "stateMutability": "view",
      "type": "function"
    },
    {
      "inputs": [],
      "name": "CA_FACTORY_ONLY",
      "outputs": [
        {
          "internalType": "string",
          "name": "",
          "type": "string"
        }
      ],
      "stateMutability": "view",
      "type": "function"
    },
    {
      "inputs": [],
      "name": "CR_CREDIT_MANAGER_ALREADY_ADDED",
      "outputs": [
        {
          "internalType": "string",
          "name": "",
          "type": "string"
        }
      ],
      "stateMutability": "view",
      "type": "function"
    },
    {
      "inputs": [],
      "name": "CR_POOL_ALREADY_ADDED",
      "outputs": [
        {
          "internalType": "string",
          "name": "",
          "type": "string"
        }
      ],
      "stateMutability": "view",
      "type": "function"
    },
    {
      "inputs": [],
      "name": "INCORRECT_ARRAY_LENGTH",
      "outputs": [
        {
          "internalType": "string",
          "name": "",
          "type": "string"
        }
      ],
      "stateMutability": "view",
      "type": "function"
    },
    {
      "inputs": [],
      "name": "INCORRECT_PARAMETER",
      "outputs": [
        {
          "internalType": "string",
          "name": "",
          "type": "string"
        }
      ],
      "stateMutability": "view",
      "type": "function"
    },
    {
      "inputs": [],
      "name": "INCORRECT_PATH_LENGTH",
      "outputs": [
        {
          "internalType": "string",
          "name": "",
          "type": "string"
        }
      ],
      "stateMutability": "view",
      "type": "function"
    },
    {
      "inputs": [],
      "name": "MATH_ADDITION_OVERFLOW",
      "outputs": [
        {
          "internalType": "string",
          "name": "",
          "type": "string"
        }
      ],
      "stateMutability": "view",
      "type": "function"
    },
    {
      "inputs": [],
      "name": "MATH_DIVISION_BY_ZERO",
      "outputs": [
        {
          "internalType": "string",
          "name": "",
          "type": "string"
        }
      ],
      "stateMutability": "view",
      "type": "function"
    },
    {
      "inputs": [],
      "name": "MATH_MULTIPLICATION_OVERFLOW",
      "outputs": [
        {
          "internalType": "string",
          "name": "",
          "type": "string"
        }
      ],
      "stateMutability": "view",
      "type": "function"
    },
    {
      "inputs": [],
      "name": "NOT_IMPLEMENTED",
      "outputs": [
        {
          "internalType": "string",
          "name": "",
          "type": "string"
        }
      ],
      "stateMutability": "view",
      "type": "function"
    },
    {
      "inputs": [],
      "name": "POOL_CANT_ADD_CREDIT_MANAGER_TWICE",
      "outputs": [
        {
          "internalType": "string",
          "name": "",
          "type": "string"
        }
      ],
      "stateMutability": "view",
      "type": "function"
    },
    {
      "inputs": [],
      "name": "POOL_CONNECTED_CREDIT_MANAGERS_ONLY",
      "outputs": [
        {
          "internalType": "string",
          "name": "",
          "type": "string"
        }
      ],
      "stateMutability": "view",
      "type": "function"
    },
    {
      "inputs": [],
      "name": "POOL_INCOMPATIBLE_CREDIT_ACCOUNT_MANAGER",
      "outputs": [
        {
          "internalType": "string",
          "name": "",
          "type": "string"
        }
      ],
      "stateMutability": "view",
      "type": "function"
    },
    {
      "inputs": [],
      "name": "POOL_INCORRECT_WITHDRAW_FEE",
      "outputs": [
        {
          "internalType": "string",
          "name": "",
          "type": "string"
        }
      ],
      "stateMutability": "view",
      "type": "function"
    },
    {
      "inputs": [],
      "name": "POOL_MORE_THAN_EXPECTED_LIQUIDITY_LIMIT",
      "outputs": [
        {
          "internalType": "string",
          "name": "",
          "type": "string"
        }
      ],
      "stateMutability": "view",
      "type": "function"
    },
    {
      "inputs": [],
      "name": "REGISTERED_CREDIT_ACCOUNT_MANAGERS_ONLY",
      "outputs": [
        {
          "internalType": "string",
          "name": "",
          "type": "string"
        }
      ],
      "stateMutability": "view",
      "type": "function"
    },
    {
      "inputs": [],
      "name": "REGISTERED_POOLS_ONLY",
      "outputs": [
        {
          "internalType": "string",
          "name": "",
          "type": "string"
        }
      ],
      "stateMutability": "view",
      "type": "function"
    },
    {
      "inputs": [],
      "name": "TD_CONTRIBUTOR_IS_NOT_REGISTERED",
      "outputs": [
        {
          "internalType": "string",
          "name": "",
          "type": "string"
        }
      ],
      "stateMutability": "view",
      "type": "function"
    },
    {
      "inputs": [],
      "name": "TD_INCORRECT_WEIGHTS",
      "outputs": [
        {
          "internalType": "string",
          "name": "",
          "type": "string"
        }
      ],
      "stateMutability": "view",
      "type": "function"
    },
    {
      "inputs": [],
      "name": "TD_NON_ZERO_BALANCE_AFTER_DISTRIBUTION",
      "outputs": [
        {
          "internalType": "string",
          "name": "",
          "type": "string"
        }
      ],
      "stateMutability": "view",
      "type": "function"
    },
    {
      "inputs": [],
      "name": "TD_WALLET_IS_ALREADY_CONNECTED_TO_VC",
      "outputs": [
        {
          "internalType": "string",
          "name": "",
          "type": "string"
        }
      ],
      "stateMutability": "view",
      "type": "function"
    },
    {
      "inputs": [],
      "name": "WG_DESTINATION_IS_NOT_WETH_COMPATIBLE",
      "outputs": [
        {
          "internalType": "string",
          "name": "",
          "type": "string"
        }
      ],
      "stateMutability": "view",
      "type": "function"
    },
    {
      "inputs": [],
      "name": "WG_NOT_ENOUGH_FUNDS",
      "outputs": [
        {
          "internalType": "string",
          "name": "",
          "type": "string"
        }
      ],
      "stateMutability": "view",
      "type": "function"
    },
    {
      "inputs": [],
      "name": "WG_RECEIVE_IS_NOT_ALLOWED",
      "outputs": [
        {
          "internalType": "string",
          "name": "",
          "type": "string"
        }
      ],
      "stateMutability": "view",
      "type": "function"
    },
    {
      "inputs": [],
      "name": "ZERO_ADDRESS_IS_NOT_ALLOWED",
      "outputs": [
        {
          "internalType": "string",
          "name": "",
          "type": "string"
        }
      ],
      "stateMutability": "view",
      "type": "function"
    }
  ],
  "bytecode": {
    "object": "0x610e29610053600b82828239805160001a607314610046577f4e487b7100000000000000000000000000000000000000000000000000000000600052600060045260246000fd5b30600052607381538281f3fe73000000000000000000000000000000000000000030146080604052600436106102055760003560e01c806387f88ef411610124578063bdcb2576116100b7578063de63cd4011610086578063de63cd4014610552578063e7f3be0c14610570578063ebbd977f1461058e578063fe32e65d146105ac578063ff2a04e3146105ca57610205565b8063bdcb2576146104da578063beea5ec2146104f8578063ccbf927814610516578063d1a65a381461053457610205565b8063a988ac60116100f3578063a988ac6014610462578063abc3d25414610480578063ac7571391461049e578063b563b300146104bc57610205565b806387f88ef4146103ea57806394391a4a1461040857806399a98c9914610426578063a27c03701461044457610205565b80633647c9f91161019c57806343f6e4ab1161016b57806343f6e4ab14610372578063447d8e421461039057806353278911146103ae57806376d9ebb8146103cc57610205565b80633647c9f9146102fa5780633df46fe5146103185780633f3153b2146103365780634349e3d81461035457610205565b80630f5ee482116101d85780630f5ee48214610282578063119427c5146102a05780632357f362146102be57806328432c22146102dc57610205565b8063029d23441461020a5780630a2b1d3a146102285780630afeee97146102465780630c9409e714610264575b600080fd5b6102126105e8565b60405161021f9190610dd1565b60405180910390f35b610230610621565b60405161023d9190610dd1565b60405180910390f35b61024e61065a565b60405161025b9190610dd1565b60405180910390f35b61026c610693565b6040516102799190610dd1565b60405180910390f35b61028a6106cc565b6040516102979190610dd1565b60405180910390f35b6102a8610705565b6040516102b59190610dd1565b60405180910390f35b6102c661073e565b6040516102d39190610dd1565b60405180910390f35b6102e4610777565b6040516102f19190610dd1565b60405180910390f35b6103026107b0565b60405161030f9190610dd1565b60405180910390f35b6103206107e9565b60405161032d9190610dd1565b60405180910390f35b61033e610822565b60405161034b9190610dd1565b60405180910390f35b61035c61085b565b6040516103699190610dd1565b60405180910390f35b61037a610894565b6040516103879190610dd1565b60405180910390f35b6103986108cd565b6040516103a59190610dd1565b60405180910390f35b6103b6610906565b6040516103c39190610dd1565b60405180910390f35b6103d461093f565b6040516103e19190610dd1565b60405180910390f35b6103f2610978565b6040516103ff9190610dd1565b60405180910390f35b6104106109b1565b60405161041d9190610dd1565b60405180910390f35b61042e6109ea565b60405161043b9190610dd1565b60405180910390f35b61044c610a23565b6040516104599190610dd1565b60405180910390f35b61046a610a5c565b6040516104779190610dd1565b60405180910390f35b610488610a95565b6040516104959190610dd1565b60405180910390f35b6104a6610ace565b6040516104b39190610dd1565b60405180910390f35b6104c4610b07565b6040516104d19190610dd1565b60405180910390f35b6104e2610b40565b6040516104ef9190610dd1565b60405180910390f35b610500610b79565b60405161050d9190610dd1565b60405180910390f35b61051e610bb2565b60405161052b9190610dd1565b60405180910390f35b61053c610beb565b6040516105499190610dd1565b60405180910390f35b61055a610c24565b6040516105679190610dd1565b60405180910390f35b610578610c5d565b6040516105859190610dd1565b60405180910390f35b610596610c96565b6040516105a39190610dd1565b60405180910390f35b6105b4610ccf565b6040516105c19190610dd1565b60405180910390f35b6105d2610d08565b6040516105df9190610dd1565b60405180910390f35b6040518060400160405280600281526020017f4d3100000000000000000000000000000000000000000000000000000000000081525081565b6040518060400160405280600381526020017f435231000000000000000000000000000000000000000000000000000000000081525081565b6040518060400160405280600281526020017f525000000000000000000000000000000000000000000000000000000000000081525081565b6040518060400160405280600381526020017f414631000000000000000000000000000000000000000000000000000000000081525081565b6040518060400160405280600281526020017f4d3200000000000000000000000000000000000000000000000000000000000081525081565b6040518060400160405280600381526020017f505332000000000000000000000000000000000000000000000000000000000081525081565b6040518060400160405280600381526020017f434132000000000000000000000000000000000000000000000000000000000081525081565b6040518060400160405280600381526020017f505333000000000000000000000000000000000000000000000000000000000081525081565b6040518060400160405280600381526020017f574731000000000000000000000000000000000000000000000000000000000081525081565b6040518060400160405280600281526020017f504c00000000000000000000000000000000000000000000000000000000000081525081565b6040518060400160405280600281526020017f5a3000000000000000000000000000000000000000000000000000000000000081525081565b6040518060400160405280600281526020017f4d3300000000000000000000000000000000000000000000000000000000000081525081565b6040518060400160405280600281526020017f4e4900000000000000000000000000000000000000000000000000000000000081525081565b6040518060400160405280600381526020017f574732000000000000000000000000000000000000000000000000000000000081525081565b6040518060400160405280600381526020017f544431000000000000000000000000000000000000000000000000000000000081525081565b6040518060400160405280600381526020017f505330000000000000000000000000000000000000000000000000000000000081525081565b6040518060400160405280600381526020017f414632000000000000000000000000000000000000000000000000000000000081525081565b6040518060400160405280600281526020017f435000000000000000000000000000000000000000000000000000000000000081525081565b6040518060400160405280600381526020017f435232000000000000000000000000000000000000000000000000000000000081525081565b6040518060400160405280600381526020017f505331000000000000000000000000000000000000000000000000000000000081525081565b6040518060400160405280600481526020017f41434c310000000000000000000000000000000000000000000000000000000081525081565b6040518060400160405280600381526020017f544433000000000000000000000000000000000000000000000000000000000081525081565b6040518060400160405280600381526020017f414633000000000000000000000000000000000000000000000000000000000081525081565b6040518060400160405280600381526020017f544434000000000000000000000000000000000000000000000000000000000081525081565b6040518060400160405280600281526020017f495000000000000000000000000000000000000000000000000000000000000081525081565b6040518060400160405280600381526020017f574733000000000000000000000000000000000000000000000000000000000081525081565b6040518060400160405280600381526020017f505334000000000000000000000000000000000000000000000000000000000081525081565b6040518060400160405280600381526020017f414634000000000000000000000000000000000000000000000000000000000081525081565b6040518060400160405280600381526020017f415031000000000000000000000000000000000000000000000000000000000081525081565b6040518060400160405280600281526020017f435200000000000000000000000000000000000000000000000000000000000081525081565b6040518060400160405280600481526020017f41434c320000000000000000000000000000000000000000000000000000000081525081565b6040518060400160405280600381526020017f544432000000000000000000000000000000000000000000000000000000000081525081565b6040518060400160405280600381526020017f434131000000000000000000000000000000000000000000000000000000000081525081565b600081519050919050565b600082825260208201905092915050565b60005b83811015610d7b578082015181840152602081019050610d60565b60008484015250505050565b6000601f19601f8301169050919050565b6000610da382610d41565b610dad8185610d4c565b9350610dbd818560208601610d5d565b610dc681610d87565b840191505092915050565b60006020820190508181036000830152610deb8184610d98565b90509291505056fea264697066735822122003130b11d62c145287aca4171b55d08d60756a04472a0490bcf24d0c4c24e41564736f6c63430008110033",
    "linkReferences": {}
  },
  "methodIdentifiers": {
    "ACL_CALLER_NOT_CONFIGURATOR()": "ebbd977f",
    "ACL_CALLER_NOT_PAUSABLE_ADMIN()": "a988ac60",
    "AF_CANT_CLOSE_CREDIT_ACCOUNT_IN_THE_SAME_BLOCK()": "0c9409e7",
    "AF_CREDIT_ACCOUNT_NOT_IN_STOCK()": "ac757139",
    "AF_EXTERNAL_ACCOUNTS_ARE_FORBIDDEN()": "d1a65a38",
    "AF_MINING_IS_FINISHED()": "87f88ef4",
    "AS_ADDRESS_NOT_FOUND()": "de63cd40",
    "CA_CONNECTED_CREDIT_MANAGER_ONLY()": "ff2a04e3",
    "CA_FACTORY_ONLY()": "2357f362",
    "CR_CREDIT_MANAGER_ALREADY_ADDED()": "99a98c99",
    "CR_POOL_ALREADY_ADDED()": "0a2b1d3a",
    "INCORRECT_ARRAY_LENGTH()": "e7f3be0c",
    "INCORRECT_PARAMETER()": "bdcb2576",
    "INCORRECT_PATH_LENGTH()": "3df46fe5",
    "MATH_ADDITION_OVERFLOW()": "0f5ee482",
    "MATH_DIVISION_BY_ZERO()": "4349e3d8",
    "MATH_MULTIPLICATION_OVERFLOW()": "029d2344",
    "NOT_IMPLEMENTED()": "43f6e4ab",
    "POOL_CANT_ADD_CREDIT_MANAGER_TWICE()": "ccbf9278",
    "POOL_CONNECTED_CREDIT_MANAGERS_ONLY()": "76d9ebb8",
    "POOL_INCOMPATIBLE_CREDIT_ACCOUNT_MANAGER()": "a27c0370",
    "POOL_INCORRECT_WITHDRAW_FEE()": "28432c22",
    "POOL_MORE_THAN_EXPECTED_LIQUIDITY_LIMIT()": "119427c5",
    "REGISTERED_CREDIT_ACCOUNT_MANAGERS_ONLY()": "94391a4a",
    "REGISTERED_POOLS_ONLY()": "0afeee97",
    "TD_CONTRIBUTOR_IS_NOT_REGISTERED()": "b563b300",
    "TD_INCORRECT_WEIGHTS()": "fe32e65d",
    "TD_NON_ZERO_BALANCE_AFTER_DISTRIBUTION()": "abc3d254",
    "TD_WALLET_IS_ALREADY_CONNECTED_TO_VC()": "53278911",
    "WG_DESTINATION_IS_NOT_WETH_COMPATIBLE()": "3647c9f9",
    "WG_NOT_ENOUGH_FUNDS()": "beea5ec2",
    "WG_RECEIVE_IS_NOT_ALLOWED()": "447d8e42",
    "ZERO_ADDRESS_IS_NOT_ALLOWED()": "3f3153b2"
  },
  "id": 39
}