{
  "abi": [
    {
      "inputs": [],
      "stateMutability": "nonpayable",
      "type": "constructor"
    },
    {
      "anonymous": false,
      "inputs": [
        {
          "indexed": true,
          "internalType": "bytes32",
          "name": "role",
          "type": "bytes32"
        },
        {
          "indexed": true,
          "internalType": "bytes32",
          "name": "previousAdminRole",
          "type": "bytes32"
        },
        {
          "indexed": true,
          "internalType": "bytes32",
          "name": "newAdminRole",
          "type": "bytes32"
        }
      ],
      "name": "RoleAdminChanged",
      "type": "event"
    },
    {
      "anonymous": false,
      "inputs": [
        {
          "indexed": true,
          "internalType": "bytes32",
          "name": "role",
          "type": "bytes32"
        },
        {
          "indexed": true,
          "internalType": "address",
          "name": "account",
          "type": "address"
        },
        {
          "indexed": true,
          "internalType": "address",
          "name": "sender",
          "type": "address"
        }
      ],
      "name": "RoleGranted",
      "type": "event"
    },
    {
      "anonymous": false,
      "inputs": [
        {
          "indexed": true,
          "internalType": "bytes32",
          "name": "role",
          "type": "bytes32"
        },
        {
          "indexed": true,
          "internalType": "address",
          "name": "account",
          "type": "address"
        },
        {
          "indexed": true,
          "internalType": "address",
          "name": "sender",
          "type": "address"
        }
      ],
      "name": "RoleRevoked",
      "type": "event"
    },
    {
      "inputs": [],
      "name": "APPROVED_CONTRACT_ROLE",
      "outputs": [
        {
          "internalType": "bytes32",
          "name": "",
          "type": "bytes32"
        }
      ],
      "stateMutability": "view",
      "type": "function"
    },
    {
      "inputs": [],
      "name": "DAO_ROLE",
      "outputs": [
        {
          "internalType": "bytes32",
          "name": "",
          "type": "bytes32"
        }
      ],
      "stateMutability": "view",
      "type": "function"
    },
    {
      "inputs": [],
      "name": "DEFAULT_ADMIN_ROLE",
      "outputs": [
        {
          "internalType": "bytes32",
          "name": "",
          "type": "bytes32"
        }
      ],
      "stateMutability": "view",
      "type": "function"
    },
    {
      "inputs": [],
      "name": "KEEPER_ROLE",
      "outputs": [
        {
          "internalType": "bytes32",
          "name": "",
          "type": "bytes32"
        }
      ],
      "stateMutability": "view",
      "type": "function"
    },
    {
      "inputs": [
        {
          "internalType": "bytes32",
          "name": "role",
          "type": "bytes32"
        }
      ],
      "name": "getRoleAdmin",
      "outputs": [
        {
          "internalType": "bytes32",
          "name": "",
          "type": "bytes32"
        }
      ],
      "stateMutability": "view",
      "type": "function"
    },
    {
      "inputs": [
        {
          "internalType": "bytes32",
          "name": "permission",
          "type": "bytes32"
        },
        {
          "internalType": "address",
          "name": "account",
          "type": "address"
        }
      ],
      "name": "grantPermission",
      "outputs": [],
      "stateMutability": "nonpayable",
      "type": "function"
    },
    {
      "inputs": [
        {
          "internalType": "bytes32",
          "name": "role",
          "type": "bytes32"
        },
        {
          "internalType": "address",
          "name": "account",
          "type": "address"
        }
      ],
      "name": "grantRole",
      "outputs": [],
      "stateMutability": "nonpayable",
      "type": "function"
    },
    {
      "inputs": [
        {
          "internalType": "bytes32",
          "name": "permission",
          "type": "bytes32"
        },
        {
          "internalType": "address",
          "name": "account",
          "type": "address"
        }
      ],
      "name": "hasPermission",
      "outputs": [
        {
          "internalType": "bool",
          "name": "",
          "type": "bool"
        }
      ],
      "stateMutability": "view",
      "type": "function"
    },
    {
      "inputs": [
        {
          "internalType": "bytes32",
          "name": "role",
          "type": "bytes32"
        },
        {
          "internalType": "address",
          "name": "account",
          "type": "address"
        }
      ],
      "name": "hasRole",
      "outputs": [
        {
          "internalType": "bool",
          "name": "",
          "type": "bool"
        }
      ],
      "stateMutability": "view",
      "type": "function"
    },
    {
      "inputs": [
        {
          "internalType": "bytes32",
          "name": "role",
          "type": "bytes32"
        },
        {
          "internalType": "address",
          "name": "account",
          "type": "address"
        }
      ],
      "name": "isRoleAdmin",
      "outputs": [],
      "stateMutability": "view",
      "type": "function"
    },
    {
      "inputs": [
        {
          "internalType": "bytes32",
          "name": "role",
          "type": "bytes32"
        },
        {
          "internalType": "address",
          "name": "account",
          "type": "address"
        }
      ],
      "name": "renounceRole",
      "outputs": [],
      "stateMutability": "nonpayable",
      "type": "function"
    },
    {
      "inputs": [
        {
          "internalType": "address",
          "name": "account",
          "type": "address"
        }
      ],
      "name": "requireApprovedContractOrEOA",
      "outputs": [],
      "stateMutability": "view",
      "type": "function"
    },
    {
      "inputs": [
        {
          "internalType": "bytes32",
          "name": "permission",
          "type": "bytes32"
        },
        {
          "internalType": "address",
          "name": "account",
          "type": "address"
        }
      ],
      "name": "requirePermission",
      "outputs": [],
      "stateMutability": "view",
      "type": "function"
    },
    {
      "inputs": [
        {
          "internalType": "bytes32",
          "name": "role",
          "type": "bytes32"
        },
        {
          "internalType": "address",
          "name": "account",
          "type": "address"
        }
      ],
      "name": "requireRole",
      "outputs": [],
      "stateMutability": "view",
      "type": "function"
    },
    {
      "inputs": [
        {
          "internalType": "bytes32",
          "name": "permission",
          "type": "bytes32"
        }
      ],
      "name": "revokePermission",
      "outputs": [],
      "stateMutability": "nonpayable",
      "type": "function"
    },
    {
      "inputs": [
        {
          "internalType": "bytes32",
          "name": "role",
          "type": "bytes32"
        },
        {
          "internalType": "address",
          "name": "account",
          "type": "address"
        }
      ],
      "name": "revokeRole",
      "outputs": [],
      "stateMutability": "nonpayable",
      "type": "function"
    },
    {
      "inputs": [
        {
          "internalType": "bytes32",
          "name": "role",
          "type": "bytes32"
        },
        {
          "internalType": "bytes32",
          "name": "adminRole",
          "type": "bytes32"
        }
      ],
      "name": "setRoleAdmin",
      "outputs": [],
      "stateMutability": "nonpayable",
      "type": "function"
    }
  ],
  "bytecode": {
    "object": "0x608060405234801561001057600080fd5b503360009081527fad3228b676f7d3cd4284a5443f17f1962b36e491b30a40b2405849e597ba5fb560205260409020805460ff19166001179055610942806100596000396000f3fe608060405234801561001057600080fd5b506004361061010b5760003560e01c8063a217fddf116100a2578063d3e2f7fd11610071578063d3e2f7fd14610262578063d547741f14610275578063db47d43614610288578063e89005c71461029b578063e9c26518146102ae57600080fd5b8063a217fddf14610221578063bc58645614610229578063ce28a3011461023c578063d09a20c51461024f57600080fd5b806331035c82116100de57806331035c82146101ad578063364bc15a146101d457806336568abe146101fb57806391d148541461020e57600080fd5b80631e4e009114610110578063248a9ca31461012557806328545c0d1461015b5780632f2ff15d1461019a575b600080fd5b61012361011e366004610867565b6102d5565b005b610148610133366004610889565b60009081526020819052604090206001015490565b6040519081526020015b60405180910390f35b61018a6101693660046108be565b600091825260016020526040909120546001600160a01b0391821691161490565b6040519015158152602001610152565b6101236101a83660046108be565b610362565b6101487ffb639edf4b4a4724b8b9fb42a839b712c82108c1edf1beb051bcebce8e689dc481565b6101487f4f78afe9dfc9a0cb0441c27b9405070cd2a48b490636a7bdd09f355e33a5d7de81565b6101236102093660046108be565b61038d565b61018a61021c3660046108be565b610410565b610148600081565b6101236102373660046108be565b610439565b61012361024a3660046108be565b6104af565b61012361025d3660046108be565b610517565b6101236102703660046108be565b61056d565b6101236102833660046108be565b6105e2565b6101236102963660046108ea565b610608565b6101236102a9366004610889565b610694565b6101487fd0a4ad96d49edb1c33461cebc6fb2609190f32c904e3c3f5877edb4488dee91e81565b6000828152602081905260409020600101546102f2905b33610410565b806103035750610303600033610410565b6103545760405162461bcd60e51b815260206004820181905260248201527f63616e206f6e6c792072656e6f756e636520726f6c657320666f722073656c6660448201526064015b60405180910390fd5b61035e82826106fa565b5050565b60008281526020819052604090206001015461037e8133610745565b610388838361079b565b505050565b6001600160a01b0381163314806103ba57506000828152602081905260409020600101546103ba906102ec565b6104065760405162461bcd60e51b815260206004820152601b60248201527f796f752063616e742072656e6f756e6365207468697320726f6c650000000000604482015260640161034b565b61035e8282610802565b6000918252602082815260408084206001600160a01b0393909316845291905290205460ff1690565b610444600033610410565b6104815760405162461bcd60e51b815260206004820152600e60248201526d37b7363c903337b91030b236b4b760911b604482015260640161034b565b60009182526001602052604090912080546001600160a01b0319166001600160a01b03909216919091179055565b6000828152602081905260409020600101546104cb9082610410565b61035e5760405162461bcd60e51b815260206004820152601960248201527f796f75206861766520746f20626520726f6c652061646d696e00000000000000604482015260640161034b565b6105218282610410565b61035e5760405162461bcd60e51b815260206004820152601c60248201527f796f7520646f6e7420686176652074686520726967687420726f6c6500000000604482015260640161034b565b6000828152600160205260409020546001600160a01b0382811691161461035e5760405162461bcd60e51b815260206004820152602360248201527f796f7520646f6e74206861766520746865207269676874207065726d697373696044820152626f6e7360e81b606482015260840161034b565b6000828152602081905260409020600101546105fe8133610745565b6103888383610802565b6106327ffb639edf4b4a4724b8b9fb42a839b712c82108c1edf1beb051bcebce8e689dc482610410565b8061064557506001600160a01b03811632145b6106915760405162461bcd60e51b815260206004820152601860248201527f4163636573732064656e69656420666f722063616c6c65720000000000000000604482015260640161034b565b50565b61069f600033610410565b6106dc5760405162461bcd60e51b815260206004820152600e60248201526d37b7363c903337b91030b236b4b760911b604482015260640161034b565b600090815260016020526040902080546001600160a01b0319169055565b600082815260208190526040808220600101805490849055905190918391839186917fbd79b86ffe0ab8e8776151514217cd7cacd52c909f66475c3af44e129f0b00ff9190a4505050565b61074f8282610410565b61035e5760405162461bcd60e51b815260206004820152601f60248201527f796f7520646f6e7420686176652074686520726571756972656420726f6c6500604482015260640161034b565b6107a58282610410565b61035e576000828152602081815260408083206001600160a01b0385168085529252808320805460ff1916600117905551339285917f2f8788117e7eff1d82e926ec794901d17c78024a50270940304540a733656f0d9190a45050565b61080c8282610410565b1561035e576000828152602081815260408083206001600160a01b0385168085529252808320805460ff1916905551339285917ff6391f5c32d9c69d2a47ea670b442974b53935d1edc7fd64eb21e047a839171b9190a45050565b6000806040838503121561087a57600080fd5b50508035926020909101359150565b60006020828403121561089b57600080fd5b5035919050565b80356001600160a01b03811681146108b957600080fd5b919050565b600080604083850312156108d157600080fd5b823591506108e1602084016108a2565b90509250929050565b6000602082840312156108fc57600080fd5b610905826108a2565b939250505056fea264697066735822122034a30b561dc678ea9206885db72d00bf65b10c3c68e1fbc98cd1564bcd56ac0664736f6c63430008110033",
    "linkReferences": {}
  },
  "methodIdentifiers": {
    "APPROVED_CONTRACT_ROLE()": "31035c82",
    "DAO_ROLE()": "e9c26518",
    "DEFAULT_ADMIN_ROLE()": "a217fddf",
    "KEEPER_ROLE()": "364bc15a",
    "getRoleAdmin(bytes32)": "248a9ca3",
    "grantPermission(bytes32,address)": "bc586456",
    "grantRole(bytes32,address)": "2f2ff15d",
    "hasPermission(bytes32,address)": "28545c0d",
    "hasRole(bytes32,address)": "91d14854",
    "isRoleAdmin(bytes32,address)": "ce28a301",
    "renounceRole(bytes32,address)": "36568abe",
    "requireApprovedContractOrEOA(address)": "db47d436",
    "requirePermission(bytes32,address)": "d3e2f7fd",
    "requireRole(bytes32,address)": "d09a20c5",
    "revokePermission(bytes32)": "e89005c7",
    "revokeRole(bytes32,address)": "d547741f",
    "setRoleAdmin(bytes32,bytes32)": "1e4e0091"
  },
  "id": 51
}