{
  "abi": [
    {
      "inputs": [],
      "stateMutability": "nonpayable",
      "type": "constructor"
    },
    {
      "anonymous": false,
      "inputs": [
        {
          "indexed": true,
          "internalType": "bytes32",
          "name": "role",
          "type": "bytes32"
        },
        {
          "indexed": true,
          "internalType": "bytes32",
          "name": "previousAdminRole",
          "type": "bytes32"
        },
        {
          "indexed": true,
          "internalType": "bytes32",
          "name": "newAdminRole",
          "type": "bytes32"
        }
      ],
      "name": "RoleAdminChanged",
      "type": "event"
    },
    {
      "anonymous": false,
      "inputs": [
        {
          "indexed": true,
          "internalType": "bytes32",
          "name": "role",
          "type": "bytes32"
        },
        {
          "indexed": true,
          "internalType": "address",
          "name": "account",
          "type": "address"
        },
        {
          "indexed": true,
          "internalType": "address",
          "name": "sender",
          "type": "address"
        }
      ],
      "name": "RoleGranted",
      "type": "event"
    },
    {
      "anonymous": false,
      "inputs": [
        {
          "indexed": true,
          "internalType": "bytes32",
          "name": "role",
          "type": "bytes32"
        },
        {
          "indexed": true,
          "internalType": "address",
          "name": "account",
          "type": "address"
        },
        {
          "indexed": true,
          "internalType": "address",
          "name": "sender",
          "type": "address"
        }
      ],
      "name": "RoleRevoked",
      "type": "event"
    },
    {
      "inputs": [],
      "name": "APPROVED_CONTRACT_ROLE",
      "outputs": [
        {
          "internalType": "bytes32",
          "name": "",
          "type": "bytes32"
        }
      ],
      "stateMutability": "view",
      "type": "function"
    },
    {
      "inputs": [],
      "name": "DAO_ROLE",
      "outputs": [
        {
          "internalType": "bytes32",
          "name": "",
          "type": "bytes32"
        }
      ],
      "stateMutability": "view",
      "type": "function"
    },
    {
      "inputs": [],
      "name": "DEFAULT_ADMIN_ROLE",
      "outputs": [
        {
          "internalType": "bytes32",
          "name": "",
          "type": "bytes32"
        }
      ],
      "stateMutability": "view",
      "type": "function"
    },
    {
      "inputs": [],
      "name": "KEEPER_ROLE",
      "outputs": [
        {
          "internalType": "bytes32",
          "name": "",
          "type": "bytes32"
        }
      ],
      "stateMutability": "view",
      "type": "function"
    },
    {
      "inputs": [
        {
          "internalType": "bytes32",
          "name": "role",
          "type": "bytes32"
        }
      ],
      "name": "getRoleAdmin",
      "outputs": [
        {
          "internalType": "bytes32",
          "name": "",
          "type": "bytes32"
        }
      ],
      "stateMutability": "view",
      "type": "function"
    },
    {
      "inputs": [
        {
          "internalType": "bytes32",
          "name": "permission",
          "type": "bytes32"
        },
        {
          "internalType": "address",
          "name": "account",
          "type": "address"
        }
      ],
      "name": "grantPermission",
      "outputs": [],
      "stateMutability": "nonpayable",
      "type": "function"
    },
    {
      "inputs": [
        {
          "internalType": "bytes32",
          "name": "role",
          "type": "bytes32"
        },
        {
          "internalType": "address",
          "name": "account",
          "type": "address"
        }
      ],
      "name": "grantRole",
      "outputs": [],
      "stateMutability": "nonpayable",
      "type": "function"
    },
    {
      "inputs": [
        {
          "internalType": "bytes32",
          "name": "permission",
          "type": "bytes32"
        },
        {
          "internalType": "address",
          "name": "account",
          "type": "address"
        }
      ],
      "name": "hasPermission",
      "outputs": [
        {
          "internalType": "bool",
          "name": "",
          "type": "bool"
        }
      ],
      "stateMutability": "view",
      "type": "function"
    },
    {
      "inputs": [
        {
          "internalType": "bytes32",
          "name": "role",
          "type": "bytes32"
        },
        {
          "internalType": "address",
          "name": "account",
          "type": "address"
        }
      ],
      "name": "hasRole",
      "outputs": [
        {
          "internalType": "bool",
          "name": "",
          "type": "bool"
        }
      ],
      "stateMutability": "view",
      "type": "function"
    },
    {
      "inputs": [
        {
          "internalType": "bytes32",
          "name": "role",
          "type": "bytes32"
        },
        {
          "internalType": "address",
          "name": "account",
          "type": "address"
        }
      ],
      "name": "isRoleAdmin",
      "outputs": [],
      "stateMutability": "view",
      "type": "function"
    },
    {
      "inputs": [
        {
          "internalType": "bytes32",
          "name": "role",
          "type": "bytes32"
        },
        {
          "internalType": "address",
          "name": "account",
          "type": "address"
        }
      ],
      "name": "renounceRole",
      "outputs": [],
      "stateMutability": "nonpayable",
      "type": "function"
    },
    {
      "inputs": [
        {
          "internalType": "address",
          "name": "account",
          "type": "address"
        }
      ],
      "name": "requireApprovedContractOrEOA",
      "outputs": [],
      "stateMutability": "view",
      "type": "function"
    },
    {
      "inputs": [
        {
          "internalType": "bytes32",
          "name": "permission",
          "type": "bytes32"
        },
        {
          "internalType": "address",
          "name": "account",
          "type": "address"
        }
      ],
      "name": "requirePermission",
      "outputs": [],
      "stateMutability": "view",
      "type": "function"
    },
    {
      "inputs": [
        {
          "internalType": "bytes32",
          "name": "role",
          "type": "bytes32"
        },
        {
          "internalType": "address",
          "name": "account",
          "type": "address"
        }
      ],
      "name": "requireRole",
      "outputs": [],
      "stateMutability": "view",
      "type": "function"
    },
    {
      "inputs": [
        {
          "internalType": "bytes32",
          "name": "permission",
          "type": "bytes32"
        }
      ],
      "name": "revokePermission",
      "outputs": [],
      "stateMutability": "nonpayable",
      "type": "function"
    },
    {
      "inputs": [
        {
          "internalType": "bytes32",
          "name": "role",
          "type": "bytes32"
        },
        {
          "internalType": "address",
          "name": "account",
          "type": "address"
        }
      ],
      "name": "revokeRole",
      "outputs": [],
      "stateMutability": "nonpayable",
      "type": "function"
    },
    {
      "inputs": [
        {
          "internalType": "bytes32",
          "name": "role",
          "type": "bytes32"
        },
        {
          "internalType": "bytes32",
          "name": "adminRole",
          "type": "bytes32"
        }
      ],
      "name": "setRoleAdmin",
      "outputs": [],
      "stateMutability": "nonpayable",
      "type": "function"
    }
  ],
  "bytecode": {
    "object": "0x608060405234801561001057600080fd5b5060016000808060001b815260200190815260200160002060000160003373ffffffffffffffffffffffffffffffffffffffff1673ffffffffffffffffffffffffffffffffffffffff16815260200190815260200160002060006101000a81548160ff0219169083151502179055506110978061008e6000396000f3fe608060405234801561001057600080fd5b506004361061010b5760003560e01c8063a217fddf116100a2578063d3e2f7fd11610071578063d3e2f7fd146102a2578063d547741f146102be578063db47d436146102da578063e89005c7146102f6578063e9c26518146103125761010b565b8063a217fddf14610230578063bc5864561461024e578063ce28a3011461026a578063d09a20c5146102865761010b565b806331035c82116100de57806331035c82146101a8578063364bc15a146101c657806336568abe146101e457806391d14854146102005761010b565b80631e4e009114610110578063248a9ca31461012c57806328545c0d1461015c5780632f2ff15d1461018c575b600080fd5b61012a60048036038101906101259190610b32565b610330565b005b61014660048036038101906101419190610b72565b6103a3565b6040516101539190610bae565b60405180910390f35b61017660048036038101906101719190610c27565b6103c2565b6040516101839190610c82565b60405180910390f35b6101a660048036038101906101a19190610c27565b61042e565b005b6101b0610450565b6040516101bd9190610bae565b60405180910390f35b6101ce610474565b6040516101db9190610bae565b60405180910390f35b6101fe60048036038101906101f99190610c27565b610498565b005b61021a60048036038101906102159190610c27565b61052d565b6040516102279190610c82565b60405180910390f35b610238610597565b6040516102459190610bae565b60405180910390f35b61026860048036038101906102639190610c27565b61059e565b005b610284600480360381019061027f9190610c27565b610640565b005b6102a0600480360381019061029b9190610c27565b610695565b005b6102bc60048036038101906102b79190610c27565b6106e2565b005b6102d860048036038101906102d39190610c27565b61072f565b005b6102f460048036038101906102ef9190610c9d565b610751565b005b610310600480360381019061030b9190610b72565b6107f3565b005b61031a610878565b6040516103279190610bae565b60405180910390f35b61034261033c836103a3565b3361052d565b8061035657506103556000801b3361052d565b5b610395576040517f08c379a000000000000000000000000000000000000000000000000000000000815260040161038c90610d27565b60405180910390fd5b61039f828261089c565b5050565b6000806000838152602001908152602001600020600101549050919050565b60008173ffffffffffffffffffffffffffffffffffffffff166001600085815260200190815260200160002060009054906101000a900473ffffffffffffffffffffffffffffffffffffffff1673ffffffffffffffffffffffffffffffffffffffff1614905092915050565b610437826103a3565b61044181336108f7565b61044b8383610944565b505050565b7ffb639edf4b4a4724b8b9fb42a839b712c82108c1edf1beb051bcebce8e689dc481565b7f4f78afe9dfc9a0cb0441c27b9405070cd2a48b490636a7bdd09f355e33a5d7de81565b3373ffffffffffffffffffffffffffffffffffffffff168173ffffffffffffffffffffffffffffffffffffffff1614806104e057506104df6104d9836103a3565b3361052d565b5b61051f576040517f08c379a000000000000000000000000000000000000000000000000000000000815260040161051690610d93565b60405180910390fd5b6105298282610a1d565b5050565b600080600084815260200190815260200160002060000160008373ffffffffffffffffffffffffffffffffffffffff1673ffffffffffffffffffffffffffffffffffffffff16815260200190815260200160002060009054906101000a900460ff16905092915050565b6000801b81565b6105ab6000801b3361052d565b6105ea576040517f08c379a00000000000000000000000000000000000000000000000000000000081526004016105e190610dff565b60405180910390fd5b806001600084815260200190815260200160002060006101000a81548173ffffffffffffffffffffffffffffffffffffffff021916908373ffffffffffffffffffffffffffffffffffffffff1602179055505050565b61065261064c836103a3565b8261052d565b610691576040517f08c379a000000000000000000000000000000000000000000000000000000000815260040161068890610e6b565b60405180910390fd5b5050565b61069f828261052d565b6106de576040517f08c379a00000000000000000000000000000000000000000000000000000000081526004016106d590610ed7565b60405180910390fd5b5050565b6106ec82826103c2565b61072b576040517f08c379a000000000000000000000000000000000000000000000000000000000815260040161072290610f69565b60405180910390fd5b5050565b610738826103a3565b61074281336108f7565b61074c8383610a1d565b505050565b61077b7ffb639edf4b4a4724b8b9fb42a839b712c82108c1edf1beb051bcebce8e689dc48261052d565b806107b157503273ffffffffffffffffffffffffffffffffffffffff168173ffffffffffffffffffffffffffffffffffffffff16145b6107f0576040517f08c379a00000000000000000000000000000000000000000000000000000000081526004016107e790610fd5565b60405180910390fd5b50565b6108006000801b3361052d565b61083f576040517f08c379a000000000000000000000000000000000000000000000000000000000815260040161083690610dff565b60405180910390fd5b6001600082815260200190815260200160002060006101000a81549073ffffffffffffffffffffffffffffffffffffffff021916905550565b7fd0a4ad96d49edb1c33461cebc6fb2609190f32c904e3c3f5877edb4488dee91e81565b60006108a7836103a3565b905081600080858152602001908152602001600020600101819055508181847fbd79b86ffe0ab8e8776151514217cd7cacd52c909f66475c3af44e129f0b00ff60405160405180910390a4505050565b610901828261052d565b610940576040517f08c379a000000000000000000000000000000000000000000000000000000000815260040161093790611041565b60405180910390fd5b5050565b61094e828261052d565b610a1957600160008084815260200190815260200160002060000160008373ffffffffffffffffffffffffffffffffffffffff1673ffffffffffffffffffffffffffffffffffffffff16815260200190815260200160002060006101000a81548160ff0219169083151502179055503373ffffffffffffffffffffffffffffffffffffffff168173ffffffffffffffffffffffffffffffffffffffff16837f2f8788117e7eff1d82e926ec794901d17c78024a50270940304540a733656f0d60405160405180910390a45b5050565b610a27828261052d565b15610af357600080600084815260200190815260200160002060000160008373ffffffffffffffffffffffffffffffffffffffff1673ffffffffffffffffffffffffffffffffffffffff16815260200190815260200160002060006101000a81548160ff0219169083151502179055503373ffffffffffffffffffffffffffffffffffffffff168173ffffffffffffffffffffffffffffffffffffffff16837ff6391f5c32d9c69d2a47ea670b442974b53935d1edc7fd64eb21e047a839171b60405160405180910390a45b5050565b600080fd5b6000819050919050565b610b0f81610afc565b8114610b1a57600080fd5b50565b600081359050610b2c81610b06565b92915050565b60008060408385031215610b4957610b48610af7565b5b6000610b5785828601610b1d565b9250506020610b6885828601610b1d565b9150509250929050565b600060208284031215610b8857610b87610af7565b5b6000610b9684828501610b1d565b91505092915050565b610ba881610afc565b82525050565b6000602082019050610bc36000830184610b9f565b92915050565b600073ffffffffffffffffffffffffffffffffffffffff82169050919050565b6000610bf482610bc9565b9050919050565b610c0481610be9565b8114610c0f57600080fd5b50565b600081359050610c2181610bfb565b92915050565b60008060408385031215610c3e57610c3d610af7565b5b6000610c4c85828601610b1d565b9250506020610c5d85828601610c12565b9150509250929050565b60008115159050919050565b610c7c81610c67565b82525050565b6000602082019050610c976000830184610c73565b92915050565b600060208284031215610cb357610cb2610af7565b5b6000610cc184828501610c12565b91505092915050565b600082825260208201905092915050565b7f63616e206f6e6c792072656e6f756e636520726f6c657320666f722073656c66600082015250565b6000610d11602083610cca565b9150610d1c82610cdb565b602082019050919050565b60006020820190508181036000830152610d4081610d04565b9050919050565b7f796f752063616e742072656e6f756e6365207468697320726f6c650000000000600082015250565b6000610d7d601b83610cca565b9150610d8882610d47565b602082019050919050565b60006020820190508181036000830152610dac81610d70565b9050919050565b7f6f6e6c7920666f722061646d696e000000000000000000000000000000000000600082015250565b6000610de9600e83610cca565b9150610df482610db3565b602082019050919050565b60006020820190508181036000830152610e1881610ddc565b9050919050565b7f796f75206861766520746f20626520726f6c652061646d696e00000000000000600082015250565b6000610e55601983610cca565b9150610e6082610e1f565b602082019050919050565b60006020820190508181036000830152610e8481610e48565b9050919050565b7f796f7520646f6e7420686176652074686520726967687420726f6c6500000000600082015250565b6000610ec1601c83610cca565b9150610ecc82610e8b565b602082019050919050565b60006020820190508181036000830152610ef081610eb4565b9050919050565b7f796f7520646f6e74206861766520746865207269676874207065726d6973736960008201527f6f6e730000000000000000000000000000000000000000000000000000000000602082015250565b6000610f53602383610cca565b9150610f5e82610ef7565b604082019050919050565b60006020820190508181036000830152610f8281610f46565b9050919050565b7f4163636573732064656e69656420666f722063616c6c65720000000000000000600082015250565b6000610fbf601883610cca565b9150610fca82610f89565b602082019050919050565b60006020820190508181036000830152610fee81610fb2565b9050919050565b7f796f7520646f6e7420686176652074686520726571756972656420726f6c6500600082015250565b600061102b601f83610cca565b915061103682610ff5565b602082019050919050565b6000602082019050818103600083015261105a8161101e565b905091905056fea26469706673582212200249d457828c61a1499ff3cc520efa277012d6062f29bf654c610981240b051a64736f6c63430008110033",
    "linkReferences": {}
  },
  "methodIdentifiers": {
    "APPROVED_CONTRACT_ROLE()": "31035c82",
    "DAO_ROLE()": "e9c26518",
    "DEFAULT_ADMIN_ROLE()": "a217fddf",
    "KEEPER_ROLE()": "364bc15a",
    "getRoleAdmin(bytes32)": "248a9ca3",
    "grantPermission(bytes32,address)": "bc586456",
    "grantRole(bytes32,address)": "2f2ff15d",
    "hasPermission(bytes32,address)": "28545c0d",
    "hasRole(bytes32,address)": "91d14854",
    "isRoleAdmin(bytes32,address)": "ce28a301",
    "renounceRole(bytes32,address)": "36568abe",
    "requireApprovedContractOrEOA(address)": "db47d436",
    "requirePermission(bytes32,address)": "d3e2f7fd",
    "requireRole(bytes32,address)": "d09a20c5",
    "revokePermission(bytes32)": "e89005c7",
    "revokeRole(bytes32,address)": "d547741f",
    "setRoleAdmin(bytes32,bytes32)": "1e4e0091"
  },
  "id": 54
}