{
  "abi": [
    {
      "inputs": [],
      "stateMutability": "nonpayable",
      "type": "constructor"
    },
    {
      "anonymous": false,
      "inputs": [
        {
          "indexed": true,
          "internalType": "bytes32",
          "name": "role",
          "type": "bytes32"
        },
        {
          "indexed": true,
          "internalType": "bytes32",
          "name": "previousAdminRole",
          "type": "bytes32"
        },
        {
          "indexed": true,
          "internalType": "bytes32",
          "name": "newAdminRole",
          "type": "bytes32"
        }
      ],
      "name": "RoleAdminChanged",
      "type": "event"
    },
    {
      "anonymous": false,
      "inputs": [
        {
          "indexed": true,
          "internalType": "bytes32",
          "name": "role",
          "type": "bytes32"
        },
        {
          "indexed": true,
          "internalType": "address",
          "name": "account",
          "type": "address"
        },
        {
          "indexed": true,
          "internalType": "address",
          "name": "sender",
          "type": "address"
        }
      ],
      "name": "RoleGranted",
      "type": "event"
    },
    {
      "anonymous": false,
      "inputs": [
        {
          "indexed": true,
          "internalType": "bytes32",
          "name": "role",
          "type": "bytes32"
        },
        {
          "indexed": true,
          "internalType": "address",
          "name": "account",
          "type": "address"
        },
        {
          "indexed": true,
          "internalType": "address",
          "name": "sender",
          "type": "address"
        }
      ],
      "name": "RoleRevoked",
      "type": "event"
    },
    {
      "inputs": [],
      "name": "DEFAULT_ADMIN_ROLE",
      "outputs": [
        {
          "internalType": "bytes32",
          "name": "",
          "type": "bytes32"
        }
      ],
      "stateMutability": "view",
      "type": "function"
    },
    {
      "inputs": [],
      "name": "REGISTRAR_ROLE",
      "outputs": [
        {
          "internalType": "bytes32",
          "name": "",
          "type": "bytes32"
        }
      ],
      "stateMutability": "view",
      "type": "function"
    },
    {
      "inputs": [
        {
          "internalType": "bytes32",
          "name": "_marketName",
          "type": "bytes32"
        },
        {
          "internalType": "address",
          "name": "_market",
          "type": "address"
        },
        {
          "internalType": "address",
          "name": "_riskManager",
          "type": "address"
        }
      ],
      "name": "addMarket",
      "outputs": [],
      "stateMutability": "nonpayable",
      "type": "function"
    },
    {
      "inputs": [],
      "name": "getAllMarketNames",
      "outputs": [
        {
          "internalType": "bytes32[]",
          "name": "",
          "type": "bytes32[]"
        }
      ],
      "stateMutability": "view",
      "type": "function"
    },
    {
      "inputs": [
        {
          "internalType": "address",
          "name": "_riskManager",
          "type": "address"
        }
      ],
      "name": "getMarketsForRiskManager",
      "outputs": [
        {
          "internalType": "address[]",
          "name": "",
          "type": "address[]"
        }
      ],
      "stateMutability": "view",
      "type": "function"
    },
    {
      "inputs": [
        {
          "internalType": "bytes32",
          "name": "marketName",
          "type": "bytes32"
        }
      ],
      "name": "getProtocolAddressByMarketName",
      "outputs": [
        {
          "internalType": "address",
          "name": "",
          "type": "address"
        },
        {
          "internalType": "address",
          "name": "",
          "type": "address"
        }
      ],
      "stateMutability": "view",
      "type": "function"
    },
    {
      "inputs": [
        {
          "internalType": "bytes32",
          "name": "role",
          "type": "bytes32"
        }
      ],
      "name": "getRoleAdmin",
      "outputs": [
        {
          "internalType": "bytes32",
          "name": "",
          "type": "bytes32"
        }
      ],
      "stateMutability": "view",
      "type": "function"
    },
    {
      "inputs": [],
      "name": "getUniqueMarketAddresses",
      "outputs": [
        {
          "internalType": "address[]",
          "name": "",
          "type": "address[]"
        }
      ],
      "stateMutability": "view",
      "type": "function"
    },
    {
      "inputs": [],
      "name": "getUniqueRiskManagers",
      "outputs": [
        {
          "internalType": "address[]",
          "name": "",
          "type": "address[]"
        }
      ],
      "stateMutability": "view",
      "type": "function"
    },
    {
      "inputs": [
        {
          "internalType": "bytes32",
          "name": "role",
          "type": "bytes32"
        },
        {
          "internalType": "address",
          "name": "account",
          "type": "address"
        }
      ],
      "name": "grantRole",
      "outputs": [],
      "stateMutability": "nonpayable",
      "type": "function"
    },
    {
      "inputs": [
        {
          "internalType": "bytes32",
          "name": "role",
          "type": "bytes32"
        },
        {
          "internalType": "address",
          "name": "account",
          "type": "address"
        }
      ],
      "name": "hasRole",
      "outputs": [
        {
          "internalType": "bool",
          "name": "",
          "type": "bool"
        }
      ],
      "stateMutability": "view",
      "type": "function"
    },
    {
      "inputs": [
        {
          "internalType": "bytes32",
          "name": "",
          "type": "bytes32"
        }
      ],
      "name": "marketRegistry",
      "outputs": [
        {
          "internalType": "address",
          "name": "",
          "type": "address"
        }
      ],
      "stateMutability": "view",
      "type": "function"
    },
    {
      "inputs": [
        {
          "internalType": "bytes32",
          "name": "",
          "type": "bytes32"
        }
      ],
      "name": "marketRiskManagerRegistry",
      "outputs": [
        {
          "internalType": "address",
          "name": "",
          "type": "address"
        }
      ],
      "stateMutability": "view",
      "type": "function"
    },
    {
      "inputs": [
        {
          "internalType": "address",
          "name": "",
          "type": "address"
        }
      ],
      "name": "registeredMarketAddresses",
      "outputs": [
        {
          "internalType": "bool",
          "name": "",
          "type": "bool"
        }
      ],
      "stateMutability": "view",
      "type": "function"
    },
    {
      "inputs": [
        {
          "internalType": "address",
          "name": "",
          "type": "address"
        }
      ],
      "name": "registeredRiskManagers",
      "outputs": [
        {
          "internalType": "bool",
          "name": "",
          "type": "bool"
        }
      ],
      "stateMutability": "view",
      "type": "function"
    },
    {
      "inputs": [
        {
          "internalType": "bytes32",
          "name": "marketName",
          "type": "bytes32"
        }
      ],
      "name": "removeMarket",
      "outputs": [],
      "stateMutability": "nonpayable",
      "type": "function"
    },
    {
      "inputs": [
        {
          "internalType": "bytes32",
          "name": "role",
          "type": "bytes32"
        },
        {
          "internalType": "address",
          "name": "account",
          "type": "address"
        }
      ],
      "name": "renounceRole",
      "outputs": [],
      "stateMutability": "nonpayable",
      "type": "function"
    },
    {
      "inputs": [
        {
          "internalType": "bytes32",
          "name": "role",
          "type": "bytes32"
        },
        {
          "internalType": "address",
          "name": "account",
          "type": "address"
        }
      ],
      "name": "revokeRole",
      "outputs": [],
      "stateMutability": "nonpayable",
      "type": "function"
    },
    {
      "inputs": [
        {
          "internalType": "bytes4",
          "name": "interfaceId",
          "type": "bytes4"
        }
      ],
      "name": "supportsInterface",
      "outputs": [
        {
          "internalType": "bool",
          "name": "",
          "type": "bool"
        }
      ],
      "stateMutability": "view",
      "type": "function"
    },
    {
      "inputs": [
        {
          "internalType": "uint256",
          "name": "",
          "type": "uint256"
        }
      ],
      "name": "uniqueMarketAddresses",
      "outputs": [
        {
          "internalType": "address",
          "name": "",
          "type": "address"
        }
      ],
      "stateMutability": "view",
      "type": "function"
    },
    {
      "inputs": [
        {
          "internalType": "uint256",
          "name": "",
          "type": "uint256"
        }
      ],
      "name": "uniqueRiskManagers",
      "outputs": [
        {
          "internalType": "address",
          "name": "",
          "type": "address"
        }
      ],
      "stateMutability": "view",
      "type": "function"
    },
    {
      "inputs": [
        {
          "internalType": "bytes32",
          "name": "marketName",
          "type": "bytes32"
        },
        {
          "internalType": "address",
          "name": "_market",
          "type": "address"
        },
        {
          "internalType": "address",
          "name": "_riskManager",
          "type": "address"
        }
      ],
      "name": "updateMarket",
      "outputs": [],
      "stateMutability": "nonpayable",
      "type": "function"
    },
    {
      "inputs": [
        {
          "internalType": "uint256",
          "name": "",
          "type": "uint256"
        }
      ],
      "name": "whitelistedMarketNames",
      "outputs": [
        {
          "internalType": "bytes32",
          "name": "",
          "type": "bytes32"
        }
      ],
      "stateMutability": "view",
      "type": "function"
    }
  ],
  "bytecode": {
    "object": "0x60806040523480156200001157600080fd5b50620000447fedcc084d3dcd65a1f7f23c65c46722faca6953d28e43150a467cf43e5c309238336200004a60201b60201c565b620001c3565b6200005c82826200006060201b60201c565b5050565b6200007282826200015160201b60201c565b6200014d57600160008084815260200190815260200160002060000160008373ffffffffffffffffffffffffffffffffffffffff1673ffffffffffffffffffffffffffffffffffffffff16815260200190815260200160002060006101000a81548160ff021916908315150217905550620000f2620001bb60201b60201c565b73ffffffffffffffffffffffffffffffffffffffff168173ffffffffffffffffffffffffffffffffffffffff16837f2f8788117e7eff1d82e926ec794901d17c78024a50270940304540a733656f0d60405160405180910390a45b5050565b600080600084815260200190815260200160002060000160008373ffffffffffffffffffffffffffffffffffffffff1673ffffffffffffffffffffffffffffffffffffffff16815260200190815260200160002060009054906101000a900460ff16905092915050565b600033905090565b61247880620001d36000396000f3fe608060405234801561001057600080fd5b506004361061014d5760003560e01c8063a21a5e65116100c3578063e5c070b31161007c578063e5c070b3146103d5578063e893ba5314610405578063ed2ed54414610435578063f28585e314610453578063f68e955314610483578063f7a033e3146104a15761014d565b8063a21a5e6514610303578063b53669021461031f578063cce1cb0b1461033b578063d547741f1461036b578063d660783714610387578063dabd699d146103a55761014d565b806336568abe1161011557806336568abe1461022e578063382dfc3d1461024a5780635c5212dd1461027b57806391d148541461029757806396008a45146102c7578063a217fddf146102e55761014d565b806301ffc9a71461015257806304b2e0d914610182578063248a9ca3146101b25780632edc9e37146101e25780632f2ff15d14610212575b600080fd5b61016c60048036038101906101679190611992565b6104d1565b60405161017991906119da565b60405180910390f35b61019c60048036038101906101979190611a53565b61054b565b6040516101a991906119da565b60405180910390f35b6101cc60048036038101906101c79190611ab6565b61056b565b6040516101d99190611af2565b60405180910390f35b6101fc60048036038101906101f79190611b43565b61058a565b6040516102099190611b7f565b60405180910390f35b61022c60048036038101906102279190611b9a565b6105c9565b005b61024860048036038101906102439190611b9a565b6105ea565b005b610264600480360381019061025f9190611ab6565b61066d565b604051610272929190611bda565b60405180910390f35b61029560048036038101906102909190611ab6565b610783565b005b6102b160048036038101906102ac9190611b9a565b61096b565b6040516102be91906119da565b60405180910390f35b6102cf6109d5565b6040516102dc9190611cc1565b60405180910390f35b6102ed610a63565b6040516102fa9190611af2565b60405180910390f35b61031d60048036038101906103189190611ce3565b610a6a565b005b61033960048036038101906103349190611ce3565b610be0565b005b61035560048036038101906103509190611b43565b6110a8565b6040516103629190611b7f565b60405180910390f35b61038560048036038101906103809190611b9a565b6110e7565b005b61038f611108565b60405161039c9190611df4565b60405180910390f35b6103bf60048036038101906103ba9190611b43565b611160565b6040516103cc9190611af2565b60405180910390f35b6103ef60048036038101906103ea9190611ab6565b611184565b6040516103fc9190611b7f565b60405180910390f35b61041f600480360381019061041a9190611a53565b6111b7565b60405161042c91906119da565b60405180910390f35b61043d6111d7565b60405161044a9190611cc1565b60405180910390f35b61046d60048036038101906104689190611ab6565b611265565b60405161047a9190611b7f565b60405180910390f35b61048b611298565b6040516104989190611af2565b60405180910390f35b6104bb60048036038101906104b69190611a53565b6112bc565b6040516104c89190611cc1565b60405180910390f35b60007f7965db0b000000000000000000000000000000000000000000000000000000007bffffffffffffffffffffffffffffffffffffffffffffffffffffffff1916827bffffffffffffffffffffffffffffffffffffffffffffffffffffffff19161480610544575061054382611415565b5b9050919050565b60046020528060005260406000206000915054906101000a900460ff1681565b6000806000838152602001908152602001600020600101549050919050565b6007818154811061059a57600080fd5b906000526020600020016000915054906101000a900473ffffffffffffffffffffffffffffffffffffffff1681565b6105d28261056b565b6105db8161147f565b6105e58383611493565b505050565b6105f2611573565b73ffffffffffffffffffffffffffffffffffffffff168173ffffffffffffffffffffffffffffffffffffffff161461065f576040517f08c379a000000000000000000000000000000000000000000000000000000000815260040161065690611e99565b60405180910390fd5b610669828261157b565b5050565b600080600073ffffffffffffffffffffffffffffffffffffffff166001600085815260200190815260200160002060009054906101000a900473ffffffffffffffffffffffffffffffffffffffff1673ffffffffffffffffffffffffffffffffffffffff1603610712576040517f08c379a000000000000000000000000000000000000000000000000000000000815260040161070990611f05565b60405180910390fd5b6001600084815260200190815260200160002060009054906101000a900473ffffffffffffffffffffffffffffffffffffffff166002600085815260200190815260200160002060009054906101000a900473ffffffffffffffffffffffffffffffffffffffff1691509150915091565b7fedcc084d3dcd65a1f7f23c65c46722faca6953d28e43150a467cf43e5c3092386107ad8161147f565b600073ffffffffffffffffffffffffffffffffffffffff166001600084815260200190815260200160002060009054906101000a900473ffffffffffffffffffffffffffffffffffffffff1673ffffffffffffffffffffffffffffffffffffffff160361084f576040517f08c379a000000000000000000000000000000000000000000000000000000000815260040161084690611f71565b60405180910390fd5b60006001600084815260200190815260200160002060009054906101000a900473ffffffffffffffffffffffffffffffffffffffff16905060006002600085815260200190815260200160002060009054906101000a900473ffffffffffffffffffffffffffffffffffffffff16905060006001600086815260200190815260200160002060006101000a81548173ffffffffffffffffffffffffffffffffffffffff021916908373ffffffffffffffffffffffffffffffffffffffff16021790555060006002600086815260200190815260200160002060006101000a81548173ffffffffffffffffffffffffffffffffffffffff021916908373ffffffffffffffffffffffffffffffffffffffff16021790555050505050565b600080600084815260200190815260200160002060000160008373ffffffffffffffffffffffffffffffffffffffff1673ffffffffffffffffffffffffffffffffffffffff16815260200190815260200160002060009054906101000a900460ff16905092915050565b60606008805480602002602001604051908101604052809291908181526020018280548015610a5957602002820191906000526020600020905b8160009054906101000a900473ffffffffffffffffffffffffffffffffffffffff1673ffffffffffffffffffffffffffffffffffffffff1681526020019060010190808311610a0f575b5050505050905090565b6000801b81565b7fedcc084d3dcd65a1f7f23c65c46722faca6953d28e43150a467cf43e5c309238610a948161147f565b600073ffffffffffffffffffffffffffffffffffffffff166001600086815260200190815260200160002060009054906101000a900473ffffffffffffffffffffffffffffffffffffffff1673ffffffffffffffffffffffffffffffffffffffff1603610b36576040517f08c379a0000000000000000000000000000000000000000000000000000000008152600401610b2d90611f71565b60405180910390fd5b826001600086815260200190815260200160002060006101000a81548173ffffffffffffffffffffffffffffffffffffffff021916908373ffffffffffffffffffffffffffffffffffffffff160217905550816002600086815260200190815260200160002060006101000a81548173ffffffffffffffffffffffffffffffffffffffff021916908373ffffffffffffffffffffffffffffffffffffffff16021790555050505050565b7fedcc084d3dcd65a1f7f23c65c46722faca6953d28e43150a467cf43e5c309238610c0a8161147f565b600073ffffffffffffffffffffffffffffffffffffffff166001600086815260200190815260200160002060009054906101000a900473ffffffffffffffffffffffffffffffffffffffff1673ffffffffffffffffffffffffffffffffffffffff1614610cac576040517f08c379a0000000000000000000000000000000000000000000000000000000008152600401610ca390611fdd565b60405180910390fd5b600073ffffffffffffffffffffffffffffffffffffffff168373ffffffffffffffffffffffffffffffffffffffff1603610d1b576040517f08c379a0000000000000000000000000000000000000000000000000000000008152600401610d129061206f565b60405180910390fd5b826001600086815260200190815260200160002060006101000a81548173ffffffffffffffffffffffffffffffffffffffff021916908373ffffffffffffffffffffffffffffffffffffffff160217905550816002600086815260200190815260200160002060006101000a81548173ffffffffffffffffffffffffffffffffffffffff021916908373ffffffffffffffffffffffffffffffffffffffff1602179055506006849080600181540180825580915050600190039060005260206000200160009091909190915055600460008473ffffffffffffffffffffffffffffffffffffffff1673ffffffffffffffffffffffffffffffffffffffff16815260200190815260200160002060009054906101000a900460ff16610f9557600560008373ffffffffffffffffffffffffffffffffffffffff1673ffffffffffffffffffffffffffffffffffffffff168152602001908152602001600020839080600181540180825580915050600190039060005260206000200160009091909190916101000a81548173ffffffffffffffffffffffffffffffffffffffff021916908373ffffffffffffffffffffffffffffffffffffffff1602179055506001600460008573ffffffffffffffffffffffffffffffffffffffff1673ffffffffffffffffffffffffffffffffffffffff16815260200190815260200160002060006101000a81548160ff0219169083151502179055506008839080600181540180825580915050600190039060005260206000200160009091909190916101000a81548173ffffffffffffffffffffffffffffffffffffffff021916908373ffffffffffffffffffffffffffffffffffffffff1602179055505b600360008373ffffffffffffffffffffffffffffffffffffffff1673ffffffffffffffffffffffffffffffffffffffff16815260200190815260200160002060009054906101000a900460ff166110a2576001600360008473ffffffffffffffffffffffffffffffffffffffff1673ffffffffffffffffffffffffffffffffffffffff16815260200190815260200160002060006101000a81548160ff0219169083151502179055506007829080600181540180825580915050600190039060005260206000200160009091909190916101000a81548173ffffffffffffffffffffffffffffffffffffffff021916908373ffffffffffffffffffffffffffffffffffffffff1602179055505b50505050565b600881815481106110b857600080fd5b906000526020600020016000915054906101000a900473ffffffffffffffffffffffffffffffffffffffff1681565b6110f08261056b565b6110f98161147f565b611103838361157b565b505050565b6060600680548060200260200160405190810160405280929190818152602001828054801561115657602002820191906000526020600020905b815481526020019060010190808311611142575b5050505050905090565b6006818154811061117057600080fd5b906000526020600020016000915090505481565b60026020528060005260406000206000915054906101000a900473ffffffffffffffffffffffffffffffffffffffff1681565b60036020528060005260406000206000915054906101000a900460ff1681565b6060600780548060200260200160405190810160405280929190818152602001828054801561125b57602002820191906000526020600020905b8160009054906101000a900473ffffffffffffffffffffffffffffffffffffffff1673ffffffffffffffffffffffffffffffffffffffff1681526020019060010190808311611211575b5050505050905090565b60016020528060005260406000206000915054906101000a900473ffffffffffffffffffffffffffffffffffffffff1681565b7fedcc084d3dcd65a1f7f23c65c46722faca6953d28e43150a467cf43e5c30923881565b6060600360008373ffffffffffffffffffffffffffffffffffffffff1673ffffffffffffffffffffffffffffffffffffffff16815260200190815260200160002060009054906101000a900460ff1661134a576040517f08c379a0000000000000000000000000000000000000000000000000000000008152600401611341906120db565b60405180910390fd5b600560008373ffffffffffffffffffffffffffffffffffffffff1673ffffffffffffffffffffffffffffffffffffffff16815260200190815260200160002080548060200260200160405190810160405280929190818152602001828054801561140957602002820191906000526020600020905b8160009054906101000a900473ffffffffffffffffffffffffffffffffffffffff1673ffffffffffffffffffffffffffffffffffffffff16815260200190600101908083116113bf575b50505050509050919050565b60007f01ffc9a7000000000000000000000000000000000000000000000000000000007bffffffffffffffffffffffffffffffffffffffffffffffffffffffff1916827bffffffffffffffffffffffffffffffffffffffffffffffffffffffff1916149050919050565b6114908161148b611573565b61165c565b50565b61149d828261096b565b61156f57600160008084815260200190815260200160002060000160008373ffffffffffffffffffffffffffffffffffffffff1673ffffffffffffffffffffffffffffffffffffffff16815260200190815260200160002060006101000a81548160ff021916908315150217905550611514611573565b73ffffffffffffffffffffffffffffffffffffffff168173ffffffffffffffffffffffffffffffffffffffff16837f2f8788117e7eff1d82e926ec794901d17c78024a50270940304540a733656f0d60405160405180910390a45b5050565b600033905090565b611585828261096b565b1561165857600080600084815260200190815260200160002060000160008373ffffffffffffffffffffffffffffffffffffffff1673ffffffffffffffffffffffffffffffffffffffff16815260200190815260200160002060006101000a81548160ff0219169083151502179055506115fd611573565b73ffffffffffffffffffffffffffffffffffffffff168173ffffffffffffffffffffffffffffffffffffffff16837ff6391f5c32d9c69d2a47ea670b442974b53935d1edc7fd64eb21e047a839171b60405160405180910390a45b5050565b611666828261096b565b6116f55761168b8173ffffffffffffffffffffffffffffffffffffffff1660146116f9565b6116998360001c60206116f9565b6040516020016116aa929190612204565b6040516020818303038152906040526040517f08c379a00000000000000000000000000000000000000000000000000000000081526004016116ec9190612288565b60405180910390fd5b5050565b60606000600283600261170c91906122d9565b611716919061231b565b67ffffffffffffffff81111561172f5761172e61234f565b5b6040519080825280601f01601f1916602001820160405280156117615781602001600182028036833780820191505090505b5090507f3000000000000000000000000000000000000000000000000000000000000000816000815181106117995761179861237e565b5b60200101907effffffffffffffffffffffffffffffffffffffffffffffffffffffffffffff1916908160001a9053507f7800000000000000000000000000000000000000000000000000000000000000816001815181106117fd576117fc61237e565b5b60200101907effffffffffffffffffffffffffffffffffffffffffffffffffffffffffffff1916908160001a9053506000600184600261183d91906122d9565b611847919061231b565b90505b60018111156118e7577f3031323334353637383961626364656600000000000000000000000000000000600f8616601081106118895761188861237e565b5b1a60f81b8282815181106118a05761189f61237e565b5b60200101907effffffffffffffffffffffffffffffffffffffffffffffffffffffffffffff1916908160001a905350600485901c9450806118e0906123ad565b905061184a565b506000841461192b576040517f08c379a000000000000000000000000000000000000000000000000000000000815260040161192290612422565b60405180910390fd5b8091505092915050565b600080fd5b60007fffffffff0000000000000000000000000000000000000000000000000000000082169050919050565b61196f8161193a565b811461197a57600080fd5b50565b60008135905061198c81611966565b92915050565b6000602082840312156119a8576119a7611935565b5b60006119b68482850161197d565b91505092915050565b60008115159050919050565b6119d4816119bf565b82525050565b60006020820190506119ef60008301846119cb565b92915050565b600073ffffffffffffffffffffffffffffffffffffffff82169050919050565b6000611a20826119f5565b9050919050565b611a3081611a15565b8114611a3b57600080fd5b50565b600081359050611a4d81611a27565b92915050565b600060208284031215611a6957611a68611935565b5b6000611a7784828501611a3e565b91505092915050565b6000819050919050565b611a9381611a80565b8114611a9e57600080fd5b50565b600081359050611ab081611a8a565b92915050565b600060208284031215611acc57611acb611935565b5b6000611ada84828501611aa1565b91505092915050565b611aec81611a80565b82525050565b6000602082019050611b076000830184611ae3565b92915050565b6000819050919050565b611b2081611b0d565b8114611b2b57600080fd5b50565b600081359050611b3d81611b17565b92915050565b600060208284031215611b5957611b58611935565b5b6000611b6784828501611b2e565b91505092915050565b611b7981611a15565b82525050565b6000602082019050611b946000830184611b70565b92915050565b60008060408385031215611bb157611bb0611935565b5b6000611bbf85828601611aa1565b9250506020611bd085828601611a3e565b9150509250929050565b6000604082019050611bef6000830185611b70565b611bfc6020830184611b70565b9392505050565b600081519050919050565b600082825260208201905092915050565b6000819050602082019050919050565b611c3881611a15565b82525050565b6000611c4a8383611c2f565b60208301905092915050565b6000602082019050919050565b6000611c6e82611c03565b611c788185611c0e565b9350611c8383611c1f565b8060005b83811015611cb4578151611c9b8882611c3e565b9750611ca683611c56565b925050600181019050611c87565b5085935050505092915050565b60006020820190508181036000830152611cdb8184611c63565b905092915050565b600080600060608486031215611cfc57611cfb611935565b5b6000611d0a86828701611aa1565b9350506020611d1b86828701611a3e565b9250506040611d2c86828701611a3e565b9150509250925092565b600081519050919050565b600082825260208201905092915050565b6000819050602082019050919050565b611d6b81611a80565b82525050565b6000611d7d8383611d62565b60208301905092915050565b6000602082019050919050565b6000611da182611d36565b611dab8185611d41565b9350611db683611d52565b8060005b83811015611de7578151611dce8882611d71565b9750611dd983611d89565b925050600181019050611dba565b5085935050505092915050565b60006020820190508181036000830152611e0e8184611d96565b905092915050565b600082825260208201905092915050565b7f416363657373436f6e74726f6c3a2063616e206f6e6c792072656e6f756e636560008201527f20726f6c657320666f722073656c660000000000000000000000000000000000602082015250565b6000611e83602f83611e16565b9150611e8e82611e27565b604082019050919050565b60006020820190508181036000830152611eb281611e76565b9050919050565b7f4d4d3a20496e76616c6964204d61726b65740000000000000000000000000000600082015250565b6000611eef601283611e16565b9150611efa82611eb9565b602082019050919050565b60006020820190508181036000830152611f1e81611ee2565b9050919050565b7f4d4d3a204d61726b657420646f65736e27742065786973740000000000000000600082015250565b6000611f5b601883611e16565b9150611f6682611f25565b602082019050919050565b60006020820190508181036000830152611f8a81611f4e565b9050919050565b7f4d4d3a204d61726b657420616c72656164792065786973747300000000000000600082015250565b6000611fc7601983611e16565b9150611fd282611f91565b602082019050919050565b60006020820190508181036000830152611ff681611fba565b9050919050565b7f4d4d3a20416464696e67205a65726f2041646472657373206173204d61726b6560008201527f7400000000000000000000000000000000000000000000000000000000000000602082015250565b6000612059602183611e16565b915061206482611ffd565b604082019050919050565b600060208201905081810360008301526120888161204c565b9050919050565b7f496e76616c6964205269736b204d616e61676572000000000000000000000000600082015250565b60006120c5601483611e16565b91506120d08261208f565b602082019050919050565b600060208201905081810360008301526120f4816120b8565b9050919050565b600081905092915050565b7f416363657373436f6e74726f6c3a206163636f756e7420000000000000000000600082015250565b600061213c6017836120fb565b915061214782612106565b601782019050919050565b600081519050919050565b60005b8381101561217b578082015181840152602081019050612160565b60008484015250505050565b600061219282612152565b61219c81856120fb565b93506121ac81856020860161215d565b80840191505092915050565b7f206973206d697373696e6720726f6c6520000000000000000000000000000000600082015250565b60006121ee6011836120fb565b91506121f9826121b8565b601182019050919050565b600061220f8261212f565b915061221b8285612187565b9150612226826121e1565b91506122328284612187565b91508190509392505050565b6000601f19601f8301169050919050565b600061225a82612152565b6122648185611e16565b935061227481856020860161215d565b61227d8161223e565b840191505092915050565b600060208201905081810360008301526122a2818461224f565b905092915050565b7f4e487b7100000000000000000000000000000000000000000000000000000000600052601160045260246000fd5b60006122e482611b0d565b91506122ef83611b0d565b92508282026122fd81611b0d565b91508282048414831517612314576123136122aa565b5b5092915050565b600061232682611b0d565b915061233183611b0d565b9250828201905080821115612349576123486122aa565b5b92915050565b7f4e487b7100000000000000000000000000000000000000000000000000000000600052604160045260246000fd5b7f4e487b7100000000000000000000000000000000000000000000000000000000600052603260045260246000fd5b60006123b882611b0d565b9150600082036123cb576123ca6122aa565b5b600182039050919050565b7f537472696e67733a20686578206c656e67746820696e73756666696369656e74600082015250565b600061240c602083611e16565b9150612417826123d6565b602082019050919050565b6000602082019050818103600083015261243b816123ff565b905091905056fea2646970667358221220432b80af1a30aeedc7a804c59054ee838cc58fc38dc05e1c25154477a1fd7f0164736f6c63430008110033",
    "linkReferences": {}
  },
  "methodIdentifiers": {
    "DEFAULT_ADMIN_ROLE()": "a217fddf",
    "REGISTRAR_ROLE()": "f68e9553",
    "addMarket(bytes32,address,address)": "b5366902",
    "getAllMarketNames()": "d6607837",
    "getMarketsForRiskManager(address)": "f7a033e3",
    "getProtocolAddressByMarketName(bytes32)": "382dfc3d",
    "getRoleAdmin(bytes32)": "248a9ca3",
    "getUniqueMarketAddresses()": "96008a45",
    "getUniqueRiskManagers()": "ed2ed544",
    "grantRole(bytes32,address)": "2f2ff15d",
    "hasRole(bytes32,address)": "91d14854",
    "marketRegistry(bytes32)": "f28585e3",
    "marketRiskManagerRegistry(bytes32)": "e5c070b3",
    "registeredMarketAddresses(address)": "04b2e0d9",
    "registeredRiskManagers(address)": "e893ba53",
    "removeMarket(bytes32)": "5c5212dd",
    "renounceRole(bytes32,address)": "36568abe",
    "revokeRole(bytes32,address)": "d547741f",
    "supportsInterface(bytes4)": "01ffc9a7",
    "uniqueMarketAddresses(uint256)": "cce1cb0b",
    "uniqueRiskManagers(uint256)": "2edc9e37",
    "updateMarket(bytes32,address,address)": "a21a5e65",
    "whitelistedMarketNames(uint256)": "dabd699d"
  },
  "id": 49
}