{
  "abi": [
    {
      "inputs": [],
      "stateMutability": "nonpayable",
      "type": "constructor"
    },
    {
      "anonymous": false,
      "inputs": [
        {
          "indexed": true,
          "internalType": "bytes32",
          "name": "role",
          "type": "bytes32"
        },
        {
          "indexed": true,
          "internalType": "bytes32",
          "name": "previousAdminRole",
          "type": "bytes32"
        },
        {
          "indexed": true,
          "internalType": "bytes32",
          "name": "newAdminRole",
          "type": "bytes32"
        }
      ],
      "name": "RoleAdminChanged",
      "type": "event"
    },
    {
      "anonymous": false,
      "inputs": [
        {
          "indexed": true,
          "internalType": "bytes32",
          "name": "role",
          "type": "bytes32"
        },
        {
          "indexed": true,
          "internalType": "address",
          "name": "account",
          "type": "address"
        },
        {
          "indexed": true,
          "internalType": "address",
          "name": "sender",
          "type": "address"
        }
      ],
      "name": "RoleGranted",
      "type": "event"
    },
    {
      "anonymous": false,
      "inputs": [
        {
          "indexed": true,
          "internalType": "bytes32",
          "name": "role",
          "type": "bytes32"
        },
        {
          "indexed": true,
          "internalType": "address",
          "name": "account",
          "type": "address"
        },
        {
          "indexed": true,
          "internalType": "address",
          "name": "sender",
          "type": "address"
        }
      ],
      "name": "RoleRevoked",
      "type": "event"
    },
    {
      "inputs": [],
      "name": "DEFAULT_ADMIN_ROLE",
      "outputs": [
        {
          "internalType": "bytes32",
          "name": "",
          "type": "bytes32"
        }
      ],
      "stateMutability": "view",
      "type": "function"
    },
    {
      "inputs": [],
      "name": "REGISTRAR_ROLE",
      "outputs": [
        {
          "internalType": "bytes32",
          "name": "",
          "type": "bytes32"
        }
      ],
      "stateMutability": "view",
      "type": "function"
    },
    {
      "inputs": [
        {
          "internalType": "bytes32",
          "name": "_marketName",
          "type": "bytes32"
        },
        {
          "internalType": "address",
          "name": "_market",
          "type": "address"
        },
        {
          "internalType": "address",
          "name": "_riskManager",
          "type": "address"
        }
      ],
      "name": "addMarket",
      "outputs": [],
      "stateMutability": "nonpayable",
      "type": "function"
    },
    {
      "inputs": [],
      "name": "getAllMarketAddresses",
      "outputs": [
        {
          "internalType": "address[]",
          "name": "",
          "type": "address[]"
        }
      ],
      "stateMutability": "view",
      "type": "function"
    },
    {
      "inputs": [],
      "name": "getAllMarketNames",
      "outputs": [
        {
          "internalType": "bytes32[]",
          "name": "",
          "type": "bytes32[]"
        }
      ],
      "stateMutability": "view",
      "type": "function"
    },
    {
      "inputs": [
        {
          "internalType": "bytes32",
          "name": "marketName",
          "type": "bytes32"
        }
      ],
      "name": "getProtocolAddressByMarketName",
      "outputs": [
        {
          "internalType": "address",
          "name": "",
          "type": "address"
        },
        {
          "internalType": "address",
          "name": "",
          "type": "address"
        }
      ],
      "stateMutability": "view",
      "type": "function"
    },
    {
      "inputs": [
        {
          "internalType": "bytes32",
          "name": "role",
          "type": "bytes32"
        }
      ],
      "name": "getRoleAdmin",
      "outputs": [
        {
          "internalType": "bytes32",
          "name": "",
          "type": "bytes32"
        }
      ],
      "stateMutability": "view",
      "type": "function"
    },
    {
      "inputs": [],
      "name": "getUniqueRiskManagers",
      "outputs": [
        {
          "internalType": "address[]",
          "name": "",
          "type": "address[]"
        }
      ],
      "stateMutability": "view",
      "type": "function"
    },
    {
      "inputs": [
        {
          "internalType": "bytes32",
          "name": "role",
          "type": "bytes32"
        },
        {
          "internalType": "address",
          "name": "account",
          "type": "address"
        }
      ],
      "name": "grantRole",
      "outputs": [],
      "stateMutability": "nonpayable",
      "type": "function"
    },
    {
      "inputs": [
        {
          "internalType": "bytes32",
          "name": "role",
          "type": "bytes32"
        },
        {
          "internalType": "address",
          "name": "account",
          "type": "address"
        }
      ],
      "name": "hasRole",
      "outputs": [
        {
          "internalType": "bool",
          "name": "",
          "type": "bool"
        }
      ],
      "stateMutability": "view",
      "type": "function"
    },
    {
      "inputs": [
        {
          "internalType": "bytes32",
          "name": "",
          "type": "bytes32"
        }
      ],
      "name": "marketRegistry",
      "outputs": [
        {
          "internalType": "address",
          "name": "",
          "type": "address"
        }
      ],
      "stateMutability": "view",
      "type": "function"
    },
    {
      "inputs": [
        {
          "internalType": "bytes32",
          "name": "",
          "type": "bytes32"
        }
      ],
      "name": "marketRiskManagerRegistry",
      "outputs": [
        {
          "internalType": "address",
          "name": "",
          "type": "address"
        }
      ],
      "stateMutability": "view",
      "type": "function"
    },
    {
      "inputs": [
        {
          "internalType": "address",
          "name": "",
          "type": "address"
        }
      ],
      "name": "registererdRiskManagers",
      "outputs": [
        {
          "internalType": "bool",
          "name": "",
          "type": "bool"
        }
      ],
      "stateMutability": "view",
      "type": "function"
    },
    {
      "inputs": [
        {
          "internalType": "bytes32",
          "name": "marketName",
          "type": "bytes32"
        }
      ],
      "name": "removeMarket",
      "outputs": [],
      "stateMutability": "nonpayable",
      "type": "function"
    },
    {
      "inputs": [
        {
          "internalType": "bytes32",
          "name": "role",
          "type": "bytes32"
        },
        {
          "internalType": "address",
          "name": "account",
          "type": "address"
        }
      ],
      "name": "renounceRole",
      "outputs": [],
      "stateMutability": "nonpayable",
      "type": "function"
    },
    {
      "inputs": [
        {
          "internalType": "bytes32",
          "name": "role",
          "type": "bytes32"
        },
        {
          "internalType": "address",
          "name": "account",
          "type": "address"
        }
      ],
      "name": "revokeRole",
      "outputs": [],
      "stateMutability": "nonpayable",
      "type": "function"
    },
    {
      "inputs": [
        {
          "internalType": "bytes4",
          "name": "interfaceId",
          "type": "bytes4"
        }
      ],
      "name": "supportsInterface",
      "outputs": [
        {
          "internalType": "bool",
          "name": "",
          "type": "bool"
        }
      ],
      "stateMutability": "view",
      "type": "function"
    },
    {
      "inputs": [
        {
          "internalType": "uint256",
          "name": "",
          "type": "uint256"
        }
      ],
      "name": "uniqueRiskManagers",
      "outputs": [
        {
          "internalType": "address",
          "name": "",
          "type": "address"
        }
      ],
      "stateMutability": "view",
      "type": "function"
    },
    {
      "inputs": [
        {
          "internalType": "bytes32",
          "name": "marketName",
          "type": "bytes32"
        },
        {
          "internalType": "address",
          "name": "_market",
          "type": "address"
        },
        {
          "internalType": "address",
          "name": "_riskManager",
          "type": "address"
        }
      ],
      "name": "updateMarket",
      "outputs": [],
      "stateMutability": "nonpayable",
      "type": "function"
    },
    {
      "inputs": [
        {
          "internalType": "uint256",
          "name": "",
          "type": "uint256"
        }
      ],
      "name": "whitelistedMarketAddresses",
      "outputs": [
        {
          "internalType": "address",
          "name": "",
          "type": "address"
        }
      ],
      "stateMutability": "view",
      "type": "function"
    },
    {
      "inputs": [
        {
          "internalType": "uint256",
          "name": "",
          "type": "uint256"
        }
      ],
      "name": "whitelistedMarketNames",
      "outputs": [
        {
          "internalType": "bytes32",
          "name": "",
          "type": "bytes32"
        }
      ],
      "stateMutability": "view",
      "type": "function"
    }
  ],
  "bytecode": {
    "object": "0x608060405234801561001057600080fd5b5061003b7fedcc084d3dcd65a1f7f23c65c46722faca6953d28e43150a467cf43e5c30923833610040565b6100ec565b61004a828261004e565b5050565b6000828152602081815260408083206001600160a01b038516845290915290205460ff1661004a576000828152602081815260408083206001600160a01b03851684529091529020805460ff191660011790556100a83390565b6001600160a01b0316816001600160a01b0316837f2f8788117e7eff1d82e926ec794901d17c78024a50270940304540a733656f0d60405160405180910390a45050565b610fa0806100fb6000396000f3fe608060405234801561001057600080fd5b50600436106101375760003560e01c8063a217fddf116100b8578063d66078371161007c578063d6607837146102cd578063dabd699d146102e2578063e5c070b3146102f5578063ed2ed5441461031e578063f28585e314610326578063f68e95531461034f57600080fd5b8063a217fddf14610269578063a21a5e6514610271578063b536690214610284578063c81ec59e14610297578063d547741f146102ba57600080fd5b8063382dfc3d116100ff578063382dfc3d146101e85780635b2e51271461021b5780635c5212dd146102305780638add92191461024357806391d148541461025657600080fd5b806301ffc9a71461013c578063248a9ca3146101645780632edc9e37146101955780632f2ff15d146101c057806336568abe146101d5575b600080fd5b61014f61014a366004610c94565b610364565b60405190151581526020015b60405180910390f35b610187610172366004610cbe565b60009081526020819052604090206001015490565b60405190815260200161015b565b6101a86101a3366004610cbe565b61039b565b6040516001600160a01b03909116815260200161015b565b6101d36101ce366004610cf3565b6103c5565b005b6101d36101e3366004610cf3565b6103ef565b6101fb6101f6366004610cbe565b610472565b604080516001600160a01b0393841681529290911660208301520161015b565b6102236104fb565b60405161015b9190610d1f565b6101d361023e366004610cbe565b61055d565b6101a8610251366004610cbe565b610605565b61014f610264366004610cf3565b610615565b610187600081565b6101d361027f366004610d6c565b61063e565b6101d3610292366004610d6c565b6106f8565b61014f6102a5366004610da8565b60036020526000908152604090205460ff1681565b6101d36102c8366004610cf3565b61089a565b6102d56108bf565b60405161015b9190610dc3565b6101876102f0366004610cbe565b610916565b6101a8610303366004610cbe565b6002602052600090815260409020546001600160a01b031681565b610223610937565b6101a8610334366004610cbe565b6001602052600090815260409020546001600160a01b031681565b610187600080516020610f4b83398151915281565b60006001600160e01b03198216637965db0b60e01b148061039557506301ffc9a760e01b6001600160e01b03198316145b92915050565b600681815481106103ab57600080fd5b6000918252602090912001546001600160a01b0316905081565b6000828152602081905260409020600101546103e081610997565b6103ea83836109a4565b505050565b6001600160a01b03811633146104645760405162461bcd60e51b815260206004820152602f60248201527f416363657373436f6e74726f6c3a2063616e206f6e6c792072656e6f756e636560448201526e103937b632b9903337b91039b2b63360891b60648201526084015b60405180910390fd5b61046e8282610a28565b5050565b60008181526001602052604081205481906001600160a01b03166104cd5760405162461bcd60e51b815260206004820152601260248201527113534e88125b9d985b1a590813585c9ad95d60721b604482015260640161045b565b50506000908152600160209081526040808320546002909252909120546001600160a01b0391821692911690565b6060600480548060200260200160405190810160405280929190818152602001828054801561055357602002820191906000526020600020905b81546001600160a01b03168152600190910190602001808311610535575b5050505050905090565b600080516020610f4b83398151915261057581610997565b6000828152600160205260409020546001600160a01b03166105d45760405162461bcd60e51b815260206004820152601860248201527713534e8813585c9ad95d08191bd95cdb89dd08195e1a5cdd60421b604482015260640161045b565b5060009081526001602090815260408083208054600290935292206001600160a01b03199182169092558154169055565b600481815481106103ab57600080fd5b6000918252602082815260408084206001600160a01b0393909316845291905290205460ff1690565b600080516020610f4b83398151915261065681610997565b6000848152600160205260409020546001600160a01b03166106b55760405162461bcd60e51b815260206004820152601860248201527713534e8813585c9ad95d08191bd95cdb89dd08195e1a5cdd60421b604482015260640161045b565b50600092835260016020908152604080852080546001600160a01b03199081166001600160a01b0396871617909155600290925290932080549093169116179055565b600080516020610f4b83398151915261071081610997565b6000848152600160205260409020546001600160a01b0316156107755760405162461bcd60e51b815260206004820152601960248201527f4d4d3a204d61726b657420616c72656164792065786973747300000000000000604482015260640161045b565b600084815260016020818152604080842080546001600160a01b03808a166001600160a01b03199283168117909355600285528387208054918a1691831682179055600580548088019091557f036b6384b5eca791c62761152d0c79bb0604c104a5fb6f4eb0703f3154bb3db0018b90556004805496870190557f8a35acfbc15ff81a39ae7d344fd709f28e8600b4aa8c65c6b64bfe7fe36bd19b909501805490911690911790559183526003905290205460ff16610894576001600160a01b0382166000818152600360205260408120805460ff191660019081179091556006805491820181559091527ff652222313e28459528d920b65115c16c04f3efc82aaedc97be59f3f377c0d3f0180546001600160a01b03191690911790555b50505050565b6000828152602081905260409020600101546108b581610997565b6103ea8383610a28565b6060600580548060200260200160405190810160405280929190818152602001828054801561055357602002820191906000526020600020905b8154815260200190600101908083116108f9575050505050905090565b6005818154811061092657600080fd5b600091825260209091200154905081565b60606006805480602002602001604051908101604052809291908181526020018280548015610553576020028201919060005260206000209081546001600160a01b03168152600190910190602001808311610535575050505050905090565b6109a18133610a8d565b50565b6109ae8282610615565b61046e576000828152602081815260408083206001600160a01b03851684529091529020805460ff191660011790556109e43390565b6001600160a01b0316816001600160a01b0316837f2f8788117e7eff1d82e926ec794901d17c78024a50270940304540a733656f0d60405160405180910390a45050565b610a328282610615565b1561046e576000828152602081815260408083206001600160a01b0385168085529252808320805460ff1916905551339285917ff6391f5c32d9c69d2a47ea670b442974b53935d1edc7fd64eb21e047a839171b9190a45050565b610a978282610615565b61046e57610aaf816001600160a01b03166014610af1565b610aba836020610af1565b604051602001610acb929190610e1f565b60408051601f198184030181529082905262461bcd60e51b825261045b91600401610e94565b60606000610b00836002610edd565b610b0b906002610ef4565b67ffffffffffffffff811115610b2357610b23610f07565b6040519080825280601f01601f191660200182016040528015610b4d576020820181803683370190505b509050600360fc1b81600081518110610b6857610b68610f1d565b60200101906001600160f81b031916908160001a905350600f60fb1b81600181518110610b9757610b97610f1d565b60200101906001600160f81b031916908160001a9053506000610bbb846002610edd565b610bc6906001610ef4565b90505b6001811115610c3e576f181899199a1a9b1b9c1cb0b131b232b360811b85600f1660108110610bfa57610bfa610f1d565b1a60f81b828281518110610c1057610c10610f1d565b60200101906001600160f81b031916908160001a90535060049490941c93610c3781610f33565b9050610bc9565b508315610c8d5760405162461bcd60e51b815260206004820181905260248201527f537472696e67733a20686578206c656e67746820696e73756666696369656e74604482015260640161045b565b9392505050565b600060208284031215610ca657600080fd5b81356001600160e01b031981168114610c8d57600080fd5b600060208284031215610cd057600080fd5b5035919050565b80356001600160a01b0381168114610cee57600080fd5b919050565b60008060408385031215610d0657600080fd5b82359150610d1660208401610cd7565b90509250929050565b6020808252825182820181905260009190848201906040850190845b81811015610d605783516001600160a01b031683529284019291840191600101610d3b565b50909695505050505050565b600080600060608486031215610d8157600080fd5b83359250610d9160208501610cd7565b9150610d9f60408501610cd7565b90509250925092565b600060208284031215610dba57600080fd5b610c8d82610cd7565b6020808252825182820181905260009190848201906040850190845b81811015610d6057835183529284019291840191600101610ddf565b60005b83811015610e16578181015183820152602001610dfe565b50506000910152565b7f416363657373436f6e74726f6c3a206163636f756e7420000000000000000000815260008351610e57816017850160208801610dfb565b7001034b99036b4b9b9b4b733903937b6329607d1b6017918401918201528351610e88816028840160208801610dfb565b01602801949350505050565b6020815260008251806020840152610eb3816040850160208701610dfb565b601f01601f19169190910160400192915050565b634e487b7160e01b600052601160045260246000fd5b808202811582820484141761039557610395610ec7565b8082018082111561039557610395610ec7565b634e487b7160e01b600052604160045260246000fd5b634e487b7160e01b600052603260045260246000fd5b600081610f4257610f42610ec7565b50600019019056feedcc084d3dcd65a1f7f23c65c46722faca6953d28e43150a467cf43e5c309238a26469706673582212200c4f41a892c9b31bb06ee3578eeb4a6126103f39f0c57bd3cfce236bf4441aa464736f6c63430008110033",
    "linkReferences": {}
  },
  "methodIdentifiers": {
    "DEFAULT_ADMIN_ROLE()": "a217fddf",
    "REGISTRAR_ROLE()": "f68e9553",
    "addMarket(bytes32,address,address)": "b5366902",
    "getAllMarketAddresses()": "5b2e5127",
    "getAllMarketNames()": "d6607837",
    "getProtocolAddressByMarketName(bytes32)": "382dfc3d",
    "getRoleAdmin(bytes32)": "248a9ca3",
    "getUniqueRiskManagers()": "ed2ed544",
    "grantRole(bytes32,address)": "2f2ff15d",
    "hasRole(bytes32,address)": "91d14854",
    "marketRegistry(bytes32)": "f28585e3",
    "marketRiskManagerRegistry(bytes32)": "e5c070b3",
    "registererdRiskManagers(address)": "c81ec59e",
    "removeMarket(bytes32)": "5c5212dd",
    "renounceRole(bytes32,address)": "36568abe",
    "revokeRole(bytes32,address)": "d547741f",
    "supportsInterface(bytes4)": "01ffc9a7",
    "uniqueRiskManagers(uint256)": "2edc9e37",
    "updateMarket(bytes32,address,address)": "a21a5e65",
    "whitelistedMarketAddresses(uint256)": "8add9219",
    "whitelistedMarketNames(uint256)": "dabd699d"
  },
  "id": 51
}