{
  "abi": [
    {
      "inputs": [],
      "stateMutability": "nonpayable",
      "type": "constructor"
    },
    {
      "anonymous": false,
      "inputs": [
        {
          "indexed": true,
          "internalType": "bytes32",
          "name": "role",
          "type": "bytes32"
        },
        {
          "indexed": true,
          "internalType": "bytes32",
          "name": "previousAdminRole",
          "type": "bytes32"
        },
        {
          "indexed": true,
          "internalType": "bytes32",
          "name": "newAdminRole",
          "type": "bytes32"
        }
      ],
      "name": "RoleAdminChanged",
      "type": "event"
    },
    {
      "anonymous": false,
      "inputs": [
        {
          "indexed": true,
          "internalType": "bytes32",
          "name": "role",
          "type": "bytes32"
        },
        {
          "indexed": true,
          "internalType": "address",
          "name": "account",
          "type": "address"
        },
        {
          "indexed": true,
          "internalType": "address",
          "name": "sender",
          "type": "address"
        }
      ],
      "name": "RoleGranted",
      "type": "event"
    },
    {
      "anonymous": false,
      "inputs": [
        {
          "indexed": true,
          "internalType": "bytes32",
          "name": "role",
          "type": "bytes32"
        },
        {
          "indexed": true,
          "internalType": "address",
          "name": "account",
          "type": "address"
        },
        {
          "indexed": true,
          "internalType": "address",
          "name": "sender",
          "type": "address"
        }
      ],
      "name": "RoleRevoked",
      "type": "event"
    },
    {
      "inputs": [],
      "name": "DEFAULT_ADMIN_ROLE",
      "outputs": [
        {
          "internalType": "bytes32",
          "name": "",
          "type": "bytes32"
        }
      ],
      "stateMutability": "view",
      "type": "function"
    },
    {
      "inputs": [],
      "name": "REGISTRAR_ROLE",
      "outputs": [
        {
          "internalType": "bytes32",
          "name": "",
          "type": "bytes32"
        }
      ],
      "stateMutability": "view",
      "type": "function"
    },
    {
      "inputs": [
        {
          "internalType": "bytes32",
          "name": "_marketName",
          "type": "bytes32"
        },
        {
          "internalType": "address",
          "name": "_market",
          "type": "address"
        },
        {
          "internalType": "address",
          "name": "_riskManager",
          "type": "address"
        }
      ],
      "name": "addMarket",
      "outputs": [],
      "stateMutability": "nonpayable",
      "type": "function"
    },
    {
      "inputs": [],
      "name": "getAllMarketNames",
      "outputs": [
        {
          "internalType": "bytes32[]",
          "name": "",
          "type": "bytes32[]"
        }
      ],
      "stateMutability": "view",
      "type": "function"
    },
    {
      "inputs": [
        {
          "internalType": "address",
          "name": "_riskManager",
          "type": "address"
        }
      ],
      "name": "getMarketsForRiskManager",
      "outputs": [
        {
          "internalType": "address[]",
          "name": "",
          "type": "address[]"
        }
      ],
      "stateMutability": "view",
      "type": "function"
    },
    {
      "inputs": [
        {
          "internalType": "bytes32",
          "name": "marketName",
          "type": "bytes32"
        }
      ],
      "name": "getProtocolAddressByMarketName",
      "outputs": [
        {
          "internalType": "address",
          "name": "",
          "type": "address"
        },
        {
          "internalType": "address",
          "name": "",
          "type": "address"
        }
      ],
      "stateMutability": "view",
      "type": "function"
    },
    {
      "inputs": [
        {
          "internalType": "bytes32",
          "name": "role",
          "type": "bytes32"
        }
      ],
      "name": "getRoleAdmin",
      "outputs": [
        {
          "internalType": "bytes32",
          "name": "",
          "type": "bytes32"
        }
      ],
      "stateMutability": "view",
      "type": "function"
    },
    {
      "inputs": [],
      "name": "getUniqueMarketAddresses",
      "outputs": [
        {
          "internalType": "address[]",
          "name": "",
          "type": "address[]"
        }
      ],
      "stateMutability": "view",
      "type": "function"
    },
    {
      "inputs": [],
      "name": "getUniqueRiskManagers",
      "outputs": [
        {
          "internalType": "address[]",
          "name": "",
          "type": "address[]"
        }
      ],
      "stateMutability": "view",
      "type": "function"
    },
    {
      "inputs": [
        {
          "internalType": "bytes32",
          "name": "role",
          "type": "bytes32"
        },
        {
          "internalType": "address",
          "name": "account",
          "type": "address"
        }
      ],
      "name": "grantRole",
      "outputs": [],
      "stateMutability": "nonpayable",
      "type": "function"
    },
    {
      "inputs": [
        {
          "internalType": "bytes32",
          "name": "role",
          "type": "bytes32"
        },
        {
          "internalType": "address",
          "name": "account",
          "type": "address"
        }
      ],
      "name": "hasRole",
      "outputs": [
        {
          "internalType": "bool",
          "name": "",
          "type": "bool"
        }
      ],
      "stateMutability": "view",
      "type": "function"
    },
    {
      "inputs": [
        {
          "internalType": "bytes32",
          "name": "",
          "type": "bytes32"
        }
      ],
      "name": "marketRegistry",
      "outputs": [
        {
          "internalType": "address",
          "name": "",
          "type": "address"
        }
      ],
      "stateMutability": "view",
      "type": "function"
    },
    {
      "inputs": [
        {
          "internalType": "bytes32",
          "name": "",
          "type": "bytes32"
        }
      ],
      "name": "marketRiskManagerRegistry",
      "outputs": [
        {
          "internalType": "address",
          "name": "",
          "type": "address"
        }
      ],
      "stateMutability": "view",
      "type": "function"
    },
    {
      "inputs": [
        {
          "internalType": "address",
          "name": "",
          "type": "address"
        }
      ],
      "name": "registeredMarketAddresses",
      "outputs": [
        {
          "internalType": "bool",
          "name": "",
          "type": "bool"
        }
      ],
      "stateMutability": "view",
      "type": "function"
    },
    {
      "inputs": [
        {
          "internalType": "address",
          "name": "",
          "type": "address"
        }
      ],
      "name": "registeredRiskManagers",
      "outputs": [
        {
          "internalType": "bool",
          "name": "",
          "type": "bool"
        }
      ],
      "stateMutability": "view",
      "type": "function"
    },
    {
      "inputs": [
        {
          "internalType": "bytes32",
          "name": "marketName",
          "type": "bytes32"
        }
      ],
      "name": "removeMarket",
      "outputs": [],
      "stateMutability": "nonpayable",
      "type": "function"
    },
    {
      "inputs": [
        {
          "internalType": "bytes32",
          "name": "role",
          "type": "bytes32"
        },
        {
          "internalType": "address",
          "name": "account",
          "type": "address"
        }
      ],
      "name": "renounceRole",
      "outputs": [],
      "stateMutability": "nonpayable",
      "type": "function"
    },
    {
      "inputs": [
        {
          "internalType": "bytes32",
          "name": "role",
          "type": "bytes32"
        },
        {
          "internalType": "address",
          "name": "account",
          "type": "address"
        }
      ],
      "name": "revokeRole",
      "outputs": [],
      "stateMutability": "nonpayable",
      "type": "function"
    },
    {
      "inputs": [
        {
          "internalType": "bytes4",
          "name": "interfaceId",
          "type": "bytes4"
        }
      ],
      "name": "supportsInterface",
      "outputs": [
        {
          "internalType": "bool",
          "name": "",
          "type": "bool"
        }
      ],
      "stateMutability": "view",
      "type": "function"
    },
    {
      "inputs": [
        {
          "internalType": "uint256",
          "name": "",
          "type": "uint256"
        }
      ],
      "name": "uniqueMarketAddresses",
      "outputs": [
        {
          "internalType": "address",
          "name": "",
          "type": "address"
        }
      ],
      "stateMutability": "view",
      "type": "function"
    },
    {
      "inputs": [
        {
          "internalType": "uint256",
          "name": "",
          "type": "uint256"
        }
      ],
      "name": "uniqueRiskManagers",
      "outputs": [
        {
          "internalType": "address",
          "name": "",
          "type": "address"
        }
      ],
      "stateMutability": "view",
      "type": "function"
    },
    {
      "inputs": [
        {
          "internalType": "bytes32",
          "name": "marketName",
          "type": "bytes32"
        },
        {
          "internalType": "address",
          "name": "_market",
          "type": "address"
        },
        {
          "internalType": "address",
          "name": "_riskManager",
          "type": "address"
        }
      ],
      "name": "updateMarket",
      "outputs": [],
      "stateMutability": "nonpayable",
      "type": "function"
    },
    {
      "inputs": [
        {
          "internalType": "uint256",
          "name": "",
          "type": "uint256"
        }
      ],
      "name": "whitelistedMarketNames",
      "outputs": [
        {
          "internalType": "bytes32",
          "name": "",
          "type": "bytes32"
        }
      ],
      "stateMutability": "view",
      "type": "function"
    }
  ],
  "bytecode": {
    "object": "0x608060405234801561001057600080fd5b5061003b7fedcc084d3dcd65a1f7f23c65c46722faca6953d28e43150a467cf43e5c30923833610040565b6100ec565b61004a828261004e565b5050565b6000828152602081815260408083206001600160a01b038516845290915290205460ff1661004a576000828152602081815260408083206001600160a01b03851684529091529020805460ff191660011790556100a83390565b6001600160a01b0316816001600160a01b0316837f2f8788117e7eff1d82e926ec794901d17c78024a50270940304540a733656f0d60405160405180910390a45050565b61119c806100fb6000396000f3fe608060405234801561001057600080fd5b506004361061014d5760003560e01c8063a21a5e65116100c3578063e5c070b31161007c578063e5c070b31461030b578063e893ba5314610334578063ed2ed54414610357578063f28585e31461035f578063f68e955314610388578063f7a033e31461039d57600080fd5b8063a21a5e6514610297578063b5366902146102aa578063cce1cb0b146102bd578063d547741f146102d0578063d6607837146102e3578063dabd699d146102f857600080fd5b806336568abe1161011557806336568abe1461020e578063382dfc3d146102215780635c5212dd1461025457806391d148541461026757806396008a451461027a578063a217fddf1461028f57600080fd5b806301ffc9a71461015257806304b2e0d91461017a578063248a9ca31461019d5780632edc9e37146101ce5780632f2ff15d146101f9575b600080fd5b610165610160366004610e90565b6103b0565b60405190151581526020015b60405180910390f35b610165610188366004610ed6565b60046020526000908152604090205460ff1681565b6101c06101ab366004610ef1565b60009081526020819052604090206001015490565b604051908152602001610171565b6101e16101dc366004610ef1565b6103e7565b6040516001600160a01b039091168152602001610171565b61020c610207366004610f0a565b610411565b005b61020c61021c366004610f0a565b61043b565b61023461022f366004610ef1565b6104be565b604080516001600160a01b03938416815292909116602083015201610171565b61020c610262366004610ef1565b610547565b610165610275366004610f0a565b6105ef565b610282610618565b6040516101719190610f36565b6101c0600081565b61020c6102a5366004610f83565b61067a565b61020c6102b8366004610f83565b610734565b6101e16102cb366004610ef1565b6109b0565b61020c6102de366004610f0a565b6109c0565b6102eb6109e5565b6040516101719190610fbf565b6101c0610306366004610ef1565b610a3c565b6101e1610319366004610ef1565b6002602052600090815260409020546001600160a01b031681565b610165610342366004610ed6565b60036020526000908152604090205460ff1681565b610282610a5d565b6101e161036d366004610ef1565b6001602052600090815260409020546001600160a01b031681565b6101c060008051602061114783398151915281565b6102826103ab366004610ed6565b610abd565b60006001600160e01b03198216637965db0b60e01b14806103e157506301ffc9a760e01b6001600160e01b03198316145b92915050565b600781815481106103f757600080fd5b6000918252602090912001546001600160a01b0316905081565b60008281526020819052604090206001015461042c81610b93565b6104368383610ba0565b505050565b6001600160a01b03811633146104b05760405162461bcd60e51b815260206004820152602f60248201527f416363657373436f6e74726f6c3a2063616e206f6e6c792072656e6f756e636560448201526e103937b632b9903337b91039b2b63360891b60648201526084015b60405180910390fd5b6104ba8282610c24565b5050565b60008181526001602052604081205481906001600160a01b03166105195760405162461bcd60e51b815260206004820152601260248201527113534e88125b9d985b1a590813585c9ad95d60721b60448201526064016104a7565b50506000908152600160209081526040808320546002909252909120546001600160a01b0391821692911690565b60008051602061114783398151915261055f81610b93565b6000828152600160205260409020546001600160a01b03166105be5760405162461bcd60e51b815260206004820152601860248201527713534e8813585c9ad95d08191bd95cdb89dd08195e1a5cdd60421b60448201526064016104a7565b5060009081526001602090815260408083208054600290935292206001600160a01b03199182169092558154169055565b6000918252602082815260408084206001600160a01b0393909316845291905290205460ff1690565b6060600880548060200260200160405190810160405280929190818152602001828054801561067057602002820191906000526020600020905b81546001600160a01b03168152600190910190602001808311610652575b5050505050905090565b60008051602061114783398151915261069281610b93565b6000848152600160205260409020546001600160a01b03166106f15760405162461bcd60e51b815260206004820152601860248201527713534e8813585c9ad95d08191bd95cdb89dd08195e1a5cdd60421b60448201526064016104a7565b50600092835260016020908152604080852080546001600160a01b03199081166001600160a01b0396871617909155600290925290932080549093169116179055565b60008051602061114783398151915261074c81610b93565b6000848152600160205260409020546001600160a01b0316156107b15760405162461bcd60e51b815260206004820152601960248201527f4d4d3a204d61726b657420616c7265616479206578697374730000000000000060448201526064016104a7565b6001600160a01b0383166108115760405162461bcd60e51b815260206004820152602160248201527f4d4d3a20416464696e67205a65726f2041646472657373206173204d61726b656044820152601d60fa1b60648201526084016104a7565b600084815260016020818152604080842080546001600160a01b03808a166001600160a01b03199283168117909355600285528387208054918a16919092161790556006805494850190557ff652222313e28459528d920b65115c16c04f3efc82aaedc97be59f3f377c0d3f9093018890559183526004905290205460ff16610924576001600160a01b0380831660009081526005602090815260408083208054600181810183559185528385200180549589166001600160a01b031996871681179091558085526004909352908320805460ff1916821790556008805491820181559092527ff3f7a9fe364faab93b216da50a3214154f22a0a2b415b23a84c8169e8b636ee390910180549092161790555b6001600160a01b03821660009081526003602052604090205460ff166109aa576001600160a01b0382166000818152600360205260408120805460ff191660019081179091556007805491820181559091527fa66cc928b5edb82af9bd49922954155ab7b0942694bea4ce44661d9a8736c6880180546001600160a01b03191690911790555b50505050565b600881815481106103f757600080fd5b6000828152602081905260409020600101546109db81610b93565b6104368383610c24565b6060600680548060200260200160405190810160405280929190818152602001828054801561067057602002820191906000526020600020905b815481526020019060010190808311610a1f575050505050905090565b60068181548110610a4c57600080fd5b600091825260209091200154905081565b60606007805480602002602001604051908101604052809291908181526020018280548015610670576020028201919060005260206000209081546001600160a01b03168152600190910190602001808311610652575050505050905090565b6001600160a01b03811660009081526003602052604090205460609060ff16610b1f5760405162461bcd60e51b815260206004820152601460248201527324b73b30b634b2102934b9b59026b0b730b3b2b960611b60448201526064016104a7565b6001600160a01b03821660009081526005602090815260409182902080548351818402810184019094528084529091830182828015610b8757602002820191906000526020600020905b81546001600160a01b03168152600190910190602001808311610b69575b50505050509050919050565b610b9d8133610c89565b50565b610baa82826105ef565b6104ba576000828152602081815260408083206001600160a01b03851684529091529020805460ff19166001179055610be03390565b6001600160a01b0316816001600160a01b0316837f2f8788117e7eff1d82e926ec794901d17c78024a50270940304540a733656f0d60405160405180910390a45050565b610c2e82826105ef565b156104ba576000828152602081815260408083206001600160a01b0385168085529252808320805460ff1916905551339285917ff6391f5c32d9c69d2a47ea670b442974b53935d1edc7fd64eb21e047a839171b9190a45050565b610c9382826105ef565b6104ba57610cab816001600160a01b03166014610ced565b610cb6836020610ced565b604051602001610cc792919061101b565b60408051601f198184030181529082905262461bcd60e51b82526104a791600401611090565b60606000610cfc8360026110d9565b610d079060026110f0565b67ffffffffffffffff811115610d1f57610d1f611103565b6040519080825280601f01601f191660200182016040528015610d49576020820181803683370190505b509050600360fc1b81600081518110610d6457610d64611119565b60200101906001600160f81b031916908160001a905350600f60fb1b81600181518110610d9357610d93611119565b60200101906001600160f81b031916908160001a9053506000610db78460026110d9565b610dc29060016110f0565b90505b6001811115610e3a576f181899199a1a9b1b9c1cb0b131b232b360811b85600f1660108110610df657610df6611119565b1a60f81b828281518110610e0c57610e0c611119565b60200101906001600160f81b031916908160001a90535060049490941c93610e338161112f565b9050610dc5565b508315610e895760405162461bcd60e51b815260206004820181905260248201527f537472696e67733a20686578206c656e67746820696e73756666696369656e7460448201526064016104a7565b9392505050565b600060208284031215610ea257600080fd5b81356001600160e01b031981168114610e8957600080fd5b80356001600160a01b0381168114610ed157600080fd5b919050565b600060208284031215610ee857600080fd5b610e8982610eba565b600060208284031215610f0357600080fd5b5035919050565b60008060408385031215610f1d57600080fd5b82359150610f2d60208401610eba565b90509250929050565b6020808252825182820181905260009190848201906040850190845b81811015610f775783516001600160a01b031683529284019291840191600101610f52565b50909695505050505050565b600080600060608486031215610f9857600080fd5b83359250610fa860208501610eba565b9150610fb660408501610eba565b90509250925092565b6020808252825182820181905260009190848201906040850190845b81811015610f7757835183529284019291840191600101610fdb565b60005b83811015611012578181015183820152602001610ffa565b50506000910152565b7f416363657373436f6e74726f6c3a206163636f756e7420000000000000000000815260008351611053816017850160208801610ff7565b7001034b99036b4b9b9b4b733903937b6329607d1b6017918401918201528351611084816028840160208801610ff7565b01602801949350505050565b60208152600082518060208401526110af816040850160208701610ff7565b601f01601f19169190910160400192915050565b634e487b7160e01b600052601160045260246000fd5b80820281158282048414176103e1576103e16110c3565b808201808211156103e1576103e16110c3565b634e487b7160e01b600052604160045260246000fd5b634e487b7160e01b600052603260045260246000fd5b60008161113e5761113e6110c3565b50600019019056feedcc084d3dcd65a1f7f23c65c46722faca6953d28e43150a467cf43e5c309238a26469706673582212203df323e9d17bbd28af8fad270e2e869c9ab1403e85f581664417bab884fb0b4764736f6c63430008110033",
    "linkReferences": {}
  },
  "methodIdentifiers": {
    "DEFAULT_ADMIN_ROLE()": "a217fddf",
    "REGISTRAR_ROLE()": "f68e9553",
    "addMarket(bytes32,address,address)": "b5366902",
    "getAllMarketNames()": "d6607837",
    "getMarketsForRiskManager(address)": "f7a033e3",
    "getProtocolAddressByMarketName(bytes32)": "382dfc3d",
    "getRoleAdmin(bytes32)": "248a9ca3",
    "getUniqueMarketAddresses()": "96008a45",
    "getUniqueRiskManagers()": "ed2ed544",
    "grantRole(bytes32,address)": "2f2ff15d",
    "hasRole(bytes32,address)": "91d14854",
    "marketRegistry(bytes32)": "f28585e3",
    "marketRiskManagerRegistry(bytes32)": "e5c070b3",
    "registeredMarketAddresses(address)": "04b2e0d9",
    "registeredRiskManagers(address)": "e893ba53",
    "removeMarket(bytes32)": "5c5212dd",
    "renounceRole(bytes32,address)": "36568abe",
    "revokeRole(bytes32,address)": "d547741f",
    "supportsInterface(bytes4)": "01ffc9a7",
    "uniqueMarketAddresses(uint256)": "cce1cb0b",
    "uniqueRiskManagers(uint256)": "2edc9e37",
    "updateMarket(bytes32,address,address)": "a21a5e65",
    "whitelistedMarketNames(uint256)": "dabd699d"
  },
  "id": 46
}