{
  "abi": [
    {
      "inputs": [
        {
          "internalType": "contract IContractRegistry",
          "name": "_contractRegistery",
          "type": "address"
        },
        {
          "internalType": "contract IMarketManager",
          "name": "_marketManager",
          "type": "address"
        }
      ],
      "stateMutability": "nonpayable",
      "type": "constructor"
    },
    {
      "inputs": [
        {
          "internalType": "address",
          "name": "marginAccount",
          "type": "address"
        },
        {
          "internalType": "int256",
          "name": "PnL",
          "type": "int256"
        },
        {
          "internalType": "uint256",
          "name": "interestAccrued",
          "type": "uint256"
        }
      ],
      "name": "GetCurrentBuyingPower",
      "outputs": [
        {
          "internalType": "uint256",
          "name": "buyPow",
          "type": "uint256"
        }
      ],
      "stateMutability": "nonpayable",
      "type": "function"
    },
    {
      "inputs": [],
      "name": "TotalLeverage",
      "outputs": [],
      "stateMutability": "nonpayable",
      "type": "function"
    },
    {
      "inputs": [],
      "name": "TotalPositionValue",
      "outputs": [],
      "stateMutability": "nonpayable",
      "type": "function"
    },
    {
      "inputs": [
        {
          "internalType": "address",
          "name": "_marginAcc",
          "type": "address"
        },
        {
          "internalType": "bytes32",
          "name": "marketKey",
          "type": "bytes32"
        },
        {
          "internalType": "address[]",
          "name": "destinations",
          "type": "address[]"
        },
        {
          "internalType": "bytes[]",
          "name": "data",
          "type": "bytes[]"
        }
      ],
      "name": "closeTrade",
      "outputs": [
        {
          "internalType": "int256",
          "name": "marginDelta",
          "type": "int256"
        },
        {
          "internalType": "int256",
          "name": "positionSize",
          "type": "int256"
        }
      ],
      "stateMutability": "nonpayable",
      "type": "function"
    },
    {
      "inputs": [],
      "name": "collateralManager",
      "outputs": [
        {
          "internalType": "contract CollateralManager",
          "name": "",
          "type": "address"
        }
      ],
      "stateMutability": "view",
      "type": "function"
    },
    {
      "inputs": [],
      "name": "contractRegistery",
      "outputs": [
        {
          "internalType": "contract IContractRegistry",
          "name": "",
          "type": "address"
        }
      ],
      "stateMutability": "view",
      "type": "function"
    },
    {
      "inputs": [
        {
          "internalType": "address",
          "name": "_marginAcc",
          "type": "address"
        },
        {
          "internalType": "int256",
          "name": "PnL",
          "type": "int256"
        }
      ],
      "name": "getBuyingPower",
      "outputs": [
        {
          "internalType": "uint256",
          "name": "buyPow",
          "type": "uint256"
        }
      ],
      "stateMutability": "nonpayable",
      "type": "function"
    },
    {
      "inputs": [
        {
          "internalType": "address",
          "name": "marginAccount",
          "type": "address"
        }
      ],
      "name": "getPositionsValPnL",
      "outputs": [
        {
          "internalType": "int256",
          "name": "totalNotional",
          "type": "int256"
        },
        {
          "internalType": "int256",
          "name": "PnL",
          "type": "int256"
        }
      ],
      "stateMutability": "nonpayable",
      "type": "function"
    },
    {
      "inputs": [],
      "name": "initialMarginFactor",
      "outputs": [
        {
          "internalType": "uint256",
          "name": "",
          "type": "uint256"
        }
      ],
      "stateMutability": "view",
      "type": "function"
    },
    {
      "inputs": [
        {
          "internalType": "address",
          "name": "_marginAcc",
          "type": "address"
        },
        {
          "internalType": "bytes32[]",
          "name": "marketKeys",
          "type": "bytes32[]"
        },
        {
          "internalType": "address[]",
          "name": "destinations",
          "type": "address[]"
        },
        {
          "internalType": "bytes[]",
          "name": "data",
          "type": "bytes[]"
        }
      ],
      "name": "isliquidatable",
      "outputs": [
        {
          "internalType": "int256",
          "name": "marginDelta",
          "type": "int256"
        },
        {
          "internalType": "int256",
          "name": "positionSize",
          "type": "int256"
        }
      ],
      "stateMutability": "nonpayable",
      "type": "function"
    },
    {
      "inputs": [
        {
          "internalType": "address",
          "name": "_marginAcc",
          "type": "address"
        }
      ],
      "name": "liquidatable",
      "outputs": [
        {
          "internalType": "int256",
          "name": "diff",
          "type": "int256"
        }
      ],
      "stateMutability": "nonpayable",
      "type": "function"
    },
    {
      "inputs": [],
      "name": "maintanaceMarginFactor",
      "outputs": [
        {
          "internalType": "uint256",
          "name": "",
          "type": "uint256"
        }
      ],
      "stateMutability": "view",
      "type": "function"
    },
    {
      "inputs": [],
      "name": "marketManager",
      "outputs": [
        {
          "internalType": "contract IMarketManager",
          "name": "",
          "type": "address"
        }
      ],
      "stateMutability": "view",
      "type": "function"
    },
    {
      "inputs": [],
      "name": "priceOracle",
      "outputs": [
        {
          "internalType": "contract IPriceOracle",
          "name": "",
          "type": "address"
        }
      ],
      "stateMutability": "view",
      "type": "function"
    },
    {
      "inputs": [
        {
          "internalType": "address",
          "name": "_collateralManager",
          "type": "address"
        }
      ],
      "name": "setCollateralManager",
      "outputs": [],
      "stateMutability": "nonpayable",
      "type": "function"
    },
    {
      "inputs": [
        {
          "internalType": "address",
          "name": "oracle",
          "type": "address"
        }
      ],
      "name": "setPriceOracle",
      "outputs": [],
      "stateMutability": "nonpayable",
      "type": "function"
    },
    {
      "inputs": [
        {
          "internalType": "address",
          "name": "_vault",
          "type": "address"
        }
      ],
      "name": "setVault",
      "outputs": [],
      "stateMutability": "nonpayable",
      "type": "function"
    },
    {
      "inputs": [],
      "name": "vault",
      "outputs": [
        {
          "internalType": "contract Vault",
          "name": "",
          "type": "address"
        }
      ],
      "stateMutability": "view",
      "type": "function"
    },
    {
      "inputs": [
        {
          "internalType": "address",
          "name": "marginAcc",
          "type": "address"
        },
        {
          "internalType": "bytes32",
          "name": "marketKey",
          "type": "bytes32"
        },
        {
          "internalType": "address[]",
          "name": "destinations",
          "type": "address[]"
        },
        {
          "internalType": "bytes[]",
          "name": "data",
          "type": "bytes[]"
        },
        {
          "internalType": "uint256",
          "name": "interestAccrued",
          "type": "uint256"
        }
      ],
      "name": "verifyTrade",
      "outputs": [
        {
          "components": [
            {
              "internalType": "address",
              "name": "protocolAddress",
              "type": "address"
            },
            {
              "internalType": "int256",
              "name": "marginDelta",
              "type": "int256"
            },
            {
              "internalType": "int256",
              "name": "marginDeltaDollarValue",
              "type": "int256"
            },
            {
              "components": [
                {
                  "internalType": "address",
                  "name": "protocol",
                  "type": "address"
                },
                {
                  "internalType": "int256",
                  "name": "openNotional",
                  "type": "int256"
                },
                {
                  "internalType": "int256",
                  "name": "size",
                  "type": "int256"
                },
                {
                  "internalType": "uint256",
                  "name": "fee",
                  "type": "uint256"
                }
              ],
              "internalType": "struct Position",
              "name": "position",
              "type": "tuple"
            },
            {
              "internalType": "address",
              "name": "tokenOut",
              "type": "address"
            }
          ],
          "internalType": "struct VerifyTradeResult",
          "name": "result",
          "type": "tuple"
        }
      ],
      "stateMutability": "nonpayable",
      "type": "function"
    }
  ],
  "bytecode": {
    "object": "0x6080604052601960065560146007553480156200001b57600080fd5b506040516200210f3803806200210f8339810160408190526200003e916200008e565b6001600055600380546001600160a01b039384166001600160a01b03199182161790915560058054929093169116179055620000cd565b6001600160a01b03811681146200008b57600080fd5b50565b60008060408385031215620000a257600080fd5b8251620000af8162000075565b6020840151909250620000c28162000075565b809150509250929050565b61203280620000dd6000396000f3fe608060405234801561001057600080fd5b50600436106101215760003560e01c80637e748f8c116100ad578063c3e7a76d11610071578063c3e7a76d1461017c578063d3ad790d14610310578063e650e5df14610319578063fbfa77cf1461032c578063ffec70af1461033f57600080fd5b80637e748f8c14610289578063842a05d4146102b15780639ddefa2b146102e1578063ae113839146102f4578063bd8ad4071461030757600080fd5b806341ed2c12116100f457806341ed2c121461017e5780634f82d61814610191578063530e784f146102085780635a5ee388146102385780636817031b1461025957600080fd5b806323be345c146101265780632630c12f1461015657806331745e0a146101695780633ebd064e1461017c575b600080fd5b600454610139906001600160a01b031681565b6040516001600160a01b0390911681526020015b60405180910390f35b600154610139906001600160a01b031681565b600354610139906001600160a01b031681565b005b600554610139906001600160a01b031681565b6101a461019f366004611750565b610352565b6040805182516001600160a01b0390811682526020808501518184015284840151838501526060808601518051841682860152918201516080808601919091529482015160a0850152015160c083015291909201511660e08201526101000161014d565b61017c6102163660046117d8565b600180546001600160a01b0319166001600160a01b0392909216919091179055565b61024b6102463660046117f5565b6106f1565b60405190815260200161014d565b61017c6102673660046117d8565b600280546001600160a01b0319166001600160a01b0392909216919091179055565b61029c610297366004611821565b6107ad565b6040805192835260208301919091520161014d565b61017c6102bf3660046117d8565b600480546001600160a01b0319166001600160a01b0392909216919091179055565b61029c6102ef3660046117d8565b610987565b61024b610302366004611913565b610bc2565b61024b60065481565b61024b60075481565b61029c610327366004611948565b610c67565b600254610139906001600160a01b031681565b61024b61034d3660046117d8565b610d89565b61035a61150e565b60055460405163382dfc3d60e01b8152600481018790526000918291829182916001600160a01b039091169063382dfc3d906024016040805180830381865afa1580156103ab573d6000803e3d6000fd5b505050506040513d601f19601f820116820180604052508101906103cf91906119bc565b6001600160a01b03918216875260408051634c566bd360e11b8152905191935083928316916398acd7a6916004808201926020929091908290030181865afa15801561041f573d6000803e3d6000fd5b505050506040513d601f19601f8201168201806040525081019061044391906119f6565b6001600160a01b0316608087015261045a8b610987565b909550925061046a8b8489610bc2565b865160405163288277d560e11b81529195506001600160a01b03831691635104efaa9161049d918d908d90600401611a59565b60a0604051808303816000875af11580156104bc573d6000803e3d6000fd5b505050506040513d601f19601f820116820180604052508101906104e09190611b0a565b87602001886060018290528281525050506106b986608001516001600160a01b031663313ce5676040518163ffffffff1660e01b8152600401602060405180830381865afa158015610536573d6000803e3d6000fd5b505050506040513d601f19601f8201168201806040525081019061055a9190611b96565b600260009054906101000a90046001600160a01b03166001600160a01b03166338d52e0f6040518163ffffffff1660e01b8152600401602060405180830381865afa1580156105ad573d6000803e3d6000fd5b505050506040513d601f19601f820116820180604052508101906105d191906119f6565b6001600160a01b031663313ce5676040518163ffffffff1660e01b8152600401602060405180830381865afa15801561060e573d6000803e3d6000fd5b505050506040513d601f19601f820116820180604052508101906106329190611b96565b60015460208a015160808b015160405163022ea42160e21b815260048101929092526001600160a01b039081166024830152909116906308ba908490604401602060405180830381865afa15801561068e573d6000803e3d6000fd5b505050506040513d601f19601f820116820180604052508101906106b29190611bb9565b9190610e2d565b60408701526060860151602001516106d49085908790610ed8565b6106e3848c8860400151611016565b505050505095945050505050565b6006546004805460405163a723ad3b60e01b81526000936107a493606493919261079d92610798928992610792926001600160a01b03169163a723ad3b9161074a918e91016001600160a01b0391909116815260200190565b6020604051808303816000875af1158015610769573d6000803e3d6000fd5b505050506040513d601f19601f8201168201806040525081019061078d9190611bb9565b6111e3565b90611251565b61125d565b91906112af565b90505b92915050565b60008080805b8651811015610924576000806000806000600560009054906101000a90046001600160a01b03166001600160a01b031663382dfc3d8d88815181106107fa576107fa611bd2565b60200260200101516040518263ffffffff1660e01b815260040161082091815260200190565b6040805180830381865afa15801561083c573d6000803e3d6000fd5b505050506040513d601f19601f8201168201806040525081019061086091906119bc565b80955081965050506000849050806001600160a01b031663130676f6878e8e6040518463ffffffff1660e01b815260040161089d93929190611a59565b6060604051808303816000875af11580156108bc573d6000803e3d6000fd5b505050506040513d601f19601f820116820180604052508101906108e09190611be8565b919550935091506108f18480611251565b93506108fd8984611251565b9850610909888361135e565b9750505050505050808061091c90611c2c565b9150506107b3565b5060008061093189610987565b600754919350915060009061094b90606461079d8661136a565b905061097a6040518060400160405280600c81526020016b4c697169646174696f6e212160a01b81525061137b565b5050505094509492505050565b6000806000600560009054906101000a90046001600160a01b03166001600160a01b031663d66078376040518163ffffffff1660e01b8152600401600060405180830381865afa1580156109df573d6000803e3d6000fd5b505050506040513d6000823e601f3d908101601f19168201604052610a079190810190611c45565b90506000600560009054906101000a90046001600160a01b03166001600160a01b031663ed2ed5446040518163ffffffff1660e01b81526004016000604051808303816000875af1158015610a60573d6000803e3d6000fd5b505050506040513d6000823e601f3d908101601f19168201604052610a889190810190611ccb565b6040516390b2f8f560e01b815290915085906001600160a01b038216906390b2f8f590610ab9908690600401611d5a565b602060405180830381865afa158015610ad6573d6000803e3d6000fd5b505050506040513d601f19601f82011682018060405250810190610afa9190611bb9565b825190955060005b81811015610bb8576000848281518110610b1e57610b1e611bd2565b602090810291909101015160405163a773deb960e01b81526001600160a01b038b811660048301529091169063a773deb9906024016020604051808303816000875af1158015610b72573d6000803e3d6000fd5b505050506040513d601f19601f82011682018060405250810190610b969190611bb9565b9050610ba28782611251565b9650508080610bb090611c2c565b915050610b02565b5050505050915091565b600654600480546040516330b8f93f60e21b81526001600160a01b0387811693820193909352600093610c5d93606493919261079d92610798928a926107929261078d928c9291169063c2e3e4fc906024016020604051808303816000875af1158015610c33573d6000803e3d6000fd5b505050506040513d601f19601f82011682018060405250810190610c579190611bb9565b906113c1565b90505b9392505050565b60055460405163382dfc3d60e01b81526004810185905260009182918791839182916001600160a01b03169063382dfc3d906024016040805180830381865afa158015610cb8573d6000803e3d6000fd5b505050506040513d601f19601f82011682018060405250810190610cdc91906119bc565b604080516080810182526000808252602082018190528183018190526060820152905163288277d560e11b815292945090925082916001600160a01b03831690635104efaa90610d349087908d908d90600401611a59565b60a0604051808303816000875af1158015610d53573d6000803e3d6000fd5b505050506040513d601f19601f82011682018060405250810190610d779190611b0a565b509b959a509498505050505050505050565b6000806000610d9784610987565b6007549193509150600090610db190606461079d8661136a565b90506000821215610e2257610dc58261136a565b811115610e065760405162461bcd60e51b8152600401610dfd906020808252600490820152632634b89d60e11b604082015260600190565b60405180910390fd5b610e19610e12826111e3565b8390611251565b95945050505050565b506000949350505050565b60008160ff168360ff1603610e43575082610c60565b8160ff168360ff161015610e7757610e70610e5e8484611d9e565b610e6990600a611e9b565b85906113cd565b9050610c60565b6000610e838385611d9e565b610e8e90600a611e9b565b905060008086128015610eb3575081610ea687611eaa565b610eb09190611edc565b15155b15610ebd57506000195b6000610ecd8261079289866113d9565b979650505050505050565b610eea610ee58383611251565b61136a565b600254604080516338d52e0f60e01b81529051610fc3926001600160a01b0316916338d52e0f9160048083019260209291908290030181865afa158015610f35573d6000803e3d6000fd5b505050506040513d601f19601f82011682018060405250810190610f5991906119f6565b6001600160a01b031663313ce5676040518163ffffffff1660e01b8152600401602060405180830381865afa158015610f96573d6000803e3d6000fd5b505050506040513d601f19601f82011682018060405250810190610fba9190611b96565b859060126113e5565b10156110115760405162461bcd60e51b815260206004820152601a60248201527f4578747261206c65766572616765206e6f7420616c6c6f7765640000000000006044820152606401610dfd565b505050565b6110436040518060400160405280600b81526020016a313abcb4b733a837bbb2b960a91b8152508461144b565b61107a604051806040016040528060168152602001756d617267696e44656c7461446f6c6c617256616c756560501b81525061137b565b61108381611494565b6110c16040518060400160405280602081526020017f6d617267696e4163632e746f74616c4d617267696e496e4d61726b657473282981525061137b565b61112b826001600160a01b031663ca96a6a76040518163ffffffff1660e01b8152600401602060405180830381865afa158015611102573d6000803e3d6000fd5b505050506040513d601f19601f820116820180604052508101906111269190611bb9565b611494565b611194610ee582846001600160a01b031663ca96a6a76040518163ffffffff1660e01b8152600401602060405180830381865afa158015611170573d6000803e3d6000fd5b505050506040513d601f19601f820116820180604052508101906107929190611bb9565b8310156110115760405162461bcd60e51b815260206004820152601a60248201527f4578747261205472616e73666572206e6f7420616c6c6f7765640000000000006044820152606401610dfd565b60006001600160ff1b0382111561124d5760405162461bcd60e51b815260206004820152602860248201527f53616665436173743a2076616c756520646f65736e27742066697420696e2061604482015267371034b73a191a9b60c11b6064820152608401610dfd565b5090565b60006107a48284611ef0565b60008082121561124d5760405162461bcd60e51b815260206004820181905260248201527f53616665436173743a2076616c7565206d75737420626520706f7369746976656044820152606401610dfd565b60008080600019858709858702925082811083820303915050806000036112e9578382816112df576112df611ec6565b0492505050610c60565b8084116112f557600080fd5b60008486880960026001871981018816978890046003810283188082028403028082028403028082028403028082028403028082028403029081029092039091026000889003889004909101858311909403939093029303949094049190911702949350505050565b60006107a48284611f18565b60008082121561124d575060000390565b6113be8160405160240161138f9190611f2b565b60408051601f198184030181529190526020810180516001600160e01b031663104c13eb60e21b1790526114d5565b50565b60006107a48284611f3e565b60006107a48284611f51565b60006107a48284611f81565b60008160ff168360ff16036113fb575082610c60565b8160ff168360ff161161142c576114276114158484611d9e565b61142090600a611e9b565b85906114f6565b610c5d565b610c5d6114398385611d9e565b61144490600a611e9b565b8590611502565b6114908282604051602401611461929190611faf565b60408051601f198184030181529190526020810180516001600160e01b0316632d839cb360e21b1790526114d5565b5050565b6113be816040516024016114aa91815260200190565b60408051601f198184030181529190526020810180516001600160e01b0316632d5b6cb960e01b1790525b80516a636f6e736f6c652e6c6f67602083016000808483855afa5050505050565b60006107a48284611fd1565b60006107a48284611fe8565b6040518060a0016040528060006001600160a01b03168152602001600081526020016000815260200161156b604051806080016040528060006001600160a01b031681526020016000815260200160008152602001600081525090565b8152600060209091015290565b6001600160a01b03811681146113be57600080fd5b634e487b7160e01b600052604160045260246000fd5b604051601f8201601f1916810167ffffffffffffffff811182821017156115cc576115cc61158d565b604052919050565b600067ffffffffffffffff8211156115ee576115ee61158d565b5060051b60200190565b600082601f83011261160957600080fd5b8135602061161e611619836115d4565b6115a3565b82815260059290921b8401810191818101908684111561163d57600080fd5b8286015b8481101561166157803561165481611578565b8352918301918301611641565b509695505050505050565b6000601f838184011261167e57600080fd5b8235602061168e611619836115d4565b82815260059290921b850181019181810190878411156116ad57600080fd5b8287015b8481101561174457803567ffffffffffffffff808211156116d25760008081fd5b818a0191508a603f8301126116e75760008081fd5b858201356040828211156116fd576116fd61158d565b61170e828b01601f191689016115a3565b92508183528c818386010111156117255760008081fd5b81818501898501375060009082018701528452509183019183016116b1565b50979650505050505050565b600080600080600060a0868803121561176857600080fd5b853561177381611578565b945060208601359350604086013567ffffffffffffffff8082111561179757600080fd5b6117a389838a016115f8565b945060608801359150808211156117b957600080fd5b506117c68882890161166c565b95989497509295608001359392505050565b6000602082840312156117ea57600080fd5b8135610c6081611578565b6000806040838503121561180857600080fd5b823561181381611578565b946020939093013593505050565b6000806000806080858703121561183757600080fd5b843561184281611578565b935060208581013567ffffffffffffffff8082111561186057600080fd5b818801915088601f83011261187457600080fd5b8135611882611619826115d4565b81815260059190911b8301840190848101908b8311156118a157600080fd5b938501935b828510156118bf578435825293850193908501906118a6565b9750505060408801359250808311156118d757600080fd5b6118e389848a016115f8565b945060608801359250808311156118f957600080fd5b50506119078782880161166c565b91505092959194509250565b60008060006060848603121561192857600080fd5b833561193381611578565b95602085013595506040909401359392505050565b6000806000806080858703121561195e57600080fd5b843561196981611578565b935060208501359250604085013567ffffffffffffffff8082111561198d57600080fd5b611999888389016115f8565b935060608701359150808211156119af57600080fd5b506119078782880161166c565b600080604083850312156119cf57600080fd5b82516119da81611578565b60208401519092506119eb81611578565b809150509250929050565b600060208284031215611a0857600080fd5b8151610c6081611578565b6000815180845260005b81811015611a3957602081850181015186830182015201611a1d565b506000602082860101526020601f19601f83011685010191505092915050565b6001600160a01b038481168252606060208084018290528551918401829052600092868201929091906080860190855b81811015611aa7578551851683529483019491830191600101611a89565b50508581036040870152865180825282820194509250600583901b8101820182880160005b85811015611afa57601f19848403018752611ae8838351611a13565b96850196925090840190600101611acc565b50909a9950505050505050505050565b60008082840360a0811215611b1e57600080fd5b835192506080601f1982011215611b3457600080fd5b506040516080810181811067ffffffffffffffff82111715611b5857611b5861158d565b6040526020840151611b6981611578565b80825250604084015160208201526060840151604082015260808401516060820152809150509250929050565b600060208284031215611ba857600080fd5b815160ff81168114610c6057600080fd5b600060208284031215611bcb57600080fd5b5051919050565b634e487b7160e01b600052603260045260246000fd5b600080600060608486031215611bfd57600080fd5b8351925060208401519150604084015190509250925092565b634e487b7160e01b600052601160045260246000fd5b600060018201611c3e57611c3e611c16565b5060010190565b60006020808385031215611c5857600080fd5b825167ffffffffffffffff811115611c6f57600080fd5b8301601f81018513611c8057600080fd5b8051611c8e611619826115d4565b81815260059190911b82018301908381019087831115611cad57600080fd5b928401925b82841015610ecd57835182529284019290840190611cb2565b60006020808385031215611cde57600080fd5b825167ffffffffffffffff811115611cf557600080fd5b8301601f81018513611d0657600080fd5b8051611d14611619826115d4565b81815260059190911b82018301908381019087831115611d3357600080fd5b928401925b82841015610ecd578351611d4b81611578565b82529284019290840190611d38565b6020808252825182820181905260009190848201906040850190845b81811015611d9257835183529284019291840191600101611d76565b50909695505050505050565b60ff82811682821603908111156107a7576107a7611c16565b600181815b80851115611df2578160001904821115611dd857611dd8611c16565b80851615611de557918102915b93841c9390800290611dbc565b509250929050565b600082611e09575060016107a7565b81611e16575060006107a7565b8160018114611e2c5760028114611e3657611e52565b60019150506107a7565b60ff841115611e4757611e47611c16565b50506001821b6107a7565b5060208310610133831016604e8410600b8410161715611e75575081810a6107a7565b611e7f8383611db7565b8060001904821115611e9357611e93611c16565b029392505050565b60006107a460ff841683611dfa565b6000600160ff1b8201611ebf57611ebf611c16565b5060000390565b634e487b7160e01b600052601260045260246000fd5b600082611eeb57611eeb611ec6565b500690565b8082018281126000831280158216821582161715611f1057611f10611c16565b505092915050565b808201808211156107a7576107a7611c16565b6020815260006107a46020830184611a13565b818103818111156107a7576107a7611c16565b80820260008212600160ff1b84141615611f6d57611f6d611c16565b81810583148215176107a7576107a7611c16565b600082611f9057611f90611ec6565b600160ff1b821460001984141615611faa57611faa611c16565b500590565b604081526000611fc26040830185611a13565b90508260208301529392505050565b80820281158282048414176107a7576107a7611c16565b600082611ff757611ff7611ec6565b50049056fea264697066735822122078e0c3deab0cbc2b08a8f6609b4c1a42bc22491efc2706e155f8bdd1c428ba0464736f6c63430008110033",
    "linkReferences": {}
  },
  "methodIdentifiers": {
    "GetCurrentBuyingPower(address,int256,uint256)": "ae113839",
    "TotalLeverage()": "c3e7a76d",
    "TotalPositionValue()": "3ebd064e",
    "closeTrade(address,bytes32,address[],bytes[])": "e650e5df",
    "collateralManager()": "23be345c",
    "contractRegistery()": "31745e0a",
    "getBuyingPower(address,int256)": "5a5ee388",
    "getPositionsValPnL(address)": "9ddefa2b",
    "initialMarginFactor()": "bd8ad407",
    "isliquidatable(address,bytes32[],address[],bytes[])": "7e748f8c",
    "liquidatable(address)": "ffec70af",
    "maintanaceMarginFactor()": "d3ad790d",
    "marketManager()": "41ed2c12",
    "priceOracle()": "2630c12f",
    "setCollateralManager(address)": "842a05d4",
    "setPriceOracle(address)": "530e784f",
    "setVault(address)": "6817031b",
    "vault()": "fbfa77cf",
    "verifyTrade(address,bytes32,address[],bytes[],uint256)": "4f82d618"
  },
  "id": 34
}