{
  "abi": [
    {
      "inputs": [
        {
          "internalType": "contract IContractRegistry",
          "name": "_contractRegistery",
          "type": "address"
        },
        {
          "internalType": "contract IMarketManager",
          "name": "_marketManager",
          "type": "address"
        }
      ],
      "stateMutability": "nonpayable",
      "type": "constructor"
    },
    {
      "inputs": [
        {
          "internalType": "address",
          "name": "marginAccount",
          "type": "address"
        },
        {
          "internalType": "int256",
          "name": "PnL",
          "type": "int256"
        },
        {
          "internalType": "uint256",
          "name": "interestAccrued",
          "type": "uint256"
        }
      ],
      "name": "GetCurrentBuyingPower",
      "outputs": [
        {
          "internalType": "uint256",
          "name": "buyPow",
          "type": "uint256"
        }
      ],
      "stateMutability": "nonpayable",
      "type": "function"
    },
    {
      "inputs": [],
      "name": "TotalLeverage",
      "outputs": [],
      "stateMutability": "nonpayable",
      "type": "function"
    },
    {
      "inputs": [],
      "name": "TotalPositionValue",
      "outputs": [],
      "stateMutability": "nonpayable",
      "type": "function"
    },
    {
      "inputs": [
        {
          "internalType": "address",
          "name": "_marginAcc",
          "type": "address"
        },
        {
          "internalType": "bytes32",
          "name": "marketKey",
          "type": "bytes32"
        },
        {
          "internalType": "address[]",
          "name": "destinations",
          "type": "address[]"
        },
        {
          "internalType": "bytes[]",
          "name": "data",
          "type": "bytes[]"
        }
      ],
      "name": "closeTrade",
      "outputs": [
        {
          "internalType": "int256",
          "name": "marginDelta",
          "type": "int256"
        },
        {
          "internalType": "int256",
          "name": "positionSize",
          "type": "int256"
        }
      ],
      "stateMutability": "nonpayable",
      "type": "function"
    },
    {
      "inputs": [],
      "name": "collateralManager",
      "outputs": [
        {
          "internalType": "contract CollateralManager",
          "name": "",
          "type": "address"
        }
      ],
      "stateMutability": "view",
      "type": "function"
    },
    {
      "inputs": [],
      "name": "contractRegistery",
      "outputs": [
        {
          "internalType": "contract IContractRegistry",
          "name": "",
          "type": "address"
        }
      ],
      "stateMutability": "view",
      "type": "function"
    },
    {
      "inputs": [
        {
          "internalType": "address",
          "name": "_marginAcc",
          "type": "address"
        },
        {
          "internalType": "int256",
          "name": "PnL",
          "type": "int256"
        }
      ],
      "name": "getBuyingPower",
      "outputs": [
        {
          "internalType": "uint256",
          "name": "buyPow",
          "type": "uint256"
        }
      ],
      "stateMutability": "nonpayable",
      "type": "function"
    },
    {
      "inputs": [
        {
          "internalType": "address",
          "name": "marginAccount",
          "type": "address"
        }
      ],
      "name": "getPositionsValPnL",
      "outputs": [
        {
          "internalType": "int256",
          "name": "totalNotional",
          "type": "int256"
        },
        {
          "internalType": "int256",
          "name": "PnL",
          "type": "int256"
        }
      ],
      "stateMutability": "nonpayable",
      "type": "function"
    },
    {
      "inputs": [],
      "name": "initialMarginFactor",
      "outputs": [
        {
          "internalType": "uint256",
          "name": "",
          "type": "uint256"
        }
      ],
      "stateMutability": "view",
      "type": "function"
    },
    {
      "inputs": [
        {
          "internalType": "address",
          "name": "_marginAcc",
          "type": "address"
        },
        {
          "internalType": "bytes32[]",
          "name": "marketKeys",
          "type": "bytes32[]"
        },
        {
          "internalType": "address[]",
          "name": "destinations",
          "type": "address[]"
        },
        {
          "internalType": "bytes[]",
          "name": "data",
          "type": "bytes[]"
        }
      ],
      "name": "isliquidatable",
      "outputs": [
        {
          "internalType": "int256",
          "name": "marginDelta",
          "type": "int256"
        },
        {
          "internalType": "int256",
          "name": "positionSize",
          "type": "int256"
        }
      ],
      "stateMutability": "nonpayable",
      "type": "function"
    },
    {
      "inputs": [
        {
          "internalType": "address",
          "name": "_marginAcc",
          "type": "address"
        }
      ],
      "name": "liquidatable",
      "outputs": [
        {
          "internalType": "int256",
          "name": "diff",
          "type": "int256"
        }
      ],
      "stateMutability": "nonpayable",
      "type": "function"
    },
    {
      "inputs": [],
      "name": "maintanaceMarginFactor",
      "outputs": [
        {
          "internalType": "uint256",
          "name": "",
          "type": "uint256"
        }
      ],
      "stateMutability": "view",
      "type": "function"
    },
    {
      "inputs": [],
      "name": "marketManager",
      "outputs": [
        {
          "internalType": "contract IMarketManager",
          "name": "",
          "type": "address"
        }
      ],
      "stateMutability": "view",
      "type": "function"
    },
    {
      "inputs": [],
      "name": "priceOracle",
      "outputs": [
        {
          "internalType": "contract IPriceOracle",
          "name": "",
          "type": "address"
        }
      ],
      "stateMutability": "view",
      "type": "function"
    },
    {
      "inputs": [
        {
          "internalType": "address",
          "name": "_collateralManager",
          "type": "address"
        }
      ],
      "name": "setCollateralManager",
      "outputs": [],
      "stateMutability": "nonpayable",
      "type": "function"
    },
    {
      "inputs": [
        {
          "internalType": "address",
          "name": "oracle",
          "type": "address"
        }
      ],
      "name": "setPriceOracle",
      "outputs": [],
      "stateMutability": "nonpayable",
      "type": "function"
    },
    {
      "inputs": [
        {
          "internalType": "address",
          "name": "_vault",
          "type": "address"
        }
      ],
      "name": "setVault",
      "outputs": [],
      "stateMutability": "nonpayable",
      "type": "function"
    },
    {
      "inputs": [],
      "name": "vault",
      "outputs": [
        {
          "internalType": "contract Vault",
          "name": "",
          "type": "address"
        }
      ],
      "stateMutability": "view",
      "type": "function"
    },
    {
      "inputs": [
        {
          "internalType": "address",
          "name": "marginAcc",
          "type": "address"
        },
        {
          "internalType": "bytes32",
          "name": "marketKey",
          "type": "bytes32"
        },
        {
          "internalType": "address[]",
          "name": "destinations",
          "type": "address[]"
        },
        {
          "internalType": "bytes[]",
          "name": "data",
          "type": "bytes[]"
        },
        {
          "internalType": "uint256",
          "name": "interestAccrued",
          "type": "uint256"
        }
      ],
      "name": "verifyTrade",
      "outputs": [
        {
          "components": [
            {
              "internalType": "address",
              "name": "protocolAddress",
              "type": "address"
            },
            {
              "internalType": "int256",
              "name": "marginDelta",
              "type": "int256"
            },
            {
              "internalType": "int256",
              "name": "marginDeltaDollarValue",
              "type": "int256"
            },
            {
              "components": [
                {
                  "internalType": "address",
                  "name": "protocol",
                  "type": "address"
                },
                {
                  "internalType": "int256",
                  "name": "openNotional",
                  "type": "int256"
                },
                {
                  "internalType": "int256",
                  "name": "size",
                  "type": "int256"
                }
              ],
              "internalType": "struct Position",
              "name": "position",
              "type": "tuple"
            },
            {
              "internalType": "address",
              "name": "tokenOut",
              "type": "address"
            }
          ],
          "internalType": "struct VerifyTradeResult",
          "name": "result",
          "type": "tuple"
        }
      ],
      "stateMutability": "nonpayable",
      "type": "function"
    }
  ],
  "bytecode": {
    "object": "0x6080604052601960065560146007553480156200001b57600080fd5b5060405162002107380380620021078339810160408190526200003e916200008e565b6001600055600380546001600160a01b039384166001600160a01b03199182161790915560058054929093169116179055620000cd565b6001600160a01b03811681146200008b57600080fd5b50565b60008060408385031215620000a257600080fd5b8251620000af8162000075565b6020840151909250620000c28162000075565b809150509250929050565b61202a80620000dd6000396000f3fe608060405234801561001057600080fd5b50600436106101215760003560e01c80637e748f8c116100ad578063c3e7a76d11610071578063c3e7a76d1461017c578063d3ad790d1461030a578063e650e5df14610313578063fbfa77cf14610326578063ffec70af1461033957600080fd5b80637e748f8c14610283578063842a05d4146102ab5780639ddefa2b146102db578063ae113839146102ee578063bd8ad4071461030157600080fd5b806341ed2c12116100f457806341ed2c121461017e5780634f82d61814610191578063530e784f146102025780635a5ee388146102325780636817031b1461025357600080fd5b806323be345c146101265780632630c12f1461015657806331745e0a146101695780633ebd064e1461017c575b600080fd5b600454610139906001600160a01b031681565b6040516001600160a01b0390911681526020015b60405180910390f35b600154610139906001600160a01b031681565b600354610139906001600160a01b031681565b005b600554610139906001600160a01b031681565b6101a461019f36600461174b565b61034c565b6040805182516001600160a01b03908116825260208085015181840152848401518385015260608086015180518416918501919091529081015160808085019190915293015160a083015291909201511660c082015260e00161014d565b61017c6102103660046117d3565b600180546001600160a01b0319166001600160a01b0392909216919091179055565b6102456102403660046117f0565b6106f4565b60405190815260200161014d565b61017c6102613660046117d3565b600280546001600160a01b0319166001600160a01b0392909216919091179055565b61029661029136600461181c565b6107b0565b6040805192835260208301919091520161014d565b61017c6102b93660046117d3565b600480546001600160a01b0319166001600160a01b0392909216919091179055565b6102966102e93660046117d3565b61098a565b6102456102fc36600461190e565b610bc5565b61024560065481565b61024560075481565b610296610321366004611943565b610c6a565b600254610139906001600160a01b031681565b6102456103473660046117d3565b610d8b565b610354611510565b60055460405163382dfc3d60e01b8152600481018790526000918291829182916001600160a01b039091169063382dfc3d906024016040805180830381865afa1580156103a5573d6000803e3d6000fd5b505050506040513d601f19601f820116820180604052508101906103c991906119b7565b6001600160a01b03918216875260408051634c566bd360e11b8152905191935083928316916398acd7a6916004808201926020929091908290030181865afa158015610419573d6000803e3d6000fd5b505050506040513d601f19601f8201168201806040525081019061043d91906119f1565b6001600160a01b031660808701526104548b61098a565b90955092506104648b8489610bc5565b865160405163288277d560e11b81529195506000916001600160a01b03841691635104efaa9161049b91908e908e90600401611a54565b60a0604051808303816000875af11580156104ba573d6000803e3d6000fd5b505050506040513d601f19601f820116820180604052508101906104de9190611b05565b896020018a606001829550839052838152505050506106bb87608001516001600160a01b031663313ce5676040518163ffffffff1660e01b8152600401602060405180830381865afa158015610538573d6000803e3d6000fd5b505050506040513d601f19601f8201168201806040525081019061055c9190611b8e565b600260009054906101000a90046001600160a01b03166001600160a01b03166338d52e0f6040518163ffffffff1660e01b8152600401602060405180830381865afa1580156105af573d6000803e3d6000fd5b505050506040513d601f19601f820116820180604052508101906105d391906119f1565b6001600160a01b031663313ce5676040518163ffffffff1660e01b8152600401602060405180830381865afa158015610610573d6000803e3d6000fd5b505050506040513d601f19601f820116820180604052508101906106349190611b8e565b60015460208b015160808c015160405163022ea42160e21b815260048101929092526001600160a01b039081166024830152909116906308ba908490604401602060405180830381865afa158015610690573d6000803e3d6000fd5b505050506040513d601f19601f820116820180604052508101906106b49190611bb1565b9190610e2f565b60408801526060870151602001516106d69086908890610eda565b6106e5858d8960400151611018565b50505050505095945050505050565b6006546004805460405163a723ad3b60e01b81526000936107a79360649391926107a09261079b928992610795926001600160a01b03169163a723ad3b9161074d918e91016001600160a01b0391909116815260200190565b6020604051808303816000875af115801561076c573d6000803e3d6000fd5b505050506040513d601f19601f820116820180604052508101906107909190611bb1565b6111e5565b90611253565b61125f565b91906112b1565b90505b92915050565b60008080805b8651811015610927576000806000806000600560009054906101000a90046001600160a01b03166001600160a01b031663382dfc3d8d88815181106107fd576107fd611bca565b60200260200101516040518263ffffffff1660e01b815260040161082391815260200190565b6040805180830381865afa15801561083f573d6000803e3d6000fd5b505050506040513d601f19601f8201168201806040525081019061086391906119b7565b80955081965050506000849050806001600160a01b031663130676f6878e8e6040518463ffffffff1660e01b81526004016108a093929190611a54565b6060604051808303816000875af11580156108bf573d6000803e3d6000fd5b505050506040513d601f19601f820116820180604052508101906108e39190611be0565b919550935091506108f48480611253565b93506109008984611253565b985061090c8883611360565b9750505050505050808061091f90611c24565b9150506107b6565b506000806109348961098a565b600754919350915060009061094e9060646107a08661136c565b905061097d6040518060400160405280600c81526020016b4c697169646174696f6e212160a01b81525061137d565b5050505094509492505050565b6000806000600560009054906101000a90046001600160a01b03166001600160a01b031663d66078376040518163ffffffff1660e01b8152600401600060405180830381865afa1580156109e2573d6000803e3d6000fd5b505050506040513d6000823e601f3d908101601f19168201604052610a0a9190810190611c3d565b90506000600560009054906101000a90046001600160a01b03166001600160a01b031663ed2ed5446040518163ffffffff1660e01b81526004016000604051808303816000875af1158015610a63573d6000803e3d6000fd5b505050506040513d6000823e601f3d908101601f19168201604052610a8b9190810190611cc3565b6040516390b2f8f560e01b815290915085906001600160a01b038216906390b2f8f590610abc908690600401611d52565b602060405180830381865afa158015610ad9573d6000803e3d6000fd5b505050506040513d601f19601f82011682018060405250810190610afd9190611bb1565b825190955060005b81811015610bbb576000848281518110610b2157610b21611bca565b602090810291909101015160405163a773deb960e01b81526001600160a01b038b811660048301529091169063a773deb9906024016020604051808303816000875af1158015610b75573d6000803e3d6000fd5b505050506040513d601f19601f82011682018060405250810190610b999190611bb1565b9050610ba58782611253565b9650508080610bb390611c24565b915050610b05565b5050505050915091565b600654600480546040516330b8f93f60e21b81526001600160a01b0387811693820193909352600093610c609360649391926107a09261079b928a9261079592610790928c9291169063c2e3e4fc906024016020604051808303816000875af1158015610c36573d6000803e3d6000fd5b505050506040513d601f19601f82011682018060405250810190610c5a9190611bb1565b906113c3565b90505b9392505050565b60055460405163382dfc3d60e01b81526004810185905260009182918791839182916001600160a01b03169063382dfc3d906024016040805180830381865afa158015610cbb573d6000803e3d6000fd5b505050506040513d601f19601f82011682018060405250810190610cdf91906119b7565b60408051606081018252600080825260208201819052918101829052929450909250829160405163288277d560e11b81526001600160a01b03841690635104efaa90610d339088908e908e90600401611a54565b60a0604051808303816000875af1158015610d52573d6000803e3d6000fd5b505050506040513d601f19601f82011682018060405250810190610d769190611b05565b50909d979c50969a5050505050505050505050565b6000806000610d998461098a565b6007549193509150600090610db39060646107a08661136c565b90506000821215610e2457610dc78261136c565b811115610e085760405162461bcd60e51b8152600401610dff906020808252600490820152632634b89d60e11b604082015260600190565b60405180910390fd5b610e1b610e14826111e5565b8390611253565b95945050505050565b506000949350505050565b60008160ff168360ff1603610e45575082610c63565b8160ff168360ff161015610e7957610e72610e608484611d96565b610e6b90600a611e93565b85906113cf565b9050610c63565b6000610e858385611d96565b610e9090600a611e93565b905060008086128015610eb5575081610ea887611ea2565b610eb29190611ed4565b15155b15610ebf57506000195b6000610ecf8261079589866113db565b979650505050505050565b610eec610ee78383611253565b61136c565b600254604080516338d52e0f60e01b81529051610fc5926001600160a01b0316916338d52e0f9160048083019260209291908290030181865afa158015610f37573d6000803e3d6000fd5b505050506040513d601f19601f82011682018060405250810190610f5b91906119f1565b6001600160a01b031663313ce5676040518163ffffffff1660e01b8152600401602060405180830381865afa158015610f98573d6000803e3d6000fd5b505050506040513d601f19601f82011682018060405250810190610fbc9190611b8e565b859060126113e7565b10156110135760405162461bcd60e51b815260206004820152601a60248201527f4578747261206c65766572616765206e6f7420616c6c6f7765640000000000006044820152606401610dff565b505050565b6110456040518060400160405280600b81526020016a313abcb4b733a837bbb2b960a91b8152508461144d565b61107c604051806040016040528060168152602001756d617267696e44656c7461446f6c6c617256616c756560501b81525061137d565b61108581611496565b6110c36040518060400160405280602081526020017f6d617267696e4163632e746f74616c4d617267696e496e4d61726b657473282981525061137d565b61112d826001600160a01b031663ca96a6a76040518163ffffffff1660e01b8152600401602060405180830381865afa158015611104573d6000803e3d6000fd5b505050506040513d601f19601f820116820180604052508101906111289190611bb1565b611496565b611196610ee782846001600160a01b031663ca96a6a76040518163ffffffff1660e01b8152600401602060405180830381865afa158015611172573d6000803e3d6000fd5b505050506040513d601f19601f820116820180604052508101906107959190611bb1565b8310156110135760405162461bcd60e51b815260206004820152601a60248201527f4578747261205472616e73666572206e6f7420616c6c6f7765640000000000006044820152606401610dff565b60006001600160ff1b0382111561124f5760405162461bcd60e51b815260206004820152602860248201527f53616665436173743a2076616c756520646f65736e27742066697420696e2061604482015267371034b73a191a9b60c11b6064820152608401610dff565b5090565b60006107a78284611ee8565b60008082121561124f5760405162461bcd60e51b815260206004820181905260248201527f53616665436173743a2076616c7565206d75737420626520706f7369746976656044820152606401610dff565b60008080600019858709858702925082811083820303915050806000036112eb578382816112e1576112e1611ebe565b0492505050610c63565b8084116112f757600080fd5b60008486880960026001871981018816978890046003810283188082028403028082028403028082028403028082028403028082028403029081029092039091026000889003889004909101858311909403939093029303949094049190911702949350505050565b60006107a78284611f10565b60008082121561124f575060000390565b6113c0816040516024016113919190611f23565b60408051601f198184030181529190526020810180516001600160e01b031663104c13eb60e21b1790526114d7565b50565b60006107a78284611f36565b60006107a78284611f49565b60006107a78284611f79565b60008160ff168360ff16036113fd575082610c63565b8160ff168360ff161161142e576114296114178484611d96565b61142290600a611e93565b85906114f8565b610c60565b610c6061143b8385611d96565b61144690600a611e93565b8590611504565b6114928282604051602401611463929190611fa7565b60408051601f198184030181529190526020810180516001600160e01b0316632d839cb360e21b1790526114d7565b5050565b6113c0816040516024016114ac91815260200190565b60408051601f198184030181529190526020810180516001600160e01b0316632d5b6cb960e01b1790525b80516a636f6e736f6c652e6c6f67602083016000808483855afa5050505050565b60006107a78284611fc9565b60006107a78284611fe0565b6040518060a0016040528060006001600160a01b031681526020016000815260200160008152602001611566604051806060016040528060006001600160a01b0316815260200160008152602001600081525090565b8152600060209091015290565b6001600160a01b03811681146113c057600080fd5b634e487b7160e01b600052604160045260246000fd5b604051601f8201601f1916810167ffffffffffffffff811182821017156115c7576115c7611588565b604052919050565b600067ffffffffffffffff8211156115e9576115e9611588565b5060051b60200190565b600082601f83011261160457600080fd5b81356020611619611614836115cf565b61159e565b82815260059290921b8401810191818101908684111561163857600080fd5b8286015b8481101561165c57803561164f81611573565b835291830191830161163c565b509695505050505050565b6000601f838184011261167957600080fd5b82356020611689611614836115cf565b82815260059290921b850181019181810190878411156116a857600080fd5b8287015b8481101561173f57803567ffffffffffffffff808211156116cd5760008081fd5b818a0191508a603f8301126116e25760008081fd5b858201356040828211156116f8576116f8611588565b611709828b01601f1916890161159e565b92508183528c818386010111156117205760008081fd5b81818501898501375060009082018701528452509183019183016116ac565b50979650505050505050565b600080600080600060a0868803121561176357600080fd5b853561176e81611573565b945060208601359350604086013567ffffffffffffffff8082111561179257600080fd5b61179e89838a016115f3565b945060608801359150808211156117b457600080fd5b506117c188828901611667565b95989497509295608001359392505050565b6000602082840312156117e557600080fd5b8135610c6381611573565b6000806040838503121561180357600080fd5b823561180e81611573565b946020939093013593505050565b6000806000806080858703121561183257600080fd5b843561183d81611573565b935060208581013567ffffffffffffffff8082111561185b57600080fd5b818801915088601f83011261186f57600080fd5b813561187d611614826115cf565b81815260059190911b8301840190848101908b83111561189c57600080fd5b938501935b828510156118ba578435825293850193908501906118a1565b9750505060408801359250808311156118d257600080fd5b6118de89848a016115f3565b945060608801359250808311156118f457600080fd5b505061190287828801611667565b91505092959194509250565b60008060006060848603121561192357600080fd5b833561192e81611573565b95602085013595506040909401359392505050565b6000806000806080858703121561195957600080fd5b843561196481611573565b935060208501359250604085013567ffffffffffffffff8082111561198857600080fd5b611994888389016115f3565b935060608701359150808211156119aa57600080fd5b5061190287828801611667565b600080604083850312156119ca57600080fd5b82516119d581611573565b60208401519092506119e681611573565b809150509250929050565b600060208284031215611a0357600080fd5b8151610c6381611573565b6000815180845260005b81811015611a3457602081850181015186830182015201611a18565b506000602082860101526020601f19601f83011685010191505092915050565b6001600160a01b038481168252606060208084018290528551918401829052600092868201929091906080860190855b81811015611aa2578551851683529483019491830191600101611a84565b50508581036040870152865180825282820194509250600583901b8101820182880160005b85811015611af557601f19848403018752611ae3838351611a0e565b96850196925090840190600101611ac7565b50909a9950505050505050505050565b600080600083850360a0811215611b1b57600080fd5b845193506060601f1982011215611b3157600080fd5b506040516060810181811067ffffffffffffffff82111715611b5557611b55611588565b6040526020850151611b6681611573565b8152604085810151602083015260608601519082015260809094015192959394509192915050565b600060208284031215611ba057600080fd5b815160ff81168114610c6357600080fd5b600060208284031215611bc357600080fd5b5051919050565b634e487b7160e01b600052603260045260246000fd5b600080600060608486031215611bf557600080fd5b8351925060208401519150604084015190509250925092565b634e487b7160e01b600052601160045260246000fd5b600060018201611c3657611c36611c0e565b5060010190565b60006020808385031215611c5057600080fd5b825167ffffffffffffffff811115611c6757600080fd5b8301601f81018513611c7857600080fd5b8051611c86611614826115cf565b81815260059190911b82018301908381019087831115611ca557600080fd5b928401925b82841015610ecf57835182529284019290840190611caa565b60006020808385031215611cd657600080fd5b825167ffffffffffffffff811115611ced57600080fd5b8301601f81018513611cfe57600080fd5b8051611d0c611614826115cf565b81815260059190911b82018301908381019087831115611d2b57600080fd5b928401925b82841015610ecf578351611d4381611573565b82529284019290840190611d30565b6020808252825182820181905260009190848201906040850190845b81811015611d8a57835183529284019291840191600101611d6e565b50909695505050505050565b60ff82811682821603908111156107aa576107aa611c0e565b600181815b80851115611dea578160001904821115611dd057611dd0611c0e565b80851615611ddd57918102915b93841c9390800290611db4565b509250929050565b600082611e01575060016107aa565b81611e0e575060006107aa565b8160018114611e245760028114611e2e57611e4a565b60019150506107aa565b60ff841115611e3f57611e3f611c0e565b50506001821b6107aa565b5060208310610133831016604e8410600b8410161715611e6d575081810a6107aa565b611e778383611daf565b8060001904821115611e8b57611e8b611c0e565b029392505050565b60006107a760ff841683611df2565b6000600160ff1b8201611eb757611eb7611c0e565b5060000390565b634e487b7160e01b600052601260045260246000fd5b600082611ee357611ee3611ebe565b500690565b8082018281126000831280158216821582161715611f0857611f08611c0e565b505092915050565b808201808211156107aa576107aa611c0e565b6020815260006107a76020830184611a0e565b818103818111156107aa576107aa611c0e565b80820260008212600160ff1b84141615611f6557611f65611c0e565b81810583148215176107aa576107aa611c0e565b600082611f8857611f88611ebe565b600160ff1b821460001984141615611fa257611fa2611c0e565b500590565b604081526000611fba6040830185611a0e565b90508260208301529392505050565b80820281158282048414176107aa576107aa611c0e565b600082611fef57611fef611ebe565b50049056fea2646970667358221220db2dbef5ec8662b27b883a38655eaaf7eb67bea0dc9955dd63c760c558d8ce8964736f6c63430008110033",
    "linkReferences": {}
  },
  "methodIdentifiers": {
    "GetCurrentBuyingPower(address,int256,uint256)": "ae113839",
    "TotalLeverage()": "c3e7a76d",
    "TotalPositionValue()": "3ebd064e",
    "closeTrade(address,bytes32,address[],bytes[])": "e650e5df",
    "collateralManager()": "23be345c",
    "contractRegistery()": "31745e0a",
    "getBuyingPower(address,int256)": "5a5ee388",
    "getPositionsValPnL(address)": "9ddefa2b",
    "initialMarginFactor()": "bd8ad407",
    "isliquidatable(address,bytes32[],address[],bytes[])": "7e748f8c",
    "liquidatable(address)": "ffec70af",
    "maintanaceMarginFactor()": "d3ad790d",
    "marketManager()": "41ed2c12",
    "priceOracle()": "2630c12f",
    "setCollateralManager(address)": "842a05d4",
    "setPriceOracle(address)": "530e784f",
    "setVault(address)": "6817031b",
    "vault()": "fbfa77cf",
    "verifyTrade(address,bytes32,address[],bytes[],uint256)": "4f82d618"
  },
  "id": 31
}