{
  "abi": [
    {
      "inputs": [
        {
          "internalType": "contract IContractRegistry",
          "name": "_contractRegistery",
          "type": "address"
        },
        {
          "internalType": "contract IMarketManager",
          "name": "_marketManager",
          "type": "address"
        }
      ],
      "stateMutability": "nonpayable",
      "type": "constructor"
    },
    {
      "inputs": [
        {
          "internalType": "address",
          "name": "marginAccount",
          "type": "address"
        },
        {
          "internalType": "int256",
          "name": "PnL",
          "type": "int256"
        },
        {
          "internalType": "uint256",
          "name": "interestAccrued",
          "type": "uint256"
        }
      ],
      "name": "GetCurrentBuyingPower",
      "outputs": [
        {
          "internalType": "uint256",
          "name": "buyPow",
          "type": "uint256"
        }
      ],
      "stateMutability": "nonpayable",
      "type": "function"
    },
    {
      "inputs": [],
      "name": "TotalLeverage",
      "outputs": [],
      "stateMutability": "nonpayable",
      "type": "function"
    },
    {
      "inputs": [],
      "name": "TotalPositionValue",
      "outputs": [],
      "stateMutability": "nonpayable",
      "type": "function"
    },
    {
      "inputs": [
        {
          "internalType": "address",
          "name": "_marginAcc",
          "type": "address"
        },
        {
          "internalType": "bytes32",
          "name": "marketKey",
          "type": "bytes32"
        },
        {
          "internalType": "address[]",
          "name": "destinations",
          "type": "address[]"
        },
        {
          "internalType": "bytes[]",
          "name": "data",
          "type": "bytes[]"
        }
      ],
      "name": "closeTrade",
      "outputs": [
        {
          "internalType": "int256",
          "name": "marginDelta",
          "type": "int256"
        },
        {
          "internalType": "int256",
          "name": "positionSize",
          "type": "int256"
        }
      ],
      "stateMutability": "nonpayable",
      "type": "function"
    },
    {
      "inputs": [],
      "name": "collateralManager",
      "outputs": [
        {
          "internalType": "contract CollateralManager",
          "name": "",
          "type": "address"
        }
      ],
      "stateMutability": "view",
      "type": "function"
    },
    {
      "inputs": [],
      "name": "contractRegistery",
      "outputs": [
        {
          "internalType": "contract IContractRegistry",
          "name": "",
          "type": "address"
        }
      ],
      "stateMutability": "view",
      "type": "function"
    },
    {
      "inputs": [
        {
          "internalType": "address",
          "name": "_marginAcc",
          "type": "address"
        },
        {
          "internalType": "int256",
          "name": "PnL",
          "type": "int256"
        }
      ],
      "name": "getBuyingPower",
      "outputs": [
        {
          "internalType": "uint256",
          "name": "buyPow",
          "type": "uint256"
        }
      ],
      "stateMutability": "nonpayable",
      "type": "function"
    },
    {
      "inputs": [
        {
          "internalType": "address",
          "name": "marginAccount",
          "type": "address"
        }
      ],
      "name": "getPositionsValPnL",
      "outputs": [
        {
          "internalType": "int256",
          "name": "totalNotional",
          "type": "int256"
        },
        {
          "internalType": "int256",
          "name": "PnL",
          "type": "int256"
        }
      ],
      "stateMutability": "nonpayable",
      "type": "function"
    },
    {
      "inputs": [
        {
          "internalType": "address",
          "name": "marginAccount",
          "type": "address"
        }
      ],
      "name": "getUnsettledAccounting",
      "outputs": [],
      "stateMutability": "nonpayable",
      "type": "function"
    },
    {
      "inputs": [],
      "name": "initialMarginFactor",
      "outputs": [
        {
          "internalType": "uint256",
          "name": "",
          "type": "uint256"
        }
      ],
      "stateMutability": "view",
      "type": "function"
    },
    {
      "inputs": [
        {
          "internalType": "address",
          "name": "_marginAcc",
          "type": "address"
        },
        {
          "internalType": "bytes32[]",
          "name": "marketKeys",
          "type": "bytes32[]"
        },
        {
          "internalType": "address[]",
          "name": "destinations",
          "type": "address[]"
        },
        {
          "internalType": "bytes[]",
          "name": "data",
          "type": "bytes[]"
        }
      ],
      "name": "isliquidatable",
      "outputs": [
        {
          "internalType": "int256",
          "name": "marginDelta",
          "type": "int256"
        },
        {
          "internalType": "int256",
          "name": "positionSize",
          "type": "int256"
        }
      ],
      "stateMutability": "nonpayable",
      "type": "function"
    },
    {
      "inputs": [
        {
          "internalType": "address",
          "name": "_marginAcc",
          "type": "address"
        }
      ],
      "name": "liquidatable",
      "outputs": [
        {
          "internalType": "int256",
          "name": "diff",
          "type": "int256"
        }
      ],
      "stateMutability": "nonpayable",
      "type": "function"
    },
    {
      "inputs": [],
      "name": "maintanaceMarginFactor",
      "outputs": [
        {
          "internalType": "uint256",
          "name": "",
          "type": "uint256"
        }
      ],
      "stateMutability": "view",
      "type": "function"
    },
    {
      "inputs": [],
      "name": "marketManager",
      "outputs": [
        {
          "internalType": "contract IMarketManager",
          "name": "",
          "type": "address"
        }
      ],
      "stateMutability": "view",
      "type": "function"
    },
    {
      "inputs": [],
      "name": "priceOracle",
      "outputs": [
        {
          "internalType": "contract IPriceOracle",
          "name": "",
          "type": "address"
        }
      ],
      "stateMutability": "view",
      "type": "function"
    },
    {
      "inputs": [
        {
          "internalType": "address",
          "name": "_collateralManager",
          "type": "address"
        }
      ],
      "name": "setCollateralManager",
      "outputs": [],
      "stateMutability": "nonpayable",
      "type": "function"
    },
    {
      "inputs": [
        {
          "internalType": "address",
          "name": "oracle",
          "type": "address"
        }
      ],
      "name": "setPriceOracle",
      "outputs": [],
      "stateMutability": "nonpayable",
      "type": "function"
    },
    {
      "inputs": [
        {
          "internalType": "address",
          "name": "_vault",
          "type": "address"
        }
      ],
      "name": "setVault",
      "outputs": [],
      "stateMutability": "nonpayable",
      "type": "function"
    },
    {
      "inputs": [
        {
          "internalType": "address",
          "name": "marginAccount",
          "type": "address"
        }
      ],
      "name": "settleRealizedAccounting",
      "outputs": [],
      "stateMutability": "nonpayable",
      "type": "function"
    },
    {
      "inputs": [],
      "name": "vault",
      "outputs": [
        {
          "internalType": "contract Vault",
          "name": "",
          "type": "address"
        }
      ],
      "stateMutability": "view",
      "type": "function"
    },
    {
      "inputs": [
        {
          "internalType": "address",
          "name": "marginAcc",
          "type": "address"
        },
        {
          "internalType": "bytes32",
          "name": "marketKey",
          "type": "bytes32"
        },
        {
          "internalType": "address[]",
          "name": "destinations",
          "type": "address[]"
        },
        {
          "internalType": "bytes[]",
          "name": "data",
          "type": "bytes[]"
        },
        {
          "internalType": "uint256",
          "name": "interestAccrued",
          "type": "uint256"
        }
      ],
      "name": "verifyTrade",
      "outputs": [
        {
          "components": [
            {
              "internalType": "address",
              "name": "protocolAddress",
              "type": "address"
            },
            {
              "internalType": "int256",
              "name": "marginDelta",
              "type": "int256"
            },
            {
              "internalType": "int256",
              "name": "marginDeltaDollarValue",
              "type": "int256"
            },
            {
              "components": [
                {
                  "internalType": "address",
                  "name": "protocol",
                  "type": "address"
                },
                {
                  "internalType": "int256",
                  "name": "openNotional",
                  "type": "int256"
                },
                {
                  "internalType": "int256",
                  "name": "size",
                  "type": "int256"
                },
                {
                  "internalType": "uint256",
                  "name": "fee",
                  "type": "uint256"
                }
              ],
              "internalType": "struct Position",
              "name": "position",
              "type": "tuple"
            },
            {
              "internalType": "address",
              "name": "tokenOut",
              "type": "address"
            }
          ],
          "internalType": "struct VerifyTradeResult",
          "name": "result",
          "type": "tuple"
        }
      ],
      "stateMutability": "nonpayable",
      "type": "function"
    }
  ],
  "bytecode": {
    "object": "0x6080604052601960065560146007553480156200001b57600080fd5b5060405162001f7238038062001f728339810160408190526200003e916200008e565b6001600055600380546001600160a01b039384166001600160a01b03199182161790915560058054929093169116179055620000cd565b6001600160a01b03811681146200008b57600080fd5b50565b60008060408385031215620000a257600080fd5b8251620000af8162000075565b6020840151909250620000c28162000075565b809150509250929050565b611e9580620000dd6000396000f3fe608060405234801561001057600080fd5b50600436106101375760003560e01c80637e748f8c116100b8578063bd8ad4071161007c578063bd8ad4071461032e578063c3e7a76d1461017d578063d3ad790d14610337578063e650e5df14610340578063fbfa77cf14610353578063ffec70af1461036657600080fd5b80637e748f8c146102b0578063842a05d4146102d85780639ddefa2b14610308578063ae1138391461031b578063bb4a976f1461016c57600080fd5b806341ed2c12116100ff57806341ed2c12146101a55780634f82d618146101b8578063530e784f1461022f5780635a5ee3881461025f5780636817031b1461028057600080fd5b806323be345c1461013c57806324d2343a1461016c5780632630c12f1461017f57806331745e0a146101925780633ebd064e1461017d575b600080fd5b60045461014f906001600160a01b031681565b6040516001600160a01b0390911681526020015b60405180910390f35b61017d61017a366004611412565b50565b005b60015461014f906001600160a01b031681565b60035461014f906001600160a01b031681565b60055461014f906001600160a01b031681565b6101cb6101c63660046115f2565b610379565b6040805182516001600160a01b0390811682526020808501518184015284840151838501526060808601518051841682860152918201516080808601919091529482015160a0850152015160c083015291909201511660e082015261010001610163565b61017d61023d366004611412565b600180546001600160a01b0319166001600160a01b0392909216919091179055565b61027261026d36600461167a565b610718565b604051908152602001610163565b61017d61028e366004611412565b600280546001600160a01b0319166001600160a01b0392909216919091179055565b6102c36102be3660046116a6565b6107d4565b60408051928352602083019190915201610163565b61017d6102e6366004611412565b600480546001600160a01b0319166001600160a01b0392909216919091179055565b6102c3610316366004611412565b6109ae565b610272610329366004611798565b610be9565b61027260065481565b61027260075481565b6102c361034e3660046117cd565b610c8e565b60025461014f906001600160a01b031681565b610272610374366004611412565b610db0565b610381611393565b60055460405163382dfc3d60e01b8152600481018790526000918291829182916001600160a01b039091169063382dfc3d906024016040805180830381865afa1580156103d2573d6000803e3d6000fd5b505050506040513d601f19601f820116820180604052508101906103f69190611841565b6001600160a01b03918216875260408051634c566bd360e11b8152905191935083928316916398acd7a6916004808201926020929091908290030181865afa158015610446573d6000803e3d6000fd5b505050506040513d601f19601f8201168201806040525081019061046a919061187b565b6001600160a01b031660808701526104818b6109ae565b90955092506104918b8489610be9565b865160405163288277d560e11b81529195506001600160a01b03831691635104efaa916104c4918d908d906004016118de565b60a0604051808303816000875af11580156104e3573d6000803e3d6000fd5b505050506040513d601f19601f82011682018060405250810190610507919061198f565b87602001886060018290528281525050506106e086608001516001600160a01b031663313ce5676040518163ffffffff1660e01b8152600401602060405180830381865afa15801561055d573d6000803e3d6000fd5b505050506040513d601f19601f820116820180604052508101906105819190611a1b565b600260009054906101000a90046001600160a01b03166001600160a01b03166338d52e0f6040518163ffffffff1660e01b8152600401602060405180830381865afa1580156105d4573d6000803e3d6000fd5b505050506040513d601f19601f820116820180604052508101906105f8919061187b565b6001600160a01b031663313ce5676040518163ffffffff1660e01b8152600401602060405180830381865afa158015610635573d6000803e3d6000fd5b505050506040513d601f19601f820116820180604052508101906106599190611a1b565b60015460208a015160808b015160405163022ea42160e21b815260048101929092526001600160a01b039081166024830152909116906308ba908490604401602060405180830381865afa1580156106b5573d6000803e3d6000fd5b505050506040513d601f19601f820116820180604052508101906106d99190611a3e565b9190610e54565b60408701526060860151602001516106fb9085908790610eff565b61070a848c886040015161103d565b505050505095945050505050565b6006546004805460405163a723ad3b60e01b81526000936107cb9360649391926107c4926107bf9289926107b9926001600160a01b03169163a723ad3b91610771918e91016001600160a01b0391909116815260200190565b6020604051808303816000875af1158015610790573d6000803e3d6000fd5b505050506040513d601f19601f820116820180604052508101906107b49190611a3e565b6110f5565b90611163565b61116f565b91906111c1565b90505b92915050565b60008080805b865181101561094b576000806000806000600560009054906101000a90046001600160a01b03166001600160a01b031663382dfc3d8d888151811061082157610821611a57565b60200260200101516040518263ffffffff1660e01b815260040161084791815260200190565b6040805180830381865afa158015610863573d6000803e3d6000fd5b505050506040513d601f19601f820116820180604052508101906108879190611841565b80955081965050506000849050806001600160a01b031663130676f6878e8e6040518463ffffffff1660e01b81526004016108c4939291906118de565b6060604051808303816000875af11580156108e3573d6000803e3d6000fd5b505050506040513d601f19601f820116820180604052508101906109079190611a6d565b919550935091506109188480611163565b93506109248984611163565b98506109308883611270565b9750505050505050808061094390611ab1565b9150506107da565b50600080610958896109ae565b60075491935091506000906109729060646107c48661127c565b90506109a16040518060400160405280600c81526020016b4c697169646174696f6e212160a01b81525061128d565b5050505094509492505050565b6000806000600560009054906101000a90046001600160a01b03166001600160a01b031663d66078376040518163ffffffff1660e01b8152600401600060405180830381865afa158015610a06573d6000803e3d6000fd5b505050506040513d6000823e601f3d908101601f19168201604052610a2e9190810190611aca565b90506000600560009054906101000a90046001600160a01b03166001600160a01b031663ed2ed5446040518163ffffffff1660e01b81526004016000604051808303816000875af1158015610a87573d6000803e3d6000fd5b505050506040513d6000823e601f3d908101601f19168201604052610aaf9190810190611b50565b6040516390b2f8f560e01b815290915085906001600160a01b038216906390b2f8f590610ae0908690600401611bdf565b602060405180830381865afa158015610afd573d6000803e3d6000fd5b505050506040513d601f19601f82011682018060405250810190610b219190611a3e565b825190955060005b81811015610bdf576000848281518110610b4557610b45611a57565b602090810291909101015160405163a773deb960e01b81526001600160a01b038b811660048301529091169063a773deb9906024016020604051808303816000875af1158015610b99573d6000803e3d6000fd5b505050506040513d601f19601f82011682018060405250810190610bbd9190611a3e565b9050610bc98782611163565b9650508080610bd790611ab1565b915050610b29565b5050505050915091565b600654600480546040516330b8f93f60e21b81526001600160a01b0387811693820193909352600093610c849360649391926107c4926107bf928a926107b9926107b4928c9291169063c2e3e4fc906024016020604051808303816000875af1158015610c5a573d6000803e3d6000fd5b505050506040513d601f19601f82011682018060405250810190610c7e9190611a3e565b906112d0565b90505b9392505050565b60055460405163382dfc3d60e01b81526004810185905260009182918791839182916001600160a01b03169063382dfc3d906024016040805180830381865afa158015610cdf573d6000803e3d6000fd5b505050506040513d601f19601f82011682018060405250810190610d039190611841565b604080516080810182526000808252602082018190528183018190526060820152905163288277d560e11b815292945090925082916001600160a01b03831690635104efaa90610d5b9087908d908d906004016118de565b60a0604051808303816000875af1158015610d7a573d6000803e3d6000fd5b505050506040513d601f19601f82011682018060405250810190610d9e919061198f565b509b959a509498505050505050505050565b6000806000610dbe846109ae565b6007549193509150600090610dd89060646107c48661127c565b90506000821215610e4957610dec8261127c565b811115610e2d5760405162461bcd60e51b8152600401610e24906020808252600490820152632634b89d60e11b604082015260600190565b60405180910390fd5b610e40610e39826110f5565b8390611163565b95945050505050565b506000949350505050565b60008160ff168360ff1603610e6a575082610c87565b8160ff168360ff161015610e9e57610e97610e858484611c23565b610e9090600a611d20565b85906112dc565b9050610c87565b6000610eaa8385611c23565b610eb590600a611d20565b905060008086128015610eda575081610ecd87611d2f565b610ed79190611d61565b15155b15610ee457506000195b6000610ef4826107b989866112e8565b979650505050505050565b610f11610f0c8383611163565b61127c565b600254604080516338d52e0f60e01b81529051610fea926001600160a01b0316916338d52e0f9160048083019260209291908290030181865afa158015610f5c573d6000803e3d6000fd5b505050506040513d601f19601f82011682018060405250810190610f80919061187b565b6001600160a01b031663313ce5676040518163ffffffff1660e01b8152600401602060405180830381865afa158015610fbd573d6000803e3d6000fd5b505050506040513d601f19601f82011682018060405250810190610fe19190611a1b565b859060126112f4565b10156110385760405162461bcd60e51b815260206004820152601a60248201527f4578747261206c65766572616765206e6f7420616c6c6f7765640000000000006044820152606401610e24565b505050565b6110a6610f0c82846001600160a01b031663ca96a6a76040518163ffffffff1660e01b8152600401602060405180830381865afa158015611082573d6000803e3d6000fd5b505050506040513d601f19601f820116820180604052508101906107b99190611a3e565b8310156110385760405162461bcd60e51b815260206004820152601a60248201527f4578747261205472616e73666572206e6f7420616c6c6f7765640000000000006044820152606401610e24565b60006001600160ff1b0382111561115f5760405162461bcd60e51b815260206004820152602860248201527f53616665436173743a2076616c756520646f65736e27742066697420696e2061604482015267371034b73a191a9b60c11b6064820152608401610e24565b5090565b60006107cb8284611d75565b60008082121561115f5760405162461bcd60e51b815260206004820181905260248201527f53616665436173743a2076616c7565206d75737420626520706f7369746976656044820152606401610e24565b60008080600019858709858702925082811083820303915050806000036111fb578382816111f1576111f1611d4b565b0492505050610c87565b80841161120757600080fd5b60008486880960026001871981018816978890046003810283188082028403028082028403028082028403028082028403028082028403029081029092039091026000889003889004909101858311909403939093029303949094049190911702949350505050565b60006107cb8284611d9d565b60008082121561115f575060000390565b61017a816040516024016112a19190611db0565b60408051601f198184030181529190526020810180516001600160e01b031663104c13eb60e21b17905261135a565b60006107cb8284611dc3565b60006107cb8284611dd6565b60006107cb8284611e06565b60008160ff168360ff160361130a575082610c87565b8160ff168360ff161161133b576113366113248484611c23565b61132f90600a611d20565b859061137b565b610c84565b610c846113488385611c23565b61135390600a611d20565b8590611387565b80516a636f6e736f6c652e6c6f67602083016000808483855afa5050505050565b60006107cb8284611e34565b60006107cb8284611e4b565b6040518060a0016040528060006001600160a01b0316815260200160008152602001600081526020016113f0604051806080016040528060006001600160a01b031681526020016000815260200160008152602001600081525090565b8152600060209091015290565b6001600160a01b038116811461017a57600080fd5b60006020828403121561142457600080fd5b8135610c87816113fd565b634e487b7160e01b600052604160045260246000fd5b604051601f8201601f1916810167ffffffffffffffff8111828210171561146e5761146e61142f565b604052919050565b600067ffffffffffffffff8211156114905761149061142f565b5060051b60200190565b600082601f8301126114ab57600080fd5b813560206114c06114bb83611476565b611445565b82815260059290921b840181019181810190868411156114df57600080fd5b8286015b848110156115035780356114f6816113fd565b83529183019183016114e3565b509695505050505050565b6000601f838184011261152057600080fd5b823560206115306114bb83611476565b82815260059290921b8501810191818101908784111561154f57600080fd5b8287015b848110156115e657803567ffffffffffffffff808211156115745760008081fd5b818a0191508a603f8301126115895760008081fd5b8582013560408282111561159f5761159f61142f565b6115b0828b01601f19168901611445565b92508183528c818386010111156115c75760008081fd5b8181850189850137506000908201870152845250918301918301611553565b50979650505050505050565b600080600080600060a0868803121561160a57600080fd5b8535611615816113fd565b945060208601359350604086013567ffffffffffffffff8082111561163957600080fd5b61164589838a0161149a565b9450606088013591508082111561165b57600080fd5b506116688882890161150e565b95989497509295608001359392505050565b6000806040838503121561168d57600080fd5b8235611698816113fd565b946020939093013593505050565b600080600080608085870312156116bc57600080fd5b84356116c7816113fd565b935060208581013567ffffffffffffffff808211156116e557600080fd5b818801915088601f8301126116f957600080fd5b81356117076114bb82611476565b81815260059190911b8301840190848101908b83111561172657600080fd5b938501935b828510156117445784358252938501939085019061172b565b97505050604088013592508083111561175c57600080fd5b61176889848a0161149a565b9450606088013592508083111561177e57600080fd5b505061178c8782880161150e565b91505092959194509250565b6000806000606084860312156117ad57600080fd5b83356117b8816113fd565b95602085013595506040909401359392505050565b600080600080608085870312156117e357600080fd5b84356117ee816113fd565b935060208501359250604085013567ffffffffffffffff8082111561181257600080fd5b61181e8883890161149a565b9350606087013591508082111561183457600080fd5b5061178c8782880161150e565b6000806040838503121561185457600080fd5b825161185f816113fd565b6020840151909250611870816113fd565b809150509250929050565b60006020828403121561188d57600080fd5b8151610c87816113fd565b6000815180845260005b818110156118be576020818501810151868301820152016118a2565b506000602082860101526020601f19601f83011685010191505092915050565b6001600160a01b038481168252606060208084018290528551918401829052600092868201929091906080860190855b8181101561192c57855185168352948301949183019160010161190e565b50508581036040870152865180825282820194509250600583901b8101820182880160005b8581101561197f57601f1984840301875261196d838351611898565b96850196925090840190600101611951565b50909a9950505050505050505050565b60008082840360a08112156119a357600080fd5b835192506080601f19820112156119b957600080fd5b506040516080810181811067ffffffffffffffff821117156119dd576119dd61142f565b60405260208401516119ee816113fd565b80825250604084015160208201526060840151604082015260808401516060820152809150509250929050565b600060208284031215611a2d57600080fd5b815160ff81168114610c8757600080fd5b600060208284031215611a5057600080fd5b5051919050565b634e487b7160e01b600052603260045260246000fd5b600080600060608486031215611a8257600080fd5b8351925060208401519150604084015190509250925092565b634e487b7160e01b600052601160045260246000fd5b600060018201611ac357611ac3611a9b565b5060010190565b60006020808385031215611add57600080fd5b825167ffffffffffffffff811115611af457600080fd5b8301601f81018513611b0557600080fd5b8051611b136114bb82611476565b81815260059190911b82018301908381019087831115611b3257600080fd5b928401925b82841015610ef457835182529284019290840190611b37565b60006020808385031215611b6357600080fd5b825167ffffffffffffffff811115611b7a57600080fd5b8301601f81018513611b8b57600080fd5b8051611b996114bb82611476565b81815260059190911b82018301908381019087831115611bb857600080fd5b928401925b82841015610ef4578351611bd0816113fd565b82529284019290840190611bbd565b6020808252825182820181905260009190848201906040850190845b81811015611c1757835183529284019291840191600101611bfb565b50909695505050505050565b60ff82811682821603908111156107ce576107ce611a9b565b600181815b80851115611c77578160001904821115611c5d57611c5d611a9b565b80851615611c6a57918102915b93841c9390800290611c41565b509250929050565b600082611c8e575060016107ce565b81611c9b575060006107ce565b8160018114611cb15760028114611cbb57611cd7565b60019150506107ce565b60ff841115611ccc57611ccc611a9b565b50506001821b6107ce565b5060208310610133831016604e8410600b8410161715611cfa575081810a6107ce565b611d048383611c3c565b8060001904821115611d1857611d18611a9b565b029392505050565b60006107cb60ff841683611c7f565b6000600160ff1b8201611d4457611d44611a9b565b5060000390565b634e487b7160e01b600052601260045260246000fd5b600082611d7057611d70611d4b565b500690565b8082018281126000831280158216821582161715611d9557611d95611a9b565b505092915050565b808201808211156107ce576107ce611a9b565b6020815260006107cb6020830184611898565b818103818111156107ce576107ce611a9b565b80820260008212600160ff1b84141615611df257611df2611a9b565b81810583148215176107ce576107ce611a9b565b600082611e1557611e15611d4b565b600160ff1b821460001984141615611e2f57611e2f611a9b565b500590565b80820281158282048414176107ce576107ce611a9b565b600082611e5a57611e5a611d4b565b50049056fea26469706673582212202118ad92cb5e313f0ad4c5ec08dcd3145d0c8de83cbe8ccfd9f032764500089a64736f6c63430008110033",
    "linkReferences": {}
  },
  "methodIdentifiers": {
    "GetCurrentBuyingPower(address,int256,uint256)": "ae113839",
    "TotalLeverage()": "c3e7a76d",
    "TotalPositionValue()": "3ebd064e",
    "closeTrade(address,bytes32,address[],bytes[])": "e650e5df",
    "collateralManager()": "23be345c",
    "contractRegistery()": "31745e0a",
    "getBuyingPower(address,int256)": "5a5ee388",
    "getPositionsValPnL(address)": "9ddefa2b",
    "getUnsettledAccounting(address)": "bb4a976f",
    "initialMarginFactor()": "bd8ad407",
    "isliquidatable(address,bytes32[],address[],bytes[])": "7e748f8c",
    "liquidatable(address)": "ffec70af",
    "maintanaceMarginFactor()": "d3ad790d",
    "marketManager()": "41ed2c12",
    "priceOracle()": "2630c12f",
    "setCollateralManager(address)": "842a05d4",
    "setPriceOracle(address)": "530e784f",
    "setVault(address)": "6817031b",
    "settleRealizedAccounting(address)": "24d2343a",
    "vault()": "fbfa77cf",
    "verifyTrade(address,bytes32,address[],bytes[],uint256)": "4f82d618"
  },
  "id": 34
}