{
  "abi": [
    {
      "inputs": [
        {
          "internalType": "contract IContractRegistry",
          "name": "_contractRegistery",
          "type": "address"
        },
        {
          "internalType": "contract IMarketManager",
          "name": "_marketManager",
          "type": "address"
        }
      ],
      "stateMutability": "nonpayable",
      "type": "constructor"
    },
    {
      "inputs": [
        {
          "internalType": "address",
          "name": "marginAccount",
          "type": "address"
        },
        {
          "internalType": "uint256",
          "name": "interestAccrued",
          "type": "uint256"
        }
      ],
      "name": "GetCurrentBuyingPower",
      "outputs": [
        {
          "internalType": "uint256",
          "name": "buyingPower",
          "type": "uint256"
        }
      ],
      "stateMutability": "nonpayable",
      "type": "function"
    },
    {
      "inputs": [],
      "name": "TotalLeverage",
      "outputs": [],
      "stateMutability": "nonpayable",
      "type": "function"
    },
    {
      "inputs": [],
      "name": "TotalPositionValue",
      "outputs": [],
      "stateMutability": "nonpayable",
      "type": "function"
    },
    {
      "inputs": [
        {
          "internalType": "address",
          "name": "marginAccount",
          "type": "address"
        },
        {
          "internalType": "bytes32",
          "name": "marketKey",
          "type": "bytes32"
        },
        {
          "internalType": "address[]",
          "name": "destinations",
          "type": "address[]"
        },
        {
          "internalType": "bytes[]",
          "name": "data",
          "type": "bytes[]"
        }
      ],
      "name": "closeTrade",
      "outputs": [
        {
          "internalType": "int256",
          "name": "marginDelta",
          "type": "int256"
        },
        {
          "internalType": "int256",
          "name": "positionSize",
          "type": "int256"
        }
      ],
      "stateMutability": "nonpayable",
      "type": "function"
    },
    {
      "inputs": [],
      "name": "collateralManager",
      "outputs": [
        {
          "internalType": "contract CollateralManager",
          "name": "",
          "type": "address"
        }
      ],
      "stateMutability": "view",
      "type": "function"
    },
    {
      "inputs": [],
      "name": "contractRegistery",
      "outputs": [
        {
          "internalType": "contract IContractRegistry",
          "name": "",
          "type": "address"
        }
      ],
      "stateMutability": "view",
      "type": "function"
    },
    {
      "inputs": [
        {
          "internalType": "address",
          "name": "marginAccount",
          "type": "address"
        }
      ],
      "name": "getRealizedPnL",
      "outputs": [
        {
          "internalType": "int256",
          "name": "totalRealizedPnL",
          "type": "int256"
        }
      ],
      "stateMutability": "nonpayable",
      "type": "function"
    },
    {
      "inputs": [
        {
          "internalType": "address",
          "name": "marginAccount",
          "type": "address"
        }
      ],
      "name": "getUnrealizedPnL",
      "outputs": [
        {
          "internalType": "int256",
          "name": "totalUnrealizedPnL",
          "type": "int256"
        }
      ],
      "stateMutability": "nonpayable",
      "type": "function"
    },
    {
      "inputs": [
        {
          "internalType": "address",
          "name": "marginAccount",
          "type": "address"
        }
      ],
      "name": "getUnsettledAccounting",
      "outputs": [],
      "stateMutability": "nonpayable",
      "type": "function"
    },
    {
      "inputs": [],
      "name": "initialMarginFactor",
      "outputs": [
        {
          "internalType": "uint256",
          "name": "",
          "type": "uint256"
        }
      ],
      "stateMutability": "view",
      "type": "function"
    },
    {
      "inputs": [
        {
          "internalType": "address",
          "name": "marginAccount",
          "type": "address"
        },
        {
          "internalType": "bytes32[]",
          "name": "marketKeys",
          "type": "bytes32[]"
        },
        {
          "internalType": "address[]",
          "name": "destinations",
          "type": "address[]"
        },
        {
          "internalType": "bytes[]",
          "name": "data",
          "type": "bytes[]"
        }
      ],
      "name": "isliquidatable",
      "outputs": [
        {
          "internalType": "int256",
          "name": "marginDelta",
          "type": "int256"
        },
        {
          "internalType": "int256",
          "name": "positionSize",
          "type": "int256"
        }
      ],
      "stateMutability": "nonpayable",
      "type": "function"
    },
    {
      "inputs": [
        {
          "internalType": "address",
          "name": "marginAccount",
          "type": "address"
        }
      ],
      "name": "liquidatable",
      "outputs": [
        {
          "internalType": "int256",
          "name": "diff",
          "type": "int256"
        }
      ],
      "stateMutability": "nonpayable",
      "type": "function"
    },
    {
      "inputs": [],
      "name": "maintanaceMarginFactor",
      "outputs": [
        {
          "internalType": "uint256",
          "name": "",
          "type": "uint256"
        }
      ],
      "stateMutability": "view",
      "type": "function"
    },
    {
      "inputs": [],
      "name": "marketManager",
      "outputs": [
        {
          "internalType": "contract IMarketManager",
          "name": "",
          "type": "address"
        }
      ],
      "stateMutability": "view",
      "type": "function"
    },
    {
      "inputs": [],
      "name": "priceOracle",
      "outputs": [
        {
          "internalType": "contract IPriceOracle",
          "name": "",
          "type": "address"
        }
      ],
      "stateMutability": "view",
      "type": "function"
    },
    {
      "inputs": [
        {
          "internalType": "address",
          "name": "_collateralManager",
          "type": "address"
        }
      ],
      "name": "setCollateralManager",
      "outputs": [],
      "stateMutability": "nonpayable",
      "type": "function"
    },
    {
      "inputs": [
        {
          "internalType": "address",
          "name": "oracle",
          "type": "address"
        }
      ],
      "name": "setPriceOracle",
      "outputs": [],
      "stateMutability": "nonpayable",
      "type": "function"
    },
    {
      "inputs": [
        {
          "internalType": "address",
          "name": "_vault",
          "type": "address"
        }
      ],
      "name": "setVault",
      "outputs": [],
      "stateMutability": "nonpayable",
      "type": "function"
    },
    {
      "inputs": [
        {
          "internalType": "address",
          "name": "marginAccount",
          "type": "address"
        }
      ],
      "name": "settleRealizedAccounting",
      "outputs": [],
      "stateMutability": "nonpayable",
      "type": "function"
    },
    {
      "inputs": [],
      "name": "vault",
      "outputs": [
        {
          "internalType": "contract Vault",
          "name": "",
          "type": "address"
        }
      ],
      "stateMutability": "view",
      "type": "function"
    },
    {
      "inputs": [
        {
          "internalType": "address",
          "name": "marginAccount",
          "type": "address"
        },
        {
          "internalType": "bytes32",
          "name": "marketKey",
          "type": "bytes32"
        },
        {
          "internalType": "address[]",
          "name": "destinations",
          "type": "address[]"
        },
        {
          "internalType": "bytes[]",
          "name": "data",
          "type": "bytes[]"
        },
        {
          "internalType": "uint256",
          "name": "interestAccrued",
          "type": "uint256"
        }
      ],
      "name": "verifyTrade",
      "outputs": [
        {
          "components": [
            {
              "internalType": "address",
              "name": "protocolAddress",
              "type": "address"
            },
            {
              "internalType": "int256",
              "name": "marginDelta",
              "type": "int256"
            },
            {
              "internalType": "int256",
              "name": "marginDeltaDollarValue",
              "type": "int256"
            },
            {
              "components": [
                {
                  "internalType": "address",
                  "name": "protocol",
                  "type": "address"
                },
                {
                  "internalType": "int256",
                  "name": "openNotional",
                  "type": "int256"
                },
                {
                  "internalType": "int256",
                  "name": "size",
                  "type": "int256"
                },
                {
                  "internalType": "uint256",
                  "name": "orderFee",
                  "type": "uint256"
                }
              ],
              "internalType": "struct Position",
              "name": "position",
              "type": "tuple"
            },
            {
              "internalType": "address",
              "name": "tokenOut",
              "type": "address"
            }
          ],
          "internalType": "struct VerifyTradeResult",
          "name": "result",
          "type": "tuple"
        }
      ],
      "stateMutability": "nonpayable",
      "type": "function"
    }
  ],
  "bytecode": {
    "object": "0x6080604052601960065560146007553480156200001b57600080fd5b5060405162003a0a38038062003a0a833981810160405281019062000041919062000196565b600160008190555081600360006101000a81548173ffffffffffffffffffffffffffffffffffffffff021916908373ffffffffffffffffffffffffffffffffffffffff16021790555080600560006101000a81548173ffffffffffffffffffffffffffffffffffffffff021916908373ffffffffffffffffffffffffffffffffffffffff1602179055505050620001dd565b600080fd5b600073ffffffffffffffffffffffffffffffffffffffff82169050919050565b60006200010582620000d8565b9050919050565b60006200011982620000f8565b9050919050565b6200012b816200010c565b81146200013757600080fd5b50565b6000815190506200014b8162000120565b92915050565b60006200015e82620000f8565b9050919050565b620001708162000151565b81146200017c57600080fd5b50565b600081519050620001908162000165565b92915050565b60008060408385031215620001b057620001af620000d3565b5b6000620001c0858286016200013a565b9250506020620001d3858286016200017f565b9150509250929050565b61381d80620001ed6000396000f3fe608060405234801561001057600080fd5b50600436106101375760003560e01c80636817031b116100b8578063c3e7a76d1161007c578063c3e7a76d14610329578063d3ad790d14610333578063e650e5df14610351578063e91fad7f14610382578063fbfa77cf146103b2578063ffec70af146103d057610137565b80636817031b146102865780637e748f8c146102a2578063842a05d4146102d3578063bb4a976f146102ef578063bd8ad4071461030b57610137565b80633ebd064e116100ff5780633ebd064e146101e257806341ed2c12146101ec5780634f82d6181461020a578063530e784f1461023a578063544305bf1461025657610137565b8063236394891461013c57806323be345c1461016c57806324d2343a1461018a5780632630c12f146101a657806331745e0a146101c4575b600080fd5b61015660048036038101906101519190611ed8565b610400565b6040516101639190611f27565b60405180910390f35b61017461057b565b6040516101819190611fa1565b60405180910390f35b6101a4600480360381019061019f9190611fbc565b6105a1565b005b6101ae6105a4565b6040516101bb919061200a565b60405180910390f35b6101cc6105ca565b6040516101d99190612046565b60405180910390f35b6101ea6105f0565b005b6101f46105f2565b6040516102019190612082565b60405180910390f35b610224600480360381019061021f91906123c2565b610618565b604051610231919061256a565b60405180910390f35b610254600480360381019061024f9190611fbc565b610aa4565b005b610270600480360381019061026b9190611fbc565b610ae8565b60405161027d9190612595565b60405180910390f35b6102a0600480360381019061029b9190611fbc565b610afa565b005b6102bc60048036038101906102b79190612673565b610b3e565b6040516102ca92919061272e565b60405180910390f35b6102ed60048036038101906102e89190611fbc565b610e95565b005b61030960048036038101906103049190611fbc565b610ed9565b005b610313610edc565b6040516103209190611f27565b60405180910390f35b610331610ee2565b005b61033b610ee4565b6040516103489190611f27565b60405180910390f35b61036b60048036038101906103669190612757565b610eea565b60405161037992919061272e565b60405180910390f35b61039c60048036038101906103979190611fbc565b61103b565b6040516103a99190612595565b60405180910390f35b6103ba611242565b6040516103c79190612817565b60405180910390f35b6103ea60048036038101906103e59190611fbc565b611268565b6040516103f79190612595565b60405180910390f35b6000610573606460065461056461055f8773ffffffffffffffffffffffffffffffffffffffff1663251b652c6040518163ffffffff1660e01b8152600401602060405180830381865afa15801561045b573d6000803e3d6000fd5b505050506040513d601f19601f8201168201806040525081019061047f919061285e565b61055161048b8a611439565b61054361053e8b600460009054906101000a900473ffffffffffffffffffffffffffffffffffffffff1673ffffffffffffffffffffffffffffffffffffffff1663c2e3e4fc8f6040518263ffffffff1660e01b81526004016104ed919061289a565b6020604051808303816000875af115801561050c573d6000803e3d6000fd5b505050506040513d601f19601f8201168201806040525081019061053091906128ca565b6115a590919063ffffffff16565b6115bb565b61162890919063ffffffff16565b61162890919063ffffffff16565b61163e565b61168b9092919063ffffffff16565b905092915050565b600460009054906101000a900473ffffffffffffffffffffffffffffffffffffffff1681565b50565b600160009054906101000a900473ffffffffffffffffffffffffffffffffffffffff1681565b600360009054906101000a900473ffffffffffffffffffffffffffffffffffffffff1681565b565b600560009054906101000a900473ffffffffffffffffffffffffffffffffffffffff1681565b610620611d91565b600080600560009054906101000a900473ffffffffffffffffffffffffffffffffffffffff1673ffffffffffffffffffffffffffffffffffffffff1663382dfc3d886040518263ffffffff1660e01b815260040161067e9190612906565b6040805180830381865afa15801561069a573d6000803e3d6000fd5b505050506040513d601f19601f820116820180604052508101906106be9190612936565b846000018193508273ffffffffffffffffffffffffffffffffffffffff1673ffffffffffffffffffffffffffffffffffffffff16815250505060008190508073ffffffffffffffffffffffffffffffffffffffff166398acd7a66040518163ffffffff1660e01b8152600401602060405180830381865afa158015610747573d6000803e3d6000fd5b505050506040513d601f19601f8201168201806040525081019061076b9190612976565b846080019073ffffffffffffffffffffffffffffffffffffffff16908173ffffffffffffffffffffffffffffffffffffffff16815250506107ac8986610400565b92508073ffffffffffffffffffffffffffffffffffffffff16635104efaa856000015189896040518463ffffffff1660e01b81526004016107ef93929190612b93565b60a0604051808303816000875af115801561080e573d6000803e3d6000fd5b505050506040513d601f19601f820116820180604052508101906108329190612c55565b8560200186606001829052828152505050610a6d846080015173ffffffffffffffffffffffffffffffffffffffff1663313ce5676040518163ffffffff1660e01b8152600401602060405180830381865afa158015610895573d6000803e3d6000fd5b505050506040513d601f19601f820116820180604052508101906108b99190612cce565b600260009054906101000a900473ffffffffffffffffffffffffffffffffffffffff1673ffffffffffffffffffffffffffffffffffffffff166338d52e0f6040518163ffffffff1660e01b8152600401602060405180830381865afa158015610926573d6000803e3d6000fd5b505050506040513d601f19601f8201168201806040525081019061094a9190612976565b73ffffffffffffffffffffffffffffffffffffffff1663313ce5676040518163ffffffff1660e01b8152600401602060405180830381865afa158015610994573d6000803e3d6000fd5b505050506040513d601f19601f820116820180604052508101906109b89190612cce565b600160009054906101000a900473ffffffffffffffffffffffffffffffffffffffff1673ffffffffffffffffffffffffffffffffffffffff166308ba9084886020015189608001516040518363ffffffff1660e01b8152600401610a1d929190612cfb565b602060405180830381865afa158015610a3a573d6000803e3d6000fd5b505050506040513d601f19601f82011682018060405250810190610a5e919061285e565b6117669092919063ffffffff16565b846040018181525050610a89898486606001516020015161185e565b610a98838a8660400151611aed565b50505095945050505050565b80600160006101000a81548173ffffffffffffffffffffffffffffffffffffffff021916908373ffffffffffffffffffffffffffffffffffffffff16021790555050565b6000610af382611439565b9050919050565b80600260006101000a81548173ffffffffffffffffffffffffffffffffffffffff021916908373ffffffffffffffffffffffffffffffffffffffff16021790555050565b600080600080600090505b8651811015610d00576000806000806000600560009054906101000a900473ffffffffffffffffffffffffffffffffffffffff1673ffffffffffffffffffffffffffffffffffffffff1663382dfc3d8d8881518110610bab57610baa612d24565b5b60200260200101516040518263ffffffff1660e01b8152600401610bcf9190612906565b6040805180830381865afa158015610beb573d6000803e3d6000fd5b505050506040513d601f19601f82011682018060405250810190610c0f9190612936565b809550819650505060008490508073ffffffffffffffffffffffffffffffffffffffff1663130676f6878e8e6040518463ffffffff1660e01b8152600401610c5993929190612b93565b6060604051808303816000875af1158015610c78573d6000803e3d6000fd5b505050506040513d601f19601f82011682018060405250810190610c9c9190612d53565b809450819550829650505050610cbb848b61162890919063ffffffff16565b9950610cd0838a61162890919063ffffffff16565b9850610ce58289611bbd90919063ffffffff16565b97505050505050508080610cf890612dd5565b915050610b49565b506000806000600560009054906101000a900473ffffffffffffffffffffffffffffffffffffffff1673ffffffffffffffffffffffffffffffffffffffff1663d66078376040518163ffffffff1660e01b8152600401600060405180830381865afa158015610d73573d6000803e3d6000fd5b505050506040513d6000823e3d601f19601f82011682018060405250810190610d9c9190612ec9565b90508973ffffffffffffffffffffffffffffffffffffffff166390b2f8f5826040518263ffffffff1660e01b8152600401610dd79190612fd0565b602060405180830381865afa158015610df4573d6000803e3d6000fd5b505050506040513d601f19601f82011682018060405250810190610e18919061285e565b9250610e238a611439565b91506000610e476007546064610e3887611bd3565b61168b9092919063ffffffff16565b9050610e876040518060400160405280600c81526020017f4c697169646174696f6e21210000000000000000000000000000000000000000815250611bef565b505050505094509492505050565b80600460006101000a81548173ffffffffffffffffffffffffffffffffffffffff021916908373ffffffffffffffffffffffffffffffffffffffff16021790555050565b50565b60065481565b565b60075481565b6000806000869050600080600560009054906101000a900473ffffffffffffffffffffffffffffffffffffffff1673ffffffffffffffffffffffffffffffffffffffff1663382dfc3d896040518263ffffffff1660e01b8152600401610f509190612906565b6040805180830381865afa158015610f6c573d6000803e3d6000fd5b505050506040513d601f19601f82011682018060405250810190610f909190612936565b80925081935050506000819050610fa5611df2565b8173ffffffffffffffffffffffffffffffffffffffff16635104efaa858b8b6040518463ffffffff1660e01b8152600401610fe293929190612b93565b60a0604051808303816000875af1158015611001573d6000803e3d6000fd5b505050506040513d601f19601f820116820180604052508101906110259190612c55565b8092508198505050505050505094509492505050565b600080600560009054906101000a900473ffffffffffffffffffffffffffffffffffffffff1673ffffffffffffffffffffffffffffffffffffffff1663d66078376040518163ffffffff1660e01b8152600401600060405180830381865afa1580156110ab573d6000803e3d6000fd5b505050506040513d6000823e3d601f19601f820116820180604052508101906110d49190612ec9565b90506000600560009054906101000a900473ffffffffffffffffffffffffffffffffffffffff1673ffffffffffffffffffffffffffffffffffffffff1663ed2ed5446040518163ffffffff1660e01b81526004016000604051808303816000875af1158015611147573d6000803e3d6000fd5b505050506040513d6000823e3d601f19601f820116820180604052508101906111709190613089565b905060005b815181101561123a57600082828151811061119357611192612d24565b5b602002602001015173ffffffffffffffffffffffffffffffffffffffff1663e91fad7f876040518263ffffffff1660e01b81526004016111d3919061289a565b6020604051808303816000875af11580156111f2573d6000803e3d6000fd5b505050506040513d601f19601f82011682018060405250810190611216919061285e565b9050808561122491906130d2565b945050808061123290612dd5565b915050611175565b505050919050565b600260009054906101000a900473ffffffffffffffffffffffffffffffffffffffff1681565b600080600080600560009054906101000a900473ffffffffffffffffffffffffffffffffffffffff1673ffffffffffffffffffffffffffffffffffffffff1663d66078376040518163ffffffff1660e01b8152600401600060405180830381865afa1580156112db573d6000803e3d6000fd5b505050506040513d6000823e3d601f19601f820116820180604052508101906113049190612ec9565b90508473ffffffffffffffffffffffffffffffffffffffff166390b2f8f5826040518263ffffffff1660e01b815260040161133f9190612fd0565b602060405180830381865afa15801561135c573d6000803e3d6000fd5b505050506040513d601f19601f82011682018060405250810190611380919061285e565b925061138b85611439565b915060006113af60075460646113a087611bd3565b61168b9092919063ffffffff16565b9050600083121561142b576113c383611bd3565b811115611405576040517f08c379a00000000000000000000000000000000000000000000000000000000081526004016113fc90613173565b60405180910390fd5b611420611411826115bb565b8461162890919063ffffffff16565b945050505050611434565b60009450505050505b919050565b600080600560009054906101000a900473ffffffffffffffffffffffffffffffffffffffff1673ffffffffffffffffffffffffffffffffffffffff1663ed2ed5446040518163ffffffff1660e01b81526004016000604051808303816000875af11580156114ab573d6000803e3d6000fd5b505050506040513d6000823e3d601f19601f820116820180604052508101906114d49190613089565b905060005b815181101561159e5760008282815181106114f7576114f6612d24565b5b602002602001015173ffffffffffffffffffffffffffffffffffffffff1663544305bf866040518263ffffffff1660e01b8152600401611537919061289a565b6020604051808303816000875af1158015611556573d6000803e3d6000fd5b505050506040513d601f19601f8201168201806040525081019061157a919061285e565b9050808461158891906130d2565b935050808061159690612dd5565b9150506114d9565b5050919050565b600081836115b39190613193565b905092915050565b60007f7fffffffffffffffffffffffffffffffffffffffffffffffffffffffffffffff821115611620576040517f08c379a000000000000000000000000000000000000000000000000000000000815260040161161790613239565b60405180910390fd5b819050919050565b6000818361163691906130d2565b905092915050565b600080821215611683576040517f08c379a000000000000000000000000000000000000000000000000000000000815260040161167a906132a5565b60405180910390fd5b819050919050565b60008060008019858709858702925082811083820303915050600081036116c6578382816116bc576116bb6132c5565b5b049250505061175f565b8084116116d257600080fd5b60008486880990508281118203915080830392506000600186190186169050808604955080840493506001818260000304019050808302841793506000600287600302189050808702600203810290508087026002038102905080870260020381029050808702600203810290508087026002038102905080870260020381029050808502955050505050505b9392505050565b60008160ff168360ff160361177d57839050611857565b8160ff168360ff1610156117bc576117b5838361179a91906132f4565b600a6117a6919061345c565b85611c8890919063ffffffff16565b9050611857565b600082846117ca91906132f4565b600a6117d6919061345c565b9050600080861280156117fe5750600082876117f1906134a7565b6117fb91906134ef565b14155b15611827577fffffffffffffffffffffffffffffffffffffffffffffffffffffffffffffffff90505b600061184e82611840858a611c9e90919063ffffffff16565b61162890919063ffffffff16565b90508093505050505b9392505050565b6000600560009054906101000a900473ffffffffffffffffffffffffffffffffffffffff1673ffffffffffffffffffffffffffffffffffffffff1663d66078376040518163ffffffff1660e01b8152600401600060405180830381865afa1580156118cd573d6000803e3d6000fd5b505050506040513d6000823e3d601f19601f820116820180604052508101906118f69190612ec9565b905060008473ffffffffffffffffffffffffffffffffffffffff166390b2f8f5836040518263ffffffff1660e01b81526004016119339190612fd0565b602060405180830381865afa158015611950573d6000803e3d6000fd5b505050506040513d601f19601f82011682018060405250810190611974919061285e565b905061199161198c848361162890919063ffffffff16565b611bd3565b611aa5600260009054906101000a900473ffffffffffffffffffffffffffffffffffffffff1673ffffffffffffffffffffffffffffffffffffffff166338d52e0f6040518163ffffffff1660e01b8152600401602060405180830381865afa158015611a01573d6000803e3d6000fd5b505050506040513d601f19601f82011682018060405250810190611a259190612976565b73ffffffffffffffffffffffffffffffffffffffff1663313ce5676040518163ffffffff1660e01b8152600401602060405180830381865afa158015611a6f573d6000803e3d6000fd5b505050506040513d601f19601f82011682018060405250810190611a939190612cce565b601287611cb49092919063ffffffff16565b1015611ae6576040517f08c379a0000000000000000000000000000000000000000000000000000000008152600401611add9061356c565b60405180910390fd5b5050505050565b611b76611b71828473ffffffffffffffffffffffffffffffffffffffff1663ca96a6a76040518163ffffffff1660e01b8152600401602060405180830381865afa158015611b3f573d6000803e3d6000fd5b505050506040513d601f19601f82011682018060405250810190611b63919061285e565b61162890919063ffffffff16565b611bd3565b831015611bb8576040517f08c379a0000000000000000000000000000000000000000000000000000000008152600401611baf906135d8565b60405180910390fd5b505050565b60008183611bcb91906135f8565b905092915050565b600080821215611be65781600003611be8565b815b9050919050565b611c8581604051602401611c039190613670565b6040516020818303038152906040527f41304fac000000000000000000000000000000000000000000000000000000007bffffffffffffffffffffffffffffffffffffffffffffffffffffffff19166020820180517bffffffffffffffffffffffffffffffffffffffffffffffffffffffff8381831617835250505050611d3c565b50565b60008183611c969190613692565b905092915050565b60008183611cac919061370a565b905092915050565b60008160ff168360ff1603611ccb57839050611d35565b8160ff168360ff1611611d0757611d028383611ce791906132f4565b600a611cf3919061345c565b85611d6590919063ffffffff16565b611d32565b611d318284611d1691906132f4565b600a611d22919061345c565b85611d7b90919063ffffffff16565b5b90505b9392505050565b60008151905060006a636f6e736f6c652e6c6f679050602083016000808483855afa5050505050565b60008183611d739190613774565b905092915050565b60008183611d8991906137b6565b905092915050565b6040518060a00160405280600073ffffffffffffffffffffffffffffffffffffffff1681526020016000815260200160008152602001611dcf611df2565b8152602001600073ffffffffffffffffffffffffffffffffffffffff1681525090565b6040518060800160405280600073ffffffffffffffffffffffffffffffffffffffff1681526020016000815260200160008152602001600081525090565b6000604051905090565b600080fd5b600080fd5b600073ffffffffffffffffffffffffffffffffffffffff82169050919050565b6000611e6f82611e44565b9050919050565b611e7f81611e64565b8114611e8a57600080fd5b50565b600081359050611e9c81611e76565b92915050565b6000819050919050565b611eb581611ea2565b8114611ec057600080fd5b50565b600081359050611ed281611eac565b92915050565b60008060408385031215611eef57611eee611e3a565b5b6000611efd85828601611e8d565b9250506020611f0e85828601611ec3565b9150509250929050565b611f2181611ea2565b82525050565b6000602082019050611f3c6000830184611f18565b92915050565b6000819050919050565b6000611f67611f62611f5d84611e44565b611f42565b611e44565b9050919050565b6000611f7982611f4c565b9050919050565b6000611f8b82611f6e565b9050919050565b611f9b81611f80565b82525050565b6000602082019050611fb66000830184611f92565b92915050565b600060208284031215611fd257611fd1611e3a565b5b6000611fe084828501611e8d565b91505092915050565b6000611ff482611f6e565b9050919050565b61200481611fe9565b82525050565b600060208201905061201f6000830184611ffb565b92915050565b600061203082611f6e565b9050919050565b61204081612025565b82525050565b600060208201905061205b6000830184612037565b92915050565b600061206c82611f6e565b9050919050565b61207c81612061565b82525050565b60006020820190506120976000830184612073565b92915050565b6000819050919050565b6120b08161209d565b81146120bb57600080fd5b50565b6000813590506120cd816120a7565b92915050565b600080fd5b6000601f19601f8301169050919050565b7f4e487b7100000000000000000000000000000000000000000000000000000000600052604160045260246000fd5b612121826120d8565b810181811067ffffffffffffffff821117156121405761213f6120e9565b5b80604052505050565b6000612153611e30565b905061215f8282612118565b919050565b600067ffffffffffffffff82111561217f5761217e6120e9565b5b602082029050602081019050919050565b600080fd5b60006121a86121a384612164565b612149565b905080838252602082019050602084028301858111156121cb576121ca612190565b5b835b818110156121f457806121e08882611e8d565b8452602084019350506020810190506121cd565b5050509392505050565b600082601f830112612213576122126120d3565b5b8135612223848260208601612195565b91505092915050565b600067ffffffffffffffff821115612247576122466120e9565b5b602082029050602081019050919050565b600080fd5b600067ffffffffffffffff821115612278576122776120e9565b5b612281826120d8565b9050602081019050919050565b82818337600083830152505050565b60006122b06122ab8461225d565b612149565b9050828152602081018484840111156122cc576122cb612258565b5b6122d784828561228e565b509392505050565b600082601f8301126122f4576122f36120d3565b5b813561230484826020860161229d565b91505092915050565b600061232061231b8461222c565b612149565b9050808382526020820190506020840283018581111561234357612342612190565b5b835b8181101561238a57803567ffffffffffffffff811115612368576123676120d3565b5b80860161237589826122df565b85526020850194505050602081019050612345565b5050509392505050565b600082601f8301126123a9576123a86120d3565b5b81356123b984826020860161230d565b91505092915050565b600080600080600060a086880312156123de576123dd611e3a565b5b60006123ec88828901611e8d565b95505060206123fd888289016120be565b945050604086013567ffffffffffffffff81111561241e5761241d611e3f565b5b61242a888289016121fe565b935050606086013567ffffffffffffffff81111561244b5761244a611e3f565b5b61245788828901612394565b925050608061246888828901611ec3565b9150509295509295909350565b61247e81611e64565b82525050565b6000819050919050565b61249781612484565b82525050565b6124a681611ea2565b82525050565b6080820160008201516124c26000850182612475565b5060208201516124d5602085018261248e565b5060408201516124e8604085018261248e565b5060608201516124fb606085018261249d565b50505050565b610100820160008201516125186000850182612475565b50602082015161252b602085018261248e565b50604082015161253e604085018261248e565b50606082015161255160608501826124ac565b50608082015161256460e0850182612475565b50505050565b6000610100820190506125806000830184612501565b92915050565b61258f81612484565b82525050565b60006020820190506125aa6000830184612586565b92915050565b600067ffffffffffffffff8211156125cb576125ca6120e9565b5b602082029050602081019050919050565b60006125ef6125ea846125b0565b612149565b9050808382526020820190506020840283018581111561261257612611612190565b5b835b8181101561263b578061262788826120be565b845260208401935050602081019050612614565b5050509392505050565b600082601f83011261265a576126596120d3565b5b813561266a8482602086016125dc565b91505092915050565b6000806000806080858703121561268d5761268c611e3a565b5b600061269b87828801611e8d565b945050602085013567ffffffffffffffff8111156126bc576126bb611e3f565b5b6126c887828801612645565b935050604085013567ffffffffffffffff8111156126e9576126e8611e3f565b5b6126f5878288016121fe565b925050606085013567ffffffffffffffff81111561271657612715611e3f565b5b61272287828801612394565b91505092959194509250565b60006040820190506127436000830185612586565b6127506020830184612586565b9392505050565b6000806000806080858703121561277157612770611e3a565b5b600061277f87828801611e8d565b9450506020612790878288016120be565b935050604085013567ffffffffffffffff8111156127b1576127b0611e3f565b5b6127bd878288016121fe565b925050606085013567ffffffffffffffff8111156127de576127dd611e3f565b5b6127ea87828801612394565b91505092959194509250565b600061280182611f6e565b9050919050565b612811816127f6565b82525050565b600060208201905061282c6000830184612808565b92915050565b61283b81612484565b811461284657600080fd5b50565b60008151905061285881612832565b92915050565b60006020828403121561287457612873611e3a565b5b600061288284828501612849565b91505092915050565b61289481611e64565b82525050565b60006020820190506128af600083018461288b565b92915050565b6000815190506128c481611eac565b92915050565b6000602082840312156128e0576128df611e3a565b5b60006128ee848285016128b5565b91505092915050565b6129008161209d565b82525050565b600060208201905061291b60008301846128f7565b92915050565b60008151905061293081611e76565b92915050565b6000806040838503121561294d5761294c611e3a565b5b600061295b85828601612921565b925050602061296c85828601612921565b9150509250929050565b60006020828403121561298c5761298b611e3a565b5b600061299a84828501612921565b91505092915050565b600081519050919050565b600082825260208201905092915050565b6000819050602082019050919050565b60006129db8383612475565b60208301905092915050565b6000602082019050919050565b60006129ff826129a3565b612a0981856129ae565b9350612a14836129bf565b8060005b83811015612a45578151612a2c88826129cf565b9750612a37836129e7565b925050600181019050612a18565b5085935050505092915050565b600081519050919050565b600082825260208201905092915050565b6000819050602082019050919050565b600081519050919050565b600082825260208201905092915050565b60005b83811015612ab8578082015181840152602081019050612a9d565b60008484015250505050565b6000612acf82612a7e565b612ad98185612a89565b9350612ae9818560208601612a9a565b612af2816120d8565b840191505092915050565b6000612b098383612ac4565b905092915050565b6000602082019050919050565b6000612b2982612a52565b612b338185612a5d565b935083602082028501612b4585612a6e565b8060005b85811015612b815784840389528151612b628582612afd565b9450612b6d83612b11565b925060208a01995050600181019050612b49565b50829750879550505050505092915050565b6000606082019050612ba8600083018661288b565b8181036020830152612bba81856129f4565b90508181036040830152612bce8184612b1e565b9050949350505050565b600080fd5b600060808284031215612bf357612bf2612bd8565b5b612bfd6080612149565b90506000612c0d84828501612921565b6000830152506020612c2184828501612849565b6020830152506040612c3584828501612849565b6040830152506060612c49848285016128b5565b60608301525092915050565b60008060a08385031215612c6c57612c6b611e3a565b5b6000612c7a85828601612849565b9250506020612c8b85828601612bdd565b9150509250929050565b600060ff82169050919050565b612cab81612c95565b8114612cb657600080fd5b50565b600081519050612cc881612ca2565b92915050565b600060208284031215612ce457612ce3611e3a565b5b6000612cf284828501612cb9565b91505092915050565b6000604082019050612d106000830185612586565b612d1d602083018461288b565b9392505050565b7f4e487b7100000000000000000000000000000000000000000000000000000000600052603260045260246000fd5b600080600060608486031215612d6c57612d6b611e3a565b5b6000612d7a86828701612849565b9350506020612d8b86828701612849565b9250506040612d9c868287016128b5565b9150509250925092565b7f4e487b7100000000000000000000000000000000000000000000000000000000600052601160045260246000fd5b6000612de082611ea2565b91507fffffffffffffffffffffffffffffffffffffffffffffffffffffffffffffffff8203612e1257612e11612da6565b5b600182019050919050565b600081519050612e2c816120a7565b92915050565b6000612e45612e40846125b0565b612149565b90508083825260208201905060208402830185811115612e6857612e67612190565b5b835b81811015612e915780612e7d8882612e1d565b845260208401935050602081019050612e6a565b5050509392505050565b600082601f830112612eb057612eaf6120d3565b5b8151612ec0848260208601612e32565b91505092915050565b600060208284031215612edf57612ede611e3a565b5b600082015167ffffffffffffffff811115612efd57612efc611e3f565b5b612f0984828501612e9b565b91505092915050565b600081519050919050565b600082825260208201905092915050565b6000819050602082019050919050565b612f478161209d565b82525050565b6000612f598383612f3e565b60208301905092915050565b6000602082019050919050565b6000612f7d82612f12565b612f878185612f1d565b9350612f9283612f2e565b8060005b83811015612fc3578151612faa8882612f4d565b9750612fb583612f65565b925050600181019050612f96565b5085935050505092915050565b60006020820190508181036000830152612fea8184612f72565b905092915050565b600061300561300084612164565b612149565b9050808382526020820190506020840283018581111561302857613027612190565b5b835b81811015613051578061303d8882612921565b84526020840193505060208101905061302a565b5050509392505050565b600082601f8301126130705761306f6120d3565b5b8151613080848260208601612ff2565b91505092915050565b60006020828403121561309f5761309e611e3a565b5b600082015167ffffffffffffffff8111156130bd576130bc611e3f565b5b6130c98482850161305b565b91505092915050565b60006130dd82612484565b91506130e883612484565b9250828201905082811215600083121683821260008412151617156131105761310f612da6565b5b92915050565b600082825260208201905092915050565b7f4c69713a00000000000000000000000000000000000000000000000000000000600082015250565b600061315d600483613116565b915061316882613127565b602082019050919050565b6000602082019050818103600083015261318c81613150565b9050919050565b600061319e82611ea2565b91506131a983611ea2565b92508282039050818111156131c1576131c0612da6565b5b92915050565b7f53616665436173743a2076616c756520646f65736e27742066697420696e206160008201527f6e20696e74323536000000000000000000000000000000000000000000000000602082015250565b6000613223602883613116565b915061322e826131c7565b604082019050919050565b6000602082019050818103600083015261325281613216565b9050919050565b7f53616665436173743a2076616c7565206d75737420626520706f736974697665600082015250565b600061328f602083613116565b915061329a82613259565b602082019050919050565b600060208201905081810360008301526132be81613282565b9050919050565b7f4e487b7100000000000000000000000000000000000000000000000000000000600052601260045260246000fd5b60006132ff82612c95565b915061330a83612c95565b9250828203905060ff81111561332357613322612da6565b5b92915050565b60008160011c9050919050565b6000808291508390505b60018511156133805780860481111561335c5761335b612da6565b5b600185161561336b5780820291505b808102905061337985613329565b9450613340565b94509492505050565b6000826133995760019050613455565b816133a75760009050613455565b81600181146133bd57600281146133c7576133f6565b6001915050613455565b60ff8411156133d9576133d8612da6565b5b8360020a9150848211156133f0576133ef612da6565b5b50613455565b5060208310610133831016604e8410600b841016171561342b5782820a90508381111561342657613425612da6565b5b613455565b6134388484846001613336565b9250905081840481111561344f5761344e612da6565b5b81810290505b9392505050565b600061346782611ea2565b915061347283612c95565b925061349f7fffffffffffffffffffffffffffffffffffffffffffffffffffffffffffffffff8484613389565b905092915050565b60006134b282612484565b91507f800000000000000000000000000000000000000000000000000000000000000082036134e4576134e3612da6565b5b816000039050919050565b60006134fa82611ea2565b915061350583611ea2565b925082613515576135146132c5565b5b828206905092915050565b7f4578747261206c65766572616765206e6f7420616c6c6f776564000000000000600082015250565b6000613556601a83613116565b915061356182613520565b602082019050919050565b6000602082019050818103600083015261358581613549565b9050919050565b7f4578747261205472616e73666572206e6f7420616c6c6f776564000000000000600082015250565b60006135c2601a83613116565b91506135cd8261358c565b602082019050919050565b600060208201905081810360008301526135f1816135b5565b9050919050565b600061360382611ea2565b915061360e83611ea2565b925082820190508082111561362657613625612da6565b5b92915050565b600081519050919050565b60006136428261362c565b61364c8185613116565b935061365c818560208601612a9a565b613665816120d8565b840191505092915050565b6000602082019050818103600083015261368a8184613637565b905092915050565b600061369d82612484565b91506136a883612484565b92508282026136b681612484565b91507f800000000000000000000000000000000000000000000000000000000000000084146000841216156136ee576136ed612da6565b5b828205841483151761370357613702612da6565b5b5092915050565b600061371582612484565b915061372083612484565b9250826137305761372f6132c5565b5b600160000383147f80000000000000000000000000000000000000000000000000000000000000008314161561376957613768612da6565b5b828205905092915050565b600061377f82611ea2565b915061378a83611ea2565b925082820261379881611ea2565b915082820484148315176137af576137ae612da6565b5b5092915050565b60006137c182611ea2565b91506137cc83611ea2565b9250826137dc576137db6132c5565b5b82820490509291505056fea2646970667358221220d44db067da0a973f4d1a700c2e596a3c96d061be7fdc24b6d50ca7ee47bfc63f64736f6c63430008110033",
    "linkReferences": {}
  },
  "methodIdentifiers": {
    "GetCurrentBuyingPower(address,uint256)": "23639489",
    "TotalLeverage()": "c3e7a76d",
    "TotalPositionValue()": "3ebd064e",
    "closeTrade(address,bytes32,address[],bytes[])": "e650e5df",
    "collateralManager()": "23be345c",
    "contractRegistery()": "31745e0a",
    "getRealizedPnL(address)": "e91fad7f",
    "getUnrealizedPnL(address)": "544305bf",
    "getUnsettledAccounting(address)": "bb4a976f",
    "initialMarginFactor()": "bd8ad407",
    "isliquidatable(address,bytes32[],address[],bytes[])": "7e748f8c",
    "liquidatable(address)": "ffec70af",
    "maintanaceMarginFactor()": "d3ad790d",
    "marketManager()": "41ed2c12",
    "priceOracle()": "2630c12f",
    "setCollateralManager(address)": "842a05d4",
    "setPriceOracle(address)": "530e784f",
    "setVault(address)": "6817031b",
    "settleRealizedAccounting(address)": "24d2343a",
    "vault()": "fbfa77cf",
    "verifyTrade(address,bytes32,address[],bytes[],uint256)": "4f82d618"
  },
  "id": 36
}