{
  "abi": [
    {
      "inputs": [
        {
          "internalType": "contract IContractRegistry",
          "name": "_contractRegistery",
          "type": "address"
        },
        {
          "internalType": "contract IMarketManager",
          "name": "_marketManager",
          "type": "address"
        }
      ],
      "stateMutability": "nonpayable",
      "type": "constructor"
    },
    {
      "inputs": [
        {
          "internalType": "address",
          "name": "marginAccount",
          "type": "address"
        },
        {
          "internalType": "int256",
          "name": "PnL",
          "type": "int256"
        },
        {
          "internalType": "uint256",
          "name": "interestAccrued",
          "type": "uint256"
        }
      ],
      "name": "GetCurrentBuyingPower",
      "outputs": [
        {
          "internalType": "uint256",
          "name": "buyPow",
          "type": "uint256"
        }
      ],
      "stateMutability": "view",
      "type": "function"
    },
    {
      "inputs": [],
      "name": "TotalLeverage",
      "outputs": [],
      "stateMutability": "nonpayable",
      "type": "function"
    },
    {
      "inputs": [],
      "name": "TotalPositionValue",
      "outputs": [],
      "stateMutability": "nonpayable",
      "type": "function"
    },
    {
      "inputs": [
        {
          "internalType": "address",
          "name": "_marginAcc",
          "type": "address"
        },
        {
          "internalType": "bytes32",
          "name": "marketKey",
          "type": "bytes32"
        },
        {
          "internalType": "address[]",
          "name": "destinations",
          "type": "address[]"
        },
        {
          "internalType": "bytes[]",
          "name": "data",
          "type": "bytes[]"
        }
      ],
      "name": "closeTrade",
      "outputs": [
        {
          "internalType": "int256",
          "name": "transferAmount",
          "type": "int256"
        },
        {
          "internalType": "int256",
          "name": "positionSize",
          "type": "int256"
        }
      ],
      "stateMutability": "nonpayable",
      "type": "function"
    },
    {
      "inputs": [],
      "name": "collateralManager",
      "outputs": [
        {
          "internalType": "contract CollateralManager",
          "name": "",
          "type": "address"
        }
      ],
      "stateMutability": "view",
      "type": "function"
    },
    {
      "inputs": [],
      "name": "contractRegistery",
      "outputs": [
        {
          "internalType": "contract IContractRegistry",
          "name": "",
          "type": "address"
        }
      ],
      "stateMutability": "view",
      "type": "function"
    },
    {
      "inputs": [
        {
          "internalType": "address",
          "name": "_marginAcc",
          "type": "address"
        },
        {
          "internalType": "int256",
          "name": "PnL",
          "type": "int256"
        }
      ],
      "name": "getBuyingPower",
      "outputs": [
        {
          "internalType": "uint256",
          "name": "buyPow",
          "type": "uint256"
        }
      ],
      "stateMutability": "nonpayable",
      "type": "function"
    },
    {
      "inputs": [
        {
          "internalType": "address",
          "name": "marginAccount",
          "type": "address"
        }
      ],
      "name": "getPositionsValPnL",
      "outputs": [
        {
          "internalType": "uint256",
          "name": "totalNotional",
          "type": "uint256"
        },
        {
          "internalType": "int256",
          "name": "PnL",
          "type": "int256"
        }
      ],
      "stateMutability": "nonpayable",
      "type": "function"
    },
    {
      "inputs": [],
      "name": "initialMarginFactor",
      "outputs": [
        {
          "internalType": "uint256",
          "name": "",
          "type": "uint256"
        }
      ],
      "stateMutability": "view",
      "type": "function"
    },
    {
      "inputs": [
        {
          "internalType": "address",
          "name": "_marginAcc",
          "type": "address"
        },
        {
          "internalType": "bytes32[]",
          "name": "marketKeys",
          "type": "bytes32[]"
        },
        {
          "internalType": "address[]",
          "name": "destinations",
          "type": "address[]"
        },
        {
          "internalType": "bytes[]",
          "name": "data",
          "type": "bytes[]"
        }
      ],
      "name": "isliquidatable",
      "outputs": [
        {
          "internalType": "int256",
          "name": "transferAmount",
          "type": "int256"
        },
        {
          "internalType": "int256",
          "name": "positionSize",
          "type": "int256"
        }
      ],
      "stateMutability": "nonpayable",
      "type": "function"
    },
    {
      "inputs": [
        {
          "internalType": "address",
          "name": "_marginAcc",
          "type": "address"
        }
      ],
      "name": "liquidatable",
      "outputs": [
        {
          "internalType": "int256",
          "name": "diff",
          "type": "int256"
        }
      ],
      "stateMutability": "nonpayable",
      "type": "function"
    },
    {
      "inputs": [],
      "name": "maintanaceMarginFactor",
      "outputs": [
        {
          "internalType": "uint256",
          "name": "",
          "type": "uint256"
        }
      ],
      "stateMutability": "view",
      "type": "function"
    },
    {
      "inputs": [],
      "name": "marketManager",
      "outputs": [
        {
          "internalType": "contract IMarketManager",
          "name": "",
          "type": "address"
        }
      ],
      "stateMutability": "view",
      "type": "function"
    },
    {
      "inputs": [],
      "name": "priceOracle",
      "outputs": [
        {
          "internalType": "contract IPriceOracle",
          "name": "",
          "type": "address"
        }
      ],
      "stateMutability": "view",
      "type": "function"
    },
    {
      "inputs": [
        {
          "internalType": "address",
          "name": "oracle",
          "type": "address"
        }
      ],
      "name": "setPriceOracle",
      "outputs": [],
      "stateMutability": "nonpayable",
      "type": "function"
    },
    {
      "inputs": [
        {
          "internalType": "address",
          "name": "_vault",
          "type": "address"
        }
      ],
      "name": "setVault",
      "outputs": [],
      "stateMutability": "nonpayable",
      "type": "function"
    },
    {
      "inputs": [
        {
          "internalType": "address",
          "name": "_collateralManager",
          "type": "address"
        }
      ],
      "name": "setcollateralManager",
      "outputs": [],
      "stateMutability": "nonpayable",
      "type": "function"
    },
    {
      "inputs": [],
      "name": "vault",
      "outputs": [
        {
          "internalType": "contract Vault",
          "name": "",
          "type": "address"
        }
      ],
      "stateMutability": "view",
      "type": "function"
    },
    {
      "inputs": [
        {
          "internalType": "address",
          "name": "marginAcc",
          "type": "address"
        },
        {
          "internalType": "bytes32",
          "name": "marketKey",
          "type": "bytes32"
        },
        {
          "internalType": "address[]",
          "name": "destinations",
          "type": "address[]"
        },
        {
          "internalType": "bytes[]",
          "name": "data",
          "type": "bytes[]"
        },
        {
          "internalType": "uint256",
          "name": "interestAccrued",
          "type": "uint256"
        }
      ],
      "name": "verifyTrade",
      "outputs": [
        {
          "internalType": "int256",
          "name": "transferAmount",
          "type": "int256"
        },
        {
          "internalType": "int256",
          "name": "positionSize",
          "type": "int256"
        },
        {
          "internalType": "address",
          "name": "tokenOut",
          "type": "address"
        }
      ],
      "stateMutability": "nonpayable",
      "type": "function"
    }
  ],
  "bytecode": {
    "object": "0x6080604052601960065560146007553480156200001b57600080fd5b5060405162001a3c38038062001a3c8339810160408190526200003e916200008e565b6001600055600380546001600160a01b039384166001600160a01b03199182161790915560058054929093169116179055620000cd565b6001600160a01b03811681146200008b57600080fd5b50565b60008060408385031215620000a257600080fd5b8251620000af8162000075565b6020840151909250620000c28162000075565b809150509250929050565b61195f80620000dd6000396000f3fe608060405234801561001057600080fd5b50600436106101215760003560e01c80637e748f8c116100ad578063d3ad790d11610071578063d3ad790d146102a0578063e12d0fea146102a9578063e650e5df146102d9578063fbfa77cf146102ec578063ffec70af146102ff57600080fd5b80637e748f8c146102495780639ddefa2b14610271578063ae11383914610284578063bd8ad40714610297578063c3e7a76d1461017c57600080fd5b806341ed2c12116100f457806341ed2c121461017e5780634f82d61814610191578063530e784f146101c85780635a5ee388146101f85780636817031b1461021957600080fd5b806323be345c146101265780632630c12f1461015657806331745e0a146101695780633ebd064e1461017c575b600080fd5b600454610139906001600160a01b031681565b6040516001600160a01b0390911681526020015b60405180910390f35b600154610139906001600160a01b031681565b600354610139906001600160a01b031681565b005b600554610139906001600160a01b031681565b6101a461019f366004611296565b610312565b6040805193845260208401929092526001600160a01b03169082015260600161014d565b61017c6101d636600461131e565b600180546001600160a01b0319166001600160a01b0392909216919091179055565b61020b61020636600461133b565b610613565b60405190815260200161014d565b61017c61022736600461131e565b600280546001600160a01b0319166001600160a01b0392909216919091179055565b61025c610257366004611367565b6106a0565b6040805192835260208301919091520161014d565b61025c61027f36600461131e565b610876565b61020b610292366004611459565b610ac3565b61020b60065481565b61020b60075481565b61017c6102b736600461131e565b600480546001600160a01b0319166001600160a01b0392909216919091179055565b61025c6102e736600461148e565b610b66565b600254610139906001600160a01b031681565b61020b61030d36600461131e565b610cdb565b60055460405163382dfc3d60e01b81526004810186905260009182918291829182918291829182916001600160a01b039091169063382dfc3d906024016040805180830381865afa15801561036b573d6000803e3d6000fd5b505050506040513d601f19601f8201168201806040525081019061038f9190611502565b90925090508061039e8e610876565b90965093506103ae8e858c610ac3565b94506000816001600160a01b0316635104efaa858f8f6040518463ffffffff1660e01b81526004016103e293929190611582565b606060405180830381865afa1580156103ff573d6000803e3d6000fd5b505050506040513d601f19601f820116820180604052508101906104239190611633565b809350819b50829c50505050816001600160a01b03166398acd7a66040518163ffffffff1660e01b8152600401602060405180830381865afa15801561046d573d6000803e3d6000fd5b505050506040513d601f19601f820116820180604052508101906104919190611661565b975050505050506104d4816104af6104a887610e16565b8590610e2d565b6040518060400160405280600781526020016662757920706f7760c81b815250610e39565b6104e76104e085610e16565b8390610e2d565b81101561053b5760405162461bcd60e51b815260206004820152601a60248201527f4578747261206c65766572616765206e6f7420616c6c6f77656400000000000060448201526064015b60405180910390fd5b6105b76105b2866105ac8d6001600160a01b0316634c19386c6040518163ffffffff1660e01b8152600401602060405180830381865afa158015610583573d6000803e3d6000fd5b505050506040513d601f19601f820116820180604052508101906105a7919061167e565b610e85565b90610eef565b610e16565b8110156106065760405162461bcd60e51b815260206004820152601a60248201527f4578747261205472616e73666572206e6f7420616c6c6f7765640000000000006044820152606401610532565b5050955095509592505050565b6006546004805460405163a723ad3b60e01b81526000936106979360649391926106909261068b9289926105ac926001600160a01b03169163a723ad3b9161066c918e91016001600160a01b0391909116815260200190565b6020604051808303816000875af1158015610583573d6000803e3d6000fd5b610efb565b9190610f4d565b90505b92915050565b60008080805b8651811015610815576000806000806000600560009054906101000a90046001600160a01b03166001600160a01b031663382dfc3d8d88815181106106ed576106ed611697565b60200260200101516040518263ffffffff1660e01b815260040161071391815260200190565b6040805180830381865afa15801561072f573d6000803e3d6000fd5b505050506040513d601f19601f820116820180604052508101906107539190611502565b80955081965050506000849050806001600160a01b031663130676f6878e8e6040518463ffffffff1660e01b815260040161079093929190611582565b606060405180830381865afa1580156107ad573d6000803e3d6000fd5b505050506040513d601f19601f820116820180604052508101906107d19190611633565b919550935091506107e28a85610eef565b99506107ee8984610eef565b98506107fa8883610e2d565b9750505050505050808061080d906116c3565b9150506106a6565b5060008061082289610876565b600754919350915060009061083a9084906064610f4d565b90506108696040518060400160405280600c81526020016b4c697169646174696f6e212160a01b815250610ffc565b5050505094509492505050565b6000806000600560009054906101000a90046001600160a01b03166001600160a01b031663d66078376040518163ffffffff1660e01b8152600401600060405180830381865afa1580156108ce573d6000803e3d6000fd5b505050506040513d6000823e601f3d908101601f191682016040526108f691908101906116dc565b90506000600560009054906101000a90046001600160a01b03166001600160a01b031663ed2ed5446040518163ffffffff1660e01b81526004016000604051808303816000875af115801561094f573d6000803e3d6000fd5b505050506040513d6000823e601f3d908101601f19168201604052610977919081019061176d565b604051630fbeea5d60e11b815290915085906001600160a01b03821690631f7dd4ba906109a89086906004016117fc565b602060405180830381865afa1580156109c5573d6000803e3d6000fd5b505050506040513d601f19601f820116820180604052508101906109e9919061167e565b8251909550600090815b81811015610ab857600080868381518110610a1057610a10611697565b602090810291909101015160405163a773deb960e01b81526001600160a01b038d811660048301529091169063a773deb99060240160408051808303816000875af1158015610a63573d6000803e3d6000fd5b505050506040513d601f19601f82011682018060405250810190610a879190611840565b92509050610a958582610e2d565b9450610aa18983610eef565b985050508080610ab0906116c3565b9150506109f3565b505050505050915091565b600654600480546040516330b8f93f60e21b81526001600160a01b0387811693820193909352600093610b5c9360649391926106909261068b928a926105ac926105a7928c9291169063c2e3e4fc90602401602060405180830381865afa158015610b32573d6000803e3d6000fd5b505050506040513d601f19601f82011682018060405250810190610b56919061167e565b90611042565b90505b9392505050565b60055460405163382dfc3d60e01b81526004810185905260009182918791839182916001600160a01b03169063382dfc3d906024016040805180830381865afa158015610bb7573d6000803e3d6000fd5b505050506040513d601f19601f82011682018060405250810190610bdb9190611502565b60405163288277d560e11b8152919350915081906000906001600160a01b03831690635104efaa90610c159087908d908d90600401611582565b606060405180830381865afa158015610c32573d6000803e3d6000fd5b505050506040513d601f19601f82011682018060405250810190610c569190611633565b60405163db386b8d60e01b8152600481018e905292995090975091506000906001600160a01b0387169063db386b8d90602401602060405180830381865afa158015610ca6573d6000803e3d6000fd5b505050506040513d601f19601f82011682018060405250810190610cca919061167e565b905050505050505094509492505050565b6000806000610ce984610876565b604080518082019091526006815265151388141b9360d21b60208201529193509150610d909083610d1984610e16565b6004805460405163a723ad3b60e01b81526001600160a01b038b81169382019390935291169063a723ad3b906024016020604051808303816000875af1158015610d67573d6000803e3d6000fd5b505050506040513d601f19601f82011682018060405250810190610d8b919061167e565b61104e565b600754600090610da39084906064610f4d565b90506000821215610e0b57610db782610e16565b811115610def5760405162461bcd60e51b8152600401610532906020808252600490820152632634b89d60e11b604082015260600190565b610e02610dfb82610e85565b8390610eef565b95945050505050565b506000949350505050565b600080821215610e29578160000361069a565b5090565b60006106978284611864565b610e80838383604051602401610e5193929190611877565b60408051601f198184030181529190526020810180516001600160e01b03166338e8257960e11b17905261109d565b505050565b60006001600160ff1b03821115610e295760405162461bcd60e51b815260206004820152602860248201527f53616665436173743a2076616c756520646f65736e27742066697420696e2061604482015267371034b73a191a9b60c11b6064820152608401610532565b60006106978284611896565b600080821215610e295760405162461bcd60e51b815260206004820181905260248201527f53616665436173743a2076616c7565206d75737420626520706f7369746976656044820152606401610532565b6000808060001985870985870292508281108382030391505080600003610f8757838281610f7d57610f7d6118be565b0492505050610b5f565b808411610f9357600080fd5b60008486880960026001871981018816978890046003810283188082028403028082028403028082028403028082028403028082028403029081029092039091026000889003889004909101858311909403939093029303949094049190911702949350505050565b61103f8160405160240161101091906118d4565b60408051601f198184030181529190526020810180516001600160e01b031663104c13eb60e21b17905261109d565b50565b600061069782846118e7565b6110978484848460405160240161106894939291906118fa565b60408051601f198184030181529190526020810180516001600160e01b031663a7a8785360e01b17905261109d565b50505050565b80516a636f6e736f6c652e6c6f67602083016000808483855afa5050505050565b6001600160a01b038116811461103f57600080fd5b634e487b7160e01b600052604160045260246000fd5b604051601f8201601f1916810167ffffffffffffffff81118282101715611112576111126110d3565b604052919050565b600067ffffffffffffffff821115611134576111346110d3565b5060051b60200190565b600082601f83011261114f57600080fd5b8135602061116461115f8361111a565b6110e9565b82815260059290921b8401810191818101908684111561118357600080fd5b8286015b848110156111a757803561119a816110be565b8352918301918301611187565b509695505050505050565b6000601f83818401126111c457600080fd5b823560206111d461115f8361111a565b82815260059290921b850181019181810190878411156111f357600080fd5b8287015b8481101561128a57803567ffffffffffffffff808211156112185760008081fd5b818a0191508a603f83011261122d5760008081fd5b85820135604082821115611243576112436110d3565b611254828b01601f191689016110e9565b92508183528c8183860101111561126b5760008081fd5b81818501898501375060009082018701528452509183019183016111f7565b50979650505050505050565b600080600080600060a086880312156112ae57600080fd5b85356112b9816110be565b945060208601359350604086013567ffffffffffffffff808211156112dd57600080fd5b6112e989838a0161113e565b945060608801359150808211156112ff57600080fd5b5061130c888289016111b2565b95989497509295608001359392505050565b60006020828403121561133057600080fd5b8135610b5f816110be565b6000806040838503121561134e57600080fd5b8235611359816110be565b946020939093013593505050565b6000806000806080858703121561137d57600080fd5b8435611388816110be565b935060208581013567ffffffffffffffff808211156113a657600080fd5b818801915088601f8301126113ba57600080fd5b81356113c861115f8261111a565b81815260059190911b8301840190848101908b8311156113e757600080fd5b938501935b82851015611405578435825293850193908501906113ec565b97505050604088013592508083111561141d57600080fd5b61142989848a0161113e565b9450606088013592508083111561143f57600080fd5b505061144d878288016111b2565b91505092959194509250565b60008060006060848603121561146e57600080fd5b8335611479816110be565b95602085013595506040909401359392505050565b600080600080608085870312156114a457600080fd5b84356114af816110be565b935060208501359250604085013567ffffffffffffffff808211156114d357600080fd5b6114df8883890161113e565b935060608701359150808211156114f557600080fd5b5061144d878288016111b2565b6000806040838503121561151557600080fd5b8251611520816110be565b6020840151909250611531816110be565b809150509250929050565b6000815180845260005b8181101561156257602081850181015186830182015201611546565b506000602082860101526020601f19601f83011685010191505092915050565b6001600160a01b038481168252606060208084018290528551918401829052600092868201929091906080860190855b818110156115d05785518516835294830194918301916001016115b2565b50508581036040870152865180825282820194509250600583901b8101820182880160005b8581101561162357601f1984840301875261161183835161153c565b968501969250908401906001016115f5565b50909a9950505050505050505050565b60008060006060848603121561164857600080fd5b8351925060208401519150604084015190509250925092565b60006020828403121561167357600080fd5b8151610b5f816110be565b60006020828403121561169057600080fd5b5051919050565b634e487b7160e01b600052603260045260246000fd5b634e487b7160e01b600052601160045260246000fd5b6000600182016116d5576116d56116ad565b5060010190565b600060208083850312156116ef57600080fd5b825167ffffffffffffffff81111561170657600080fd5b8301601f8101851361171757600080fd5b805161172561115f8261111a565b81815260059190911b8201830190838101908783111561174457600080fd5b928401925b8284101561176257835182529284019290840190611749565b979650505050505050565b6000602080838503121561178057600080fd5b825167ffffffffffffffff81111561179757600080fd5b8301601f810185136117a857600080fd5b80516117b661115f8261111a565b81815260059190911b820183019083810190878311156117d557600080fd5b928401925b828410156117625783516117ed816110be565b825292840192908401906117da565b6020808252825182820181905260009190848201906040850190845b8181101561183457835183529284019291840191600101611818565b50909695505050505050565b6000806040838503121561185357600080fd5b505080516020909101519092909150565b8082018082111561069a5761069a6116ad565b838152826020820152606060408201526000610e02606083018461153c565b80820182811260008312801582168215821617156118b6576118b66116ad565b505092915050565b634e487b7160e01b600052601260045260246000fd5b602081526000610697602083018461153c565b8181038181111561069a5761069a6116ad565b60808152600061190d608083018761153c565b602083019590955250604081019290925260609091015291905056fea2646970667358221220482a6855a64ca09785693f8cf428828defcbde8e87c0797e027b64b41fbe26ef64736f6c63430008110033",
    "linkReferences": {}
  },
  "methodIdentifiers": {
    "GetCurrentBuyingPower(address,int256,uint256)": "ae113839",
    "TotalLeverage()": "c3e7a76d",
    "TotalPositionValue()": "3ebd064e",
    "closeTrade(address,bytes32,address[],bytes[])": "e650e5df",
    "collateralManager()": "23be345c",
    "contractRegistery()": "31745e0a",
    "getBuyingPower(address,int256)": "5a5ee388",
    "getPositionsValPnL(address)": "9ddefa2b",
    "initialMarginFactor()": "bd8ad407",
    "isliquidatable(address,bytes32[],address[],bytes[])": "7e748f8c",
    "liquidatable(address)": "ffec70af",
    "maintanaceMarginFactor()": "d3ad790d",
    "marketManager()": "41ed2c12",
    "priceOracle()": "2630c12f",
    "setPriceOracle(address)": "530e784f",
    "setVault(address)": "6817031b",
    "setcollateralManager(address)": "e12d0fea",
    "vault()": "fbfa77cf",
    "verifyTrade(address,bytes32,address[],bytes[],uint256)": "4f82d618"
  },
  "id": 27
}