{
  "abi": [
    {
      "inputs": [],
      "stateMutability": "nonpayable",
      "type": "constructor"
    },
    {
      "anonymous": false,
      "inputs": [
        {
          "indexed": true,
          "internalType": "bytes32",
          "name": "role",
          "type": "bytes32"
        },
        {
          "indexed": true,
          "internalType": "bytes32",
          "name": "previousAdminRole",
          "type": "bytes32"
        },
        {
          "indexed": true,
          "internalType": "bytes32",
          "name": "newAdminRole",
          "type": "bytes32"
        }
      ],
      "name": "RoleAdminChanged",
      "type": "event"
    },
    {
      "anonymous": false,
      "inputs": [
        {
          "indexed": true,
          "internalType": "bytes32",
          "name": "role",
          "type": "bytes32"
        },
        {
          "indexed": true,
          "internalType": "address",
          "name": "account",
          "type": "address"
        },
        {
          "indexed": true,
          "internalType": "address",
          "name": "sender",
          "type": "address"
        }
      ],
      "name": "RoleGranted",
      "type": "event"
    },
    {
      "anonymous": false,
      "inputs": [
        {
          "indexed": true,
          "internalType": "bytes32",
          "name": "role",
          "type": "bytes32"
        },
        {
          "indexed": true,
          "internalType": "address",
          "name": "account",
          "type": "address"
        },
        {
          "indexed": true,
          "internalType": "address",
          "name": "sender",
          "type": "address"
        }
      ],
      "name": "RoleRevoked",
      "type": "event"
    },
    {
      "inputs": [],
      "name": "DEFAULT_ADMIN_ROLE",
      "outputs": [
        {
          "internalType": "bytes32",
          "name": "",
          "type": "bytes32"
        }
      ],
      "stateMutability": "view",
      "type": "function"
    },
    {
      "inputs": [],
      "name": "REGISTRAR_ROLE",
      "outputs": [
        {
          "internalType": "bytes32",
          "name": "",
          "type": "bytes32"
        }
      ],
      "stateMutability": "view",
      "type": "function"
    },
    {
      "inputs": [
        {
          "internalType": "bytes32",
          "name": "contractName",
          "type": "bytes32"
        },
        {
          "internalType": "address",
          "name": "contractAddress",
          "type": "address"
        }
      ],
      "name": "addContractToRegistry",
      "outputs": [],
      "stateMutability": "nonpayable",
      "type": "function"
    },
    {
      "inputs": [
        {
          "internalType": "bytes32",
          "name": "",
          "type": "bytes32"
        }
      ],
      "name": "contractRegistry",
      "outputs": [
        {
          "internalType": "address",
          "name": "",
          "type": "address"
        }
      ],
      "stateMutability": "view",
      "type": "function"
    },
    {
      "inputs": [
        {
          "internalType": "bytes32",
          "name": "contractName",
          "type": "bytes32"
        }
      ],
      "name": "getContractByName",
      "outputs": [
        {
          "internalType": "address",
          "name": "",
          "type": "address"
        }
      ],
      "stateMutability": "view",
      "type": "function"
    },
    {
      "inputs": [
        {
          "internalType": "bytes32",
          "name": "role",
          "type": "bytes32"
        }
      ],
      "name": "getRoleAdmin",
      "outputs": [
        {
          "internalType": "bytes32",
          "name": "",
          "type": "bytes32"
        }
      ],
      "stateMutability": "view",
      "type": "function"
    },
    {
      "inputs": [
        {
          "internalType": "bytes32",
          "name": "role",
          "type": "bytes32"
        },
        {
          "internalType": "address",
          "name": "account",
          "type": "address"
        }
      ],
      "name": "grantRole",
      "outputs": [],
      "stateMutability": "nonpayable",
      "type": "function"
    },
    {
      "inputs": [
        {
          "internalType": "bytes32",
          "name": "role",
          "type": "bytes32"
        },
        {
          "internalType": "address",
          "name": "account",
          "type": "address"
        }
      ],
      "name": "hasRole",
      "outputs": [
        {
          "internalType": "bool",
          "name": "",
          "type": "bool"
        }
      ],
      "stateMutability": "view",
      "type": "function"
    },
    {
      "inputs": [
        {
          "internalType": "bytes32",
          "name": "contractName",
          "type": "bytes32"
        }
      ],
      "name": "removeContractFromRegistry",
      "outputs": [],
      "stateMutability": "nonpayable",
      "type": "function"
    },
    {
      "inputs": [
        {
          "internalType": "bytes32",
          "name": "role",
          "type": "bytes32"
        },
        {
          "internalType": "address",
          "name": "account",
          "type": "address"
        }
      ],
      "name": "renounceRole",
      "outputs": [],
      "stateMutability": "nonpayable",
      "type": "function"
    },
    {
      "inputs": [
        {
          "internalType": "bytes32",
          "name": "role",
          "type": "bytes32"
        },
        {
          "internalType": "address",
          "name": "account",
          "type": "address"
        }
      ],
      "name": "revokeRole",
      "outputs": [],
      "stateMutability": "nonpayable",
      "type": "function"
    },
    {
      "inputs": [
        {
          "internalType": "bytes4",
          "name": "interfaceId",
          "type": "bytes4"
        }
      ],
      "name": "supportsInterface",
      "outputs": [
        {
          "internalType": "bool",
          "name": "",
          "type": "bool"
        }
      ],
      "stateMutability": "view",
      "type": "function"
    }
  ],
  "bytecode": {
    "object": "0x608060405234801561001057600080fd5b506100417fedcc084d3dcd65a1f7f23c65c46722faca6953d28e43150a467cf43e5c3092383361004660201b60201c565b6101b8565b610056828261005a60201b60201c565b5050565b61006a828261014660201b60201c565b61014257600160008084815260200190815260200160002060000160008373ffffffffffffffffffffffffffffffffffffffff1673ffffffffffffffffffffffffffffffffffffffff16815260200190815260200160002060006101000a81548160ff0219169083151502179055506100e76101b060201b60201c565b73ffffffffffffffffffffffffffffffffffffffff168173ffffffffffffffffffffffffffffffffffffffff16837f2f8788117e7eff1d82e926ec794901d17c78024a50270940304540a733656f0d60405160405180910390a45b5050565b600080600084815260200190815260200160002060000160008373ffffffffffffffffffffffffffffffffffffffff1673ffffffffffffffffffffffffffffffffffffffff16815260200190815260200160002060009054906101000a900460ff16905092915050565b600033905090565b611242806101c76000396000f3fe608060405234801561001057600080fd5b50600436106100b45760003560e01c806391d148541161007157806391d148541461018957806395610926146101b9578063a217fddf146101e9578063d01b879a14610207578063d547741f14610237578063f68e955314610253576100b4565b806301ffc9a7146100b9578063248a9ca3146100e95780632f2ff15d1461011957806336568abe146101355780633d108f8d146101515780637a3cad041461016d575b600080fd5b6100d360048036038101906100ce9190610bf4565b610271565b6040516100e09190610c3c565b60405180910390f35b61010360048036038101906100fe9190610c8d565b6102eb565b6040516101109190610cc9565b60405180910390f35b610133600480360381019061012e9190610d42565b61030a565b005b61014f600480360381019061014a9190610d42565b61032b565b005b61016b60048036038101906101669190610c8d565b6103ae565b005b61018760048036038101906101829190610d42565b61042f565b005b6101a3600480360381019061019e9190610d42565b6104b0565b6040516101b09190610c3c565b60405180910390f35b6101d360048036038101906101ce9190610c8d565b61051a565b6040516101e09190610d91565b60405180910390f35b6101f16105f8565b6040516101fe9190610cc9565b60405180910390f35b610221600480360381019061021c9190610c8d565b6105ff565b60405161022e9190610d91565b60405180910390f35b610251600480360381019061024c9190610d42565b610632565b005b61025b610653565b6040516102689190610cc9565b60405180910390f35b60007f7965db0b000000000000000000000000000000000000000000000000000000007bffffffffffffffffffffffffffffffffffffffffffffffffffffffff1916827bffffffffffffffffffffffffffffffffffffffffffffffffffffffff191614806102e457506102e382610677565b5b9050919050565b6000806000838152602001908152602001600020600101549050919050565b610313826102eb565b61031c816106e1565b61032683836106f5565b505050565b6103336107d5565b73ffffffffffffffffffffffffffffffffffffffff168173ffffffffffffffffffffffffffffffffffffffff16146103a0576040517f08c379a000000000000000000000000000000000000000000000000000000000815260040161039790610e2f565b60405180910390fd5b6103aa82826107dd565b5050565b7fedcc084d3dcd65a1f7f23c65c46722faca6953d28e43150a467cf43e5c3092386103d8816106e1565b60006001600084815260200190815260200160002060006101000a81548173ffffffffffffffffffffffffffffffffffffffff021916908373ffffffffffffffffffffffffffffffffffffffff1602179055505050565b7fedcc084d3dcd65a1f7f23c65c46722faca6953d28e43150a467cf43e5c309238610459816106e1565b816001600085815260200190815260200160002060006101000a81548173ffffffffffffffffffffffffffffffffffffffff021916908373ffffffffffffffffffffffffffffffffffffffff160217905550505050565b600080600084815260200190815260200160002060000160008373ffffffffffffffffffffffffffffffffffffffff1673ffffffffffffffffffffffffffffffffffffffff16815260200190815260200160002060009054906101000a900460ff16905092915050565b60008073ffffffffffffffffffffffffffffffffffffffff166001600084815260200190815260200160002060009054906101000a900473ffffffffffffffffffffffffffffffffffffffff1673ffffffffffffffffffffffffffffffffffffffff16036105bd576040517f08c379a00000000000000000000000000000000000000000000000000000000081526004016105b490610e9b565b60405180910390fd5b6001600083815260200190815260200160002060009054906101000a900473ffffffffffffffffffffffffffffffffffffffff169050919050565b6000801b81565b60016020528060005260406000206000915054906101000a900473ffffffffffffffffffffffffffffffffffffffff1681565b61063b826102eb565b610644816106e1565b61064e83836107dd565b505050565b7fedcc084d3dcd65a1f7f23c65c46722faca6953d28e43150a467cf43e5c30923881565b60007f01ffc9a7000000000000000000000000000000000000000000000000000000007bffffffffffffffffffffffffffffffffffffffffffffffffffffffff1916827bffffffffffffffffffffffffffffffffffffffffffffffffffffffff1916149050919050565b6106f2816106ed6107d5565b6108be565b50565b6106ff82826104b0565b6107d157600160008084815260200190815260200160002060000160008373ffffffffffffffffffffffffffffffffffffffff1673ffffffffffffffffffffffffffffffffffffffff16815260200190815260200160002060006101000a81548160ff0219169083151502179055506107766107d5565b73ffffffffffffffffffffffffffffffffffffffff168173ffffffffffffffffffffffffffffffffffffffff16837f2f8788117e7eff1d82e926ec794901d17c78024a50270940304540a733656f0d60405160405180910390a45b5050565b600033905090565b6107e782826104b0565b156108ba57600080600084815260200190815260200160002060000160008373ffffffffffffffffffffffffffffffffffffffff1673ffffffffffffffffffffffffffffffffffffffff16815260200190815260200160002060006101000a81548160ff02191690831515021790555061085f6107d5565b73ffffffffffffffffffffffffffffffffffffffff168173ffffffffffffffffffffffffffffffffffffffff16837ff6391f5c32d9c69d2a47ea670b442974b53935d1edc7fd64eb21e047a839171b60405160405180910390a45b5050565b6108c882826104b0565b610957576108ed8173ffffffffffffffffffffffffffffffffffffffff16601461095b565b6108fb8360001c602061095b565b60405160200161090c929190610fc4565b6040516020818303038152906040526040517f08c379a000000000000000000000000000000000000000000000000000000000815260040161094e9190611048565b60405180910390fd5b5050565b60606000600283600261096e91906110a3565b61097891906110e5565b67ffffffffffffffff81111561099157610990611119565b5b6040519080825280601f01601f1916602001820160405280156109c35781602001600182028036833780820191505090505b5090507f3000000000000000000000000000000000000000000000000000000000000000816000815181106109fb576109fa611148565b5b60200101907effffffffffffffffffffffffffffffffffffffffffffffffffffffffffffff1916908160001a9053507f780000000000000000000000000000000000000000000000000000000000000081600181518110610a5f57610a5e611148565b5b60200101907effffffffffffffffffffffffffffffffffffffffffffffffffffffffffffff1916908160001a90535060006001846002610a9f91906110a3565b610aa991906110e5565b90505b6001811115610b49577f3031323334353637383961626364656600000000000000000000000000000000600f861660108110610aeb57610aea611148565b5b1a60f81b828281518110610b0257610b01611148565b5b60200101907effffffffffffffffffffffffffffffffffffffffffffffffffffffffffffff1916908160001a905350600485901c945080610b4290611177565b9050610aac565b5060008414610b8d576040517f08c379a0000000000000000000000000000000000000000000000000000000008152600401610b84906111ec565b60405180910390fd5b8091505092915050565b600080fd5b60007fffffffff0000000000000000000000000000000000000000000000000000000082169050919050565b610bd181610b9c565b8114610bdc57600080fd5b50565b600081359050610bee81610bc8565b92915050565b600060208284031215610c0a57610c09610b97565b5b6000610c1884828501610bdf565b91505092915050565b60008115159050919050565b610c3681610c21565b82525050565b6000602082019050610c516000830184610c2d565b92915050565b6000819050919050565b610c6a81610c57565b8114610c7557600080fd5b50565b600081359050610c8781610c61565b92915050565b600060208284031215610ca357610ca2610b97565b5b6000610cb184828501610c78565b91505092915050565b610cc381610c57565b82525050565b6000602082019050610cde6000830184610cba565b92915050565b600073ffffffffffffffffffffffffffffffffffffffff82169050919050565b6000610d0f82610ce4565b9050919050565b610d1f81610d04565b8114610d2a57600080fd5b50565b600081359050610d3c81610d16565b92915050565b60008060408385031215610d5957610d58610b97565b5b6000610d6785828601610c78565b9250506020610d7885828601610d2d565b9150509250929050565b610d8b81610d04565b82525050565b6000602082019050610da66000830184610d82565b92915050565b600082825260208201905092915050565b7f416363657373436f6e74726f6c3a2063616e206f6e6c792072656e6f756e636560008201527f20726f6c657320666f722073656c660000000000000000000000000000000000602082015250565b6000610e19602f83610dac565b9150610e2482610dbd565b604082019050919050565b60006020820190508181036000830152610e4881610e0c565b9050919050565b7f43523a20436f6e7472616374206e6f7420666f756e6400000000000000000000600082015250565b6000610e85601683610dac565b9150610e9082610e4f565b602082019050919050565b60006020820190508181036000830152610eb481610e78565b9050919050565b600081905092915050565b7f416363657373436f6e74726f6c3a206163636f756e7420000000000000000000600082015250565b6000610efc601783610ebb565b9150610f0782610ec6565b601782019050919050565b600081519050919050565b60005b83811015610f3b578082015181840152602081019050610f20565b60008484015250505050565b6000610f5282610f12565b610f5c8185610ebb565b9350610f6c818560208601610f1d565b80840191505092915050565b7f206973206d697373696e6720726f6c6520000000000000000000000000000000600082015250565b6000610fae601183610ebb565b9150610fb982610f78565b601182019050919050565b6000610fcf82610eef565b9150610fdb8285610f47565b9150610fe682610fa1565b9150610ff28284610f47565b91508190509392505050565b6000601f19601f8301169050919050565b600061101a82610f12565b6110248185610dac565b9350611034818560208601610f1d565b61103d81610ffe565b840191505092915050565b60006020820190508181036000830152611062818461100f565b905092915050565b6000819050919050565b7f4e487b7100000000000000000000000000000000000000000000000000000000600052601160045260246000fd5b60006110ae8261106a565b91506110b98361106a565b92508282026110c78161106a565b915082820484148315176110de576110dd611074565b5b5092915050565b60006110f08261106a565b91506110fb8361106a565b925082820190508082111561111357611112611074565b5b92915050565b7f4e487b7100000000000000000000000000000000000000000000000000000000600052604160045260246000fd5b7f4e487b7100000000000000000000000000000000000000000000000000000000600052603260045260246000fd5b60006111828261106a565b91506000820361119557611194611074565b5b600182039050919050565b7f537472696e67733a20686578206c656e67746820696e73756666696369656e74600082015250565b60006111d6602083610dac565b91506111e1826111a0565b602082019050919050565b60006020820190508181036000830152611205816111c9565b905091905056fea2646970667358221220d019ac90fbfcde735c912ba1d5989aab20609979cdab9e7e72c380ce7d14af0b64736f6c63430008110033",
    "linkReferences": {}
  },
  "methodIdentifiers": {
    "DEFAULT_ADMIN_ROLE()": "a217fddf",
    "REGISTRAR_ROLE()": "f68e9553",
    "addContractToRegistry(bytes32,address)": "7a3cad04",
    "contractRegistry(bytes32)": "d01b879a",
    "getContractByName(bytes32)": "95610926",
    "getRoleAdmin(bytes32)": "248a9ca3",
    "grantRole(bytes32,address)": "2f2ff15d",
    "hasRole(bytes32,address)": "91d14854",
    "removeContractFromRegistry(bytes32)": "3d108f8d",
    "renounceRole(bytes32,address)": "36568abe",
    "revokeRole(bytes32,address)": "d547741f",
    "supportsInterface(bytes4)": "01ffc9a7"
  },
  "id": 60
}