{
  "abi": [
    {
      "inputs": [
        {
          "internalType": "uint256",
          "name": "U_optimal",
          "type": "uint256"
        },
        {
          "internalType": "uint256",
          "name": "R_base",
          "type": "uint256"
        },
        {
          "internalType": "uint256",
          "name": "R_slope1",
          "type": "uint256"
        },
        {
          "internalType": "uint256",
          "name": "R_slope2",
          "type": "uint256"
        }
      ],
      "stateMutability": "nonpayable",
      "type": "constructor"
    },
    {
      "inputs": [],
      "name": "_R_base_RAY",
      "outputs": [
        {
          "internalType": "uint256",
          "name": "",
          "type": "uint256"
        }
      ],
      "stateMutability": "view",
      "type": "function"
    },
    {
      "inputs": [],
      "name": "_R_slope1_RAY",
      "outputs": [
        {
          "internalType": "uint256",
          "name": "",
          "type": "uint256"
        }
      ],
      "stateMutability": "view",
      "type": "function"
    },
    {
      "inputs": [],
      "name": "_R_slope2_RAY",
      "outputs": [
        {
          "internalType": "uint256",
          "name": "",
          "type": "uint256"
        }
      ],
      "stateMutability": "view",
      "type": "function"
    },
    {
      "inputs": [],
      "name": "_U_Optimal_WAD",
      "outputs": [
        {
          "internalType": "uint256",
          "name": "",
          "type": "uint256"
        }
      ],
      "stateMutability": "view",
      "type": "function"
    },
    {
      "inputs": [],
      "name": "_U_Optimal_inverted_WAD",
      "outputs": [
        {
          "internalType": "uint256",
          "name": "",
          "type": "uint256"
        }
      ],
      "stateMutability": "view",
      "type": "function"
    },
    {
      "inputs": [
        {
          "internalType": "uint256",
          "name": "expectedLiquidity",
          "type": "uint256"
        },
        {
          "internalType": "uint256",
          "name": "availableLiquidity",
          "type": "uint256"
        }
      ],
      "name": "calcBorrowRate",
      "outputs": [
        {
          "internalType": "uint256",
          "name": "",
          "type": "uint256"
        }
      ],
      "stateMutability": "view",
      "type": "function"
    },
    {
      "inputs": [],
      "name": "getModelParameters",
      "outputs": [
        {
          "internalType": "uint256",
          "name": "U_optimal",
          "type": "uint256"
        },
        {
          "internalType": "uint256",
          "name": "R_base",
          "type": "uint256"
        },
        {
          "internalType": "uint256",
          "name": "R_slope1",
          "type": "uint256"
        },
        {
          "internalType": "uint256",
          "name": "R_slope2",
          "type": "uint256"
        }
      ],
      "stateMutability": "view",
      "type": "function"
    },
    {
      "inputs": [],
      "name": "version",
      "outputs": [
        {
          "internalType": "uint256",
          "name": "",
          "type": "uint256"
        }
      ],
      "stateMutability": "view",
      "type": "function"
    }
  ],
  "bytecode": {
    "object": "0x6101206040523480156200001257600080fd5b506040516200095538038062000955833981016040819052620000359162000220565b604080518082019091526002815261049560f41b6020820152620f42408511156200007e5760405162461bcd60e51b815260040162000075919062000257565b60405180910390fd5b50604080518082019091526002815261049560f41b6020820152620f4240841115620000bf5760405162461bcd60e51b815260040162000075919062000257565b50604080518082019091526002815261049560f41b6020820152620f4240831115620001005760405162461bcd60e51b815260040162000075919062000257565b5060006200012585670de0b6b3a7640000620001c560201b6200043c1790919060201c565b608081905290506200014081670de0b6b3a7640000620002bd565b60a052620001676b033b2e3c9fd0803ce800000085620001c5602090811b6200043c17901c565b60c0526200018e6b033b2e3c9fd0803ce800000084620001c5602090811b6200043c17901c565b60e052620001b56b033b2e3c9fd0803ce800000083620001c5602090811b6200043c17901c565b6101005250620003269350505050565b6000821580620001d3575081155b15620001e2575060006200021a565b620f4240620001f3600282620002d3565b620001ff8486620002f6565b6200020b919062000310565b620002179190620002d3565b90505b92915050565b600080600080608085870312156200023757600080fd5b505082516020840151604085015160609095015191969095509092509050565b600060208083528351808285015260005b81811015620002865785810183015185820160400152820162000268565b506000604082860101526040601f19601f8301168501019250505092915050565b634e487b7160e01b600052601160045260246000fd5b818103818111156200021a576200021a620002a7565b600082620002f157634e487b7160e01b600052601260045260246000fd5b500490565b80820281158282048414176200021a576200021a620002a7565b808201808211156200021a576200021a620002a7565b60805160a05160c05160e0516101005161058a620003cb600039600081816101840152818161030b015261041701526000818160e70152818161025a0152818161033e01526103f401526000818161010e015281816101bc0152818161028e0152818161035f01526103d101526000818161015d01526102bc01526000818160b80152818161020d01528181610235015281816102e001526103a1015261058a6000f3fe608060405234801561001057600080fd5b50600436106100885760003560e01c80639cd3fdb51161005b5780639cd3fdb514610109578063c8284e6d14610130578063f81d438114610158578063fc4b2b781461017f57600080fd5b806342568d441461008d57806350ced104146100b357806354fd4d50146100da5780639aec06ea146100e2575b600080fd5b6100a061009b3660046104bd565b6101a6565b6040519081526020015b60405180910390f35b6100a07f000000000000000000000000000000000000000000000000000000000000000081565b6100a0600181565b6100a07f000000000000000000000000000000000000000000000000000000000000000081565b6100a07f000000000000000000000000000000000000000000000000000000000000000081565b610138610397565b6040805194855260208501939093529183015260608201526080016100aa565b6100a07f000000000000000000000000000000000000000000000000000000000000000081565b6100a07f000000000000000000000000000000000000000000000000000000000000000081565b60008215806101b457508183105b156101e057507f0000000000000000000000000000000000000000000000000000000000000000610391565b6000836101ed84826104f5565b6101ff90670de0b6b3a7640000610508565b610209919061051f565b90507f00000000000000000000000000000000000000000000000000000000000000008110156102ba577f000000000000000000000000000000000000000000000000000000000000000061027e827f0000000000000000000000000000000000000000000000000000000000000000610508565b610288919061051f565b6102b2907f0000000000000000000000000000000000000000000000000000000000000000610541565b915050610391565b7f00000000000000000000000000000000000000000000000000000000000000006103057f0000000000000000000000000000000000000000000000000000000000000000836104f5565b61032f907f0000000000000000000000000000000000000000000000000000000000000000610508565b610339919061051f565b6103837f00000000000000000000000000000000000000000000000000000000000000007f0000000000000000000000000000000000000000000000000000000000000000610541565b61038d9190610541565b9150505b92915050565b60008080806103ce7f0000000000000000000000000000000000000000000000000000000000000000670de0b6b3a764000061048a565b947f000000000000000000000000000000000000000000000000000000000000000094507f000000000000000000000000000000000000000000000000000000000000000093507f000000000000000000000000000000000000000000000000000000000000000092509050565b6000821580610449575081155b1561045657506000610391565b620f424061046560028261051f565b61046f8486610508565b6104799190610541565b610483919061051f565b9392505050565b60008061049860028461051f565b905082816104a9620f424087610508565b6104b39190610541565b61038d919061051f565b600080604083850312156104d057600080fd5b50508035926020909101359150565b634e487b7160e01b600052601160045260246000fd5b81810381811115610391576103916104df565b8082028115828204841417610391576103916104df565b60008261053c57634e487b7160e01b600052601260045260246000fd5b500490565b80820180821115610391576103916104df56fea2646970667358221220ba666574d4cdb30e90b9588b803399e01f505e5ce36d174e3320547b5cf4a4f764736f6c63430008110033",
    "linkReferences": {}
  },
  "methodIdentifiers": {
    "_R_base_RAY()": "9cd3fdb5",
    "_R_slope1_RAY()": "9aec06ea",
    "_R_slope2_RAY()": "fc4b2b78",
    "_U_Optimal_WAD()": "50ced104",
    "_U_Optimal_inverted_WAD()": "f81d4381",
    "calcBorrowRate(uint256,uint256)": "42568d44",
    "getModelParameters()": "c8284e6d",
    "version()": "54fd4d50"
  },
  "id": 44
}