{
  "abi": [
    {
      "inputs": [
        {
          "internalType": "uint256",
          "name": "U_optimal",
          "type": "uint256"
        },
        {
          "internalType": "uint256",
          "name": "R_base",
          "type": "uint256"
        },
        {
          "internalType": "uint256",
          "name": "R_slope1",
          "type": "uint256"
        },
        {
          "internalType": "uint256",
          "name": "R_slope2",
          "type": "uint256"
        }
      ],
      "stateMutability": "nonpayable",
      "type": "constructor"
    },
    {
      "inputs": [],
      "name": "_R_base_RAY",
      "outputs": [
        {
          "internalType": "uint256",
          "name": "",
          "type": "uint256"
        }
      ],
      "stateMutability": "view",
      "type": "function"
    },
    {
      "inputs": [],
      "name": "_R_slope1_RAY",
      "outputs": [
        {
          "internalType": "uint256",
          "name": "",
          "type": "uint256"
        }
      ],
      "stateMutability": "view",
      "type": "function"
    },
    {
      "inputs": [],
      "name": "_R_slope2_RAY",
      "outputs": [
        {
          "internalType": "uint256",
          "name": "",
          "type": "uint256"
        }
      ],
      "stateMutability": "view",
      "type": "function"
    },
    {
      "inputs": [],
      "name": "_U_Optimal_WAD",
      "outputs": [
        {
          "internalType": "uint256",
          "name": "",
          "type": "uint256"
        }
      ],
      "stateMutability": "view",
      "type": "function"
    },
    {
      "inputs": [],
      "name": "_U_Optimal_inverted_WAD",
      "outputs": [
        {
          "internalType": "uint256",
          "name": "",
          "type": "uint256"
        }
      ],
      "stateMutability": "view",
      "type": "function"
    },
    {
      "inputs": [
        {
          "internalType": "uint256",
          "name": "expectedLiquidity",
          "type": "uint256"
        },
        {
          "internalType": "uint256",
          "name": "availableLiquidity",
          "type": "uint256"
        }
      ],
      "name": "calcBorrowRate",
      "outputs": [
        {
          "internalType": "uint256",
          "name": "",
          "type": "uint256"
        }
      ],
      "stateMutability": "view",
      "type": "function"
    },
    {
      "inputs": [],
      "name": "getModelParameters",
      "outputs": [
        {
          "internalType": "uint256",
          "name": "U_optimal",
          "type": "uint256"
        },
        {
          "internalType": "uint256",
          "name": "R_base",
          "type": "uint256"
        },
        {
          "internalType": "uint256",
          "name": "R_slope1",
          "type": "uint256"
        },
        {
          "internalType": "uint256",
          "name": "R_slope2",
          "type": "uint256"
        }
      ],
      "stateMutability": "view",
      "type": "function"
    },
    {
      "inputs": [],
      "name": "version",
      "outputs": [
        {
          "internalType": "uint256",
          "name": "",
          "type": "uint256"
        }
      ],
      "stateMutability": "view",
      "type": "function"
    }
  ],
  "bytecode": {
    "object": "0x6101206040523480156200001257600080fd5b5060405162000e5f38038062000e5f833981810160405281019062000038919062000342565b620f42408411156040518060400160405280600281526020017f495000000000000000000000000000000000000000000000000000000000000081525090620000b9576040517f08c379a0000000000000000000000000000000000000000000000000000000008152600401620000b091906200044e565b60405180910390fd5b50620f42408311156040518060400160405280600281526020017f4950000000000000000000000000000000000000000000000000000000000000815250906200013b576040517f08c379a00000000000000000000000000000000000000000000000000000000081526004016200013291906200044e565b60405180910390fd5b50620f42408211156040518060400160405280600281526020017f495000000000000000000000000000000000000000000000000000000000000081525090620001bd576040517f08c379a0000000000000000000000000000000000000000000000000000000008152600401620001b491906200044e565b60405180910390fd5b506000620001e285670de0b6b3a76400006200029c60201b620004fb1790919060201c565b9050806080818152505080670de0b6b3a7640000620002029190620004a1565b60a081815250506200022f846b033b2e3c9fd0803ce80000006200029c60201b620004fb1790919060201c565b60c081815250506200025c836b033b2e3c9fd0803ce80000006200029c60201b620004fb1790919060201c565b60e0818152505062000289826b033b2e3c9fd0803ce80000006200029c60201b620004fb1790919060201c565b61010081815250505050505050620005c9565b600080831480620002ad5750600082145b15620002bd5760009050620002fc565b620f42406002620f4240620002d391906200050b565b8385620002e1919062000543565b620002ed91906200058e565b620002f991906200050b565b90505b92915050565b600080fd5b6000819050919050565b6200031c8162000307565b81146200032857600080fd5b50565b6000815190506200033c8162000311565b92915050565b600080600080608085870312156200035f576200035e62000302565b5b60006200036f878288016200032b565b945050602062000382878288016200032b565b935050604062000395878288016200032b565b9250506060620003a8878288016200032b565b91505092959194509250565b600081519050919050565b600082825260208201905092915050565b60005b83811015620003f0578082015181840152602081019050620003d3565b60008484015250505050565b6000601f19601f8301169050919050565b60006200041a82620003b4565b620004268185620003bf565b935062000438818560208601620003d0565b6200044381620003fc565b840191505092915050565b600060208201905081810360008301526200046a81846200040d565b905092915050565b7f4e487b7100000000000000000000000000000000000000000000000000000000600052601160045260246000fd5b6000620004ae8262000307565b9150620004bb8362000307565b9250828203905081811115620004d657620004d562000472565b5b92915050565b7f4e487b7100000000000000000000000000000000000000000000000000000000600052601260045260246000fd5b6000620005188262000307565b9150620005258362000307565b925082620005385762000537620004dc565b5b828204905092915050565b6000620005508262000307565b91506200055d8362000307565b92508282026200056d8162000307565b9150828204841483151762000587576200058662000472565b5b5092915050565b60006200059b8262000307565b9150620005a88362000307565b9250828201905080821115620005c357620005c262000472565b5b92915050565b60805160a05160c05160e051610100516107ef62000670600039600081816102fd0152818161048c01526104d901526000818161024801528181610332015281816103bb01526104690152600081816101a80152818161027d01528181610353015281816103df01526104460152600081816102b001526104b50152600081816101fe01528181610226015281816102d101528181610392015261041501526107ef6000f3fe608060405234801561001057600080fd5b50600436106100885760003560e01c80639cd3fdb51161005b5780639cd3fdb514610117578063c8284e6d14610135578063f81d438114610156578063fc4b2b781461017457610088565b806342568d441461008d57806350ced104146100bd57806354fd4d50146100db5780639aec06ea146100f9575b600080fd5b6100a760048036038101906100a291906105d1565b610192565b6040516100b49190610620565b60405180910390f35b6100c5610390565b6040516100d29190610620565b60405180910390f35b6100e36103b4565b6040516100f09190610620565b60405180910390f35b6101016103b9565b60405161010e9190610620565b60405180910390f35b61011f6103dd565b60405161012c9190610620565b60405180910390f35b61013d610401565b60405161014d949392919061063b565b60405180910390f35b61015e6104b3565b60405161016b9190610620565b60405180910390f35b61017c6104d7565b6040516101899190610620565b60405180910390f35b6000808314806101a157508183105b156101ce577f0000000000000000000000000000000000000000000000000000000000000000905061038a565b60008383856101dd91906106af565b670de0b6b3a76400006101f091906106e3565b6101fa9190610754565b90507f00000000000000000000000000000000000000000000000000000000000000008110156102ae577f0000000000000000000000000000000000000000000000000000000000000000817f000000000000000000000000000000000000000000000000000000000000000061027191906106e3565b61027b9190610754565b7f00000000000000000000000000000000000000000000000000000000000000006102a69190610785565b91505061038a565b7f00000000000000000000000000000000000000000000000000000000000000007f0000000000000000000000000000000000000000000000000000000000000000826102fb91906106af565b7f000000000000000000000000000000000000000000000000000000000000000061032691906106e3565b6103309190610754565b7f00000000000000000000000000000000000000000000000000000000000000007f000000000000000000000000000000000000000000000000000000000000000061037c9190610785565b6103869190610785565b9150505b92915050565b7f000000000000000000000000000000000000000000000000000000000000000081565b600181565b7f000000000000000000000000000000000000000000000000000000000000000081565b7f000000000000000000000000000000000000000000000000000000000000000081565b600080600080610442670de0b6b3a76400007f000000000000000000000000000000000000000000000000000000000000000061055690919063ffffffff16565b93507f000000000000000000000000000000000000000000000000000000000000000092507f000000000000000000000000000000000000000000000000000000000000000091507f0000000000000000000000000000000000000000000000000000000000000000905090919293565b7f000000000000000000000000000000000000000000000000000000000000000081565b7f000000000000000000000000000000000000000000000000000000000000000081565b60008083148061050b5750600082145b156105195760009050610550565b620f42406002620f424061052d9190610754565b838561053991906106e3565b6105439190610785565b61054d9190610754565b90505b92915050565b6000806002836105669190610754565b90508281620f42408661057991906106e3565b6105839190610785565b61058d9190610754565b91505092915050565b600080fd5b6000819050919050565b6105ae8161059b565b81146105b957600080fd5b50565b6000813590506105cb816105a5565b92915050565b600080604083850312156105e8576105e7610596565b5b60006105f6858286016105bc565b9250506020610607858286016105bc565b9150509250929050565b61061a8161059b565b82525050565b60006020820190506106356000830184610611565b92915050565b60006080820190506106506000830187610611565b61065d6020830186610611565b61066a6040830185610611565b6106776060830184610611565b95945050505050565b7f4e487b7100000000000000000000000000000000000000000000000000000000600052601160045260246000fd5b60006106ba8261059b565b91506106c58361059b565b92508282039050818111156106dd576106dc610680565b5b92915050565b60006106ee8261059b565b91506106f98361059b565b92508282026107078161059b565b9150828204841483151761071e5761071d610680565b5b5092915050565b7f4e487b7100000000000000000000000000000000000000000000000000000000600052601260045260246000fd5b600061075f8261059b565b915061076a8361059b565b92508261077a57610779610725565b5b828204905092915050565b60006107908261059b565b915061079b8361059b565b92508282019050808211156107b3576107b2610680565b5b9291505056fea26469706673582212201f61676c8d39d3bc26e138922157f08d47651cfcca39a6f1fc9c064a1e9661f364736f6c63430008110033",
    "linkReferences": {}
  },
  "methodIdentifiers": {
    "_R_base_RAY()": "9cd3fdb5",
    "_R_slope1_RAY()": "9aec06ea",
    "_R_slope2_RAY()": "fc4b2b78",
    "_U_Optimal_WAD()": "50ced104",
    "_U_Optimal_inverted_WAD()": "f81d4381",
    "calcBorrowRate(uint256,uint256)": "42568d44",
    "getModelParameters()": "c8284e6d",
    "version()": "54fd4d50"
  },
  "id": 47
}