{
  "abi": [
    {
      "anonymous": false,
      "inputs": [
        {
          "indexed": false,
          "internalType": "uint256",
          "name": "price",
          "type": "uint256"
        },
        {
          "indexed": false,
          "internalType": "uint256",
          "name": "timestamp",
          "type": "uint256"
        },
        {
          "indexed": false,
          "internalType": "uint8",
          "name": "indexAt",
          "type": "uint8"
        }
      ],
      "name": "PriceUpdated",
      "type": "event"
    },
    {
      "inputs": [],
      "name": "currentObservationIndex",
      "outputs": [
        {
          "internalType": "uint8",
          "name": "",
          "type": "uint8"
        }
      ],
      "stateMutability": "view",
      "type": "function"
    },
    {
      "inputs": [
        {
          "internalType": "uint256",
          "name": "",
          "type": "uint256"
        }
      ],
      "name": "observations",
      "outputs": [
        {
          "internalType": "uint256",
          "name": "price",
          "type": "uint256"
        },
        {
          "internalType": "uint256",
          "name": "priceCumulative",
          "type": "uint256"
        },
        {
          "internalType": "uint256",
          "name": "timestamp",
          "type": "uint256"
        }
      ],
      "stateMutability": "view",
      "type": "function"
    }
  ],
  "bytecode": {
    "object": "0x608060405234801561001057600080fd5b506101eb806100206000396000f3fe608060405234801561001057600080fd5b50600436106100365760003560e01c8063252c09d71461003b578063aed3aff71461006d575b600080fd5b6100556004803603810190610050919061010b565b61008b565b60405161006493929190610147565b60405180910390f35b6100756100bc565b604051610082919061019a565b60405180910390f35b600081610100811061009c57600080fd5b600302016000915090508060000154908060010154908060020154905083565b61030060009054906101000a900460ff1681565b600080fd5b6000819050919050565b6100e8816100d5565b81146100f357600080fd5b50565b600081359050610105816100df565b92915050565b600060208284031215610121576101206100d0565b5b600061012f848285016100f6565b91505092915050565b610141816100d5565b82525050565b600060608201905061015c6000830186610138565b6101696020830185610138565b6101766040830184610138565b949350505050565b600060ff82169050919050565b6101948161017e565b82525050565b60006020820190506101af600083018461018b565b9291505056fea2646970667358221220806b34f8a6311173440dc5ee2a42229d62efca3794d71ea3421e63c1e0072b7c64736f6c63430008110033",
    "linkReferences": {}
  },
  "methodIdentifiers": {
    "currentObservationIndex()": "aed3aff7",
    "observations(uint256)": "252c09d7"
  },
  "id": 25
}