{
  "abi": [
    {
      "inputs": [],
      "stateMutability": "nonpayable",
      "type": "constructor"
    },
    {
      "inputs": [],
      "name": "allRoundDataShouldRevert",
      "outputs": [
        {
          "internalType": "bool",
          "name": "",
          "type": "bool"
        }
      ],
      "stateMutability": "view",
      "type": "function"
    },
    {
      "inputs": [],
      "name": "decimals",
      "outputs": [
        {
          "internalType": "uint8",
          "name": "",
          "type": "uint8"
        }
      ],
      "stateMutability": "view",
      "type": "function"
    },
    {
      "inputs": [
        {
          "internalType": "uint256",
          "name": "",
          "type": "uint256"
        }
      ],
      "name": "entries",
      "outputs": [
        {
          "internalType": "uint80",
          "name": "roundId",
          "type": "uint80"
        },
        {
          "internalType": "int256",
          "name": "answer",
          "type": "int256"
        },
        {
          "internalType": "uint256",
          "name": "startedAt",
          "type": "uint256"
        },
        {
          "internalType": "uint256",
          "name": "updatedAt",
          "type": "uint256"
        },
        {
          "internalType": "uint80",
          "name": "answeredInRound",
          "type": "uint80"
        }
      ],
      "stateMutability": "view",
      "type": "function"
    },
    {
      "inputs": [
        {
          "internalType": "uint256",
          "name": "_roundId",
          "type": "uint256"
        }
      ],
      "name": "getAnswer",
      "outputs": [
        {
          "internalType": "int256",
          "name": "",
          "type": "int256"
        }
      ],
      "stateMutability": "view",
      "type": "function"
    },
    {
      "inputs": [
        {
          "internalType": "uint80",
          "name": "_roundId",
          "type": "uint80"
        }
      ],
      "name": "getRoundData",
      "outputs": [
        {
          "internalType": "uint80",
          "name": "",
          "type": "uint80"
        },
        {
          "internalType": "int256",
          "name": "",
          "type": "int256"
        },
        {
          "internalType": "uint256",
          "name": "",
          "type": "uint256"
        },
        {
          "internalType": "uint256",
          "name": "",
          "type": "uint256"
        },
        {
          "internalType": "uint80",
          "name": "",
          "type": "uint80"
        }
      ],
      "stateMutability": "view",
      "type": "function"
    },
    {
      "inputs": [
        {
          "internalType": "uint256",
          "name": "_roundId",
          "type": "uint256"
        }
      ],
      "name": "getTimestamp",
      "outputs": [
        {
          "internalType": "uint256",
          "name": "",
          "type": "uint256"
        }
      ],
      "stateMutability": "view",
      "type": "function"
    },
    {
      "inputs": [],
      "name": "keyDecimals",
      "outputs": [
        {
          "internalType": "uint8",
          "name": "",
          "type": "uint8"
        }
      ],
      "stateMutability": "view",
      "type": "function"
    },
    {
      "inputs": [],
      "name": "latestRound",
      "outputs": [
        {
          "internalType": "uint256",
          "name": "",
          "type": "uint256"
        }
      ],
      "stateMutability": "view",
      "type": "function"
    },
    {
      "inputs": [],
      "name": "latestRoundData",
      "outputs": [
        {
          "internalType": "uint80",
          "name": "",
          "type": "uint80"
        },
        {
          "internalType": "int256",
          "name": "",
          "type": "int256"
        },
        {
          "internalType": "uint256",
          "name": "",
          "type": "uint256"
        },
        {
          "internalType": "uint256",
          "name": "",
          "type": "uint256"
        },
        {
          "internalType": "uint80",
          "name": "",
          "type": "uint80"
        }
      ],
      "stateMutability": "view",
      "type": "function"
    },
    {
      "inputs": [],
      "name": "latestRoundDataShouldRevert",
      "outputs": [
        {
          "internalType": "bool",
          "name": "",
          "type": "bool"
        }
      ],
      "stateMutability": "view",
      "type": "function"
    },
    {
      "inputs": [],
      "name": "roundId",
      "outputs": [
        {
          "internalType": "uint80",
          "name": "",
          "type": "uint80"
        }
      ],
      "stateMutability": "view",
      "type": "function"
    },
    {
      "inputs": [
        {
          "internalType": "bool",
          "name": "_shouldRevert",
          "type": "bool"
        }
      ],
      "name": "setAllRoundDataShouldRevert",
      "outputs": [],
      "stateMutability": "nonpayable",
      "type": "function"
    },
    {
      "inputs": [
        {
          "internalType": "uint8",
          "name": "_decimals",
          "type": "uint8"
        }
      ],
      "name": "setDecimals",
      "outputs": [],
      "stateMutability": "nonpayable",
      "type": "function"
    },
    {
      "inputs": [
        {
          "internalType": "int256",
          "name": "answer",
          "type": "int256"
        },
        {
          "internalType": "uint256",
          "name": "timestamp",
          "type": "uint256"
        }
      ],
      "name": "setLatestAnswer",
      "outputs": [],
      "stateMutability": "nonpayable",
      "type": "function"
    },
    {
      "inputs": [
        {
          "internalType": "int256",
          "name": "answer",
          "type": "int256"
        },
        {
          "internalType": "uint256",
          "name": "timestamp",
          "type": "uint256"
        },
        {
          "internalType": "uint80",
          "name": "_roundId",
          "type": "uint80"
        }
      ],
      "name": "setLatestAnswerWithRound",
      "outputs": [],
      "stateMutability": "nonpayable",
      "type": "function"
    },
    {
      "inputs": [
        {
          "internalType": "bool",
          "name": "_shouldRevert",
          "type": "bool"
        }
      ],
      "name": "setLatestRoundDataShouldRevert",
      "outputs": [],
      "stateMutability": "nonpayable",
      "type": "function"
    }
  ],
  "bytecode": {
    "object": "0x608060405260008060006101000a81548169ffffffffffffffffffff021916908369ffffffffffffffffffff160217905550600080600a6101000a81548160ff021916908360ff16021790555034801561005857600080fd5b50610f9a806100686000396000f3fe608060405234801561001057600080fd5b50600436106101005760003560e01c80639a6fc8f511610097578063b633620c11610066578063b633620c146102a3578063e9c58f85146102d3578063fc8f20a7146102ef578063feaf968c1461030d57610100565b80639a6fc8f5146101ef578063b19cafe114610223578063b30906d41461023f578063b5ab58dc1461027357610100565b8063668a0f02116100d3578063668a0f021461017b5780637a1395aa146101995780637b28d483146101b55780638cd221c9146101d157610100565b80632c746cae146101055780632f1b9a0c14610123578063313ce5671461014157806357d4f5e01461015f575b600080fd5b61010d61032f565b60405161011a9190610aa6565b60405180910390f35b61012b610342565b6040516101389190610adc565b60405180910390f35b610149610355565b6040516101569190610aa6565b60405180910390f35b61017960048036038101906101749190610b28565b61036b565b005b610183610388565b6040516101909190610b6e565b60405180910390f35b6101b360048036038101906101ae9190610bb5565b6103b3565b005b6101cf60048036038101906101ca9190610c86565b6103d1565b005b6101d961052a565b6040516101e69190610ce8565b60405180910390f35b61020960048036038101906102049190610d03565b610544565b60405161021a959493929190610d3f565b60405180910390f35b61023d60048036038101906102389190610b28565b610685565b005b61025960048036038101906102549190610d92565b6106a2565b60405161026a959493929190610d3f565b60405180910390f35b61028d60048036038101906102889190610d92565b610704565b60405161029a9190610dbf565b60405180910390f35b6102bd60048036038101906102b89190610d92565b6107c2565b6040516102ca9190610b6e565b60405180910390f35b6102ed60048036038101906102e89190610dda565b610880565b005b6102f76109fe565b6040516103049190610adc565b60405180910390f35b610315610a11565b604051610326959493929190610d3f565b60405180910390f35b6000600a9054906101000a900460ff1681565b600260019054906101000a900460ff1681565b600080600a9054906101000a900460ff16905090565b80600260006101000a81548160ff02191690831515021790555050565b60008060009054906101000a900469ffffffffffffffffffff1669ffffffffffffffffffff16905090565b806000600a6101000a81548160ff021916908360ff16021790555050565b806000806101000a81548169ffffffffffffffffffff021916908369ffffffffffffffffffff1602179055506040518060a0016040528060008054906101000a900469ffffffffffffffffffff1669ffffffffffffffffffff16815260200184815260200183815260200183815260200160008054906101000a900469ffffffffffffffffffff1669ffffffffffffffffffff16815250600160008060009054906101000a900469ffffffffffffffffffff1669ffffffffffffffffffff16815260200190815260200160002060008201518160000160006101000a81548169ffffffffffffffffffff021916908369ffffffffffffffffffff16021790555060208201518160010155604082015181600201556060820151816003015560808201518160040160006101000a81548169ffffffffffffffffffff021916908369ffffffffffffffffffff160217905550905050505050565b60008054906101000a900469ffffffffffffffffffff1681565b6000806000806000600260009054906101000a900460ff161561059c576040517f08c379a000000000000000000000000000000000000000000000000000000000815260040161059390610e77565b60405180910390fd5b6000600160008869ffffffffffffffffffff1681526020019081526020016000206040518060a00160405290816000820160009054906101000a900469ffffffffffffffffffff1669ffffffffffffffffffff1669ffffffffffffffffffff1681526020016001820154815260200160028201548152602001600382015481526020016004820160009054906101000a900469ffffffffffffffffffff1669ffffffffffffffffffff1669ffffffffffffffffffff1681525050905080600001518160200151826040015183606001518460800151955095509550955095505091939590929450565b80600260016101000a81548160ff02191690831515021790555050565b60016020528060005260406000206000915090508060000160009054906101000a900469ffffffffffffffffffff16908060010154908060020154908060030154908060040160009054906101000a900469ffffffffffffffffffff16905085565b600080600160008481526020019081526020016000206040518060a00160405290816000820160009054906101000a900469ffffffffffffffffffff1669ffffffffffffffffffff1669ffffffffffffffffffff1681526020016001820154815260200160028201548152602001600382015481526020016004820160009054906101000a900469ffffffffffffffffffff1669ffffffffffffffffffff1669ffffffffffffffffffff168152505090508060200151915050919050565b600080600160008481526020019081526020016000206040518060a00160405290816000820160009054906101000a900469ffffffffffffffffffff1669ffffffffffffffffffff1669ffffffffffffffffffff1681526020016001820154815260200160028201548152602001600382015481526020016004820160009054906101000a900469ffffffffffffffffffff1669ffffffffffffffffffff1669ffffffffffffffffffff168152505090508060600151915050919050565b60008081819054906101000a900469ffffffffffffffffffff16809291906108a790610ec6565b91906101000a81548169ffffffffffffffffffff021916908369ffffffffffffffffffff160217905550506040518060a0016040528060008054906101000a900469ffffffffffffffffffff1669ffffffffffffffffffff16815260200183815260200182815260200182815260200160008054906101000a900469ffffffffffffffffffff1669ffffffffffffffffffff16815250600160008060009054906101000a900469ffffffffffffffffffff1669ffffffffffffffffffff16815260200190815260200160002060008201518160000160006101000a81548169ffffffffffffffffffff021916908369ffffffffffffffffffff16021790555060208201518160010155604082015181600201556060820151816003015560808201518160040160006101000a81548169ffffffffffffffffffff021916908369ffffffffffffffffffff1602179055509050505050565b600260009054906101000a900460ff1681565b6000806000806000600260019054906101000a900460ff1615610a69576040517f08c379a0000000000000000000000000000000000000000000000000000000008152600401610a6090610f44565b60405180910390fd5b610a79610a74610388565b610544565b945094509450945094509091929394565b600060ff82169050919050565b610aa081610a8a565b82525050565b6000602082019050610abb6000830184610a97565b92915050565b60008115159050919050565b610ad681610ac1565b82525050565b6000602082019050610af16000830184610acd565b92915050565b600080fd5b610b0581610ac1565b8114610b1057600080fd5b50565b600081359050610b2281610afc565b92915050565b600060208284031215610b3e57610b3d610af7565b5b6000610b4c84828501610b13565b91505092915050565b6000819050919050565b610b6881610b55565b82525050565b6000602082019050610b836000830184610b5f565b92915050565b610b9281610a8a565b8114610b9d57600080fd5b50565b600081359050610baf81610b89565b92915050565b600060208284031215610bcb57610bca610af7565b5b6000610bd984828501610ba0565b91505092915050565b6000819050919050565b610bf581610be2565b8114610c0057600080fd5b50565b600081359050610c1281610bec565b92915050565b610c2181610b55565b8114610c2c57600080fd5b50565b600081359050610c3e81610c18565b92915050565b600069ffffffffffffffffffff82169050919050565b610c6381610c44565b8114610c6e57600080fd5b50565b600081359050610c8081610c5a565b92915050565b600080600060608486031215610c9f57610c9e610af7565b5b6000610cad86828701610c03565b9350506020610cbe86828701610c2f565b9250506040610ccf86828701610c71565b9150509250925092565b610ce281610c44565b82525050565b6000602082019050610cfd6000830184610cd9565b92915050565b600060208284031215610d1957610d18610af7565b5b6000610d2784828501610c71565b91505092915050565b610d3981610be2565b82525050565b600060a082019050610d546000830188610cd9565b610d616020830187610d30565b610d6e6040830186610b5f565b610d7b6060830185610b5f565b610d886080830184610cd9565b9695505050505050565b600060208284031215610da857610da7610af7565b5b6000610db684828501610c2f565b91505092915050565b6000602082019050610dd46000830184610d30565b92915050565b60008060408385031215610df157610df0610af7565b5b6000610dff85828601610c03565b9250506020610e1085828601610c2f565b9150509250929050565b600082825260208201905092915050565b7f676574526f756e64446174612072657665727465640000000000000000000000600082015250565b6000610e61601583610e1a565b9150610e6c82610e2b565b602082019050919050565b60006020820190508181036000830152610e9081610e54565b9050919050565b7f4e487b7100000000000000000000000000000000000000000000000000000000600052601160045260246000fd5b6000610ed182610c44565b915069ffffffffffffffffffff8203610eed57610eec610e97565b5b600182019050919050565b7f6c6174657374526f756e64446174612072657665727465640000000000000000600082015250565b6000610f2e601883610e1a565b9150610f3982610ef8565b602082019050919050565b60006020820190508181036000830152610f5d81610f21565b905091905056fea2646970667358221220f2906173feb40caa55c89dbecce9bc13d9fdb28ad12ef245134a952fdee62d1664736f6c63430008110033",
    "linkReferences": {}
  },
  "methodIdentifiers": {
    "allRoundDataShouldRevert()": "fc8f20a7",
    "decimals()": "313ce567",
    "entries(uint256)": "b30906d4",
    "getAnswer(uint256)": "b5ab58dc",
    "getRoundData(uint80)": "9a6fc8f5",
    "getTimestamp(uint256)": "b633620c",
    "keyDecimals()": "2c746cae",
    "latestRound()": "668a0f02",
    "latestRoundData()": "feaf968c",
    "latestRoundDataShouldRevert()": "2f1b9a0c",
    "roundId()": "8cd221c9",
    "setAllRoundDataShouldRevert(bool)": "57d4f5e0",
    "setDecimals(uint8)": "7a1395aa",
    "setLatestAnswer(int256,uint256)": "e9c58f85",
    "setLatestAnswerWithRound(int256,uint256,uint80)": "7b28d483",
    "setLatestRoundDataShouldRevert(bool)": "b19cafe1"
  },
  "id": 36
}