{
  "abi": [
    {
      "inputs": [],
      "stateMutability": "nonpayable",
      "type": "constructor"
    },
    {
      "inputs": [
        {
          "internalType": "address",
          "name": "_token",
          "type": "address"
        },
        {
          "internalType": "address",
          "name": "_priceFeedAggregator",
          "type": "address"
        }
      ],
      "name": "addPriceFeed",
      "outputs": [],
      "stateMutability": "nonpayable",
      "type": "function"
    },
    {
      "inputs": [
        {
          "internalType": "uint256",
          "name": "amount",
          "type": "uint256"
        },
        {
          "internalType": "address",
          "name": "tokenFrom",
          "type": "address"
        },
        {
          "internalType": "address",
          "name": "tokenTo",
          "type": "address"
        }
      ],
      "name": "convert",
      "outputs": [
        {
          "internalType": "uint256",
          "name": "",
          "type": "uint256"
        }
      ],
      "stateMutability": "view",
      "type": "function"
    },
    {
      "inputs": [
        {
          "internalType": "uint256",
          "name": "amount",
          "type": "uint256"
        },
        {
          "internalType": "address",
          "name": "token",
          "type": "address"
        }
      ],
      "name": "convertFromUSD",
      "outputs": [
        {
          "internalType": "uint256",
          "name": "",
          "type": "uint256"
        }
      ],
      "stateMutability": "view",
      "type": "function"
    },
    {
      "inputs": [
        {
          "internalType": "int256",
          "name": "amount",
          "type": "int256"
        },
        {
          "internalType": "address",
          "name": "token",
          "type": "address"
        }
      ],
      "name": "convertToUSD",
      "outputs": [
        {
          "internalType": "int256",
          "name": "value",
          "type": "int256"
        }
      ],
      "stateMutability": "view",
      "type": "function"
    },
    {
      "inputs": [
        {
          "internalType": "address",
          "name": "_token",
          "type": "address"
        }
      ],
      "name": "eed",
      "outputs": [],
      "stateMutability": "nonpayable",
      "type": "function"
    },
    {
      "inputs": [
        {
          "internalType": "uint256",
          "name": "amountFrom",
          "type": "uint256"
        },
        {
          "internalType": "address",
          "name": "tokenFrom",
          "type": "address"
        },
        {
          "internalType": "uint256",
          "name": "amountTo",
          "type": "uint256"
        },
        {
          "internalType": "address",
          "name": "tokenTo",
          "type": "address"
        }
      ],
      "name": "fastCheck",
      "outputs": [
        {
          "internalType": "uint256",
          "name": "collateralFrom",
          "type": "uint256"
        },
        {
          "internalType": "uint256",
          "name": "collateralTo",
          "type": "uint256"
        }
      ],
      "stateMutability": "view",
      "type": "function"
    },
    {
      "inputs": [
        {
          "internalType": "address",
          "name": "token",
          "type": "address"
        }
      ],
      "name": "priceFeeds",
      "outputs": [
        {
          "internalType": "address",
          "name": "",
          "type": "address"
        }
      ],
      "stateMutability": "view",
      "type": "function"
    },
    {
      "inputs": [
        {
          "internalType": "address",
          "name": "",
          "type": "address"
        }
      ],
      "name": "tokenPriceFeed",
      "outputs": [
        {
          "internalType": "address",
          "name": "",
          "type": "address"
        }
      ],
      "stateMutability": "view",
      "type": "function"
    },
    {
      "inputs": [
        {
          "internalType": "address",
          "name": "_token",
          "type": "address"
        },
        {
          "internalType": "address",
          "name": "_priceFeedAggregator",
          "type": "address"
        }
      ],
      "name": "updatePriceFeed",
      "outputs": [],
      "stateMutability": "nonpayable",
      "type": "function"
    }
  ],
  "bytecode": {
    "object": "0x608060405234801561001057600080fd5b50610a52806100206000396000f3fe608060405234801561001057600080fd5b50600436106100935760003560e01c80639878cbb3116100665780639878cbb31461010e5780639dcb511a1461014f578063b66102df1461017b578063b7997da114610189578063e8a97a3e1461019c57600080fd5b806308ba9084146100985780631c034220146100be5780635cecbd0e146100d35780637afb0104146100fb575b600080fd5b6100ab6100a63660046106d6565b6101af565b6040519081526020015b60405180910390f35b6100d16100cc366004610702565b610207565b005b6100e66100e136600461071d565b6102c4565b604080519283526020830191909152016100b5565b6100ab6101093660046106d6565b610303565b61013761011c366004610702565b6000602081905290815260409020546001600160a01b031681565b6040516001600160a01b0390911681526020016100b5565b61013761015d366004610702565b6001600160a01b039081166000908152602081905260409020541690565b6100ab610109366004610763565b6100d161019736600461079f565b61034d565b6100d16101aa36600461079f565b61042e565b60008060006101bd8461047a565b915091506101e86101cd836105f4565b6101d883600a6108c3565b6101e1886105f4565b919061060b565b925060008512156101ff576101fc836108cf565b92505b505092915050565b6001600160a01b0381166102365760405162461bcd60e51b815260040161022d906108eb565b60405180910390fd5b6001600160a01b038181166000908152602081905260409020541661029d5760405162461bcd60e51b815260206004820152601e60248201527f504f3a204e6f7420616e206578697374696e6720507269636520466565640000604482015260640161022d565b6001600160a01b0316600090815260208190526040902080546001600160a01b0319169055565b60405162461bcd60e51b815260206004820152600f60248201526e139bdd081a5b5c1b195b595b9d1959608a1b6044820152600090819060640161022d565b60405162461bcd60e51b815260206004820152600f60248201526e139bdd081a5b5c1b195b595b9d1959608a1b604482015260009060640161022d565b92915050565b9392505050565b6001600160a01b0382166103735760405162461bcd60e51b815260040161022d906108eb565b6001600160a01b0381166103995760405162461bcd60e51b815260040161022d9061092d565b6001600160a01b03828116600090815260208190526040902054166104005760405162461bcd60e51b815260206004820152601e60248201527f504f3a204e6f7420616e206578697374696e6720507269636520466565640000604482015260640161022d565b6001600160a01b03918216600090815260208190526040902080546001600160a01b03191691909216179055565b6001600160a01b0382166104545760405162461bcd60e51b815260040161022d906108eb565b6001600160a01b0381166104005760405162461bcd60e51b815260040161022d9061092d565b6001600160a01b0381811660009081526020819052604081205490918291166104e55760405162461bcd60e51b815260206004820152601c60248201527f504f3a20546f6b656e2066656564206e6f7420617661696c61626c6500000000604482015260640161022d565b6001600160a01b03808416600090815260208190526040808220548151633fabe5a360e21b815291519293169163feaf968c9160048082019260a0929091908290030181865afa15801561053d573d6000803e3d6000fd5b505050506040513d601f19601f820116820180604052508101906105619190610993565b5050506001600160a01b0380871660009081526020818152604080832054815163313ce56760e01b81529151959750929550919092169263313ce567926004808401939192918290030181865afa1580156105c0573d6000803e3d6000fd5b505050506040513d601f19601f820116820180604052508101906105e491906109e3565b919560ff90921694509092505050565b6000808212156106075781600003610340565b5090565b60008080600019858709858702925082811083820303915050806000036106455783828161063b5761063b610a06565b0492505050610346565b80841161065157600080fd5b60008486880960026001871981018816978890046003810283188082028403028082028403028082028403028082028403028082028403029081029092039091026000889003889004909101858311909403939093029303949094049190911702949350505050565b80356001600160a01b03811681146106d157600080fd5b919050565b600080604083850312156106e957600080fd5b823591506106f9602084016106ba565b90509250929050565b60006020828403121561071457600080fd5b610346826106ba565b6000806000806080858703121561073357600080fd5b84359350610743602086016106ba565b925060408501359150610758606086016106ba565b905092959194509250565b60008060006060848603121561077857600080fd5b83359250610788602085016106ba565b9150610796604085016106ba565b90509250925092565b600080604083850312156107b257600080fd5b6107bb836106ba565b91506106f9602084016106ba565b634e487b7160e01b600052601160045260246000fd5b600181815b8085111561081a578160001904821115610800576108006107c9565b8085161561080d57918102915b93841c93908002906107e4565b509250929050565b60008261083157506001610340565b8161083e57506000610340565b8160018114610854576002811461085e5761087a565b6001915050610340565b60ff84111561086f5761086f6107c9565b50506001821b610340565b5060208310610133831016604e8410600b841016171561089d575081810a610340565b6108a783836107df565b80600019048211156108bb576108bb6107c9565b029392505050565b60006103468383610822565b6000600160ff1b82016108e4576108e46107c9565b5060000390565b60208082526022908201527f504f3a205a65726f20546f6b656e2041646472657373206e6f7420616c6c6f77604082015261195960f21b606082015260800190565b6020808252602c908201527f504f3a205a65726f20466565642041676772656761746f72204164647265737360408201526b081b9bdd08185b1b1bddd95960a21b606082015260800190565b805169ffffffffffffffffffff811681146106d157600080fd5b600080600080600060a086880312156109ab57600080fd5b6109b486610979565b94506020860151935060408601519250606086015191506109d760808701610979565b90509295509295909350565b6000602082840312156109f557600080fd5b815160ff8116811461034657600080fd5b634e487b7160e01b600052601260045260246000fdfea26469706673582212206139f8efcb69c0925fafc77d8e2a67a75c24c5ece69da305e13e33ffbf0463c264736f6c63430008110033",
    "linkReferences": {}
  },
  "methodIdentifiers": {
    "addPriceFeed(address,address)": "e8a97a3e",
    "convert(uint256,address,address)": "b66102df",
    "convertFromUSD(uint256,address)": "7afb0104",
    "convertToUSD(int256,address)": "08ba9084",
    "eed(address)": "1c034220",
    "fastCheck(uint256,address,uint256,address)": "5cecbd0e",
    "priceFeeds(address)": "9dcb511a",
    "tokenPriceFeed(address)": "9878cbb3",
    "updatePriceFeed(address,address)": "b7997da1"
  },
  "id": 38
}