{
  "abi": [
    {
      "inputs": [],
      "stateMutability": "nonpayable",
      "type": "constructor"
    },
    {
      "inputs": [
        {
          "internalType": "address",
          "name": "_token",
          "type": "address"
        },
        {
          "internalType": "address",
          "name": "_priceFeedAggregator",
          "type": "address"
        }
      ],
      "name": "addPriceFeed",
      "outputs": [],
      "stateMutability": "nonpayable",
      "type": "function"
    },
    {
      "inputs": [
        {
          "internalType": "uint256",
          "name": "amount",
          "type": "uint256"
        },
        {
          "internalType": "address",
          "name": "tokenFrom",
          "type": "address"
        },
        {
          "internalType": "address",
          "name": "tokenTo",
          "type": "address"
        }
      ],
      "name": "convert",
      "outputs": [
        {
          "internalType": "uint256",
          "name": "",
          "type": "uint256"
        }
      ],
      "stateMutability": "view",
      "type": "function"
    },
    {
      "inputs": [
        {
          "internalType": "uint256",
          "name": "amount",
          "type": "uint256"
        },
        {
          "internalType": "address",
          "name": "token",
          "type": "address"
        }
      ],
      "name": "convertFromUSD",
      "outputs": [
        {
          "internalType": "uint256",
          "name": "",
          "type": "uint256"
        }
      ],
      "stateMutability": "view",
      "type": "function"
    },
    {
      "inputs": [
        {
          "internalType": "uint256",
          "name": "amount",
          "type": "uint256"
        },
        {
          "internalType": "address",
          "name": "token",
          "type": "address"
        }
      ],
      "name": "convertToUSD",
      "outputs": [
        {
          "internalType": "uint256",
          "name": "value",
          "type": "uint256"
        }
      ],
      "stateMutability": "view",
      "type": "function"
    },
    {
      "inputs": [
        {
          "internalType": "uint256",
          "name": "amountFrom",
          "type": "uint256"
        },
        {
          "internalType": "address",
          "name": "tokenFrom",
          "type": "address"
        },
        {
          "internalType": "uint256",
          "name": "amountTo",
          "type": "uint256"
        },
        {
          "internalType": "address",
          "name": "tokenTo",
          "type": "address"
        }
      ],
      "name": "fastCheck",
      "outputs": [
        {
          "internalType": "uint256",
          "name": "collateralFrom",
          "type": "uint256"
        },
        {
          "internalType": "uint256",
          "name": "collateralTo",
          "type": "uint256"
        }
      ],
      "stateMutability": "view",
      "type": "function"
    },
    {
      "inputs": [
        {
          "internalType": "address",
          "name": "token",
          "type": "address"
        }
      ],
      "name": "priceFeeds",
      "outputs": [
        {
          "internalType": "address",
          "name": "",
          "type": "address"
        }
      ],
      "stateMutability": "view",
      "type": "function"
    },
    {
      "inputs": [
        {
          "internalType": "address",
          "name": "_token",
          "type": "address"
        }
      ],
      "name": "removePriceFeed",
      "outputs": [],
      "stateMutability": "nonpayable",
      "type": "function"
    },
    {
      "inputs": [
        {
          "internalType": "address",
          "name": "",
          "type": "address"
        }
      ],
      "name": "tokenPriceFeed",
      "outputs": [
        {
          "internalType": "address",
          "name": "",
          "type": "address"
        }
      ],
      "stateMutability": "view",
      "type": "function"
    },
    {
      "inputs": [
        {
          "internalType": "address",
          "name": "_token",
          "type": "address"
        },
        {
          "internalType": "address",
          "name": "_priceFeedAggregator",
          "type": "address"
        }
      ],
      "name": "updatePriceFeed",
      "outputs": [],
      "stateMutability": "nonpayable",
      "type": "function"
    }
  ],
  "bytecode": {
    "object": "0x608060405234801561001057600080fd5b5061094d806100206000396000f3fe608060405234801561001057600080fd5b50600436106100935760003560e01c8063b66102df11610066578063b66102df14610153578063b7997da114610161578063e8a97a3e14610176578063f9a6503014610189578063fceb00241461019c57600080fd5b80635cecbd0e146100985780637afb0104146100c55780639878cbb3146100e65780639dcb511a14610127575b600080fd5b6100ab6100a63660046106f3565b6101af565b604080519283526020830191909152015b60405180910390f35b6100d86100d3366004610739565b6101f3565b6040519081526020016100bc565b61010f6100f4366004610765565b6000602081905290815260409020546001600160a01b031681565b6040516001600160a01b0390911681526020016100bc565b61010f610135366004610765565b6001600160a01b039081166000908152602081905260409020541690565b6100d86100d3366004610780565b61017461016f3660046107bc565b610237565b005b6101746101843660046107bc565b610318565b6100d8610197366004610739565b610364565b6101746101aa366004610765565b610393565b60405162461bcd60e51b815260206004820152600f60248201526e139bdd081a5b5c1b195b595b9d1959608a1b604482015260009081906064015b60405180910390fd5b60405162461bcd60e51b815260206004820152600f60248201526e139bdd081a5b5c1b195b595b9d1959608a1b60448201526000906064016101ea565b9392505050565b6001600160a01b03821661025d5760405162461bcd60e51b81526004016101ea906107e6565b6001600160a01b0381166102835760405162461bcd60e51b81526004016101ea90610828565b6001600160a01b03828116600090815260208190526040902054166102ea5760405162461bcd60e51b815260206004820152601e60248201527f504f3a204e6f7420616e206578697374696e672050726963652046656564000060448201526064016101ea565b6001600160a01b03918216600090815260208190526040902080546001600160a01b03191691909216179055565b6001600160a01b03821661033e5760405162461bcd60e51b81526004016101ea906107e6565b6001600160a01b0381166102ea5760405162461bcd60e51b81526004016101ea90610828565b600080600061037284610447565b9150915061038a610382836105d2565b869083610628565b95945050505050565b6001600160a01b0381166103b95760405162461bcd60e51b81526004016101ea906107e6565b6001600160a01b03818116600090815260208190526040902054166104205760405162461bcd60e51b815260206004820152601e60248201527f504f3a204e6f7420616e206578697374696e672050726963652046656564000060448201526064016101ea565b6001600160a01b0316600090815260208190526040902080546001600160a01b0319169055565b6001600160a01b0381811660009081526020819052604081205490918291166104b25760405162461bcd60e51b815260206004820152601c60248201527f504f3a20546f6b656e2066656564206e6f7420617661696c61626c650000000060448201526064016101ea565b6001600160a01b03808416600090815260208190526040808220548151633fabe5a360e21b8152915192938493849384938493169163feaf968c9160048082019260a0929091908290030181865afa158015610512573d6000803e3d6000fd5b505050506040513d601f19601f82011682018060405250810190610536919061088e565b6001600160a01b03808e1660009081526020818152604080832054815163313ce56760e01b81529151999e50979c50959a50939850919650909493169263313ce5679260048082019392918290030181865afa15801561059a573d6000803e3d6000fd5b505050506040513d601f19601f820116820180604052508101906105be91906108de565b949960ff9095169850939650505050505050565b6000808212156106245760405162461bcd60e51b815260206004820181905260248201527f53616665436173743a2076616c7565206d75737420626520706f73697469766560448201526064016101ea565b5090565b60008080600019858709858702925082811083820303915050806000036106625783828161065857610658610901565b0492505050610230565b80841161066e57600080fd5b60008486880960026001871981018816978890046003810283188082028403028082028403028082028403028082028403028082028403029081029092039091026000889003889004909101858311909403939093029303949094049190911702949350505050565b80356001600160a01b03811681146106ee57600080fd5b919050565b6000806000806080858703121561070957600080fd5b84359350610719602086016106d7565b92506040850135915061072e606086016106d7565b905092959194509250565b6000806040838503121561074c57600080fd5b8235915061075c602084016106d7565b90509250929050565b60006020828403121561077757600080fd5b610230826106d7565b60008060006060848603121561079557600080fd5b833592506107a5602085016106d7565b91506107b3604085016106d7565b90509250925092565b600080604083850312156107cf57600080fd5b6107d8836106d7565b915061075c602084016106d7565b60208082526022908201527f504f3a205a65726f20546f6b656e2041646472657373206e6f7420616c6c6f77604082015261195960f21b606082015260800190565b6020808252602c908201527f504f3a205a65726f20466565642041676772656761746f72204164647265737360408201526b081b9bdd08185b1b1bddd95960a21b606082015260800190565b805169ffffffffffffffffffff811681146106ee57600080fd5b600080600080600060a086880312156108a657600080fd5b6108af86610874565b94506020860151935060408601519250606086015191506108d260808701610874565b90509295509295909350565b6000602082840312156108f057600080fd5b815160ff8116811461023057600080fd5b634e487b7160e01b600052601260045260246000fdfea2646970667358221220ac9543d85c013fc650b5f93eaf004bbd299db4b894739a03908bf88d24aa638164736f6c63430008110033",
    "linkReferences": {}
  },
  "methodIdentifiers": {
    "addPriceFeed(address,address)": "e8a97a3e",
    "convert(uint256,address,address)": "b66102df",
    "convertFromUSD(uint256,address)": "7afb0104",
    "convertToUSD(uint256,address)": "f9a65030",
    "fastCheck(uint256,address,uint256,address)": "5cecbd0e",
    "priceFeeds(address)": "9dcb511a",
    "removePriceFeed(address)": "fceb0024",
    "tokenPriceFeed(address)": "9878cbb3",
    "updatePriceFeed(address,address)": "b7997da1"
  },
  "id": 53
}