{
  "abi": [
    {
      "inputs": [],
      "stateMutability": "nonpayable",
      "type": "constructor"
    },
    {
      "inputs": [
        {
          "internalType": "address",
          "name": "_token",
          "type": "address"
        },
        {
          "internalType": "address",
          "name": "_priceFeedAggregator",
          "type": "address"
        }
      ],
      "name": "addPriceFeed",
      "outputs": [],
      "stateMutability": "nonpayable",
      "type": "function"
    },
    {
      "inputs": [
        {
          "internalType": "uint256",
          "name": "amount",
          "type": "uint256"
        },
        {
          "internalType": "address",
          "name": "tokenFrom",
          "type": "address"
        },
        {
          "internalType": "address",
          "name": "tokenTo",
          "type": "address"
        }
      ],
      "name": "convert",
      "outputs": [
        {
          "internalType": "uint256",
          "name": "",
          "type": "uint256"
        }
      ],
      "stateMutability": "view",
      "type": "function"
    },
    {
      "inputs": [
        {
          "internalType": "uint256",
          "name": "amount",
          "type": "uint256"
        },
        {
          "internalType": "address",
          "name": "token",
          "type": "address"
        }
      ],
      "name": "convertFromUSD",
      "outputs": [
        {
          "internalType": "uint256",
          "name": "",
          "type": "uint256"
        }
      ],
      "stateMutability": "view",
      "type": "function"
    },
    {
      "inputs": [
        {
          "internalType": "uint256",
          "name": "amount",
          "type": "uint256"
        },
        {
          "internalType": "address",
          "name": "token",
          "type": "address"
        }
      ],
      "name": "convertToUSD",
      "outputs": [
        {
          "internalType": "uint256",
          "name": "value",
          "type": "uint256"
        }
      ],
      "stateMutability": "view",
      "type": "function"
    },
    {
      "inputs": [
        {
          "internalType": "uint256",
          "name": "amountFrom",
          "type": "uint256"
        },
        {
          "internalType": "address",
          "name": "tokenFrom",
          "type": "address"
        },
        {
          "internalType": "uint256",
          "name": "amountTo",
          "type": "uint256"
        },
        {
          "internalType": "address",
          "name": "tokenTo",
          "type": "address"
        }
      ],
      "name": "fastCheck",
      "outputs": [
        {
          "internalType": "uint256",
          "name": "collateralFrom",
          "type": "uint256"
        },
        {
          "internalType": "uint256",
          "name": "collateralTo",
          "type": "uint256"
        }
      ],
      "stateMutability": "view",
      "type": "function"
    },
    {
      "inputs": [
        {
          "internalType": "address",
          "name": "token",
          "type": "address"
        }
      ],
      "name": "priceFeeds",
      "outputs": [
        {
          "internalType": "address",
          "name": "",
          "type": "address"
        }
      ],
      "stateMutability": "view",
      "type": "function"
    },
    {
      "inputs": [
        {
          "internalType": "address",
          "name": "_token",
          "type": "address"
        }
      ],
      "name": "removePriceFeed",
      "outputs": [],
      "stateMutability": "nonpayable",
      "type": "function"
    },
    {
      "inputs": [
        {
          "internalType": "address",
          "name": "",
          "type": "address"
        }
      ],
      "name": "tokenPriceFeed",
      "outputs": [
        {
          "internalType": "address",
          "name": "",
          "type": "address"
        }
      ],
      "stateMutability": "view",
      "type": "function"
    },
    {
      "inputs": [
        {
          "internalType": "address",
          "name": "_token",
          "type": "address"
        },
        {
          "internalType": "address",
          "name": "_priceFeedAggregator",
          "type": "address"
        }
      ],
      "name": "updatePriceFeed",
      "outputs": [],
      "stateMutability": "nonpayable",
      "type": "function"
    }
  ],
  "bytecode": {
    "object": "0x608060405234801561001057600080fd5b50610a53806100206000396000f3fe608060405234801561001057600080fd5b50600436106100935760003560e01c8063b66102df11610066578063b66102df14610153578063b7997da114610161578063e8a97a3e14610176578063f9a6503014610189578063fceb00241461019c57600080fd5b80635cecbd0e146100985780637afb0104146100c55780639878cbb3146100e65780639dcb511a14610127575b600080fd5b6100ab6100a63660046106f3565b6101af565b604080519283526020830191909152015b60405180910390f35b6100d86100d3366004610739565b6101f3565b6040519081526020016100bc565b61010f6100f4366004610765565b6000602081905290815260409020546001600160a01b031681565b6040516001600160a01b0390911681526020016100bc565b61010f610135366004610765565b6001600160a01b039081166000908152602081905260409020541690565b6100d86100d3366004610780565b61017461016f3660046107bc565b61023d565b005b6101746101843660046107bc565b61031e565b6100d8610197366004610739565b61036a565b6101746101aa366004610765565b6103a4565b60405162461bcd60e51b815260206004820152600f60248201526e139bdd081a5b5c1b195b595b9d1959608a1b604482015260009081906064015b60405180910390fd5b60405162461bcd60e51b815260206004820152600f60248201526e139bdd081a5b5c1b195b595b9d1959608a1b60448201526000906064016101ea565b92915050565b9392505050565b6001600160a01b0382166102635760405162461bcd60e51b81526004016101ea906107e6565b6001600160a01b0381166102895760405162461bcd60e51b81526004016101ea90610828565b6001600160a01b03828116600090815260208190526040902054166102f05760405162461bcd60e51b815260206004820152601e60248201527f504f3a204e6f7420616e206578697374696e672050726963652046656564000060448201526064016101ea565b6001600160a01b03918216600090815260208190526040902080546001600160a01b03191691909216179055565b6001600160a01b0382166103445760405162461bcd60e51b81526004016101ea906107e6565b6001600160a01b0381166102f05760405162461bcd60e51b81526004016101ea90610828565b600080600061037884610458565b9150915061039b610388836105d2565b61039383600a61096e565b879190610628565b95945050505050565b6001600160a01b0381166103ca5760405162461bcd60e51b81526004016101ea906107e6565b6001600160a01b03818116600090815260208190526040902054166104315760405162461bcd60e51b815260206004820152601e60248201527f504f3a204e6f7420616e206578697374696e672050726963652046656564000060448201526064016101ea565b6001600160a01b0316600090815260208190526040902080546001600160a01b0319169055565b6001600160a01b0381811660009081526020819052604081205490918291166104c35760405162461bcd60e51b815260206004820152601c60248201527f504f3a20546f6b656e2066656564206e6f7420617661696c61626c650000000060448201526064016101ea565b6001600160a01b03808416600090815260208190526040808220548151633fabe5a360e21b815291519293169163feaf968c9160048082019260a0929091908290030181865afa15801561051b573d6000803e3d6000fd5b505050506040513d601f19601f8201168201806040525081019061053f9190610994565b5050506001600160a01b0380871660009081526020818152604080832054815163313ce56760e01b81529151959750929550919092169263313ce567926004808401939192918290030181865afa15801561059e573d6000803e3d6000fd5b505050506040513d601f19601f820116820180604052508101906105c291906109e4565b919560ff90921694509092505050565b6000808212156106245760405162461bcd60e51b815260206004820181905260248201527f53616665436173743a2076616c7565206d75737420626520706f73697469766560448201526064016101ea565b5090565b60008080600019858709858702925082811083820303915050806000036106625783828161065857610658610a07565b0492505050610236565b80841161066e57600080fd5b60008486880960026001871981018816978890046003810283188082028403028082028403028082028403028082028403028082028403029081029092039091026000889003889004909101858311909403939093029303949094049190911702949350505050565b80356001600160a01b03811681146106ee57600080fd5b919050565b6000806000806080858703121561070957600080fd5b84359350610719602086016106d7565b92506040850135915061072e606086016106d7565b905092959194509250565b6000806040838503121561074c57600080fd5b8235915061075c602084016106d7565b90509250929050565b60006020828403121561077757600080fd5b610236826106d7565b60008060006060848603121561079557600080fd5b833592506107a5602085016106d7565b91506107b3604085016106d7565b90509250925092565b600080604083850312156107cf57600080fd5b6107d8836106d7565b915061075c602084016106d7565b60208082526022908201527f504f3a205a65726f20546f6b656e2041646472657373206e6f7420616c6c6f77604082015261195960f21b606082015260800190565b6020808252602c908201527f504f3a205a65726f20466565642041676772656761746f72204164647265737360408201526b081b9bdd08185b1b1bddd95960a21b606082015260800190565b634e487b7160e01b600052601160045260246000fd5b600181815b808511156108c55781600019048211156108ab576108ab610874565b808516156108b857918102915b93841c939080029061088f565b509250929050565b6000826108dc57506001610230565b816108e957506000610230565b81600181146108ff576002811461090957610925565b6001915050610230565b60ff84111561091a5761091a610874565b50506001821b610230565b5060208310610133831016604e8410600b8410161715610948575081810a610230565b610952838361088a565b806000190482111561096657610966610874565b029392505050565b600061023683836108cd565b805169ffffffffffffffffffff811681146106ee57600080fd5b600080600080600060a086880312156109ac57600080fd5b6109b58661097a565b94506020860151935060408601519250606086015191506109d86080870161097a565b90509295509295909350565b6000602082840312156109f657600080fd5b815160ff8116811461023657600080fd5b634e487b7160e01b600052601260045260246000fdfea26469706673582212205d48b2f25bb97152e857294901ab57cbfedbe89080eab0dacce82f7e5ad8650064736f6c63430008110033",
    "linkReferences": {}
  },
  "methodIdentifiers": {
    "addPriceFeed(address,address)": "e8a97a3e",
    "convert(uint256,address,address)": "b66102df",
    "convertFromUSD(uint256,address)": "7afb0104",
    "convertToUSD(uint256,address)": "f9a65030",
    "fastCheck(uint256,address,uint256,address)": "5cecbd0e",
    "priceFeeds(address)": "9dcb511a",
    "removePriceFeed(address)": "fceb0024",
    "tokenPriceFeed(address)": "9878cbb3",
    "updatePriceFeed(address,address)": "b7997da1"
  },
  "id": 59
}