{
  "abi": [
    {
      "inputs": [],
      "stateMutability": "nonpayable",
      "type": "constructor"
    },
    {
      "inputs": [
        {
          "internalType": "address",
          "name": "_token",
          "type": "address"
        },
        {
          "internalType": "address",
          "name": "_priceFeedAggregator",
          "type": "address"
        }
      ],
      "name": "addPriceFeed",
      "outputs": [],
      "stateMutability": "nonpayable",
      "type": "function"
    },
    {
      "inputs": [
        {
          "internalType": "uint256",
          "name": "amount",
          "type": "uint256"
        },
        {
          "internalType": "address",
          "name": "tokenFrom",
          "type": "address"
        },
        {
          "internalType": "address",
          "name": "tokenTo",
          "type": "address"
        }
      ],
      "name": "convert",
      "outputs": [
        {
          "internalType": "uint256",
          "name": "",
          "type": "uint256"
        }
      ],
      "stateMutability": "view",
      "type": "function"
    },
    {
      "inputs": [
        {
          "internalType": "uint256",
          "name": "amount",
          "type": "uint256"
        },
        {
          "internalType": "address",
          "name": "token",
          "type": "address"
        }
      ],
      "name": "convertFromUSD",
      "outputs": [
        {
          "internalType": "uint256",
          "name": "",
          "type": "uint256"
        }
      ],
      "stateMutability": "view",
      "type": "function"
    },
    {
      "inputs": [
        {
          "internalType": "int256",
          "name": "amount",
          "type": "int256"
        },
        {
          "internalType": "address",
          "name": "token",
          "type": "address"
        }
      ],
      "name": "convertToUSD",
      "outputs": [
        {
          "internalType": "int256",
          "name": "value",
          "type": "int256"
        }
      ],
      "stateMutability": "view",
      "type": "function"
    },
    {
      "inputs": [
        {
          "internalType": "uint256",
          "name": "amountFrom",
          "type": "uint256"
        },
        {
          "internalType": "address",
          "name": "tokenFrom",
          "type": "address"
        },
        {
          "internalType": "uint256",
          "name": "amountTo",
          "type": "uint256"
        },
        {
          "internalType": "address",
          "name": "tokenTo",
          "type": "address"
        }
      ],
      "name": "fastCheck",
      "outputs": [
        {
          "internalType": "uint256",
          "name": "collateralFrom",
          "type": "uint256"
        },
        {
          "internalType": "uint256",
          "name": "collateralTo",
          "type": "uint256"
        }
      ],
      "stateMutability": "view",
      "type": "function"
    },
    {
      "inputs": [
        {
          "internalType": "address",
          "name": "token",
          "type": "address"
        }
      ],
      "name": "priceFeeds",
      "outputs": [
        {
          "internalType": "address",
          "name": "",
          "type": "address"
        }
      ],
      "stateMutability": "view",
      "type": "function"
    },
    {
      "inputs": [
        {
          "internalType": "address",
          "name": "_token",
          "type": "address"
        }
      ],
      "name": "removePriceFeed",
      "outputs": [],
      "stateMutability": "nonpayable",
      "type": "function"
    },
    {
      "inputs": [
        {
          "internalType": "address",
          "name": "",
          "type": "address"
        }
      ],
      "name": "tokenPriceFeed",
      "outputs": [
        {
          "internalType": "address",
          "name": "",
          "type": "address"
        }
      ],
      "stateMutability": "view",
      "type": "function"
    },
    {
      "inputs": [
        {
          "internalType": "address",
          "name": "_token",
          "type": "address"
        },
        {
          "internalType": "address",
          "name": "_priceFeedAggregator",
          "type": "address"
        }
      ],
      "name": "updatePriceFeed",
      "outputs": [],
      "stateMutability": "nonpayable",
      "type": "function"
    }
  ],
  "bytecode": {
    "object": "0x608060405234801561001057600080fd5b50610a4e806100206000396000f3fe608060405234801561001057600080fd5b50600436106100935760003560e01c80639dcb511a116100665780639dcb511a1461013a578063b66102df14610166578063b7997da114610174578063e8a97a3e14610189578063fceb00241461019c57600080fd5b806308ba9084146100985780635cecbd0e146100be5780637afb0104146100e65780639878cbb3146100f9575b600080fd5b6100ab6100a63660046106d2565b6101af565b6040519081526020015b60405180910390f35b6100d16100cc3660046106fe565b610207565b604080519283526020830191909152016100b5565b6100ab6100f43660046106d2565b61024b565b610122610107366004610744565b6000602081905290815260409020546001600160a01b031681565b6040516001600160a01b0390911681526020016100b5565b610122610148366004610744565b6001600160a01b039081166000908152602081905260409020541690565b6100ab6100f436600461075f565b61018761018236600461079b565b610295565b005b61018761019736600461079b565b610376565b6101876101aa366004610744565b6103c2565b60008060006101bd84610476565b915091506101e86101cd836105f0565b6101d883600a6108bf565b6101e1886105f0565b9190610607565b925060008512156101ff576101fc836108cb565b92505b505092915050565b60405162461bcd60e51b815260206004820152600f60248201526e139bdd081a5b5c1b195b595b9d1959608a1b604482015260009081906064015b60405180910390fd5b60405162461bcd60e51b815260206004820152600f60248201526e139bdd081a5b5c1b195b595b9d1959608a1b6044820152600090606401610242565b92915050565b9392505050565b6001600160a01b0382166102bb5760405162461bcd60e51b8152600401610242906108e7565b6001600160a01b0381166102e15760405162461bcd60e51b815260040161024290610929565b6001600160a01b03828116600090815260208190526040902054166103485760405162461bcd60e51b815260206004820152601e60248201527f504f3a204e6f7420616e206578697374696e67205072696365204665656400006044820152606401610242565b6001600160a01b03918216600090815260208190526040902080546001600160a01b03191691909216179055565b6001600160a01b03821661039c5760405162461bcd60e51b8152600401610242906108e7565b6001600160a01b0381166103485760405162461bcd60e51b815260040161024290610929565b6001600160a01b0381166103e85760405162461bcd60e51b8152600401610242906108e7565b6001600160a01b038181166000908152602081905260409020541661044f5760405162461bcd60e51b815260206004820152601e60248201527f504f3a204e6f7420616e206578697374696e67205072696365204665656400006044820152606401610242565b6001600160a01b0316600090815260208190526040902080546001600160a01b0319169055565b6001600160a01b0381811660009081526020819052604081205490918291166104e15760405162461bcd60e51b815260206004820152601c60248201527f504f3a20546f6b656e2066656564206e6f7420617661696c61626c65000000006044820152606401610242565b6001600160a01b03808416600090815260208190526040808220548151633fabe5a360e21b815291519293169163feaf968c9160048082019260a0929091908290030181865afa158015610539573d6000803e3d6000fd5b505050506040513d601f19601f8201168201806040525081019061055d919061098f565b5050506001600160a01b0380871660009081526020818152604080832054815163313ce56760e01b81529151959750929550919092169263313ce567926004808401939192918290030181865afa1580156105bc573d6000803e3d6000fd5b505050506040513d601f19601f820116820180604052508101906105e091906109df565b919560ff90921694509092505050565b6000808212156106035781600003610288565b5090565b60008080600019858709858702925082811083820303915050806000036106415783828161063757610637610a02565b049250505061028e565b80841161064d57600080fd5b60008486880960026001871981018816978890046003810283188082028403028082028403028082028403028082028403028082028403029081029092039091026000889003889004909101858311909403939093029303949094049190911702949350505050565b80356001600160a01b03811681146106cd57600080fd5b919050565b600080604083850312156106e557600080fd5b823591506106f5602084016106b6565b90509250929050565b6000806000806080858703121561071457600080fd5b84359350610724602086016106b6565b925060408501359150610739606086016106b6565b905092959194509250565b60006020828403121561075657600080fd5b61028e826106b6565b60008060006060848603121561077457600080fd5b83359250610784602085016106b6565b9150610792604085016106b6565b90509250925092565b600080604083850312156107ae57600080fd5b6107b7836106b6565b91506106f5602084016106b6565b634e487b7160e01b600052601160045260246000fd5b600181815b808511156108165781600019048211156107fc576107fc6107c5565b8085161561080957918102915b93841c93908002906107e0565b509250929050565b60008261082d57506001610288565b8161083a57506000610288565b8160018114610850576002811461085a57610876565b6001915050610288565b60ff84111561086b5761086b6107c5565b50506001821b610288565b5060208310610133831016604e8410600b8410161715610899575081810a610288565b6108a383836107db565b80600019048211156108b7576108b76107c5565b029392505050565b600061028e838361081e565b6000600160ff1b82016108e0576108e06107c5565b5060000390565b60208082526022908201527f504f3a205a65726f20546f6b656e2041646472657373206e6f7420616c6c6f77604082015261195960f21b606082015260800190565b6020808252602c908201527f504f3a205a65726f20466565642041676772656761746f72204164647265737360408201526b081b9bdd08185b1b1bddd95960a21b606082015260800190565b805169ffffffffffffffffffff811681146106cd57600080fd5b600080600080600060a086880312156109a757600080fd5b6109b086610975565b94506020860151935060408601519250606086015191506109d360808701610975565b90509295509295909350565b6000602082840312156109f157600080fd5b815160ff8116811461028e57600080fd5b634e487b7160e01b600052601260045260246000fdfea26469706673582212204c44cbae63bbc16fda07856a88ae4737a991a06917a2b8a0b07d819c50399c9964736f6c63430008110033",
    "linkReferences": {}
  },
  "methodIdentifiers": {
    "addPriceFeed(address,address)": "e8a97a3e",
    "convert(uint256,address,address)": "b66102df",
    "convertFromUSD(uint256,address)": "7afb0104",
    "convertToUSD(int256,address)": "08ba9084",
    "fastCheck(uint256,address,uint256,address)": "5cecbd0e",
    "priceFeeds(address)": "9dcb511a",
    "removePriceFeed(address)": "fceb0024",
    "tokenPriceFeed(address)": "9878cbb3",
    "updatePriceFeed(address,address)": "b7997da1"
  },
  "id": 34
}