{
  "abi": [
    {
      "inputs": [
        {
          "internalType": "address",
          "name": "_router",
          "type": "address"
        }
      ],
      "stateMutability": "nonpayable",
      "type": "constructor"
    },
    {
      "inputs": [],
      "name": "_totalBorrowed",
      "outputs": [
        {
          "internalType": "uint256",
          "name": "",
          "type": "uint256"
        }
      ],
      "stateMutability": "view",
      "type": "function"
    },
    {
      "inputs": [
        {
          "internalType": "address",
          "name": "from",
          "type": "address"
        },
        {
          "internalType": "address",
          "name": "token",
          "type": "address"
        },
        {
          "internalType": "uint256",
          "name": "amount",
          "type": "uint256"
        }
      ],
      "name": "addCollateral",
      "outputs": [],
      "stateMutability": "nonpayable",
      "type": "function"
    },
    {
      "inputs": [
        {
          "internalType": "bytes32",
          "name": "market",
          "type": "bytes32"
        },
        {
          "internalType": "int256",
          "name": "size",
          "type": "int256"
        }
      ],
      "name": "addPosition",
      "outputs": [],
      "stateMutability": "nonpayable",
      "type": "function"
    },
    {
      "inputs": [
        {
          "internalType": "address",
          "name": "token",
          "type": "address"
        },
        {
          "internalType": "address",
          "name": "protocol",
          "type": "address"
        }
      ],
      "name": "approveToProtocol",
      "outputs": [],
      "stateMutability": "nonpayable",
      "type": "function"
    },
    {
      "inputs": [],
      "name": "baseToken",
      "outputs": [
        {
          "internalType": "address",
          "name": "",
          "type": "address"
        }
      ],
      "stateMutability": "view",
      "type": "function"
    },
    {
      "inputs": [],
      "name": "contractRegistry",
      "outputs": [
        {
          "internalType": "contract IContractRegistry",
          "name": "",
          "type": "address"
        }
      ],
      "stateMutability": "view",
      "type": "function"
    },
    {
      "inputs": [],
      "name": "cumulativeIndexAtOpen",
      "outputs": [
        {
          "internalType": "uint256",
          "name": "",
          "type": "uint256"
        }
      ],
      "stateMutability": "view",
      "type": "function"
    },
    {
      "inputs": [],
      "name": "cumulative_RAY",
      "outputs": [
        {
          "internalType": "uint256",
          "name": "",
          "type": "uint256"
        }
      ],
      "stateMutability": "view",
      "type": "function"
    },
    {
      "inputs": [
        {
          "internalType": "address[]",
          "name": "destinations",
          "type": "address[]"
        },
        {
          "internalType": "bytes[]",
          "name": "dataArray",
          "type": "bytes[]"
        }
      ],
      "name": "execMultiTx",
      "outputs": [
        {
          "internalType": "bytes",
          "name": "returnData",
          "type": "bytes"
        }
      ],
      "stateMutability": "nonpayable",
      "type": "function"
    },
    {
      "inputs": [
        {
          "internalType": "address",
          "name": "destination",
          "type": "address"
        },
        {
          "internalType": "bytes",
          "name": "data",
          "type": "bytes"
        }
      ],
      "name": "executeTx",
      "outputs": [
        {
          "internalType": "bytes",
          "name": "",
          "type": "bytes"
        }
      ],
      "stateMutability": "nonpayable",
      "type": "function"
    },
    {
      "inputs": [
        {
          "internalType": "bytes32",
          "name": "",
          "type": "bytes32"
        }
      ],
      "name": "existingPosition",
      "outputs": [
        {
          "internalType": "bool",
          "name": "",
          "type": "bool"
        }
      ],
      "stateMutability": "view",
      "type": "function"
    },
    {
      "inputs": [
        {
          "internalType": "bytes32",
          "name": "market",
          "type": "bytes32"
        }
      ],
      "name": "getPositionOpenNotional",
      "outputs": [
        {
          "internalType": "int256",
          "name": "",
          "type": "int256"
        }
      ],
      "stateMutability": "view",
      "type": "function"
    },
    {
      "inputs": [
        {
          "internalType": "bytes32",
          "name": "market",
          "type": "bytes32"
        }
      ],
      "name": "getPositionValue",
      "outputs": [
        {
          "internalType": "int256",
          "name": "",
          "type": "int256"
        }
      ],
      "stateMutability": "view",
      "type": "function"
    },
    {
      "inputs": [],
      "name": "getTotalMarginInMarkets",
      "outputs": [
        {
          "internalType": "int256",
          "name": "",
          "type": "int256"
        }
      ],
      "stateMutability": "view",
      "type": "function"
    },
    {
      "inputs": [
        {
          "internalType": "bytes32[]",
          "name": "_allowedMarkets",
          "type": "bytes32[]"
        }
      ],
      "name": "getTotalNotional",
      "outputs": [
        {
          "internalType": "uint256",
          "name": "totalNotional",
          "type": "uint256"
        }
      ],
      "stateMutability": "view",
      "type": "function"
    },
    {
      "inputs": [
        {
          "internalType": "bytes32",
          "name": "",
          "type": "bytes32"
        }
      ],
      "name": "marginInMarket",
      "outputs": [
        {
          "internalType": "int256",
          "name": "",
          "type": "int256"
        }
      ],
      "stateMutability": "view",
      "type": "function"
    },
    {
      "inputs": [],
      "name": "marginManager",
      "outputs": [
        {
          "internalType": "address",
          "name": "",
          "type": "address"
        }
      ],
      "stateMutability": "view",
      "type": "function"
    },
    {
      "inputs": [],
      "name": "marketManager",
      "outputs": [
        {
          "internalType": "contract IMarketManager",
          "name": "",
          "type": "address"
        }
      ],
      "stateMutability": "view",
      "type": "function"
    },
    {
      "inputs": [
        {
          "internalType": "bytes32",
          "name": "",
          "type": "bytes32"
        }
      ],
      "name": "positions",
      "outputs": [
        {
          "internalType": "int256",
          "name": "",
          "type": "int256"
        }
      ],
      "stateMutability": "view",
      "type": "function"
    },
    {
      "inputs": [
        {
          "internalType": "bytes32",
          "name": "market",
          "type": "bytes32"
        }
      ],
      "name": "removePosition",
      "outputs": [],
      "stateMutability": "nonpayable",
      "type": "function"
    },
    {
      "inputs": [],
      "name": "router",
      "outputs": [
        {
          "internalType": "contract ISwapRouter",
          "name": "",
          "type": "address"
        }
      ],
      "stateMutability": "view",
      "type": "function"
    },
    {
      "inputs": [
        {
          "components": [
            {
              "internalType": "address",
              "name": "tokenIn",
              "type": "address"
            },
            {
              "internalType": "address",
              "name": "tokenOut",
              "type": "address"
            },
            {
              "internalType": "uint256",
              "name": "amountIn",
              "type": "uint256"
            },
            {
              "internalType": "uint256",
              "name": "amountOut",
              "type": "uint256"
            },
            {
              "internalType": "bool",
              "name": "isExactInput",
              "type": "bool"
            },
            {
              "internalType": "uint160",
              "name": "sqrtPriceLimitX96",
              "type": "uint160"
            },
            {
              "internalType": "uint256",
              "name": "amountOutMinimum",
              "type": "uint256"
            }
          ],
          "internalType": "struct IExchange.SwapParams",
          "name": "_swapParams",
          "type": "tuple"
        }
      ],
      "name": "swap",
      "outputs": [
        {
          "internalType": "uint256",
          "name": "amountOut",
          "type": "uint256"
        }
      ],
      "stateMutability": "nonpayable",
      "type": "function"
    },
    {
      "inputs": [],
      "name": "totalBorrowed",
      "outputs": [
        {
          "internalType": "uint256",
          "name": "",
          "type": "uint256"
        }
      ],
      "stateMutability": "view",
      "type": "function"
    },
    {
      "inputs": [],
      "name": "totalInternalLev",
      "outputs": [
        {
          "internalType": "uint256",
          "name": "",
          "type": "uint256"
        }
      ],
      "stateMutability": "view",
      "type": "function"
    },
    {
      "inputs": [],
      "name": "totalMarginInMarkets",
      "outputs": [
        {
          "internalType": "int256",
          "name": "",
          "type": "int256"
        }
      ],
      "stateMutability": "view",
      "type": "function"
    },
    {
      "inputs": [
        {
          "internalType": "address",
          "name": "token",
          "type": "address"
        },
        {
          "internalType": "address",
          "name": "to",
          "type": "address"
        },
        {
          "internalType": "uint256",
          "name": "amount",
          "type": "uint256"
        }
      ],
      "name": "transferTokens",
      "outputs": [],
      "stateMutability": "nonpayable",
      "type": "function"
    },
    {
      "inputs": [],
      "name": "underlyingToken",
      "outputs": [
        {
          "internalType": "address",
          "name": "",
          "type": "address"
        }
      ],
      "stateMutability": "view",
      "type": "function"
    },
    {
      "inputs": [
        {
          "internalType": "uint256",
          "name": "_totalBorrowedAmount",
          "type": "uint256"
        },
        {
          "internalType": "uint256",
          "name": "_cumulativeIndexAtOpen",
          "type": "uint256"
        }
      ],
      "name": "updateBorrowData",
      "outputs": [],
      "stateMutability": "nonpayable",
      "type": "function"
    },
    {
      "inputs": [
        {
          "internalType": "bytes32",
          "name": "market",
          "type": "bytes32"
        },
        {
          "internalType": "int256",
          "name": "transferredMargin",
          "type": "int256"
        }
      ],
      "name": "updateMarginInMarket",
      "outputs": [],
      "stateMutability": "nonpayable",
      "type": "function"
    },
    {
      "inputs": [
        {
          "internalType": "bytes32",
          "name": "market",
          "type": "bytes32"
        },
        {
          "internalType": "int256",
          "name": "size",
          "type": "int256"
        }
      ],
      "name": "updatePosition",
      "outputs": [],
      "stateMutability": "nonpayable",
      "type": "function"
    }
  ],
  "bytecode": {
    "object": "0x608060405234801561001057600080fd5b506040516115dd3803806115dd83398101604081905261002f916100b9565b806001600160a01b03811661008a5760405162461bcd60e51b815260206004820152601560248201527f4d413a42616420526f7574657220616464726573730000000000000000000000604482015260640160405180910390fd5b600180546001600160a01b039092166001600160a01b03199283161790556006805490911633179055506100e9565b6000602082840312156100cb57600080fd5b81516001600160a01b03811681146100e257600080fd5b9392505050565b6114e5806100f86000396000f3fe608060405234801561001057600080fd5b50600436106101da5760003560e01c80637b44fb6411610104578063c55dae63116100a2578063eda11ef011610071578063eda11ef01461041a578063f73b858d1461044d578063f887ea401461046d578063fac5e9811461048057600080fd5b8063c55dae63146103f6578063ca96a6a714610409578063cfff340114610412578063db386b8d1461031557600080fd5b8063abf410e5116100de578063abf410e5146103be578063aeccd4b9146103d1578063bbf9f2a0146103da578063c52cee7a146103ed57600080fd5b80637b44fb64146103555780637d1c484d1461038b578063a64b6e5f146103ab57600080fd5b806341ed2c121161017c578063514ea4bf1161014b578063514ea4bf146102e2578063597810341461030257806359b4b5ee1461031557806359cbbf491461033557600080fd5b806341ed2c1214610283578063481cecaa146102965780634c19386c146102a95780634c89b68d146102b157600080fd5b80631fb3b7ac116101b85780631fb3b7ac14610229578063220b6dec146102325780632495a59914610245578063272c4a111461027057600080fd5b80630797ceec146101df57806317d11a15146101fa5780631f7dd4ba14610216575b600080fd5b6101f86101ed366004610e8f565b600991909155600a55565b005b610203600a5481565b6040519081526020015b60405180910390f35b610203610224366004610f1c565b610493565b61020360075481565b610203610240366004610fcd565b6104fc565b600b54610258906001600160a01b031681565b6040516001600160a01b03909116815260200161020d565b6101f861027e366004611074565b6108b6565b600254610258906001600160a01b031681565b600654610258906001600160a01b031681565b600954610203565b6101f86102bf3660046110ad565b6000908152600360209081526040808320805460ff191690556005909152812055565b6102036102f03660046110ad565b60056020526000908152604090205481565b6101f86103103660046110c6565b61092f565b6102036103233660046110ad565b60009081526005602052604090205490565b610348610343366004611177565b610944565b60405161020d91906112d4565b6101f8610363366004610e8f565b600091825260056020908152604080842092909255600390529020805460ff19166001179055565b6101f8610399366004610e8f565b60009182526005602052604090912055565b6101f86103b93660046110c6565b6109db565b600054610258906001600160a01b031681565b61020360085481565b6101f86103e8366004610e8f565b6109ef565b61020360095481565b600454610258906001600160a01b031681565b610203600d5481565b600d54610203565b61043d6104283660046110ad565b60036020526000908152604090205460ff1681565b604051901515815260200161020d565b61020361045b3660046110ad565b600c6020526000908152604090205481565b600154610258906001600160a01b031681565b61034861048e3660046112e7565b610aa8565b8051600090815b818110156104f5576104e16104da600560008785815181106104be576104be611337565b6020026020010151815260200190815260200160002054610ac9565b8490610ae0565b9250806104ed81611363565b91505061049a565b5050919050565b80516000906001600160a01b031661054f5760405162461bcd60e51b815260206004820152601160248201527026a09d102a37b5b2b724b71032b93937b960791b60448201526064015b60405180910390fd5b60208201516001600160a01b031661059e5760405162461bcd60e51b815260206004820152601260248201527126a09d103a37b5b2b727baba1032b93937b960711b6044820152606401610546565b8160800151156106775760008260400151116105f35760405162461bcd60e51b815260206004820152601460248201527326a09d1024b73b30b634b21030b6b7bab73a24b760611b6044820152606401610546565b8151600154604080850151905163095ea7b360e01b81526001600160a01b039283166004820152602481019190915291169063095ea7b3906044016020604051808303816000875af115801561064d573d6000803e3d6000fd5b505050506040513d601f19601f82011682018060405250810190610671919061137c565b50610755565b60008260600151116106d55760405162461bcd60e51b815260206004820152602160248201527f4d413a20496e76616c6964205f73776170506172616d732e616d6f756e744f756044820152601d60fa1b6064820152608401610546565b8151600154606084015160405163095ea7b360e01b81526001600160a01b039283166004820152602481019190915291169063095ea7b3906044016020604051808303816000875af115801561072f573d6000803e3d6000fd5b505050506040513d601f19601f82011682018060405250810190610753919061137c565b505b6064600183608001511561083257604080516101008101825285516001600160a01b03908116825260208088015182169083015262ffffff8516828401523060608301524260808301528683015160a08084019190915260c08089015190840152870151811660e0830152600154925163414bf38960e01b81529192169063414bf389906107e7908490600401611399565b6020604051808303816000875af1158015610806573d6000803e3d6000fd5b505050506040513d601f19601f8201168201806040525081019061082a9190611403565b9350506104f5565b604080516101008101825285516001600160a01b03908116825260208088015182169083015262ffffff8516828401523060608084019190915242608084015287015160a080840191909152600060c0840152870151811660e08301526001549251631b67c43360e31b81529192169063db3e2198906107e7908490600401611399565b60405163095ea7b360e01b81526001600160a01b038281166004830152600019602483015283169063095ea7b3906044016020604051808303816000875af1158015610906573d6000803e3d6000fd5b505050506040513d601f19601f8201168201806040525081019061092a919061137c565b505050565b61092a6001600160a01b038316843084610aec565b6060600061095184610b5d565b905060005b8160ff168160ff1610156109d1576109bd848260ff168151811061097c5761097c611337565b602002602001015187878460ff1681811061099957610999611337565b90506020020160208101906109ae919061141c565b6001600160a01b031690610bbe565b9250806109c981611439565b915050610956565b50505b9392505050565b61092a6001600160a01b0384168383610c00565b6000828152600c6020526040812054610a089083610c30565b13610a695760405162461bcd60e51b815260206004820152602b60248201527f4d413a2043616e6e6f742068617665206e65676174697665206d617267696e2060448201526a125b881c1c9bdd1bd8dbdb60aa1b6064820152608401610546565b600d54610a769082610c30565b600d556000828152600c6020526040902054610a929082610c30565b6000928352600c60205260409092209190915550565b60606000610abf6001600160a01b03851684610bbe565b9150505b92915050565b600080821215610adc5781600003610ac3565b5090565b60006109d48284611458565b6040516001600160a01b0380851660248301528316604482015260648101829052610b579085906323b872dd60e01b906084015b60408051601f198184030181529190526020810180516001600160e01b03166001600160e01b031990931692909217909152610c3c565b50505050565b600060ff821115610adc5760405162461bcd60e51b815260206004820152602560248201527f53616665436173743a2076616c756520646f65736e27742066697420696e2038604482015264206269747360d81b6064820152608401610546565b60606109d483836040518060400160405280601e81526020017f416464726573733a206c6f772d6c6576656c2063616c6c206661696c65640000815250610d0e565b6040516001600160a01b03831660248201526044810182905261092a90849063a9059cbb60e01b90606401610b20565b60006109d4828461146b565b6000610c91826040518060400160405280602081526020017f5361666545524332303a206c6f772d6c6576656c2063616c6c206661696c6564815250856001600160a01b0316610d0e9092919063ffffffff16565b80519091501561092a5780806020019051810190610caf919061137c565b61092a5760405162461bcd60e51b815260206004820152602a60248201527f5361666545524332303a204552433230206f7065726174696f6e20646964206e6044820152691bdd081cdd58d8d9595960b21b6064820152608401610546565b6060610d1d8484600085610d25565b949350505050565b606082471015610d865760405162461bcd60e51b815260206004820152602660248201527f416464726573733a20696e73756666696369656e742062616c616e636520666f6044820152651c8818d85b1b60d21b6064820152608401610546565b6001600160a01b0385163b610ddd5760405162461bcd60e51b815260206004820152601d60248201527f416464726573733a2063616c6c20746f206e6f6e2d636f6e74726163740000006044820152606401610546565b600080866001600160a01b03168587604051610df99190611493565b60006040518083038185875af1925050503d8060008114610e36576040519150601f19603f3d011682016040523d82523d6000602084013e610e3b565b606091505b5091509150610e4b828286610e56565b979650505050505050565b60608315610e655750816109d4565b825115610e755782518084602001fd5b8160405162461bcd60e51b815260040161054691906112d4565b60008060408385031215610ea257600080fd5b50508035926020909101359150565b634e487b7160e01b600052604160045260246000fd5b604051601f8201601f1916810167ffffffffffffffff81118282101715610ef057610ef0610eb1565b604052919050565b600067ffffffffffffffff821115610f1257610f12610eb1565b5060051b60200190565b60006020808385031215610f2f57600080fd5b823567ffffffffffffffff811115610f4657600080fd5b8301601f81018513610f5757600080fd5b8035610f6a610f6582610ef8565b610ec7565b81815260059190911b82018301908381019087831115610f8957600080fd5b928401925b82841015610e4b57833582529284019290840190610f8e565b6001600160a01b0381168114610fbc57600080fd5b50565b8015158114610fbc57600080fd5b600060e08284031215610fdf57600080fd5b60405160e0810181811067ffffffffffffffff8211171561100257611002610eb1565b604052823561101081610fa7565b8152602083013561102081610fa7565b806020830152506040830135604082015260608301356060820152608083013561104981610fbf565b608082015260a083013561105c81610fa7565b60a082015260c0928301359281019290925250919050565b6000806040838503121561108757600080fd5b823561109281610fa7565b915060208301356110a281610fa7565b809150509250929050565b6000602082840312156110bf57600080fd5b5035919050565b6000806000606084860312156110db57600080fd5b83356110e681610fa7565b925060208401356110f681610fa7565b929592945050506040919091013590565b600082601f83011261111857600080fd5b813567ffffffffffffffff81111561113257611132610eb1565b611145601f8201601f1916602001610ec7565b81815284602083860101111561115a57600080fd5b816020850160208301376000918101602001919091529392505050565b60008060006040848603121561118c57600080fd5b833567ffffffffffffffff808211156111a457600080fd5b818601915086601f8301126111b857600080fd5b8135818111156111c757600080fd5b602088818360051b86010111156111dd57600080fd5b8084019650819550808801359350828411156111f857600080fd5b838801935088601f85011261120c57600080fd5b8335915061121c610f6583610ef8565b82815260059290921b8401810191818101908a84111561123b57600080fd5b8286015b84811015611273578035868111156112575760008081fd5b6112658d86838b0101611107565b84525091830191830161123f565b508096505050505050509250925092565b60005b8381101561129f578181015183820152602001611287565b50506000910152565b600081518084526112c0816020860160208601611284565b601f01601f19169290920160200192915050565b6020815260006109d460208301846112a8565b600080604083850312156112fa57600080fd5b823561130581610fa7565b9150602083013567ffffffffffffffff81111561132157600080fd5b61132d85828601611107565b9150509250929050565b634e487b7160e01b600052603260045260246000fd5b634e487b7160e01b600052601160045260246000fd5b6000600182016113755761137561134d565b5060010190565b60006020828403121561138e57600080fd5b81516109d481610fbf565b6101008101610ac3828480516001600160a01b03908116835260208083015182169084015260408083015162ffffff16908401526060808301518216908401526080808301519084015260a0828101519084015260c0808301519084015260e09182015116910152565b60006020828403121561141557600080fd5b5051919050565b60006020828403121561142e57600080fd5b81356109d481610fa7565b600060ff821660ff810361144f5761144f61134d565b60010192915050565b80820180821115610ac357610ac361134d565b808201828112600083128015821682158216171561148b5761148b61134d565b505092915050565b600082516114a5818460208701611284565b919091019291505056fea264697066735822122077e99bc7b23387f5822e9f2fc536452acac451eaa919cd19b417585808dc2af864736f6c63430008110033",
    "linkReferences": {}
  },
  "methodIdentifiers": {
    "_totalBorrowed()": "c52cee7a",
    "addCollateral(address,address,uint256)": "59781034",
    "addPosition(bytes32,int256)": "7b44fb64",
    "approveToProtocol(address,address)": "272c4a11",
    "baseToken()": "c55dae63",
    "contractRegistry()": "abf410e5",
    "cumulativeIndexAtOpen()": "17d11a15",
    "cumulative_RAY()": "aeccd4b9",
    "execMultiTx(address[],bytes[])": "59cbbf49",
    "executeTx(address,bytes)": "fac5e981",
    "existingPosition(bytes32)": "eda11ef0",
    "getPositionOpenNotional(bytes32)": "db386b8d",
    "getPositionValue(bytes32)": "59b4b5ee",
    "getTotalMarginInMarkets()": "cfff3401",
    "getTotalNotional(bytes32[])": "1f7dd4ba",
    "marginInMarket(bytes32)": "f73b858d",
    "marginManager()": "481cecaa",
    "marketManager()": "41ed2c12",
    "positions(bytes32)": "514ea4bf",
    "removePosition(bytes32)": "4c89b68d",
    "router()": "f887ea40",
    "swap((address,address,uint256,uint256,bool,uint160,uint256))": "220b6dec",
    "totalBorrowed()": "4c19386c",
    "totalInternalLev()": "1fb3b7ac",
    "totalMarginInMarkets()": "ca96a6a7",
    "transferTokens(address,address,uint256)": "a64b6e5f",
    "underlyingToken()": "2495a599",
    "updateBorrowData(uint256,uint256)": "0797ceec",
    "updateMarginInMarket(bytes32,int256)": "bbf9f2a0",
    "updatePosition(bytes32,int256)": "7d1c484d"
  },
  "id": 24
}