{
  "abi": [
    {
      "inputs": [
        {
          "internalType": "address",
          "name": "_router",
          "type": "address"
        }
      ],
      "stateMutability": "nonpayable",
      "type": "constructor"
    },
    {
      "inputs": [],
      "name": "_totalBorrowed",
      "outputs": [
        {
          "internalType": "uint256",
          "name": "",
          "type": "uint256"
        }
      ],
      "stateMutability": "view",
      "type": "function"
    },
    {
      "inputs": [
        {
          "internalType": "address",
          "name": "from",
          "type": "address"
        },
        {
          "internalType": "address",
          "name": "token",
          "type": "address"
        },
        {
          "internalType": "uint256",
          "name": "amount",
          "type": "uint256"
        }
      ],
      "name": "addCollateral",
      "outputs": [],
      "stateMutability": "nonpayable",
      "type": "function"
    },
    {
      "inputs": [
        {
          "internalType": "bytes32",
          "name": "market",
          "type": "bytes32"
        },
        {
          "internalType": "int256",
          "name": "size",
          "type": "int256"
        }
      ],
      "name": "addPosition",
      "outputs": [],
      "stateMutability": "nonpayable",
      "type": "function"
    },
    {
      "inputs": [
        {
          "internalType": "address",
          "name": "token",
          "type": "address"
        },
        {
          "internalType": "address",
          "name": "protocol",
          "type": "address"
        }
      ],
      "name": "approveToProtocol",
      "outputs": [],
      "stateMutability": "nonpayable",
      "type": "function"
    },
    {
      "inputs": [],
      "name": "baseToken",
      "outputs": [
        {
          "internalType": "address",
          "name": "",
          "type": "address"
        }
      ],
      "stateMutability": "view",
      "type": "function"
    },
    {
      "inputs": [],
      "name": "contractRegistry",
      "outputs": [
        {
          "internalType": "contract IContractRegistry",
          "name": "",
          "type": "address"
        }
      ],
      "stateMutability": "view",
      "type": "function"
    },
    {
      "inputs": [],
      "name": "cumulativeIndexAtOpen",
      "outputs": [
        {
          "internalType": "uint256",
          "name": "",
          "type": "uint256"
        }
      ],
      "stateMutability": "view",
      "type": "function"
    },
    {
      "inputs": [],
      "name": "cumulative_RAY",
      "outputs": [
        {
          "internalType": "uint256",
          "name": "",
          "type": "uint256"
        }
      ],
      "stateMutability": "view",
      "type": "function"
    },
    {
      "inputs": [
        {
          "internalType": "address[]",
          "name": "destinations",
          "type": "address[]"
        },
        {
          "internalType": "bytes[]",
          "name": "dataArray",
          "type": "bytes[]"
        }
      ],
      "name": "execMultiTx",
      "outputs": [
        {
          "internalType": "bytes",
          "name": "returnData",
          "type": "bytes"
        }
      ],
      "stateMutability": "nonpayable",
      "type": "function"
    },
    {
      "inputs": [
        {
          "internalType": "address",
          "name": "destination",
          "type": "address"
        },
        {
          "internalType": "bytes",
          "name": "data",
          "type": "bytes"
        }
      ],
      "name": "executeTx",
      "outputs": [
        {
          "internalType": "bytes",
          "name": "",
          "type": "bytes"
        }
      ],
      "stateMutability": "nonpayable",
      "type": "function"
    },
    {
      "inputs": [
        {
          "internalType": "bytes32",
          "name": "",
          "type": "bytes32"
        }
      ],
      "name": "existingPosition",
      "outputs": [
        {
          "internalType": "bool",
          "name": "",
          "type": "bool"
        }
      ],
      "stateMutability": "view",
      "type": "function"
    },
    {
      "inputs": [
        {
          "internalType": "bytes32",
          "name": "market",
          "type": "bytes32"
        }
      ],
      "name": "getPositionOpenNotional",
      "outputs": [
        {
          "internalType": "int256",
          "name": "",
          "type": "int256"
        }
      ],
      "stateMutability": "view",
      "type": "function"
    },
    {
      "inputs": [
        {
          "internalType": "bytes32",
          "name": "market",
          "type": "bytes32"
        }
      ],
      "name": "getPositionValue",
      "outputs": [
        {
          "internalType": "int256",
          "name": "",
          "type": "int256"
        }
      ],
      "stateMutability": "view",
      "type": "function"
    },
    {
      "inputs": [],
      "name": "getTotalMarginInMarkets",
      "outputs": [
        {
          "internalType": "int256",
          "name": "",
          "type": "int256"
        }
      ],
      "stateMutability": "view",
      "type": "function"
    },
    {
      "inputs": [
        {
          "internalType": "bytes32[]",
          "name": "_allowedMarkets",
          "type": "bytes32[]"
        }
      ],
      "name": "getTotalNotional",
      "outputs": [
        {
          "internalType": "uint256",
          "name": "totalNotional",
          "type": "uint256"
        }
      ],
      "stateMutability": "view",
      "type": "function"
    },
    {
      "inputs": [
        {
          "internalType": "bytes32",
          "name": "",
          "type": "bytes32"
        }
      ],
      "name": "marginInMarket",
      "outputs": [
        {
          "internalType": "int256",
          "name": "",
          "type": "int256"
        }
      ],
      "stateMutability": "view",
      "type": "function"
    },
    {
      "inputs": [],
      "name": "marginManager",
      "outputs": [
        {
          "internalType": "address",
          "name": "",
          "type": "address"
        }
      ],
      "stateMutability": "view",
      "type": "function"
    },
    {
      "inputs": [],
      "name": "marketManager",
      "outputs": [
        {
          "internalType": "contract IMarketManager",
          "name": "",
          "type": "address"
        }
      ],
      "stateMutability": "view",
      "type": "function"
    },
    {
      "inputs": [
        {
          "internalType": "bytes32",
          "name": "",
          "type": "bytes32"
        }
      ],
      "name": "positions",
      "outputs": [
        {
          "internalType": "int256",
          "name": "",
          "type": "int256"
        }
      ],
      "stateMutability": "view",
      "type": "function"
    },
    {
      "inputs": [
        {
          "internalType": "bytes32",
          "name": "market",
          "type": "bytes32"
        }
      ],
      "name": "removePosition",
      "outputs": [],
      "stateMutability": "nonpayable",
      "type": "function"
    },
    {
      "inputs": [],
      "name": "router",
      "outputs": [
        {
          "internalType": "contract ISwapRouter",
          "name": "",
          "type": "address"
        }
      ],
      "stateMutability": "view",
      "type": "function"
    },
    {
      "inputs": [
        {
          "components": [
            {
              "internalType": "address",
              "name": "tokenIn",
              "type": "address"
            },
            {
              "internalType": "address",
              "name": "tokenOut",
              "type": "address"
            },
            {
              "internalType": "uint256",
              "name": "amountIn",
              "type": "uint256"
            },
            {
              "internalType": "uint256",
              "name": "amountOut",
              "type": "uint256"
            },
            {
              "internalType": "bool",
              "name": "isExactInput",
              "type": "bool"
            },
            {
              "internalType": "uint160",
              "name": "sqrtPriceLimitX96",
              "type": "uint160"
            }
          ],
          "internalType": "struct IExchange.SwapParams",
          "name": "_swapParams",
          "type": "tuple"
        }
      ],
      "name": "swap",
      "outputs": [
        {
          "internalType": "uint256",
          "name": "amountOut",
          "type": "uint256"
        }
      ],
      "stateMutability": "nonpayable",
      "type": "function"
    },
    {
      "inputs": [],
      "name": "totalBorrowed",
      "outputs": [
        {
          "internalType": "uint256",
          "name": "",
          "type": "uint256"
        }
      ],
      "stateMutability": "view",
      "type": "function"
    },
    {
      "inputs": [],
      "name": "totalInternalLev",
      "outputs": [
        {
          "internalType": "uint256",
          "name": "",
          "type": "uint256"
        }
      ],
      "stateMutability": "view",
      "type": "function"
    },
    {
      "inputs": [
        {
          "internalType": "address",
          "name": "token",
          "type": "address"
        },
        {
          "internalType": "address",
          "name": "to",
          "type": "address"
        },
        {
          "internalType": "uint256",
          "name": "amount",
          "type": "uint256"
        }
      ],
      "name": "transferTokens",
      "outputs": [],
      "stateMutability": "nonpayable",
      "type": "function"
    },
    {
      "inputs": [],
      "name": "underlyingToken",
      "outputs": [
        {
          "internalType": "address",
          "name": "",
          "type": "address"
        }
      ],
      "stateMutability": "view",
      "type": "function"
    },
    {
      "inputs": [
        {
          "internalType": "uint256",
          "name": "_totalBorrowedAmount",
          "type": "uint256"
        },
        {
          "internalType": "uint256",
          "name": "_cumulativeIndexAtOpen",
          "type": "uint256"
        }
      ],
      "name": "updateBorrowData",
      "outputs": [],
      "stateMutability": "nonpayable",
      "type": "function"
    },
    {
      "inputs": [
        {
          "internalType": "bytes32",
          "name": "market",
          "type": "bytes32"
        },
        {
          "internalType": "int256",
          "name": "transferredMargin",
          "type": "int256"
        }
      ],
      "name": "updateMarginInMarket",
      "outputs": [],
      "stateMutability": "nonpayable",
      "type": "function"
    },
    {
      "inputs": [
        {
          "internalType": "bytes32",
          "name": "market",
          "type": "bytes32"
        },
        {
          "internalType": "int256",
          "name": "size",
          "type": "int256"
        }
      ],
      "name": "updatePosition",
      "outputs": [],
      "stateMutability": "nonpayable",
      "type": "function"
    }
  ],
  "bytecode": {
    "object": "0x608060405234801561001057600080fd5b506040516117bc3803806117bc83398101604081905261002f916100b9565b806001600160a01b03811661008a5760405162461bcd60e51b815260206004820152601560248201527f4d413a42616420526f7574657220616464726573730000000000000000000000604482015260640160405180910390fd5b600180546001600160a01b039092166001600160a01b03199283161790556006805490911633179055506100e9565b6000602082840312156100cb57600080fd5b81516001600160a01b03811681146100e257600080fd5b9392505050565b6116c4806100f86000396000f3fe608060405234801561001057600080fd5b50600436106101cf5760003560e01c806359cbbf4911610104578063c52cee7a116100a2578063eda11ef011610071578063eda11ef014610406578063f73b858d14610439578063f887ea4014610459578063fac5e9811461046c57600080fd5b8063c52cee7a146103e2578063c55dae63146103eb578063cfff3401146103fe578063db386b8d1461030a57600080fd5b8063a64b6e5f116100de578063a64b6e5f146103a0578063abf410e5146103b3578063aeccd4b9146103c6578063bbf9f2a0146103cf57600080fd5b806359cbbf491461032a5780637b44fb641461034a5780637d1c484d1461038057600080fd5b806341ed2c12116101715780634c89b68d1161014b5780634c89b68d146102a6578063514ea4bf146102d757806359781034146102f757806359b4b5ee1461030a57600080fd5b806341ed2c1214610278578063481cecaa1461028b5780634c19386c1461029e57600080fd5b80631fb3b7ac116101ad5780631fb3b7ac1461021e5780632495a59914610227578063272c4a111461025257806333c92c501461026557600080fd5b80630797ceec146101d457806317d11a15146101ef5780631f7dd4ba1461020b575b600080fd5b6101ed6101e2366004610fff565b600991909155600a55565b005b6101f8600a5481565b6040519081526020015b60405180910390f35b6101f861021936600461108c565b61047f565b6101f860075481565b600b5461023a906001600160a01b031681565b6040516001600160a01b039091168152602001610202565b6101ed61026036600461112f565b61059d565b6101f8610273366004611176565b610616565b60025461023a906001600160a01b031681565b60065461023a906001600160a01b031681565b6009546101f8565b6101ed6102b4366004611211565b6000908152600360209081526040808320805460ff191690556005909152812055565b6101f86102e5366004611211565b60056020526000908152604090205481565b6101ed61030536600461122a565b6109d4565b6101f8610318366004611211565b60009081526005602052604090205490565b61033d6103383660046112db565b6109e9565b6040516102029190611438565b6101ed610358366004610fff565b600091825260056020908152604080842092909255600390529020805460ff19166001179055565b6101ed61038e366004610fff565b60009182526005602052604090912055565b6101ed6103ae36600461122a565b610a80565b60005461023a906001600160a01b031681565b6101f860085481565b6101ed6103dd366004610fff565b610a94565b6101f860095481565b60045461023a906001600160a01b031681565b600d546101f8565b610429610414366004611211565b60036020526000908152604090205460ff1681565b6040519015158152602001610202565b6101f8610447366004611211565b600c6020526000908152604090205481565b60015461023a906001600160a01b031681565b61033d61047a36600461144b565b610b4d565b8051600090815b8181101561055f5761050c6040518060400160405280600d81526020016c506f736974696f6e2073697a6560981b81525082604051806040016040528060018152602001601d60f91b815250610507600560008a88815181106104eb576104eb61149b565b6020026020010151815260200190815260200160002054610b6e565b610b86565b61054b610544600560008785815181106105285761052861149b565b6020026020010151815260200190815260200160002054610bd5565b8490610bec565b925080610557816114c7565b915050610486565b5061059760405180604001604052806015815260200174102a37ba30b6102837b9b4ba34b7b71039b4bd329d60591b81525083610bf8565b50919050565b60405163095ea7b360e01b81526001600160a01b038281166004830152600019602483015283169063095ea7b3906044016020604051808303816000875af11580156105ed573d6000803e3d6000fd5b505050506040513d601f19601f8201168201806040525081019061061191906114e0565b505050565b80516000906001600160a01b03166106695760405162461bcd60e51b815260206004820152601160248201527026a09d102a37b5b2b724b71032b93937b960791b60448201526064015b60405180910390fd5b60208201516001600160a01b03166106b85760405162461bcd60e51b815260206004820152601260248201527126a09d103a37b5b2b727baba1032b93937b960711b6044820152606401610660565b81608001511561079157600082604001511161070d5760405162461bcd60e51b815260206004820152601460248201527326a09d1024b73b30b634b21030b6b7bab73a24b760611b6044820152606401610660565b8151600154604080850151905163095ea7b360e01b81526001600160a01b039283166004820152602481019190915291169063095ea7b3906044016020604051808303816000875af1158015610767573d6000803e3d6000fd5b505050506040513d601f19601f8201168201806040525081019061078b91906114e0565b5061086f565b60008260600151116107ef5760405162461bcd60e51b815260206004820152602160248201527f4d413a20496e76616c6964205f73776170506172616d732e616d6f756e744f756044820152601d60fa1b6064820152608401610660565b8151600154606084015160405163095ea7b360e01b81526001600160a01b039283166004820152602481019190915291169063095ea7b3906044016020604051808303816000875af1158015610849573d6000803e3d6000fd5b505050506040513d601f19601f8201168201806040525081019061086d91906114e0565b505b6064600183608001511561094957604080516101008101825285516001600160a01b03908116825260208088015182169083015262ffffff8516828401523060608301524260808301528683015160a080840191909152600060c0840152870151811660e0830152600154925163414bf38960e01b81529192169063414bf389906108fe9084906004016114fd565b6020604051808303816000875af115801561091d573d6000803e3d6000fd5b505050506040513d601f19601f820116820180604052508101906109419190611567565b9350506109cd565b604080516101008101825285516001600160a01b03908116825260208088015182169083015262ffffff8516828401523060608084019190915242608084015287015160a080840191909152600060c0840152870151811660e08301526001549251631b67c43360e31b81529192169063db3e2198906108fe9084906004016114fd565b5050919050565b6106116001600160a01b038316843084610c41565b606060006109f684610cac565b905060005b8160ff168160ff161015610a7657610a62848260ff1681518110610a2157610a2161149b565b602002602001015187878460ff16818110610a3e57610a3e61149b565b9050602002016020810190610a539190611580565b6001600160a01b031690610d0d565b925080610a6e8161159d565b9150506109fb565b50505b9392505050565b6106116001600160a01b0384168383610d4f565b6000828152600c6020526040812054610aad9083610d7f565b13610b0e5760405162461bcd60e51b815260206004820152602b60248201527f4d413a2043616e6e6f742068617665206e65676174697665206d617267696e2060448201526a125b881c1c9bdd1bd8dbdb60aa1b6064820152608401610660565b600d54610b1b9082610d7f565b600d556000828152600c6020526040902054610b379082610d7f565b6000928352600c60205260409092209190915550565b60606000610b646001600160a01b03851684610d0d565b9150505b92915050565b6000808212610b7d5781610b68565b610b68826115bc565b610bcf84848484604051602401610ba094939291906115d8565b60408051601f198184030181529190526020810180516001600160e01b031663c67ea9d160e01b179052610d8b565b50505050565b600080821215610be85781600003610b68565b5090565b6000610a798284611615565b610c3d8282604051602401610c0e929190611628565b60408051601f198184030181529190526020810180516001600160e01b0316632d839cb360e21b179052610d8b565b5050565b6040516001600160a01b0380851660248301528316604482015260648101829052610bcf9085906323b872dd60e01b906084015b60408051601f198184030181529190526020810180516001600160e01b03166001600160e01b031990931692909217909152610dac565b600060ff821115610be85760405162461bcd60e51b815260206004820152602560248201527f53616665436173743a2076616c756520646f65736e27742066697420696e2038604482015264206269747360d81b6064820152608401610660565b6060610a7983836040518060400160405280601e81526020017f416464726573733a206c6f772d6c6576656c2063616c6c206661696c65640000815250610e7e565b6040516001600160a01b03831660248201526044810182905261061190849063a9059cbb60e01b90606401610c75565b6000610a79828461164a565b80516a636f6e736f6c652e6c6f67602083016000808483855afa5050505050565b6000610e01826040518060400160405280602081526020017f5361666545524332303a206c6f772d6c6576656c2063616c6c206661696c6564815250856001600160a01b0316610e7e9092919063ffffffff16565b8051909150156106115780806020019051810190610e1f91906114e0565b6106115760405162461bcd60e51b815260206004820152602a60248201527f5361666545524332303a204552433230206f7065726174696f6e20646964206e6044820152691bdd081cdd58d8d9595960b21b6064820152608401610660565b6060610e8d8484600085610e95565b949350505050565b606082471015610ef65760405162461bcd60e51b815260206004820152602660248201527f416464726573733a20696e73756666696369656e742062616c616e636520666f6044820152651c8818d85b1b60d21b6064820152608401610660565b6001600160a01b0385163b610f4d5760405162461bcd60e51b815260206004820152601d60248201527f416464726573733a2063616c6c20746f206e6f6e2d636f6e74726163740000006044820152606401610660565b600080866001600160a01b03168587604051610f699190611672565b60006040518083038185875af1925050503d8060008114610fa6576040519150601f19603f3d011682016040523d82523d6000602084013e610fab565b606091505b5091509150610fbb828286610fc6565b979650505050505050565b60608315610fd5575081610a79565b825115610fe55782518084602001fd5b8160405162461bcd60e51b81526004016106609190611438565b6000806040838503121561101257600080fd5b50508035926020909101359150565b634e487b7160e01b600052604160045260246000fd5b604051601f8201601f1916810167ffffffffffffffff8111828210171561106057611060611021565b604052919050565b600067ffffffffffffffff82111561108257611082611021565b5060051b60200190565b6000602080838503121561109f57600080fd5b823567ffffffffffffffff8111156110b657600080fd5b8301601f810185136110c757600080fd5b80356110da6110d582611068565b611037565b81815260059190911b820183019083810190878311156110f957600080fd5b928401925b82841015610fbb578335825292840192908401906110fe565b6001600160a01b038116811461112c57600080fd5b50565b6000806040838503121561114257600080fd5b823561114d81611117565b9150602083013561115d81611117565b809150509250929050565b801515811461112c57600080fd5b600060c0828403121561118857600080fd5b60405160c0810181811067ffffffffffffffff821117156111ab576111ab611021565b60405282356111b981611117565b815260208301356111c981611117565b80602083015250604083013560408201526060830135606082015260808301356111f281611168565b608082015260a083013561120581611117565b60a08201529392505050565b60006020828403121561122357600080fd5b5035919050565b60008060006060848603121561123f57600080fd5b833561124a81611117565b9250602084013561125a81611117565b929592945050506040919091013590565b600082601f83011261127c57600080fd5b813567ffffffffffffffff81111561129657611296611021565b6112a9601f8201601f1916602001611037565b8181528460208386010111156112be57600080fd5b816020850160208301376000918101602001919091529392505050565b6000806000604084860312156112f057600080fd5b833567ffffffffffffffff8082111561130857600080fd5b818601915086601f83011261131c57600080fd5b81358181111561132b57600080fd5b602088818360051b860101111561134157600080fd5b80840196508195508088013593508284111561135c57600080fd5b838801935088601f85011261137057600080fd5b833591506113806110d583611068565b82815260059290921b8401810191818101908a84111561139f57600080fd5b8286015b848110156113d7578035868111156113bb5760008081fd5b6113c98d86838b010161126b565b8452509183019183016113a3565b508096505050505050509250925092565b60005b838110156114035781810151838201526020016113eb565b50506000910152565b600081518084526114248160208601602086016113e8565b601f01601f19169290920160200192915050565b602081526000610a79602083018461140c565b6000806040838503121561145e57600080fd5b823561146981611117565b9150602083013567ffffffffffffffff81111561148557600080fd5b6114918582860161126b565b9150509250929050565b634e487b7160e01b600052603260045260246000fd5b634e487b7160e01b600052601160045260246000fd5b6000600182016114d9576114d96114b1565b5060010190565b6000602082840312156114f257600080fd5b8151610a7981611168565b6101008101610b68828480516001600160a01b03908116835260208083015182169084015260408083015162ffffff16908401526060808301518216908401526080808301519084015260a0828101519084015260c0808301519084015260e09182015116910152565b60006020828403121561157957600080fd5b5051919050565b60006020828403121561159257600080fd5b8135610a7981611117565b600060ff821660ff81036115b3576115b36114b1565b60010192915050565b6000600160ff1b82016115d1576115d16114b1565b5060000390565b6080815260006115eb608083018761140c565b8560208401528281036040840152611603818661140c565b91505082606083015295945050505050565b80820180821115610b6857610b686114b1565b60408152600061163b604083018561140c565b90508260208301529392505050565b808201828112600083128015821682158216171561166a5761166a6114b1565b505092915050565b600082516116848184602087016113e8565b919091019291505056fea2646970667358221220048fcea6ab85195b7d824129410dc89667b917788f6cc775fa41d7b4991b904f64736f6c63430008110033",
    "linkReferences": {}
  },
  "methodIdentifiers": {
    "_totalBorrowed()": "c52cee7a",
    "addCollateral(address,address,uint256)": "59781034",
    "addPosition(bytes32,int256)": "7b44fb64",
    "approveToProtocol(address,address)": "272c4a11",
    "baseToken()": "c55dae63",
    "contractRegistry()": "abf410e5",
    "cumulativeIndexAtOpen()": "17d11a15",
    "cumulative_RAY()": "aeccd4b9",
    "execMultiTx(address[],bytes[])": "59cbbf49",
    "executeTx(address,bytes)": "fac5e981",
    "existingPosition(bytes32)": "eda11ef0",
    "getPositionOpenNotional(bytes32)": "db386b8d",
    "getPositionValue(bytes32)": "59b4b5ee",
    "getTotalMarginInMarkets()": "cfff3401",
    "getTotalNotional(bytes32[])": "1f7dd4ba",
    "marginInMarket(bytes32)": "f73b858d",
    "marginManager()": "481cecaa",
    "marketManager()": "41ed2c12",
    "positions(bytes32)": "514ea4bf",
    "removePosition(bytes32)": "4c89b68d",
    "router()": "f887ea40",
    "swap((address,address,uint256,uint256,bool,uint160))": "33c92c50",
    "totalBorrowed()": "4c19386c",
    "totalInternalLev()": "1fb3b7ac",
    "transferTokens(address,address,uint256)": "a64b6e5f",
    "underlyingToken()": "2495a599",
    "updateBorrowData(uint256,uint256)": "0797ceec",
    "updateMarginInMarket(bytes32,int256)": "bbf9f2a0",
    "updatePosition(bytes32,int256)": "7d1c484d"
  },
  "id": 40
}