{
  "abi": [
    {
      "inputs": [
        {
          "internalType": "address",
          "name": "_router",
          "type": "address"
        }
      ],
      "stateMutability": "nonpayable",
      "type": "constructor"
    },
    {
      "inputs": [
        {
          "internalType": "address",
          "name": "from",
          "type": "address"
        },
        {
          "internalType": "address",
          "name": "token",
          "type": "address"
        },
        {
          "internalType": "uint256",
          "name": "amount",
          "type": "uint256"
        }
      ],
      "name": "addCollateral",
      "outputs": [],
      "stateMutability": "nonpayable",
      "type": "function"
    },
    {
      "inputs": [
        {
          "internalType": "bytes32",
          "name": "market",
          "type": "bytes32"
        },
        {
          "components": [
            {
              "internalType": "address",
              "name": "protocol",
              "type": "address"
            },
            {
              "internalType": "int256",
              "name": "openNotional",
              "type": "int256"
            },
            {
              "internalType": "int256",
              "name": "size",
              "type": "int256"
            },
            {
              "internalType": "uint256",
              "name": "orderFee",
              "type": "uint256"
            }
          ],
          "internalType": "struct Position",
          "name": "position",
          "type": "tuple"
        }
      ],
      "name": "addPosition",
      "outputs": [],
      "stateMutability": "nonpayable",
      "type": "function"
    },
    {
      "inputs": [
        {
          "internalType": "address",
          "name": "token",
          "type": "address"
        },
        {
          "internalType": "address",
          "name": "protocol",
          "type": "address"
        }
      ],
      "name": "approveToProtocol",
      "outputs": [],
      "stateMutability": "nonpayable",
      "type": "function"
    },
    {
      "inputs": [],
      "name": "contractRegistry",
      "outputs": [
        {
          "internalType": "contract IContractRegistry",
          "name": "",
          "type": "address"
        }
      ],
      "stateMutability": "view",
      "type": "function"
    },
    {
      "inputs": [],
      "name": "cumulativeIndexAtOpen",
      "outputs": [
        {
          "internalType": "uint256",
          "name": "",
          "type": "uint256"
        }
      ],
      "stateMutability": "view",
      "type": "function"
    },
    {
      "inputs": [],
      "name": "cumulative_RAY",
      "outputs": [
        {
          "internalType": "uint256",
          "name": "",
          "type": "uint256"
        }
      ],
      "stateMutability": "view",
      "type": "function"
    },
    {
      "inputs": [
        {
          "internalType": "address[]",
          "name": "destinations",
          "type": "address[]"
        },
        {
          "internalType": "bytes[]",
          "name": "dataArray",
          "type": "bytes[]"
        }
      ],
      "name": "execMultiTx",
      "outputs": [
        {
          "internalType": "bytes",
          "name": "returnData",
          "type": "bytes"
        }
      ],
      "stateMutability": "nonpayable",
      "type": "function"
    },
    {
      "inputs": [
        {
          "internalType": "address",
          "name": "destination",
          "type": "address"
        },
        {
          "internalType": "bytes",
          "name": "data",
          "type": "bytes"
        }
      ],
      "name": "executeTx",
      "outputs": [
        {
          "internalType": "bytes",
          "name": "",
          "type": "bytes"
        }
      ],
      "stateMutability": "nonpayable",
      "type": "function"
    },
    {
      "inputs": [
        {
          "internalType": "bytes32",
          "name": "",
          "type": "bytes32"
        }
      ],
      "name": "existingPosition",
      "outputs": [
        {
          "internalType": "bool",
          "name": "",
          "type": "bool"
        }
      ],
      "stateMutability": "view",
      "type": "function"
    },
    {
      "inputs": [
        {
          "internalType": "bytes32",
          "name": "market",
          "type": "bytes32"
        }
      ],
      "name": "getPosition",
      "outputs": [
        {
          "internalType": "int256",
          "name": "",
          "type": "int256"
        }
      ],
      "stateMutability": "view",
      "type": "function"
    },
    {
      "inputs": [
        {
          "internalType": "bytes32",
          "name": "market",
          "type": "bytes32"
        }
      ],
      "name": "getPositionOpenNotional",
      "outputs": [
        {
          "internalType": "int256",
          "name": "",
          "type": "int256"
        }
      ],
      "stateMutability": "view",
      "type": "function"
    },
    {
      "inputs": [
        {
          "internalType": "bytes32",
          "name": "market",
          "type": "bytes32"
        }
      ],
      "name": "getPositionOrderFee",
      "outputs": [
        {
          "internalType": "uint256",
          "name": "",
          "type": "uint256"
        }
      ],
      "stateMutability": "view",
      "type": "function"
    },
    {
      "inputs": [
        {
          "internalType": "bytes32[]",
          "name": "_allowedMarkets",
          "type": "bytes32[]"
        }
      ],
      "name": "getTotalOpeningAbsoluteNotional",
      "outputs": [
        {
          "internalType": "uint256",
          "name": "totalNotional",
          "type": "uint256"
        }
      ],
      "stateMutability": "view",
      "type": "function"
    },
    {
      "inputs": [
        {
          "internalType": "bytes32[]",
          "name": "_allowedMarkets",
          "type": "bytes32[]"
        }
      ],
      "name": "getTotalOpeningNotional",
      "outputs": [
        {
          "internalType": "int256",
          "name": "totalNotional",
          "type": "int256"
        }
      ],
      "stateMutability": "view",
      "type": "function"
    },
    {
      "inputs": [
        {
          "internalType": "address",
          "name": "",
          "type": "address"
        }
      ],
      "name": "marginInMarket",
      "outputs": [
        {
          "internalType": "int256",
          "name": "",
          "type": "int256"
        }
      ],
      "stateMutability": "view",
      "type": "function"
    },
    {
      "inputs": [],
      "name": "marginManager",
      "outputs": [
        {
          "internalType": "address",
          "name": "",
          "type": "address"
        }
      ],
      "stateMutability": "view",
      "type": "function"
    },
    {
      "inputs": [],
      "name": "pendingFee",
      "outputs": [
        {
          "internalType": "int256",
          "name": "",
          "type": "int256"
        }
      ],
      "stateMutability": "view",
      "type": "function"
    },
    {
      "inputs": [
        {
          "internalType": "bytes32",
          "name": "",
          "type": "bytes32"
        }
      ],
      "name": "positions",
      "outputs": [
        {
          "internalType": "address",
          "name": "protocol",
          "type": "address"
        },
        {
          "internalType": "int256",
          "name": "openNotional",
          "type": "int256"
        },
        {
          "internalType": "int256",
          "name": "size",
          "type": "int256"
        },
        {
          "internalType": "uint256",
          "name": "orderFee",
          "type": "uint256"
        }
      ],
      "stateMutability": "view",
      "type": "function"
    },
    {
      "inputs": [
        {
          "internalType": "bytes32",
          "name": "market",
          "type": "bytes32"
        }
      ],
      "name": "removePosition",
      "outputs": [],
      "stateMutability": "nonpayable",
      "type": "function"
    },
    {
      "inputs": [],
      "name": "router",
      "outputs": [
        {
          "internalType": "contract ISwapRouter",
          "name": "",
          "type": "address"
        }
      ],
      "stateMutability": "view",
      "type": "function"
    },
    {
      "inputs": [
        {
          "components": [
            {
              "internalType": "address",
              "name": "tokenIn",
              "type": "address"
            },
            {
              "internalType": "address",
              "name": "tokenOut",
              "type": "address"
            },
            {
              "internalType": "uint256",
              "name": "amountIn",
              "type": "uint256"
            },
            {
              "internalType": "uint256",
              "name": "amountOut",
              "type": "uint256"
            },
            {
              "internalType": "bool",
              "name": "isExactInput",
              "type": "bool"
            },
            {
              "internalType": "uint160",
              "name": "sqrtPriceLimitX96",
              "type": "uint160"
            },
            {
              "internalType": "uint256",
              "name": "amountOutMinimum",
              "type": "uint256"
            }
          ],
          "internalType": "struct IExchange.SwapParams",
          "name": "_swapParams",
          "type": "tuple"
        }
      ],
      "name": "swap",
      "outputs": [
        {
          "internalType": "uint256",
          "name": "amountOut",
          "type": "uint256"
        }
      ],
      "stateMutability": "nonpayable",
      "type": "function"
    },
    {
      "inputs": [],
      "name": "totalBorrowed",
      "outputs": [
        {
          "internalType": "uint256",
          "name": "",
          "type": "uint256"
        }
      ],
      "stateMutability": "view",
      "type": "function"
    },
    {
      "inputs": [],
      "name": "totalInternalLev",
      "outputs": [
        {
          "internalType": "uint256",
          "name": "",
          "type": "uint256"
        }
      ],
      "stateMutability": "view",
      "type": "function"
    },
    {
      "inputs": [],
      "name": "totalMarginInMarkets",
      "outputs": [
        {
          "internalType": "int256",
          "name": "",
          "type": "int256"
        }
      ],
      "stateMutability": "view",
      "type": "function"
    },
    {
      "inputs": [
        {
          "internalType": "address",
          "name": "token",
          "type": "address"
        },
        {
          "internalType": "address",
          "name": "to",
          "type": "address"
        },
        {
          "internalType": "uint256",
          "name": "amount",
          "type": "uint256"
        }
      ],
      "name": "transferTokens",
      "outputs": [],
      "stateMutability": "nonpayable",
      "type": "function"
    },
    {
      "inputs": [],
      "name": "unsettledRealizedPnL",
      "outputs": [
        {
          "internalType": "int256",
          "name": "",
          "type": "int256"
        }
      ],
      "stateMutability": "view",
      "type": "function"
    },
    {
      "inputs": [
        {
          "internalType": "uint256",
          "name": "totalBorrowedAmount",
          "type": "uint256"
        },
        {
          "internalType": "uint256",
          "name": "_cumulativeIndexAtOpen",
          "type": "uint256"
        }
      ],
      "name": "updateBorrowData",
      "outputs": [],
      "stateMutability": "nonpayable",
      "type": "function"
    },
    {
      "inputs": [
        {
          "internalType": "int256",
          "name": "fee",
          "type": "int256"
        }
      ],
      "name": "updateFee",
      "outputs": [],
      "stateMutability": "nonpayable",
      "type": "function"
    },
    {
      "inputs": [
        {
          "internalType": "address",
          "name": "market",
          "type": "address"
        },
        {
          "internalType": "int256",
          "name": "transferredMargin",
          "type": "int256"
        }
      ],
      "name": "updateMarginInMarket",
      "outputs": [],
      "stateMutability": "nonpayable",
      "type": "function"
    },
    {
      "inputs": [
        {
          "internalType": "bytes32",
          "name": "market",
          "type": "bytes32"
        },
        {
          "components": [
            {
              "internalType": "address",
              "name": "protocol",
              "type": "address"
            },
            {
              "internalType": "int256",
              "name": "openNotional",
              "type": "int256"
            },
            {
              "internalType": "int256",
              "name": "size",
              "type": "int256"
            },
            {
              "internalType": "uint256",
              "name": "orderFee",
              "type": "uint256"
            }
          ],
          "internalType": "struct Position",
          "name": "position",
          "type": "tuple"
        }
      ],
      "name": "updatePosition",
      "outputs": [],
      "stateMutability": "nonpayable",
      "type": "function"
    },
    {
      "inputs": [
        {
          "internalType": "int256",
          "name": "_realizedPnL",
          "type": "int256"
        }
      ],
      "name": "updateUnsettledRealizedPnL",
      "outputs": [],
      "stateMutability": "nonpayable",
      "type": "function"
    }
  ],
  "bytecode": {
    "object": "0x60806040523480156200001157600080fd5b50604051620033983803806200339883398181016040528101906200003791906200019e565b80600073ffffffffffffffffffffffffffffffffffffffff168173ffffffffffffffffffffffffffffffffffffffff1603620000aa576040517f08c379a0000000000000000000000000000000000000000000000000000000008152600401620000a19062000231565b60405180910390fd5b80600160006101000a81548173ffffffffffffffffffffffffffffffffffffffff021916908373ffffffffffffffffffffffffffffffffffffffff1602179055505033600460006101000a81548173ffffffffffffffffffffffffffffffffffffffff021916908373ffffffffffffffffffffffffffffffffffffffff1602179055505062000253565b600080fd5b600073ffffffffffffffffffffffffffffffffffffffff82169050919050565b6000620001668262000139565b9050919050565b620001788162000159565b81146200018457600080fd5b50565b60008151905062000198816200016d565b92915050565b600060208284031215620001b757620001b662000134565b5b6000620001c78482850162000187565b91505092915050565b600082825260208201905092915050565b7f4d413a42616420526f7574657220616464726573730000000000000000000000600082015250565b600062000219601583620001d0565b91506200022682620001e1565b602082019050919050565b600060208201905081810360008301526200024c816200020a565b9050919050565b61313580620002636000396000f3fe608060405234801561001057600080fd5b50600436106101e55760003560e01c8063597810341161010f578063ba3f279f116100a2578063db386b8d11610071578063db386b8d14610593578063eda11ef0146105c3578063f887ea40146105f3578063fac5e98114610611576101e5565b8063ba3f279f146104f9578063c0cb2d2514610529578063ca96a6a714610559578063d93baf7414610577576101e5565b8063a64b6e5f116100de578063a64b6e5f14610485578063abf410e5146104a1578063aeccd4b9146104bf578063b1f1150c146104dd576101e5565b806359781034146103eb57806359cbbf4914610407578063643090bc1461043757806390b2f8f514610455576101e5565b8063220b6dec11610187578063481cecaa11610156578063481cecaa146103605780634c19386c1461037e5780634c89b68d1461039c578063514ea4bf146103b8576101e5565b8063220b6dec146102da578063251b652c1461030a578063272c4a1114610328578063318a96a714610344576101e5565b806317d11a15116101c357806317d11a151461023e5780631928b3cb1461025c5780631d9fd3091461028c5780631fb3b7ac146102bc576101e5565b8063019ce002146101ea5780630797ceec146102065780630952886a14610222575b600080fd5b61020460048036038101906101ff9190611c84565b610641565b005b610220600480360381019061021b9190611cc4565b610721565b005b61023c60048036038101906102379190611d04565b610733565b005b61024661087b565b6040516102539190611d53565b60405180910390f35b61027660048036038101906102719190611d6e565b610881565b6040516102839190611daa565b60405180910390f35b6102a660048036038101906102a19190611e92565b6108a1565b6040516102b39190611d53565b60405180910390f35b6102c461091a565b6040516102d19190611d53565b60405180910390f35b6102f460048036038101906102ef9190611ff3565b610920565b6040516103019190611d53565b60405180910390f35b6103126110ce565b60405161031f9190611daa565b60405180910390f35b610342600480360381019061033d9190612020565b6110d4565b005b61035e60048036038101906103599190611c84565b611177565b005b610368611223565b604051610375919061206f565b60405180910390f35b610386611249565b6040516103939190611d53565b60405180910390f35b6103b660048036038101906103b19190611d6e565b61124f565b005b6103d260048036038101906103cd9190611d6e565b6112d3565b6040516103e2949392919061208a565b60405180910390f35b610405600480360381019061040091906120cf565b611323565b005b610421600480360381019061041c9190612313565b611355565b60405161042e919061240e565b60405180910390f35b61043f611406565b60405161044c9190611daa565b60405180910390f35b61046f600480360381019061046a9190611e92565b61140c565b60405161047c9190611daa565b60405180910390f35b61049f600480360381019061049a91906120cf565b61147d565b005b6104a96114ad565b6040516104b6919061248f565b60405180910390f35b6104c76114d1565b6040516104d49190611d53565b60405180910390f35b6104f760048036038101906104f291906124aa565b6114d7565b005b610513600480360381019061050e9190611d6e565b6114f5565b6040516105209190611d53565b60405180910390f35b610543600480360381019061053e91906124d7565b611515565b6040516105509190611daa565b60405180910390f35b61056161152d565b60405161056e9190611daa565b60405180910390f35b610591600480360381019061058c91906124aa565b611533565b005b6105ad60048036038101906105a89190611d6e565b61153d565b6040516105ba9190611daa565b60405180910390f35b6105dd60048036038101906105d89190611d6e565b61155d565b6040516105ea9190612513565b60405180910390f35b6105fb61157d565b604051610608919061254f565b60405180910390f35b61062b6004803603810190610626919061256a565b6115a3565b604051610638919061240e565b60405180910390f35b6002600083815260200190815260200160002060009054906101000a900460ff166106a1576040517f08c379a000000000000000000000000000000000000000000000000000000000815260040161069890612623565b60405180910390fd5b806003600084815260200190815260200160002060008201518160000160006101000a81548173ffffffffffffffffffffffffffffffffffffffff021916908373ffffffffffffffffffffffffffffffffffffffff1602179055506020820151816001015560408201518160020155606082015181600301559050505050565b81600781905550806008819055505050565b600061078782600a60008673ffffffffffffffffffffffffffffffffffffffff1673ffffffffffffffffffffffffffffffffffffffff168152602001908152602001600020546115dc90919063ffffffff16565b136107c7576040517f08c379a00000000000000000000000000000000000000000000000000000000081526004016107be906126b5565b60405180910390fd5b6107dc81600b546115dc90919063ffffffff16565b600b8190555061083481600a60008573ffffffffffffffffffffffffffffffffffffffff1673ffffffffffffffffffffffffffffffffffffffff168152602001908152602001600020546115dc90919063ffffffff16565b600a60008473ffffffffffffffffffffffffffffffffffffffff1673ffffffffffffffffffffffffffffffffffffffff168152602001908152602001600020819055505050565b60085481565b600060036000838152602001908152602001600020600201549050919050565b6000808251905060005b81811015610913576108fe6108ef600360008785815181106108d0576108cf6126d5565b5b60200260200101518152602001908152602001600020600101546115f2565b8461160e90919063ffffffff16565b9250808061090b90612733565b9150506108ab565b5050919050565b60055481565b60008073ffffffffffffffffffffffffffffffffffffffff16826000015173ffffffffffffffffffffffffffffffffffffffff1603610994576040517f08c379a000000000000000000000000000000000000000000000000000000000815260040161098b906127c7565b60405180910390fd5b600073ffffffffffffffffffffffffffffffffffffffff16826020015173ffffffffffffffffffffffffffffffffffffffff1603610a07576040517f08c379a00000000000000000000000000000000000000000000000000000000081526004016109fe90612833565b60405180910390fd5b816080015115610b06576000826040015111610a58576040517f08c379a0000000000000000000000000000000000000000000000000000000008152600401610a4f9061289f565b60405180910390fd5b816000015173ffffffffffffffffffffffffffffffffffffffff1663095ea7b3600160009054906101000a900473ffffffffffffffffffffffffffffffffffffffff1684604001516040518363ffffffff1660e01b8152600401610abd9291906128bf565b6020604051808303816000875af1158015610adc573d6000803e3d6000fd5b505050506040513d601f19601f82011682018060405250810190610b0091906128fd565b50610bf7565b6000826060015111610b4d576040517f08c379a0000000000000000000000000000000000000000000000000000000008152600401610b449061299c565b60405180910390fd5b816000015173ffffffffffffffffffffffffffffffffffffffff1663095ea7b3600160009054906101000a900473ffffffffffffffffffffffffffffffffffffffff1684606001516040518363ffffffff1660e01b8152600401610bb29291906128bf565b6020604051808303816000875af1158015610bd1573d6000803e3d6000fd5b505050506040513d601f19601f82011682018060405250810190610bf591906128fd565b505b6000610c01611624565b90506000610c178460000151856020015161162d565b90508015610ed157836080015115610d7e576000604051806101000160405280866000015173ffffffffffffffffffffffffffffffffffffffff168152602001866020015173ffffffffffffffffffffffffffffffffffffffff1681526020018462ffffff1681526020013073ffffffffffffffffffffffffffffffffffffffff168152602001428152602001866040015181526020018660c0015181526020018660a0015173ffffffffffffffffffffffffffffffffffffffff168152509050600160009054906101000a900473ffffffffffffffffffffffffffffffffffffffff1673ffffffffffffffffffffffffffffffffffffffff1663414bf389826040518263ffffffff1660e01b8152600401610d339190612aa9565b6020604051808303816000875af1158015610d52573d6000803e3d6000fd5b505050506040513d601f19601f82011682018060405250810190610d769190612ada565b935050610ecc565b6000604051806101000160405280866000015173ffffffffffffffffffffffffffffffffffffffff168152602001866020015173ffffffffffffffffffffffffffffffffffffffff1681526020018462ffffff1681526020013073ffffffffffffffffffffffffffffffffffffffff16815260200142815260200186606001518152602001600081526020018660a0015173ffffffffffffffffffffffffffffffffffffffff168152509050600160009054906101000a900473ffffffffffffffffffffffffffffffffffffffff1673ffffffffffffffffffffffffffffffffffffffff1663db3e2198826040518263ffffffff1660e01b8152600401610e859190612ba9565b6020604051808303816000875af1158015610ea4573d6000803e3d6000fd5b505050506040513d601f19601f82011682018060405250810190610ec89190612ada565b9350505b6110c7565b6000610ee585600001518660200151611639565b9050846080015115610fdd5760006040518060a001604052808381526020013373ffffffffffffffffffffffffffffffffffffffff1681526020014281526020018760400151815260200160008152509050600160009054906101000a900473ffffffffffffffffffffffffffffffffffffffff1673ffffffffffffffffffffffffffffffffffffffff1663c04b8d59826040518263ffffffff1660e01b8152600401610f929190612c85565b6020604051808303816000875af1158015610fb1573d6000803e3d6000fd5b505050506040513d601f19601f82011682018060405250810190610fd59190612ada565b9450506110c5565b60006040518060a001604052808381526020013373ffffffffffffffffffffffffffffffffffffffff1681526020014281526020018760600151815260200160008152509050600160009054906101000a900473ffffffffffffffffffffffffffffffffffffffff1673ffffffffffffffffffffffffffffffffffffffff1663f28c0498826040518263ffffffff1660e01b815260040161107e9190612d1d565b6020604051808303816000875af115801561109d573d6000803e3d6000fd5b505050506040513d601f19601f820116820180604052508101906110c19190612ada565b9450505b505b5050919050565b600c5481565b8173ffffffffffffffffffffffffffffffffffffffff1663095ea7b3827fffffffffffffffffffffffffffffffffffffffffffffffffffffffffffffffff6040518363ffffffff1660e01b815260040161112f9291906128bf565b6020604051808303816000875af115801561114e573d6000803e3d6000fd5b505050506040513d601f19601f8201168201806040525081019061117291906128fd565b505050565b806003600084815260200190815260200160002060008201518160000160006101000a81548173ffffffffffffffffffffffffffffffffffffffff021916908373ffffffffffffffffffffffffffffffffffffffff16021790555060208201518160010155604082015181600201556060820151816003015590505060016002600084815260200190815260200160002060006101000a81548160ff0219169083151502179055505050565b600460009054906101000a900473ffffffffffffffffffffffffffffffffffffffff1681565b60075481565b60006002600083815260200190815260200160002060006101000a81548160ff02191690831515021790555060036000828152602001908152602001600020600080820160006101000a81549073ffffffffffffffffffffffffffffffffffffffff0219169055600182016000905560028201600090556003820160009055505050565b60036020528060005260406000206000915090508060000160009054906101000a900473ffffffffffffffffffffffffffffffffffffffff16908060010154908060020154908060030154905084565b6113508330838573ffffffffffffffffffffffffffffffffffffffff16611641909392919063ffffffff16565b505050565b60606000611365858590506116ca565b905060005b8160ff168160ff1610156113fd576113e8848260ff1681518110611391576113906126d5565b5b602002602001015187878460ff168181106113af576113ae6126d5565b5b90506020020160208101906113c491906124d7565b73ffffffffffffffffffffffffffffffffffffffff1661171a90919063ffffffff16565b925080806113f590612d4c565b91505061136a565b50509392505050565b60095481565b6000808251905060005b818110156114765761146160036000868481518110611438576114376126d5565b5b6020026020010151815260200190815260200160002060010154846115dc90919063ffffffff16565b9250808061146e90612733565b915050611416565b5050919050565b6114a882828573ffffffffffffffffffffffffffffffffffffffff166117649092919063ffffffff16565b505050565b60008054906101000a900473ffffffffffffffffffffffffffffffffffffffff1681565b60065481565b6114ec816009546115dc90919063ffffffff16565b60098190555050565b600060036000838152602001908152602001600020600301549050919050565b600a6020528060005260406000206000915090505481565b600b5481565b80600c8190555050565b600060036000838152602001908152602001600020600101549050919050565b60026020528060005260406000206000915054906101000a900460ff1681565b600160009054906101000a900473ffffffffffffffffffffffffffffffffffffffff1681565b606060006115d0838573ffffffffffffffffffffffffffffffffffffffff1661171a90919063ffffffff16565b90508091505092915050565b600081836115ea9190612d75565b905092915050565b6000808212156116055781600003611607565b815b9050919050565b6000818361161c9190612db9565b905092915050565b60006064905090565b60006001905092915050565b606092915050565b6116c4846323b872dd60e01b85858560405160240161166293929190612ded565b604051602081830303815290604052907bffffffffffffffffffffffffffffffffffffffffffffffffffffffff19166020820180517bffffffffffffffffffffffffffffffffffffffffffffffffffffffff83818316178352505050506117ea565b50505050565b600060ff8016821115611712576040517f08c379a000000000000000000000000000000000000000000000000000000000815260040161170990612e96565b60405180910390fd5b819050919050565b606061175c83836040518060400160405280601e81526020017f416464726573733a206c6f772d6c6576656c2063616c6c206661696c656400008152506118b1565b905092915050565b6117e58363a9059cbb60e01b84846040516024016117839291906128bf565b604051602081830303815290604052907bffffffffffffffffffffffffffffffffffffffffffffffffffffffff19166020820180517bffffffffffffffffffffffffffffffffffffffffffffffffffffffff83818316178352505050506117ea565b505050565b600061184c826040518060400160405280602081526020017f5361666545524332303a206c6f772d6c6576656c2063616c6c206661696c65648152508573ffffffffffffffffffffffffffffffffffffffff166118b19092919063ffffffff16565b90506000815111156118ac578080602001905181019061186c91906128fd565b6118ab576040517f08c379a00000000000000000000000000000000000000000000000000000000081526004016118a290612f28565b60405180910390fd5b5b505050565b60606118c084846000856118c9565b90509392505050565b60608247101561190e576040517f08c379a000000000000000000000000000000000000000000000000000000000815260040161190590612fba565b60405180910390fd5b611917856119dd565b611956576040517f08c379a000000000000000000000000000000000000000000000000000000000815260040161194d90613026565b60405180910390fd5b6000808673ffffffffffffffffffffffffffffffffffffffff16858760405161197f9190613082565b60006040518083038185875af1925050503d80600081146119bc576040519150601f19603f3d011682016040523d82523d6000602084013e6119c1565b606091505b50915091506119d1828286611a00565b92505050949350505050565b6000808273ffffffffffffffffffffffffffffffffffffffff163b119050919050565b60608315611a1057829050611a60565b600083511115611a235782518084602001fd5b816040517f08c379a0000000000000000000000000000000000000000000000000000000008152600401611a5791906130dd565b60405180910390fd5b9392505050565b6000604051905090565b600080fd5b600080fd5b6000819050919050565b611a8e81611a7b565b8114611a9957600080fd5b50565b600081359050611aab81611a85565b92915050565b600080fd5b6000601f19601f8301169050919050565b7f4e487b7100000000000000000000000000000000000000000000000000000000600052604160045260246000fd5b611aff82611ab6565b810181811067ffffffffffffffff82111715611b1e57611b1d611ac7565b5b80604052505050565b6000611b31611a67565b9050611b3d8282611af6565b919050565b600073ffffffffffffffffffffffffffffffffffffffff82169050919050565b6000611b6d82611b42565b9050919050565b611b7d81611b62565b8114611b8857600080fd5b50565b600081359050611b9a81611b74565b92915050565b6000819050919050565b611bb381611ba0565b8114611bbe57600080fd5b50565b600081359050611bd081611baa565b92915050565b6000819050919050565b611be981611bd6565b8114611bf457600080fd5b50565b600081359050611c0681611be0565b92915050565b600060808284031215611c2257611c21611ab1565b5b611c2c6080611b27565b90506000611c3c84828501611b8b565b6000830152506020611c5084828501611bc1565b6020830152506040611c6484828501611bc1565b6040830152506060611c7884828501611bf7565b60608301525092915050565b60008060a08385031215611c9b57611c9a611a71565b5b6000611ca985828601611a9c565b9250506020611cba85828601611c0c565b9150509250929050565b60008060408385031215611cdb57611cda611a71565b5b6000611ce985828601611bf7565b9250506020611cfa85828601611bf7565b9150509250929050565b60008060408385031215611d1b57611d1a611a71565b5b6000611d2985828601611b8b565b9250506020611d3a85828601611bc1565b9150509250929050565b611d4d81611bd6565b82525050565b6000602082019050611d686000830184611d44565b92915050565b600060208284031215611d8457611d83611a71565b5b6000611d9284828501611a9c565b91505092915050565b611da481611ba0565b82525050565b6000602082019050611dbf6000830184611d9b565b92915050565b600080fd5b600067ffffffffffffffff821115611de557611de4611ac7565b5b602082029050602081019050919050565b600080fd5b6000611e0e611e0984611dca565b611b27565b90508083825260208201905060208402830185811115611e3157611e30611df6565b5b835b81811015611e5a5780611e468882611a9c565b845260208401935050602081019050611e33565b5050509392505050565b600082601f830112611e7957611e78611dc5565b5b8135611e89848260208601611dfb565b91505092915050565b600060208284031215611ea857611ea7611a71565b5b600082013567ffffffffffffffff811115611ec657611ec5611a76565b5b611ed284828501611e64565b91505092915050565b60008115159050919050565b611ef081611edb565b8114611efb57600080fd5b50565b600081359050611f0d81611ee7565b92915050565b611f1c81611b42565b8114611f2757600080fd5b50565b600081359050611f3981611f13565b92915050565b600060e08284031215611f5557611f54611ab1565b5b611f5f60e0611b27565b90506000611f6f84828501611b8b565b6000830152506020611f8384828501611b8b565b6020830152506040611f9784828501611bf7565b6040830152506060611fab84828501611bf7565b6060830152506080611fbf84828501611efe565b60808301525060a0611fd384828501611f2a565b60a08301525060c0611fe784828501611bf7565b60c08301525092915050565b600060e0828403121561200957612008611a71565b5b600061201784828501611f3f565b91505092915050565b6000806040838503121561203757612036611a71565b5b600061204585828601611b8b565b925050602061205685828601611b8b565b9150509250929050565b61206981611b62565b82525050565b60006020820190506120846000830184612060565b92915050565b600060808201905061209f6000830187612060565b6120ac6020830186611d9b565b6120b96040830185611d9b565b6120c66060830184611d44565b95945050505050565b6000806000606084860312156120e8576120e7611a71565b5b60006120f686828701611b8b565b935050602061210786828701611b8b565b925050604061211886828701611bf7565b9150509250925092565b600080fd5b60008083601f84011261213d5761213c611dc5565b5b8235905067ffffffffffffffff81111561215a57612159612122565b5b60208301915083602082028301111561217657612175611df6565b5b9250929050565b600067ffffffffffffffff82111561219857612197611ac7565b5b602082029050602081019050919050565b600080fd5b600067ffffffffffffffff8211156121c9576121c8611ac7565b5b6121d282611ab6565b9050602081019050919050565b82818337600083830152505050565b60006122016121fc846121ae565b611b27565b90508281526020810184848401111561221d5761221c6121a9565b5b6122288482856121df565b509392505050565b600082601f83011261224557612244611dc5565b5b81356122558482602086016121ee565b91505092915050565b600061227161226c8461217d565b611b27565b9050808382526020820190506020840283018581111561229457612293611df6565b5b835b818110156122db57803567ffffffffffffffff8111156122b9576122b8611dc5565b5b8086016122c68982612230565b85526020850194505050602081019050612296565b5050509392505050565b600082601f8301126122fa576122f9611dc5565b5b813561230a84826020860161225e565b91505092915050565b60008060006040848603121561232c5761232b611a71565b5b600084013567ffffffffffffffff81111561234a57612349611a76565b5b61235686828701612127565b9350935050602084013567ffffffffffffffff81111561237957612378611a76565b5b612385868287016122e5565b9150509250925092565b600081519050919050565b600082825260208201905092915050565b60005b838110156123c95780820151818401526020810190506123ae565b60008484015250505050565b60006123e08261238f565b6123ea818561239a565b93506123fa8185602086016123ab565b61240381611ab6565b840191505092915050565b6000602082019050818103600083015261242881846123d5565b905092915050565b6000819050919050565b600061245561245061244b84611b42565b612430565b611b42565b9050919050565b60006124678261243a565b9050919050565b60006124798261245c565b9050919050565b6124898161246e565b82525050565b60006020820190506124a46000830184612480565b92915050565b6000602082840312156124c0576124bf611a71565b5b60006124ce84828501611bc1565b91505092915050565b6000602082840312156124ed576124ec611a71565b5b60006124fb84828501611b8b565b91505092915050565b61250d81611edb565b82525050565b60006020820190506125286000830184612504565b92915050565b60006125398261245c565b9050919050565b6125498161252e565b82525050565b60006020820190506125646000830184612540565b92915050565b6000806040838503121561258157612580611a71565b5b600061258f85828601611b8b565b925050602083013567ffffffffffffffff8111156125b0576125af611a76565b5b6125bc85828601612230565b9150509250929050565b600082825260208201905092915050565b7f4e6f7420616e206578697374696e6720506f736974696f6e0000000000000000600082015250565b600061260d6018836125c6565b9150612618826125d7565b602082019050919050565b6000602082019050818103600083015261263c81612600565b9050919050565b7f4d413a2043616e6e6f742068617665206e65676174697665206d617267696e2060008201527f496e2070726f746f636f6c000000000000000000000000000000000000000000602082015250565b600061269f602b836125c6565b91506126aa82612643565b604082019050919050565b600060208201905081810360008301526126ce81612692565b9050919050565b7f4e487b7100000000000000000000000000000000000000000000000000000000600052603260045260246000fd5b7f4e487b7100000000000000000000000000000000000000000000000000000000600052601160045260246000fd5b600061273e82611bd6565b91507fffffffffffffffffffffffffffffffffffffffffffffffffffffffffffffffff82036127705761276f612704565b5b600182019050919050565b7f4d413a20546f6b656e496e206572726f72000000000000000000000000000000600082015250565b60006127b16011836125c6565b91506127bc8261277b565b602082019050919050565b600060208201905081810360008301526127e0816127a4565b9050919050565b7f4d413a20746f6b656e4f7574206572726f720000000000000000000000000000600082015250565b600061281d6012836125c6565b9150612828826127e7565b602082019050919050565b6000602082019050818103600083015261284c81612810565b9050919050565b7f4d413a20496e76616c696420616d6f756e74496e000000000000000000000000600082015250565b60006128896014836125c6565b915061289482612853565b602082019050919050565b600060208201905081810360008301526128b88161287c565b9050919050565b60006040820190506128d46000830185612060565b6128e16020830184611d44565b9392505050565b6000815190506128f781611ee7565b92915050565b60006020828403121561291357612912611a71565b5b6000612921848285016128e8565b91505092915050565b7f4d413a20496e76616c6964205f73776170506172616d732e616d6f756e744f7560008201527f7400000000000000000000000000000000000000000000000000000000000000602082015250565b60006129866021836125c6565b91506129918261292a565b604082019050919050565b600060208201905081810360008301526129b581612979565b9050919050565b6129c581611b62565b82525050565b600062ffffff82169050919050565b6129e3816129cb565b82525050565b6129f281611bd6565b82525050565b612a0181611b42565b82525050565b61010082016000820151612a1e60008501826129bc565b506020820151612a3160208501826129bc565b506040820151612a4460408501826129da565b506060820151612a5760608501826129bc565b506080820151612a6a60808501826129e9565b5060a0820151612a7d60a08501826129e9565b5060c0820151612a9060c08501826129e9565b5060e0820151612aa360e08501826129f8565b50505050565b600061010082019050612abf6000830184612a07565b92915050565b600081519050612ad481611be0565b92915050565b600060208284031215612af057612aef611a71565b5b6000612afe84828501612ac5565b91505092915050565b61010082016000820151612b1e60008501826129bc565b506020820151612b3160208501826129bc565b506040820151612b4460408501826129da565b506060820151612b5760608501826129bc565b506080820151612b6a60808501826129e9565b5060a0820151612b7d60a08501826129e9565b5060c0820151612b9060c08501826129e9565b5060e0820151612ba360e08501826129f8565b50505050565b600061010082019050612bbf6000830184612b07565b92915050565b600082825260208201905092915050565b6000612be18261238f565b612beb8185612bc5565b9350612bfb8185602086016123ab565b612c0481611ab6565b840191505092915050565b600060a0830160008301518482036000860152612c2c8282612bd6565b9150506020830151612c4160208601826129bc565b506040830151612c5460408601826129e9565b506060830151612c6760608601826129e9565b506080830151612c7a60808601826129e9565b508091505092915050565b60006020820190508181036000830152612c9f8184612c0f565b905092915050565b600060a0830160008301518482036000860152612cc48282612bd6565b9150506020830151612cd960208601826129bc565b506040830151612cec60408601826129e9565b506060830151612cff60608601826129e9565b506080830151612d1260808601826129e9565b508091505092915050565b60006020820190508181036000830152612d378184612ca7565b905092915050565b600060ff82169050919050565b6000612d5782612d3f565b915060ff8203612d6a57612d69612704565b5b600182019050919050565b6000612d8082611ba0565b9150612d8b83611ba0565b925082820190508281121560008312168382126000841215161715612db357612db2612704565b5b92915050565b6000612dc482611bd6565b9150612dcf83611bd6565b9250828201905080821115612de757612de6612704565b5b92915050565b6000606082019050612e026000830186612060565b612e0f6020830185612060565b612e1c6040830184611d44565b949350505050565b7f53616665436173743a2076616c756520646f65736e27742066697420696e203860008201527f2062697473000000000000000000000000000000000000000000000000000000602082015250565b6000612e806025836125c6565b9150612e8b82612e24565b604082019050919050565b60006020820190508181036000830152612eaf81612e73565b9050919050565b7f5361666545524332303a204552433230206f7065726174696f6e20646964206e60008201527f6f74207375636365656400000000000000000000000000000000000000000000602082015250565b6000612f12602a836125c6565b9150612f1d82612eb6565b604082019050919050565b60006020820190508181036000830152612f4181612f05565b9050919050565b7f416464726573733a20696e73756666696369656e742062616c616e636520666f60008201527f722063616c6c0000000000000000000000000000000000000000000000000000602082015250565b6000612fa46026836125c6565b9150612faf82612f48565b604082019050919050565b60006020820190508181036000830152612fd381612f97565b9050919050565b7f416464726573733a2063616c6c20746f206e6f6e2d636f6e7472616374000000600082015250565b6000613010601d836125c6565b915061301b82612fda565b602082019050919050565b6000602082019050818103600083015261303f81613003565b9050919050565b600081905092915050565b600061305c8261238f565b6130668185613046565b93506130768185602086016123ab565b80840191505092915050565b600061308e8284613051565b915081905092915050565b600081519050919050565b60006130af82613099565b6130b981856125c6565b93506130c98185602086016123ab565b6130d281611ab6565b840191505092915050565b600060208201905081810360008301526130f781846130a4565b90509291505056fea264697066735822122032a0dea141e11ebd815a03cf0f2ec7bf3a4d3b7f74d056296effa50ead9d028564736f6c63430008110033",
    "linkReferences": {}
  },
  "methodIdentifiers": {
    "addCollateral(address,address,uint256)": "59781034",
    "addPosition(bytes32,(address,int256,int256,uint256))": "318a96a7",
    "approveToProtocol(address,address)": "272c4a11",
    "contractRegistry()": "abf410e5",
    "cumulativeIndexAtOpen()": "17d11a15",
    "cumulative_RAY()": "aeccd4b9",
    "execMultiTx(address[],bytes[])": "59cbbf49",
    "executeTx(address,bytes)": "fac5e981",
    "existingPosition(bytes32)": "eda11ef0",
    "getPosition(bytes32)": "1928b3cb",
    "getPositionOpenNotional(bytes32)": "db386b8d",
    "getPositionOrderFee(bytes32)": "ba3f279f",
    "getTotalOpeningAbsoluteNotional(bytes32[])": "1d9fd309",
    "getTotalOpeningNotional(bytes32[])": "90b2f8f5",
    "marginInMarket(address)": "c0cb2d25",
    "marginManager()": "481cecaa",
    "pendingFee()": "643090bc",
    "positions(bytes32)": "514ea4bf",
    "removePosition(bytes32)": "4c89b68d",
    "router()": "f887ea40",
    "swap((address,address,uint256,uint256,bool,uint160,uint256))": "220b6dec",
    "totalBorrowed()": "4c19386c",
    "totalInternalLev()": "1fb3b7ac",
    "totalMarginInMarkets()": "ca96a6a7",
    "transferTokens(address,address,uint256)": "a64b6e5f",
    "unsettledRealizedPnL()": "251b652c",
    "updateBorrowData(uint256,uint256)": "0797ceec",
    "updateFee(int256)": "b1f1150c",
    "updateMarginInMarket(address,int256)": "0952886a",
    "updatePosition(bytes32,(address,int256,int256,uint256))": "019ce002",
    "updateUnsettledRealizedPnL(int256)": "d93baf74"
  },
  "id": 28
}