{
  "abi": [
    {
      "inputs": [
        {
          "internalType": "address",
          "name": "_router",
          "type": "address"
        }
      ],
      "stateMutability": "nonpayable",
      "type": "constructor"
    },
    {
      "inputs": [],
      "name": "_totalBorrowed",
      "outputs": [
        {
          "internalType": "uint256",
          "name": "",
          "type": "uint256"
        }
      ],
      "stateMutability": "view",
      "type": "function"
    },
    {
      "inputs": [
        {
          "internalType": "address",
          "name": "from",
          "type": "address"
        },
        {
          "internalType": "address",
          "name": "token",
          "type": "address"
        },
        {
          "internalType": "uint256",
          "name": "amount",
          "type": "uint256"
        }
      ],
      "name": "addCollateral",
      "outputs": [],
      "stateMutability": "nonpayable",
      "type": "function"
    },
    {
      "inputs": [
        {
          "internalType": "bytes32",
          "name": "market",
          "type": "bytes32"
        },
        {
          "internalType": "int256",
          "name": "size",
          "type": "int256"
        }
      ],
      "name": "addPosition",
      "outputs": [],
      "stateMutability": "nonpayable",
      "type": "function"
    },
    {
      "inputs": [
        {
          "internalType": "address",
          "name": "token",
          "type": "address"
        },
        {
          "internalType": "address",
          "name": "protocol",
          "type": "address"
        }
      ],
      "name": "approveToProtocol",
      "outputs": [],
      "stateMutability": "nonpayable",
      "type": "function"
    },
    {
      "inputs": [],
      "name": "baseToken",
      "outputs": [
        {
          "internalType": "address",
          "name": "",
          "type": "address"
        }
      ],
      "stateMutability": "view",
      "type": "function"
    },
    {
      "inputs": [],
      "name": "contractRegistry",
      "outputs": [
        {
          "internalType": "contract IContractRegistry",
          "name": "",
          "type": "address"
        }
      ],
      "stateMutability": "view",
      "type": "function"
    },
    {
      "inputs": [],
      "name": "cumulativeIndexAtOpen",
      "outputs": [
        {
          "internalType": "uint256",
          "name": "",
          "type": "uint256"
        }
      ],
      "stateMutability": "view",
      "type": "function"
    },
    {
      "inputs": [],
      "name": "cumulative_RAY",
      "outputs": [
        {
          "internalType": "uint256",
          "name": "",
          "type": "uint256"
        }
      ],
      "stateMutability": "view",
      "type": "function"
    },
    {
      "inputs": [
        {
          "internalType": "address[]",
          "name": "destinations",
          "type": "address[]"
        },
        {
          "internalType": "bytes[]",
          "name": "dataArray",
          "type": "bytes[]"
        }
      ],
      "name": "execMultiTx",
      "outputs": [
        {
          "internalType": "bytes",
          "name": "returnData",
          "type": "bytes"
        }
      ],
      "stateMutability": "nonpayable",
      "type": "function"
    },
    {
      "inputs": [
        {
          "internalType": "address",
          "name": "destination",
          "type": "address"
        },
        {
          "internalType": "bytes",
          "name": "data",
          "type": "bytes"
        }
      ],
      "name": "executeTx",
      "outputs": [
        {
          "internalType": "bytes",
          "name": "",
          "type": "bytes"
        }
      ],
      "stateMutability": "nonpayable",
      "type": "function"
    },
    {
      "inputs": [
        {
          "internalType": "bytes32",
          "name": "",
          "type": "bytes32"
        }
      ],
      "name": "existingPosition",
      "outputs": [
        {
          "internalType": "bool",
          "name": "",
          "type": "bool"
        }
      ],
      "stateMutability": "view",
      "type": "function"
    },
    {
      "inputs": [
        {
          "internalType": "bytes32",
          "name": "market",
          "type": "bytes32"
        }
      ],
      "name": "getPositionOpenNotional",
      "outputs": [
        {
          "internalType": "int256",
          "name": "",
          "type": "int256"
        }
      ],
      "stateMutability": "view",
      "type": "function"
    },
    {
      "inputs": [
        {
          "internalType": "bytes32",
          "name": "market",
          "type": "bytes32"
        }
      ],
      "name": "getPositionValue",
      "outputs": [
        {
          "internalType": "int256",
          "name": "",
          "type": "int256"
        }
      ],
      "stateMutability": "view",
      "type": "function"
    },
    {
      "inputs": [],
      "name": "getTotalMarginInMarkets",
      "outputs": [
        {
          "internalType": "int256",
          "name": "",
          "type": "int256"
        }
      ],
      "stateMutability": "view",
      "type": "function"
    },
    {
      "inputs": [
        {
          "internalType": "bytes32[]",
          "name": "_allowedMarkets",
          "type": "bytes32[]"
        }
      ],
      "name": "getTotalNotional",
      "outputs": [
        {
          "internalType": "uint256",
          "name": "totalNotional",
          "type": "uint256"
        }
      ],
      "stateMutability": "view",
      "type": "function"
    },
    {
      "inputs": [
        {
          "internalType": "bytes32",
          "name": "",
          "type": "bytes32"
        }
      ],
      "name": "marginInMarket",
      "outputs": [
        {
          "internalType": "int256",
          "name": "",
          "type": "int256"
        }
      ],
      "stateMutability": "view",
      "type": "function"
    },
    {
      "inputs": [],
      "name": "marginManager",
      "outputs": [
        {
          "internalType": "address",
          "name": "",
          "type": "address"
        }
      ],
      "stateMutability": "view",
      "type": "function"
    },
    {
      "inputs": [],
      "name": "marketManager",
      "outputs": [
        {
          "internalType": "contract IMarketManager",
          "name": "",
          "type": "address"
        }
      ],
      "stateMutability": "view",
      "type": "function"
    },
    {
      "inputs": [
        {
          "internalType": "bytes32",
          "name": "",
          "type": "bytes32"
        }
      ],
      "name": "positions",
      "outputs": [
        {
          "internalType": "int256",
          "name": "",
          "type": "int256"
        }
      ],
      "stateMutability": "view",
      "type": "function"
    },
    {
      "inputs": [
        {
          "internalType": "bytes32",
          "name": "market",
          "type": "bytes32"
        }
      ],
      "name": "removePosition",
      "outputs": [],
      "stateMutability": "nonpayable",
      "type": "function"
    },
    {
      "inputs": [],
      "name": "router",
      "outputs": [
        {
          "internalType": "contract ISwapRouter",
          "name": "",
          "type": "address"
        }
      ],
      "stateMutability": "view",
      "type": "function"
    },
    {
      "inputs": [
        {
          "components": [
            {
              "internalType": "address",
              "name": "tokenIn",
              "type": "address"
            },
            {
              "internalType": "address",
              "name": "tokenOut",
              "type": "address"
            },
            {
              "internalType": "uint256",
              "name": "amountIn",
              "type": "uint256"
            },
            {
              "internalType": "uint256",
              "name": "amountOut",
              "type": "uint256"
            },
            {
              "internalType": "bool",
              "name": "isExactInput",
              "type": "bool"
            },
            {
              "internalType": "uint160",
              "name": "sqrtPriceLimitX96",
              "type": "uint160"
            }
          ],
          "internalType": "struct IExchange.SwapParams",
          "name": "_swapParams",
          "type": "tuple"
        }
      ],
      "name": "swap",
      "outputs": [
        {
          "internalType": "uint256",
          "name": "amountOut",
          "type": "uint256"
        }
      ],
      "stateMutability": "nonpayable",
      "type": "function"
    },
    {
      "inputs": [],
      "name": "totalBorrowed",
      "outputs": [
        {
          "internalType": "uint256",
          "name": "",
          "type": "uint256"
        }
      ],
      "stateMutability": "view",
      "type": "function"
    },
    {
      "inputs": [],
      "name": "totalInternalLev",
      "outputs": [
        {
          "internalType": "uint256",
          "name": "",
          "type": "uint256"
        }
      ],
      "stateMutability": "view",
      "type": "function"
    },
    {
      "inputs": [],
      "name": "totalMarginInMarkets",
      "outputs": [
        {
          "internalType": "int256",
          "name": "",
          "type": "int256"
        }
      ],
      "stateMutability": "view",
      "type": "function"
    },
    {
      "inputs": [
        {
          "internalType": "address",
          "name": "token",
          "type": "address"
        },
        {
          "internalType": "address",
          "name": "to",
          "type": "address"
        },
        {
          "internalType": "uint256",
          "name": "amount",
          "type": "uint256"
        }
      ],
      "name": "transferTokens",
      "outputs": [],
      "stateMutability": "nonpayable",
      "type": "function"
    },
    {
      "inputs": [],
      "name": "underlyingToken",
      "outputs": [
        {
          "internalType": "address",
          "name": "",
          "type": "address"
        }
      ],
      "stateMutability": "view",
      "type": "function"
    },
    {
      "inputs": [
        {
          "internalType": "uint256",
          "name": "_totalBorrowedAmount",
          "type": "uint256"
        },
        {
          "internalType": "uint256",
          "name": "_cumulativeIndexAtOpen",
          "type": "uint256"
        }
      ],
      "name": "updateBorrowData",
      "outputs": [],
      "stateMutability": "nonpayable",
      "type": "function"
    },
    {
      "inputs": [
        {
          "internalType": "bytes32",
          "name": "market",
          "type": "bytes32"
        },
        {
          "internalType": "int256",
          "name": "transferredMargin",
          "type": "int256"
        }
      ],
      "name": "updateMarginInMarket",
      "outputs": [],
      "stateMutability": "nonpayable",
      "type": "function"
    },
    {
      "inputs": [
        {
          "internalType": "bytes32",
          "name": "market",
          "type": "bytes32"
        },
        {
          "internalType": "int256",
          "name": "size",
          "type": "int256"
        }
      ],
      "name": "updatePosition",
      "outputs": [],
      "stateMutability": "nonpayable",
      "type": "function"
    }
  ],
  "bytecode": {
    "object": "0x608060405234801561001057600080fd5b506040516115ce3803806115ce83398101604081905261002f916100b9565b806001600160a01b03811661008a5760405162461bcd60e51b815260206004820152601560248201527f4d413a42616420526f7574657220616464726573730000000000000000000000604482015260640160405180910390fd5b600180546001600160a01b039092166001600160a01b03199283161790556006805490911633179055506100e9565b6000602082840312156100cb57600080fd5b81516001600160a01b03811681146100e257600080fd5b9392505050565b6114d6806100f86000396000f3fe608060405234801561001057600080fd5b50600436106101da5760003560e01c80637b44fb6411610104578063c55dae63116100a2578063eda11ef011610071578063eda11ef01461041a578063f73b858d1461044d578063f887ea401461046d578063fac5e9811461048057600080fd5b8063c55dae63146103f6578063ca96a6a714610409578063cfff340114610412578063db386b8d1461031557600080fd5b8063abf410e5116100de578063abf410e5146103be578063aeccd4b9146103d1578063bbf9f2a0146103da578063c52cee7a146103ed57600080fd5b80637b44fb64146103555780637d1c484d1461038b578063a64b6e5f146103ab57600080fd5b806341ed2c121161017c578063514ea4bf1161014b578063514ea4bf146102e2578063597810341461030257806359b4b5ee1461031557806359cbbf491461033557600080fd5b806341ed2c1214610283578063481cecaa146102965780634c19386c146102a95780634c89b68d146102b157600080fd5b80631fb3b7ac116101b85780631fb3b7ac146102295780632495a59914610232578063272c4a111461025d57806333c92c501461027057600080fd5b80630797ceec146101df57806317d11a15146101fa5780631f7dd4ba14610216575b600080fd5b6101f86101ed366004610e8c565b600991909155600a55565b005b610203600a5481565b6040519081526020015b60405180910390f35b610203610224366004610f19565b610493565b61020360075481565b600b54610245906001600160a01b031681565b6040516001600160a01b03909116815260200161020d565b6101f861026b366004610fbc565b6104fc565b61020361027e366004611003565b610575565b600254610245906001600160a01b031681565b600654610245906001600160a01b031681565b600954610203565b6101f86102bf36600461109e565b6000908152600360209081526040808320805460ff191690556005909152812055565b6102036102f036600461109e565b60056020526000908152604090205481565b6101f86103103660046110b7565b61092c565b61020361032336600461109e565b60009081526005602052604090205490565b610348610343366004611168565b610941565b60405161020d91906112c5565b6101f8610363366004610e8c565b600091825260056020908152604080842092909255600390529020805460ff19166001179055565b6101f8610399366004610e8c565b60009182526005602052604090912055565b6101f86103b93660046110b7565b6109d8565b600054610245906001600160a01b031681565b61020360085481565b6101f86103e8366004610e8c565b6109ec565b61020360095481565b600454610245906001600160a01b031681565b610203600d5481565b600d54610203565b61043d61042836600461109e565b60036020526000908152604090205460ff1681565b604051901515815260200161020d565b61020361045b36600461109e565b600c6020526000908152604090205481565b600154610245906001600160a01b031681565b61034861048e3660046112d8565b610aa5565b8051600090815b818110156104f5576104e16104da600560008785815181106104be576104be611328565b6020026020010151815260200190815260200160002054610ac6565b8490610add565b9250806104ed81611354565b91505061049a565b5050919050565b60405163095ea7b360e01b81526001600160a01b038281166004830152600019602483015283169063095ea7b3906044016020604051808303816000875af115801561054c573d6000803e3d6000fd5b505050506040513d601f19601f82011682018060405250810190610570919061136d565b505050565b80516000906001600160a01b03166105c85760405162461bcd60e51b815260206004820152601160248201527026a09d102a37b5b2b724b71032b93937b960791b60448201526064015b60405180910390fd5b60208201516001600160a01b03166106175760405162461bcd60e51b815260206004820152601260248201527126a09d103a37b5b2b727baba1032b93937b960711b60448201526064016105bf565b8160800151156106f057600082604001511161066c5760405162461bcd60e51b815260206004820152601460248201527326a09d1024b73b30b634b21030b6b7bab73a24b760611b60448201526064016105bf565b8151600154604080850151905163095ea7b360e01b81526001600160a01b039283166004820152602481019190915291169063095ea7b3906044016020604051808303816000875af11580156106c6573d6000803e3d6000fd5b505050506040513d601f19601f820116820180604052508101906106ea919061136d565b506107ce565b600082606001511161074e5760405162461bcd60e51b815260206004820152602160248201527f4d413a20496e76616c6964205f73776170506172616d732e616d6f756e744f756044820152601d60fa1b60648201526084016105bf565b8151600154606084015160405163095ea7b360e01b81526001600160a01b039283166004820152602481019190915291169063095ea7b3906044016020604051808303816000875af11580156107a8573d6000803e3d6000fd5b505050506040513d601f19601f820116820180604052508101906107cc919061136d565b505b606460018360800151156108a857604080516101008101825285516001600160a01b03908116825260208088015182169083015262ffffff8516828401523060608301524260808301528683015160a080840191909152600060c0840152870151811660e0830152600154925163414bf38960e01b81529192169063414bf3899061085d90849060040161138a565b6020604051808303816000875af115801561087c573d6000803e3d6000fd5b505050506040513d601f19601f820116820180604052508101906108a091906113f4565b9350506104f5565b604080516101008101825285516001600160a01b03908116825260208088015182169083015262ffffff8516828401523060608084019190915242608084015287015160a080840191909152600060c0840152870151811660e08301526001549251631b67c43360e31b81529192169063db3e21989061085d90849060040161138a565b6105706001600160a01b038316843084610ae9565b6060600061094e84610b5a565b905060005b8160ff168160ff1610156109ce576109ba848260ff168151811061097957610979611328565b602002602001015187878460ff1681811061099657610996611328565b90506020020160208101906109ab919061140d565b6001600160a01b031690610bbb565b9250806109c68161142a565b915050610953565b50505b9392505050565b6105706001600160a01b0384168383610bfd565b6000828152600c6020526040812054610a059083610c2d565b13610a665760405162461bcd60e51b815260206004820152602b60248201527f4d413a2043616e6e6f742068617665206e65676174697665206d617267696e2060448201526a125b881c1c9bdd1bd8dbdb60aa1b60648201526084016105bf565b600d54610a739082610c2d565b600d556000828152600c6020526040902054610a8f9082610c2d565b6000928352600c60205260409092209190915550565b60606000610abc6001600160a01b03851684610bbb565b9150505b92915050565b600080821215610ad95781600003610ac0565b5090565b60006109d18284611449565b6040516001600160a01b0380851660248301528316604482015260648101829052610b549085906323b872dd60e01b906084015b60408051601f198184030181529190526020810180516001600160e01b03166001600160e01b031990931692909217909152610c39565b50505050565b600060ff821115610ad95760405162461bcd60e51b815260206004820152602560248201527f53616665436173743a2076616c756520646f65736e27742066697420696e2038604482015264206269747360d81b60648201526084016105bf565b60606109d183836040518060400160405280601e81526020017f416464726573733a206c6f772d6c6576656c2063616c6c206661696c65640000815250610d0b565b6040516001600160a01b03831660248201526044810182905261057090849063a9059cbb60e01b90606401610b1d565b60006109d1828461145c565b6000610c8e826040518060400160405280602081526020017f5361666545524332303a206c6f772d6c6576656c2063616c6c206661696c6564815250856001600160a01b0316610d0b9092919063ffffffff16565b8051909150156105705780806020019051810190610cac919061136d565b6105705760405162461bcd60e51b815260206004820152602a60248201527f5361666545524332303a204552433230206f7065726174696f6e20646964206e6044820152691bdd081cdd58d8d9595960b21b60648201526084016105bf565b6060610d1a8484600085610d22565b949350505050565b606082471015610d835760405162461bcd60e51b815260206004820152602660248201527f416464726573733a20696e73756666696369656e742062616c616e636520666f6044820152651c8818d85b1b60d21b60648201526084016105bf565b6001600160a01b0385163b610dda5760405162461bcd60e51b815260206004820152601d60248201527f416464726573733a2063616c6c20746f206e6f6e2d636f6e747261637400000060448201526064016105bf565b600080866001600160a01b03168587604051610df69190611484565b60006040518083038185875af1925050503d8060008114610e33576040519150601f19603f3d011682016040523d82523d6000602084013e610e38565b606091505b5091509150610e48828286610e53565b979650505050505050565b60608315610e625750816109d1565b825115610e725782518084602001fd5b8160405162461bcd60e51b81526004016105bf91906112c5565b60008060408385031215610e9f57600080fd5b50508035926020909101359150565b634e487b7160e01b600052604160045260246000fd5b604051601f8201601f1916810167ffffffffffffffff81118282101715610eed57610eed610eae565b604052919050565b600067ffffffffffffffff821115610f0f57610f0f610eae565b5060051b60200190565b60006020808385031215610f2c57600080fd5b823567ffffffffffffffff811115610f4357600080fd5b8301601f81018513610f5457600080fd5b8035610f67610f6282610ef5565b610ec4565b81815260059190911b82018301908381019087831115610f8657600080fd5b928401925b82841015610e4857833582529284019290840190610f8b565b6001600160a01b0381168114610fb957600080fd5b50565b60008060408385031215610fcf57600080fd5b8235610fda81610fa4565b91506020830135610fea81610fa4565b809150509250929050565b8015158114610fb957600080fd5b600060c0828403121561101557600080fd5b60405160c0810181811067ffffffffffffffff8211171561103857611038610eae565b604052823561104681610fa4565b8152602083013561105681610fa4565b806020830152506040830135604082015260608301356060820152608083013561107f81610ff5565b608082015260a083013561109281610fa4565b60a08201529392505050565b6000602082840312156110b057600080fd5b5035919050565b6000806000606084860312156110cc57600080fd5b83356110d781610fa4565b925060208401356110e781610fa4565b929592945050506040919091013590565b600082601f83011261110957600080fd5b813567ffffffffffffffff81111561112357611123610eae565b611136601f8201601f1916602001610ec4565b81815284602083860101111561114b57600080fd5b816020850160208301376000918101602001919091529392505050565b60008060006040848603121561117d57600080fd5b833567ffffffffffffffff8082111561119557600080fd5b818601915086601f8301126111a957600080fd5b8135818111156111b857600080fd5b602088818360051b86010111156111ce57600080fd5b8084019650819550808801359350828411156111e957600080fd5b838801935088601f8501126111fd57600080fd5b8335915061120d610f6283610ef5565b82815260059290921b8401810191818101908a84111561122c57600080fd5b8286015b84811015611264578035868111156112485760008081fd5b6112568d86838b01016110f8565b845250918301918301611230565b508096505050505050509250925092565b60005b83811015611290578181015183820152602001611278565b50506000910152565b600081518084526112b1816020860160208601611275565b601f01601f19169290920160200192915050565b6020815260006109d16020830184611299565b600080604083850312156112eb57600080fd5b82356112f681610fa4565b9150602083013567ffffffffffffffff81111561131257600080fd5b61131e858286016110f8565b9150509250929050565b634e487b7160e01b600052603260045260246000fd5b634e487b7160e01b600052601160045260246000fd5b6000600182016113665761136661133e565b5060010190565b60006020828403121561137f57600080fd5b81516109d181610ff5565b6101008101610ac0828480516001600160a01b03908116835260208083015182169084015260408083015162ffffff16908401526060808301518216908401526080808301519084015260a0828101519084015260c0808301519084015260e09182015116910152565b60006020828403121561140657600080fd5b5051919050565b60006020828403121561141f57600080fd5b81356109d181610fa4565b600060ff821660ff81036114405761144061133e565b60010192915050565b80820180821115610ac057610ac061133e565b808201828112600083128015821682158216171561147c5761147c61133e565b505092915050565b60008251611496818460208701611275565b919091019291505056fea26469706673582212201e142af8947e3068e94f41d9a0e9bb327272c9235da6bdb4116a4809bfcfa79664736f6c63430008110033",
    "linkReferences": {}
  },
  "methodIdentifiers": {
    "_totalBorrowed()": "c52cee7a",
    "addCollateral(address,address,uint256)": "59781034",
    "addPosition(bytes32,int256)": "7b44fb64",
    "approveToProtocol(address,address)": "272c4a11",
    "baseToken()": "c55dae63",
    "contractRegistry()": "abf410e5",
    "cumulativeIndexAtOpen()": "17d11a15",
    "cumulative_RAY()": "aeccd4b9",
    "execMultiTx(address[],bytes[])": "59cbbf49",
    "executeTx(address,bytes)": "fac5e981",
    "existingPosition(bytes32)": "eda11ef0",
    "getPositionOpenNotional(bytes32)": "db386b8d",
    "getPositionValue(bytes32)": "59b4b5ee",
    "getTotalMarginInMarkets()": "cfff3401",
    "getTotalNotional(bytes32[])": "1f7dd4ba",
    "marginInMarket(bytes32)": "f73b858d",
    "marginManager()": "481cecaa",
    "marketManager()": "41ed2c12",
    "positions(bytes32)": "514ea4bf",
    "removePosition(bytes32)": "4c89b68d",
    "router()": "f887ea40",
    "swap((address,address,uint256,uint256,bool,uint160))": "33c92c50",
    "totalBorrowed()": "4c19386c",
    "totalInternalLev()": "1fb3b7ac",
    "totalMarginInMarkets()": "ca96a6a7",
    "transferTokens(address,address,uint256)": "a64b6e5f",
    "underlyingToken()": "2495a599",
    "updateBorrowData(uint256,uint256)": "0797ceec",
    "updateMarginInMarket(bytes32,int256)": "bbf9f2a0",
    "updatePosition(bytes32,int256)": "7d1c484d"
  },
  "id": 40
}