{
  "abi": [
    {
      "inputs": [
        {
          "internalType": "address",
          "name": "_router",
          "type": "address"
        }
      ],
      "stateMutability": "nonpayable",
      "type": "constructor"
    },
    {
      "inputs": [
        {
          "internalType": "address",
          "name": "from",
          "type": "address"
        },
        {
          "internalType": "address",
          "name": "token",
          "type": "address"
        },
        {
          "internalType": "uint256",
          "name": "amount",
          "type": "uint256"
        }
      ],
      "name": "addCollateral",
      "outputs": [],
      "stateMutability": "nonpayable",
      "type": "function"
    },
    {
      "inputs": [
        {
          "internalType": "bytes32",
          "name": "market",
          "type": "bytes32"
        },
        {
          "components": [
            {
              "internalType": "address",
              "name": "protocol",
              "type": "address"
            },
            {
              "internalType": "int256",
              "name": "openNotional",
              "type": "int256"
            },
            {
              "internalType": "int256",
              "name": "size",
              "type": "int256"
            },
            {
              "internalType": "uint256",
              "name": "orderFee",
              "type": "uint256"
            }
          ],
          "internalType": "struct Position",
          "name": "position",
          "type": "tuple"
        }
      ],
      "name": "addPosition",
      "outputs": [],
      "stateMutability": "nonpayable",
      "type": "function"
    },
    {
      "inputs": [
        {
          "internalType": "address",
          "name": "token",
          "type": "address"
        },
        {
          "internalType": "address",
          "name": "protocol",
          "type": "address"
        }
      ],
      "name": "approveToProtocol",
      "outputs": [],
      "stateMutability": "nonpayable",
      "type": "function"
    },
    {
      "inputs": [],
      "name": "contractRegistry",
      "outputs": [
        {
          "internalType": "contract IContractRegistry",
          "name": "",
          "type": "address"
        }
      ],
      "stateMutability": "view",
      "type": "function"
    },
    {
      "inputs": [],
      "name": "cumulativeIndexAtOpen",
      "outputs": [
        {
          "internalType": "uint256",
          "name": "",
          "type": "uint256"
        }
      ],
      "stateMutability": "view",
      "type": "function"
    },
    {
      "inputs": [],
      "name": "cumulative_RAY",
      "outputs": [
        {
          "internalType": "uint256",
          "name": "",
          "type": "uint256"
        }
      ],
      "stateMutability": "view",
      "type": "function"
    },
    {
      "inputs": [
        {
          "internalType": "address[]",
          "name": "destinations",
          "type": "address[]"
        },
        {
          "internalType": "bytes[]",
          "name": "dataArray",
          "type": "bytes[]"
        }
      ],
      "name": "execMultiTx",
      "outputs": [
        {
          "internalType": "bytes",
          "name": "returnData",
          "type": "bytes"
        }
      ],
      "stateMutability": "nonpayable",
      "type": "function"
    },
    {
      "inputs": [
        {
          "internalType": "address",
          "name": "destination",
          "type": "address"
        },
        {
          "internalType": "bytes",
          "name": "data",
          "type": "bytes"
        }
      ],
      "name": "executeTx",
      "outputs": [
        {
          "internalType": "bytes",
          "name": "",
          "type": "bytes"
        }
      ],
      "stateMutability": "nonpayable",
      "type": "function"
    },
    {
      "inputs": [
        {
          "internalType": "bytes32",
          "name": "",
          "type": "bytes32"
        }
      ],
      "name": "existingPosition",
      "outputs": [
        {
          "internalType": "bool",
          "name": "",
          "type": "bool"
        }
      ],
      "stateMutability": "view",
      "type": "function"
    },
    {
      "inputs": [
        {
          "internalType": "bytes32",
          "name": "market",
          "type": "bytes32"
        }
      ],
      "name": "getPosition",
      "outputs": [
        {
          "internalType": "int256",
          "name": "",
          "type": "int256"
        }
      ],
      "stateMutability": "view",
      "type": "function"
    },
    {
      "inputs": [
        {
          "internalType": "bytes32",
          "name": "market",
          "type": "bytes32"
        }
      ],
      "name": "getPositionOpenNotional",
      "outputs": [
        {
          "internalType": "int256",
          "name": "",
          "type": "int256"
        }
      ],
      "stateMutability": "view",
      "type": "function"
    },
    {
      "inputs": [
        {
          "internalType": "bytes32[]",
          "name": "_allowedMarkets",
          "type": "bytes32[]"
        }
      ],
      "name": "getTotalOpeningAbsoluteNotional",
      "outputs": [
        {
          "internalType": "uint256",
          "name": "totalNotional",
          "type": "uint256"
        }
      ],
      "stateMutability": "view",
      "type": "function"
    },
    {
      "inputs": [
        {
          "internalType": "bytes32[]",
          "name": "_allowedMarkets",
          "type": "bytes32[]"
        }
      ],
      "name": "getTotalOpeningNotional",
      "outputs": [
        {
          "internalType": "int256",
          "name": "totalNotional",
          "type": "int256"
        }
      ],
      "stateMutability": "view",
      "type": "function"
    },
    {
      "inputs": [
        {
          "internalType": "address",
          "name": "",
          "type": "address"
        }
      ],
      "name": "marginInMarket",
      "outputs": [
        {
          "internalType": "int256",
          "name": "",
          "type": "int256"
        }
      ],
      "stateMutability": "view",
      "type": "function"
    },
    {
      "inputs": [],
      "name": "marginManager",
      "outputs": [
        {
          "internalType": "address",
          "name": "",
          "type": "address"
        }
      ],
      "stateMutability": "view",
      "type": "function"
    },
    {
      "inputs": [],
      "name": "pendingFee",
      "outputs": [
        {
          "internalType": "int256",
          "name": "",
          "type": "int256"
        }
      ],
      "stateMutability": "view",
      "type": "function"
    },
    {
      "inputs": [
        {
          "internalType": "bytes32",
          "name": "",
          "type": "bytes32"
        }
      ],
      "name": "positions",
      "outputs": [
        {
          "internalType": "address",
          "name": "protocol",
          "type": "address"
        },
        {
          "internalType": "int256",
          "name": "openNotional",
          "type": "int256"
        },
        {
          "internalType": "int256",
          "name": "size",
          "type": "int256"
        },
        {
          "internalType": "uint256",
          "name": "orderFee",
          "type": "uint256"
        }
      ],
      "stateMutability": "view",
      "type": "function"
    },
    {
      "inputs": [
        {
          "internalType": "bytes32",
          "name": "market",
          "type": "bytes32"
        }
      ],
      "name": "removePosition",
      "outputs": [],
      "stateMutability": "nonpayable",
      "type": "function"
    },
    {
      "inputs": [],
      "name": "router",
      "outputs": [
        {
          "internalType": "contract ISwapRouter",
          "name": "",
          "type": "address"
        }
      ],
      "stateMutability": "view",
      "type": "function"
    },
    {
      "inputs": [
        {
          "components": [
            {
              "internalType": "address",
              "name": "tokenIn",
              "type": "address"
            },
            {
              "internalType": "address",
              "name": "tokenOut",
              "type": "address"
            },
            {
              "internalType": "uint256",
              "name": "amountIn",
              "type": "uint256"
            },
            {
              "internalType": "uint256",
              "name": "amountOut",
              "type": "uint256"
            },
            {
              "internalType": "bool",
              "name": "isExactInput",
              "type": "bool"
            },
            {
              "internalType": "uint160",
              "name": "sqrtPriceLimitX96",
              "type": "uint160"
            },
            {
              "internalType": "uint256",
              "name": "amountOutMinimum",
              "type": "uint256"
            }
          ],
          "internalType": "struct IExchange.SwapParams",
          "name": "_swapParams",
          "type": "tuple"
        }
      ],
      "name": "swap",
      "outputs": [
        {
          "internalType": "uint256",
          "name": "amountOut",
          "type": "uint256"
        }
      ],
      "stateMutability": "nonpayable",
      "type": "function"
    },
    {
      "inputs": [],
      "name": "totalBorrowed",
      "outputs": [
        {
          "internalType": "uint256",
          "name": "",
          "type": "uint256"
        }
      ],
      "stateMutability": "view",
      "type": "function"
    },
    {
      "inputs": [],
      "name": "totalInternalLev",
      "outputs": [
        {
          "internalType": "uint256",
          "name": "",
          "type": "uint256"
        }
      ],
      "stateMutability": "view",
      "type": "function"
    },
    {
      "inputs": [],
      "name": "totalMarginInMarkets",
      "outputs": [
        {
          "internalType": "int256",
          "name": "",
          "type": "int256"
        }
      ],
      "stateMutability": "view",
      "type": "function"
    },
    {
      "inputs": [
        {
          "internalType": "address",
          "name": "token",
          "type": "address"
        },
        {
          "internalType": "address",
          "name": "to",
          "type": "address"
        },
        {
          "internalType": "uint256",
          "name": "amount",
          "type": "uint256"
        }
      ],
      "name": "transferTokens",
      "outputs": [],
      "stateMutability": "nonpayable",
      "type": "function"
    },
    {
      "inputs": [],
      "name": "unsettledRealizedPnL",
      "outputs": [
        {
          "internalType": "int256",
          "name": "",
          "type": "int256"
        }
      ],
      "stateMutability": "view",
      "type": "function"
    },
    {
      "inputs": [
        {
          "internalType": "uint256",
          "name": "totalBorrowedAmount",
          "type": "uint256"
        },
        {
          "internalType": "uint256",
          "name": "_cumulativeIndexAtOpen",
          "type": "uint256"
        }
      ],
      "name": "updateBorrowData",
      "outputs": [],
      "stateMutability": "nonpayable",
      "type": "function"
    },
    {
      "inputs": [
        {
          "internalType": "int256",
          "name": "fee",
          "type": "int256"
        }
      ],
      "name": "updateFee",
      "outputs": [],
      "stateMutability": "nonpayable",
      "type": "function"
    },
    {
      "inputs": [
        {
          "internalType": "address",
          "name": "market",
          "type": "address"
        },
        {
          "internalType": "int256",
          "name": "transferredMargin",
          "type": "int256"
        }
      ],
      "name": "updateMarginInMarket",
      "outputs": [],
      "stateMutability": "nonpayable",
      "type": "function"
    },
    {
      "inputs": [
        {
          "internalType": "bytes32",
          "name": "market",
          "type": "bytes32"
        },
        {
          "internalType": "int256",
          "name": "size",
          "type": "int256"
        }
      ],
      "name": "updatePosition",
      "outputs": [],
      "stateMutability": "nonpayable",
      "type": "function"
    },
    {
      "inputs": [
        {
          "internalType": "int256",
          "name": "_realizedPnL",
          "type": "int256"
        }
      ],
      "name": "updateUnsettledRealizedPnL",
      "outputs": [],
      "stateMutability": "nonpayable",
      "type": "function"
    }
  ],
  "bytecode": {
    "object": "0x60806040523480156200001157600080fd5b50604051620032523803806200325283398181016040528101906200003791906200019e565b80600073ffffffffffffffffffffffffffffffffffffffff168173ffffffffffffffffffffffffffffffffffffffff1603620000aa576040517f08c379a0000000000000000000000000000000000000000000000000000000008152600401620000a19062000231565b60405180910390fd5b80600160006101000a81548173ffffffffffffffffffffffffffffffffffffffff021916908373ffffffffffffffffffffffffffffffffffffffff1602179055505033600460006101000a81548173ffffffffffffffffffffffffffffffffffffffff021916908373ffffffffffffffffffffffffffffffffffffffff1602179055505062000253565b600080fd5b600073ffffffffffffffffffffffffffffffffffffffff82169050919050565b6000620001668262000139565b9050919050565b620001788162000159565b81146200018457600080fd5b50565b60008151905062000198816200016d565b92915050565b600060208284031215620001b757620001b662000134565b5b6000620001c78482850162000187565b91505092915050565b600082825260208201905092915050565b7f4d413a42616420526f7574657220616464726573730000000000000000000000600082015250565b600062000219601583620001d0565b91506200022682620001e1565b602082019050919050565b600060208201905081810360008301526200024c816200020a565b9050919050565b612fef80620002636000396000f3fe608060405234801561001057600080fd5b50600436106101da5760003560e01c806359cbbf4911610104578063b1f1150c116100a2578063db386b8d11610071578063db386b8d14610558578063eda11ef014610588578063f887ea40146105b8578063fac5e981146105d6576101da565b8063b1f1150c146104d2578063c0cb2d25146104ee578063ca96a6a71461051e578063d93baf741461053c576101da565b806390b2f8f5116100de57806390b2f8f51461044a578063a64b6e5f1461047a578063abf410e514610496578063aeccd4b9146104b4576101da565b806359cbbf49146103e0578063643090bc146104105780637d1c484d1461042e576101da565b8063251b652c1161017c5780634c19386c1161014b5780634c19386c146103575780634c89b68d14610375578063514ea4bf1461039157806359781034146103c4576101da565b8063251b652c146102e3578063272c4a1114610301578063318a96a71461031d578063481cecaa14610339576101da565b80631928b3cb116101b85780631928b3cb146102355780631d9fd309146102655780631fb3b7ac14610295578063220b6dec146102b3576101da565b80630797ceec146101df5780630952886a146101fb57806317d11a1514610217575b600080fd5b6101f960048036038101906101f49190611997565b610606565b005b61021560048036038101906102109190611a6b565b610618565b005b61021f610760565b60405161022c9190611aba565b60405180910390f35b61024f600480360381019061024a9190611b0b565b610766565b60405161025c9190611b47565b60405180910390f35b61027f600480360381019061027a9190611cbb565b610786565b60405161028c9190611aba565b60405180910390f35b61029d6107ff565b6040516102aa9190611aba565b60405180910390f35b6102cd60048036038101906102c89190611e21565b610805565b6040516102da9190611aba565b60405180910390f35b6102eb610fb3565b6040516102f89190611b47565b60405180910390f35b61031b60048036038101906103169190611e4e565b610fb9565b005b61033760048036038101906103329190611f06565b61105c565b005b610341611125565b60405161034e9190611f55565b60405180910390f35b61035f61114b565b60405161036c9190611aba565b60405180910390f35b61038f600480360381019061038a9190611b0b565b611151565b005b6103ab60048036038101906103a69190611b0b565b6111d5565b6040516103bb9493929190611f70565b60405180910390f35b6103de60048036038101906103d99190611fb5565b611225565b005b6103fa60048036038101906103f591906121f9565b611257565b60405161040791906122f4565b60405180910390f35b610418611308565b6040516104259190611b47565b60405180910390f35b61044860048036038101906104439190612316565b61130e565b005b610464600480360381019061045f9190611cbb565b611312565b6040516104719190611b47565b60405180910390f35b610494600480360381019061048f9190611fb5565b611383565b005b61049e6113b3565b6040516104ab91906123b5565b60405180910390f35b6104bc6113d7565b6040516104c99190611aba565b60405180910390f35b6104ec60048036038101906104e791906123d0565b6113dd565b005b610508600480360381019061050391906123fd565b6113fb565b6040516105159190611b47565b60405180910390f35b610526611413565b6040516105339190611b47565b60405180910390f35b610556600480360381019061055191906123d0565b611419565b005b610572600480360381019061056d9190611b0b565b611423565b60405161057f9190611b47565b60405180910390f35b6105a2600480360381019061059d9190611b0b565b611443565b6040516105af9190612439565b60405180910390f35b6105c0611463565b6040516105cd9190612475565b60405180910390f35b6105f060048036038101906105eb9190612490565b611489565b6040516105fd91906122f4565b60405180910390f35b81600781905550806008819055505050565b600061066c82600a60008673ffffffffffffffffffffffffffffffffffffffff1673ffffffffffffffffffffffffffffffffffffffff168152602001908152602001600020546114c290919063ffffffff16565b136106ac576040517f08c379a00000000000000000000000000000000000000000000000000000000081526004016106a39061256f565b60405180910390fd5b6106c181600b546114c290919063ffffffff16565b600b8190555061071981600a60008573ffffffffffffffffffffffffffffffffffffffff1673ffffffffffffffffffffffffffffffffffffffff168152602001908152602001600020546114c290919063ffffffff16565b600a60008473ffffffffffffffffffffffffffffffffffffffff1673ffffffffffffffffffffffffffffffffffffffff168152602001908152602001600020819055505050565b60085481565b600060036000838152602001908152602001600020600201549050919050565b6000808251905060005b818110156107f8576107e36107d4600360008785815181106107b5576107b461258f565b5b60200260200101518152602001908152602001600020600101546114d8565b846114f490919063ffffffff16565b925080806107f0906125ed565b915050610790565b5050919050565b60055481565b60008073ffffffffffffffffffffffffffffffffffffffff16826000015173ffffffffffffffffffffffffffffffffffffffff1603610879576040517f08c379a000000000000000000000000000000000000000000000000000000000815260040161087090612681565b60405180910390fd5b600073ffffffffffffffffffffffffffffffffffffffff16826020015173ffffffffffffffffffffffffffffffffffffffff16036108ec576040517f08c379a00000000000000000000000000000000000000000000000000000000081526004016108e3906126ed565b60405180910390fd5b8160800151156109eb57600082604001511161093d576040517f08c379a000000000000000000000000000000000000000000000000000000000815260040161093490612759565b60405180910390fd5b816000015173ffffffffffffffffffffffffffffffffffffffff1663095ea7b3600160009054906101000a900473ffffffffffffffffffffffffffffffffffffffff1684604001516040518363ffffffff1660e01b81526004016109a2929190612779565b6020604051808303816000875af11580156109c1573d6000803e3d6000fd5b505050506040513d601f19601f820116820180604052508101906109e591906127b7565b50610adc565b6000826060015111610a32576040517f08c379a0000000000000000000000000000000000000000000000000000000008152600401610a2990612856565b60405180910390fd5b816000015173ffffffffffffffffffffffffffffffffffffffff1663095ea7b3600160009054906101000a900473ffffffffffffffffffffffffffffffffffffffff1684606001516040518363ffffffff1660e01b8152600401610a97929190612779565b6020604051808303816000875af1158015610ab6573d6000803e3d6000fd5b505050506040513d601f19601f82011682018060405250810190610ada91906127b7565b505b6000610ae661150a565b90506000610afc84600001518560200151611513565b90508015610db657836080015115610c63576000604051806101000160405280866000015173ffffffffffffffffffffffffffffffffffffffff168152602001866020015173ffffffffffffffffffffffffffffffffffffffff1681526020018462ffffff1681526020013073ffffffffffffffffffffffffffffffffffffffff168152602001428152602001866040015181526020018660c0015181526020018660a0015173ffffffffffffffffffffffffffffffffffffffff168152509050600160009054906101000a900473ffffffffffffffffffffffffffffffffffffffff1673ffffffffffffffffffffffffffffffffffffffff1663414bf389826040518263ffffffff1660e01b8152600401610c189190612963565b6020604051808303816000875af1158015610c37573d6000803e3d6000fd5b505050506040513d601f19601f82011682018060405250810190610c5b9190612994565b935050610db1565b6000604051806101000160405280866000015173ffffffffffffffffffffffffffffffffffffffff168152602001866020015173ffffffffffffffffffffffffffffffffffffffff1681526020018462ffffff1681526020013073ffffffffffffffffffffffffffffffffffffffff16815260200142815260200186606001518152602001600081526020018660a0015173ffffffffffffffffffffffffffffffffffffffff168152509050600160009054906101000a900473ffffffffffffffffffffffffffffffffffffffff1673ffffffffffffffffffffffffffffffffffffffff1663db3e2198826040518263ffffffff1660e01b8152600401610d6a9190612a63565b6020604051808303816000875af1158015610d89573d6000803e3d6000fd5b505050506040513d601f19601f82011682018060405250810190610dad9190612994565b9350505b610fac565b6000610dca8560000151866020015161151f565b9050846080015115610ec25760006040518060a001604052808381526020013373ffffffffffffffffffffffffffffffffffffffff1681526020014281526020018760400151815260200160008152509050600160009054906101000a900473ffffffffffffffffffffffffffffffffffffffff1673ffffffffffffffffffffffffffffffffffffffff1663c04b8d59826040518263ffffffff1660e01b8152600401610e779190612b3f565b6020604051808303816000875af1158015610e96573d6000803e3d6000fd5b505050506040513d601f19601f82011682018060405250810190610eba9190612994565b945050610faa565b60006040518060a001604052808381526020013373ffffffffffffffffffffffffffffffffffffffff1681526020014281526020018760600151815260200160008152509050600160009054906101000a900473ffffffffffffffffffffffffffffffffffffffff1673ffffffffffffffffffffffffffffffffffffffff1663f28c0498826040518263ffffffff1660e01b8152600401610f639190612bd7565b6020604051808303816000875af1158015610f82573d6000803e3d6000fd5b505050506040513d601f19601f82011682018060405250810190610fa69190612994565b9450505b505b5050919050565b600c5481565b8173ffffffffffffffffffffffffffffffffffffffff1663095ea7b3827fffffffffffffffffffffffffffffffffffffffffffffffffffffffffffffffff6040518363ffffffff1660e01b8152600401611014929190612779565b6020604051808303816000875af1158015611033573d6000803e3d6000fd5b505050506040513d601f19601f8201168201806040525081019061105791906127b7565b505050565b806003600084815260200190815260200160002060008201518160000160006101000a81548173ffffffffffffffffffffffffffffffffffffffff021916908373ffffffffffffffffffffffffffffffffffffffff16021790555060208201518160010155604082015181600201556060820151816003015590505060016002600084815260200190815260200160002060006101000a81548160ff02191690831515021790555080606001516009600082825461111a9190612bf9565b925050819055505050565b600460009054906101000a900473ffffffffffffffffffffffffffffffffffffffff1681565b60075481565b60006002600083815260200190815260200160002060006101000a81548160ff02191690831515021790555060036000828152602001908152602001600020600080820160006101000a81549073ffffffffffffffffffffffffffffffffffffffff0219169055600182016000905560028201600090556003820160009055505050565b60036020528060005260406000206000915090508060000160009054906101000a900473ffffffffffffffffffffffffffffffffffffffff16908060010154908060020154908060030154905084565b6112528330838573ffffffffffffffffffffffffffffffffffffffff16611527909392919063ffffffff16565b505050565b60606000611267858590506115b0565b905060005b8160ff168160ff1610156112ff576112ea848260ff16815181106112935761129261258f565b5b602002602001015187878460ff168181106112b1576112b061258f565b5b90506020020160208101906112c691906123fd565b73ffffffffffffffffffffffffffffffffffffffff1661160090919063ffffffff16565b925080806112f790612c4a565b91505061126c565b50509392505050565b60095481565b5050565b6000808251905060005b8181101561137c576113676003600086848151811061133e5761133d61258f565b5b6020026020010151815260200190815260200160002060010154846114c290919063ffffffff16565b92508080611374906125ed565b91505061131c565b5050919050565b6113ae82828573ffffffffffffffffffffffffffffffffffffffff1661164a9092919063ffffffff16565b505050565b60008054906101000a900473ffffffffffffffffffffffffffffffffffffffff1681565b60065481565b6113f2816009546114c290919063ffffffff16565b60098190555050565b600a6020528060005260406000206000915090505481565b600b5481565b80600c8190555050565b600060036000838152602001908152602001600020600101549050919050565b60026020528060005260406000206000915054906101000a900460ff1681565b600160009054906101000a900473ffffffffffffffffffffffffffffffffffffffff1681565b606060006114b6838573ffffffffffffffffffffffffffffffffffffffff1661160090919063ffffffff16565b90508091505092915050565b600081836114d09190612bf9565b905092915050565b6000808212156114eb57816000036114ed565b815b9050919050565b600081836115029190612c73565b905092915050565b60006064905090565b60006001905092915050565b606092915050565b6115aa846323b872dd60e01b85858560405160240161154893929190612ca7565b604051602081830303815290604052907bffffffffffffffffffffffffffffffffffffffffffffffffffffffff19166020820180517bffffffffffffffffffffffffffffffffffffffffffffffffffffffff83818316178352505050506116d0565b50505050565b600060ff80168211156115f8576040517f08c379a00000000000000000000000000000000000000000000000000000000081526004016115ef90612d50565b60405180910390fd5b819050919050565b606061164283836040518060400160405280601e81526020017f416464726573733a206c6f772d6c6576656c2063616c6c206661696c65640000815250611797565b905092915050565b6116cb8363a9059cbb60e01b8484604051602401611669929190612779565b604051602081830303815290604052907bffffffffffffffffffffffffffffffffffffffffffffffffffffffff19166020820180517bffffffffffffffffffffffffffffffffffffffffffffffffffffffff83818316178352505050506116d0565b505050565b6000611732826040518060400160405280602081526020017f5361666545524332303a206c6f772d6c6576656c2063616c6c206661696c65648152508573ffffffffffffffffffffffffffffffffffffffff166117979092919063ffffffff16565b9050600081511115611792578080602001905181019061175291906127b7565b611791576040517f08c379a000000000000000000000000000000000000000000000000000000000815260040161178890612de2565b60405180910390fd5b5b505050565b60606117a684846000856117af565b90509392505050565b6060824710156117f4576040517f08c379a00000000000000000000000000000000000000000000000000000000081526004016117eb90612e74565b60405180910390fd5b6117fd856118c3565b61183c576040517f08c379a000000000000000000000000000000000000000000000000000000000815260040161183390612ee0565b60405180910390fd5b6000808673ffffffffffffffffffffffffffffffffffffffff1685876040516118659190612f3c565b60006040518083038185875af1925050503d80600081146118a2576040519150601f19603f3d011682016040523d82523d6000602084013e6118a7565b606091505b50915091506118b78282866118e6565b92505050949350505050565b6000808273ffffffffffffffffffffffffffffffffffffffff163b119050919050565b606083156118f657829050611946565b6000835111156119095782518084602001fd5b816040517f08c379a000000000000000000000000000000000000000000000000000000000815260040161193d9190612f97565b60405180910390fd5b9392505050565b6000604051905090565b600080fd5b600080fd5b6000819050919050565b61197481611961565b811461197f57600080fd5b50565b6000813590506119918161196b565b92915050565b600080604083850312156119ae576119ad611957565b5b60006119bc85828601611982565b92505060206119cd85828601611982565b9150509250929050565b600073ffffffffffffffffffffffffffffffffffffffff82169050919050565b6000611a02826119d7565b9050919050565b611a12816119f7565b8114611a1d57600080fd5b50565b600081359050611a2f81611a09565b92915050565b6000819050919050565b611a4881611a35565b8114611a5357600080fd5b50565b600081359050611a6581611a3f565b92915050565b60008060408385031215611a8257611a81611957565b5b6000611a9085828601611a20565b9250506020611aa185828601611a56565b9150509250929050565b611ab481611961565b82525050565b6000602082019050611acf6000830184611aab565b92915050565b6000819050919050565b611ae881611ad5565b8114611af357600080fd5b50565b600081359050611b0581611adf565b92915050565b600060208284031215611b2157611b20611957565b5b6000611b2f84828501611af6565b91505092915050565b611b4181611a35565b82525050565b6000602082019050611b5c6000830184611b38565b92915050565b600080fd5b6000601f19601f8301169050919050565b7f4e487b7100000000000000000000000000000000000000000000000000000000600052604160045260246000fd5b611bb082611b67565b810181811067ffffffffffffffff82111715611bcf57611bce611b78565b5b80604052505050565b6000611be261194d565b9050611bee8282611ba7565b919050565b600067ffffffffffffffff821115611c0e57611c0d611b78565b5b602082029050602081019050919050565b600080fd5b6000611c37611c3284611bf3565b611bd8565b90508083825260208201905060208402830185811115611c5a57611c59611c1f565b5b835b81811015611c835780611c6f8882611af6565b845260208401935050602081019050611c5c565b5050509392505050565b600082601f830112611ca257611ca1611b62565b5b8135611cb2848260208601611c24565b91505092915050565b600060208284031215611cd157611cd0611957565b5b600082013567ffffffffffffffff811115611cef57611cee61195c565b5b611cfb84828501611c8d565b91505092915050565b600080fd5b60008115159050919050565b611d1e81611d09565b8114611d2957600080fd5b50565b600081359050611d3b81611d15565b92915050565b611d4a816119d7565b8114611d5557600080fd5b50565b600081359050611d6781611d41565b92915050565b600060e08284031215611d8357611d82611d04565b5b611d8d60e0611bd8565b90506000611d9d84828501611a20565b6000830152506020611db184828501611a20565b6020830152506040611dc584828501611982565b6040830152506060611dd984828501611982565b6060830152506080611ded84828501611d2c565b60808301525060a0611e0184828501611d58565b60a08301525060c0611e1584828501611982565b60c08301525092915050565b600060e08284031215611e3757611e36611957565b5b6000611e4584828501611d6d565b91505092915050565b60008060408385031215611e6557611e64611957565b5b6000611e7385828601611a20565b9250506020611e8485828601611a20565b9150509250929050565b600060808284031215611ea457611ea3611d04565b5b611eae6080611bd8565b90506000611ebe84828501611a20565b6000830152506020611ed284828501611a56565b6020830152506040611ee684828501611a56565b6040830152506060611efa84828501611982565b60608301525092915050565b60008060a08385031215611f1d57611f1c611957565b5b6000611f2b85828601611af6565b9250506020611f3c85828601611e8e565b9150509250929050565b611f4f816119f7565b82525050565b6000602082019050611f6a6000830184611f46565b92915050565b6000608082019050611f856000830187611f46565b611f926020830186611b38565b611f9f6040830185611b38565b611fac6060830184611aab565b95945050505050565b600080600060608486031215611fce57611fcd611957565b5b6000611fdc86828701611a20565b9350506020611fed86828701611a20565b9250506040611ffe86828701611982565b9150509250925092565b600080fd5b60008083601f84011261202357612022611b62565b5b8235905067ffffffffffffffff8111156120405761203f612008565b5b60208301915083602082028301111561205c5761205b611c1f565b5b9250929050565b600067ffffffffffffffff82111561207e5761207d611b78565b5b602082029050602081019050919050565b600080fd5b600067ffffffffffffffff8211156120af576120ae611b78565b5b6120b882611b67565b9050602081019050919050565b82818337600083830152505050565b60006120e76120e284612094565b611bd8565b9050828152602081018484840111156121035761210261208f565b5b61210e8482856120c5565b509392505050565b600082601f83011261212b5761212a611b62565b5b813561213b8482602086016120d4565b91505092915050565b600061215761215284612063565b611bd8565b9050808382526020820190506020840283018581111561217a57612179611c1f565b5b835b818110156121c157803567ffffffffffffffff81111561219f5761219e611b62565b5b8086016121ac8982612116565b8552602085019450505060208101905061217c565b5050509392505050565b600082601f8301126121e0576121df611b62565b5b81356121f0848260208601612144565b91505092915050565b60008060006040848603121561221257612211611957565b5b600084013567ffffffffffffffff8111156122305761222f61195c565b5b61223c8682870161200d565b9350935050602084013567ffffffffffffffff81111561225f5761225e61195c565b5b61226b868287016121cb565b9150509250925092565b600081519050919050565b600082825260208201905092915050565b60005b838110156122af578082015181840152602081019050612294565b60008484015250505050565b60006122c682612275565b6122d08185612280565b93506122e0818560208601612291565b6122e981611b67565b840191505092915050565b6000602082019050818103600083015261230e81846122bb565b905092915050565b6000806040838503121561232d5761232c611957565b5b600061233b85828601611af6565b925050602061234c85828601611a56565b9150509250929050565b6000819050919050565b600061237b612376612371846119d7565b612356565b6119d7565b9050919050565b600061238d82612360565b9050919050565b600061239f82612382565b9050919050565b6123af81612394565b82525050565b60006020820190506123ca60008301846123a6565b92915050565b6000602082840312156123e6576123e5611957565b5b60006123f484828501611a56565b91505092915050565b60006020828403121561241357612412611957565b5b600061242184828501611a20565b91505092915050565b61243381611d09565b82525050565b600060208201905061244e600083018461242a565b92915050565b600061245f82612382565b9050919050565b61246f81612454565b82525050565b600060208201905061248a6000830184612466565b92915050565b600080604083850312156124a7576124a6611957565b5b60006124b585828601611a20565b925050602083013567ffffffffffffffff8111156124d6576124d561195c565b5b6124e285828601612116565b9150509250929050565b600082825260208201905092915050565b7f4d413a2043616e6e6f742068617665206e65676174697665206d617267696e2060008201527f496e2070726f746f636f6c000000000000000000000000000000000000000000602082015250565b6000612559602b836124ec565b9150612564826124fd565b604082019050919050565b600060208201905081810360008301526125888161254c565b9050919050565b7f4e487b7100000000000000000000000000000000000000000000000000000000600052603260045260246000fd5b7f4e487b7100000000000000000000000000000000000000000000000000000000600052601160045260246000fd5b60006125f882611961565b91507fffffffffffffffffffffffffffffffffffffffffffffffffffffffffffffffff820361262a576126296125be565b5b600182019050919050565b7f4d413a20546f6b656e496e206572726f72000000000000000000000000000000600082015250565b600061266b6011836124ec565b915061267682612635565b602082019050919050565b6000602082019050818103600083015261269a8161265e565b9050919050565b7f4d413a20746f6b656e4f7574206572726f720000000000000000000000000000600082015250565b60006126d76012836124ec565b91506126e2826126a1565b602082019050919050565b60006020820190508181036000830152612706816126ca565b9050919050565b7f4d413a20496e76616c696420616d6f756e74496e000000000000000000000000600082015250565b60006127436014836124ec565b915061274e8261270d565b602082019050919050565b6000602082019050818103600083015261277281612736565b9050919050565b600060408201905061278e6000830185611f46565b61279b6020830184611aab565b9392505050565b6000815190506127b181611d15565b92915050565b6000602082840312156127cd576127cc611957565b5b60006127db848285016127a2565b91505092915050565b7f4d413a20496e76616c6964205f73776170506172616d732e616d6f756e744f7560008201527f7400000000000000000000000000000000000000000000000000000000000000602082015250565b60006128406021836124ec565b915061284b826127e4565b604082019050919050565b6000602082019050818103600083015261286f81612833565b9050919050565b61287f816119f7565b82525050565b600062ffffff82169050919050565b61289d81612885565b82525050565b6128ac81611961565b82525050565b6128bb816119d7565b82525050565b610100820160008201516128d86000850182612876565b5060208201516128eb6020850182612876565b5060408201516128fe6040850182612894565b5060608201516129116060850182612876565b50608082015161292460808501826128a3565b5060a082015161293760a08501826128a3565b5060c082015161294a60c08501826128a3565b5060e082015161295d60e08501826128b2565b50505050565b60006101008201905061297960008301846128c1565b92915050565b60008151905061298e8161196b565b92915050565b6000602082840312156129aa576129a9611957565b5b60006129b88482850161297f565b91505092915050565b610100820160008201516129d86000850182612876565b5060208201516129eb6020850182612876565b5060408201516129fe6040850182612894565b506060820151612a116060850182612876565b506080820151612a2460808501826128a3565b5060a0820151612a3760a08501826128a3565b5060c0820151612a4a60c08501826128a3565b5060e0820151612a5d60e08501826128b2565b50505050565b600061010082019050612a7960008301846129c1565b92915050565b600082825260208201905092915050565b6000612a9b82612275565b612aa58185612a7f565b9350612ab5818560208601612291565b612abe81611b67565b840191505092915050565b600060a0830160008301518482036000860152612ae68282612a90565b9150506020830151612afb6020860182612876565b506040830151612b0e60408601826128a3565b506060830151612b2160608601826128a3565b506080830151612b3460808601826128a3565b508091505092915050565b60006020820190508181036000830152612b598184612ac9565b905092915050565b600060a0830160008301518482036000860152612b7e8282612a90565b9150506020830151612b936020860182612876565b506040830151612ba660408601826128a3565b506060830151612bb960608601826128a3565b506080830151612bcc60808601826128a3565b508091505092915050565b60006020820190508181036000830152612bf18184612b61565b905092915050565b6000612c0482611a35565b9150612c0f83611a35565b925082820190508281121560008312168382126000841215161715612c3757612c366125be565b5b92915050565b600060ff82169050919050565b6000612c5582612c3d565b915060ff8203612c6857612c676125be565b5b600182019050919050565b6000612c7e82611961565b9150612c8983611961565b9250828201905080821115612ca157612ca06125be565b5b92915050565b6000606082019050612cbc6000830186611f46565b612cc96020830185611f46565b612cd66040830184611aab565b949350505050565b7f53616665436173743a2076616c756520646f65736e27742066697420696e203860008201527f2062697473000000000000000000000000000000000000000000000000000000602082015250565b6000612d3a6025836124ec565b9150612d4582612cde565b604082019050919050565b60006020820190508181036000830152612d6981612d2d565b9050919050565b7f5361666545524332303a204552433230206f7065726174696f6e20646964206e60008201527f6f74207375636365656400000000000000000000000000000000000000000000602082015250565b6000612dcc602a836124ec565b9150612dd782612d70565b604082019050919050565b60006020820190508181036000830152612dfb81612dbf565b9050919050565b7f416464726573733a20696e73756666696369656e742062616c616e636520666f60008201527f722063616c6c0000000000000000000000000000000000000000000000000000602082015250565b6000612e5e6026836124ec565b9150612e6982612e02565b604082019050919050565b60006020820190508181036000830152612e8d81612e51565b9050919050565b7f416464726573733a2063616c6c20746f206e6f6e2d636f6e7472616374000000600082015250565b6000612eca601d836124ec565b9150612ed582612e94565b602082019050919050565b60006020820190508181036000830152612ef981612ebd565b9050919050565b600081905092915050565b6000612f1682612275565b612f208185612f00565b9350612f30818560208601612291565b80840191505092915050565b6000612f488284612f0b565b915081905092915050565b600081519050919050565b6000612f6982612f53565b612f7381856124ec565b9350612f83818560208601612291565b612f8c81611b67565b840191505092915050565b60006020820190508181036000830152612fb18184612f5e565b90509291505056fea2646970667358221220b3ac999f2dce16e7999d05f2206ed2551bba89fc6db232b7ffc8eef109672ea564736f6c63430008110033",
    "linkReferences": {}
  },
  "methodIdentifiers": {
    "addCollateral(address,address,uint256)": "59781034",
    "addPosition(bytes32,(address,int256,int256,uint256))": "318a96a7",
    "approveToProtocol(address,address)": "272c4a11",
    "contractRegistry()": "abf410e5",
    "cumulativeIndexAtOpen()": "17d11a15",
    "cumulative_RAY()": "aeccd4b9",
    "execMultiTx(address[],bytes[])": "59cbbf49",
    "executeTx(address,bytes)": "fac5e981",
    "existingPosition(bytes32)": "eda11ef0",
    "getPosition(bytes32)": "1928b3cb",
    "getPositionOpenNotional(bytes32)": "db386b8d",
    "getTotalOpeningAbsoluteNotional(bytes32[])": "1d9fd309",
    "getTotalOpeningNotional(bytes32[])": "90b2f8f5",
    "marginInMarket(address)": "c0cb2d25",
    "marginManager()": "481cecaa",
    "pendingFee()": "643090bc",
    "positions(bytes32)": "514ea4bf",
    "removePosition(bytes32)": "4c89b68d",
    "router()": "f887ea40",
    "swap((address,address,uint256,uint256,bool,uint160,uint256))": "220b6dec",
    "totalBorrowed()": "4c19386c",
    "totalInternalLev()": "1fb3b7ac",
    "totalMarginInMarkets()": "ca96a6a7",
    "transferTokens(address,address,uint256)": "a64b6e5f",
    "unsettledRealizedPnL()": "251b652c",
    "updateBorrowData(uint256,uint256)": "0797ceec",
    "updateFee(int256)": "b1f1150c",
    "updateMarginInMarket(address,int256)": "0952886a",
    "updatePosition(bytes32,int256)": "7d1c484d",
    "updateUnsettledRealizedPnL(int256)": "d93baf74"
  },
  "id": 43
}