{
  "abi": [
    {
      "inputs": [
        {
          "internalType": "address",
          "name": "_router",
          "type": "address"
        }
      ],
      "stateMutability": "nonpayable",
      "type": "constructor"
    },
    {
      "inputs": [],
      "name": "_totalBorrowed",
      "outputs": [
        {
          "internalType": "uint256",
          "name": "",
          "type": "uint256"
        }
      ],
      "stateMutability": "view",
      "type": "function"
    },
    {
      "inputs": [
        {
          "internalType": "address",
          "name": "from",
          "type": "address"
        },
        {
          "internalType": "address",
          "name": "token",
          "type": "address"
        },
        {
          "internalType": "uint256",
          "name": "amount",
          "type": "uint256"
        }
      ],
      "name": "addCollateral",
      "outputs": [],
      "stateMutability": "nonpayable",
      "type": "function"
    },
    {
      "inputs": [
        {
          "internalType": "bytes32",
          "name": "market",
          "type": "bytes32"
        },
        {
          "components": [
            {
              "internalType": "address",
              "name": "protocol",
              "type": "address"
            },
            {
              "internalType": "int256",
              "name": "openNotional",
              "type": "int256"
            },
            {
              "internalType": "int256",
              "name": "size",
              "type": "int256"
            }
          ],
          "internalType": "struct Position",
          "name": "position",
          "type": "tuple"
        }
      ],
      "name": "addPosition",
      "outputs": [],
      "stateMutability": "nonpayable",
      "type": "function"
    },
    {
      "inputs": [
        {
          "internalType": "address",
          "name": "token",
          "type": "address"
        },
        {
          "internalType": "address",
          "name": "protocol",
          "type": "address"
        }
      ],
      "name": "approveToProtocol",
      "outputs": [],
      "stateMutability": "nonpayable",
      "type": "function"
    },
    {
      "inputs": [],
      "name": "baseToken",
      "outputs": [
        {
          "internalType": "address",
          "name": "",
          "type": "address"
        }
      ],
      "stateMutability": "view",
      "type": "function"
    },
    {
      "inputs": [],
      "name": "contractRegistry",
      "outputs": [
        {
          "internalType": "contract IContractRegistry",
          "name": "",
          "type": "address"
        }
      ],
      "stateMutability": "view",
      "type": "function"
    },
    {
      "inputs": [],
      "name": "cumulativeIndexAtOpen",
      "outputs": [
        {
          "internalType": "uint256",
          "name": "",
          "type": "uint256"
        }
      ],
      "stateMutability": "view",
      "type": "function"
    },
    {
      "inputs": [],
      "name": "cumulative_RAY",
      "outputs": [
        {
          "internalType": "uint256",
          "name": "",
          "type": "uint256"
        }
      ],
      "stateMutability": "view",
      "type": "function"
    },
    {
      "inputs": [
        {
          "internalType": "address[]",
          "name": "destinations",
          "type": "address[]"
        },
        {
          "internalType": "bytes[]",
          "name": "dataArray",
          "type": "bytes[]"
        }
      ],
      "name": "execMultiTx",
      "outputs": [
        {
          "internalType": "bytes",
          "name": "returnData",
          "type": "bytes"
        }
      ],
      "stateMutability": "nonpayable",
      "type": "function"
    },
    {
      "inputs": [
        {
          "internalType": "address",
          "name": "destination",
          "type": "address"
        },
        {
          "internalType": "bytes",
          "name": "data",
          "type": "bytes"
        }
      ],
      "name": "executeTx",
      "outputs": [
        {
          "internalType": "bytes",
          "name": "",
          "type": "bytes"
        }
      ],
      "stateMutability": "nonpayable",
      "type": "function"
    },
    {
      "inputs": [
        {
          "internalType": "bytes32",
          "name": "",
          "type": "bytes32"
        }
      ],
      "name": "existingPosition",
      "outputs": [
        {
          "internalType": "bool",
          "name": "",
          "type": "bool"
        }
      ],
      "stateMutability": "view",
      "type": "function"
    },
    {
      "inputs": [
        {
          "internalType": "bytes32",
          "name": "market",
          "type": "bytes32"
        }
      ],
      "name": "getPosition",
      "outputs": [
        {
          "internalType": "int256",
          "name": "",
          "type": "int256"
        }
      ],
      "stateMutability": "view",
      "type": "function"
    },
    {
      "inputs": [
        {
          "internalType": "bytes32",
          "name": "market",
          "type": "bytes32"
        }
      ],
      "name": "getPositionOpenNotional",
      "outputs": [
        {
          "internalType": "int256",
          "name": "",
          "type": "int256"
        }
      ],
      "stateMutability": "view",
      "type": "function"
    },
    {
      "inputs": [
        {
          "internalType": "bytes32[]",
          "name": "_allowedMarkets",
          "type": "bytes32[]"
        }
      ],
      "name": "getTotalOpeningAbsoluteNotional",
      "outputs": [
        {
          "internalType": "uint256",
          "name": "totalNotional",
          "type": "uint256"
        }
      ],
      "stateMutability": "view",
      "type": "function"
    },
    {
      "inputs": [
        {
          "internalType": "bytes32[]",
          "name": "_allowedMarkets",
          "type": "bytes32[]"
        }
      ],
      "name": "getTotalOpeningNotional",
      "outputs": [
        {
          "internalType": "int256",
          "name": "totalNotional",
          "type": "int256"
        }
      ],
      "stateMutability": "view",
      "type": "function"
    },
    {
      "inputs": [
        {
          "internalType": "bytes32",
          "name": "",
          "type": "bytes32"
        }
      ],
      "name": "marginInMarket",
      "outputs": [
        {
          "internalType": "int256",
          "name": "",
          "type": "int256"
        }
      ],
      "stateMutability": "view",
      "type": "function"
    },
    {
      "inputs": [],
      "name": "marginManager",
      "outputs": [
        {
          "internalType": "address",
          "name": "",
          "type": "address"
        }
      ],
      "stateMutability": "view",
      "type": "function"
    },
    {
      "inputs": [
        {
          "internalType": "bytes32",
          "name": "",
          "type": "bytes32"
        }
      ],
      "name": "positions",
      "outputs": [
        {
          "internalType": "address",
          "name": "protocol",
          "type": "address"
        },
        {
          "internalType": "int256",
          "name": "openNotional",
          "type": "int256"
        },
        {
          "internalType": "int256",
          "name": "size",
          "type": "int256"
        }
      ],
      "stateMutability": "view",
      "type": "function"
    },
    {
      "inputs": [
        {
          "internalType": "bytes32",
          "name": "market",
          "type": "bytes32"
        }
      ],
      "name": "removePosition",
      "outputs": [],
      "stateMutability": "nonpayable",
      "type": "function"
    },
    {
      "inputs": [],
      "name": "router",
      "outputs": [
        {
          "internalType": "contract ISwapRouter",
          "name": "",
          "type": "address"
        }
      ],
      "stateMutability": "view",
      "type": "function"
    },
    {
      "inputs": [
        {
          "components": [
            {
              "internalType": "address",
              "name": "tokenIn",
              "type": "address"
            },
            {
              "internalType": "address",
              "name": "tokenOut",
              "type": "address"
            },
            {
              "internalType": "uint256",
              "name": "amountIn",
              "type": "uint256"
            },
            {
              "internalType": "uint256",
              "name": "amountOut",
              "type": "uint256"
            },
            {
              "internalType": "bool",
              "name": "isExactInput",
              "type": "bool"
            },
            {
              "internalType": "uint160",
              "name": "sqrtPriceLimitX96",
              "type": "uint160"
            },
            {
              "internalType": "uint256",
              "name": "amountOutMinimum",
              "type": "uint256"
            }
          ],
          "internalType": "struct IExchange.SwapParams",
          "name": "_swapParams",
          "type": "tuple"
        }
      ],
      "name": "swap",
      "outputs": [
        {
          "internalType": "uint256",
          "name": "amountOut",
          "type": "uint256"
        }
      ],
      "stateMutability": "nonpayable",
      "type": "function"
    },
    {
      "inputs": [],
      "name": "totalBorrowed",
      "outputs": [
        {
          "internalType": "uint256",
          "name": "",
          "type": "uint256"
        }
      ],
      "stateMutability": "view",
      "type": "function"
    },
    {
      "inputs": [],
      "name": "totalInternalLev",
      "outputs": [
        {
          "internalType": "uint256",
          "name": "",
          "type": "uint256"
        }
      ],
      "stateMutability": "view",
      "type": "function"
    },
    {
      "inputs": [],
      "name": "totalMarginInMarkets",
      "outputs": [
        {
          "internalType": "int256",
          "name": "",
          "type": "int256"
        }
      ],
      "stateMutability": "view",
      "type": "function"
    },
    {
      "inputs": [
        {
          "internalType": "address",
          "name": "token",
          "type": "address"
        },
        {
          "internalType": "address",
          "name": "to",
          "type": "address"
        },
        {
          "internalType": "uint256",
          "name": "amount",
          "type": "uint256"
        }
      ],
      "name": "transferTokens",
      "outputs": [],
      "stateMutability": "nonpayable",
      "type": "function"
    },
    {
      "inputs": [],
      "name": "underlyingToken",
      "outputs": [
        {
          "internalType": "address",
          "name": "",
          "type": "address"
        }
      ],
      "stateMutability": "view",
      "type": "function"
    },
    {
      "inputs": [
        {
          "internalType": "uint256",
          "name": "_totalBorrowedAmount",
          "type": "uint256"
        },
        {
          "internalType": "uint256",
          "name": "_cumulativeIndexAtOpen",
          "type": "uint256"
        }
      ],
      "name": "updateBorrowData",
      "outputs": [],
      "stateMutability": "nonpayable",
      "type": "function"
    },
    {
      "inputs": [
        {
          "internalType": "bytes32",
          "name": "market",
          "type": "bytes32"
        },
        {
          "internalType": "int256",
          "name": "transferredMargin",
          "type": "int256"
        }
      ],
      "name": "updateMarginInMarket",
      "outputs": [],
      "stateMutability": "nonpayable",
      "type": "function"
    },
    {
      "inputs": [
        {
          "internalType": "bytes32",
          "name": "market",
          "type": "bytes32"
        },
        {
          "internalType": "int256",
          "name": "size",
          "type": "int256"
        }
      ],
      "name": "updatePosition",
      "outputs": [],
      "stateMutability": "nonpayable",
      "type": "function"
    }
  ],
  "bytecode": {
    "object": "0x608060405234801561001057600080fd5b5060405161174d38038061174d83398101604081905261002f916100b9565b806001600160a01b03811661008a5760405162461bcd60e51b815260206004820152601560248201527f4d413a42616420526f7574657220616464726573730000000000000000000000604482015260640160405180910390fd5b600180546001600160a01b039092166001600160a01b03199283161790556005805490911633179055506100e9565b6000602082840312156100cb57600080fd5b81516001600160a01b03811681146100e257600080fd5b9392505050565b611655806100f86000396000f3fe608060405234801561001057600080fd5b50600436106101cf5760003560e01c806359cbbf4911610104578063c52cee7a116100a2578063eda11ef011610071578063eda11ef0146104a2578063f73b858d146104d5578063f887ea40146104f5578063fac5e9811461050857600080fd5b8063c52cee7a1461045a578063c55dae6314610463578063ca96a6a714610476578063db386b8d1461047f57600080fd5b8063a64b6e5f116100de578063a64b6e5f14610418578063abf410e51461042b578063aeccd4b91461043e578063bbf9f2a01461044757600080fd5b806359cbbf49146103d35780637d1c484d146103f357806390b2f8f51461040557600080fd5b8063272c4a11116101715780634c19386c1161014b5780634c19386c146103135780634c89b68d1461031b578063514ea4bf1461036257806359781034146103c057600080fd5b8063272c4a11146102885780633f8a68441461029b578063481cecaa1461030057600080fd5b80631d9fd309116101ad5780631d9fd3091461022e5780631fb3b7ac14610241578063220b6dec1461024a5780632495a5991461025d57600080fd5b80630797ceec146101d457806317d11a15146101ef5780631928b3cb1461020b575b600080fd5b6101ed6101e2366004610f7f565b600891909155600955565b005b6101f860095481565b6040519081526020015b60405180910390f35b6101f8610219366004610fa1565b60009081526004602052604090206002015490565b6101f861023c366004611025565b61051b565b6101f860065481565b6101f86102583660046110d6565b610587565b600a54610270906001600160a01b031681565b6040516001600160a01b039091168152602001610202565b6101ed61029636600461117d565b610941565b6101ed6102a93660046111b6565b6000918252600460209081526040808420835181546001600160a01b0319166001600160a01b039091161781558383015160018083019190915593820151600291820155909152909120805460ff19169091179055565b600554610270906001600160a01b031681565b6008546101f8565b6101ed610329366004610fa1565b6000908152600260208181526040808420805460ff191690556004909152822080546001600160a01b0319168155600181018390550155565b61039b610370366004610fa1565b6004602052600090815260409020805460018201546002909201546001600160a01b03909116919083565b604080516001600160a01b039094168452602084019290925290820152606001610202565b6101ed6103ce366004611236565b6109ba565b6103e66103e13660046112e7565b6109cf565b6040516102029190611444565b6101ed610401366004610f7f565b5050565b6101f8610413366004611025565b610a66565b6101ed610426366004611236565b610acb565b600054610270906001600160a01b031681565b6101f860075481565b6101ed610455366004610f7f565b610adf565b6101f860085481565b600354610270906001600160a01b031681565b6101f8600c5481565b6101f861048d366004610fa1565b60009081526004602052604090206001015490565b6104c56104b0366004610fa1565b60026020526000908152604090205460ff1681565b6040519015158152602001610202565b6101f86104e3366004610fa1565b600b6020526000908152604090205481565b600154610270906001600160a01b031681565b6103e6610516366004611457565b610b98565b8051600090815b818110156105805761056c61056560046000878581518110610546576105466114a7565b6020026020010151815260200190815260200160002060010154610bb9565b8490610bd0565b925080610578816114d3565b915050610522565b5050919050565b80516000906001600160a01b03166105da5760405162461bcd60e51b815260206004820152601160248201527026a09d102a37b5b2b724b71032b93937b960791b60448201526064015b60405180910390fd5b60208201516001600160a01b03166106295760405162461bcd60e51b815260206004820152601260248201527126a09d103a37b5b2b727baba1032b93937b960711b60448201526064016105d1565b81608001511561070257600082604001511161067e5760405162461bcd60e51b815260206004820152601460248201527326a09d1024b73b30b634b21030b6b7bab73a24b760611b60448201526064016105d1565b8151600154604080850151905163095ea7b360e01b81526001600160a01b039283166004820152602481019190915291169063095ea7b3906044016020604051808303816000875af11580156106d8573d6000803e3d6000fd5b505050506040513d601f19601f820116820180604052508101906106fc91906114ec565b506107e0565b60008260600151116107605760405162461bcd60e51b815260206004820152602160248201527f4d413a20496e76616c6964205f73776170506172616d732e616d6f756e744f756044820152601d60fa1b60648201526084016105d1565b8151600154606084015160405163095ea7b360e01b81526001600160a01b039283166004820152602481019190915291169063095ea7b3906044016020604051808303816000875af11580156107ba573d6000803e3d6000fd5b505050506040513d601f19601f820116820180604052508101906107de91906114ec565b505b606460018360800151156108bd57604080516101008101825285516001600160a01b03908116825260208088015182169083015262ffffff8516828401523060608301524260808301528683015160a08084019190915260c08089015190840152870151811660e0830152600154925163414bf38960e01b81529192169063414bf38990610872908490600401611509565b6020604051808303816000875af1158015610891573d6000803e3d6000fd5b505050506040513d601f19601f820116820180604052508101906108b59190611573565b935050610580565b604080516101008101825285516001600160a01b03908116825260208088015182169083015262ffffff8516828401523060608084019190915242608084015287015160a080840191909152600060c0840152870151811660e08301526001549251631b67c43360e31b81529192169063db3e219890610872908490600401611509565b60405163095ea7b360e01b81526001600160a01b038281166004830152600019602483015283169063095ea7b3906044016020604051808303816000875af1158015610991573d6000803e3d6000fd5b505050506040513d601f19601f820116820180604052508101906109b591906114ec565b505050565b6109b56001600160a01b038316843084610bdc565b606060006109dc84610c4d565b905060005b8160ff168160ff161015610a5c57610a48848260ff1681518110610a0757610a076114a7565b602002602001015187878460ff16818110610a2457610a246114a7565b9050602002016020810190610a39919061158c565b6001600160a01b031690610cae565b925080610a54816115a9565b9150506109e1565b50505b9392505050565b8051600090815b8181101561058057610ab760046000868481518110610a8e57610a8e6114a7565b602002602001015181526020019081526020016000206001015484610cf090919063ffffffff16565b925080610ac3816114d3565b915050610a6d565b6109b56001600160a01b0384168383610cfc565b6000828152600b6020526040812054610af89083610cf0565b13610b595760405162461bcd60e51b815260206004820152602b60248201527f4d413a2043616e6e6f742068617665206e65676174697665206d617267696e2060448201526a125b881c1c9bdd1bd8dbdb60aa1b60648201526084016105d1565b600c54610b669082610cf0565b600c556000828152600b6020526040902054610b829082610cf0565b6000928352600b60205260409092209190915550565b60606000610baf6001600160a01b03851684610cae565b9150505b92915050565b600080821215610bcc5781600003610bb3565b5090565b6000610a5f82846115c8565b6040516001600160a01b0380851660248301528316604482015260648101829052610c479085906323b872dd60e01b906084015b60408051601f198184030181529190526020810180516001600160e01b03166001600160e01b031990931692909217909152610d2c565b50505050565b600060ff821115610bcc5760405162461bcd60e51b815260206004820152602560248201527f53616665436173743a2076616c756520646f65736e27742066697420696e2038604482015264206269747360d81b60648201526084016105d1565b6060610a5f83836040518060400160405280601e81526020017f416464726573733a206c6f772d6c6576656c2063616c6c206661696c65640000815250610dfe565b6000610a5f82846115db565b6040516001600160a01b0383166024820152604481018290526109b590849063a9059cbb60e01b90606401610c10565b6000610d81826040518060400160405280602081526020017f5361666545524332303a206c6f772d6c6576656c2063616c6c206661696c6564815250856001600160a01b0316610dfe9092919063ffffffff16565b8051909150156109b55780806020019051810190610d9f91906114ec565b6109b55760405162461bcd60e51b815260206004820152602a60248201527f5361666545524332303a204552433230206f7065726174696f6e20646964206e6044820152691bdd081cdd58d8d9595960b21b60648201526084016105d1565b6060610e0d8484600085610e15565b949350505050565b606082471015610e765760405162461bcd60e51b815260206004820152602660248201527f416464726573733a20696e73756666696369656e742062616c616e636520666f6044820152651c8818d85b1b60d21b60648201526084016105d1565b6001600160a01b0385163b610ecd5760405162461bcd60e51b815260206004820152601d60248201527f416464726573733a2063616c6c20746f206e6f6e2d636f6e747261637400000060448201526064016105d1565b600080866001600160a01b03168587604051610ee99190611603565b60006040518083038185875af1925050503d8060008114610f26576040519150601f19603f3d011682016040523d82523d6000602084013e610f2b565b606091505b5091509150610f3b828286610f46565b979650505050505050565b60608315610f55575081610a5f565b825115610f655782518084602001fd5b8160405162461bcd60e51b81526004016105d19190611444565b60008060408385031215610f9257600080fd5b50508035926020909101359150565b600060208284031215610fb357600080fd5b5035919050565b634e487b7160e01b600052604160045260246000fd5b604051601f8201601f1916810167ffffffffffffffff81118282101715610ff957610ff9610fba565b604052919050565b600067ffffffffffffffff82111561101b5761101b610fba565b5060051b60200190565b6000602080838503121561103857600080fd5b823567ffffffffffffffff81111561104f57600080fd5b8301601f8101851361106057600080fd5b803561107361106e82611001565b610fd0565b81815260059190911b8201830190838101908783111561109257600080fd5b928401925b82841015610f3b57833582529284019290840190611097565b6001600160a01b03811681146110c557600080fd5b50565b80151581146110c557600080fd5b600060e082840312156110e857600080fd5b60405160e0810181811067ffffffffffffffff8211171561110b5761110b610fba565b6040528235611119816110b0565b81526020830135611129816110b0565b8060208301525060408301356040820152606083013560608201526080830135611152816110c8565b608082015260a0830135611165816110b0565b60a082015260c0928301359281019290925250919050565b6000806040838503121561119057600080fd5b823561119b816110b0565b915060208301356111ab816110b0565b809150509250929050565b60008082840360808112156111ca57600080fd5b833592506060601f19820112156111e057600080fd5b506040516060810181811067ffffffffffffffff8211171561120457611204610fba565b6040526020840135611215816110b0565b81526040848101356020830152606090940135938101939093525092909150565b60008060006060848603121561124b57600080fd5b8335611256816110b0565b92506020840135611266816110b0565b929592945050506040919091013590565b600082601f83011261128857600080fd5b813567ffffffffffffffff8111156112a2576112a2610fba565b6112b5601f8201601f1916602001610fd0565b8181528460208386010111156112ca57600080fd5b816020850160208301376000918101602001919091529392505050565b6000806000604084860312156112fc57600080fd5b833567ffffffffffffffff8082111561131457600080fd5b818601915086601f83011261132857600080fd5b81358181111561133757600080fd5b602088818360051b860101111561134d57600080fd5b80840196508195508088013593508284111561136857600080fd5b838801935088601f85011261137c57600080fd5b8335915061138c61106e83611001565b82815260059290921b8401810191818101908a8411156113ab57600080fd5b8286015b848110156113e3578035868111156113c75760008081fd5b6113d58d86838b0101611277565b8452509183019183016113af565b508096505050505050509250925092565b60005b8381101561140f5781810151838201526020016113f7565b50506000910152565b600081518084526114308160208601602086016113f4565b601f01601f19169290920160200192915050565b602081526000610a5f6020830184611418565b6000806040838503121561146a57600080fd5b8235611475816110b0565b9150602083013567ffffffffffffffff81111561149157600080fd5b61149d85828601611277565b9150509250929050565b634e487b7160e01b600052603260045260246000fd5b634e487b7160e01b600052601160045260246000fd5b6000600182016114e5576114e56114bd565b5060010190565b6000602082840312156114fe57600080fd5b8151610a5f816110c8565b6101008101610bb3828480516001600160a01b03908116835260208083015182169084015260408083015162ffffff16908401526060808301518216908401526080808301519084015260a0828101519084015260c0808301519084015260e09182015116910152565b60006020828403121561158557600080fd5b5051919050565b60006020828403121561159e57600080fd5b8135610a5f816110b0565b600060ff821660ff81036115bf576115bf6114bd565b60010192915050565b80820180821115610bb357610bb36114bd565b80820182811260008312801582168215821617156115fb576115fb6114bd565b505092915050565b600082516116158184602087016113f4565b919091019291505056fea26469706673582212204ad3006dd1f27cbdf9daff4428eef36524464bf1e379d2e483493376cd24e56864736f6c63430008110033",
    "linkReferences": {}
  },
  "methodIdentifiers": {
    "_totalBorrowed()": "c52cee7a",
    "addCollateral(address,address,uint256)": "59781034",
    "addPosition(bytes32,(address,int256,int256))": "3f8a6844",
    "approveToProtocol(address,address)": "272c4a11",
    "baseToken()": "c55dae63",
    "contractRegistry()": "abf410e5",
    "cumulativeIndexAtOpen()": "17d11a15",
    "cumulative_RAY()": "aeccd4b9",
    "execMultiTx(address[],bytes[])": "59cbbf49",
    "executeTx(address,bytes)": "fac5e981",
    "existingPosition(bytes32)": "eda11ef0",
    "getPosition(bytes32)": "1928b3cb",
    "getPositionOpenNotional(bytes32)": "db386b8d",
    "getTotalOpeningAbsoluteNotional(bytes32[])": "1d9fd309",
    "getTotalOpeningNotional(bytes32[])": "90b2f8f5",
    "marginInMarket(bytes32)": "f73b858d",
    "marginManager()": "481cecaa",
    "positions(bytes32)": "514ea4bf",
    "removePosition(bytes32)": "4c89b68d",
    "router()": "f887ea40",
    "swap((address,address,uint256,uint256,bool,uint160,uint256))": "220b6dec",
    "totalBorrowed()": "4c19386c",
    "totalInternalLev()": "1fb3b7ac",
    "totalMarginInMarkets()": "ca96a6a7",
    "transferTokens(address,address,uint256)": "a64b6e5f",
    "underlyingToken()": "2495a599",
    "updateBorrowData(uint256,uint256)": "0797ceec",
    "updateMarginInMarket(bytes32,int256)": "bbf9f2a0",
    "updatePosition(bytes32,int256)": "7d1c484d"
  },
  "id": 24
}