{
  "abi": [
    {
      "inputs": [
        {
          "internalType": "address",
          "name": "_router",
          "type": "address"
        }
      ],
      "stateMutability": "nonpayable",
      "type": "constructor"
    },
    {
      "inputs": [],
      "name": "_totalBorrowed",
      "outputs": [
        {
          "internalType": "uint256",
          "name": "",
          "type": "uint256"
        }
      ],
      "stateMutability": "view",
      "type": "function"
    },
    {
      "inputs": [
        {
          "internalType": "address",
          "name": "from",
          "type": "address"
        },
        {
          "internalType": "address",
          "name": "token",
          "type": "address"
        },
        {
          "internalType": "uint256",
          "name": "amount",
          "type": "uint256"
        }
      ],
      "name": "addCollateral",
      "outputs": [],
      "stateMutability": "nonpayable",
      "type": "function"
    },
    {
      "inputs": [
        {
          "internalType": "bytes32",
          "name": "market",
          "type": "bytes32"
        },
        {
          "components": [
            {
              "internalType": "address",
              "name": "protocol",
              "type": "address"
            },
            {
              "internalType": "int256",
              "name": "openNotional",
              "type": "int256"
            },
            {
              "internalType": "int256",
              "name": "size",
              "type": "int256"
            },
            {
              "internalType": "uint256",
              "name": "fee",
              "type": "uint256"
            }
          ],
          "internalType": "struct Position",
          "name": "position",
          "type": "tuple"
        }
      ],
      "name": "addPosition",
      "outputs": [],
      "stateMutability": "nonpayable",
      "type": "function"
    },
    {
      "inputs": [
        {
          "internalType": "address",
          "name": "token",
          "type": "address"
        },
        {
          "internalType": "address",
          "name": "protocol",
          "type": "address"
        }
      ],
      "name": "approveToProtocol",
      "outputs": [],
      "stateMutability": "nonpayable",
      "type": "function"
    },
    {
      "inputs": [],
      "name": "baseToken",
      "outputs": [
        {
          "internalType": "address",
          "name": "",
          "type": "address"
        }
      ],
      "stateMutability": "view",
      "type": "function"
    },
    {
      "inputs": [],
      "name": "contractRegistry",
      "outputs": [
        {
          "internalType": "contract IContractRegistry",
          "name": "",
          "type": "address"
        }
      ],
      "stateMutability": "view",
      "type": "function"
    },
    {
      "inputs": [],
      "name": "cumulativeIndexAtOpen",
      "outputs": [
        {
          "internalType": "uint256",
          "name": "",
          "type": "uint256"
        }
      ],
      "stateMutability": "view",
      "type": "function"
    },
    {
      "inputs": [],
      "name": "cumulative_RAY",
      "outputs": [
        {
          "internalType": "uint256",
          "name": "",
          "type": "uint256"
        }
      ],
      "stateMutability": "view",
      "type": "function"
    },
    {
      "inputs": [
        {
          "internalType": "address[]",
          "name": "destinations",
          "type": "address[]"
        },
        {
          "internalType": "bytes[]",
          "name": "dataArray",
          "type": "bytes[]"
        }
      ],
      "name": "execMultiTx",
      "outputs": [
        {
          "internalType": "bytes",
          "name": "returnData",
          "type": "bytes"
        }
      ],
      "stateMutability": "nonpayable",
      "type": "function"
    },
    {
      "inputs": [
        {
          "internalType": "address",
          "name": "destination",
          "type": "address"
        },
        {
          "internalType": "bytes",
          "name": "data",
          "type": "bytes"
        }
      ],
      "name": "executeTx",
      "outputs": [
        {
          "internalType": "bytes",
          "name": "",
          "type": "bytes"
        }
      ],
      "stateMutability": "nonpayable",
      "type": "function"
    },
    {
      "inputs": [
        {
          "internalType": "bytes32",
          "name": "",
          "type": "bytes32"
        }
      ],
      "name": "existingPosition",
      "outputs": [
        {
          "internalType": "bool",
          "name": "",
          "type": "bool"
        }
      ],
      "stateMutability": "view",
      "type": "function"
    },
    {
      "inputs": [
        {
          "internalType": "bytes32",
          "name": "market",
          "type": "bytes32"
        }
      ],
      "name": "getPosition",
      "outputs": [
        {
          "internalType": "int256",
          "name": "",
          "type": "int256"
        }
      ],
      "stateMutability": "view",
      "type": "function"
    },
    {
      "inputs": [
        {
          "internalType": "bytes32",
          "name": "market",
          "type": "bytes32"
        }
      ],
      "name": "getPositionOpenNotional",
      "outputs": [
        {
          "internalType": "int256",
          "name": "",
          "type": "int256"
        }
      ],
      "stateMutability": "view",
      "type": "function"
    },
    {
      "inputs": [
        {
          "internalType": "bytes32[]",
          "name": "_allowedMarkets",
          "type": "bytes32[]"
        }
      ],
      "name": "getTotalOpeningAbsoluteNotional",
      "outputs": [
        {
          "internalType": "uint256",
          "name": "totalNotional",
          "type": "uint256"
        }
      ],
      "stateMutability": "view",
      "type": "function"
    },
    {
      "inputs": [
        {
          "internalType": "bytes32[]",
          "name": "_allowedMarkets",
          "type": "bytes32[]"
        }
      ],
      "name": "getTotalOpeningNotional",
      "outputs": [
        {
          "internalType": "int256",
          "name": "totalNotional",
          "type": "int256"
        }
      ],
      "stateMutability": "view",
      "type": "function"
    },
    {
      "inputs": [
        {
          "internalType": "bytes32",
          "name": "",
          "type": "bytes32"
        }
      ],
      "name": "marginInMarket",
      "outputs": [
        {
          "internalType": "int256",
          "name": "",
          "type": "int256"
        }
      ],
      "stateMutability": "view",
      "type": "function"
    },
    {
      "inputs": [],
      "name": "marginManager",
      "outputs": [
        {
          "internalType": "address",
          "name": "",
          "type": "address"
        }
      ],
      "stateMutability": "view",
      "type": "function"
    },
    {
      "inputs": [],
      "name": "pendingFee",
      "outputs": [
        {
          "internalType": "int256",
          "name": "",
          "type": "int256"
        }
      ],
      "stateMutability": "view",
      "type": "function"
    },
    {
      "inputs": [
        {
          "internalType": "bytes32",
          "name": "",
          "type": "bytes32"
        }
      ],
      "name": "positions",
      "outputs": [
        {
          "internalType": "address",
          "name": "protocol",
          "type": "address"
        },
        {
          "internalType": "int256",
          "name": "openNotional",
          "type": "int256"
        },
        {
          "internalType": "int256",
          "name": "size",
          "type": "int256"
        },
        {
          "internalType": "uint256",
          "name": "fee",
          "type": "uint256"
        }
      ],
      "stateMutability": "view",
      "type": "function"
    },
    {
      "inputs": [
        {
          "internalType": "bytes32",
          "name": "market",
          "type": "bytes32"
        }
      ],
      "name": "removePosition",
      "outputs": [],
      "stateMutability": "nonpayable",
      "type": "function"
    },
    {
      "inputs": [],
      "name": "router",
      "outputs": [
        {
          "internalType": "contract ISwapRouter",
          "name": "",
          "type": "address"
        }
      ],
      "stateMutability": "view",
      "type": "function"
    },
    {
      "inputs": [
        {
          "components": [
            {
              "internalType": "address",
              "name": "tokenIn",
              "type": "address"
            },
            {
              "internalType": "address",
              "name": "tokenOut",
              "type": "address"
            },
            {
              "internalType": "uint256",
              "name": "amountIn",
              "type": "uint256"
            },
            {
              "internalType": "uint256",
              "name": "amountOut",
              "type": "uint256"
            },
            {
              "internalType": "bool",
              "name": "isExactInput",
              "type": "bool"
            },
            {
              "internalType": "uint160",
              "name": "sqrtPriceLimitX96",
              "type": "uint160"
            },
            {
              "internalType": "uint256",
              "name": "amountOutMinimum",
              "type": "uint256"
            }
          ],
          "internalType": "struct IExchange.SwapParams",
          "name": "_swapParams",
          "type": "tuple"
        }
      ],
      "name": "swap",
      "outputs": [
        {
          "internalType": "uint256",
          "name": "amountOut",
          "type": "uint256"
        }
      ],
      "stateMutability": "nonpayable",
      "type": "function"
    },
    {
      "inputs": [],
      "name": "totalBorrowed",
      "outputs": [
        {
          "internalType": "uint256",
          "name": "",
          "type": "uint256"
        }
      ],
      "stateMutability": "view",
      "type": "function"
    },
    {
      "inputs": [],
      "name": "totalInternalLev",
      "outputs": [
        {
          "internalType": "uint256",
          "name": "",
          "type": "uint256"
        }
      ],
      "stateMutability": "view",
      "type": "function"
    },
    {
      "inputs": [],
      "name": "totalMarginInMarkets",
      "outputs": [
        {
          "internalType": "int256",
          "name": "",
          "type": "int256"
        }
      ],
      "stateMutability": "view",
      "type": "function"
    },
    {
      "inputs": [
        {
          "internalType": "address",
          "name": "token",
          "type": "address"
        },
        {
          "internalType": "address",
          "name": "to",
          "type": "address"
        },
        {
          "internalType": "uint256",
          "name": "amount",
          "type": "uint256"
        }
      ],
      "name": "transferTokens",
      "outputs": [],
      "stateMutability": "nonpayable",
      "type": "function"
    },
    {
      "inputs": [],
      "name": "underlyingToken",
      "outputs": [
        {
          "internalType": "address",
          "name": "",
          "type": "address"
        }
      ],
      "stateMutability": "view",
      "type": "function"
    },
    {
      "inputs": [
        {
          "internalType": "uint256",
          "name": "_totalBorrowedAmount",
          "type": "uint256"
        },
        {
          "internalType": "uint256",
          "name": "_cumulativeIndexAtOpen",
          "type": "uint256"
        }
      ],
      "name": "updateBorrowData",
      "outputs": [],
      "stateMutability": "nonpayable",
      "type": "function"
    },
    {
      "inputs": [
        {
          "internalType": "int256",
          "name": "fee",
          "type": "int256"
        }
      ],
      "name": "updateFee",
      "outputs": [],
      "stateMutability": "nonpayable",
      "type": "function"
    },
    {
      "inputs": [
        {
          "internalType": "bytes32",
          "name": "market",
          "type": "bytes32"
        },
        {
          "internalType": "int256",
          "name": "transferredMargin",
          "type": "int256"
        }
      ],
      "name": "updateMarginInMarket",
      "outputs": [],
      "stateMutability": "nonpayable",
      "type": "function"
    },
    {
      "inputs": [
        {
          "internalType": "bytes32",
          "name": "market",
          "type": "bytes32"
        },
        {
          "internalType": "int256",
          "name": "size",
          "type": "int256"
        }
      ],
      "name": "updatePosition",
      "outputs": [],
      "stateMutability": "nonpayable",
      "type": "function"
    }
  ],
  "bytecode": {
    "object": "0x608060405234801561001057600080fd5b506040516117e43803806117e483398101604081905261002f916100b9565b806001600160a01b03811661008a5760405162461bcd60e51b815260206004820152601560248201527f4d413a42616420526f7574657220616464726573730000000000000000000000604482015260640160405180910390fd5b600180546001600160a01b039092166001600160a01b03199283161790556005805490911633179055506100e9565b6000602082840312156100cb57600080fd5b81516001600160a01b03811681146100e257600080fd5b9392505050565b6116ec806100f86000396000f3fe608060405234801561001057600080fd5b50600436106101e55760003560e01c8063643090bc1161010f578063c52cee7a116100a2578063eda11ef011610071578063eda11ef014610495578063f73b858d146104c8578063f887ea40146104e8578063fac5e981146104fb57600080fd5b8063c52cee7a1461044d578063c55dae6314610456578063ca96a6a714610469578063db386b8d1461047257600080fd5b8063abf410e5116100de578063abf410e51461040b578063aeccd4b91461041e578063b1f1150c14610427578063bbf9f2a01461043a57600080fd5b8063643090bc146103ca5780637d1c484d146103d357806390b2f8f5146103e5578063a64b6e5f146103f857600080fd5b8063272c4a11116101875780634c89b68d116101565780634c89b68d146102df578063514ea4bf1461032e578063597810341461039757806359cbbf49146103aa57600080fd5b8063272c4a111461029e578063318a96a7146102b1578063481cecaa146102c45780634c19386c146102d757600080fd5b80631d9fd309116101c35780631d9fd309146102445780631fb3b7ac14610257578063220b6dec146102605780632495a5991461027357600080fd5b80630797ceec146101ea57806317d11a15146102055780631928b3cb14610221575b600080fd5b6102036101f836600461100a565b600891909155600955565b005b61020e60095481565b6040519081526020015b60405180910390f35b61020e61022f36600461102c565b60009081526004602052604090206002015490565b61020e6102523660046110b0565b61050e565b61020e60065481565b61020e61026e366004611161565b61057a565b600a54610286906001600160a01b031681565b6040516001600160a01b039091168152602001610218565b6102036102ac366004611208565b610934565b6102036102bf366004611241565b6109ad565b600554610286906001600160a01b031681565b60085461020e565b6102036102ed36600461102c565b6000908152600260208181526040808420805460ff191690556004909152822080546001600160a01b03191681556001810183905590810182905560030155565b61036d61033c36600461102c565b60046020526000908152604090208054600182015460028301546003909301546001600160a01b0390921692909184565b604080516001600160a01b0390951685526020850193909352918301526060820152608001610218565b6102036103a53660046112cd565b610a32565b6103bd6103b836600461137e565b610a47565b60405161021891906114db565b61020e600b5481565b6102036103e136600461100a565b5050565b61020e6103f33660046110b0565b610ade565b6102036104063660046112cd565b610b43565b600054610286906001600160a01b031681565b61020e60075481565b61020361043536600461102c565b610b57565b61020361044836600461100a565b610b6a565b61020e60085481565b600354610286906001600160a01b031681565b61020e600d5481565b61020e61048036600461102c565b60009081526004602052604090206001015490565b6104b86104a336600461102c565b60026020526000908152604090205460ff1681565b6040519015158152602001610218565b61020e6104d636600461102c565b600c6020526000908152604090205481565b600154610286906001600160a01b031681565b6103bd6105093660046114ee565b610c23565b8051600090815b818110156105735761055f610558600460008785815181106105395761053961153e565b6020026020010151815260200190815260200160002060010154610c44565b8490610c5b565b92508061056b8161156a565b915050610515565b5050919050565b80516000906001600160a01b03166105cd5760405162461bcd60e51b815260206004820152601160248201527026a09d102a37b5b2b724b71032b93937b960791b60448201526064015b60405180910390fd5b60208201516001600160a01b031661061c5760405162461bcd60e51b815260206004820152601260248201527126a09d103a37b5b2b727baba1032b93937b960711b60448201526064016105c4565b8160800151156106f55760008260400151116106715760405162461bcd60e51b815260206004820152601460248201527326a09d1024b73b30b634b21030b6b7bab73a24b760611b60448201526064016105c4565b8151600154604080850151905163095ea7b360e01b81526001600160a01b039283166004820152602481019190915291169063095ea7b3906044016020604051808303816000875af11580156106cb573d6000803e3d6000fd5b505050506040513d601f19601f820116820180604052508101906106ef9190611583565b506107d3565b60008260600151116107535760405162461bcd60e51b815260206004820152602160248201527f4d413a20496e76616c6964205f73776170506172616d732e616d6f756e744f756044820152601d60fa1b60648201526084016105c4565b8151600154606084015160405163095ea7b360e01b81526001600160a01b039283166004820152602481019190915291169063095ea7b3906044016020604051808303816000875af11580156107ad573d6000803e3d6000fd5b505050506040513d601f19601f820116820180604052508101906107d19190611583565b505b606460018360800151156108b057604080516101008101825285516001600160a01b03908116825260208088015182169083015262ffffff8516828401523060608301524260808301528683015160a08084019190915260c08089015190840152870151811660e0830152600154925163414bf38960e01b81529192169063414bf389906108659084906004016115a0565b6020604051808303816000875af1158015610884573d6000803e3d6000fd5b505050506040513d601f19601f820116820180604052508101906108a8919061160a565b935050610573565b604080516101008101825285516001600160a01b03908116825260208088015182169083015262ffffff8516828401523060608084019190915242608084015287015160a080840191909152600060c0840152870151811660e08301526001549251631b67c43360e31b81529192169063db3e2198906108659084906004016115a0565b60405163095ea7b360e01b81526001600160a01b038281166004830152600019602483015283169063095ea7b3906044016020604051808303816000875af1158015610984573d6000803e3d6000fd5b505050506040513d601f19601f820116820180604052508101906109a89190611583565b505050565b6000828152600460209081526040808320845181546001600160a01b0319166001600160a01b039091161781558483015160018083019190915585830151600280840191909155606087018051600390940193909355909352908320805460ff191690921790915551600b805491929091610a29908490611623565b90915550505050565b6109a86001600160a01b038316843084610c67565b60606000610a5484610cd8565b905060005b8160ff168160ff161015610ad457610ac0848260ff1681518110610a7f57610a7f61153e565b602002602001015187878460ff16818110610a9c57610a9c61153e565b9050602002016020810190610ab1919061164b565b6001600160a01b031690610d39565b925080610acc81611668565b915050610a59565b50505b9392505050565b8051600090815b8181101561057357610b2f60046000868481518110610b0657610b0661153e565b602002602001015181526020019081526020016000206001015484610d7b90919063ffffffff16565b925080610b3b8161156a565b915050610ae5565b6109a86001600160a01b0384168383610d87565b600b54610b649082610d7b565b600b5550565b6000828152600c6020526040812054610b839083610d7b565b13610be45760405162461bcd60e51b815260206004820152602b60248201527f4d413a2043616e6e6f742068617665206e65676174697665206d617267696e2060448201526a125b881c1c9bdd1bd8dbdb60aa1b60648201526084016105c4565b600d54610bf19082610d7b565b600d556000828152600c6020526040902054610c0d9082610d7b565b6000928352600c60205260409092209190915550565b60606000610c3a6001600160a01b03851684610d39565b9150505b92915050565b600080821215610c575781600003610c3e565b5090565b6000610ad78284611687565b6040516001600160a01b0380851660248301528316604482015260648101829052610cd29085906323b872dd60e01b906084015b60408051601f198184030181529190526020810180516001600160e01b03166001600160e01b031990931692909217909152610db7565b50505050565b600060ff821115610c575760405162461bcd60e51b815260206004820152602560248201527f53616665436173743a2076616c756520646f65736e27742066697420696e2038604482015264206269747360d81b60648201526084016105c4565b6060610ad783836040518060400160405280601e81526020017f416464726573733a206c6f772d6c6576656c2063616c6c206661696c65640000815250610e89565b6000610ad78284611623565b6040516001600160a01b0383166024820152604481018290526109a890849063a9059cbb60e01b90606401610c9b565b6000610e0c826040518060400160405280602081526020017f5361666545524332303a206c6f772d6c6576656c2063616c6c206661696c6564815250856001600160a01b0316610e899092919063ffffffff16565b8051909150156109a85780806020019051810190610e2a9190611583565b6109a85760405162461bcd60e51b815260206004820152602a60248201527f5361666545524332303a204552433230206f7065726174696f6e20646964206e6044820152691bdd081cdd58d8d9595960b21b60648201526084016105c4565b6060610e988484600085610ea0565b949350505050565b606082471015610f015760405162461bcd60e51b815260206004820152602660248201527f416464726573733a20696e73756666696369656e742062616c616e636520666f6044820152651c8818d85b1b60d21b60648201526084016105c4565b6001600160a01b0385163b610f585760405162461bcd60e51b815260206004820152601d60248201527f416464726573733a2063616c6c20746f206e6f6e2d636f6e747261637400000060448201526064016105c4565b600080866001600160a01b03168587604051610f74919061169a565b60006040518083038185875af1925050503d8060008114610fb1576040519150601f19603f3d011682016040523d82523d6000602084013e610fb6565b606091505b5091509150610fc6828286610fd1565b979650505050505050565b60608315610fe0575081610ad7565b825115610ff05782518084602001fd5b8160405162461bcd60e51b81526004016105c491906114db565b6000806040838503121561101d57600080fd5b50508035926020909101359150565b60006020828403121561103e57600080fd5b5035919050565b634e487b7160e01b600052604160045260246000fd5b604051601f8201601f1916810167ffffffffffffffff8111828210171561108457611084611045565b604052919050565b600067ffffffffffffffff8211156110a6576110a6611045565b5060051b60200190565b600060208083850312156110c357600080fd5b823567ffffffffffffffff8111156110da57600080fd5b8301601f810185136110eb57600080fd5b80356110fe6110f98261108c565b61105b565b81815260059190911b8201830190838101908783111561111d57600080fd5b928401925b82841015610fc657833582529284019290840190611122565b6001600160a01b038116811461115057600080fd5b50565b801515811461115057600080fd5b600060e0828403121561117357600080fd5b60405160e0810181811067ffffffffffffffff8211171561119657611196611045565b60405282356111a48161113b565b815260208301356111b48161113b565b80602083015250604083013560408201526060830135606082015260808301356111dd81611153565b608082015260a08301356111f08161113b565b60a082015260c0928301359281019290925250919050565b6000806040838503121561121b57600080fd5b82356112268161113b565b915060208301356112368161113b565b809150509250929050565b60008082840360a081121561125557600080fd5b833592506080601f198201121561126b57600080fd5b506040516080810181811067ffffffffffffffff8211171561128f5761128f611045565b60405260208401356112a08161113b565b80825250604084013560208201526060840135604082015260808401356060820152809150509250929050565b6000806000606084860312156112e257600080fd5b83356112ed8161113b565b925060208401356112fd8161113b565b929592945050506040919091013590565b600082601f83011261131f57600080fd5b813567ffffffffffffffff81111561133957611339611045565b61134c601f8201601f191660200161105b565b81815284602083860101111561136157600080fd5b816020850160208301376000918101602001919091529392505050565b60008060006040848603121561139357600080fd5b833567ffffffffffffffff808211156113ab57600080fd5b818601915086601f8301126113bf57600080fd5b8135818111156113ce57600080fd5b602088818360051b86010111156113e457600080fd5b8084019650819550808801359350828411156113ff57600080fd5b838801935088601f85011261141357600080fd5b833591506114236110f98361108c565b82815260059290921b8401810191818101908a84111561144257600080fd5b8286015b8481101561147a5780358681111561145e5760008081fd5b61146c8d86838b010161130e565b845250918301918301611446565b508096505050505050509250925092565b60005b838110156114a657818101518382015260200161148e565b50506000910152565b600081518084526114c781602086016020860161148b565b601f01601f19169290920160200192915050565b602081526000610ad760208301846114af565b6000806040838503121561150157600080fd5b823561150c8161113b565b9150602083013567ffffffffffffffff81111561152857600080fd5b6115348582860161130e565b9150509250929050565b634e487b7160e01b600052603260045260246000fd5b634e487b7160e01b600052601160045260246000fd5b60006001820161157c5761157c611554565b5060010190565b60006020828403121561159557600080fd5b8151610ad781611153565b6101008101610c3e828480516001600160a01b03908116835260208083015182169084015260408083015162ffffff16908401526060808301518216908401526080808301519084015260a0828101519084015260c0808301519084015260e09182015116910152565b60006020828403121561161c57600080fd5b5051919050565b808201828112600083128015821682158216171561164357611643611554565b505092915050565b60006020828403121561165d57600080fd5b8135610ad78161113b565b600060ff821660ff810361167e5761167e611554565b60010192915050565b80820180821115610c3e57610c3e611554565b600082516116ac81846020870161148b565b919091019291505056fea2646970667358221220786e9087a29764dc1f148f1e54dd2eb903b636c467cc7832e70c4213e5ef636964736f6c63430008110033",
    "linkReferences": {}
  },
  "methodIdentifiers": {
    "_totalBorrowed()": "c52cee7a",
    "addCollateral(address,address,uint256)": "59781034",
    "addPosition(bytes32,(address,int256,int256,uint256))": "318a96a7",
    "approveToProtocol(address,address)": "272c4a11",
    "baseToken()": "c55dae63",
    "contractRegistry()": "abf410e5",
    "cumulativeIndexAtOpen()": "17d11a15",
    "cumulative_RAY()": "aeccd4b9",
    "execMultiTx(address[],bytes[])": "59cbbf49",
    "executeTx(address,bytes)": "fac5e981",
    "existingPosition(bytes32)": "eda11ef0",
    "getPosition(bytes32)": "1928b3cb",
    "getPositionOpenNotional(bytes32)": "db386b8d",
    "getTotalOpeningAbsoluteNotional(bytes32[])": "1d9fd309",
    "getTotalOpeningNotional(bytes32[])": "90b2f8f5",
    "marginInMarket(bytes32)": "f73b858d",
    "marginManager()": "481cecaa",
    "pendingFee()": "643090bc",
    "positions(bytes32)": "514ea4bf",
    "removePosition(bytes32)": "4c89b68d",
    "router()": "f887ea40",
    "swap((address,address,uint256,uint256,bool,uint160,uint256))": "220b6dec",
    "totalBorrowed()": "4c19386c",
    "totalInternalLev()": "1fb3b7ac",
    "totalMarginInMarkets()": "ca96a6a7",
    "transferTokens(address,address,uint256)": "a64b6e5f",
    "underlyingToken()": "2495a599",
    "updateBorrowData(uint256,uint256)": "0797ceec",
    "updateFee(int256)": "b1f1150c",
    "updateMarginInMarket(bytes32,int256)": "bbf9f2a0",
    "updatePosition(bytes32,int256)": "7d1c484d"
  },
  "id": 28
}