{
  "abi": [
    {
      "inputs": [
        {
          "internalType": "address",
          "name": "_router",
          "type": "address"
        }
      ],
      "stateMutability": "nonpayable",
      "type": "constructor"
    },
    {
      "inputs": [],
      "name": "_totalBorrowed",
      "outputs": [
        {
          "internalType": "uint256",
          "name": "",
          "type": "uint256"
        }
      ],
      "stateMutability": "view",
      "type": "function"
    },
    {
      "inputs": [
        {
          "internalType": "address",
          "name": "from",
          "type": "address"
        },
        {
          "internalType": "address",
          "name": "token",
          "type": "address"
        },
        {
          "internalType": "uint256",
          "name": "amount",
          "type": "uint256"
        }
      ],
      "name": "addCollateral",
      "outputs": [],
      "stateMutability": "nonpayable",
      "type": "function"
    },
    {
      "inputs": [
        {
          "internalType": "bytes32",
          "name": "market",
          "type": "bytes32"
        },
        {
          "components": [
            {
              "internalType": "address",
              "name": "protocol",
              "type": "address"
            },
            {
              "internalType": "int256",
              "name": "openNotional",
              "type": "int256"
            },
            {
              "internalType": "int256",
              "name": "size",
              "type": "int256"
            },
            {
              "internalType": "uint256",
              "name": "fee",
              "type": "uint256"
            }
          ],
          "internalType": "struct Position",
          "name": "position",
          "type": "tuple"
        }
      ],
      "name": "addPosition",
      "outputs": [],
      "stateMutability": "nonpayable",
      "type": "function"
    },
    {
      "inputs": [
        {
          "internalType": "address",
          "name": "token",
          "type": "address"
        },
        {
          "internalType": "address",
          "name": "protocol",
          "type": "address"
        }
      ],
      "name": "approveToProtocol",
      "outputs": [],
      "stateMutability": "nonpayable",
      "type": "function"
    },
    {
      "inputs": [],
      "name": "contractRegistry",
      "outputs": [
        {
          "internalType": "contract IContractRegistry",
          "name": "",
          "type": "address"
        }
      ],
      "stateMutability": "view",
      "type": "function"
    },
    {
      "inputs": [],
      "name": "cumulativeIndexAtOpen",
      "outputs": [
        {
          "internalType": "uint256",
          "name": "",
          "type": "uint256"
        }
      ],
      "stateMutability": "view",
      "type": "function"
    },
    {
      "inputs": [],
      "name": "cumulative_RAY",
      "outputs": [
        {
          "internalType": "uint256",
          "name": "",
          "type": "uint256"
        }
      ],
      "stateMutability": "view",
      "type": "function"
    },
    {
      "inputs": [
        {
          "internalType": "address[]",
          "name": "destinations",
          "type": "address[]"
        },
        {
          "internalType": "bytes[]",
          "name": "dataArray",
          "type": "bytes[]"
        }
      ],
      "name": "execMultiTx",
      "outputs": [
        {
          "internalType": "bytes",
          "name": "returnData",
          "type": "bytes"
        }
      ],
      "stateMutability": "nonpayable",
      "type": "function"
    },
    {
      "inputs": [
        {
          "internalType": "address",
          "name": "destination",
          "type": "address"
        },
        {
          "internalType": "bytes",
          "name": "data",
          "type": "bytes"
        }
      ],
      "name": "executeTx",
      "outputs": [
        {
          "internalType": "bytes",
          "name": "",
          "type": "bytes"
        }
      ],
      "stateMutability": "nonpayable",
      "type": "function"
    },
    {
      "inputs": [
        {
          "internalType": "bytes32",
          "name": "",
          "type": "bytes32"
        }
      ],
      "name": "existingPosition",
      "outputs": [
        {
          "internalType": "bool",
          "name": "",
          "type": "bool"
        }
      ],
      "stateMutability": "view",
      "type": "function"
    },
    {
      "inputs": [
        {
          "internalType": "bytes32",
          "name": "market",
          "type": "bytes32"
        }
      ],
      "name": "getPosition",
      "outputs": [
        {
          "internalType": "int256",
          "name": "",
          "type": "int256"
        }
      ],
      "stateMutability": "view",
      "type": "function"
    },
    {
      "inputs": [
        {
          "internalType": "bytes32",
          "name": "market",
          "type": "bytes32"
        }
      ],
      "name": "getPositionOpenNotional",
      "outputs": [
        {
          "internalType": "int256",
          "name": "",
          "type": "int256"
        }
      ],
      "stateMutability": "view",
      "type": "function"
    },
    {
      "inputs": [
        {
          "internalType": "bytes32[]",
          "name": "_allowedMarkets",
          "type": "bytes32[]"
        }
      ],
      "name": "getTotalOpeningAbsoluteNotional",
      "outputs": [
        {
          "internalType": "uint256",
          "name": "totalNotional",
          "type": "uint256"
        }
      ],
      "stateMutability": "view",
      "type": "function"
    },
    {
      "inputs": [
        {
          "internalType": "bytes32[]",
          "name": "_allowedMarkets",
          "type": "bytes32[]"
        }
      ],
      "name": "getTotalOpeningNotional",
      "outputs": [
        {
          "internalType": "int256",
          "name": "totalNotional",
          "type": "int256"
        }
      ],
      "stateMutability": "view",
      "type": "function"
    },
    {
      "inputs": [
        {
          "internalType": "address",
          "name": "",
          "type": "address"
        }
      ],
      "name": "marginInMarket",
      "outputs": [
        {
          "internalType": "int256",
          "name": "",
          "type": "int256"
        }
      ],
      "stateMutability": "view",
      "type": "function"
    },
    {
      "inputs": [],
      "name": "marginManager",
      "outputs": [
        {
          "internalType": "address",
          "name": "",
          "type": "address"
        }
      ],
      "stateMutability": "view",
      "type": "function"
    },
    {
      "inputs": [],
      "name": "pendingFee",
      "outputs": [
        {
          "internalType": "int256",
          "name": "",
          "type": "int256"
        }
      ],
      "stateMutability": "view",
      "type": "function"
    },
    {
      "inputs": [
        {
          "internalType": "bytes32",
          "name": "",
          "type": "bytes32"
        }
      ],
      "name": "positions",
      "outputs": [
        {
          "internalType": "address",
          "name": "protocol",
          "type": "address"
        },
        {
          "internalType": "int256",
          "name": "openNotional",
          "type": "int256"
        },
        {
          "internalType": "int256",
          "name": "size",
          "type": "int256"
        },
        {
          "internalType": "uint256",
          "name": "fee",
          "type": "uint256"
        }
      ],
      "stateMutability": "view",
      "type": "function"
    },
    {
      "inputs": [
        {
          "internalType": "bytes32",
          "name": "market",
          "type": "bytes32"
        }
      ],
      "name": "removePosition",
      "outputs": [],
      "stateMutability": "nonpayable",
      "type": "function"
    },
    {
      "inputs": [],
      "name": "router",
      "outputs": [
        {
          "internalType": "contract ISwapRouter",
          "name": "",
          "type": "address"
        }
      ],
      "stateMutability": "view",
      "type": "function"
    },
    {
      "inputs": [
        {
          "components": [
            {
              "internalType": "address",
              "name": "tokenIn",
              "type": "address"
            },
            {
              "internalType": "address",
              "name": "tokenOut",
              "type": "address"
            },
            {
              "internalType": "uint256",
              "name": "amountIn",
              "type": "uint256"
            },
            {
              "internalType": "uint256",
              "name": "amountOut",
              "type": "uint256"
            },
            {
              "internalType": "bool",
              "name": "isExactInput",
              "type": "bool"
            },
            {
              "internalType": "uint160",
              "name": "sqrtPriceLimitX96",
              "type": "uint160"
            },
            {
              "internalType": "uint256",
              "name": "amountOutMinimum",
              "type": "uint256"
            }
          ],
          "internalType": "struct IExchange.SwapParams",
          "name": "_swapParams",
          "type": "tuple"
        }
      ],
      "name": "swap",
      "outputs": [
        {
          "internalType": "uint256",
          "name": "amountOut",
          "type": "uint256"
        }
      ],
      "stateMutability": "nonpayable",
      "type": "function"
    },
    {
      "inputs": [],
      "name": "totalBorrowed",
      "outputs": [
        {
          "internalType": "uint256",
          "name": "",
          "type": "uint256"
        }
      ],
      "stateMutability": "view",
      "type": "function"
    },
    {
      "inputs": [],
      "name": "totalInternalLev",
      "outputs": [
        {
          "internalType": "uint256",
          "name": "",
          "type": "uint256"
        }
      ],
      "stateMutability": "view",
      "type": "function"
    },
    {
      "inputs": [],
      "name": "totalMarginInMarkets",
      "outputs": [
        {
          "internalType": "int256",
          "name": "",
          "type": "int256"
        }
      ],
      "stateMutability": "view",
      "type": "function"
    },
    {
      "inputs": [
        {
          "internalType": "address",
          "name": "token",
          "type": "address"
        },
        {
          "internalType": "address",
          "name": "to",
          "type": "address"
        },
        {
          "internalType": "uint256",
          "name": "amount",
          "type": "uint256"
        }
      ],
      "name": "transferTokens",
      "outputs": [],
      "stateMutability": "nonpayable",
      "type": "function"
    },
    {
      "inputs": [
        {
          "internalType": "uint256",
          "name": "_totalBorrowedAmount",
          "type": "uint256"
        },
        {
          "internalType": "uint256",
          "name": "_cumulativeIndexAtOpen",
          "type": "uint256"
        }
      ],
      "name": "updateBorrowData",
      "outputs": [],
      "stateMutability": "nonpayable",
      "type": "function"
    },
    {
      "inputs": [
        {
          "internalType": "int256",
          "name": "fee",
          "type": "int256"
        }
      ],
      "name": "updateFee",
      "outputs": [],
      "stateMutability": "nonpayable",
      "type": "function"
    },
    {
      "inputs": [
        {
          "internalType": "address",
          "name": "market",
          "type": "address"
        },
        {
          "internalType": "int256",
          "name": "transferredMargin",
          "type": "int256"
        }
      ],
      "name": "updateMarginInMarket",
      "outputs": [],
      "stateMutability": "nonpayable",
      "type": "function"
    },
    {
      "inputs": [
        {
          "internalType": "bytes32",
          "name": "market",
          "type": "bytes32"
        },
        {
          "internalType": "int256",
          "name": "size",
          "type": "int256"
        }
      ],
      "name": "updatePosition",
      "outputs": [],
      "stateMutability": "nonpayable",
      "type": "function"
    },
    {
      "inputs": [
        {
          "internalType": "int256",
          "name": "_realizedPnL",
          "type": "int256"
        }
      ],
      "name": "updateUnsettledRealizedPnL",
      "outputs": [],
      "stateMutability": "nonpayable",
      "type": "function"
    }
  ],
  "bytecode": {
    "object": "0x608060405234801561001057600080fd5b5060405161182738038061182783398101604081905261002f916100b9565b806001600160a01b03811661008a5760405162461bcd60e51b815260206004820152601560248201527f4d413a42616420526f7574657220616464726573730000000000000000000000604482015260640160405180910390fd5b600180546001600160a01b039092166001600160a01b03199283161790556004805490911633179055506100e9565b6000602082840312156100cb57600080fd5b81516001600160a01b03811681146100e257600080fd5b9392505050565b61172f806100f86000396000f3fe608060405234801561001057600080fd5b50600436106101da5760003560e01c8063643090bc11610104578063c0cb2d25116100a2578063e5e8ea7511610071578063e5e8ea7514610485578063eda11ef014610498578063f887ea40146104cb578063fac5e981146104de57600080fd5b8063c0cb2d2514610430578063c52cee7a14610450578063ca96a6a714610459578063db386b8d1461046257600080fd5b8063a64b6e5f116100de578063a64b6e5f146103ee578063abf410e514610401578063aeccd4b914610414578063b1f1150c1461041d57600080fd5b8063643090bc146103c05780637d1c484d146103c957806390b2f8f5146103db57600080fd5b8063272c4a111161017c5780634c89b68d1161014b5780634c89b68d146102d4578063514ea4bf14610322578063597810341461038d57806359cbbf49146103a057600080fd5b8063272c4a111461027b578063318a96a71461028e578063481cecaa146102a15780634c19386c146102cc57600080fd5b80631928b3cb116101b85780631928b3cb146102295780631d9fd3091461024c5780631fb3b7ac1461025f578063220b6dec1461026857600080fd5b80630797ceec146101df5780630952886a146101fa57806317d11a151461020d575b600080fd5b6101f86101ed366004611021565b600791909155600855565b005b6101f861020836600461105b565b6104f1565b61021660085481565b6040519081526020015b60405180910390f35b610216610237366004611087565b60009081526003602052604090206002015490565b61021661025a36600461110b565b6105cd565b61021660055481565b6102166102763660046111a4565b610639565b6101f861028936600461124b565b6109ee565b6101f861029c366004611284565b610a67565b6004546102b4906001600160a01b031681565b6040516001600160a01b039091168152602001610220565b600754610216565b6101f86102e2366004611087565b6000908152600260208181526040808420805460ff19169055600391829052832080546001600160a01b0319168155600181018490559182018390550155565b610363610330366004611087565b600360208190526000918252604090912080546001820154600283015492909301546001600160a01b0390911692919084565b604080516001600160a01b0390951685526020850193909352918301526060820152608001610220565b6101f861039b366004611310565b610ae8565b6103b36103ae3660046113c1565b610afd565b604051610220919061151e565b61021660095481565b6101f86103d7366004611021565b5050565b6102166103e936600461110b565b610b94565b6101f86103fc366004611310565b610bf9565b6000546102b4906001600160a01b031681565b61021660065481565b6101f861042b366004611087565b610c0d565b61021661043e366004611531565b600a6020526000908152604090205481565b61021660075481565b610216600b5481565b610216610470366004611087565b60009081526003602052604090206001015490565b6101f8610493366004611087565b610c20565b6104bb6104a6366004611087565b60026020526000908152604090205460ff1681565b6040519015158152602001610220565b6001546102b4906001600160a01b031681565b6103b36104ec36600461154e565b610c3a565b6001600160a01b0382166000908152600a60205260408120546105149083610c5b565b1361057a5760405162461bcd60e51b815260206004820152602b60248201527f4d413a2043616e6e6f742068617665206e65676174697665206d617267696e2060448201526a125b881c1c9bdd1bd8dbdb60aa1b60648201526084015b60405180910390fd5b600b546105879082610c5b565b600b556001600160a01b0382166000908152600a60205260409020546105ad9082610c5b565b6001600160a01b039092166000908152600a602052604090209190915550565b8051600090815b818110156106325761061e610617600360008785815181106105f8576105f861159e565b6020026020010151815260200190815260200160002060010154610c67565b8490610c7e565b92508061062a816115ca565b9150506105d4565b5050919050565b80516000906001600160a01b03166106875760405162461bcd60e51b815260206004820152601160248201527026a09d102a37b5b2b724b71032b93937b960791b6044820152606401610571565b60208201516001600160a01b03166106d65760405162461bcd60e51b815260206004820152601260248201527126a09d103a37b5b2b727baba1032b93937b960711b6044820152606401610571565b8160800151156107af57600082604001511161072b5760405162461bcd60e51b815260206004820152601460248201527326a09d1024b73b30b634b21030b6b7bab73a24b760611b6044820152606401610571565b8151600154604080850151905163095ea7b360e01b81526001600160a01b039283166004820152602481019190915291169063095ea7b3906044016020604051808303816000875af1158015610785573d6000803e3d6000fd5b505050506040513d601f19601f820116820180604052508101906107a991906115e3565b5061088d565b600082606001511161080d5760405162461bcd60e51b815260206004820152602160248201527f4d413a20496e76616c6964205f73776170506172616d732e616d6f756e744f756044820152601d60fa1b6064820152608401610571565b8151600154606084015160405163095ea7b360e01b81526001600160a01b039283166004820152602481019190915291169063095ea7b3906044016020604051808303816000875af1158015610867573d6000803e3d6000fd5b505050506040513d601f19601f8201168201806040525081019061088b91906115e3565b505b6064600183608001511561096a57604080516101008101825285516001600160a01b03908116825260208088015182169083015262ffffff8516828401523060608301524260808301528683015160a08084019190915260c08089015190840152870151811660e0830152600154925163414bf38960e01b81529192169063414bf3899061091f908490600401611600565b6020604051808303816000875af115801561093e573d6000803e3d6000fd5b505050506040513d601f19601f82011682018060405250810190610962919061166a565b935050610632565b604080516101008101825285516001600160a01b03908116825260208088015182169083015262ffffff8516828401523060608084019190915242608084015287015160a080840191909152600060c0840152870151811660e08301526001549251631b67c43360e31b81529192169063db3e21989061091f908490600401611600565b60405163095ea7b360e01b81526001600160a01b038281166004830152600019602483015283169063095ea7b3906044016020604051808303816000875af1158015610a3e573d6000803e3d6000fd5b505050506040513d601f19601f82011682018060405250810190610a6291906115e3565b505050565b6000828152600360208181526040808420855181546001600160a01b0319166001600160a01b039091161781558583015160018083019190915586830151600280840191909155606088018051939096019290925592528320805460ff19169091179055516009805491929091610adf908490611683565b90915550505050565b610a626001600160a01b038316843084610c8a565b60606000610b0a84610cfb565b905060005b8160ff168160ff161015610b8a57610b76848260ff1681518110610b3557610b3561159e565b602002602001015187878460ff16818110610b5257610b5261159e565b9050602002016020810190610b679190611531565b6001600160a01b031690610d5c565b925080610b82816116ab565b915050610b0f565b50505b9392505050565b8051600090815b8181101561063257610be560036000868481518110610bbc57610bbc61159e565b602002602001015181526020019081526020016000206001015484610c5b90919063ffffffff16565b925080610bf1816115ca565b915050610b9b565b610a626001600160a01b0384168383610d9e565b600954610c1a9082610c5b565b60095550565b80600c6000828254610c329190611683565b909155505050565b60606000610c516001600160a01b03851684610d5c565b9150505b92915050565b6000610b8d8284611683565b600080821215610c7a5781600003610c55565b5090565b6000610b8d82846116ca565b6040516001600160a01b0380851660248301528316604482015260648101829052610cf59085906323b872dd60e01b906084015b60408051601f198184030181529190526020810180516001600160e01b03166001600160e01b031990931692909217909152610dce565b50505050565b600060ff821115610c7a5760405162461bcd60e51b815260206004820152602560248201527f53616665436173743a2076616c756520646f65736e27742066697420696e2038604482015264206269747360d81b6064820152608401610571565b6060610b8d83836040518060400160405280601e81526020017f416464726573733a206c6f772d6c6576656c2063616c6c206661696c65640000815250610ea0565b6040516001600160a01b038316602482015260448101829052610a6290849063a9059cbb60e01b90606401610cbe565b6000610e23826040518060400160405280602081526020017f5361666545524332303a206c6f772d6c6576656c2063616c6c206661696c6564815250856001600160a01b0316610ea09092919063ffffffff16565b805190915015610a625780806020019051810190610e4191906115e3565b610a625760405162461bcd60e51b815260206004820152602a60248201527f5361666545524332303a204552433230206f7065726174696f6e20646964206e6044820152691bdd081cdd58d8d9595960b21b6064820152608401610571565b6060610eaf8484600085610eb7565b949350505050565b606082471015610f185760405162461bcd60e51b815260206004820152602660248201527f416464726573733a20696e73756666696369656e742062616c616e636520666f6044820152651c8818d85b1b60d21b6064820152608401610571565b6001600160a01b0385163b610f6f5760405162461bcd60e51b815260206004820152601d60248201527f416464726573733a2063616c6c20746f206e6f6e2d636f6e74726163740000006044820152606401610571565b600080866001600160a01b03168587604051610f8b91906116dd565b60006040518083038185875af1925050503d8060008114610fc8576040519150601f19603f3d011682016040523d82523d6000602084013e610fcd565b606091505b5091509150610fdd828286610fe8565b979650505050505050565b60608315610ff7575081610b8d565b8251156110075782518084602001fd5b8160405162461bcd60e51b8152600401610571919061151e565b6000806040838503121561103457600080fd5b50508035926020909101359150565b6001600160a01b038116811461105857600080fd5b50565b6000806040838503121561106e57600080fd5b823561107981611043565b946020939093013593505050565b60006020828403121561109957600080fd5b5035919050565b634e487b7160e01b600052604160045260246000fd5b604051601f8201601f1916810167ffffffffffffffff811182821017156110df576110df6110a0565b604052919050565b600067ffffffffffffffff821115611101576111016110a0565b5060051b60200190565b6000602080838503121561111e57600080fd5b823567ffffffffffffffff81111561113557600080fd5b8301601f8101851361114657600080fd5b8035611159611154826110e7565b6110b6565b81815260059190911b8201830190838101908783111561117857600080fd5b928401925b82841015610fdd5783358252928401929084019061117d565b801515811461105857600080fd5b600060e082840312156111b657600080fd5b60405160e0810181811067ffffffffffffffff821117156111d9576111d96110a0565b60405282356111e781611043565b815260208301356111f781611043565b806020830152506040830135604082015260608301356060820152608083013561122081611196565b608082015260a083013561123381611043565b60a082015260c0928301359281019290925250919050565b6000806040838503121561125e57600080fd5b823561126981611043565b9150602083013561127981611043565b809150509250929050565b60008082840360a081121561129857600080fd5b833592506080601f19820112156112ae57600080fd5b506040516080810181811067ffffffffffffffff821117156112d2576112d26110a0565b60405260208401356112e381611043565b80825250604084013560208201526060840135604082015260808401356060820152809150509250929050565b60008060006060848603121561132557600080fd5b833561133081611043565b9250602084013561134081611043565b929592945050506040919091013590565b600082601f83011261136257600080fd5b813567ffffffffffffffff81111561137c5761137c6110a0565b61138f601f8201601f19166020016110b6565b8181528460208386010111156113a457600080fd5b816020850160208301376000918101602001919091529392505050565b6000806000604084860312156113d657600080fd5b833567ffffffffffffffff808211156113ee57600080fd5b818601915086601f83011261140257600080fd5b81358181111561141157600080fd5b602088818360051b860101111561142757600080fd5b80840196508195508088013593508284111561144257600080fd5b838801935088601f85011261145657600080fd5b83359150611466611154836110e7565b82815260059290921b8401810191818101908a84111561148557600080fd5b8286015b848110156114bd578035868111156114a15760008081fd5b6114af8d86838b0101611351565b845250918301918301611489565b508096505050505050509250925092565b60005b838110156114e95781810151838201526020016114d1565b50506000910152565b6000815180845261150a8160208601602086016114ce565b601f01601f19169290920160200192915050565b602081526000610b8d60208301846114f2565b60006020828403121561154357600080fd5b8135610b8d81611043565b6000806040838503121561156157600080fd5b823561156c81611043565b9150602083013567ffffffffffffffff81111561158857600080fd5b61159485828601611351565b9150509250929050565b634e487b7160e01b600052603260045260246000fd5b634e487b7160e01b600052601160045260246000fd5b6000600182016115dc576115dc6115b4565b5060010190565b6000602082840312156115f557600080fd5b8151610b8d81611196565b6101008101610c55828480516001600160a01b03908116835260208083015182169084015260408083015162ffffff16908401526060808301518216908401526080808301519084015260a0828101519084015260c0808301519084015260e09182015116910152565b60006020828403121561167c57600080fd5b5051919050565b80820182811260008312801582168215821617156116a3576116a36115b4565b505092915050565b600060ff821660ff81036116c1576116c16115b4565b60010192915050565b80820180821115610c5557610c556115b4565b600082516116ef8184602087016114ce565b919091019291505056fea2646970667358221220e5000ad43c1ecd0ee20ea2058f7e964405101a903bcb6544d8d906f0a50f836b64736f6c63430008110033",
    "linkReferences": {}
  },
  "methodIdentifiers": {
    "_totalBorrowed()": "c52cee7a",
    "addCollateral(address,address,uint256)": "59781034",
    "addPosition(bytes32,(address,int256,int256,uint256))": "318a96a7",
    "approveToProtocol(address,address)": "272c4a11",
    "contractRegistry()": "abf410e5",
    "cumulativeIndexAtOpen()": "17d11a15",
    "cumulative_RAY()": "aeccd4b9",
    "execMultiTx(address[],bytes[])": "59cbbf49",
    "executeTx(address,bytes)": "fac5e981",
    "existingPosition(bytes32)": "eda11ef0",
    "getPosition(bytes32)": "1928b3cb",
    "getPositionOpenNotional(bytes32)": "db386b8d",
    "getTotalOpeningAbsoluteNotional(bytes32[])": "1d9fd309",
    "getTotalOpeningNotional(bytes32[])": "90b2f8f5",
    "marginInMarket(address)": "c0cb2d25",
    "marginManager()": "481cecaa",
    "pendingFee()": "643090bc",
    "positions(bytes32)": "514ea4bf",
    "removePosition(bytes32)": "4c89b68d",
    "router()": "f887ea40",
    "swap((address,address,uint256,uint256,bool,uint160,uint256))": "220b6dec",
    "totalBorrowed()": "4c19386c",
    "totalInternalLev()": "1fb3b7ac",
    "totalMarginInMarkets()": "ca96a6a7",
    "transferTokens(address,address,uint256)": "a64b6e5f",
    "updateBorrowData(uint256,uint256)": "0797ceec",
    "updateFee(int256)": "b1f1150c",
    "updateMarginInMarket(address,int256)": "0952886a",
    "updatePosition(bytes32,int256)": "7d1c484d",
    "updateUnsettledRealizedPnL(int256)": "e5e8ea75"
  },
  "id": 27
}