{
  "abi": [
    {
      "inputs": [
        {
          "internalType": "address",
          "name": "_baseToken",
          "type": "address"
        },
        {
          "internalType": "address",
          "name": "_contractRegistry",
          "type": "address"
        },
        {
          "internalType": "address",
          "name": "_accountBalance",
          "type": "address"
        },
        {
          "internalType": "address",
          "name": "_marketRegistry",
          "type": "address"
        },
        {
          "internalType": "address",
          "name": "_clearingHouse",
          "type": "address"
        }
      ],
      "stateMutability": "nonpayable",
      "type": "constructor"
    },
    {
      "inputs": [],
      "name": "AP",
      "outputs": [
        {
          "internalType": "bytes4",
          "name": "",
          "type": "bytes4"
        }
      ],
      "stateMutability": "view",
      "type": "function"
    },
    {
      "inputs": [],
      "name": "CP",
      "outputs": [
        {
          "internalType": "bytes4",
          "name": "",
          "type": "bytes4"
        }
      ],
      "stateMutability": "view",
      "type": "function"
    },
    {
      "inputs": [],
      "name": "MT",
      "outputs": [
        {
          "internalType": "bytes4",
          "name": "",
          "type": "bytes4"
        }
      ],
      "stateMutability": "view",
      "type": "function"
    },
    {
      "inputs": [],
      "name": "OpenPosition",
      "outputs": [
        {
          "internalType": "bytes4",
          "name": "",
          "type": "bytes4"
        }
      ],
      "stateMutability": "view",
      "type": "function"
    },
    {
      "inputs": [],
      "name": "baseToken",
      "outputs": [
        {
          "internalType": "address",
          "name": "",
          "type": "address"
        }
      ],
      "stateMutability": "view",
      "type": "function"
    },
    {
      "inputs": [],
      "name": "clearingHouse",
      "outputs": [
        {
          "internalType": "contract IClearingHouse",
          "name": "",
          "type": "address"
        }
      ],
      "stateMutability": "view",
      "type": "function"
    },
    {
      "inputs": [],
      "name": "getBaseToken",
      "outputs": [
        {
          "internalType": "address",
          "name": "",
          "type": "address"
        }
      ],
      "stateMutability": "view",
      "type": "function"
    },
    {
      "inputs": [
        {
          "internalType": "address",
          "name": "_baseToken",
          "type": "address"
        }
      ],
      "name": "getFees",
      "outputs": [
        {
          "internalType": "uint256",
          "name": "",
          "type": "uint256"
        }
      ],
      "stateMutability": "view",
      "type": "function"
    },
    {
      "inputs": [
        {
          "internalType": "address",
          "name": "account",
          "type": "address"
        }
      ],
      "name": "getPositionPnL",
      "outputs": [
        {
          "internalType": "int256",
          "name": "pnl",
          "type": "int256"
        }
      ],
      "stateMutability": "nonpayable",
      "type": "function"
    },
    {
      "inputs": [
        {
          "internalType": "address",
          "name": "marginAccount",
          "type": "address"
        }
      ],
      "name": "getRealizedPnL",
      "outputs": [
        {
          "internalType": "int256",
          "name": "",
          "type": "int256"
        }
      ],
      "stateMutability": "view",
      "type": "function"
    },
    {
      "inputs": [
        {
          "internalType": "address",
          "name": "marginAccount",
          "type": "address"
        }
      ],
      "name": "getUnrealizedPnL",
      "outputs": [
        {
          "internalType": "int256",
          "name": "unrealizedPnL",
          "type": "int256"
        }
      ],
      "stateMutability": "view",
      "type": "function"
    },
    {
      "inputs": [
        {
          "internalType": "address",
          "name": "marginAccount",
          "type": "address"
        }
      ],
      "name": "getUnsettledAccounting",
      "outputs": [],
      "stateMutability": "nonpayable",
      "type": "function"
    },
    {
      "inputs": [],
      "name": "marketRegistry",
      "outputs": [
        {
          "internalType": "contract IMarketRegistry",
          "name": "",
          "type": "address"
        }
      ],
      "stateMutability": "view",
      "type": "function"
    },
    {
      "inputs": [
        {
          "internalType": "bytes",
          "name": "data",
          "type": "bytes"
        }
      ],
      "name": "previewPosition",
      "outputs": [],
      "stateMutability": "nonpayable",
      "type": "function"
    },
    {
      "inputs": [
        {
          "internalType": "address",
          "name": "account",
          "type": "address"
        }
      ],
      "name": "settleFeeForMarket",
      "outputs": [
        {
          "internalType": "int256",
          "name": "",
          "type": "int256"
        }
      ],
      "stateMutability": "nonpayable",
      "type": "function"
    },
    {
      "inputs": [],
      "name": "settleFeeSelector",
      "outputs": [
        {
          "internalType": "bytes4",
          "name": "",
          "type": "bytes4"
        }
      ],
      "stateMutability": "view",
      "type": "function"
    },
    {
      "inputs": [
        {
          "internalType": "address",
          "name": "marginAccount",
          "type": "address"
        }
      ],
      "name": "settleRealizedAccounting",
      "outputs": [],
      "stateMutability": "nonpayable",
      "type": "function"
    },
    {
      "inputs": [
        {
          "internalType": "address",
          "name": "contractAddress",
          "type": "address"
        },
        {
          "internalType": "bool",
          "name": "isAllowed",
          "type": "bool"
        }
      ],
      "name": "toggleAddressWhitelisting",
      "outputs": [],
      "stateMutability": "nonpayable",
      "type": "function"
    },
    {
      "inputs": [
        {
          "internalType": "address",
          "name": "protocol",
          "type": "address"
        },
        {
          "internalType": "address[]",
          "name": "destinations",
          "type": "address[]"
        },
        {
          "internalType": "bytes[]",
          "name": "data",
          "type": "bytes[]"
        }
      ],
      "name": "verifyClose",
      "outputs": [
        {
          "internalType": "int256",
          "name": "amount",
          "type": "int256"
        },
        {
          "internalType": "int256",
          "name": "totalPosition",
          "type": "int256"
        },
        {
          "internalType": "uint256",
          "name": "fee",
          "type": "uint256"
        }
      ],
      "stateMutability": "view",
      "type": "function"
    },
    {
      "inputs": [
        {
          "internalType": "address",
          "name": "protocol",
          "type": "address"
        },
        {
          "internalType": "address[]",
          "name": "destinations",
          "type": "address[]"
        },
        {
          "internalType": "bytes[]",
          "name": "data",
          "type": "bytes[]"
        }
      ],
      "name": "verifyTrade",
      "outputs": [
        {
          "internalType": "int256",
          "name": "marginDelta",
          "type": "int256"
        },
        {
          "components": [
            {
              "internalType": "address",
              "name": "protocol",
              "type": "address"
            },
            {
              "internalType": "int256",
              "name": "openNotional",
              "type": "int256"
            },
            {
              "internalType": "int256",
              "name": "size",
              "type": "int256"
            },
            {
              "internalType": "uint256",
              "name": "orderFee",
              "type": "uint256"
            }
          ],
          "internalType": "struct Position",
          "name": "position",
          "type": "tuple"
        }
      ],
      "stateMutability": "view",
      "type": "function"
    }
  ],
  "bytecode": {
    "object": "0x608060405263095ea7b360e01b6000806101000a81548163ffffffff021916908360e01c02179055506347e7ef2460e01b600060046101000a81548163ffffffff021916908360e01c021790555063b6b1b6c360e01b600060086101000a81548163ffffffff021916908360e01c0217905550632f86e2dd60e01b6000600c6101000a81548163ffffffff021916908360e01c021790555063eb9b912e60e01b600160146101000a81548163ffffffff021916908360e01c0217905550348015620000c957600080fd5b5060405162002b7738038062002b778339818101604052810190620000ef9190620002a9565b83600260006101000a81548173ffffffffffffffffffffffffffffffffffffffff021916908373ffffffffffffffffffffffffffffffffffffffff16021790555084600160006101000a81548173ffffffffffffffffffffffffffffffffffffffff021916908373ffffffffffffffffffffffffffffffffffffffff16021790555082600360006101000a81548173ffffffffffffffffffffffffffffffffffffffff021916908373ffffffffffffffffffffffffffffffffffffffff16021790555081600460006101000a81548173ffffffffffffffffffffffffffffffffffffffff021916908373ffffffffffffffffffffffffffffffffffffffff16021790555080600560006101000a81548173ffffffffffffffffffffffffffffffffffffffff021916908373ffffffffffffffffffffffffffffffffffffffff160217905550505050505062000331565b600080fd5b600073ffffffffffffffffffffffffffffffffffffffff82169050919050565b6000620002718262000244565b9050919050565b620002838162000264565b81146200028f57600080fd5b50565b600081519050620002a38162000278565b92915050565b600080600080600060a08688031215620002c857620002c76200023f565b5b6000620002d88882890162000292565b9550506020620002eb8882890162000292565b9450506040620002fe8882890162000292565b9350506060620003118882890162000292565b9250506080620003248882890162000292565b9150509295509295909350565b61283680620003416000396000f3fe608060405234801561001057600080fd5b506004361061012c5760003560e01c806370bf8098116100ad578063a773deb911610071578063a773deb91461034a578063bb4a976f1461037a578063c55dae6314610396578063e91fad7f146103b4578063ecb96fe6146103e45761012c565b806370bf8098146102a65780637ab5b15e146102c45780639418b955146102e057806398acd7a6146102fc5780639af608c91461031a5761012c565b80634a1f11a7116100f45780634a1f11a7146101d957806350989a57146101f75780635104efaa14610227578063544305bf146102585780636c3172a5146102885761012c565b80630af9680014610131578063130676f61461014f57806324d2343a1461018157806331755cdd1461019d5780634813c5bf146101bb575b600080fd5b610139610402565b604051610146919061162e565b60405180910390f35b6101696004803603810190610164919061184f565b610428565b60405161017893929190611911565b60405180910390f35b61019b60048036038101906101969190611948565b610669565b005b6101a561066c565b6040516101b291906119b0565b60405180910390f35b6101c361067f565b6040516101d091906119b0565b60405180910390f35b6101e1610692565b6040516101ee91906119b0565b60405180910390f35b610211600480360381019061020c9190611948565b6106a5565b60405161021e91906119cb565b60405180910390f35b610241600480360381019061023c919061184f565b610a36565b60405161024f929190611a68565b60405180910390f35b610272600480360381019061026d9190611948565b610e24565b60405161027f91906119cb565b60405180910390f35b610290610e2b565b60405161029d91906119b0565b60405180910390f35b6102ae610e3e565b6040516102bb91906119b0565b60405180910390f35b6102de60048036038101906102d99190611b46565b610e4f565b005b6102fa60048036038101906102f59190611bc7565b610e52565b005b610304610ee6565b6040516103119190611c16565b60405180910390f35b610334600480360381019061032f9190611948565b610f10565b6040516103419190611c31565b60405180910390f35b610364600480360381019061035f9190611948565b610fba565b60405161037191906119cb565b60405180910390f35b610394600480360381019061038f9190611948565b61109f565b005b61039e6110a2565b6040516103ab9190611c16565b60405180910390f35b6103ce60048036038101906103c99190611948565b6110c8565b6040516103db91906119cb565b60405180910390f35b6103ec6110cf565b6040516103f99190611c6d565b60405180910390f35b600560009054906101000a900473ffffffffffffffffffffffffffffffffffffffff1681565b60008060008061043a868690506110f5565b9050600191508060ff1661044e88516110f5565b60ff1614610491576040517f08c379a000000000000000000000000000000000000000000000000000000000815260040161048890611ce5565b60405180910390fd5b60005b8160ff168160ff16101561065d57600087878360ff168181106104ba576104b9611d05565b5b90506020028101906104cc9190611d43565b906104d79190611dbe565b905060008054906101000a900460e01b7bffffffffffffffffffffffffffffffffffffffffffffffffffffffff1916817bffffffffffffffffffffffffffffffffffffffffffffffffffffffff19160315610649576000600c9054906101000a900460e01b7bffffffffffffffffffffffffffffffffffffffffffffffffffffffff1916817bffffffffffffffffffffffffffffffffffffffffffffffffffffffff19160361060d5760008060008060008c8c8860ff1681811061059e5761059d611d05565b5b90506020028101906105b09190611d43565b60049080926105c193929190611e27565b8101906105ce9190611f2e565b50509550509450945094509450836105ee576105e982611145565b610601565b6105f782611145565b61060090612013565b5b99505050505050610648565b6040517f08c379a000000000000000000000000000000000000000000000000000000000815260040161063f906120a7565b60405180910390fd5b5b508080610655906120d4565b915050610494565b50509450945094915050565b50565b600160149054906101000a900460e01b81565b600060089054906101000a900460e01b81565b600060049054906101000a900460e01b81565b600080600080600360009054906101000a900473ffffffffffffffffffffffffffffffffffffffff1673ffffffffffffffffffffffffffffffffffffffff1663bba85bcf866040518263ffffffff1660e01b81526004016107069190611c16565b606060405180830381865afa158015610723573d6000803e3d6000fd5b505050506040513d601f19601f82011682018060405250810190610747919061213e565b8093508194508295505050506107a46040518060400160405280600381526020017f4d4d3a0000000000000000000000000000000000000000000000000000000000815250610795856111b2565b61079e856111b2565b846111ce565b6000600160149054906101000a900460e01b866040516024016107c79190611c16565b604051602081830303815290604052907bffffffffffffffffffffffffffffffffffffffffffffffffffffffff19166020820180517bffffffffffffffffffffffffffffffffffffffffffffffffffffffff838183161783525050505090506108896040518060400160405280601581526020017f72657475726e206875612070657270206d652073650000000000000000000000815250600560009054906101000a900473ffffffffffffffffffffffffffffffffffffffff168351611270565b8573ffffffffffffffffffffffffffffffffffffffff1663272c4a11600160009054906101000a900473ffffffffffffffffffffffffffffffffffffffff16600560009054906101000a900473ffffffffffffffffffffffffffffffffffffffff166040518363ffffffff1660e01b8152600401610908929190612191565b600060405180830381600087803b15801561092257600080fd5b505af1158015610936573d6000803e3d6000fd5b505050506109786040518060400160405280600d81526020017f617070726f766520646f6e653a0000000000000000000000000000000000000081525061130f565b8573ffffffffffffffffffffffffffffffffffffffff1663fac5e981600560009054906101000a900473ffffffffffffffffffffffffffffffffffffffff16836040518363ffffffff1660e01b81526004016109d5929190612239565b6000604051808303816000875af11580156109f4573d6000803e3d6000fd5b505050506040513d6000823e3d601f19601f82011682018060405250810190610a1d91906122d9565b9050610a2981516113a8565b6000945050505050919050565b6000610a40611571565b600084849050905080865114610a8b576040517f08c379a0000000000000000000000000000000000000000000000000000000008152600401610a8290611ce5565b60405180910390fd5b60005b81811015610e19576000868683818110610aab57610aaa611d05565b5b9050602002810190610abd9190611d43565b90610ac89190611dbe565b905060008054906101000a900460e01b7bffffffffffffffffffffffffffffffffffffffffffffffffffffffff1916817bffffffffffffffffffffffffffffffffffffffffffffffffffffffff19160315610e0557600060049054906101000a900460e01b7bffffffffffffffffffffffffffffffffffffffffffffffffffffffff1916817bffffffffffffffffffffffffffffffffffffffffffffffffffffffff191603610bc657868683818110610b8457610b83611d05565b5b9050602002810190610b969190611d43565b6024908092610ba793929190611e27565b810190610bb49190612337565b85610bbf9190612364565b9450610e04565b600060089054906101000a900460e01b7bffffffffffffffffffffffffffffffffffffffffffffffffffffffff1916817bffffffffffffffffffffffffffffffffffffffffffffffffffffffff191603610dc85760008060008060008b8b88818110610c3557610c34611d05565b5b9050602002810190610c479190611d43565b6004908092610c5893929190611e27565b810190610c6591906123a8565b505095505094509450945094506000600460009054906101000a900473ffffffffffffffffffffffffffffffffffffffff1673ffffffffffffffffffffffffffffffffffffffff1663edd0b5cb876040518263ffffffff1660e01b8152600401610ccf9190611c16565b602060405180830381865afa158015610cec573d6000803e3d6000fd5b505050506040513d601f19601f82011682018060405250810190610d109190612499565b62ffffff169050610d3b81620186a0610d2c8d602001516111b2565b6114419092919063ffffffff16565b8a6060018181525050848015610d4e5750835b610dbd57848015610d5d575083155b610dbc5784158015610d6c5750835b610dbb57848015610d7b575083155b610dba576040517f08c379a0000000000000000000000000000000000000000000000000000000008152600401610db190612512565b60405180910390fd5b5b5b5b505050505050610e03565b6040517f08c379a0000000000000000000000000000000000000000000000000000000008152600401610dfa906120a7565b60405180910390fd5b5b5b508080610e1190612532565b915050610a8e565b505094509492505050565b6000919050565b6000600c9054906101000a900460e01b81565b60008054906101000a900460e01b81565b50565b600073ffffffffffffffffffffffffffffffffffffffff168273ffffffffffffffffffffffffffffffffffffffff1603610e8b57600080fd5b80600660008473ffffffffffffffffffffffffffffffffffffffff1673ffffffffffffffffffffffffffffffffffffffff16815260200190815260200160002060006101000a81548160ff0219169083151502179055505050565b6000600160009054906101000a900473ffffffffffffffffffffffffffffffffffffffff16905090565b6000600460009054906101000a900473ffffffffffffffffffffffffffffffffffffffff1673ffffffffffffffffffffffffffffffffffffffff1663edd0b5cb836040518263ffffffff1660e01b8152600401610f6d9190611c16565b602060405180830381865afa158015610f8a573d6000803e3d6000fd5b505050506040513d601f19601f82011682018060405250810190610fae9190612499565b62ffffff169050919050565b600080600080600360009054906101000a900473ffffffffffffffffffffffffffffffffffffffff1673ffffffffffffffffffffffffffffffffffffffff1663bba85bcf866040518263ffffffff1660e01b815260040161101b9190611c16565b606060405180830381865afa158015611038573d6000803e3d6000fd5b505050506040513d601f19601f8201168201806040525081019061105c919061213e565b80935081945082955050505061109561107482611145565b611087858561151c90919063ffffffff16565b61153290919063ffffffff16565b9350505050919050565b50565b600160009054906101000a900473ffffffffffffffffffffffffffffffffffffffff1681565b6000919050565b600460009054906101000a900473ffffffffffffffffffffffffffffffffffffffff1681565b600060ff801682111561113d576040517f08c379a0000000000000000000000000000000000000000000000000000000008152600401611134906125ec565b60405180910390fd5b819050919050565b60007f7fffffffffffffffffffffffffffffffffffffffffffffffffffffffffffffff8211156111aa576040517f08c379a00000000000000000000000000000000000000000000000000000000081526004016111a19061267e565b60405180910390fd5b819050919050565b6000808212156111c557816000036111c7565b815b9050919050565b61126a848484846040516024016111e894939291906126e2565b6040516020818303038152906040527fa7a87853000000000000000000000000000000000000000000000000000000007bffffffffffffffffffffffffffffffffffffffffffffffffffffffff19166020820180517bffffffffffffffffffffffffffffffffffffffffffffffffffffffff8381831617835250505050611548565b50505050565b61130a8383836040516024016112889392919061272e565b6040516020818303038152906040527f0d26b925000000000000000000000000000000000000000000000000000000007bffffffffffffffffffffffffffffffffffffffffffffffffffffffff19166020820180517bffffffffffffffffffffffffffffffffffffffffffffffffffffffff8381831617835250505050611548565b505050565b6113a581604051602401611323919061276c565b6040516020818303038152906040527f41304fac000000000000000000000000000000000000000000000000000000007bffffffffffffffffffffffffffffffffffffffffffffffffffffffff19166020820180517bffffffffffffffffffffffffffffffffffffffffffffffffffffffff8381831617835250505050611548565b50565b61143e816040516024016113bc9190611c31565b6040516020818303038152906040527ff82c50f1000000000000000000000000000000000000000000000000000000007bffffffffffffffffffffffffffffffffffffffffffffffffffffffff19166020820180517bffffffffffffffffffffffffffffffffffffffffffffffffffffffff8381831617835250505050611548565b50565b600080600080198587098587029250828110838203039150506000810361147c578382816114725761147161278e565b5b0492505050611515565b80841161148857600080fd5b60008486880990508281118203915080830392506000600186190186169050808604955080840493506001818260000304019050808302841793506000600287600302189050808702600203810290508087026002038102905080870260020381029050808702600203810290508087026002038102905080870260020381029050808502955050505050505b9392505050565b6000818361152a9190612364565b905092915050565b6000818361154091906127bd565b905092915050565b60008151905060006a636f6e736f6c652e6c6f679050602083016000808483855afa5050505050565b6040518060800160405280600073ffffffffffffffffffffffffffffffffffffffff1681526020016000815260200160008152602001600081525090565b600073ffffffffffffffffffffffffffffffffffffffff82169050919050565b6000819050919050565b60006115f46115ef6115ea846115af565b6115cf565b6115af565b9050919050565b6000611606826115d9565b9050919050565b6000611618826115fb565b9050919050565b6116288161160d565b82525050565b6000602082019050611643600083018461161f565b92915050565b6000604051905090565b600080fd5b600080fd5b6000611668826115af565b9050919050565b6116788161165d565b811461168357600080fd5b50565b6000813590506116958161166f565b92915050565b600080fd5b6000601f19601f8301169050919050565b7f4e487b7100000000000000000000000000000000000000000000000000000000600052604160045260246000fd5b6116e9826116a0565b810181811067ffffffffffffffff82111715611708576117076116b1565b5b80604052505050565b600061171b611649565b905061172782826116e0565b919050565b600067ffffffffffffffff821115611747576117466116b1565b5b602082029050602081019050919050565b600080fd5b600061177061176b8461172c565b611711565b9050808382526020820190506020840283018581111561179357611792611758565b5b835b818110156117bc57806117a88882611686565b845260208401935050602081019050611795565b5050509392505050565b600082601f8301126117db576117da61169b565b5b81356117eb84826020860161175d565b91505092915050565b600080fd5b60008083601f84011261180f5761180e61169b565b5b8235905067ffffffffffffffff81111561182c5761182b6117f4565b5b60208301915083602082028301111561184857611847611758565b5b9250929050565b6000806000806060858703121561186957611868611653565b5b600061187787828801611686565b945050602085013567ffffffffffffffff81111561189857611897611658565b5b6118a4878288016117c6565b935050604085013567ffffffffffffffff8111156118c5576118c4611658565b5b6118d1878288016117f9565b925092505092959194509250565b6000819050919050565b6118f2816118df565b82525050565b6000819050919050565b61190b816118f8565b82525050565b600060608201905061192660008301866118e9565b61193360208301856118e9565b6119406040830184611902565b949350505050565b60006020828403121561195e5761195d611653565b5b600061196c84828501611686565b91505092915050565b60007fffffffff0000000000000000000000000000000000000000000000000000000082169050919050565b6119aa81611975565b82525050565b60006020820190506119c560008301846119a1565b92915050565b60006020820190506119e060008301846118e9565b92915050565b6119ef8161165d565b82525050565b6119fe816118df565b82525050565b611a0d816118f8565b82525050565b608082016000820151611a2960008501826119e6565b506020820151611a3c60208501826119f5565b506040820151611a4f60408501826119f5565b506060820151611a626060850182611a04565b50505050565b600060a082019050611a7d60008301856118e9565b611a8a6020830184611a13565b9392505050565b600080fd5b600067ffffffffffffffff821115611ab157611ab06116b1565b5b611aba826116a0565b9050602081019050919050565b82818337600083830152505050565b6000611ae9611ae484611a96565b611711565b905082815260208101848484011115611b0557611b04611a91565b5b611b10848285611ac7565b509392505050565b600082601f830112611b2d57611b2c61169b565b5b8135611b3d848260208601611ad6565b91505092915050565b600060208284031215611b5c57611b5b611653565b5b600082013567ffffffffffffffff811115611b7a57611b79611658565b5b611b8684828501611b18565b91505092915050565b60008115159050919050565b611ba481611b8f565b8114611baf57600080fd5b50565b600081359050611bc181611b9b565b92915050565b60008060408385031215611bde57611bdd611653565b5b6000611bec85828601611686565b9250506020611bfd85828601611bb2565b9150509250929050565b611c108161165d565b82525050565b6000602082019050611c2b6000830184611c07565b92915050565b6000602082019050611c466000830184611902565b92915050565b6000611c57826115fb565b9050919050565b611c6781611c4c565b82525050565b6000602082019050611c826000830184611c5e565b92915050565b600082825260208201905092915050565b7f73686f756c64206d617463680000000000000000000000000000000000000000600082015250565b6000611ccf600c83611c88565b9150611cda82611c99565b602082019050919050565b60006020820190508181036000830152611cfe81611cc2565b9050919050565b7f4e487b7100000000000000000000000000000000000000000000000000000000600052603260045260246000fd5b600080fd5b600080fd5b600080fd5b60008083356001602003843603038112611d6057611d5f611d34565b5b80840192508235915067ffffffffffffffff821115611d8257611d81611d39565b5b602083019250600182023603831315611d9e57611d9d611d3e565b5b509250929050565b600082905092915050565b600082821b905092915050565b6000611dca8383611da6565b82611dd58135611975565b92506004821015611e1557611e107fffffffff0000000000000000000000000000000000000000000000000000000083600403600802611db1565b831692505b505092915050565b600080fd5b600080fd5b60008085851115611e3b57611e3a611e1d565b5b83861115611e4c57611e4b611e22565b5b6001850283019150848603905094509492505050565b6000611e6d826115af565b9050919050565b611e7d81611e62565b8114611e8857600080fd5b50565b600081359050611e9a81611e74565b92915050565b611ea9816118f8565b8114611eb457600080fd5b50565b600081359050611ec681611ea0565b92915050565b611ed5816115af565b8114611ee057600080fd5b50565b600081359050611ef281611ecc565b92915050565b6000819050919050565b611f0b81611ef8565b8114611f1657600080fd5b50565b600081359050611f2881611f02565b92915050565b600080600080600080600080610100898b031215611f4f57611f4e611653565b5b6000611f5d8b828c01611e8b565b9850506020611f6e8b828c01611bb2565b9750506040611f7f8b828c01611bb2565b9650506060611f908b828c01611eb7565b9550506080611fa18b828c01611eb7565b94505060a0611fb28b828c01611eb7565b93505060c0611fc38b828c01611ee3565b92505060e0611fd48b828c01611f19565b9150509295985092959890939650565b7f4e487b7100000000000000000000000000000000000000000000000000000000600052601160045260246000fd5b600061201e826118df565b91507f800000000000000000000000000000000000000000000000000000000000000082036120505761204f611fe4565b5b816000039050919050565b7f50524d3a20556e737570706f727465642046756e6374696f6e2063616c6c0000600082015250565b6000612091601e83611c88565b915061209c8261205b565b602082019050919050565b600060208201905081810360008301526120c081612084565b9050919050565b600060ff82169050919050565b60006120df826120c7565b915060ff82036120f2576120f1611fe4565b5b600182019050919050565b612106816118df565b811461211157600080fd5b50565b600081519050612123816120fd565b92915050565b60008151905061213881611ea0565b92915050565b60008060006060848603121561215757612156611653565b5b600061216586828701612114565b935050602061217686828701612114565b925050604061218786828701612129565b9150509250925092565b60006040820190506121a66000830185611c07565b6121b36020830184611c07565b9392505050565b600081519050919050565b600082825260208201905092915050565b60005b838110156121f45780820151818401526020810190506121d9565b60008484015250505050565b600061220b826121ba565b61221581856121c5565b93506122258185602086016121d6565b61222e816116a0565b840191505092915050565b600060408201905061224e6000830185611c07565b81810360208301526122608184612200565b90509392505050565b600061227c61227784611a96565b611711565b90508281526020810184848401111561229857612297611a91565b5b6122a38482856121d6565b509392505050565b600082601f8301126122c0576122bf61169b565b5b81516122d0848260208601612269565b91505092915050565b6000602082840312156122ef576122ee611653565b5b600082015167ffffffffffffffff81111561230d5761230c611658565b5b612319848285016122ab565b91505092915050565b600081359050612331816120fd565b92915050565b60006020828403121561234d5761234c611653565b5b600061235b84828501612322565b91505092915050565b600061236f826118df565b915061237a836118df565b9250828201905082811215600083121683821260008412151617156123a2576123a1611fe4565b5b92915050565b600080600080600080600080610100898b0312156123c9576123c8611653565b5b60006123d78b828c01611e8b565b98505060206123e88b828c01611bb2565b97505060406123f98b828c01611bb2565b965050606061240a8b828c01612322565b955050608061241b8b828c01611eb7565b94505060a061242c8b828c01611eb7565b93505060c061243d8b828c01611ee3565b92505060e061244e8b828c01611f19565b9150509295985092959890939650565b600062ffffff82169050919050565b6124768161245e565b811461248157600080fd5b50565b6000815190506124938161246d565b92915050565b6000602082840312156124af576124ae611653565b5b60006124bd84828501612484565b91505092915050565b7f696d706f737369626c6520736869740000000000000000000000000000000000600082015250565b60006124fc600f83611c88565b9150612507826124c6565b602082019050919050565b6000602082019050818103600083015261252b816124ef565b9050919050565b600061253d826118f8565b91507fffffffffffffffffffffffffffffffffffffffffffffffffffffffffffffffff820361256f5761256e611fe4565b5b600182019050919050565b7f53616665436173743a2076616c756520646f65736e27742066697420696e203860008201527f2062697473000000000000000000000000000000000000000000000000000000602082015250565b60006125d6602583611c88565b91506125e18261257a565b604082019050919050565b60006020820190508181036000830152612605816125c9565b9050919050565b7f53616665436173743a2076616c756520646f65736e27742066697420696e206160008201527f6e20696e74323536000000000000000000000000000000000000000000000000602082015250565b6000612668602883611c88565b91506126738261260c565b604082019050919050565b600060208201905081810360008301526126978161265b565b9050919050565b600081519050919050565b60006126b48261269e565b6126be8185611c88565b93506126ce8185602086016121d6565b6126d7816116a0565b840191505092915050565b600060808201905081810360008301526126fc81876126a9565b905061270b6020830186611902565b6127186040830185611902565b6127256060830184611902565b95945050505050565b6000606082019050818103600083015261274881866126a9565b90506127576020830185611c07565b6127646040830184611902565b949350505050565b6000602082019050818103600083015261278681846126a9565b905092915050565b7f4e487b7100000000000000000000000000000000000000000000000000000000600052601260045260246000fd5b60006127c8826118df565b91506127d3836118df565b92508282039050818112600084121682821360008512151617156127fa576127f9611fe4565b5b9291505056fea26469706673582212206888a2dc8dd4465d4605f7777cfb3602f7015e32558a9cbceefe210ba4ef448c64736f6c63430008110033",
    "linkReferences": {}
  },
  "methodIdentifiers": {
    "AP()": "70bf8098",
    "CP()": "6c3172a5",
    "MT()": "4a1f11a7",
    "OpenPosition()": "4813c5bf",
    "baseToken()": "c55dae63",
    "clearingHouse()": "0af96800",
    "getBaseToken()": "98acd7a6",
    "getFees(address)": "9af608c9",
    "getPositionPnL(address)": "a773deb9",
    "getRealizedPnL(address)": "e91fad7f",
    "getUnrealizedPnL(address)": "544305bf",
    "getUnsettledAccounting(address)": "bb4a976f",
    "marketRegistry()": "ecb96fe6",
    "previewPosition(bytes)": "7ab5b15e",
    "settleFeeForMarket(address)": "50989a57",
    "settleFeeSelector()": "31755cdd",
    "settleRealizedAccounting(address)": "24d2343a",
    "toggleAddressWhitelisting(address,bool)": "9418b955",
    "verifyClose(address,address[],bytes[])": "130676f6",
    "verifyTrade(address,address[],bytes[])": "5104efaa"
  },
  "id": 34
}