{
  "abi": [
    {
      "inputs": [
        {
          "internalType": "address",
          "name": "_baseToken",
          "type": "address"
        },
        {
          "internalType": "address",
          "name": "_contractRegistry",
          "type": "address"
        },
        {
          "internalType": "address",
          "name": "_accountBalance",
          "type": "address"
        },
        {
          "internalType": "address",
          "name": "_marketRegistry",
          "type": "address"
        },
        {
          "internalType": "address",
          "name": "_clearingHouse",
          "type": "address"
        }
      ],
      "stateMutability": "nonpayable",
      "type": "constructor"
    },
    {
      "inputs": [],
      "name": "AP",
      "outputs": [
        {
          "internalType": "bytes4",
          "name": "",
          "type": "bytes4"
        }
      ],
      "stateMutability": "view",
      "type": "function"
    },
    {
      "inputs": [],
      "name": "CP",
      "outputs": [
        {
          "internalType": "bytes4",
          "name": "",
          "type": "bytes4"
        }
      ],
      "stateMutability": "view",
      "type": "function"
    },
    {
      "inputs": [],
      "name": "MT",
      "outputs": [
        {
          "internalType": "bytes4",
          "name": "",
          "type": "bytes4"
        }
      ],
      "stateMutability": "view",
      "type": "function"
    },
    {
      "inputs": [],
      "name": "OpenPosition",
      "outputs": [
        {
          "internalType": "bytes4",
          "name": "",
          "type": "bytes4"
        }
      ],
      "stateMutability": "view",
      "type": "function"
    },
    {
      "inputs": [],
      "name": "baseToken",
      "outputs": [
        {
          "internalType": "address",
          "name": "",
          "type": "address"
        }
      ],
      "stateMutability": "view",
      "type": "function"
    },
    {
      "inputs": [],
      "name": "clearingHouse",
      "outputs": [
        {
          "internalType": "contract IClearingHouse",
          "name": "",
          "type": "address"
        }
      ],
      "stateMutability": "view",
      "type": "function"
    },
    {
      "inputs": [],
      "name": "getBaseToken",
      "outputs": [
        {
          "internalType": "address",
          "name": "",
          "type": "address"
        }
      ],
      "stateMutability": "view",
      "type": "function"
    },
    {
      "inputs": [
        {
          "internalType": "address",
          "name": "_baseToken",
          "type": "address"
        }
      ],
      "name": "getFees",
      "outputs": [
        {
          "internalType": "uint256",
          "name": "",
          "type": "uint256"
        }
      ],
      "stateMutability": "view",
      "type": "function"
    },
    {
      "inputs": [
        {
          "internalType": "address",
          "name": "account",
          "type": "address"
        }
      ],
      "name": "getPositionPnL",
      "outputs": [
        {
          "internalType": "int256",
          "name": "pnl",
          "type": "int256"
        }
      ],
      "stateMutability": "nonpayable",
      "type": "function"
    },
    {
      "inputs": [],
      "name": "marketRegistry",
      "outputs": [
        {
          "internalType": "contract IMarketRegistry",
          "name": "",
          "type": "address"
        }
      ],
      "stateMutability": "view",
      "type": "function"
    },
    {
      "inputs": [
        {
          "internalType": "bytes",
          "name": "data",
          "type": "bytes"
        }
      ],
      "name": "previewPosition",
      "outputs": [],
      "stateMutability": "nonpayable",
      "type": "function"
    },
    {
      "inputs": [
        {
          "internalType": "address",
          "name": "account",
          "type": "address"
        }
      ],
      "name": "settleFeeForMarket",
      "outputs": [
        {
          "internalType": "int256",
          "name": "",
          "type": "int256"
        }
      ],
      "stateMutability": "nonpayable",
      "type": "function"
    },
    {
      "inputs": [],
      "name": "settleFeeSelector",
      "outputs": [
        {
          "internalType": "bytes4",
          "name": "",
          "type": "bytes4"
        }
      ],
      "stateMutability": "view",
      "type": "function"
    },
    {
      "inputs": [
        {
          "internalType": "address",
          "name": "contractAddress",
          "type": "address"
        },
        {
          "internalType": "bool",
          "name": "isAllowed",
          "type": "bool"
        }
      ],
      "name": "toggleAddressWhitelisting",
      "outputs": [],
      "stateMutability": "nonpayable",
      "type": "function"
    },
    {
      "inputs": [
        {
          "internalType": "address",
          "name": "protocol",
          "type": "address"
        },
        {
          "internalType": "address[]",
          "name": "destinations",
          "type": "address[]"
        },
        {
          "internalType": "bytes[]",
          "name": "data",
          "type": "bytes[]"
        }
      ],
      "name": "verifyClose",
      "outputs": [
        {
          "internalType": "int256",
          "name": "amount",
          "type": "int256"
        },
        {
          "internalType": "int256",
          "name": "totalPosition",
          "type": "int256"
        },
        {
          "internalType": "uint256",
          "name": "fee",
          "type": "uint256"
        }
      ],
      "stateMutability": "view",
      "type": "function"
    },
    {
      "inputs": [
        {
          "internalType": "address",
          "name": "protocol",
          "type": "address"
        },
        {
          "internalType": "address[]",
          "name": "destinations",
          "type": "address[]"
        },
        {
          "internalType": "bytes[]",
          "name": "data",
          "type": "bytes[]"
        }
      ],
      "name": "verifyTrade",
      "outputs": [
        {
          "internalType": "int256",
          "name": "marginDelta",
          "type": "int256"
        },
        {
          "components": [
            {
              "internalType": "address",
              "name": "protocol",
              "type": "address"
            },
            {
              "internalType": "int256",
              "name": "openNotional",
              "type": "int256"
            },
            {
              "internalType": "int256",
              "name": "size",
              "type": "int256"
            },
            {
              "internalType": "uint256",
              "name": "fee",
              "type": "uint256"
            }
          ],
          "internalType": "struct Position",
          "name": "position",
          "type": "tuple"
        }
      ],
      "stateMutability": "view",
      "type": "function"
    }
  ],
  "bytecode": {
    "object": "0x6080604052600080546001600160801b0319166f2f86e2ddb6b1b6c347e7ef24095ea7b31790556001805463ffffffff60a01b19166375cdc89760a11b1790553480156200004c57600080fd5b5060405162001661380380620016618339810160408190526200006f91620000ec565b600280546001600160a01b03199081166001600160a01b039687161790915560018054821696861696909617909555600380548616938516939093179092556004805485169184169190911790556005805490931691161790556200015c565b80516001600160a01b0381168114620000e757600080fd5b919050565b600080600080600060a086880312156200010557600080fd5b6200011086620000cf565b94506200012060208701620000cf565b93506200013060408701620000cf565b92506200014060608701620000cf565b91506200015060808701620000cf565b90509295509295909350565b6114f5806200016c6000396000f3fe608060405234801561001057600080fd5b50600436106101005760003560e01c806370bf8098116100975780639af608c9116100665780639af608c914610282578063a773deb914610295578063c55dae63146102a8578063ecb96fe6146102bb57600080fd5b806370bf80981461023e5780637ab5b15e1461024b5780639418b9551461025e57806398acd7a61461027157600080fd5b80634a1f11a7116100d35780634a1f11a7146101a457806350989a57146101b95780635104efaa146101da5780636c3172a51461022a57600080fd5b80630af9680014610105578063130676f61461013557806331755cdd146101635780634813c5bf14610190575b600080fd5b600554610118906001600160a01b031681565b6040516001600160a01b0390911681526020015b60405180910390f35b610148610143366004610f00565b6102ce565b6040805193845260208401929092529082015260600161012c565b60015461017790600160a01b900460e01b81565b6040516001600160e01b0319909116815260200161012c565b60005461017790600160401b900460e01b81565b60005461017790640100000000900460e01b81565b6101cc6101c7366004610feb565b6104a4565b60405190815260200161012c565b6101ed6101e8366004610f00565b61072b565b6040805192835281516001600160a01b0316602080850191909152820151838201528101516060808401919091520151608082015260a00161012c565b60005461017790600160601b900460e01b81565b6000546101779060e01b81565b61025c610259366004611030565b50565b005b61025c61026c3660046110c5565b610a09565b6001546001600160a01b0316610118565b6101cc610290366004610feb565b610a47565b6101cc6102a3366004610feb565b610ac6565b600154610118906001600160a01b031681565b600454610118906001600160a01b031681565b60008080806102dc85610b67565b9050600191508060ff166102f08851610b67565b60ff16146103345760405162461bcd60e51b815260206004820152600c60248201526b0e6d0deead8c840dac2e8c6d60a31b60448201526064015b60405180910390fd5b60005b8160ff168160ff16101561049857600087878360ff1681811061035c5761035c6110fa565b905060200281019061036e9190611110565b61037791611157565b60005490915060e01b6001600160e01b031990811690821614610485576000546001600160e01b0319600160601b90910460e01b81169082160361043d5760008060008060008c8c8860ff168181106103d2576103d26110fa565b90506020028101906103e49190611110565b6103f2916004908290611187565b8101906103ff91906111b1565b505095505094509450945094508361041f5761041a82610bcc565b610431565b61042882610bcc565b61043190611248565b99505050505050610485565b60405162461bcd60e51b815260206004820152601e60248201527f50524d3a20556e737570706f727465642046756e6374696f6e2063616c6c0000604482015260640161032b565b508061049081611264565b915050610337565b50509450945094915050565b60035460405163bba85bcf60e01b81526001600160a01b038381166004830152600092839283928392169063bba85bcf90602401606060405180830381865afa1580156104f5573d6000803e3d6000fd5b505050506040513d601f19601f820116820180604052508101906105199190611283565b60408051808201909152600381526226a69d60e91b602082015292955090935091506105579061054885610c36565b61055185610c36565b84610c47565b6001546040516001600160a01b0387166024820152600091600160a01b900460e01b90604401604051602081830303815290604052906001600160e01b0319166020820180516001600160e01b03838183161783525050505090506106006040518060400160405280601581526020017472657475726e206875612070657270206d6520736560581b815250600560009054906101000a90046001600160a01b03168351610c96565b60015460055460405163272c4a1160e01b81526001600160a01b03928316600482015290821660248201529087169063272c4a1190604401600060405180830381600087803b15801561065257600080fd5b505af1158015610666573d6000803e3d6000fd5b505050506106986040518060400160405280600d81526020016c30b8383937bb32903237b7329d60991b815250610ce2565b60055460405163fac5e98160e01b81526001600160a01b038881169263fac5e981926106cc92909116908590600401611301565b6000604051808303816000875af11580156106eb573d6000803e3d6000fd5b505050506040513d6000823e601f3d908101601f19168201604052610713919081019061132d565b905061071f8151610d25565b50600095945050505050565b604080516080810182526000808252602082018190529181018290526060810182905284518390811461078f5760405162461bcd60e51b815260206004820152600c60248201526b0e6d0deead8c840dac2e8c6d60a31b604482015260640161032b565b60005b818110156109fe5760008686838181106107ae576107ae6110fa565b90506020028101906107c09190611110565b6107c991611157565b60005490915060e01b6001600160e01b0319908116908216146109eb576000546001600160e01b031964010000000090910460e01b8116908216036108585786868381811061081a5761081a6110fa565b905060200281019061082c9190611110565b61083a916024908290611187565b810190610847919061139b565b61085190866113b4565b94506109eb565b6000546001600160e01b0319600160401b90910460e01b81169082160361043d5760008060008060008b8b88818110610893576108936110fa565b90506020028101906108a59190611110565b6108b3916004908290611187565b8101906108c091906111b1565b50506004805460405163edd0b5cb60e01b81526001600160a01b03808a1693820193909352979c50959a5093985091965090945060009391909216915063edd0b5cb90602401602060405180830381865afa158015610923573d6000803e3d6000fd5b505050506040513d601f19601f8201168201806040525081019061094791906113d4565b62ffffff16905061096a81620186a06109638d60200151610c36565b9190610d6a565b60608b01528480156109795750835b6109e457848015610988575083155b6109e457841580156109975750835b6109e4578480156109a6575083155b6109e45760405162461bcd60e51b815260206004820152600f60248201526e1a5b5c1bdcdcda589b19481cda1a5d608a1b604482015260640161032b565b5050505050505b50806109f6816113f9565b915050610792565b505094509492505050565b6001600160a01b038216610a1c57600080fd5b6001600160a01b03919091166000908152600660205260409020805460ff1916911515919091179055565b6004805460405163edd0b5cb60e01b81526001600160a01b03848116938201939093526000929091169063edd0b5cb90602401602060405180830381865afa158015610a97573d6000803e3d6000fd5b505050506040513d601f19601f82011682018060405250810190610abb91906113d4565b62ffffff1692915050565b60035460405163bba85bcf60e01b81526001600160a01b038381166004830152600092839283928392169063bba85bcf90602401606060405180830381865afa158015610b17573d6000803e3d6000fd5b505050506040513d601f19601f82011682018060405250810190610b3b9190611283565b91945092509050610b5e610b4e82610bcc565b610b588486610e1f565b90610e2b565b95945050505050565b600060ff821115610bc85760405162461bcd60e51b815260206004820152602560248201527f53616665436173743a2076616c756520646f65736e27742066697420696e2038604482015264206269747360d81b606482015260840161032b565b5090565b60006001600160ff1b03821115610bc85760405162461bcd60e51b815260206004820152602860248201527f53616665436173743a2076616c756520646f65736e27742066697420696e2061604482015267371034b73a191a9b60c11b606482015260840161032b565b600080821215610bc8575060000390565b610c9084848484604051602401610c619493929190611412565b60408051601f198184030181529190526020810180516001600160e01b031663a7a8785360e01b179052610e37565b50505050565b610cdd838383604051602401610cae93929190611441565b60408051601f198184030181529190526020810180516001600160e01b0316630d26b92560e01b179052610e37565b505050565b61025981604051602401610cf6919061146f565b60408051601f198184030181529190526020810180516001600160e01b031663104c13eb60e21b179052610e37565b61025981604051602401610d3b91815260200190565b60408051601f198184030181529190526020810180516001600160e01b031663f82c50f160e01b179052610e37565b6000808060001985870985870292508281108382030391505080600003610da457838281610d9a57610d9a611482565b0492505050610e18565b808411610db057600080fd5b600084868809851960019081018716968790049682860381900495909211909303600082900391909104909201919091029190911760038402600290811880860282030280860282030280860282030280860282030280860282030280860290910302029150505b9392505050565b6000610e1882846113b4565b6000610e188284611498565b80516a636f6e736f6c652e6c6f67602083016000808483855afa5050505050565b6001600160a01b038116811461025957600080fd5b634e487b7160e01b600052604160045260246000fd5b604051601f8201601f1916810167ffffffffffffffff81118282101715610eac57610eac610e6d565b604052919050565b60008083601f840112610ec657600080fd5b50813567ffffffffffffffff811115610ede57600080fd5b6020830191508360208260051b8501011115610ef957600080fd5b9250929050565b60008060008060608587031215610f1657600080fd5b8435610f2181610e58565b935060208581013567ffffffffffffffff80821115610f3f57600080fd5b818801915088601f830112610f5357600080fd5b813581811115610f6557610f65610e6d565b8060051b610f74858201610e83565b918252838101850191858101908c841115610f8e57600080fd5b948601945b83861015610fb85785359250610fa883610e58565b8282529486019490860190610f93565b98505050506040880135925080831115610fd157600080fd5b5050610fdf87828801610eb4565b95989497509550505050565b600060208284031215610ffd57600080fd5b8135610e1881610e58565b600067ffffffffffffffff82111561102257611022610e6d565b50601f01601f191660200190565b60006020828403121561104257600080fd5b813567ffffffffffffffff81111561105957600080fd5b8201601f8101841361106a57600080fd5b803561107d61107882611008565b610e83565b81815285602083850101111561109257600080fd5b81602084016020830137600091810160200191909152949350505050565b803580151581146110c057600080fd5b919050565b600080604083850312156110d857600080fd5b82356110e381610e58565b91506110f1602084016110b0565b90509250929050565b634e487b7160e01b600052603260045260246000fd5b6000808335601e1984360301811261112757600080fd5b83018035915067ffffffffffffffff82111561114257600080fd5b602001915036819003821315610ef957600080fd5b6001600160e01b0319813581811691600485101561117f5780818660040360031b1b83161692505b505092915050565b6000808585111561119757600080fd5b838611156111a457600080fd5b5050820193919092039150565b600080600080600080600080610100898b0312156111ce57600080fd5b88356111d981610e58565b97506111e760208a016110b0565b96506111f560408a016110b0565b9550606089013594506080890135935060a0890135925060c089013561121a81610e58565b8092505060e089013590509295985092959890939650565b634e487b7160e01b600052601160045260246000fd5b6000600160ff1b820161125d5761125d611232565b5060000390565b600060ff821660ff810361127a5761127a611232565b60010192915050565b60008060006060848603121561129857600080fd5b8351925060208401519150604084015190509250925092565b60005b838110156112cc5781810151838201526020016112b4565b50506000910152565b600081518084526112ed8160208601602086016112b1565b601f01601f19169290920160200192915050565b6001600160a01b0383168152604060208201819052600090611325908301846112d5565b949350505050565b60006020828403121561133f57600080fd5b815167ffffffffffffffff81111561135657600080fd5b8201601f8101841361136757600080fd5b805161137561107882611008565b81815285602083850101111561138a57600080fd5b610b5e8260208301602086016112b1565b6000602082840312156113ad57600080fd5b5035919050565b808201828112600083128015821682158216171561117f5761117f611232565b6000602082840312156113e657600080fd5b815162ffffff81168114610e1857600080fd5b60006001820161140b5761140b611232565b5060010190565b60808152600061142560808301876112d5565b6020830195909552506040810192909252606090910152919050565b60608152600061145460608301866112d5565b6001600160a01b039490941660208301525060400152919050565b602081526000610e1860208301846112d5565b634e487b7160e01b600052601260045260246000fd5b81810360008312801583831316838312821617156114b8576114b8611232565b509291505056fea26469706673582212209c6f4849475cf746b00b2b93afdab5fc5046c2586851b8886be589926135f99164736f6c63430008110033",
    "linkReferences": {}
  },
  "methodIdentifiers": {
    "AP()": "70bf8098",
    "CP()": "6c3172a5",
    "MT()": "4a1f11a7",
    "OpenPosition()": "4813c5bf",
    "baseToken()": "c55dae63",
    "clearingHouse()": "0af96800",
    "getBaseToken()": "98acd7a6",
    "getFees(address)": "9af608c9",
    "getPositionPnL(address)": "a773deb9",
    "marketRegistry()": "ecb96fe6",
    "previewPosition(bytes)": "7ab5b15e",
    "settleFeeForMarket(address)": "50989a57",
    "settleFeeSelector()": "31755cdd",
    "toggleAddressWhitelisting(address,bool)": "9418b955",
    "verifyClose(address,address[],bytes[])": "130676f6",
    "verifyTrade(address,address[],bytes[])": "5104efaa"
  },
  "id": 34
}