{
  "abi": [
    {
      "inputs": [
        {
          "internalType": "address",
          "name": "_baseToken",
          "type": "address"
        },
        {
          "internalType": "address",
          "name": "_contractRegistry",
          "type": "address"
        },
        {
          "internalType": "address",
          "name": "_accountBalance",
          "type": "address"
        },
        {
          "internalType": "address",
          "name": "_marketRegistry",
          "type": "address"
        },
        {
          "internalType": "address",
          "name": "_clearingHouse",
          "type": "address"
        }
      ],
      "stateMutability": "nonpayable",
      "type": "constructor"
    },
    {
      "inputs": [],
      "name": "AP",
      "outputs": [
        {
          "internalType": "bytes4",
          "name": "",
          "type": "bytes4"
        }
      ],
      "stateMutability": "view",
      "type": "function"
    },
    {
      "inputs": [],
      "name": "CP",
      "outputs": [
        {
          "internalType": "bytes4",
          "name": "",
          "type": "bytes4"
        }
      ],
      "stateMutability": "view",
      "type": "function"
    },
    {
      "inputs": [],
      "name": "MT",
      "outputs": [
        {
          "internalType": "bytes4",
          "name": "",
          "type": "bytes4"
        }
      ],
      "stateMutability": "view",
      "type": "function"
    },
    {
      "inputs": [],
      "name": "OpenPosition",
      "outputs": [
        {
          "internalType": "bytes4",
          "name": "",
          "type": "bytes4"
        }
      ],
      "stateMutability": "view",
      "type": "function"
    },
    {
      "inputs": [],
      "name": "baseToken",
      "outputs": [
        {
          "internalType": "address",
          "name": "",
          "type": "address"
        }
      ],
      "stateMutability": "view",
      "type": "function"
    },
    {
      "inputs": [],
      "name": "clearingHouse",
      "outputs": [
        {
          "internalType": "contract IClearingHouse",
          "name": "",
          "type": "address"
        }
      ],
      "stateMutability": "view",
      "type": "function"
    },
    {
      "inputs": [],
      "name": "getBaseToken",
      "outputs": [
        {
          "internalType": "address",
          "name": "",
          "type": "address"
        }
      ],
      "stateMutability": "view",
      "type": "function"
    },
    {
      "inputs": [
        {
          "internalType": "address",
          "name": "_baseToken",
          "type": "address"
        }
      ],
      "name": "getFees",
      "outputs": [
        {
          "internalType": "uint256",
          "name": "",
          "type": "uint256"
        }
      ],
      "stateMutability": "view",
      "type": "function"
    },
    {
      "inputs": [
        {
          "internalType": "address",
          "name": "account",
          "type": "address"
        }
      ],
      "name": "getPositionPnL",
      "outputs": [
        {
          "internalType": "int256",
          "name": "pnl",
          "type": "int256"
        }
      ],
      "stateMutability": "nonpayable",
      "type": "function"
    },
    {
      "inputs": [
        {
          "internalType": "address",
          "name": "marginAccount",
          "type": "address"
        }
      ],
      "name": "getUnsettledAccounting",
      "outputs": [],
      "stateMutability": "nonpayable",
      "type": "function"
    },
    {
      "inputs": [],
      "name": "marketRegistry",
      "outputs": [
        {
          "internalType": "contract IMarketRegistry",
          "name": "",
          "type": "address"
        }
      ],
      "stateMutability": "view",
      "type": "function"
    },
    {
      "inputs": [
        {
          "internalType": "bytes",
          "name": "data",
          "type": "bytes"
        }
      ],
      "name": "previewPosition",
      "outputs": [],
      "stateMutability": "nonpayable",
      "type": "function"
    },
    {
      "inputs": [
        {
          "internalType": "address",
          "name": "account",
          "type": "address"
        }
      ],
      "name": "settleFeeForMarket",
      "outputs": [
        {
          "internalType": "int256",
          "name": "",
          "type": "int256"
        }
      ],
      "stateMutability": "nonpayable",
      "type": "function"
    },
    {
      "inputs": [],
      "name": "settleFeeSelector",
      "outputs": [
        {
          "internalType": "bytes4",
          "name": "",
          "type": "bytes4"
        }
      ],
      "stateMutability": "view",
      "type": "function"
    },
    {
      "inputs": [
        {
          "internalType": "address",
          "name": "marginAccount",
          "type": "address"
        }
      ],
      "name": "settleRealizedAccounting",
      "outputs": [],
      "stateMutability": "nonpayable",
      "type": "function"
    },
    {
      "inputs": [
        {
          "internalType": "address",
          "name": "contractAddress",
          "type": "address"
        },
        {
          "internalType": "bool",
          "name": "isAllowed",
          "type": "bool"
        }
      ],
      "name": "toggleAddressWhitelisting",
      "outputs": [],
      "stateMutability": "nonpayable",
      "type": "function"
    },
    {
      "inputs": [
        {
          "internalType": "address",
          "name": "protocol",
          "type": "address"
        },
        {
          "internalType": "address[]",
          "name": "destinations",
          "type": "address[]"
        },
        {
          "internalType": "bytes[]",
          "name": "data",
          "type": "bytes[]"
        }
      ],
      "name": "verifyClose",
      "outputs": [
        {
          "internalType": "int256",
          "name": "amount",
          "type": "int256"
        },
        {
          "internalType": "int256",
          "name": "totalPosition",
          "type": "int256"
        },
        {
          "internalType": "uint256",
          "name": "fee",
          "type": "uint256"
        }
      ],
      "stateMutability": "view",
      "type": "function"
    },
    {
      "inputs": [
        {
          "internalType": "address",
          "name": "protocol",
          "type": "address"
        },
        {
          "internalType": "address[]",
          "name": "destinations",
          "type": "address[]"
        },
        {
          "internalType": "bytes[]",
          "name": "data",
          "type": "bytes[]"
        }
      ],
      "name": "verifyTrade",
      "outputs": [
        {
          "internalType": "int256",
          "name": "marginDelta",
          "type": "int256"
        },
        {
          "components": [
            {
              "internalType": "address",
              "name": "protocol",
              "type": "address"
            },
            {
              "internalType": "int256",
              "name": "openNotional",
              "type": "int256"
            },
            {
              "internalType": "int256",
              "name": "size",
              "type": "int256"
            },
            {
              "internalType": "uint256",
              "name": "fee",
              "type": "uint256"
            }
          ],
          "internalType": "struct Position",
          "name": "position",
          "type": "tuple"
        }
      ],
      "stateMutability": "view",
      "type": "function"
    }
  ],
  "bytecode": {
    "object": "0x6080604052600080546001600160801b0319166f2f86e2ddb6b1b6c347e7ef24095ea7b31790556001805463ffffffff60a01b19166375cdc89760a11b1790553480156200004c57600080fd5b5060405162001685380380620016858339810160408190526200006f91620000ec565b600280546001600160a01b03199081166001600160a01b039687161790915560018054821696861696909617909555600380548616938516939093179092556004805485169184169190911790556005805490931691161790556200015c565b80516001600160a01b0381168114620000e757600080fd5b919050565b600080600080600060a086880312156200010557600080fd5b6200011086620000cf565b94506200012060208701620000cf565b93506200013060408701620000cf565b92506200014060608701620000cf565b91506200015060808701620000cf565b90509295509295909350565b611519806200016c6000396000f3fe608060405234801561001057600080fd5b50600436106101165760003560e01c806370bf8098116100a25780639af608c9116100715780639af608c9146102a6578063a773deb9146102b9578063bb4a976f14610179578063c55dae63146102cc578063ecb96fe6146102df57600080fd5b806370bf8098146102675780637ab5b15e146102745780639418b9551461028257806398acd7a61461029557600080fd5b80634813c5bf116100e95780634813c5bf146101b95780634a1f11a7146101cd57806350989a57146101e25780635104efaa146102035780636c3172a51461025357600080fd5b80630af968001461011b578063130676f61461014b57806324d2343a1461017957806331755cdd1461018c575b600080fd5b60055461012e906001600160a01b031681565b6040516001600160a01b0390911681526020015b60405180910390f35b61015e610159366004610f24565b6102f2565b60408051938452602084019290925290820152606001610142565b61018a61018736600461100f565b50565b005b6001546101a090600160a01b900460e01b81565b6040516001600160e01b03199091168152602001610142565b6000546101a090600160401b900460e01b81565b6000546101a090640100000000900460e01b81565b6101f56101f036600461100f565b6104c8565b604051908152602001610142565b610216610211366004610f24565b61074f565b6040805192835281516001600160a01b0316602080850191909152820151838201528101516060808401919091520151608082015260a001610142565b6000546101a090600160601b900460e01b81565b6000546101a09060e01b81565b61018a610187366004611054565b61018a6102903660046110e9565b610a2d565b6001546001600160a01b031661012e565b6101f56102b436600461100f565b610a6b565b6101f56102c736600461100f565b610aea565b60015461012e906001600160a01b031681565b60045461012e906001600160a01b031681565b600080808061030085610b8b565b9050600191508060ff166103148851610b8b565b60ff16146103585760405162461bcd60e51b815260206004820152600c60248201526b0e6d0deead8c840dac2e8c6d60a31b60448201526064015b60405180910390fd5b60005b8160ff168160ff1610156104bc57600087878360ff168181106103805761038061111e565b90506020028101906103929190611134565b61039b9161117b565b60005490915060e01b6001600160e01b0319908116908216146104a9576000546001600160e01b0319600160601b90910460e01b8116908216036104615760008060008060008c8c8860ff168181106103f6576103f661111e565b90506020028101906104089190611134565b6104169160049082906111ab565b81019061042391906111d5565b50509550509450945094509450836104435761043e82610bf0565b610455565b61044c82610bf0565b6104559061126c565b995050505050506104a9565b60405162461bcd60e51b815260206004820152601e60248201527f50524d3a20556e737570706f727465642046756e6374696f6e2063616c6c0000604482015260640161034f565b50806104b481611288565b91505061035b565b50509450945094915050565b60035460405163bba85bcf60e01b81526001600160a01b038381166004830152600092839283928392169063bba85bcf90602401606060405180830381865afa158015610519573d6000803e3d6000fd5b505050506040513d601f19601f8201168201806040525081019061053d91906112a7565b60408051808201909152600381526226a69d60e91b6020820152929550909350915061057b9061056c85610c5a565b61057585610c5a565b84610c6b565b6001546040516001600160a01b0387166024820152600091600160a01b900460e01b90604401604051602081830303815290604052906001600160e01b0319166020820180516001600160e01b03838183161783525050505090506106246040518060400160405280601581526020017472657475726e206875612070657270206d6520736560581b815250600560009054906101000a90046001600160a01b03168351610cba565b60015460055460405163272c4a1160e01b81526001600160a01b03928316600482015290821660248201529087169063272c4a1190604401600060405180830381600087803b15801561067657600080fd5b505af115801561068a573d6000803e3d6000fd5b505050506106bc6040518060400160405280600d81526020016c30b8383937bb32903237b7329d60991b815250610d06565b60055460405163fac5e98160e01b81526001600160a01b038881169263fac5e981926106f092909116908590600401611325565b6000604051808303816000875af115801561070f573d6000803e3d6000fd5b505050506040513d6000823e601f3d908101601f191682016040526107379190810190611351565b90506107438151610d49565b50600095945050505050565b60408051608081018252600080825260208201819052918101829052606081018290528451839081146107b35760405162461bcd60e51b815260206004820152600c60248201526b0e6d0deead8c840dac2e8c6d60a31b604482015260640161034f565b60005b81811015610a225760008686838181106107d2576107d261111e565b90506020028101906107e49190611134565b6107ed9161117b565b60005490915060e01b6001600160e01b031990811690821614610a0f576000546001600160e01b031964010000000090910460e01b81169082160361087c5786868381811061083e5761083e61111e565b90506020028101906108509190611134565b61085e9160249082906111ab565b81019061086b91906113bf565b61087590866113d8565b9450610a0f565b6000546001600160e01b0319600160401b90910460e01b8116908216036104615760008060008060008b8b888181106108b7576108b761111e565b90506020028101906108c99190611134565b6108d79160049082906111ab565b8101906108e491906111d5565b50506004805460405163edd0b5cb60e01b81526001600160a01b03808a1693820193909352979c50959a5093985091965090945060009391909216915063edd0b5cb90602401602060405180830381865afa158015610947573d6000803e3d6000fd5b505050506040513d601f19601f8201168201806040525081019061096b91906113f8565b62ffffff16905061098e81620186a06109878d60200151610c5a565b9190610d8e565b60608b015284801561099d5750835b610a08578480156109ac575083155b610a0857841580156109bb5750835b610a08578480156109ca575083155b610a085760405162461bcd60e51b815260206004820152600f60248201526e1a5b5c1bdcdcda589b19481cda1a5d608a1b604482015260640161034f565b5050505050505b5080610a1a8161141d565b9150506107b6565b505094509492505050565b6001600160a01b038216610a4057600080fd5b6001600160a01b03919091166000908152600660205260409020805460ff1916911515919091179055565b6004805460405163edd0b5cb60e01b81526001600160a01b03848116938201939093526000929091169063edd0b5cb90602401602060405180830381865afa158015610abb573d6000803e3d6000fd5b505050506040513d601f19601f82011682018060405250810190610adf91906113f8565b62ffffff1692915050565b60035460405163bba85bcf60e01b81526001600160a01b038381166004830152600092839283928392169063bba85bcf90602401606060405180830381865afa158015610b3b573d6000803e3d6000fd5b505050506040513d601f19601f82011682018060405250810190610b5f91906112a7565b91945092509050610b82610b7282610bf0565b610b7c8486610e43565b90610e4f565b95945050505050565b600060ff821115610bec5760405162461bcd60e51b815260206004820152602560248201527f53616665436173743a2076616c756520646f65736e27742066697420696e2038604482015264206269747360d81b606482015260840161034f565b5090565b60006001600160ff1b03821115610bec5760405162461bcd60e51b815260206004820152602860248201527f53616665436173743a2076616c756520646f65736e27742066697420696e2061604482015267371034b73a191a9b60c11b606482015260840161034f565b600080821215610bec575060000390565b610cb484848484604051602401610c859493929190611436565b60408051601f198184030181529190526020810180516001600160e01b031663a7a8785360e01b179052610e5b565b50505050565b610d01838383604051602401610cd293929190611465565b60408051601f198184030181529190526020810180516001600160e01b0316630d26b92560e01b179052610e5b565b505050565b61018781604051602401610d1a9190611493565b60408051601f198184030181529190526020810180516001600160e01b031663104c13eb60e21b179052610e5b565b61018781604051602401610d5f91815260200190565b60408051601f198184030181529190526020810180516001600160e01b031663f82c50f160e01b179052610e5b565b6000808060001985870985870292508281108382030391505080600003610dc857838281610dbe57610dbe6114a6565b0492505050610e3c565b808411610dd457600080fd5b600084868809851960019081018716968790049682860381900495909211909303600082900391909104909201919091029190911760038402600290811880860282030280860282030280860282030280860282030280860282030280860290910302029150505b9392505050565b6000610e3c82846113d8565b6000610e3c82846114bc565b80516a636f6e736f6c652e6c6f67602083016000808483855afa5050505050565b6001600160a01b038116811461018757600080fd5b634e487b7160e01b600052604160045260246000fd5b604051601f8201601f1916810167ffffffffffffffff81118282101715610ed057610ed0610e91565b604052919050565b60008083601f840112610eea57600080fd5b50813567ffffffffffffffff811115610f0257600080fd5b6020830191508360208260051b8501011115610f1d57600080fd5b9250929050565b60008060008060608587031215610f3a57600080fd5b8435610f4581610e7c565b935060208581013567ffffffffffffffff80821115610f6357600080fd5b818801915088601f830112610f7757600080fd5b813581811115610f8957610f89610e91565b8060051b610f98858201610ea7565b918252838101850191858101908c841115610fb257600080fd5b948601945b83861015610fdc5785359250610fcc83610e7c565b8282529486019490860190610fb7565b98505050506040880135925080831115610ff557600080fd5b505061100387828801610ed8565b95989497509550505050565b60006020828403121561102157600080fd5b8135610e3c81610e7c565b600067ffffffffffffffff82111561104657611046610e91565b50601f01601f191660200190565b60006020828403121561106657600080fd5b813567ffffffffffffffff81111561107d57600080fd5b8201601f8101841361108e57600080fd5b80356110a161109c8261102c565b610ea7565b8181528560208385010111156110b657600080fd5b81602084016020830137600091810160200191909152949350505050565b803580151581146110e457600080fd5b919050565b600080604083850312156110fc57600080fd5b823561110781610e7c565b9150611115602084016110d4565b90509250929050565b634e487b7160e01b600052603260045260246000fd5b6000808335601e1984360301811261114b57600080fd5b83018035915067ffffffffffffffff82111561116657600080fd5b602001915036819003821315610f1d57600080fd5b6001600160e01b031981358181169160048510156111a35780818660040360031b1b83161692505b505092915050565b600080858511156111bb57600080fd5b838611156111c857600080fd5b5050820193919092039150565b600080600080600080600080610100898b0312156111f257600080fd5b88356111fd81610e7c565b975061120b60208a016110d4565b965061121960408a016110d4565b9550606089013594506080890135935060a0890135925060c089013561123e81610e7c565b8092505060e089013590509295985092959890939650565b634e487b7160e01b600052601160045260246000fd5b6000600160ff1b820161128157611281611256565b5060000390565b600060ff821660ff810361129e5761129e611256565b60010192915050565b6000806000606084860312156112bc57600080fd5b8351925060208401519150604084015190509250925092565b60005b838110156112f05781810151838201526020016112d8565b50506000910152565b600081518084526113118160208601602086016112d5565b601f01601f19169290920160200192915050565b6001600160a01b0383168152604060208201819052600090611349908301846112f9565b949350505050565b60006020828403121561136357600080fd5b815167ffffffffffffffff81111561137a57600080fd5b8201601f8101841361138b57600080fd5b805161139961109c8261102c565b8181528560208385010111156113ae57600080fd5b610b828260208301602086016112d5565b6000602082840312156113d157600080fd5b5035919050565b80820182811260008312801582168215821617156111a3576111a3611256565b60006020828403121561140a57600080fd5b815162ffffff81168114610e3c57600080fd5b60006001820161142f5761142f611256565b5060010190565b60808152600061144960808301876112f9565b6020830195909552506040810192909252606090910152919050565b60608152600061147860608301866112f9565b6001600160a01b039490941660208301525060400152919050565b602081526000610e3c60208301846112f9565b634e487b7160e01b600052601260045260246000fd5b81810360008312801583831316838312821617156114dc576114dc611256565b509291505056fea264697066735822122093147322871c898fe09b49573996b3399fdbc07e6ec911c8388fa5aa51fb2d2d64736f6c63430008110033",
    "linkReferences": {}
  },
  "methodIdentifiers": {
    "AP()": "70bf8098",
    "CP()": "6c3172a5",
    "MT()": "4a1f11a7",
    "OpenPosition()": "4813c5bf",
    "baseToken()": "c55dae63",
    "clearingHouse()": "0af96800",
    "getBaseToken()": "98acd7a6",
    "getFees(address)": "9af608c9",
    "getPositionPnL(address)": "a773deb9",
    "getUnsettledAccounting(address)": "bb4a976f",
    "marketRegistry()": "ecb96fe6",
    "previewPosition(bytes)": "7ab5b15e",
    "settleFeeForMarket(address)": "50989a57",
    "settleFeeSelector()": "31755cdd",
    "settleRealizedAccounting(address)": "24d2343a",
    "toggleAddressWhitelisting(address,bool)": "9418b955",
    "verifyClose(address,address[],bytes[])": "130676f6",
    "verifyTrade(address,address[],bytes[])": "5104efaa"
  },
  "id": 33
}