{
  "abi": [
    {
      "inputs": [
        {
          "internalType": "address",
          "name": "_baseToken",
          "type": "address"
        },
        {
          "internalType": "address",
          "name": "_contractRegistry",
          "type": "address"
        },
        {
          "internalType": "address",
          "name": "_accountBalance",
          "type": "address"
        }
      ],
      "stateMutability": "nonpayable",
      "type": "constructor"
    },
    {
      "inputs": [],
      "name": "AP",
      "outputs": [
        {
          "internalType": "bytes4",
          "name": "",
          "type": "bytes4"
        }
      ],
      "stateMutability": "view",
      "type": "function"
    },
    {
      "inputs": [],
      "name": "CP",
      "outputs": [
        {
          "internalType": "bytes4",
          "name": "",
          "type": "bytes4"
        }
      ],
      "stateMutability": "view",
      "type": "function"
    },
    {
      "inputs": [],
      "name": "OP",
      "outputs": [
        {
          "internalType": "bytes4",
          "name": "",
          "type": "bytes4"
        }
      ],
      "stateMutability": "view",
      "type": "function"
    },
    {
      "inputs": [],
      "name": "OpenPosition",
      "outputs": [
        {
          "internalType": "bytes4",
          "name": "",
          "type": "bytes4"
        }
      ],
      "stateMutability": "view",
      "type": "function"
    },
    {
      "inputs": [],
      "name": "baseToken",
      "outputs": [
        {
          "internalType": "address",
          "name": "",
          "type": "address"
        }
      ],
      "stateMutability": "view",
      "type": "function"
    },
    {
      "inputs": [],
      "name": "getBaseToken",
      "outputs": [
        {
          "internalType": "address",
          "name": "",
          "type": "address"
        }
      ],
      "stateMutability": "view",
      "type": "function"
    },
    {
      "inputs": [
        {
          "internalType": "address",
          "name": "account",
          "type": "address"
        }
      ],
      "name": "getPositionPnL",
      "outputs": [
        {
          "internalType": "uint256",
          "name": "depositedMargin",
          "type": "uint256"
        },
        {
          "internalType": "int256",
          "name": "pnl",
          "type": "int256"
        }
      ],
      "stateMutability": "nonpayable",
      "type": "function"
    },
    {
      "inputs": [
        {
          "internalType": "bytes",
          "name": "data",
          "type": "bytes"
        }
      ],
      "name": "previewPosition",
      "outputs": [],
      "stateMutability": "nonpayable",
      "type": "function"
    },
    {
      "inputs": [
        {
          "internalType": "address",
          "name": "contractAddress",
          "type": "address"
        },
        {
          "internalType": "bool",
          "name": "isAllowed",
          "type": "bool"
        }
      ],
      "name": "toggleAddressWhitelisting",
      "outputs": [],
      "stateMutability": "nonpayable",
      "type": "function"
    },
    {
      "inputs": [
        {
          "internalType": "address",
          "name": "protocol",
          "type": "address"
        },
        {
          "internalType": "address[]",
          "name": "destinations",
          "type": "address[]"
        },
        {
          "internalType": "bytes[]",
          "name": "data",
          "type": "bytes[]"
        }
      ],
      "name": "verifyClose",
      "outputs": [
        {
          "internalType": "int256",
          "name": "amount",
          "type": "int256"
        },
        {
          "internalType": "int256",
          "name": "totalPosition",
          "type": "int256"
        },
        {
          "internalType": "uint256",
          "name": "fee",
          "type": "uint256"
        }
      ],
      "stateMutability": "view",
      "type": "function"
    },
    {
      "inputs": [
        {
          "internalType": "address",
          "name": "protocol",
          "type": "address"
        },
        {
          "internalType": "address[]",
          "name": "destinations",
          "type": "address[]"
        },
        {
          "internalType": "bytes[]",
          "name": "data",
          "type": "bytes[]"
        }
      ],
      "name": "verifyTrade",
      "outputs": [
        {
          "internalType": "int256",
          "name": "amount",
          "type": "int256"
        },
        {
          "internalType": "int256",
          "name": "totalPosition",
          "type": "int256"
        },
        {
          "internalType": "uint256",
          "name": "fee",
          "type": "uint256"
        }
      ],
      "stateMutability": "view",
      "type": "function"
    }
  ],
  "bytecode": {
    "object": "0x6080604052600080546001600160801b0319166f2f86e2ddb6b1b6c347e7ef24095ea7b317905534801561003257600080fd5b50604051610dae380380610dae833981016040819052610051916100ad565b600280546001600160a01b03199081166001600160a01b0394851617909155600180548216948416949094179093556003805490931691161790556100f0565b80516001600160a01b03811681146100a857600080fd5b919050565b6000806000606084860312156100c257600080fd5b6100cb84610091565b92506100d960208501610091565b91506100e760408501610091565b90509250925092565b610caf806100ff6000396000f3fe608060405234801561001057600080fd5b50600436106100a95760003560e01c80637ab5b15e116100715780637ab5b15e146101425780637c9c3472146101555780639418b9551461016a57806398acd7a61461017d578063a773deb9146101a2578063c55dae63146101ca57600080fd5b8063130676f6146100ae5780634813c5bf146100e15780635104efaa1461010e5780636c3172a51461012157806370bf809814610135575b600080fd5b6100c16100bc366004610862565b6101dd565b604080519384526020840192909252908201526060015b60405180910390f35b6000546100f590600160401b900460e01b81565b6040516001600160e01b031990911681526020016100d8565b6100c161011c366004610862565b6103b3565b6000546100f590600160601b900460e01b81565b6000546100f59060e01b81565b61015361015036600461094d565b50565b005b6000546100f590640100000000900460e01b81565b6101536101783660046109f7565b6105e5565b6001546001600160a01b03165b6040516001600160a01b0390911681526020016100d8565b6101b56101b0366004610a2c565b610623565b604080519283526020830191909152016100d8565b60015461018a906001600160a01b031681565b60008080806101eb856106cc565b9050600191508060ff166101ff88516106cc565b60ff16146102435760405162461bcd60e51b815260206004820152600c60248201526b0e6d0deead8c840dac2e8c6d60a31b60448201526064015b60405180910390fd5b60005b8160ff168160ff1610156103a757600087878360ff1681811061026b5761026b610a49565b905060200281019061027d9190610a5f565b61028691610aa6565b60005490915060e01b6001600160e01b031990811690821614610394576000546001600160e01b0319600160601b90910460e01b81169082160361034c5760008060008060008c8c8860ff168181106102e1576102e1610a49565b90506020028101906102f39190610a5f565b610301916004908290610ad6565b81019061030e9190610b00565b505095505094509450945094508361032e5761032982610731565b610340565b61033782610731565b61034090610b97565b99505050505050610394565b60405162461bcd60e51b815260206004820152601e60248201527f50524d3a20556e737570706f727465642046756e6374696f6e2063616c6c0000604482015260640161023a565b508061039f81610bb3565b915050610246565b50509450945094915050565b825160009081908190849081146103fb5760405162461bcd60e51b815260206004820152600c60248201526b0e6d0deead8c840dac2e8c6d60a31b604482015260640161023a565b60005b818110156103a757600087878381811061041a5761041a610a49565b905060200281019061042c9190610a5f565b61043591610aa6565b60005490915060e01b6001600160e01b0319908116908216146105d2576000546001600160e01b031964010000000090910460e01b8116908216036104ba5787878381811061048657610486610a49565b90506020028101906104989190610a5f565b6104a6916024908290610ad6565b8101906104b39190610bd2565b95506105d2565b6000546001600160e01b0319600160401b90910460e01b81169082160361034c5760008060008060008c8c888181106104f5576104f5610a49565b90506020028101906105079190610a5f565b610515916004908290610ad6565b8101906105229190610b00565b505095505094509450945094508380156105395750825b6105cc57838015610548575082155b156105685783610558578a610561565b6105618b610b97565b99506105cc565b831580156105735750825b156105835783610558578a610561565b83801561058e575082155b6105cc5760405162461bcd60e51b815260206004820152600f60248201526e1a5b5c1bdcdcda589b19481cda1a5d608a1b604482015260640161023a565b50505050505b50806105dd81610beb565b9150506103fe565b6001600160a01b0382166105f857600080fd5b6001600160a01b03919091166000908152600460205260409020805460ff1916911515919091179055565b60035460405163bba85bcf60e01b81526001600160a01b038381166004830152600092839283928392839291169063bba85bcf90602401606060405180830381865afa158015610677573d6000803e3d6000fd5b505050506040513d601f19601f8201168201806040525081019061069b9190610c04565b919450925090506106be6106ae82610731565b6106b8848661079b565b906107ae565b935060019450505050915091565b600060ff82111561072d5760405162461bcd60e51b815260206004820152602560248201527f53616665436173743a2076616c756520646f65736e27742066697420696e2038604482015264206269747360d81b606482015260840161023a565b5090565b60006001600160ff1b0382111561072d5760405162461bcd60e51b815260206004820152602860248201527f53616665436173743a2076616c756520646f65736e27742066697420696e2061604482015267371034b73a191a9b60c11b606482015260840161023a565b60006107a78284610c32565b9392505050565b60006107a78284610c52565b6001600160a01b038116811461015057600080fd5b634e487b7160e01b600052604160045260246000fd5b604051601f8201601f1916810167ffffffffffffffff8111828210171561080e5761080e6107cf565b604052919050565b60008083601f84011261082857600080fd5b50813567ffffffffffffffff81111561084057600080fd5b6020830191508360208260051b850101111561085b57600080fd5b9250929050565b6000806000806060858703121561087857600080fd5b8435610883816107ba565b935060208581013567ffffffffffffffff808211156108a157600080fd5b818801915088601f8301126108b557600080fd5b8135818111156108c7576108c76107cf565b8060051b6108d68582016107e5565b918252838101850191858101908c8411156108f057600080fd5b948601945b8386101561091a578535925061090a836107ba565b82825294860194908601906108f5565b9850505050604088013592508083111561093357600080fd5b505061094187828801610816565b95989497509550505050565b6000602080838503121561096057600080fd5b823567ffffffffffffffff8082111561097857600080fd5b818501915085601f83011261098c57600080fd5b81358181111561099e5761099e6107cf565b6109b0601f8201601f191685016107e5565b915080825286848285010111156109c657600080fd5b8084840185840137600090820190930192909252509392505050565b803580151581146109f257600080fd5b919050565b60008060408385031215610a0a57600080fd5b8235610a15816107ba565b9150610a23602084016109e2565b90509250929050565b600060208284031215610a3e57600080fd5b81356107a7816107ba565b634e487b7160e01b600052603260045260246000fd5b6000808335601e19843603018112610a7657600080fd5b83018035915067ffffffffffffffff821115610a9157600080fd5b60200191503681900382131561085b57600080fd5b6001600160e01b03198135818116916004851015610ace5780818660040360031b1b83161692505b505092915050565b60008085851115610ae657600080fd5b83861115610af357600080fd5b5050820193919092039150565b600080600080600080600080610100898b031215610b1d57600080fd5b8835610b28816107ba565b9750610b3660208a016109e2565b9650610b4460408a016109e2565b9550606089013594506080890135935060a0890135925060c0890135610b69816107ba565b8092505060e089013590509295985092959890939650565b634e487b7160e01b600052601160045260246000fd5b6000600160ff1b8201610bac57610bac610b81565b5060000390565b600060ff821660ff8103610bc957610bc9610b81565b60010192915050565b600060208284031215610be457600080fd5b5035919050565b600060018201610bfd57610bfd610b81565b5060010190565b600080600060608486031215610c1957600080fd5b8351925060208401519150604084015190509250925092565b8082018281126000831280158216821582161715610ace57610ace610b81565b8181036000831280158383131683831282161715610c7257610c72610b81565b509291505056fea264697066735822122021c80c0fb429fde418ef43847ddde381c7c4260e32314936ac73d5934aeae17664736f6c63430008110033",
    "linkReferences": {}
  },
  "methodIdentifiers": {
    "AP()": "70bf8098",
    "CP()": "6c3172a5",
    "OP()": "7c9c3472",
    "OpenPosition()": "4813c5bf",
    "baseToken()": "c55dae63",
    "getBaseToken()": "98acd7a6",
    "getPositionPnL(address)": "a773deb9",
    "previewPosition(bytes)": "7ab5b15e",
    "toggleAddressWhitelisting(address,bool)": "9418b955",
    "verifyClose(address,address[],bytes[])": "130676f6",
    "verifyTrade(address,address[],bytes[])": "5104efaa"
  },
  "id": 47
}