{
  "abi": [
    {
      "inputs": [
        {
          "internalType": "address",
          "name": "_baseToken",
          "type": "address"
        },
        {
          "internalType": "address",
          "name": "_contractRegistry",
          "type": "address"
        },
        {
          "internalType": "address",
          "name": "_accountBalance",
          "type": "address"
        }
      ],
      "stateMutability": "nonpayable",
      "type": "constructor"
    },
    {
      "inputs": [],
      "name": "AP",
      "outputs": [
        {
          "internalType": "bytes4",
          "name": "",
          "type": "bytes4"
        }
      ],
      "stateMutability": "view",
      "type": "function"
    },
    {
      "inputs": [],
      "name": "CP",
      "outputs": [
        {
          "internalType": "bytes4",
          "name": "",
          "type": "bytes4"
        }
      ],
      "stateMutability": "view",
      "type": "function"
    },
    {
      "inputs": [],
      "name": "MT",
      "outputs": [
        {
          "internalType": "bytes4",
          "name": "",
          "type": "bytes4"
        }
      ],
      "stateMutability": "view",
      "type": "function"
    },
    {
      "inputs": [],
      "name": "OpenPosition",
      "outputs": [
        {
          "internalType": "bytes4",
          "name": "",
          "type": "bytes4"
        }
      ],
      "stateMutability": "view",
      "type": "function"
    },
    {
      "inputs": [],
      "name": "baseToken",
      "outputs": [
        {
          "internalType": "address",
          "name": "",
          "type": "address"
        }
      ],
      "stateMutability": "view",
      "type": "function"
    },
    {
      "inputs": [],
      "name": "getBaseToken",
      "outputs": [
        {
          "internalType": "address",
          "name": "",
          "type": "address"
        }
      ],
      "stateMutability": "view",
      "type": "function"
    },
    {
      "inputs": [
        {
          "internalType": "address",
          "name": "account",
          "type": "address"
        }
      ],
      "name": "getPositionPnL",
      "outputs": [
        {
          "internalType": "int256",
          "name": "pnl",
          "type": "int256"
        }
      ],
      "stateMutability": "nonpayable",
      "type": "function"
    },
    {
      "inputs": [
        {
          "internalType": "bytes",
          "name": "data",
          "type": "bytes"
        }
      ],
      "name": "previewPosition",
      "outputs": [],
      "stateMutability": "nonpayable",
      "type": "function"
    },
    {
      "inputs": [
        {
          "internalType": "address",
          "name": "contractAddress",
          "type": "address"
        },
        {
          "internalType": "bool",
          "name": "isAllowed",
          "type": "bool"
        }
      ],
      "name": "toggleAddressWhitelisting",
      "outputs": [],
      "stateMutability": "nonpayable",
      "type": "function"
    },
    {
      "inputs": [
        {
          "internalType": "address",
          "name": "protocol",
          "type": "address"
        },
        {
          "internalType": "address[]",
          "name": "destinations",
          "type": "address[]"
        },
        {
          "internalType": "bytes[]",
          "name": "data",
          "type": "bytes[]"
        }
      ],
      "name": "verifyClose",
      "outputs": [
        {
          "internalType": "int256",
          "name": "amount",
          "type": "int256"
        },
        {
          "internalType": "int256",
          "name": "totalPosition",
          "type": "int256"
        },
        {
          "internalType": "uint256",
          "name": "fee",
          "type": "uint256"
        }
      ],
      "stateMutability": "view",
      "type": "function"
    },
    {
      "inputs": [
        {
          "internalType": "address",
          "name": "protocol",
          "type": "address"
        },
        {
          "internalType": "address[]",
          "name": "destinations",
          "type": "address[]"
        },
        {
          "internalType": "bytes[]",
          "name": "data",
          "type": "bytes[]"
        }
      ],
      "name": "verifyTrade",
      "outputs": [
        {
          "internalType": "int256",
          "name": "marginDelta",
          "type": "int256"
        },
        {
          "components": [
            {
              "internalType": "address",
              "name": "protocol",
              "type": "address"
            },
            {
              "internalType": "int256",
              "name": "openNotional",
              "type": "int256"
            },
            {
              "internalType": "int256",
              "name": "size",
              "type": "int256"
            }
          ],
          "internalType": "struct Position",
          "name": "position",
          "type": "tuple"
        },
        {
          "internalType": "uint256",
          "name": "fee",
          "type": "uint256"
        }
      ],
      "stateMutability": "view",
      "type": "function"
    }
  ],
  "bytecode": {
    "object": "0x6080604052600080546001600160801b0319166f2f86e2ddb6b1b6c347e7ef24095ea7b317905534801561003257600080fd5b50604051610dd2380380610dd2833981016040819052610051916100ad565b600280546001600160a01b03199081166001600160a01b0394851617909155600180548216948416949094179093556003805490931691161790556100f0565b80516001600160a01b03811681146100a857600080fd5b919050565b6000806000606084860312156100c257600080fd5b6100cb84610091565b92506100d960208501610091565b91506100e760408501610091565b90509250925092565b610cd3806100ff6000396000f3fe608060405234801561001057600080fd5b50600436106100a95760003560e01c806370bf80981161007157806370bf8098146101835780637ab5b15e146101905780639418b955146101a357806398acd7a6146101b6578063a773deb9146101db578063c55dae63146101fc57600080fd5b8063130676f6146100ae5780634813c5bf146100e15780634a1f11a71461010e5780635104efaa146101235780636c3172a51461016f575b600080fd5b6100c16100bc366004610886565b61020f565b604080519384526020840192909252908201526060015b60405180910390f35b6000546100f590600160401b900460e01b81565b6040516001600160e01b031990911681526020016100d8565b6000546100f590640100000000900460e01b81565b610136610131366004610886565b6103e5565b6040805193845282516001600160a01b03166020808601919091528301518482015291909101516060830152608082015260a0016100d8565b6000546100f590600160601b900460e01b81565b6000546100f59060e01b81565b6101a161019e366004610971565b50565b005b6101a16101b1366004610a1b565b610611565b6001546001600160a01b03165b6040516001600160a01b0390911681526020016100d8565b6101ee6101e9366004610a50565b61064f565b6040519081526020016100d8565b6001546101c3906001600160a01b031681565b600080808061021d856106f0565b9050600191508060ff1661023188516106f0565b60ff16146102755760405162461bcd60e51b815260206004820152600c60248201526b0e6d0deead8c840dac2e8c6d60a31b60448201526064015b60405180910390fd5b60005b8160ff168160ff1610156103d957600087878360ff1681811061029d5761029d610a6d565b90506020028101906102af9190610a83565b6102b891610aca565b60005490915060e01b6001600160e01b0319908116908216146103c6576000546001600160e01b0319600160601b90910460e01b81169082160361037e5760008060008060008c8c8860ff1681811061031357610313610a6d565b90506020028101906103259190610a83565b610333916004908290610afa565b8101906103409190610b24565b50509550509450945094509450836103605761035b82610755565b610372565b61036982610755565b61037290610bbb565b995050505050506103c6565b60405162461bcd60e51b815260206004820152601e60248201527f50524d3a20556e737570706f727465642046756e6374696f6e2063616c6c0000604482015260640161026c565b50806103d181610bd7565b915050610278565b50509450945094915050565b604080516060810182526000808252602082018190529181018290528451600090849081146104455760405162461bcd60e51b815260206004820152600c60248201526b0e6d0deead8c840dac2e8c6d60a31b604482015260640161026c565b60005b818110156103d957600087878381811061046457610464610a6d565b90506020028101906104769190610a83565b61047f91610aca565b60005490915060e01b6001600160e01b0319908116908216146105fe576000546001600160e01b031964010000000090910460e01b81169082160361050e578787838181106104d0576104d0610a6d565b90506020028101906104e29190610a83565b6104f0916024908290610afa565b8101906104fd9190610bf6565b6105079087610c0f565b95506105fe565b6000546001600160e01b0319600160401b90910460e01b81169082160361037e5760008060008060008c8c8881811061054957610549610a6d565b905060200281019061055b9190610a83565b610569916004908290610afa565b8101906105769190610b24565b5050955050945094509450945083801561058d5750825b6105f85783801561059c575082155b6105f857831580156105ab5750825b6105f8578380156105ba575082155b6105f85760405162461bcd60e51b815260206004820152600f60248201526e1a5b5c1bdcdcda589b19481cda1a5d608a1b604482015260640161026c565b50505050505b508061060981610c2f565b915050610448565b6001600160a01b03821661062457600080fd5b6001600160a01b03919091166000908152600460205260409020805460ff1916911515919091179055565b60035460405163bba85bcf60e01b81526001600160a01b038381166004830152600092839283928392169063bba85bcf90602401606060405180830381865afa1580156106a0573d6000803e3d6000fd5b505050506040513d601f19601f820116820180604052508101906106c49190610c48565b919450925090506106e76106d782610755565b6106e184866107bf565b906107d2565b95945050505050565b600060ff8211156107515760405162461bcd60e51b815260206004820152602560248201527f53616665436173743a2076616c756520646f65736e27742066697420696e2038604482015264206269747360d81b606482015260840161026c565b5090565b60006001600160ff1b038211156107515760405162461bcd60e51b815260206004820152602860248201527f53616665436173743a2076616c756520646f65736e27742066697420696e2061604482015267371034b73a191a9b60c11b606482015260840161026c565b60006107cb8284610c0f565b9392505050565b60006107cb8284610c76565b6001600160a01b038116811461019e57600080fd5b634e487b7160e01b600052604160045260246000fd5b604051601f8201601f1916810167ffffffffffffffff81118282101715610832576108326107f3565b604052919050565b60008083601f84011261084c57600080fd5b50813567ffffffffffffffff81111561086457600080fd5b6020830191508360208260051b850101111561087f57600080fd5b9250929050565b6000806000806060858703121561089c57600080fd5b84356108a7816107de565b935060208581013567ffffffffffffffff808211156108c557600080fd5b818801915088601f8301126108d957600080fd5b8135818111156108eb576108eb6107f3565b8060051b6108fa858201610809565b918252838101850191858101908c84111561091457600080fd5b948601945b8386101561093e578535925061092e836107de565b8282529486019490860190610919565b9850505050604088013592508083111561095757600080fd5b50506109658782880161083a565b95989497509550505050565b6000602080838503121561098457600080fd5b823567ffffffffffffffff8082111561099c57600080fd5b818501915085601f8301126109b057600080fd5b8135818111156109c2576109c26107f3565b6109d4601f8201601f19168501610809565b915080825286848285010111156109ea57600080fd5b8084840185840137600090820190930192909252509392505050565b80358015158114610a1657600080fd5b919050565b60008060408385031215610a2e57600080fd5b8235610a39816107de565b9150610a4760208401610a06565b90509250929050565b600060208284031215610a6257600080fd5b81356107cb816107de565b634e487b7160e01b600052603260045260246000fd5b6000808335601e19843603018112610a9a57600080fd5b83018035915067ffffffffffffffff821115610ab557600080fd5b60200191503681900382131561087f57600080fd5b6001600160e01b03198135818116916004851015610af25780818660040360031b1b83161692505b505092915050565b60008085851115610b0a57600080fd5b83861115610b1757600080fd5b5050820193919092039150565b600080600080600080600080610100898b031215610b4157600080fd5b8835610b4c816107de565b9750610b5a60208a01610a06565b9650610b6860408a01610a06565b9550606089013594506080890135935060a0890135925060c0890135610b8d816107de565b8092505060e089013590509295985092959890939650565b634e487b7160e01b600052601160045260246000fd5b6000600160ff1b8201610bd057610bd0610ba5565b5060000390565b600060ff821660ff8103610bed57610bed610ba5565b60010192915050565b600060208284031215610c0857600080fd5b5035919050565b8082018281126000831280158216821582161715610af257610af2610ba5565b600060018201610c4157610c41610ba5565b5060010190565b600080600060608486031215610c5d57600080fd5b8351925060208401519150604084015190509250925092565b8181036000831280158383131683831282161715610c9657610c96610ba5565b509291505056fea2646970667358221220193d112553fedb4fb9db0c12600e0f6217ea6d632ecfb790bd5f766c9b4f451c64736f6c63430008110033",
    "linkReferences": {}
  },
  "methodIdentifiers": {
    "AP()": "70bf8098",
    "CP()": "6c3172a5",
    "MT()": "4a1f11a7",
    "OpenPosition()": "4813c5bf",
    "baseToken()": "c55dae63",
    "getBaseToken()": "98acd7a6",
    "getPositionPnL(address)": "a773deb9",
    "previewPosition(bytes)": "7ab5b15e",
    "toggleAddressWhitelisting(address,bool)": "9418b955",
    "verifyClose(address,address[],bytes[])": "130676f6",
    "verifyTrade(address,address[],bytes[])": "5104efaa"
  },
  "id": 30
}