{
  "abi": [
    {
      "inputs": [
        {
          "internalType": "address",
          "name": "_baseToken",
          "type": "address"
        },
        {
          "internalType": "address",
          "name": "_accountBalance",
          "type": "address"
        },
        {
          "internalType": "address",
          "name": "_perpExchange",
          "type": "address"
        }
      ],
      "stateMutability": "nonpayable",
      "type": "constructor"
    },
    {
      "inputs": [],
      "name": "AP",
      "outputs": [
        {
          "internalType": "bytes4",
          "name": "",
          "type": "bytes4"
        }
      ],
      "stateMutability": "view",
      "type": "function"
    },
    {
      "inputs": [],
      "name": "CP",
      "outputs": [
        {
          "internalType": "bytes4",
          "name": "",
          "type": "bytes4"
        }
      ],
      "stateMutability": "view",
      "type": "function"
    },
    {
      "inputs": [],
      "name": "OP",
      "outputs": [
        {
          "internalType": "bytes4",
          "name": "",
          "type": "bytes4"
        }
      ],
      "stateMutability": "view",
      "type": "function"
    },
    {
      "inputs": [],
      "name": "OpenPosition",
      "outputs": [
        {
          "internalType": "bytes4",
          "name": "",
          "type": "bytes4"
        }
      ],
      "stateMutability": "view",
      "type": "function"
    },
    {
      "inputs": [],
      "name": "baseToken",
      "outputs": [
        {
          "internalType": "address",
          "name": "",
          "type": "address"
        }
      ],
      "stateMutability": "view",
      "type": "function"
    },
    {
      "inputs": [],
      "name": "getBaseToken",
      "outputs": [
        {
          "internalType": "address",
          "name": "",
          "type": "address"
        }
      ],
      "stateMutability": "view",
      "type": "function"
    },
    {
      "inputs": [
        {
          "internalType": "address",
          "name": "account",
          "type": "address"
        }
      ],
      "name": "getPositionPnL",
      "outputs": [
        {
          "internalType": "uint256",
          "name": "depositedMargin",
          "type": "uint256"
        },
        {
          "internalType": "int256",
          "name": "pnl",
          "type": "int256"
        }
      ],
      "stateMutability": "nonpayable",
      "type": "function"
    },
    {
      "inputs": [],
      "name": "perpExchange",
      "outputs": [
        {
          "internalType": "contract IExchange",
          "name": "",
          "type": "address"
        }
      ],
      "stateMutability": "view",
      "type": "function"
    },
    {
      "inputs": [
        {
          "internalType": "bytes",
          "name": "data",
          "type": "bytes"
        }
      ],
      "name": "previewPosition",
      "outputs": [],
      "stateMutability": "nonpayable",
      "type": "function"
    },
    {
      "inputs": [
        {
          "internalType": "address",
          "name": "_perpExchange",
          "type": "address"
        }
      ],
      "name": "updateExchangeAddress",
      "outputs": [],
      "stateMutability": "nonpayable",
      "type": "function"
    },
    {
      "inputs": [
        {
          "internalType": "address",
          "name": "protocol",
          "type": "address"
        },
        {
          "internalType": "address[]",
          "name": "destinations",
          "type": "address[]"
        },
        {
          "internalType": "bytes[]",
          "name": "data",
          "type": "bytes[]"
        }
      ],
      "name": "verifyClose",
      "outputs": [
        {
          "internalType": "int256",
          "name": "amount",
          "type": "int256"
        },
        {
          "internalType": "int256",
          "name": "totalPosition",
          "type": "int256"
        },
        {
          "internalType": "uint256",
          "name": "fee",
          "type": "uint256"
        }
      ],
      "stateMutability": "view",
      "type": "function"
    },
    {
      "inputs": [
        {
          "internalType": "address",
          "name": "protocol",
          "type": "address"
        },
        {
          "internalType": "address[]",
          "name": "destinations",
          "type": "address[]"
        },
        {
          "internalType": "bytes[]",
          "name": "data",
          "type": "bytes[]"
        }
      ],
      "name": "verifyTrade",
      "outputs": [
        {
          "internalType": "int256",
          "name": "amount",
          "type": "int256"
        },
        {
          "internalType": "int256",
          "name": "totalPosition",
          "type": "int256"
        },
        {
          "internalType": "uint256",
          "name": "fee",
          "type": "uint256"
        }
      ],
      "stateMutability": "view",
      "type": "function"
    }
  ],
  "bytecode": {
    "object": "0x6080604052600080546001600160801b0319166f2f86e2ddb6b1b6c347e7ef24095ea7b317905534801561003257600080fd5b50604051610cf7380380610cf7833981016040819052610051916100af565b600180546001600160a01b039485166001600160a01b0319918216179091556003805493851693821693909317909255600280549190931691161790556100f2565b80516001600160a01b03811681146100aa57600080fd5b919050565b6000806000606084860312156100c457600080fd5b6100cd84610093565b92506100db60208501610093565b91506100e960408501610093565b90509250925092565b610bf6806101016000396000f3fe608060405234801561001057600080fd5b50600436106100b45760003560e01c80637ab5b15e116100715780637ab5b15e1461017f5780637c9c34721461019057806398acd7a6146101a55780639f71e269146101ca578063a773deb9146101dd578063c55dae631461020557600080fd5b8063130676f6146100b957806331415a65146100ec5780634813c5bf1461011e5780635104efaa1461014b5780636c3172a51461015e57806370bf809814610172575b600080fd5b6100cc6100c73660046107fe565b610218565b604080519384526020840192909252908201526060015b60405180910390f35b61011c6100fa3660046108e9565b600280546001600160a01b0319166001600160a01b0392909216919091179055565b005b60005461013290600160401b900460e01b81565b6040516001600160e01b031990911681526020016100e3565b6100cc6101593660046107fe565b6103a2565b60005461013290600160601b900460e01b81565b6000546101329060e01b81565b61011c61018d366004610906565b50565b60005461013290640100000000900460e01b81565b6001546001600160a01b03165b6040516001600160a01b0390911681526020016100e3565b6002546101b2906001600160a01b031681565b6101f06101eb3660046108e9565b6105d4565b604080519283526020830191909152016100e3565b6001546101b2906001600160a01b031681565b600080808061022685610674565b9050600191508060ff1661023a8851610674565b60ff161461027e5760405162461bcd60e51b815260206004820152600c60248201526b0e6d0deead8c840dac2e8c6d60a31b60448201526064015b60405180910390fd5b60005b8160ff168160ff16101561039657600087878360ff168181106102a6576102a661099b565b90506020028101906102b891906109b1565b6102c1916109f8565b60005490915060e01b6001600160e01b031990811690821614610383576000546001600160e01b0319600160601b90910460e01b8116908216036103835760008060008060008c8c8860ff1681811061031c5761031c61099b565b905060200281019061032e91906109b1565b61033c916004908290610a28565b8101906103499190610a67565b505095505094509450945094508361036957610364826106d9565b61037b565b610372826106d9565b61037b90610afe565b995050505050505b508061038e81610b1a565b915050610281565b50509450945094915050565b825160009081908190849081146103ea5760405162461bcd60e51b815260206004820152600c60248201526b0e6d0deead8c840dac2e8c6d60a31b6044820152606401610275565b60005b818110156103965760008787838181106104095761040961099b565b905060200281019061041b91906109b1565b610424916109f8565b60005490915060e01b6001600160e01b0319908116908216146105c1576000546001600160e01b031964010000000090910460e01b8116908216036104a9578787838181106104755761047561099b565b905060200281019061048791906109b1565b610495916024908290610a28565b8101906104a29190610b39565b95506105c1565b6000546001600160e01b0319600160401b90910460e01b8116908216036105c15760008060008060008c8c888181106104e4576104e461099b565b90506020028101906104f691906109b1565b610504916004908290610a28565b8101906105119190610a67565b505095505094509450945094508380156105285750825b6105bb57838015610537575082155b156105575783610547578a610550565b6105508b610afe565b99506105bb565b831580156105625750825b156105725783610547578a610550565b83801561057d575082155b6105bb5760405162461bcd60e51b815260206004820152600f60248201526e1a5b5c1bdcdcda589b19481cda1a5d608a1b6044820152606401610275565b50505050505b50806105cc81610b52565b9150506103ed565b60035460405163bba85bcf60e01b81526001600160a01b038381166004830152600092839283928392839291169063bba85bcf90602401606060405180830381865afa158015610628573d6000803e3d6000fd5b505050506040513d601f19601f8201168201806040525081019061064c9190610b6b565b9194509250905061066661065f826106d9565b8390610743565b935060019450505050915091565b600060ff8211156106d55760405162461bcd60e51b815260206004820152602560248201527f53616665436173743a2076616c756520646f65736e27742066697420696e2038604482015264206269747360d81b6064820152608401610275565b5090565b60006001600160ff1b038211156106d55760405162461bcd60e51b815260206004820152602860248201527f53616665436173743a2076616c756520646f65736e27742066697420696e2061604482015267371034b73a191a9b60c11b6064820152608401610275565b600061074f8284610b99565b9392505050565b6001600160a01b038116811461018d57600080fd5b634e487b7160e01b600052604160045260246000fd5b604051601f8201601f1916810167ffffffffffffffff811182821017156107aa576107aa61076b565b604052919050565b60008083601f8401126107c457600080fd5b50813567ffffffffffffffff8111156107dc57600080fd5b6020830191508360208260051b85010111156107f757600080fd5b9250929050565b6000806000806060858703121561081457600080fd5b843561081f81610756565b935060208581013567ffffffffffffffff8082111561083d57600080fd5b818801915088601f83011261085157600080fd5b8135818111156108635761086361076b565b8060051b610872858201610781565b918252838101850191858101908c84111561088c57600080fd5b948601945b838610156108b657853592506108a683610756565b8282529486019490860190610891565b985050505060408801359250808311156108cf57600080fd5b50506108dd878288016107b2565b95989497509550505050565b6000602082840312156108fb57600080fd5b813561074f81610756565b6000602080838503121561091957600080fd5b823567ffffffffffffffff8082111561093157600080fd5b818501915085601f83011261094557600080fd5b8135818111156109575761095761076b565b610969601f8201601f19168501610781565b9150808252868482850101111561097f57600080fd5b8084840185840137600090820190930192909252509392505050565b634e487b7160e01b600052603260045260246000fd5b6000808335601e198436030181126109c857600080fd5b83018035915067ffffffffffffffff8211156109e357600080fd5b6020019150368190038213156107f757600080fd5b6001600160e01b03198135818116916004851015610a205780818660040360031b1b83161692505b505092915050565b60008085851115610a3857600080fd5b83861115610a4557600080fd5b5050820193919092039150565b80358015158114610a6257600080fd5b919050565b600080600080600080600080610100898b031215610a8457600080fd5b8835610a8f81610756565b9750610a9d60208a01610a52565b9650610aab60408a01610a52565b9550606089013594506080890135935060a0890135925060c0890135610ad081610756565b8092505060e089013590509295985092959890939650565b634e487b7160e01b600052601160045260246000fd5b6000600160ff1b8201610b1357610b13610ae8565b5060000390565b600060ff821660ff8103610b3057610b30610ae8565b60010192915050565b600060208284031215610b4b57600080fd5b5035919050565b600060018201610b6457610b64610ae8565b5060010190565b600080600060608486031215610b8057600080fd5b8351925060208401519150604084015190509250925092565b8181036000831280158383131683831282161715610bb957610bb9610ae8565b509291505056fea2646970667358221220d84f834ad3304e543cb86d0c53496c25ace23a0bc897adf270cfe7e1b5ceaf7764736f6c63430008110033",
    "linkReferences": {}
  },
  "methodIdentifiers": {
    "AP()": "70bf8098",
    "CP()": "6c3172a5",
    "OP()": "7c9c3472",
    "OpenPosition()": "4813c5bf",
    "baseToken()": "c55dae63",
    "getBaseToken()": "98acd7a6",
    "getPositionPnL(address)": "a773deb9",
    "perpExchange()": "9f71e269",
    "previewPosition(bytes)": "7ab5b15e",
    "updateExchangeAddress(address)": "31415a65",
    "verifyClose(address,address[],bytes[])": "130676f6",
    "verifyTrade(address,address[],bytes[])": "5104efaa"
  },
  "id": 47
}