{
  "abi": [
    {
      "inputs": [
        {
          "internalType": "address",
          "name": "_marginManager",
          "type": "address"
        },
        {
          "internalType": "address",
          "name": "_riskManager",
          "type": "address"
        },
        {
          "internalType": "address",
          "name": "_priceOracle",
          "type": "address"
        }
      ],
      "stateMutability": "nonpayable",
      "type": "constructor"
    },
    {
      "anonymous": false,
      "inputs": [
        {
          "indexed": true,
          "internalType": "address",
          "name": "",
          "type": "address"
        },
        {
          "indexed": true,
          "internalType": "address",
          "name": "",
          "type": "address"
        },
        {
          "indexed": true,
          "internalType": "uint256",
          "name": "",
          "type": "uint256"
        },
        {
          "indexed": false,
          "internalType": "uint256",
          "name": "",
          "type": "uint256"
        }
      ],
      "name": "CollateralAdded",
      "type": "event"
    },
    {
      "inputs": [
        {
          "internalType": "address",
          "name": "_allowed",
          "type": "address"
        },
        {
          "internalType": "uint256",
          "name": "_collateralWeight",
          "type": "uint256"
        }
      ],
      "name": "addAllowedCollateral",
      "outputs": [],
      "stateMutability": "nonpayable",
      "type": "function"
    },
    {
      "inputs": [
        {
          "internalType": "address[]",
          "name": "_allowed",
          "type": "address[]"
        },
        {
          "internalType": "uint256[]",
          "name": "_collateralWeights",
          "type": "uint256[]"
        }
      ],
      "name": "addAllowedCollateral",
      "outputs": [],
      "stateMutability": "nonpayable",
      "type": "function"
    },
    {
      "inputs": [
        {
          "internalType": "address",
          "name": "_token",
          "type": "address"
        },
        {
          "internalType": "uint256",
          "name": "_amount",
          "type": "uint256"
        }
      ],
      "name": "addCollateral",
      "outputs": [],
      "stateMutability": "nonpayable",
      "type": "function"
    },
    {
      "inputs": [
        {
          "internalType": "uint256",
          "name": "",
          "type": "uint256"
        }
      ],
      "name": "allowedCollateral",
      "outputs": [
        {
          "internalType": "address",
          "name": "",
          "type": "address"
        }
      ],
      "stateMutability": "view",
      "type": "function"
    },
    {
      "inputs": [
        {
          "internalType": "address",
          "name": "",
          "type": "address"
        }
      ],
      "name": "collateralWeight",
      "outputs": [
        {
          "internalType": "uint256",
          "name": "",
          "type": "uint256"
        }
      ],
      "stateMutability": "view",
      "type": "function"
    },
    {
      "inputs": [
        {
          "internalType": "address",
          "name": "_marginAccount",
          "type": "address"
        },
        {
          "internalType": "address",
          "name": "_asset",
          "type": "address"
        }
      ],
      "name": "getCollateral",
      "outputs": [
        {
          "internalType": "int256",
          "name": "",
          "type": "int256"
        }
      ],
      "stateMutability": "view",
      "type": "function"
    },
    {
      "inputs": [
        {
          "internalType": "address",
          "name": "_marginAccount",
          "type": "address"
        }
      ],
      "name": "getFreeCollateralValue",
      "outputs": [
        {
          "internalType": "uint256",
          "name": "",
          "type": "uint256"
        }
      ],
      "stateMutability": "nonpayable",
      "type": "function"
    },
    {
      "inputs": [
        {
          "internalType": "address",
          "name": "",
          "type": "address"
        }
      ],
      "name": "isAllowed",
      "outputs": [
        {
          "internalType": "bool",
          "name": "",
          "type": "bool"
        }
      ],
      "stateMutability": "view",
      "type": "function"
    },
    {
      "inputs": [],
      "name": "marginManager",
      "outputs": [
        {
          "internalType": "contract MarginManager",
          "name": "",
          "type": "address"
        }
      ],
      "stateMutability": "view",
      "type": "function"
    },
    {
      "inputs": [],
      "name": "priceOracle",
      "outputs": [
        {
          "internalType": "contract IPriceOracle",
          "name": "",
          "type": "address"
        }
      ],
      "stateMutability": "view",
      "type": "function"
    },
    {
      "inputs": [],
      "name": "riskManager",
      "outputs": [
        {
          "internalType": "contract IRiskManager",
          "name": "",
          "type": "address"
        }
      ],
      "stateMutability": "view",
      "type": "function"
    },
    {
      "inputs": [
        {
          "internalType": "address",
          "name": "_marginAccount",
          "type": "address"
        }
      ],
      "name": "totalCollateralValue",
      "outputs": [
        {
          "internalType": "uint256",
          "name": "totalAmount",
          "type": "uint256"
        }
      ],
      "stateMutability": "nonpayable",
      "type": "function"
    },
    {
      "inputs": [
        {
          "internalType": "uint256",
          "name": "amount",
          "type": "uint256"
        }
      ],
      "name": "updateCollateralAmount",
      "outputs": [],
      "stateMutability": "nonpayable",
      "type": "function"
    },
    {
      "inputs": [
        {
          "internalType": "address",
          "name": "_token",
          "type": "address"
        },
        {
          "internalType": "uint256",
          "name": "_collateralWeight",
          "type": "uint256"
        }
      ],
      "name": "updateCollateralWeight",
      "outputs": [],
      "stateMutability": "nonpayable",
      "type": "function"
    },
    {
      "inputs": [
        {
          "internalType": "address",
          "name": "_token",
          "type": "address"
        },
        {
          "internalType": "uint256",
          "name": "_amount",
          "type": "uint256"
        }
      ],
      "name": "withdrawCollateral",
      "outputs": [],
      "stateMutability": "nonpayable",
      "type": "function"
    }
  ],
  "bytecode": {
    "object": "0x60806040523480156200001157600080fd5b506040516200183738038062001837833981016040819052620000349162000094565b600080546001600160a01b039485166001600160a01b031991821617909155600180549385169382169390931790925560028054919093169116179055620000de565b80516001600160a01b03811681146200008f57600080fd5b919050565b600080600060608486031215620000aa57600080fd5b620000b58462000077565b9250620000c56020850162000077565b9150620000d56040850162000077565b90509250925092565b61174980620000ee6000396000f3fe608060405234801561001057600080fd5b50600436106100f55760003560e01c806355c09e6611610097578063a723ad3b11610066578063a723ad3b14610205578063aea02e2714610218578063babcc53914610229578063c2e3e4fc1461025c57600080fd5b806355c09e66146101b95780636d375206146101cc5780636d75b9ee146101df5780638051eafc146101f257600080fd5b8063350c35e9116100d3578063350c35e91461016d5780634784266314610180578063481cecaa1461019357806352226ef0146101a657600080fd5b80630b296844146100fa578063258185321461010f5780632630c12f14610142575b600080fd5b61010d610108366004611408565b61026f565b005b61012f61011d366004611434565b60046020526000908152604090205481565b6040519081526020015b60405180910390f35b600254610155906001600160a01b031681565b6040516001600160a01b039091168152602001610139565b61010d61017b366004611408565b610422565b600154610155906001600160a01b031681565b600054610155906001600160a01b031681565b61012f6101b4366004611451565b61075a565b61010d6101c7366004611408565b610787565b61010d6101da3660046114cf565b61080b565b61010d6101ed366004611408565b610b01565b61015561020036600461153b565b610ce8565b61012f610213366004611434565b610d12565b61010d61022636600461153b565b50565b61024c610237366004611434565b60066020526000908152604090205460ff1681565b6040519015158152602001610139565b61012f61026a366004611434565b610d1d565b6001600160a01b0382166102bd5760405162461bcd60e51b815260206004820152601060248201526f434d3a205a65726f204164647265737360801b60448201526064015b60405180910390fd5b6001600160a01b03821660009081526006602052604090205460ff16156103265760405162461bcd60e51b815260206004820152601c60248201527f434d3a20436f6c6c61746572616c20616c72656164792061646465640000000060448201526064016102b4565b6003805460018082019092557fc2575a0e9e593c00f959f8c92f12db2869c3395a3b0502d05e2516446f71f85b0180546001600160a01b0319166001600160a01b03851690811790915560008181526004602081815260408084208790556006825292839020805460ff1916909517909455815163313ce56760e01b81529151929363313ce5679383830193919290918290030181865afa1580156103cf573d6000803e3d6000fd5b505050506040513d601f19601f820116820180604052508101906103f39190611554565b6001600160a01b03929092166000908152600560205260409020805460ff191660ff9093169290921790915550565b6001600160a01b03821660009081526006602052604090205460ff1661048a5760405162461bcd60e51b815260206004820152601a60248201527f434d3a20556e737570706f7274656420636f6c6c61746572616c00000000000060448201526064016102b4565b60008054604051639c498bc360e01b81523360048201526001600160a01b0390911690639c498bc390602401602060405180830381865afa1580156104d3573d6000803e3d6000fd5b505050506040513d601f19601f820116820180604052508101906104f79190611577565b9050600061050482610d28565b9050610537816040518060400160405280600f81526020016e199c99594818dbdb1b185d195c985b608a1b815250610fa9565b6001600160a01b0380851660009081526004602052604090205460025483926105ec92916064916105e591166308ba90846105718a610ff2565b6040516001600160e01b031960e084901b16815260048101919091526001600160a01b038c166024820152604401602060405180830381865afa1580156105bc573d6000803e3d6000fd5b505050506040513d601f19601f820116820180604052508101906105e09190611594565b611060565b91906110b2565b11156106585760405162461bcd60e51b815260206004820152603560248201527f434d3a205769746864726177696e67206d6f7265207468616e206672656520636044820152741bdb1b185d195c985b081b9bdd08185b1b1bddd959605a1b60648201526084016102b4565b6001600160a01b038083166000908152600760209081526040808320938816835292905220546106919061068b90611160565b84611173565b6106c961069d84610ff2565b6001600160a01b038085166000908152600760209081526040808320938a1683529290522054906111ba565b6001600160a01b038381166000818152600760209081526040808320948a16808452949091529081902093909355915163a64b6e5f60e01b81526004810191909152602481018290526044810185905263a64b6e5f90606401600060405180830381600087803b15801561073c57600080fd5b505af1158015610750573d6000803e3d6000fd5b5050505050505050565b6001600160a01b038083166000908152600760209081526040808320938516835292905220545b92915050565b6001600160a01b03821660009081526006602052604090205460ff166107ef5760405162461bcd60e51b815260206004820152601860248201527f434d3a20436f6c6c61746572616c206e6f7420666f756e64000000000000000060448201526064016102b4565b6001600160a01b03909116600090815260046020526040902055565b8281146108505760405162461bcd60e51b8152602060048201526013602482015272434d3a204e6f2061727261792070617269747960681b60448201526064016102b4565b8260005b81811015610af95760066000878784818110610872576108726115ad565b90506020020160208101906108879190611434565b6001600160a01b0316815260208101919091526040016000205460ff16156108f15760405162461bcd60e51b815260206004820152601c60248201527f434d3a20436f6c6c61746572616c20616c72656164792061646465640000000060448201526064016102b4565b6003868683818110610905576109056115ad565b905060200201602081019061091a9190611434565b81546001810183556000928352602090922090910180546001600160a01b0319166001600160a01b0390921691909117905583838281811061095e5761095e6115ad565b905060200201356004600088888581811061097b5761097b6115ad565b90506020020160208101906109909190611434565b6001600160a01b03166001600160a01b03168152602001908152602001600020819055506001600660008888858181106109cc576109cc6115ad565b90506020020160208101906109e19190611434565b6001600160a01b031681526020810191909152604001600020805460ff1916911515919091179055858582818110610a1b57610a1b6115ad565b9050602002016020810190610a309190611434565b6001600160a01b031663313ce5676040518163ffffffff1660e01b8152600401602060405180830381865afa158015610a6d573d6000803e3d6000fd5b505050506040513d601f19601f82011682018060405250810190610a919190611554565b60056000888885818110610aa757610aa76115ad565b9050602002016020810190610abc9190611434565b6001600160a01b031681526020810191909152604001600020805460ff191660ff9290921691909117905580610af1816115d9565b915050610854565b505050505050565b6001600160a01b03821660009081526006602052604090205460ff16610b695760405162461bcd60e51b815260206004820152601a60248201527f434d3a20556e737570706f7274656420636f6c6c61746572616c00000000000060448201526064016102b4565b60008054604051639c498bc360e01b81523360048201526001600160a01b0390911690639c498bc390602401602060405180830381865afa158015610bb2573d6000803e3d6000fd5b505050506040513d601f19601f82011682018060405250810190610bd69190611577565b60405163165e040d60e21b81523360048201526001600160a01b0385811660248301526044820185905291925090821690635978103490606401600060405180830381600087803b158015610c2a57600080fd5b505af1158015610c3e573d6000803e3d6000fd5b50505050610c7a610c4e83610ff2565b6001600160a01b03808416600090815260076020908152604080832093891683529290522054906111c6565b6001600160a01b0380831660008181526007602090815260408083209489168084529490915290209290925583917f662b1bd33d13e6d2e62a602e837f7cfe4cb4c5cac45a3fdaa54a25c61c920072610cd2856111d2565b60405190815260200160405180910390a4505050565b60038181548110610cf857600080fd5b6000918252602090912001546001600160a01b0316905081565b600061078182610d28565b6000610781826111d2565b6000610e29610d36836111d2565b600054604051634386210f60e11b81526001600160a01b0386811660048301529091169063870c421e90602401602060405180830381865afa158015610d80573d6000803e3d6000fd5b505050506040513d601f19601f82011682018060405250810190610da49190611594565b846001600160a01b0316634c19386c6040518163ffffffff1660e01b8152600401602060405180830381865afa158015610de2573d6000803e3d6000fd5b505050506040513d601f19601f82011682018060405250810190610e069190611594565b6040518060400160405280600581526020016419d998dbdb60da1b8152506112db565b6000610f0f600160009054906101000a90046001600160a01b03166001600160a01b031663bd8ad4076040518163ffffffff1660e01b81526004016020604051808303816000875af1158015610e83573d6000803e3d6000fd5b505050506040513d601f19601f82011682018060405250810190610ea79190611594565b846001600160a01b0316634c19386c6040518163ffffffff1660e01b8152600401602060405180830381865afa158015610ee5573d6000803e3d6000fd5b505050506040513d601f19601f82011682018060405250810190610f099190611594565b9061132a565b915050610f1b81611375565b600054604051634386210f60e11b81526001600160a01b038581166004830152610fa2928492610f9c929091169063870c421e90602401602060405180830381865afa158015610f6f573d6000803e3d6000fd5b505050506040513d601f19601f82011682018060405250810190610f939190611594565b610f9c876111d2565b906113ba565b9392505050565b610fee8282604051602401610fbf929190611638565b60408051601f198184030181529190526020810180516001600160e01b031663643fd0df60e01b1790526113c6565b5050565b60006001600160ff1b0382111561105c5760405162461bcd60e51b815260206004820152602860248201527f53616665436173743a2076616c756520646f65736e27742066697420696e2061604482015267371034b73a191a9b60c11b60648201526084016102b4565b5090565b60008082121561105c5760405162461bcd60e51b815260206004820181905260248201527f53616665436173743a2076616c7565206d75737420626520706f73697469766560448201526064016102b4565b60008080600019858709858702925082811083820303915050806000036110ec578382816110e2576110e2611659565b0492505050610fa2565b8084116110f857600080fd5b600084868809600260036001881981018916988990049182028318808302840302808302840302808302840302808302840302808302840302918202909203026000889003889004909101858311909403939093029303949094049190911702949350505050565b60008082121561105c5781600003610781565b6040516024810183905260448101829052610fee9060640160408051601f198184030181529190526020810180516001600160e01b0316637b3338ad60e11b1790526113c6565b6000610fa2828461166f565b6000610fa28284611696565b6000805b6003548110156112d5576000600382815481106111f5576111f56115ad565b6000918252602080832091909101546001600160a01b0390811680845260048084526040808620546002548b861688526007875282882085895290965281872054915163022ea42160e21b815292830191909152602482018390529195506112b29391926064926105e5929116906308ba908490604401602060405180830381865afa158015611289573d6000803e3d6000fd5b505050506040513d601f19601f820116820180604052508101906112ad9190611594565b611160565b90506112be84826113e7565b9350505080806112cd906115d9565b9150506111d6565b50919050565b611324848484846040516024016112f594939291906116be565b60408051601f198184030181529190526020810180516001600160e01b03166359cfcbe360e01b1790526113c6565b50505050565b60008083600003611341575060019050600061136e565b8383028385828161135457611354611659565b041461136757600080925092505061136e565b6001925090505b9250929050565b6102268160405160240161138b91815260200190565b60408051601f198184030181529190526020810180516001600160e01b031663f82c50f160e01b1790526113c6565b6000610fa282846116ed565b80516a636f6e736f6c652e6c6f67602083016000808483855afa5050505050565b6000610fa28284611700565b6001600160a01b038116811461022657600080fd5b6000806040838503121561141b57600080fd5b8235611426816113f3565b946020939093013593505050565b60006020828403121561144657600080fd5b8135610fa2816113f3565b6000806040838503121561146457600080fd5b823561146f816113f3565b9150602083013561147f816113f3565b809150509250929050565b60008083601f84011261149c57600080fd5b50813567ffffffffffffffff8111156114b457600080fd5b6020830191508360208260051b850101111561136e57600080fd5b600080600080604085870312156114e557600080fd5b843567ffffffffffffffff808211156114fd57600080fd5b6115098883890161148a565b9096509450602087013591508082111561152257600080fd5b5061152f8782880161148a565b95989497509550505050565b60006020828403121561154d57600080fd5b5035919050565b60006020828403121561156657600080fd5b815160ff81168114610fa257600080fd5b60006020828403121561158957600080fd5b8151610fa2816113f3565b6000602082840312156115a657600080fd5b5051919050565b634e487b7160e01b600052603260045260246000fd5b634e487b7160e01b600052601160045260246000fd5b6000600182016115eb576115eb6115c3565b5060010190565b6000815180845260005b81811015611618576020818501810151868301820152016115fc565b506000602082860101526020601f19601f83011685010191505092915050565b82815260406020820152600061165160408301846115f2565b949350505050565b634e487b7160e01b600052601260045260246000fd5b818103600083128015838313168383128216171561168f5761168f6115c3565b5092915050565b80820182811260008312801582168215821617156116b6576116b66115c3565b505092915050565b8481528360208201528260408201526080606082015260006116e360808301846115f2565b9695505050505050565b81810381811115610781576107816115c3565b80820180821115610781576107816115c356fea2646970667358221220c7a5d81cf9d82669ce070eb69e6689c984f522c33e28aeb796298abbb8ae256464736f6c63430008110033",
    "linkReferences": {}
  },
  "methodIdentifiers": {
    "addAllowedCollateral(address,uint256)": "0b296844",
    "addAllowedCollateral(address[],uint256[])": "6d375206",
    "addCollateral(address,uint256)": "6d75b9ee",
    "allowedCollateral(uint256)": "8051eafc",
    "collateralWeight(address)": "25818532",
    "getCollateral(address,address)": "52226ef0",
    "getFreeCollateralValue(address)": "a723ad3b",
    "isAllowed(address)": "babcc539",
    "marginManager()": "481cecaa",
    "priceOracle()": "2630c12f",
    "riskManager()": "47842663",
    "totalCollateralValue(address)": "c2e3e4fc",
    "updateCollateralAmount(uint256)": "aea02e27",
    "updateCollateralWeight(address,uint256)": "55c09e66",
    "withdrawCollateral(address,uint256)": "350c35e9"
  },
  "id": 0
}