{
  "abi": [
    {
      "inputs": [
        {
          "internalType": "address",
          "name": "_marginManager",
          "type": "address"
        },
        {
          "internalType": "address",
          "name": "_riskManager",
          "type": "address"
        },
        {
          "internalType": "address",
          "name": "_priceOracle",
          "type": "address"
        }
      ],
      "stateMutability": "nonpayable",
      "type": "constructor"
    },
    {
      "anonymous": false,
      "inputs": [
        {
          "indexed": true,
          "internalType": "address",
          "name": "",
          "type": "address"
        },
        {
          "indexed": true,
          "internalType": "address",
          "name": "",
          "type": "address"
        },
        {
          "indexed": true,
          "internalType": "uint256",
          "name": "",
          "type": "uint256"
        },
        {
          "indexed": false,
          "internalType": "uint256",
          "name": "",
          "type": "uint256"
        }
      ],
      "name": "CollateralAdded",
      "type": "event"
    },
    {
      "inputs": [
        {
          "internalType": "address",
          "name": "_allowed",
          "type": "address"
        },
        {
          "internalType": "uint256",
          "name": "_collateralWeight",
          "type": "uint256"
        }
      ],
      "name": "addAllowedCollateral",
      "outputs": [],
      "stateMutability": "nonpayable",
      "type": "function"
    },
    {
      "inputs": [
        {
          "internalType": "address[]",
          "name": "_allowed",
          "type": "address[]"
        },
        {
          "internalType": "uint256[]",
          "name": "_collateralWeights",
          "type": "uint256[]"
        }
      ],
      "name": "addAllowedCollateral",
      "outputs": [],
      "stateMutability": "nonpayable",
      "type": "function"
    },
    {
      "inputs": [
        {
          "internalType": "address",
          "name": "_token",
          "type": "address"
        },
        {
          "internalType": "uint256",
          "name": "_amount",
          "type": "uint256"
        }
      ],
      "name": "addCollateral",
      "outputs": [],
      "stateMutability": "nonpayable",
      "type": "function"
    },
    {
      "inputs": [
        {
          "internalType": "uint256",
          "name": "",
          "type": "uint256"
        }
      ],
      "name": "allowedCollateral",
      "outputs": [
        {
          "internalType": "address",
          "name": "",
          "type": "address"
        }
      ],
      "stateMutability": "view",
      "type": "function"
    },
    {
      "inputs": [
        {
          "internalType": "address",
          "name": "",
          "type": "address"
        }
      ],
      "name": "collateralWeight",
      "outputs": [
        {
          "internalType": "uint256",
          "name": "",
          "type": "uint256"
        }
      ],
      "stateMutability": "view",
      "type": "function"
    },
    {
      "inputs": [
        {
          "internalType": "address",
          "name": "_marginAccount",
          "type": "address"
        },
        {
          "internalType": "address",
          "name": "_asset",
          "type": "address"
        }
      ],
      "name": "getCollateral",
      "outputs": [
        {
          "internalType": "int256",
          "name": "",
          "type": "int256"
        }
      ],
      "stateMutability": "view",
      "type": "function"
    },
    {
      "inputs": [
        {
          "internalType": "address",
          "name": "_marginAccount",
          "type": "address"
        }
      ],
      "name": "getFreeCollateralValue",
      "outputs": [
        {
          "internalType": "uint256",
          "name": "",
          "type": "uint256"
        }
      ],
      "stateMutability": "nonpayable",
      "type": "function"
    },
    {
      "inputs": [
        {
          "internalType": "address",
          "name": "",
          "type": "address"
        }
      ],
      "name": "isAllowed",
      "outputs": [
        {
          "internalType": "bool",
          "name": "",
          "type": "bool"
        }
      ],
      "stateMutability": "view",
      "type": "function"
    },
    {
      "inputs": [],
      "name": "marginManager",
      "outputs": [
        {
          "internalType": "contract MarginManager",
          "name": "",
          "type": "address"
        }
      ],
      "stateMutability": "view",
      "type": "function"
    },
    {
      "inputs": [],
      "name": "priceOracle",
      "outputs": [
        {
          "internalType": "contract IPriceOracle",
          "name": "",
          "type": "address"
        }
      ],
      "stateMutability": "view",
      "type": "function"
    },
    {
      "inputs": [],
      "name": "riskManager",
      "outputs": [
        {
          "internalType": "contract IRiskManager",
          "name": "",
          "type": "address"
        }
      ],
      "stateMutability": "view",
      "type": "function"
    },
    {
      "inputs": [
        {
          "internalType": "address",
          "name": "_marginAccount",
          "type": "address"
        }
      ],
      "name": "totalCollateralValue",
      "outputs": [
        {
          "internalType": "uint256",
          "name": "totalAmount",
          "type": "uint256"
        }
      ],
      "stateMutability": "nonpayable",
      "type": "function"
    },
    {
      "inputs": [
        {
          "internalType": "uint256",
          "name": "amount",
          "type": "uint256"
        }
      ],
      "name": "updateCollateralAmount",
      "outputs": [],
      "stateMutability": "nonpayable",
      "type": "function"
    },
    {
      "inputs": [
        {
          "internalType": "address",
          "name": "_token",
          "type": "address"
        },
        {
          "internalType": "uint256",
          "name": "_collateralWeight",
          "type": "uint256"
        }
      ],
      "name": "updateCollateralWeight",
      "outputs": [],
      "stateMutability": "nonpayable",
      "type": "function"
    },
    {
      "inputs": [
        {
          "internalType": "address",
          "name": "_token",
          "type": "address"
        },
        {
          "internalType": "uint256",
          "name": "_amount",
          "type": "uint256"
        }
      ],
      "name": "withdrawCollateral",
      "outputs": [],
      "stateMutability": "nonpayable",
      "type": "function"
    }
  ],
  "bytecode": {
    "object": "0x60806040523480156200001157600080fd5b50604051620027283803806200272883398181016040528101906200003791906200016c565b826000806101000a81548173ffffffffffffffffffffffffffffffffffffffff021916908373ffffffffffffffffffffffffffffffffffffffff16021790555081600160006101000a81548173ffffffffffffffffffffffffffffffffffffffff021916908373ffffffffffffffffffffffffffffffffffffffff16021790555080600260006101000a81548173ffffffffffffffffffffffffffffffffffffffff021916908373ffffffffffffffffffffffffffffffffffffffff160217905550505050620001c8565b600080fd5b600073ffffffffffffffffffffffffffffffffffffffff82169050919050565b6000620001348262000107565b9050919050565b620001468162000127565b81146200015257600080fd5b50565b60008151905062000166816200013b565b92915050565b60008060006060848603121562000188576200018762000102565b5b6000620001988682870162000155565b9350506020620001ab8682870162000155565b9250506040620001be8682870162000155565b9150509250925092565b61255080620001d86000396000f3fe608060405234801561001057600080fd5b50600436106100f55760003560e01c806355c09e6611610097578063a723ad3b11610066578063a723ad3b14610270578063aea02e27146102a0578063babcc539146102bc578063c2e3e4fc146102ec576100f5565b806355c09e66146101ec5780636d375206146102085780636d75b9ee146102245780638051eafc14610240576100f5565b8063350c35e9116100d3578063350c35e9146101645780634784266314610180578063481cecaa1461019e57806352226ef0146101bc576100f5565b80630b296844146100fa57806325818532146101165780632630c12f14610146575b600080fd5b610114600480360381019061010f9190611a30565b61031c565b005b610130600480360381019061012b9190611a70565b6105e7565b60405161013d9190611aac565b60405180910390f35b61014e6105ff565b60405161015b9190611b26565b60405180910390f35b61017e60048036038101906101799190611a30565b610625565b005b610188610a2d565b6040516101959190611b62565b60405180910390f35b6101a6610a53565b6040516101b39190611b9e565b60405180910390f35b6101d660048036038101906101d19190611bb9565b610a77565b6040516101e39190611c12565b60405180910390f35b61020660048036038101906102019190611a30565b610afe565b005b610222600480360381019061021d9190611ce8565b610bd2565b005b61023e60048036038101906102399190611a30565b610fa3565b005b61025a60048036038101906102559190611d69565b6112c7565b6040516102679190611da5565b60405180910390f35b61028a60048036038101906102859190611a70565b611306565b6040516102979190611aac565b60405180910390f35b6102ba60048036038101906102b59190611d69565b611318565b005b6102d660048036038101906102d19190611a70565b61131b565b6040516102e39190611ddb565b60405180910390f35b61030660048036038101906103019190611a70565b61133b565b6040516103139190611aac565b60405180910390f35b600073ffffffffffffffffffffffffffffffffffffffff168273ffffffffffffffffffffffffffffffffffffffff160361038b576040517f08c379a000000000000000000000000000000000000000000000000000000000815260040161038290611e53565b60405180910390fd5b60001515600660008473ffffffffffffffffffffffffffffffffffffffff1673ffffffffffffffffffffffffffffffffffffffff16815260200190815260200160002060009054906101000a900460ff1615151461041e576040517f08c379a000000000000000000000000000000000000000000000000000000000815260040161041590611ebf565b60405180910390fd5b6003829080600181540180825580915050600190039060005260206000200160009091909190916101000a81548173ffffffffffffffffffffffffffffffffffffffff021916908373ffffffffffffffffffffffffffffffffffffffff16021790555080600460008473ffffffffffffffffffffffffffffffffffffffff1673ffffffffffffffffffffffffffffffffffffffff168152602001908152602001600020819055506001600660008473ffffffffffffffffffffffffffffffffffffffff1673ffffffffffffffffffffffffffffffffffffffff16815260200190815260200160002060006101000a81548160ff0219169083151502179055508173ffffffffffffffffffffffffffffffffffffffff1663313ce5676040518163ffffffff1660e01b8152600401602060405180830381865afa158015610568573d6000803e3d6000fd5b505050506040513d601f19601f8201168201806040525081019061058c9190611f18565b600560008473ffffffffffffffffffffffffffffffffffffffff1673ffffffffffffffffffffffffffffffffffffffff16815260200190815260200160002060006101000a81548160ff021916908360ff1602179055505050565b60046020528060005260406000206000915090505481565b600260009054906101000a900473ffffffffffffffffffffffffffffffffffffffff1681565b600660008373ffffffffffffffffffffffffffffffffffffffff1673ffffffffffffffffffffffffffffffffffffffff16815260200190815260200160002060009054906101000a900460ff166106b1576040517f08c379a00000000000000000000000000000000000000000000000000000000081526004016106a890611f91565b60405180910390fd5b60008060009054906101000a900473ffffffffffffffffffffffffffffffffffffffff1673ffffffffffffffffffffffffffffffffffffffff16639c498bc3336040518263ffffffff1660e01b815260040161070d9190611da5565b602060405180830381865afa15801561072a573d6000803e3d6000fd5b505050506040513d601f19601f8201168201806040525081019061074e9190611fc6565b9050600061075b8261134d565b905080610860600460008773ffffffffffffffffffffffffffffffffffffffff1673ffffffffffffffffffffffffffffffffffffffff168152602001908152602001600020546064610851600260009054906101000a900473ffffffffffffffffffffffffffffffffffffffff1673ffffffffffffffffffffffffffffffffffffffff166308ba90846107ed8a611534565b8b6040518363ffffffff1660e01b815260040161080b929190611ff3565b602060405180830381865afa158015610828573d6000803e3d6000fd5b505050506040513d601f19601f8201168201806040525081019061084c9190612048565b6115a1565b6115ee9092919063ffffffff16565b11156108a1576040517f08c379a0000000000000000000000000000000000000000000000000000000008152600401610898906120e7565b60405180910390fd5b6109386108ad84611534565b600760008573ffffffffffffffffffffffffffffffffffffffff1673ffffffffffffffffffffffffffffffffffffffff16815260200190815260200160002060008773ffffffffffffffffffffffffffffffffffffffff1673ffffffffffffffffffffffffffffffffffffffff168152602001908152602001600020546116c990919063ffffffff16565b600760008473ffffffffffffffffffffffffffffffffffffffff1673ffffffffffffffffffffffffffffffffffffffff16815260200190815260200160002060008673ffffffffffffffffffffffffffffffffffffffff1673ffffffffffffffffffffffffffffffffffffffff168152602001908152602001600020819055508173ffffffffffffffffffffffffffffffffffffffff1663a64b6e5f8584866040518463ffffffff1660e01b81526004016109f593929190612107565b600060405180830381600087803b158015610a0f57600080fd5b505af1158015610a23573d6000803e3d6000fd5b5050505050505050565b600160009054906101000a900473ffffffffffffffffffffffffffffffffffffffff1681565b60008054906101000a900473ffffffffffffffffffffffffffffffffffffffff1681565b6000600760008473ffffffffffffffffffffffffffffffffffffffff1673ffffffffffffffffffffffffffffffffffffffff16815260200190815260200160002060008373ffffffffffffffffffffffffffffffffffffffff1673ffffffffffffffffffffffffffffffffffffffff16815260200190815260200160002054905092915050565b600660008373ffffffffffffffffffffffffffffffffffffffff1673ffffffffffffffffffffffffffffffffffffffff16815260200190815260200160002060009054906101000a900460ff16610b8a576040517f08c379a0000000000000000000000000000000000000000000000000000000008152600401610b819061218a565b60405180910390fd5b80600460008473ffffffffffffffffffffffffffffffffffffffff1673ffffffffffffffffffffffffffffffffffffffff168152602001908152602001600020819055505050565b818190508484905014610c1a576040517f08c379a0000000000000000000000000000000000000000000000000000000008152600401610c11906121f6565b60405180910390fd5b600084849050905060005b81811015610f9b576000151560066000888885818110610c4857610c47612216565b5b9050602002016020810190610c5d9190611a70565b73ffffffffffffffffffffffffffffffffffffffff1673ffffffffffffffffffffffffffffffffffffffff16815260200190815260200160002060009054906101000a900460ff16151514610ce7576040517f08c379a0000000000000000000000000000000000000000000000000000000008152600401610cde90611ebf565b60405180910390fd5b6003868683818110610cfc57610cfb612216565b5b9050602002016020810190610d119190611a70565b9080600181540180825580915050600190039060005260206000200160009091909190916101000a81548173ffffffffffffffffffffffffffffffffffffffff021916908373ffffffffffffffffffffffffffffffffffffffff160217905550838382818110610d8457610d83612216565b5b9050602002013560046000888885818110610da257610da1612216565b5b9050602002016020810190610db79190611a70565b73ffffffffffffffffffffffffffffffffffffffff1673ffffffffffffffffffffffffffffffffffffffff16815260200190815260200160002081905550600160066000888885818110610e0e57610e0d612216565b5b9050602002016020810190610e239190611a70565b73ffffffffffffffffffffffffffffffffffffffff1673ffffffffffffffffffffffffffffffffffffffff16815260200190815260200160002060006101000a81548160ff021916908315150217905550858582818110610e8757610e86612216565b5b9050602002016020810190610e9c9190611a70565b73ffffffffffffffffffffffffffffffffffffffff1663313ce5676040518163ffffffff1660e01b8152600401602060405180830381865afa158015610ee6573d6000803e3d6000fd5b505050506040513d601f19601f82011682018060405250810190610f0a9190611f18565b60056000888885818110610f2157610f20612216565b5b9050602002016020810190610f369190611a70565b73ffffffffffffffffffffffffffffffffffffffff1673ffffffffffffffffffffffffffffffffffffffff16815260200190815260200160002060006101000a81548160ff021916908360ff1602179055508080610f9390612274565b915050610c25565b505050505050565b600660008373ffffffffffffffffffffffffffffffffffffffff1673ffffffffffffffffffffffffffffffffffffffff16815260200190815260200160002060009054906101000a900460ff1661102f576040517f08c379a000000000000000000000000000000000000000000000000000000000815260040161102690611f91565b60405180910390fd5b60008060009054906101000a900473ffffffffffffffffffffffffffffffffffffffff1673ffffffffffffffffffffffffffffffffffffffff16639c498bc3336040518263ffffffff1660e01b815260040161108b9190611da5565b602060405180830381865afa1580156110a8573d6000803e3d6000fd5b505050506040513d601f19601f820116820180604052508101906110cc9190611fc6565b90508073ffffffffffffffffffffffffffffffffffffffff1663597810343385856040518463ffffffff1660e01b815260040161110b93929190612107565b600060405180830381600087803b15801561112557600080fd5b505af1158015611139573d6000803e3d6000fd5b505050506111d461114983611534565b600760008473ffffffffffffffffffffffffffffffffffffffff1673ffffffffffffffffffffffffffffffffffffffff16815260200190815260200160002060008673ffffffffffffffffffffffffffffffffffffffff1673ffffffffffffffffffffffffffffffffffffffff168152602001908152602001600020546116df90919063ffffffff16565b600760008373ffffffffffffffffffffffffffffffffffffffff1673ffffffffffffffffffffffffffffffffffffffff16815260200190815260200160002060008573ffffffffffffffffffffffffffffffffffffffff1673ffffffffffffffffffffffffffffffffffffffff16815260200190815260200160002081905550818373ffffffffffffffffffffffffffffffffffffffff168273ffffffffffffffffffffffffffffffffffffffff167f662b1bd33d13e6d2e62a602e837f7cfe4cb4c5cac45a3fdaa54a25c61c9200726112ad856116f5565b6040516112ba9190611aac565b60405180910390a4505050565b600381815481106112d757600080fd5b906000526020600020016000915054906101000a900473ffffffffffffffffffffffffffffffffffffffff1681565b60006113118261134d565b9050919050565b50565b60066020528060005260406000206000915054906101000a900460ff1681565b6000611346826116f5565b9050919050565b600080611463600160009054906101000a900473ffffffffffffffffffffffffffffffffffffffff1673ffffffffffffffffffffffffffffffffffffffff1663bd8ad4076040518163ffffffff1660e01b81526004016020604051808303816000875af11580156113c2573d6000803e3d6000fd5b505050506040513d601f19601f820116820180604052508101906113e691906122d1565b8473ffffffffffffffffffffffffffffffffffffffff16634c19386c6040518163ffffffff1660e01b8152600401602060405180830381865afa158015611431573d6000803e3d6000fd5b505050506040513d601f19601f8201168201806040525081019061145591906122d1565b6118f790919063ffffffff16565b91505061152c8161151e60008054906101000a900473ffffffffffffffffffffffffffffffffffffffff1673ffffffffffffffffffffffffffffffffffffffff1663870c421e876040518263ffffffff1660e01b81526004016114c69190611da5565b602060405180830381865afa1580156114e3573d6000803e3d6000fd5b505050506040513d601f19601f8201168201806040525081019061150791906122d1565b611510876116f5565b61194a90919063ffffffff16565b61194a90919063ffffffff16565b915050919050565b60007f7fffffffffffffffffffffffffffffffffffffffffffffffffffffffffffffff821115611599576040517f08c379a000000000000000000000000000000000000000000000000000000000815260040161159090612370565b60405180910390fd5b819050919050565b6000808212156115e6576040517f08c379a00000000000000000000000000000000000000000000000000000000081526004016115dd906123dc565b60405180910390fd5b819050919050565b60008060008019858709858702925082811083820303915050600081036116295783828161161f5761161e6123fc565b5b04925050506116c2565b80841161163557600080fd5b60008486880990508281118203915080830392506000600186190186169050808604955080840493506001818260000304019050808302841793506000600287600302189050808702600203810290508087026002038102905080870260020381029050808702600203810290508087026002038102905080870260020381029050808502955050505050505b9392505050565b600081836116d7919061242b565b905092915050565b600081836116ed919061246e565b905092915050565b600080600090505b6003805490508110156118f1576000600382815481106117205761171f612216565b5b9060005260206000200160009054906101000a900473ffffffffffffffffffffffffffffffffffffffff16905060006118c5600460008473ffffffffffffffffffffffffffffffffffffffff1673ffffffffffffffffffffffffffffffffffffffff1681526020019081526020016000205460646118b6600260009054906101000a900473ffffffffffffffffffffffffffffffffffffffff1673ffffffffffffffffffffffffffffffffffffffff166308ba9084600760008c73ffffffffffffffffffffffffffffffffffffffff1673ffffffffffffffffffffffffffffffffffffffff16815260200190815260200160002060008973ffffffffffffffffffffffffffffffffffffffff1673ffffffffffffffffffffffffffffffffffffffff16815260200190815260200160002054886040518363ffffffff1660e01b8152600401611870929190611ff3565b602060405180830381865afa15801561188d573d6000803e3d6000fd5b505050506040513d601f19601f820116820180604052508101906118b19190612048565b611960565b6115ee9092919063ffffffff16565b90506118da818561197c90919063ffffffff16565b9350505080806118e990612274565b9150506116fd565b50919050565b6000806000840361190f576001600091509150611943565b6000838502905083858281611927576119266123fc565b5b041461193a576000809250925050611943565b60018192509250505b9250929050565b6000818361195891906124b2565b905092915050565b6000808212156119735781600003611975565b815b9050919050565b6000818361198a91906124e6565b905092915050565b600080fd5b600080fd5b600073ffffffffffffffffffffffffffffffffffffffff82169050919050565b60006119c78261199c565b9050919050565b6119d7816119bc565b81146119e257600080fd5b50565b6000813590506119f4816119ce565b92915050565b6000819050919050565b611a0d816119fa565b8114611a1857600080fd5b50565b600081359050611a2a81611a04565b92915050565b60008060408385031215611a4757611a46611992565b5b6000611a55858286016119e5565b9250506020611a6685828601611a1b565b9150509250929050565b600060208284031215611a8657611a85611992565b5b6000611a94848285016119e5565b91505092915050565b611aa6816119fa565b82525050565b6000602082019050611ac16000830184611a9d565b92915050565b6000819050919050565b6000611aec611ae7611ae28461199c565b611ac7565b61199c565b9050919050565b6000611afe82611ad1565b9050919050565b6000611b1082611af3565b9050919050565b611b2081611b05565b82525050565b6000602082019050611b3b6000830184611b17565b92915050565b6000611b4c82611af3565b9050919050565b611b5c81611b41565b82525050565b6000602082019050611b776000830184611b53565b92915050565b6000611b8882611af3565b9050919050565b611b9881611b7d565b82525050565b6000602082019050611bb36000830184611b8f565b92915050565b60008060408385031215611bd057611bcf611992565b5b6000611bde858286016119e5565b9250506020611bef858286016119e5565b9150509250929050565b6000819050919050565b611c0c81611bf9565b82525050565b6000602082019050611c276000830184611c03565b92915050565b600080fd5b600080fd5b600080fd5b60008083601f840112611c5257611c51611c2d565b5b8235905067ffffffffffffffff811115611c6f57611c6e611c32565b5b602083019150836020820283011115611c8b57611c8a611c37565b5b9250929050565b60008083601f840112611ca857611ca7611c2d565b5b8235905067ffffffffffffffff811115611cc557611cc4611c32565b5b602083019150836020820283011115611ce157611ce0611c37565b5b9250929050565b60008060008060408587031215611d0257611d01611992565b5b600085013567ffffffffffffffff811115611d2057611d1f611997565b5b611d2c87828801611c3c565b9450945050602085013567ffffffffffffffff811115611d4f57611d4e611997565b5b611d5b87828801611c92565b925092505092959194509250565b600060208284031215611d7f57611d7e611992565b5b6000611d8d84828501611a1b565b91505092915050565b611d9f816119bc565b82525050565b6000602082019050611dba6000830184611d96565b92915050565b60008115159050919050565b611dd581611dc0565b82525050565b6000602082019050611df06000830184611dcc565b92915050565b600082825260208201905092915050565b7f434d3a205a65726f204164647265737300000000000000000000000000000000600082015250565b6000611e3d601083611df6565b9150611e4882611e07565b602082019050919050565b60006020820190508181036000830152611e6c81611e30565b9050919050565b7f434d3a20436f6c6c61746572616c20616c726561647920616464656400000000600082015250565b6000611ea9601c83611df6565b9150611eb482611e73565b602082019050919050565b60006020820190508181036000830152611ed881611e9c565b9050919050565b600060ff82169050919050565b611ef581611edf565b8114611f0057600080fd5b50565b600081519050611f1281611eec565b92915050565b600060208284031215611f2e57611f2d611992565b5b6000611f3c84828501611f03565b91505092915050565b7f434d3a20556e737570706f7274656420636f6c6c61746572616c000000000000600082015250565b6000611f7b601a83611df6565b9150611f8682611f45565b602082019050919050565b60006020820190508181036000830152611faa81611f6e565b9050919050565b600081519050611fc0816119ce565b92915050565b600060208284031215611fdc57611fdb611992565b5b6000611fea84828501611fb1565b91505092915050565b60006040820190506120086000830185611c03565b6120156020830184611d96565b9392505050565b61202581611bf9565b811461203057600080fd5b50565b6000815190506120428161201c565b92915050565b60006020828403121561205e5761205d611992565b5b600061206c84828501612033565b91505092915050565b7f434d3a205769746864726177696e67206d6f7265207468616e2066726565206360008201527f6f6c6c61746572616c206e6f7420616c6c6f7765640000000000000000000000602082015250565b60006120d1603583611df6565b91506120dc82612075565b604082019050919050565b60006020820190508181036000830152612100816120c4565b9050919050565b600060608201905061211c6000830186611d96565b6121296020830185611d96565b6121366040830184611a9d565b949350505050565b7f434d3a20436f6c6c61746572616c206e6f7420666f756e640000000000000000600082015250565b6000612174601883611df6565b915061217f8261213e565b602082019050919050565b600060208201905081810360008301526121a381612167565b9050919050565b7f434d3a204e6f2061727261792070617269747900000000000000000000000000600082015250565b60006121e0601383611df6565b91506121eb826121aa565b602082019050919050565b6000602082019050818103600083015261220f816121d3565b9050919050565b7f4e487b7100000000000000000000000000000000000000000000000000000000600052603260045260246000fd5b7f4e487b7100000000000000000000000000000000000000000000000000000000600052601160045260246000fd5b600061227f826119fa565b91507fffffffffffffffffffffffffffffffffffffffffffffffffffffffffffffffff82036122b1576122b0612245565b5b600182019050919050565b6000815190506122cb81611a04565b92915050565b6000602082840312156122e7576122e6611992565b5b60006122f5848285016122bc565b91505092915050565b7f53616665436173743a2076616c756520646f65736e27742066697420696e206160008201527f6e20696e74323536000000000000000000000000000000000000000000000000602082015250565b600061235a602883611df6565b9150612365826122fe565b604082019050919050565b600060208201905081810360008301526123898161234d565b9050919050565b7f53616665436173743a2076616c7565206d75737420626520706f736974697665600082015250565b60006123c6602083611df6565b91506123d182612390565b602082019050919050565b600060208201905081810360008301526123f5816123b9565b9050919050565b7f4e487b7100000000000000000000000000000000000000000000000000000000600052601260045260246000fd5b600061243682611bf9565b915061244183611bf9565b925082820390508181126000841216828213600085121516171561246857612467612245565b5b92915050565b600061247982611bf9565b915061248483611bf9565b9250828201905082811215600083121683821260008412151617156124ac576124ab612245565b5b92915050565b60006124bd826119fa565b91506124c8836119fa565b92508282039050818111156124e0576124df612245565b5b92915050565b60006124f1826119fa565b91506124fc836119fa565b925082820190508082111561251457612513612245565b5b9291505056fea2646970667358221220b14a933a673b60e9fa915aa79a166cbb584f57a65707458985565567413df99564736f6c63430008110033",
    "linkReferences": {}
  },
  "methodIdentifiers": {
    "addAllowedCollateral(address,uint256)": "0b296844",
    "addAllowedCollateral(address[],uint256[])": "6d375206",
    "addCollateral(address,uint256)": "6d75b9ee",
    "allowedCollateral(uint256)": "8051eafc",
    "collateralWeight(address)": "25818532",
    "getCollateral(address,address)": "52226ef0",
    "getFreeCollateralValue(address)": "a723ad3b",
    "isAllowed(address)": "babcc539",
    "marginManager()": "481cecaa",
    "priceOracle()": "2630c12f",
    "riskManager()": "47842663",
    "totalCollateralValue(address)": "c2e3e4fc",
    "updateCollateralAmount(uint256)": "aea02e27",
    "updateCollateralWeight(address,uint256)": "55c09e66",
    "withdrawCollateral(address,uint256)": "350c35e9"
  },
  "id": 0
}