{
  "abi": [
    {
      "inputs": [
        {
          "internalType": "address",
          "name": "_marginManager",
          "type": "address"
        },
        {
          "internalType": "address",
          "name": "_riskManager",
          "type": "address"
        },
        {
          "internalType": "address",
          "name": "_priceOracle",
          "type": "address"
        }
      ],
      "stateMutability": "nonpayable",
      "type": "constructor"
    },
    {
      "anonymous": false,
      "inputs": [
        {
          "indexed": true,
          "internalType": "address",
          "name": "",
          "type": "address"
        },
        {
          "indexed": true,
          "internalType": "address",
          "name": "",
          "type": "address"
        },
        {
          "indexed": true,
          "internalType": "uint256",
          "name": "",
          "type": "uint256"
        },
        {
          "indexed": false,
          "internalType": "uint256",
          "name": "",
          "type": "uint256"
        }
      ],
      "name": "CollateralAdded",
      "type": "event"
    },
    {
      "inputs": [
        {
          "internalType": "address",
          "name": "_allowed",
          "type": "address"
        },
        {
          "internalType": "uint256",
          "name": "_collateralWeight",
          "type": "uint256"
        }
      ],
      "name": "addAllowedCollateral",
      "outputs": [],
      "stateMutability": "nonpayable",
      "type": "function"
    },
    {
      "inputs": [
        {
          "internalType": "address",
          "name": "_token",
          "type": "address"
        },
        {
          "internalType": "uint256",
          "name": "_amount",
          "type": "uint256"
        }
      ],
      "name": "addCollateral",
      "outputs": [],
      "stateMutability": "nonpayable",
      "type": "function"
    },
    {
      "inputs": [
        {
          "internalType": "uint256",
          "name": "",
          "type": "uint256"
        }
      ],
      "name": "allowedCollateral",
      "outputs": [
        {
          "internalType": "address",
          "name": "",
          "type": "address"
        }
      ],
      "stateMutability": "view",
      "type": "function"
    },
    {
      "inputs": [
        {
          "internalType": "uint256",
          "name": "",
          "type": "uint256"
        }
      ],
      "name": "collateralWeight",
      "outputs": [
        {
          "internalType": "uint256",
          "name": "",
          "type": "uint256"
        }
      ],
      "stateMutability": "view",
      "type": "function"
    },
    {
      "inputs": [
        {
          "internalType": "address",
          "name": "_marginAccount",
          "type": "address"
        },
        {
          "internalType": "address",
          "name": "_asset",
          "type": "address"
        }
      ],
      "name": "getCollateral",
      "outputs": [
        {
          "internalType": "uint256",
          "name": "",
          "type": "uint256"
        }
      ],
      "stateMutability": "view",
      "type": "function"
    },
    {
      "inputs": [
        {
          "internalType": "address",
          "name": "_marginAccount",
          "type": "address"
        }
      ],
      "name": "getFreeCollateralValue",
      "outputs": [
        {
          "internalType": "uint256",
          "name": "",
          "type": "uint256"
        }
      ],
      "stateMutability": "nonpayable",
      "type": "function"
    },
    {
      "inputs": [
        {
          "internalType": "address",
          "name": "",
          "type": "address"
        }
      ],
      "name": "isAllowed",
      "outputs": [
        {
          "internalType": "bool",
          "name": "",
          "type": "bool"
        }
      ],
      "stateMutability": "view",
      "type": "function"
    },
    {
      "inputs": [],
      "name": "marginManager",
      "outputs": [
        {
          "internalType": "contract MarginManager",
          "name": "",
          "type": "address"
        }
      ],
      "stateMutability": "view",
      "type": "function"
    },
    {
      "inputs": [],
      "name": "priceOracle",
      "outputs": [
        {
          "internalType": "contract IPriceOracle",
          "name": "",
          "type": "address"
        }
      ],
      "stateMutability": "view",
      "type": "function"
    },
    {
      "inputs": [],
      "name": "riskManager",
      "outputs": [
        {
          "internalType": "contract IRiskManager",
          "name": "",
          "type": "address"
        }
      ],
      "stateMutability": "view",
      "type": "function"
    },
    {
      "inputs": [
        {
          "internalType": "address",
          "name": "_marginAccount",
          "type": "address"
        }
      ],
      "name": "totalCollateralValue",
      "outputs": [
        {
          "internalType": "uint256",
          "name": "totalAmount",
          "type": "uint256"
        }
      ],
      "stateMutability": "nonpayable",
      "type": "function"
    },
    {
      "inputs": [
        {
          "internalType": "address",
          "name": "_token",
          "type": "address"
        },
        {
          "internalType": "uint256",
          "name": "_allowlistIndex",
          "type": "uint256"
        },
        {
          "internalType": "uint256",
          "name": "_collateralWeight",
          "type": "uint256"
        }
      ],
      "name": "updateCollateralWeight",
      "outputs": [],
      "stateMutability": "nonpayable",
      "type": "function"
    },
    {
      "inputs": [
        {
          "internalType": "address",
          "name": "_token",
          "type": "address"
        },
        {
          "internalType": "uint256",
          "name": "_amount",
          "type": "uint256"
        }
      ],
      "name": "withdrawCollateral",
      "outputs": [],
      "stateMutability": "nonpayable",
      "type": "function"
    }
  ],
  "bytecode": {
    "object": "0x608060405234801561001057600080fd5b5060405161112838038061112883398101604081905261002f9161008d565b600080546001600160a01b039485166001600160a01b0319918216179091556001805493851693821693909317909255600280549190931691161790556100d0565b80516001600160a01b038116811461008857600080fd5b919050565b6000806000606084860312156100a257600080fd5b6100ab84610071565b92506100b960208501610071565b91506100c760408501610071565b90509250925092565b611049806100df6000396000f3fe608060405234801561001057600080fd5b50600436106100cf5760003560e01c806352226ef01161008c578063a723ad3b11610066578063a723ad3b146101ac578063babcc539146101bf578063c2e3e4fc146101f2578063efdcf07f1461020557600080fd5b806352226ef0146101735780636d75b9ee146101865780638051eafc1461019957600080fd5b80630b296844146100d45780632630c12f146100e95780632ebef38d14610119578063350c35e91461013a578063478426631461014d578063481cecaa14610160575b600080fd5b6100e76100e2366004610d24565b610218565b005b6002546100fc906001600160a01b031681565b6040516001600160a01b0390911681526020015b60405180910390f35b61012c610127366004610d50565b6103f0565b604051908152602001610110565b6100e7610148366004610d24565b610411565b6001546100fc906001600160a01b031681565b6000546100fc906001600160a01b031681565b61012c610181366004610d69565b6105e0565b6100e7610194366004610d24565b61060d565b6100fc6101a7366004610d50565b6107ec565b61012c6101ba366004610da2565b610816565b6101e26101cd366004610da2565b60066020526000908152604090205460ff1681565b6040519015158152602001610110565b61012c610200366004610da2565b610821565b6100e7610213366004610dbf565b61082c565b6001600160a01b0382166102665760405162461bcd60e51b815260206004820152601060248201526f434d3a205a65726f204164647265737360801b60448201526064015b60405180910390fd5b6001600160a01b03821660009081526006602052604090205460ff16156102cf5760405162461bcd60e51b815260206004820152601c60248201527f434d3a20436f6c6c61746572616c20616c726561647920616464656400000000604482015260640161025d565b6003805460018082019092557fc2575a0e9e593c00f959f8c92f12db2869c3395a3b0502d05e2516446f71f85b0180546001600160a01b0319166001600160a01b0385169081179091556004805480840182557f8a35acfbc15ff81a39ae7d344fd709f28e8600b4aa8c65c6b64bfe7fe36bd19b01849055600082815260066020908152604091829020805460ff1916909517909455805163313ce56760e01b81529051929363313ce567938284019391929091908290030181865afa15801561039d573d6000803e3d6000fd5b505050506040513d601f19601f820116820180604052508101906103c19190610df4565b6001600160a01b03929092166000908152600560205260409020805460ff191660ff9093169290921790915550565b6004818154811061040057600080fd5b600091825260209091200154905081565b60008054604051639c498bc360e01b81523360048201526001600160a01b0390911690639c498bc390602401602060405180830381865afa15801561045a573d6000803e3d6000fd5b505050506040513d601f19601f8201168201806040525081019061047e9190610e17565b6001600160a01b03841660009081526006602052604090205490915060ff166104e95760405162461bcd60e51b815260206004820152601a60248201527f434d3a20556e737570706f7274656420636f6c6c61746572616c000000000000604482015260640161025d565b60006104f4826108f4565b600254604051630f9a650360e41b8152600481018690526001600160a01b03878116602483015292935083929091169063f9a6503090604401602060405180830381865afa15801561054a573d6000803e3d6000fd5b505050506040513d601f19601f8201168201806040525081019061056e9190610e34565b11156105da5760405162461bcd60e51b815260206004820152603560248201527f434d3a205769746864726177696e67206d6f7265207468616e206672656520636044820152741bdb1b185d195c985b081b9bdd08185b1b1bddd959605a1b606482015260840161025d565b50505050565b6001600160a01b038083166000908152600760209081526040808320938516835292905220545b92915050565b6001600160a01b03821660009081526006602052604090205460ff166106755760405162461bcd60e51b815260206004820152601a60248201527f434d3a20556e737570706f7274656420636f6c6c61746572616c000000000000604482015260640161025d565b60008054604051639c498bc360e01b81523360048201526001600160a01b0390911690639c498bc390602401602060405180830381865afa1580156106be573d6000803e3d6000fd5b505050506040513d601f19601f820116820180604052508101906106e29190610e17565b60405163165e040d60e21b81523360048201526001600160a01b0385811660248301526044820185905291925090821690635978103490606401600060405180830381600087803b15801561073657600080fd5b505af115801561074a573d6000803e3d6000fd5b5050506001600160a01b0380831660009081526007602090815260408083209388168352929052205461077e915083610a5c565b6001600160a01b0380831660008181526007602090815260408083209489168084529490915290209290925583917f662b1bd33d13e6d2e62a602e837f7cfe4cb4c5cac45a3fdaa54a25c61c9200726107d685610a6f565b60405190815260200160405180910390a4505050565b600381815481106107fc57600080fd5b6000918252602090912001546001600160a01b0316905081565b6000610607826108f4565b600061060782610a6f565b6001600160a01b03831660009081526006602052604090205460ff1680156108835750826001600160a01b03166003838154811061086c5761086c610e4d565b6000918252602090912001546001600160a01b0316145b6108cf5760405162461bcd60e51b815260206004820152601860248201527f434d3a20436f6c6c61746572616c206e6f7420666f756e640000000000000000604482015260640161025d565b80600483815481106108e3576108e3610e4d565b600091825260209091200155505050565b60006106076109dd600160009054906101000a90046001600160a01b03166001600160a01b031663bd8ad4076040518163ffffffff1660e01b81526004016020604051808303816000875af1158015610951573d6000803e3d6000fd5b505050506040513d601f19601f820116820180604052508101906109759190610e34565b846001600160a01b0316634c19386c6040518163ffffffff1660e01b8152600401602060405180830381865afa1580156109b3573d6000803e3d6000fd5b505050506040513d601f19601f820116820180604052508101906109d79190610e34565b90610bcc565b600054604051634386210f60e11b81526001600160a01b038681166004830152610a5692169063870c421e90602401602060405180830381865afa158015610a29573d6000803e3d6000fd5b505050506040513d601f19601f82011682018060405250810190610a4d9190610e34565b610a5686610a6f565b90610bd8565b6000610a688284610e79565b9392505050565b6000805b600354811015610bc657600060038281548110610a9257610a92610e4d565b6000918252602082200154600480546001600160a01b039092169350610b789185908110610ac257610ac2610e4d565b60009182526020808320909101546002546001600160a01b038a81168552600784526040808620898316875290945293839020549251630f9a650360e41b8152919360649391169163f9a6503091610b309189906004019182526001600160a01b0316602082015260400190565b602060405180830381865afa158015610b4d573d6000803e3d6000fd5b505050506040513d601f19601f82011682018060405250810190610b719190610e34565b9190610be4565b6001600160a01b038316600090815260056020526040902054909150610baf90610ba890839060ff166006610c92565b8590610a5c565b935050508080610bbe90610e8c565b915050610a73565b50919050565b6000610a688284610ea5565b6000610a688284610ebc565b6000808060001985870985870292508281108382030391505080600003610c1e57838281610c1457610c14610ecf565b0492505050610a68565b808411610c2a57600080fd5b600084868809600260036001881981018916988990049182028318808302840302808302840302808302840302808302840302808302840302918202909203026000889003889004909101858311909403939093029303949094049190911702949350505050565b60008160ff168360ff1603610ca8575082610a68565b8160ff168360ff1611610cd957610cd4610cc28484610ee5565b610ccd90600a610fe2565b8590610bcc565b610cf8565b610cf8610ce68385610ee5565b610cf190600a610fe2565b8590610d00565b949350505050565b6000610a688284610ff1565b6001600160a01b0381168114610d2157600080fd5b50565b60008060408385031215610d3757600080fd5b8235610d4281610d0c565b946020939093013593505050565b600060208284031215610d6257600080fd5b5035919050565b60008060408385031215610d7c57600080fd5b8235610d8781610d0c565b91506020830135610d9781610d0c565b809150509250929050565b600060208284031215610db457600080fd5b8135610a6881610d0c565b600080600060608486031215610dd457600080fd5b8335610ddf81610d0c565b95602085013595506040909401359392505050565b600060208284031215610e0657600080fd5b815160ff81168114610a6857600080fd5b600060208284031215610e2957600080fd5b8151610a6881610d0c565b600060208284031215610e4657600080fd5b5051919050565b634e487b7160e01b600052603260045260246000fd5b634e487b7160e01b600052601160045260246000fd5b8082018082111561060757610607610e63565b600060018201610e9e57610e9e610e63565b5060010190565b808202811582820484141761060757610607610e63565b8181038181111561060757610607610e63565b634e487b7160e01b600052601260045260246000fd5b60ff828116828216039081111561060757610607610e63565b600181815b80851115610f39578160001904821115610f1f57610f1f610e63565b80851615610f2c57918102915b93841c9390800290610f03565b509250929050565b600082610f5057506001610607565b81610f5d57506000610607565b8160018114610f735760028114610f7d57610f99565b6001915050610607565b60ff841115610f8e57610f8e610e63565b50506001821b610607565b5060208310610133831016604e8410600b8410161715610fbc575081810a610607565b610fc68383610efe565b8060001904821115610fda57610fda610e63565b029392505050565b6000610a6860ff841683610f41565b60008261100e57634e487b7160e01b600052601260045260246000fd5b50049056fea2646970667358221220c9a584ce3a22e98fd924592d0c3b6900914d5b51caccd105b5f09c8ac7627efb64736f6c63430008110033",
    "linkReferences": {}
  },
  "methodIdentifiers": {
    "addAllowedCollateral(address,uint256)": "0b296844",
    "addCollateral(address,uint256)": "6d75b9ee",
    "allowedCollateral(uint256)": "8051eafc",
    "collateralWeight(uint256)": "2ebef38d",
    "getCollateral(address,address)": "52226ef0",
    "getFreeCollateralValue(address)": "a723ad3b",
    "isAllowed(address)": "babcc539",
    "marginManager()": "481cecaa",
    "priceOracle()": "2630c12f",
    "riskManager()": "47842663",
    "totalCollateralValue(address)": "c2e3e4fc",
    "updateCollateralWeight(address,uint256,uint256)": "efdcf07f",
    "withdrawCollateral(address,uint256)": "350c35e9"
  },
  "id": 0
}