{
  "abi": [
    {
      "inputs": [
        {
          "internalType": "address[]",
          "name": "_allowed",
          "type": "address[]"
        },
        {
          "internalType": "uint256[]",
          "name": "_collateralWeights",
          "type": "uint256[]"
        }
      ],
      "name": "addAllowedCollateral",
      "outputs": [],
      "stateMutability": "nonpayable",
      "type": "function"
    },
    {
      "inputs": [
        {
          "internalType": "address",
          "name": "_token",
          "type": "address"
        },
        {
          "internalType": "uint256",
          "name": "_amount",
          "type": "uint256"
        }
      ],
      "name": "addCollateral",
      "outputs": [],
      "stateMutability": "nonpayable",
      "type": "function"
    },
    {
      "inputs": [
        {
          "internalType": "uint256",
          "name": "",
          "type": "uint256"
        }
      ],
      "name": "allowedCollateral",
      "outputs": [
        {
          "internalType": "address",
          "name": "",
          "type": "address"
        }
      ],
      "stateMutability": "view",
      "type": "function"
    },
    {
      "inputs": [
        {
          "internalType": "uint256",
          "name": "",
          "type": "uint256"
        }
      ],
      "name": "collateralWeight",
      "outputs": [
        {
          "internalType": "uint256",
          "name": "",
          "type": "uint256"
        }
      ],
      "stateMutability": "view",
      "type": "function"
    },
    {
      "inputs": [
        {
          "internalType": "address",
          "name": "_marginAccount",
          "type": "address"
        },
        {
          "internalType": "address",
          "name": "_asset",
          "type": "address"
        }
      ],
      "name": "getCollateral",
      "outputs": [
        {
          "internalType": "uint256",
          "name": "",
          "type": "uint256"
        }
      ],
      "stateMutability": "view",
      "type": "function"
    },
    {
      "inputs": [
        {
          "internalType": "address",
          "name": "_marginAccount",
          "type": "address"
        }
      ],
      "name": "getFreeCollateralValue",
      "outputs": [
        {
          "internalType": "uint256",
          "name": "",
          "type": "uint256"
        }
      ],
      "stateMutability": "nonpayable",
      "type": "function"
    },
    {
      "inputs": [
        {
          "internalType": "address",
          "name": "_marginManager",
          "type": "address"
        },
        {
          "internalType": "address",
          "name": "_riskManager",
          "type": "address"
        },
        {
          "internalType": "address",
          "name": "_priceOracle",
          "type": "address"
        }
      ],
      "name": "initialize",
      "outputs": [],
      "stateMutability": "nonpayable",
      "type": "function"
    },
    {
      "inputs": [
        {
          "internalType": "address",
          "name": "",
          "type": "address"
        }
      ],
      "name": "isAllowed",
      "outputs": [
        {
          "internalType": "bool",
          "name": "",
          "type": "bool"
        }
      ],
      "stateMutability": "view",
      "type": "function"
    },
    {
      "inputs": [],
      "name": "marginManager",
      "outputs": [
        {
          "internalType": "contract MarginManager",
          "name": "",
          "type": "address"
        }
      ],
      "stateMutability": "view",
      "type": "function"
    },
    {
      "inputs": [],
      "name": "priceOracle",
      "outputs": [
        {
          "internalType": "contract IPriceOracle",
          "name": "",
          "type": "address"
        }
      ],
      "stateMutability": "view",
      "type": "function"
    },
    {
      "inputs": [],
      "name": "riskManager",
      "outputs": [
        {
          "internalType": "contract IRiskManager",
          "name": "",
          "type": "address"
        }
      ],
      "stateMutability": "view",
      "type": "function"
    },
    {
      "inputs": [
        {
          "internalType": "address",
          "name": "_marginAccount",
          "type": "address"
        }
      ],
      "name": "totalCollateralValue",
      "outputs": [
        {
          "internalType": "uint256",
          "name": "totalAmount",
          "type": "uint256"
        }
      ],
      "stateMutability": "view",
      "type": "function"
    },
    {
      "inputs": [
        {
          "internalType": "address",
          "name": "_token",
          "type": "address"
        },
        {
          "internalType": "uint256",
          "name": "_allowlistIndex",
          "type": "uint256"
        },
        {
          "internalType": "uint256",
          "name": "_collateralWeight",
          "type": "uint256"
        }
      ],
      "name": "updateCollateralWeight",
      "outputs": [],
      "stateMutability": "nonpayable",
      "type": "function"
    },
    {
      "inputs": [
        {
          "internalType": "address",
          "name": "_token",
          "type": "address"
        },
        {
          "internalType": "uint256",
          "name": "_amount",
          "type": "uint256"
        }
      ],
      "name": "withdrawCollateral",
      "outputs": [],
      "stateMutability": "nonpayable",
      "type": "function"
    }
  ],
  "bytecode": {
    "object": "0x608060405234801561001057600080fd5b50611288806100206000396000f3fe608060405234801561001057600080fd5b50600436106100ea5760003560e01c80636d75b9ee1161008c578063babcc53911610066578063babcc539146101da578063c0c53b8b1461020d578063c2e3e4fc1461025a578063efdcf07f1461026d57600080fd5b80636d75b9ee146101a15780638051eafc146101b4578063a723ad3b146101c757600080fd5b806347842663116100c85780634784266314610155578063481cecaa1461016857806352226ef01461017b5780636d3752061461018e57600080fd5b80632630c12f146100ef5780632ebef38d1461011f578063350c35e914610140575b600080fd5b600254610102906001600160a01b031681565b6040516001600160a01b0390911681526020015b60405180910390f35b61013261012d366004610e29565b610280565b604051908152602001610116565b61015361014e366004610e5a565b6102a1565b005b600154610102906001600160a01b031681565b600054610102906001600160a01b031681565b610132610189366004610e86565b610475565b61015361019c366004610f0b565b6104a2565b6101536101af366004610e5a565b610760565b6101026101c2366004610e29565b610900565b6101326101d5366004610f77565b61092a565b6101fd6101e8366004610f77565b60066020526000908152604090205460ff1681565b6040519015158152602001610116565b61015361021b366004610f94565b600080546001600160a01b039485166001600160a01b031991821617909155600180549385169382169390931790925560028054919093169116179055565b610132610268366004610f77565b610935565b61015361027b366004610fdf565b610940565b6004818154811061029057600080fd5b600091825260209091200154905081565b60008054604051639c498bc360e01b81523360048201526001600160a01b0390911690639c498bc390602401602060405180830381865afa1580156102ea573d6000803e3d6000fd5b505050506040513d601f19601f8201168201806040525081019061030e9190611014565b6001600160a01b03841660009081526006602052604090205490915060ff1661037e5760405162461bcd60e51b815260206004820152601a60248201527f434d3a20556e737570706f7274656420636f6c6c61746572616c00000000000060448201526064015b60405180910390fd5b600061038982610a08565b600254604051630f9a650360e41b8152600481018690526001600160a01b03878116602483015292935083929091169063f9a6503090604401602060405180830381865afa1580156103df573d6000803e3d6000fd5b505050506040513d601f19601f820116820180604052508101906104039190611031565b111561046f5760405162461bcd60e51b815260206004820152603560248201527f434d3a205769746864726177696e67206d6f7265207468616e206672656520636044820152741bdb1b185d195c985b081b9bdd08185b1b1bddd959605a1b6064820152608401610375565b50505050565b6001600160a01b038083166000908152600760209081526040808320938516835292905220545b92915050565b8281146104e75760405162461bcd60e51b8152602060048201526013602482015272434d3a204e6f2061727261792070617269747960681b6044820152606401610375565b8260005b8181101561075857600660008787848181106105095761050961104a565b905060200201602081019061051e9190610f77565b6001600160a01b0316815260208101919091526040016000205460ff16156105885760405162461bcd60e51b815260206004820152601c60248201527f434d3a20436f6c6c61746572616c20616c7265616479206164646564000000006044820152606401610375565b600386868381811061059c5761059c61104a565b90506020020160208101906105b19190610f77565b81546001810183556000928352602090922090910180546001600160a01b0319166001600160a01b0390921691909117905560048484838181106105f7576105f761104a565b8354600181810186556000958652602080872093029490940135910155509060069088888581811061062b5761062b61104a565b90506020020160208101906106409190610f77565b6001600160a01b031681526020810191909152604001600020805460ff191691151591909117905585858281811061067a5761067a61104a565b905060200201602081019061068f9190610f77565b6001600160a01b031663313ce5676040518163ffffffff1660e01b8152600401602060405180830381865afa1580156106cc573d6000803e3d6000fd5b505050506040513d601f19601f820116820180604052508101906106f09190611060565b600560008888858181106107065761070661104a565b905060200201602081019061071b9190610f77565b6001600160a01b031681526020810191909152604001600020805460ff191660ff929092169190911790558061075081611099565b9150506104eb565b505050505050565b6001600160a01b03821660009081526006602052604090205460ff166107c85760405162461bcd60e51b815260206004820152601a60248201527f434d3a20556e737570706f7274656420636f6c6c61746572616c0000000000006044820152606401610375565b60008054604051639c498bc360e01b81523360048201526001600160a01b0390911690639c498bc390602401602060405180830381865afa158015610811573d6000803e3d6000fd5b505050506040513d601f19601f820116820180604052508101906108359190611014565b60405163165e040d60e21b81523360048201526001600160a01b0385811660248301526044820185905291925090821690635978103490606401600060405180830381600087803b15801561088957600080fd5b505af115801561089d573d6000803e3d6000fd5b5050506001600160a01b038083166000908152600760209081526040808320938816835292905220546108d1915083610b70565b6001600160a01b0391821660009081526007602090815260408083209690941682529490945292209190915550565b6003818154811061091057600080fd5b6000918252602090912001546001600160a01b0316905081565b600061049c82610a08565b600061049c82610b83565b6001600160a01b03831660009081526006602052604090205460ff1680156109975750826001600160a01b0316600383815481106109805761098061104a565b6000918252602090912001546001600160a01b0316145b6109e35760405162461bcd60e51b815260206004820152601860248201527f434d3a20436f6c6c61746572616c206e6f7420666f756e6400000000000000006044820152606401610375565b80600483815481106109f7576109f761104a565b600091825260209091200155505050565b600061049c610af1600160009054906101000a90046001600160a01b03166001600160a01b031663bd8ad4076040518163ffffffff1660e01b81526004016020604051808303816000875af1158015610a65573d6000803e3d6000fd5b505050506040513d601f19601f82011682018060405250810190610a899190611031565b846001600160a01b0316634c19386c6040518163ffffffff1660e01b8152600401602060405180830381865afa158015610ac7573d6000803e3d6000fd5b505050506040513d601f19601f82011682018060405250810190610aeb9190611031565b90610ce9565b600054604051634386210f60e11b81526001600160a01b038681166004830152610b6a92169063870c421e90602401602060405180830381865afa158015610b3d573d6000803e3d6000fd5b505050506040513d601f19601f82011682018060405250810190610b619190611031565b610b6a86610b83565b90610cf5565b6000610b7c82846110b2565b9392505050565b6000805b60035460ff82161015610ce357600060038260ff1681548110610bac57610bac61104a565b6000918252602082200154600480546001600160a01b039092169350610c959160ff8616908110610bdf57610bdf61104a565b60009182526020808320909101546002546001600160a01b038a81168552600784526040808620898316875290945293839020549251630f9a650360e41b8152919360649391169163f9a6503091610c4d9189906004019182526001600160a01b0316602082015260400190565b602060405180830381865afa158015610c6a573d6000803e3d6000fd5b505050506040513d601f19601f82011682018060405250810190610c8e9190611031565b9190610d01565b6001600160a01b038316600090815260056020526040902054909150610ccc90610cc590839060ff166006610daf565b8590610b70565b935050508080610cdb906110c5565b915050610b87565b50919050565b6000610b7c82846110e4565b6000610b7c82846110fb565b6000808060001985870985870292508281108382030391505080600003610d3b57838281610d3157610d3161110e565b0492505050610b7c565b808411610d4757600080fd5b600084868809600260036001881981018916988990049182028318808302840302808302840302808302840302808302840302808302840302918202909203026000889003889004909101858311909403939093029303949094049190911702949350505050565b60008160ff168360ff1603610dc5575082610b7c565b8160ff168360ff1611610df657610df1610ddf8484611124565b610dea90600a611221565b8590610ce9565b610e15565b610e15610e038385611124565b610e0e90600a611221565b8590610e1d565b949350505050565b6000610b7c8284611230565b600060208284031215610e3b57600080fd5b5035919050565b6001600160a01b0381168114610e5757600080fd5b50565b60008060408385031215610e6d57600080fd5b8235610e7881610e42565b946020939093013593505050565b60008060408385031215610e9957600080fd5b8235610ea481610e42565b91506020830135610eb481610e42565b809150509250929050565b60008083601f840112610ed157600080fd5b50813567ffffffffffffffff811115610ee957600080fd5b6020830191508360208260051b8501011115610f0457600080fd5b9250929050565b60008060008060408587031215610f2157600080fd5b843567ffffffffffffffff80821115610f3957600080fd5b610f4588838901610ebf565b90965094506020870135915080821115610f5e57600080fd5b50610f6b87828801610ebf565b95989497509550505050565b600060208284031215610f8957600080fd5b8135610b7c81610e42565b600080600060608486031215610fa957600080fd5b8335610fb481610e42565b92506020840135610fc481610e42565b91506040840135610fd481610e42565b809150509250925092565b600080600060608486031215610ff457600080fd5b8335610fff81610e42565b95602085013595506040909401359392505050565b60006020828403121561102657600080fd5b8151610b7c81610e42565b60006020828403121561104357600080fd5b5051919050565b634e487b7160e01b600052603260045260246000fd5b60006020828403121561107257600080fd5b815160ff81168114610b7c57600080fd5b634e487b7160e01b600052601160045260246000fd5b6000600182016110ab576110ab611083565b5060010190565b8082018082111561049c5761049c611083565b600060ff821660ff81036110db576110db611083565b60010192915050565b808202811582820484141761049c5761049c611083565b8181038181111561049c5761049c611083565b634e487b7160e01b600052601260045260246000fd5b60ff828116828216039081111561049c5761049c611083565b600181815b8085111561117857816000190482111561115e5761115e611083565b8085161561116b57918102915b93841c9390800290611142565b509250929050565b60008261118f5750600161049c565b8161119c5750600061049c565b81600181146111b257600281146111bc576111d8565b600191505061049c565b60ff8411156111cd576111cd611083565b50506001821b61049c565b5060208310610133831016604e8410600b84101617156111fb575081810a61049c565b611205838361113d565b806000190482111561121957611219611083565b029392505050565b6000610b7c60ff841683611180565b60008261124d57634e487b7160e01b600052601260045260246000fd5b50049056fea2646970667358221220d00dfc2ebee846ed1922c2dd11ec892f8906ac31f46a73bc4e7c8868fda99a0864736f6c63430008110033",
    "linkReferences": {}
  },
  "methodIdentifiers": {
    "addAllowedCollateral(address[],uint256[])": "6d375206",
    "addCollateral(address,uint256)": "6d75b9ee",
    "allowedCollateral(uint256)": "8051eafc",
    "collateralWeight(uint256)": "2ebef38d",
    "getCollateral(address,address)": "52226ef0",
    "getFreeCollateralValue(address)": "a723ad3b",
    "initialize(address,address,address)": "c0c53b8b",
    "isAllowed(address)": "babcc539",
    "marginManager()": "481cecaa",
    "priceOracle()": "2630c12f",
    "riskManager()": "47842663",
    "totalCollateralValue(address)": "c2e3e4fc",
    "updateCollateralWeight(address,uint256,uint256)": "efdcf07f",
    "withdrawCollateral(address,uint256)": "350c35e9"
  },
  "id": 26
}