{
  "abi": [
    {
      "inputs": [
        {
          "internalType": "address",
          "name": "_marginManager",
          "type": "address"
        },
        {
          "internalType": "address",
          "name": "_riskManager",
          "type": "address"
        },
        {
          "internalType": "address",
          "name": "_priceOracle",
          "type": "address"
        }
      ],
      "stateMutability": "nonpayable",
      "type": "constructor"
    },
    {
      "anonymous": false,
      "inputs": [
        {
          "indexed": true,
          "internalType": "address",
          "name": "",
          "type": "address"
        },
        {
          "indexed": true,
          "internalType": "address",
          "name": "",
          "type": "address"
        },
        {
          "indexed": true,
          "internalType": "uint256",
          "name": "",
          "type": "uint256"
        },
        {
          "indexed": false,
          "internalType": "uint256",
          "name": "",
          "type": "uint256"
        }
      ],
      "name": "CollateralAdded",
      "type": "event"
    },
    {
      "inputs": [
        {
          "internalType": "address",
          "name": "_allowed",
          "type": "address"
        },
        {
          "internalType": "uint256",
          "name": "_collateralWeight",
          "type": "uint256"
        }
      ],
      "name": "addAllowedCollateral",
      "outputs": [],
      "stateMutability": "nonpayable",
      "type": "function"
    },
    {
      "inputs": [
        {
          "internalType": "address",
          "name": "_token",
          "type": "address"
        },
        {
          "internalType": "uint256",
          "name": "_amount",
          "type": "uint256"
        }
      ],
      "name": "addCollateral",
      "outputs": [],
      "stateMutability": "nonpayable",
      "type": "function"
    },
    {
      "inputs": [
        {
          "internalType": "uint256",
          "name": "",
          "type": "uint256"
        }
      ],
      "name": "allowedCollateral",
      "outputs": [
        {
          "internalType": "address",
          "name": "",
          "type": "address"
        }
      ],
      "stateMutability": "view",
      "type": "function"
    },
    {
      "inputs": [
        {
          "internalType": "uint256",
          "name": "",
          "type": "uint256"
        }
      ],
      "name": "collateralWeight",
      "outputs": [
        {
          "internalType": "uint256",
          "name": "",
          "type": "uint256"
        }
      ],
      "stateMutability": "view",
      "type": "function"
    },
    {
      "inputs": [
        {
          "internalType": "address",
          "name": "_marginAccount",
          "type": "address"
        },
        {
          "internalType": "address",
          "name": "_asset",
          "type": "address"
        }
      ],
      "name": "getCollateral",
      "outputs": [
        {
          "internalType": "uint256",
          "name": "",
          "type": "uint256"
        }
      ],
      "stateMutability": "view",
      "type": "function"
    },
    {
      "inputs": [
        {
          "internalType": "address",
          "name": "_marginAccount",
          "type": "address"
        }
      ],
      "name": "getFreeCollateralValue",
      "outputs": [
        {
          "internalType": "uint256",
          "name": "",
          "type": "uint256"
        }
      ],
      "stateMutability": "nonpayable",
      "type": "function"
    },
    {
      "inputs": [
        {
          "internalType": "address",
          "name": "",
          "type": "address"
        }
      ],
      "name": "isAllowed",
      "outputs": [
        {
          "internalType": "bool",
          "name": "",
          "type": "bool"
        }
      ],
      "stateMutability": "view",
      "type": "function"
    },
    {
      "inputs": [],
      "name": "marginManager",
      "outputs": [
        {
          "internalType": "contract MarginManager",
          "name": "",
          "type": "address"
        }
      ],
      "stateMutability": "view",
      "type": "function"
    },
    {
      "inputs": [],
      "name": "priceOracle",
      "outputs": [
        {
          "internalType": "contract IPriceOracle",
          "name": "",
          "type": "address"
        }
      ],
      "stateMutability": "view",
      "type": "function"
    },
    {
      "inputs": [],
      "name": "riskManager",
      "outputs": [
        {
          "internalType": "contract IRiskManager",
          "name": "",
          "type": "address"
        }
      ],
      "stateMutability": "view",
      "type": "function"
    },
    {
      "inputs": [
        {
          "internalType": "address",
          "name": "_marginAccount",
          "type": "address"
        }
      ],
      "name": "totalCollateralValue",
      "outputs": [
        {
          "internalType": "uint256",
          "name": "totalAmount",
          "type": "uint256"
        }
      ],
      "stateMutability": "nonpayable",
      "type": "function"
    },
    {
      "inputs": [
        {
          "internalType": "address",
          "name": "_token",
          "type": "address"
        },
        {
          "internalType": "uint256",
          "name": "_allowlistIndex",
          "type": "uint256"
        },
        {
          "internalType": "uint256",
          "name": "_collateralWeight",
          "type": "uint256"
        }
      ],
      "name": "updateCollateralWeight",
      "outputs": [],
      "stateMutability": "nonpayable",
      "type": "function"
    },
    {
      "inputs": [
        {
          "internalType": "address",
          "name": "_token",
          "type": "address"
        },
        {
          "internalType": "uint256",
          "name": "_amount",
          "type": "uint256"
        }
      ],
      "name": "withdrawCollateral",
      "outputs": [],
      "stateMutability": "nonpayable",
      "type": "function"
    }
  ],
  "bytecode": {
    "object": "0x608060405234801561001057600080fd5b5060405161110238038061110283398101604081905261002f9161008d565b600080546001600160a01b039485166001600160a01b0319918216179091556001805493851693821693909317909255600280549190931691161790556100d0565b80516001600160a01b038116811461008857600080fd5b919050565b6000806000606084860312156100a257600080fd5b6100ab84610071565b92506100b960208501610071565b91506100c760408501610071565b90509250925092565b611023806100df6000396000f3fe608060405234801561001057600080fd5b50600436106100cf5760003560e01c806352226ef01161008c578063a723ad3b11610066578063a723ad3b146101ac578063babcc539146101bf578063c2e3e4fc146101f2578063efdcf07f1461020557600080fd5b806352226ef0146101735780636d75b9ee146101865780638051eafc1461019957600080fd5b80630b296844146100d45780632630c12f146100e95780632ebef38d14610119578063350c35e91461013a578063478426631461014d578063481cecaa14610160575b600080fd5b6100e76100e2366004610cfe565b610218565b005b6002546100fc906001600160a01b031681565b6040516001600160a01b0390911681526020015b60405180910390f35b61012c610127366004610d2a565b6103f0565b604051908152602001610110565b6100e7610148366004610cfe565b610411565b6001546100fc906001600160a01b031681565b6000546100fc906001600160a01b031681565b61012c610181366004610d43565b6105e8565b6100e7610194366004610cfe565b610615565b6100fc6101a7366004610d2a565b6107f4565b61012c6101ba366004610d7c565b61081e565b6101e26101cd366004610d7c565b60066020526000908152604090205460ff1681565b6040519015158152602001610110565b61012c610200366004610d7c565b610829565b6100e7610213366004610d99565b610834565b6001600160a01b0382166102665760405162461bcd60e51b815260206004820152601060248201526f434d3a205a65726f204164647265737360801b60448201526064015b60405180910390fd5b6001600160a01b03821660009081526006602052604090205460ff16156102cf5760405162461bcd60e51b815260206004820152601c60248201527f434d3a20436f6c6c61746572616c20616c726561647920616464656400000000604482015260640161025d565b6003805460018082019092557fc2575a0e9e593c00f959f8c92f12db2869c3395a3b0502d05e2516446f71f85b0180546001600160a01b0319166001600160a01b0385169081179091556004805480840182557f8a35acfbc15ff81a39ae7d344fd709f28e8600b4aa8c65c6b64bfe7fe36bd19b01849055600082815260066020908152604091829020805460ff1916909517909455805163313ce56760e01b81529051929363313ce567938284019391929091908290030181865afa15801561039d573d6000803e3d6000fd5b505050506040513d601f19601f820116820180604052508101906103c19190610dce565b6001600160a01b03929092166000908152600560205260409020805460ff191660ff9093169290921790915550565b6004818154811061040057600080fd5b600091825260209091200154905081565b60008054604051639c498bc360e01b81523360048201526001600160a01b0390911690639c498bc390602401602060405180830381865afa15801561045a573d6000803e3d6000fd5b505050506040513d601f19601f8201168201806040525081019061047e9190610df1565b6001600160a01b03841660009081526006602052604090205490915060ff166104e95760405162461bcd60e51b815260206004820152601a60248201527f434d3a20556e737570706f7274656420636f6c6c61746572616c000000000000604482015260640161025d565b60006104f4826108fc565b60025460405163022ea42160e21b8152600481018690526001600160a01b03878116602483015292935083926105769216906308ba9084906044015b602060405180830381865afa15801561054d573d6000803e3d6000fd5b505050506040513d601f19601f820116820180604052508101906105719190610e0e565b610a64565b11156105e25760405162461bcd60e51b815260206004820152603560248201527f434d3a205769746864726177696e67206d6f7265207468616e206672656520636044820152741bdb1b185d195c985b081b9bdd08185b1b1bddd959605a1b606482015260840161025d565b50505050565b6001600160a01b038083166000908152600760209081526040808320938516835292905220545b92915050565b6001600160a01b03821660009081526006602052604090205460ff1661067d5760405162461bcd60e51b815260206004820152601a60248201527f434d3a20556e737570706f7274656420636f6c6c61746572616c000000000000604482015260640161025d565b60008054604051639c498bc360e01b81523360048201526001600160a01b0390911690639c498bc390602401602060405180830381865afa1580156106c6573d6000803e3d6000fd5b505050506040513d601f19601f820116820180604052508101906106ea9190610df1565b60405163165e040d60e21b81523360048201526001600160a01b0385811660248301526044820185905291925090821690635978103490606401600060405180830381600087803b15801561073e57600080fd5b505af1158015610752573d6000803e3d6000fd5b5050506001600160a01b03808316600090815260076020908152604080832093881683529290522054610786915083610a7b565b6001600160a01b0380831660008181526007602090815260408083209489168084529490915290209290925583917f662b1bd33d13e6d2e62a602e837f7cfe4cb4c5cac45a3fdaa54a25c61c9200726107de85610a8e565b60405190815260200160405180910390a4505050565b6003818154811061080457600080fd5b6000918252602090912001546001600160a01b0316905081565b600061060f826108fc565b600061060f82610a8e565b6001600160a01b03831660009081526006602052604090205460ff16801561088b5750826001600160a01b03166003838154811061087457610874610e27565b6000918252602090912001546001600160a01b0316145b6108d75760405162461bcd60e51b815260206004820152601860248201527f434d3a20436f6c6c61746572616c206e6f7420666f756e640000000000000000604482015260640161025d565b80600483815481106108eb576108eb610e27565b600091825260209091200155505050565b600061060f6109e5600160009054906101000a90046001600160a01b03166001600160a01b031663bd8ad4076040518163ffffffff1660e01b81526004016020604051808303816000875af1158015610959573d6000803e3d6000fd5b505050506040513d601f19601f8201168201806040525081019061097d9190610e0e565b846001600160a01b0316634c19386c6040518163ffffffff1660e01b8152600401602060405180830381865afa1580156109bb573d6000803e3d6000fd5b505050506040513d601f19601f820116820180604052508101906109df9190610e0e565b90610ba6565b600054604051634386210f60e11b81526001600160a01b038681166004830152610a5e92169063870c421e90602401602060405180830381865afa158015610a31573d6000803e3d6000fd5b505050506040513d601f19601f82011682018060405250810190610a559190610e0e565b610a5e86610a8e565b90610bb2565b600080821215610a77578160000361060f565b5090565b6000610a878284610e53565b9392505050565b6000805b600354811015610ba057600060038281548110610ab157610ab1610e27565b6000918252602082200154600480546001600160a01b039092169350610b529185908110610ae157610ae1610e27565b6000918252602080832091909101546002546001600160a01b038a8116855260078452604080862089831680885295529485902054945163022ea42160e21b8152600481019590955260248501939093529092606492610b4b9216906308ba908490604401610530565b9190610bbe565b6001600160a01b038316600090815260056020526040902054909150610b8990610b8290839060ff166006610c6c565b8590610a7b565b935050508080610b9890610e66565b915050610a92565b50919050565b6000610a878284610e7f565b6000610a878284610e96565b6000808060001985870985870292508281108382030391505080600003610bf857838281610bee57610bee610ea9565b0492505050610a87565b808411610c0457600080fd5b600084868809600260036001881981018916988990049182028318808302840302808302840302808302840302808302840302808302840302918202909203026000889003889004909101858311909403939093029303949094049190911702949350505050565b60008160ff168360ff1603610c82575082610a87565b8160ff168360ff1611610cb357610cae610c9c8484610ebf565b610ca790600a610fbc565b8590610ba6565b610cd2565b610cd2610cc08385610ebf565b610ccb90600a610fbc565b8590610cda565b949350505050565b6000610a878284610fcb565b6001600160a01b0381168114610cfb57600080fd5b50565b60008060408385031215610d1157600080fd5b8235610d1c81610ce6565b946020939093013593505050565b600060208284031215610d3c57600080fd5b5035919050565b60008060408385031215610d5657600080fd5b8235610d6181610ce6565b91506020830135610d7181610ce6565b809150509250929050565b600060208284031215610d8e57600080fd5b8135610a8781610ce6565b600080600060608486031215610dae57600080fd5b8335610db981610ce6565b95602085013595506040909401359392505050565b600060208284031215610de057600080fd5b815160ff81168114610a8757600080fd5b600060208284031215610e0357600080fd5b8151610a8781610ce6565b600060208284031215610e2057600080fd5b5051919050565b634e487b7160e01b600052603260045260246000fd5b634e487b7160e01b600052601160045260246000fd5b8082018082111561060f5761060f610e3d565b600060018201610e7857610e78610e3d565b5060010190565b808202811582820484141761060f5761060f610e3d565b8181038181111561060f5761060f610e3d565b634e487b7160e01b600052601260045260246000fd5b60ff828116828216039081111561060f5761060f610e3d565b600181815b80851115610f13578160001904821115610ef957610ef9610e3d565b80851615610f0657918102915b93841c9390800290610edd565b509250929050565b600082610f2a5750600161060f565b81610f375750600061060f565b8160018114610f4d5760028114610f5757610f73565b600191505061060f565b60ff841115610f6857610f68610e3d565b50506001821b61060f565b5060208310610133831016604e8410600b8410161715610f96575081810a61060f565b610fa08383610ed8565b8060001904821115610fb457610fb4610e3d565b029392505050565b6000610a8760ff841683610f1b565b600082610fe857634e487b7160e01b600052601260045260246000fd5b50049056fea2646970667358221220e304c3766569d5455557bec207c555caeacbb266bde61d93ce6daf5c47fefb5e64736f6c63430008110033",
    "linkReferences": {}
  },
  "methodIdentifiers": {
    "addAllowedCollateral(address,uint256)": "0b296844",
    "addCollateral(address,uint256)": "6d75b9ee",
    "allowedCollateral(uint256)": "8051eafc",
    "collateralWeight(uint256)": "2ebef38d",
    "getCollateral(address,address)": "52226ef0",
    "getFreeCollateralValue(address)": "a723ad3b",
    "isAllowed(address)": "babcc539",
    "marginManager()": "481cecaa",
    "priceOracle()": "2630c12f",
    "riskManager()": "47842663",
    "totalCollateralValue(address)": "c2e3e4fc",
    "updateCollateralWeight(address,uint256,uint256)": "efdcf07f",
    "withdrawCollateral(address,uint256)": "350c35e9"
  },
  "id": 0
}